{
  "_format": "hh-sol-artifact-1",
  "contractName": "TableAccessControlContract",
  "sourceName": "contracts/TableAccessControlContract.sol",
  "abi": [
    {
      "inputs": [
        {
          "internalType": "address",
          "name": "_roleBasedAccessControl",
          "type": "address"
        },
        {
          "internalType": "address",
          "name": "_judgeContract",
          "type": "address"
        },
        {
          "internalType": "address",
          "name": "_registerContract",
          "type": "address"
        },
        {
          "internalType": "address",
          "name": "initialOwner",
          "type": "address"
        }
      ],
      "stateMutability": "nonpayable",
      "type": "constructor"
    },
    {
      "inputs": [
        {
          "internalType": "address",
          "name": "owner",
          "type": "address"
        }
      ],
      "name": "OwnableInvalidOwner",
      "type": "error"
    },
    {
      "inputs": [
        {
          "internalType": "address",
          "name": "account",
          "type": "address"
        }
      ],
      "name": "OwnableUnauthorizedAccount",
      "type": "error"
    },
    {
      "anonymous": false,
      "inputs": [
        {
          "indexed": true,
          "internalType": "address",
          "name": "requester",
          "type": "address"
        },
        {
          "indexed": false,
          "internalType": "string",
          "name": "reason",
          "type": "string"
        }
      ],
      "name": "AccessDenied",
      "type": "event"
    },
    {
      "anonymous": false,
      "inputs": [
        {
          "indexed": true,
          "internalType": "address",
          "name": "requester",
          "type": "address"
        },
        {
          "indexed": false,
          "internalType": "string",
          "name": "funcName",
          "type": "string"
        },
        {
          "indexed": false,
          "internalType": "string",
          "name": "funcType",
          "type": "string"
        }
      ],
      "name": "AccessGranted",
      "type": "event"
    },
    {
      "anonymous": false,
      "inputs": [
        {
          "indexed": true,
          "internalType": "uint256",
          "name": "requestId",
          "type": "uint256"
        },
        {
          "indexed": true,
          "internalType": "address",
          "name": "requester",
          "type": "address"
        },
        {
          "indexed": false,
          "internalType": "string",
          "name": "resource",
          "type": "string"
        },
        {
          "indexed": true,
          "internalType": "address",
          "name": "contractAddress",
          "type": "address"
        }
      ],
      "name": "AccessRequestCreated",
      "type": "event"
    },
    {
      "anonymous": false,
      "inputs": [
        {
          "indexed": true,
          "internalType": "address",
          "name": "subject",
          "type": "address"
        },
        {
          "indexed": false,
          "internalType": "uint256",
          "name": "penaltyAmount",
          "type": "uint256"
        },
        {
          "indexed": false,
          "internalType": "string",
          "name": "reason",
          "type": "string"
        },
        {
          "indexed": false,
          "internalType": "uint256",
          "name": "blockingEndTime",
          "type": "uint256"
        }
      ],
      "name": "MaliciousActivityReported",
      "type": "event"
    },
    {
      "anonymous": false,
      "inputs": [
        {
          "indexed": true,
          "internalType": "address",
          "name": "subject",
          "type": "address"
        },
        {
          "indexed": false,
          "internalType": "uint256",
          "name": "rewardAmount",
          "type": "uint256"
        },
        {
          "indexed": false,
          "internalType": "string",
          "name": "newStatus",
          "type": "string"
        }
      ],
      "name": "NonPenalizeMisbehaviorReported",
      "type": "event"
    },
    {
      "anonymous": false,
      "inputs": [
        {
          "indexed": true,
          "internalType": "address",
          "name": "previousOwner",
          "type": "address"
        },
        {
          "indexed": true,
          "internalType": "address",
          "name": "newOwner",
          "type": "address"
        }
      ],
      "name": "OwnershipTransferred",
      "type": "event"
    },
    {
      "anonymous": false,
      "inputs": [
        {
          "indexed": false,
          "internalType": "uint256",
          "name": "policyId",
          "type": "uint256"
        },
        {
          "indexed": false,
          "internalType": "enum RoleToken.Role",
          "name": "role",
          "type": "uint8"
        },
        {
          "indexed": false,
          "internalType": "string",
          "name": "resource",
          "type": "string"
        },
        {
          "indexed": false,
          "internalType": "string",
          "name": "action",
          "type": "string"
        },
        {
          "indexed": false,
          "internalType": "string",
          "name": "permission",
          "type": "string"
        }
      ],
      "name": "PolicyAdded",
      "type": "event"
    },
    {
      "anonymous": false,
      "inputs": [
        {
          "indexed": false,
          "internalType": "uint256",
          "name": "policyId",
          "type": "uint256"
        }
      ],
      "name": "PolicyDeleted",
      "type": "event"
    },
    {
      "anonymous": false,
      "inputs": [
        {
          "indexed": false,
          "internalType": "uint256",
          "name": "policyId",
          "type": "uint256"
        },
        {
          "indexed": false,
          "internalType": "enum RoleToken.Role",
          "name": "role",
          "type": "uint8"
        },
        {
          "indexed": false,
          "internalType": "string",
          "name": "resource",
          "type": "string"
        },
        {
          "indexed": false,
          "internalType": "string",
          "name": "action",
          "type": "string"
        },
        {
          "indexed": false,
          "internalType": "string",
          "name": "permission",
          "type": "string"
        }
      ],
      "name": "PolicyUpdated",
      "type": "event"
    },
    {
      "anonymous": false,
      "inputs": [
        {
          "indexed": false,
          "internalType": "address",
          "name": "resolvedAddress",
          "type": "address"
        },
        {
          "indexed": false,
          "internalType": "string",
          "name": "name",
          "type": "string"
        }
      ],
      "name": "ResolveAddressLog",
      "type": "event"
    },
    {
      "inputs": [
        {
          "internalType": "uint256",
          "name": "",
          "type": "uint256"
        }
      ],
      "name": "accessRequests",
      "outputs": [
        {
          "internalType": "uint256",
          "name": "id",
          "type": "uint256"
        },
        {
          "internalType": "string",
          "name": "resource",
          "type": "string"
        },
        {
          "internalType": "string",
          "name": "action",
          "type": "string"
        },
        {
          "internalType": "uint256",
          "name": "approvals",
          "type": "uint256"
        },
        {
          "internalType": "address",
          "name": "requester",
          "type": "address"
        },
        {
          "internalType": "bool",
          "name": "isGlobalRequest",
          "type": "bool"
        },
        {
          "internalType": "bool",
          "name": "isApproved",
          "type": "bool"
        },
        {
          "internalType": "uint256",
          "name": "requiredQuorum",
          "type": "uint256"
        }
      ],
      "stateMutability": "view",
      "type": "function"
    },
    {
      "inputs": [
        {
          "internalType": "uint256",
          "name": "",
          "type": "uint256"
        },
        {
          "internalType": "address",
          "name": "",
          "type": "address"
        }
      ],
      "name": "approvals",
      "outputs": [
        {
          "internalType": "bool",
          "name": "",
          "type": "bool"
        }
      ],
      "stateMutability": "view",
      "type": "function"
    },
    {
      "inputs": [
        {
          "internalType": "string",
          "name": "resource",
          "type": "string"
        },
        {
          "internalType": "string",
          "name": "action",
          "type": "string"
        }
      ],
      "name": "createAccessRequest",
      "outputs": [],
      "stateMutability": "nonpayable",
      "type": "function"
    },
    {
      "inputs": [
        {
          "internalType": "address",
          "name": "account",
          "type": "address"
        }
      ],
      "name": "deleteGlobalResourceTable",
      "outputs": [],
      "stateMutability": "nonpayable",
      "type": "function"
    },
    {
      "inputs": [
        {
          "internalType": "address",
          "name": "account",
          "type": "address"
        }
      ],
      "name": "deleteLocalResourceTable",
      "outputs": [],
      "stateMutability": "nonpayable",
      "type": "function"
    },
    {
      "inputs": [
        {
          "internalType": "address",
          "name": "account1",
          "type": "address"
        },
        {
          "internalType": "address",
          "name": "account2",
          "type": "address"
        }
      ],
      "name": "editGlobalResourceTable",
      "outputs": [],
      "stateMutability": "nonpayable",
      "type": "function"
    },
    {
      "inputs": [
        {
          "internalType": "address",
          "name": "account1",
          "type": "address"
        },
        {
          "internalType": "address",
          "name": "account2",
          "type": "address"
        }
      ],
      "name": "editLocalResourceTable",
      "outputs": [],
      "stateMutability": "nonpayable",
      "type": "function"
    },
    {
      "inputs": [
        {
          "internalType": "uint256",
          "name": "requestId",
          "type": "uint256"
        },
        {
          "internalType": "bool",
          "name": "approve",
          "type": "bool"
        }
      ],
      "name": "handleAccessRequest",
      "outputs": [],
      "stateMutability": "nonpayable",
      "type": "function"
    },
    {
      "inputs": [],
      "name": "judgeContract",
      "outputs": [
        {
          "internalType": "contract JudgeContract",
          "name": "",
          "type": "address"
        }
      ],
      "stateMutability": "view",
      "type": "function"
    },
    {
      "inputs": [],
      "name": "owner",
      "outputs": [
        {
          "internalType": "address",
          "name": "",
          "type": "address"
        }
      ],
      "stateMutability": "view",
      "type": "function"
    },
    {
      "inputs": [
        {
          "internalType": "uint256",
          "name": "",
          "type": "uint256"
        }
      ],
      "name": "policies",
      "outputs": [
        {
          "internalType": "enum RoleToken.Role",
          "name": "role",
          "type": "uint8"
        },
        {
          "internalType": "string",
          "name": "resource",
          "type": "string"
        },
        {
          "internalType": "string",
          "name": "action",
          "type": "string"
        },
        {
          "internalType": "string",
          "name": "permission",
          "type": "string"
        },
        {
          "internalType": "uint256",
          "name": "timeOfLastRequest",
          "type": "uint256"
        }
      ],
      "stateMutability": "view",
      "type": "function"
    },
    {
      "inputs": [
        {
          "internalType": "enum RoleToken.Role",
          "name": "role",
          "type": "uint8"
        },
        {
          "internalType": "string",
          "name": "resource",
          "type": "string"
        },
        {
          "internalType": "string",
          "name": "action",
          "type": "string"
        },
        {
          "internalType": "string",
          "name": "permission",
          "type": "string"
        }
      ],
      "name": "policyAdd",
      "outputs": [],
      "stateMutability": "nonpayable",
      "type": "function"
    },
    {
      "inputs": [
        {
          "internalType": "uint256",
          "name": "policyId",
          "type": "uint256"
        }
      ],
      "name": "policyDelete",
      "outputs": [],
      "stateMutability": "nonpayable",
      "type": "function"
    },
    {
      "inputs": [
        {
          "internalType": "uint256",
          "name": "policyId",
          "type": "uint256"
        },
        {
          "internalType": "enum RoleToken.Role",
          "name": "role",
          "type": "uint8"
        },
        {
          "internalType": "string",
          "name": "resource",
          "type": "string"
        },
        {
          "internalType": "string",
          "name": "action",
          "type": "string"
        },
        {
          "internalType": "string",
          "name": "permission",
          "type": "string"
        }
      ],
      "name": "policyUpdate",
      "outputs": [],
      "stateMutability": "nonpayable",
      "type": "function"
    },
    {
      "inputs": [],
      "name": "quorumPercentage",
      "outputs": [
        {
          "internalType": "uint256",
          "name": "",
          "type": "uint256"
        }
      ],
      "stateMutability": "view",
      "type": "function"
    },
    {
      "inputs": [],
      "name": "registerContract",
      "outputs": [
        {
          "internalType": "contract RegisterContract",
          "name": "",
          "type": "address"
        }
      ],
      "stateMutability": "view",
      "type": "function"
    },
    {
      "inputs": [],
      "name": "renounceOwnership",
      "outputs": [],
      "stateMutability": "nonpayable",
      "type": "function"
    },
    {
      "inputs": [],
      "name": "roleBasedAccessControl",
      "outputs": [
        {
          "internalType": "contract RoleBasedAccessControl",
          "name": "",
          "type": "address"
        }
      ],
      "stateMutability": "view",
      "type": "function"
    },
    {
      "inputs": [
        {
          "internalType": "address",
          "name": "newOwner",
          "type": "address"
        }
      ],
      "name": "transferOwnership",
      "outputs": [],
      "stateMutability": "nonpayable",
      "type": "function"
    },
    {
      "inputs": [],
      "name": "viewGlobalResourceTable",
      "outputs": [
        {
          "components": [
            {
              "internalType": "address",
              "name": "memberAddress",
              "type": "address"
            },
            {
              "internalType": "string",
              "name": "name",
              "type": "string"
            },
            {
              "internalType": "string",
              "name": "memberType",
              "type": "string"
            },
            {
              "internalType": "string",
              "name": "status",
              "type": "string"
            },
            {
              "internalType": "uint256",
              "name": "lastStatusUpdate",
              "type": "uint256"
            },
            {
              "internalType": "enum RoleToken.Role",
              "name": "role",
              "type": "uint8"
            }
          ],
          "internalType": "struct RoleToken.Member[]",
          "name": "",
          "type": "tuple[]"
        }
      ],
      "stateMutability": "nonpayable",
      "type": "function"
    },
    {
      "inputs": [],
      "name": "viewLocalResourceTable",
      "outputs": [
        {
          "components": [
            {
              "internalType": "address",
              "name": "memberAddress",
              "type": "address"
            },
            {
              "internalType": "string",
              "name": "name",
              "type": "string"
            },
            {
              "internalType": "string",
              "name": "memberType",
              "type": "string"
            },
            {
              "internalType": "string",
              "name": "status",
              "type": "string"
            },
            {
              "internalType": "uint256",
              "name": "lastStatusUpdate",
              "type": "uint256"
            },
            {
              "internalType": "enum RoleToken.Role",
              "name": "role",
              "type": "uint8"
            }
          ],
          "internalType": "struct RoleToken.Member[]",
          "name": "",
          "type": "tuple[]"
        }
      ],
      "stateMutability": "nonpayable",
      "type": "function"
    }
  ],
  "bytecode": "0x608060405260336004553480156200001657600080fd5b50604051620063d7380380620063d783398181016040528101906200003c9190620002bf565b80600073ffffffffffffffffffffffffffffffffffffffff168173ffffffffffffffffffffffffffffffffffffffff1603620000b25760006040517f1e4fbdf7000000000000000000000000000000000000000000000000000000008152600401620000a9919062000342565b60405180910390fd5b620000c3816200019160201b60201c565b5083600160006101000a81548173ffffffffffffffffffffffffffffffffffffffff021916908373ffffffffffffffffffffffffffffffffffffffff16021790555082600260006101000a81548173ffffffffffffffffffffffffffffffffffffffff021916908373ffffffffffffffffffffffffffffffffffffffff16021790555081600360006101000a81548173ffffffffffffffffffffffffffffffffffffffff021916908373ffffffffffffffffffffffffffffffffffffffff160217905550505050506200035f565b60008060009054906101000a900473ffffffffffffffffffffffffffffffffffffffff169050816000806101000a81548173ffffffffffffffffffffffffffffffffffffffff021916908373ffffffffffffffffffffffffffffffffffffffff1602179055508173ffffffffffffffffffffffffffffffffffffffff168173ffffffffffffffffffffffffffffffffffffffff167f8be0079c531659141344cd1fd0a4f28419497f9722a3daafe3b4186f6b6457e060405160405180910390a35050565b600080fd5b600073ffffffffffffffffffffffffffffffffffffffff82169050919050565b600062000287826200025a565b9050919050565b62000299816200027a565b8114620002a557600080fd5b50565b600081519050620002b9816200028e565b92915050565b60008060008060808587031215620002dc57620002db62000255565b5b6000620002ec87828801620002a8565b9450506020620002ff87828801620002a8565b93505060406200031287828801620002a8565b92505060606200032587828801620002a8565b91505092959194509250565b6200033c816200027a565b82525050565b600060208201905062000359600083018462000331565b92915050565b616068806200036f6000396000f3fe608060405234801561001057600080fd5b50600436106101375760003560e01c8063715018a6116100b8578063a39610a01161007c578063a39610a0146102f5578063ab2850da14610311578063b3b4c20a14610341578063d3e894831461035d578063d6b683fc14610391578063f2fde38b146103af57610137565b8063715018a61461025c5780637feffff3146102665780638ca91a9a146102845780638da5cb5b146102bb5780638eee05be146102d957610137565b80634fa76ec9116100ff5780634fa76ec9146101cc57806355668260146101ea5780636293902f1461020657806362f2788a146102245780636391b4881461024057610137565b80630c317f061461013c5780630d9f7ed41461015a578063235fd7e21461017657806337930faf146101925780633c2b363a146101b0575b600080fd5b6101446103cb565b6040516101519190614306565b60405180910390f35b610174600480360381019061016f91906144d6565b6103f1565b005b610190600480360381019061018b91906145a5565b610561565b005b61019a61065b565b6040516101a79190614851565b60405180910390f35b6101ca60048036038101906101c591906148ab565b610b01565b005b6101d461113e565b6040516101e191906148fa565b60405180910390f35b61020460048036038101906101ff9190614915565b611144565b005b61020e611a61565b60405161021b9190614851565b60405180910390f35b61023e600480360381019061023991906149b9565b611e52565b005b61025a600480360381019061025591906149e6565b612406565b005b610264612547565b005b61026e61255b565b60405161027b9190614ac2565b60405180910390f35b61029e600480360381019061029991906145a5565b612581565b6040516102b2989796959493929190614b45565b60405180910390f35b6102c3612723565b6040516102d09190614bd1565b60405180910390f35b6102f360048036038101906102ee9190614bec565b61274c565b005b61030f600480360381019061030a91906149b9565b612f64565b005b61032b60048036038101906103269190614c2c565b6135e4565b6040516103389190614c6c565b60405180910390f35b61035b60048036038101906103569190614bec565b613613565b005b610377600480360381019061037291906145a5565b613c97565b604051610388959493929190614c96565b60405180910390f35b610399613e82565b6040516103a69190614d1f565b60405180910390f35b6103c960048036038101906103c491906149b9565b613ea8565b005b600160009054906101000a900473ffffffffffffffffffffffffffffffffffffffff1681565b6103f9613f2e565b6005805490508510610440576040517f08c379a000000000000000000000000000000000000000000000000000000000815260040161043790614d86565b60405180910390fd5b6040518060a0016040528085600481111561045e5761045d6146ad565b5b815260200184815260200183815260200182815260200160008152506005868154811061048e5761048d614da6565b5b906000526020600020906005020160008201518160000160006101000a81548160ff021916908360048111156104c7576104c66146ad565b5b021790555060208201518160010190816104e19190614fd7565b5060408201518160020190816104f79190614fd7565b50606082015181600301908161050d9190614fd7565b50608082015181600401559050507f4a878bb267cedaa636258d749db7a5ac8f0cc2338419d6b0429443d8a11d547085858585856040516105529594939291906150a9565b60405180910390a15050505050565b610569613f2e565b60058054905081106105b0576040517f08c379a00000000000000000000000000000000000000000000000000000000081526004016105a790614d86565b60405180910390fd5b600581815481106105c4576105c3614da6565b5b9060005260206000209060050201600080820160006101000a81549060ff02191690556001820160006105f7919061422a565b600282016000610607919061422a565b600382016000610617919061422a565b600482016000905550507f433ab09ab993382af577c4a70f77dcc7cf149b5b52eb40d19b869664bfb5496d8160405161065091906148fa565b60405180910390a150565b60606000600260009054906101000a900473ffffffffffffffffffffffffffffffffffffffff1673ffffffffffffffffffffffffffffffffffffffff16630e104278336040518263ffffffff1660e01b81526004016106ba9190614bd1565b602060405180830381865afa1580156106d7573d6000803e3d6000fd5b505050506040513d601f19601f820116820180604052508101906106fb9190615126565b905080421161073f576040517f08c379a0000000000000000000000000000000000000000000000000000000008152600401610736906151c5565b60405180910390fd5b6040518060400160405280601281526020017f4c6f63616c5265736f757263655461626c6500000000000000000000000000008152506040518060400160405280600481526020017f76696577000000000000000000000000000000000000000000000000000000008152506000805b600680549050811015610920573373ffffffffffffffffffffffffffffffffffffffff16600682815481106107e7576107e6614da6565b5b906000526020600020906006020160040160009054906101000a900473ffffffffffffffffffffffffffffffffffffffff1673ffffffffffffffffffffffffffffffffffffffff1614801561086b57506006818154811061084b5761084a614da6565b5b906000526020600020906006020160040160159054906101000a900460ff165b1561090d5783805190602001206006828154811061088c5761088b614da6565b5b90600052602060002090600602016001016040516108aa9190615288565b60405180910390201480156108fe57508280519060200120600682815481106108d6576108d5614da6565b5b90600052602060002090600602016002016040516108f49190615288565b6040518091039020145b1561090c5760019150610920565b5b8080610918906152ce565b9150506107af565b5080610961576040517f08c379a000000000000000000000000000000000000000000000000000000000815260040161095890615388565b60405180910390fd5b6000600160009054906101000a900473ffffffffffffffffffffffffffffffffffffffff1673ffffffffffffffffffffffffffffffffffffffff16632ada2596336040518263ffffffff1660e01b81526004016109be9190614bd1565b600060405180830381865afa1580156109db573d6000803e3d6000fd5b505050506040513d6000823e3d601f19601f82011682018060405250810190610a049190615540565b90503373ffffffffffffffffffffffffffffffffffffffff167f83d90dfabb9dd5929f37bedd596ec8b76fec40556dcf87a93c891c43ecbc35a2604051610a4a90615621565b60405180910390a2600160009054906101000a900473ffffffffffffffffffffffffffffffffffffffff1673ffffffffffffffffffffffffffffffffffffffff16631119299982604001516040518263ffffffff1660e01b8152600401610ab19190615654565b600060405180830381865afa158015610ace573d6000803e3d6000fd5b505050506040513d6000823e3d601f19601f82011682018060405250810190610af7919061575c565b9550505050505090565b600160009054906101000a900473ffffffffffffffffffffffffffffffffffffffff1673ffffffffffffffffffffffffffffffffffffffff16636925da903360026040518363ffffffff1660e01b8152600401610b5f9291906157a5565b60006040518083038186803b158015610b7757600080fd5b505afa158015610b8b573d6000803e3d6000fd5b505050506000600260009054906101000a900473ffffffffffffffffffffffffffffffffffffffff1673ffffffffffffffffffffffffffffffffffffffff16630e104278336040518263ffffffff1660e01b8152600401610bec9190614bd1565b602060405180830381865afa158015610c09573d6000803e3d6000fd5b505050506040513d601f19601f82011682018060405250810190610c2d9190615126565b9050804211610c71576040517f08c379a0000000000000000000000000000000000000000000000000000000008152600401610c68906151c5565b60405180910390fd5b6006805490508310610cb8576040517f08c379a0000000000000000000000000000000000000000000000000000000008152600401610caf9061581a565b60405180910390fd5b600060068481548110610cce57610ccd614da6565b5b906000526020600020906006020190508060040160009054906101000a900473ffffffffffffffffffffffffffffffffffffffff1673ffffffffffffffffffffffffffffffffffffffff163373ffffffffffffffffffffffffffffffffffffffff1603610d70576040517f08c379a0000000000000000000000000000000000000000000000000000000008152600401610d67906158ac565b60405180910390fd5b8060040160149054906101000a900460ff16158015610e715750600480811115610d9d57610d9c6146ad565b5b600160009054906101000a900473ffffffffffffffffffffffffffffffffffffffff1673ffffffffffffffffffffffffffffffffffffffff1663442767338360040160009054906101000a900473ffffffffffffffffffffffffffffffffffffffff166040518263ffffffff1660e01b8152600401610e1c9190614bd1565b602060405180830381865afa158015610e39573d6000803e3d6000fd5b505050506040513d601f19601f82011682018060405250810190610e5d91906158cc565b6004811115610e6f57610e6e6146ad565b5b145b15610faa576000600160009054906101000a900473ffffffffffffffffffffffffffffffffffffffff1673ffffffffffffffffffffffffffffffffffffffff16637e7a06e68360040160009054906101000a900473ffffffffffffffffffffffffffffffffffffffff166040518263ffffffff1660e01b8152600401610ef79190614bd1565b602060405180830381865afa158015610f14573d6000803e3d6000fd5b505050506040513d601f19601f82011682018060405250810190610f3891906158f9565b90503373ffffffffffffffffffffffffffffffffffffffff168173ffffffffffffffffffffffffffffffffffffffff1614610fa8576040517f08c379a0000000000000000000000000000000000000000000000000000000008152600401610f9f906159be565b60405180910390fd5b505b82801561101257506007600085815260200190815260200160002060003373ffffffffffffffffffffffffffffffffffffffff1673ffffffffffffffffffffffffffffffffffffffff16815260200190815260200160002060009054906101000a900460ff16155b156111385780600301600081548092919061102c906152ce565b919050555060016007600086815260200190815260200160002060003373ffffffffffffffffffffffffffffffffffffffff1673ffffffffffffffffffffffffffffffffffffffff16815260200190815260200160002060006101000a81548160ff02191690831515021790555080600501548160030154106111375760018160040160156101000a81548160ff0219169083151502179055508060040160009054906101000a900473ffffffffffffffffffffffffffffffffffffffff1673ffffffffffffffffffffffffffffffffffffffff167f83d90dfabb9dd5929f37bedd596ec8b76fec40556dcf87a93c891c43ecbc35a260405161112e90615a76565b60405180910390a25b5b50505050565b60045481565b6000600260009054906101000a900473ffffffffffffffffffffffffffffffffffffffff1673ffffffffffffffffffffffffffffffffffffffff16630e104278336040518263ffffffff1660e01b81526004016111a19190614bd1565b602060405180830381865afa1580156111be573d6000803e3d6000fd5b505050506040513d601f19601f820116820180604052508101906111e29190615126565b9050804211611226576040517f08c379a000000000000000000000000000000000000000000000000000000000815260040161121d906151c5565b60405180910390fd5b6000600160009054906101000a900473ffffffffffffffffffffffffffffffffffffffff1673ffffffffffffffffffffffffffffffffffffffff166344276733336040518263ffffffff1660e01b81526004016112839190614bd1565b602060405180830381865afa1580156112a0573d6000803e3d6000fd5b505050506040513d601f19601f820116820180604052508101906112c491906158cc565b905060006112d3858584613fb5565b9050806115d0576040518060400160405280600481526020017f6564697400000000000000000000000000000000000000000000000000000000815250805190602001208480519060200120148061136d57506040518060400160405280600681526020017f64656c6574650000000000000000000000000000000000000000000000000000815250805190602001208480519060200120145b1561147a576000806000600260009054906101000a900473ffffffffffffffffffffffffffffffffffffffff1673ffffffffffffffffffffffffffffffffffffffff1663c4df01ce336040518263ffffffff1660e01b81526004016113d29190615af5565b6000604051808303816000875af11580156113f1573d6000803e3d6000fd5b505050506040513d6000823e3d601f19601f8201168201806040525081019061141a9190615b23565b9250925092503373ffffffffffffffffffffffffffffffffffffffff167f3fc8de32d0ff2767d320c8c52fd3ab1a29ddf9484b23575845d542369bdfa37f84848460405161146a93929190615b92565b60405180910390a25050506115c9565b6040518060400160405280600481526020017f7669657700000000000000000000000000000000000000000000000000000000815250805190602001208480519060200120036115c8576000806000600260009054906101000a900473ffffffffffffffffffffffffffffffffffffffff1673ffffffffffffffffffffffffffffffffffffffff1663c4df01ce336040518263ffffffff1660e01b81526004016115249190615c1c565b6000604051808303816000875af1158015611543573d6000803e3d6000fd5b505050506040513d6000823e3d601f19601f8201168201806040525081019061156c9190615b23565b9250925092503373ffffffffffffffffffffffffffffffffffffffff167f3fc8de32d0ff2767d320c8c52fd3ab1a29ddf9484b23575845d542369bdfa37f8484846040516115bc93929190615b92565b60405180910390a25050505b5b5050611a5c565b60006040518060400160405280601381526020017f476c6f62616c5265736f757263655461626c650000000000000000000000000081525080519060200120868051906020012014905060008115801561164e575060026004811115611639576116386146ad565b5b84600481111561164c5761164b6146ad565b5b145b905060008215611781576000600160009054906101000a900473ffffffffffffffffffffffffffffffffffffffff1673ffffffffffffffffffffffffffffffffffffffff16637575bb426040518163ffffffff1660e01b8152600401600060405180830381865afa1580156116c7573d6000803e3d6000fd5b505050506040513d6000823e3d601f19601f820116820180604052508101906116f0919061575c565b51905060008114611776576002600481111561170f5761170e6146ad565b5b866004811115611722576117216146ad565b5b036117545760646004546001836117399190615c4a565b6117439190615c7e565b61174d9190615cef565b9150611771565b6064600454826117649190615c7e565b61176e9190615cef565b91505b61177b565b600091505b50611786565b600190505b6000600680549050905060066040518061010001604052808381526020018b81526020018a8152602001856117bc5760006117bf565b60015b60ff1681526020013373ffffffffffffffffffffffffffffffffffffffff1681526020018615158152602001851515815260200184815250908060018154018082558091505060019003906000526020600020906006020160009091909190915060008201518160000155602082015181600101908161183f9190614fd7565b5060408201518160020190816118559190614fd7565b506060820151816003015560808201518160040160006101000a81548173ffffffffffffffffffffffffffffffffffffffff021916908373ffffffffffffffffffffffffffffffffffffffff16021790555060a08201518160040160146101000a81548160ff02191690831515021790555060c08201518160040160156101000a81548160ff02191690831515021790555060e082015181600501555050600080600260009054906101000a900473ffffffffffffffffffffffffffffffffffffffff1673ffffffffffffffffffffffffffffffffffffffff16631e349d1c336040518263ffffffff1660e01b81526004016119519190614bd1565b6000604051808303816000875af1158015611970573d6000803e3d6000fd5b505050506040513d6000823e3d601f19601f820116820180604052508101906119999190615d20565b915091503373ffffffffffffffffffffffffffffffffffffffff167f99160c89fdccb67e1961cf554a10fffb3dbbb7b2cd44a817f2aac33deb57d9d783836040516119e5929190615d7c565b60405180910390a23073ffffffffffffffffffffffffffffffffffffffff163373ffffffffffffffffffffffffffffffffffffffff16847fccb40be31330cd8cdf0ab9448dce3cc578cc50fa1511b2bf5bdfd9ac2c0ac2028e604051611a4b9190615654565b60405180910390a450505050505050505b505050565b60606000600260009054906101000a900473ffffffffffffffffffffffffffffffffffffffff1673ffffffffffffffffffffffffffffffffffffffff16630e104278336040518263ffffffff1660e01b8152600401611ac09190614bd1565b602060405180830381865afa158015611add573d6000803e3d6000fd5b505050506040513d601f19601f82011682018060405250810190611b019190615126565b9050804211611b45576040517f08c379a0000000000000000000000000000000000000000000000000000000008152600401611b3c906151c5565b60405180910390fd5b6040518060400160405280601381526020017f476c6f62616c5265736f757263655461626c65000000000000000000000000008152506040518060400160405280600481526020017f76696577000000000000000000000000000000000000000000000000000000008152506000805b600680549050811015611d26573373ffffffffffffffffffffffffffffffffffffffff1660068281548110611bed57611bec614da6565b5b906000526020600020906006020160040160009054906101000a900473ffffffffffffffffffffffffffffffffffffffff1673ffffffffffffffffffffffffffffffffffffffff16148015611c71575060068181548110611c5157611c50614da6565b5b906000526020600020906006020160040160159054906101000a900460ff165b15611d1357838051906020012060068281548110611c9257611c91614da6565b5b9060005260206000209060060201600101604051611cb09190615288565b6040518091039020148015611d045750828051906020012060068281548110611cdc57611cdb614da6565b5b9060005260206000209060060201600201604051611cfa9190615288565b6040518091039020145b15611d125760019150611d26565b5b8080611d1e906152ce565b915050611bb5565b5080611d67576040517f08c379a0000000000000000000000000000000000000000000000000000000008152600401611d5e90615388565b60405180910390fd5b3373ffffffffffffffffffffffffffffffffffffffff167f83d90dfabb9dd5929f37bedd596ec8b76fec40556dcf87a93c891c43ecbc35a2604051611dab90615df8565b60405180910390a2600160009054906101000a900473ffffffffffffffffffffffffffffffffffffffff1673ffffffffffffffffffffffffffffffffffffffff16637575bb426040518163ffffffff1660e01b8152600401600060405180830381865afa158015611e20573d6000803e3d6000fd5b505050506040513d6000823e3d601f19601f82011682018060405250810190611e49919061575c565b94505050505090565b6000600260009054906101000a900473ffffffffffffffffffffffffffffffffffffffff1673ffffffffffffffffffffffffffffffffffffffff16630e104278336040518263ffffffff1660e01b8152600401611eaf9190614bd1565b602060405180830381865afa158015611ecc573d6000803e3d6000fd5b505050506040513d601f19601f82011682018060405250810190611ef09190615126565b9050804211611f34576040517f08c379a0000000000000000000000000000000000000000000000000000000008152600401611f2b906151c5565b60405180910390fd5b6040518060400160405280601381526020017f476c6f62616c5265736f757263655461626c65000000000000000000000000008152506040518060400160405280600681526020017f64656c65746500000000000000000000000000000000000000000000000000008152506000805b600680549050811015612115573373ffffffffffffffffffffffffffffffffffffffff1660068281548110611fdc57611fdb614da6565b5b906000526020600020906006020160040160009054906101000a900473ffffffffffffffffffffffffffffffffffffffff1673ffffffffffffffffffffffffffffffffffffffff161480156120605750600681815481106120405761203f614da6565b5b906000526020600020906006020160040160159054906101000a900460ff165b156121025783805190602001206006828154811061208157612080614da6565b5b906000526020600020906006020160010160405161209f9190615288565b60405180910390201480156120f357508280519060200120600682815481106120cb576120ca614da6565b5b90600052602060002090600602016002016040516120e99190615288565b6040518091039020145b156121015760019150612115565b5b808061210d906152ce565b915050611fa4565b5080612156576040517f08c379a000000000000000000000000000000000000000000000000000000000815260040161214d90615388565b60405180910390fd5b6002600481111561216a576121696146ad565b5b600160009054906101000a900473ffffffffffffffffffffffffffffffffffffffff1673ffffffffffffffffffffffffffffffffffffffff166344276733876040518263ffffffff1660e01b81526004016121c59190614bd1565b602060405180830381865afa1580156121e2573d6000803e3d6000fd5b505050506040513d601f19601f8201168201806040525081019061220691906158cc565b6004811115612218576122176146ad565b5b14612325576000806000600260009054906101000a900473ffffffffffffffffffffffffffffffffffffffff1673ffffffffffffffffffffffffffffffffffffffff1663c4df01ce336040518263ffffffff1660e01b815260040161227d9190615e77565b6000604051808303816000875af115801561229c573d6000803e3d6000fd5b505050506040513d6000823e3d601f19601f820116820180604052508101906122c59190615b23565b9250925092503373ffffffffffffffffffffffffffffffffffffffff167f3fc8de32d0ff2767d320c8c52fd3ab1a29ddf9484b23575845d542369bdfa37f84848460405161231593929190615b92565b60405180910390a25050506123ff565b600160009054906101000a900473ffffffffffffffffffffffffffffffffffffffff1673ffffffffffffffffffffffffffffffffffffffff166380e52e3f866040518263ffffffff1660e01b81526004016123809190614bd1565b600060405180830381600087803b15801561239a57600080fd5b505af11580156123ae573d6000803e3d6000fd5b505050503373ffffffffffffffffffffffffffffffffffffffff167f83d90dfabb9dd5929f37bedd596ec8b76fec40556dcf87a93c891c43ecbc35a26040516123f690615ef1565b60405180910390a25b5050505050565b61240e613f2e565b60056040518060a0016040528086600481111561242e5761242d6146ad565b5b81526020018581526020018481526020018381526020016000815250908060018154018082558091505060019003906000526020600020906005020160009091909190915060008201518160000160006101000a81548160ff0219169083600481111561249e5761249d6146ad565b5b021790555060208201518160010190816124b89190614fd7565b5060408201518160020190816124ce9190614fd7565b5060608201518160030190816124e49190614fd7565b506080820151816004015550507fb90b27d205996a6ce127fc2f1bfbad17d5d8270e9a27ebb35037f2d67853b6cf60016005805490506125249190615c4a565b858585856040516125399594939291906150a9565b60405180910390a150505050565b61254f613f2e565b612559600061415e565b565b600360009054906101000a900473ffffffffffffffffffffffffffffffffffffffff1681565b6006818154811061259157600080fd5b90600052602060002090600602016000915090508060000154908060010180546125ba90614e04565b80601f01602080910402602001604051908101604052809291908181526020018280546125e690614e04565b80156126335780601f1061260857610100808354040283529160200191612633565b820191906000526020600020905b81548152906001019060200180831161261657829003601f168201915b50505050509080600201805461264890614e04565b80601f016020809104026020016040519081016040528092919081815260200182805461267490614e04565b80156126c15780601f10612696576101008083540402835291602001916126c1565b820191906000526020600020905b8154815290600101906020018083116126a457829003601f168201915b5050505050908060030154908060040160009054906101000a900473ffffffffffffffffffffffffffffffffffffffff16908060040160149054906101000a900460ff16908060040160159054906101000a900460ff16908060050154905088565b60008060009054906101000a900473ffffffffffffffffffffffffffffffffffffffff16905090565b6000600260009054906101000a900473ffffffffffffffffffffffffffffffffffffffff1673ffffffffffffffffffffffffffffffffffffffff16630e104278336040518263ffffffff1660e01b81526004016127a99190614bd1565b602060405180830381865afa1580156127c6573d6000803e3d6000fd5b505050506040513d601f19601f820116820180604052508101906127ea9190615126565b905080421161282e576040517f08c379a0000000000000000000000000000000000000000000000000000000008152600401612825906151c5565b60405180910390fd5b6040518060400160405280601281526020017f4c6f63616c5265736f757263655461626c6500000000000000000000000000008152506040518060400160405280600481526020017f65646974000000000000000000000000000000000000000000000000000000008152506000805b600680549050811015612a0f573373ffffffffffffffffffffffffffffffffffffffff16600682815481106128d6576128d5614da6565b5b906000526020600020906006020160040160009054906101000a900473ffffffffffffffffffffffffffffffffffffffff1673ffffffffffffffffffffffffffffffffffffffff1614801561295a57506006818154811061293a57612939614da6565b5b906000526020600020906006020160040160159054906101000a900460ff165b156129fc5783805190602001206006828154811061297b5761297a614da6565b5b90600052602060002090600602016001016040516129999190615288565b60405180910390201480156129ed57508280519060200120600682815481106129c5576129c4614da6565b5b90600052602060002090600602016002016040516129e39190615288565b6040518091039020145b156129fb5760019150612a0f565b5b8080612a07906152ce565b91505061289e565b5080612a50576040517f08c379a0000000000000000000000000000000000000000000000000000000008152600401612a4790615388565b60405180910390fd5b60036004811115612a6457612a636146ad565b5b600160009054906101000a900473ffffffffffffffffffffffffffffffffffffffff1673ffffffffffffffffffffffffffffffffffffffff166344276733886040518263ffffffff1660e01b8152600401612abf9190614bd1565b602060405180830381865afa158015612adc573d6000803e3d6000fd5b505050506040513d601f19601f82011682018060405250810190612b0091906158cc565b6004811115612b1257612b116146ad565b5b141580612bde5750600480811115612b2d57612b2c6146ad565b5b600160009054906101000a900473ffffffffffffffffffffffffffffffffffffffff1673ffffffffffffffffffffffffffffffffffffffff166344276733886040518263ffffffff1660e01b8152600401612b889190614bd1565b602060405180830381865afa158015612ba5573d6000803e3d6000fd5b505050506040513d601f19601f82011682018060405250810190612bc991906158cc565b6004811115612bdb57612bda6146ad565b5b14155b80612d73575060036004811115612bf857612bf76146ad565b5b600160009054906101000a900473ffffffffffffffffffffffffffffffffffffffff1673ffffffffffffffffffffffffffffffffffffffff166344276733876040518263ffffffff1660e01b8152600401612c539190614bd1565b602060405180830381865afa158015612c70573d6000803e3d6000fd5b505050506040513d601f19601f82011682018060405250810190612c9491906158cc565b6004811115612ca657612ca56146ad565b5b141580612d725750600480811115612cc157612cc06146ad565b5b600160009054906101000a900473ffffffffffffffffffffffffffffffffffffffff1673ffffffffffffffffffffffffffffffffffffffff166344276733876040518263ffffffff1660e01b8152600401612d1c9190614bd1565b602060405180830381865afa158015612d39573d6000803e3d6000fd5b505050506040513d601f19601f82011682018060405250810190612d5d91906158cc565b6004811115612d6f57612d6e6146ad565b5b14155b5b15612e80576000806000600260009054906101000a900473ffffffffffffffffffffffffffffffffffffffff1673ffffffffffffffffffffffffffffffffffffffff1663c4df01ce336040518263ffffffff1660e01b8152600401612dd89190615e77565b6000604051808303816000875af1158015612df7573d6000803e3d6000fd5b505050506040513d6000823e3d601f19601f82011682018060405250810190612e209190615b23565b9250925092503373ffffffffffffffffffffffffffffffffffffffff167f3fc8de32d0ff2767d320c8c52fd3ab1a29ddf9484b23575845d542369bdfa37f848484604051612e7093929190615b92565b60405180910390a2505050612f5c565b600160009054906101000a900473ffffffffffffffffffffffffffffffffffffffff1673ffffffffffffffffffffffffffffffffffffffff16636fab480487876040518363ffffffff1660e01b8152600401612edd929190615f24565b600060405180830381600087803b158015612ef757600080fd5b505af1158015612f0b573d6000803e3d6000fd5b505050503373ffffffffffffffffffffffffffffffffffffffff167f83d90dfabb9dd5929f37bedd596ec8b76fec40556dcf87a93c891c43ecbc35a2604051612f5390615f99565b60405180910390a25b505050505050565b6000600260009054906101000a900473ffffffffffffffffffffffffffffffffffffffff1673ffffffffffffffffffffffffffffffffffffffff16630e104278336040518263ffffffff1660e01b8152600401612fc19190614bd1565b602060405180830381865afa158015612fde573d6000803e3d6000fd5b505050506040513d601f19601f820116820180604052508101906130029190615126565b9050804211613046576040517f08c379a000000000000000000000000000000000000000000000000000000000815260040161303d906151c5565b60405180910390fd5b6040518060400160405280601281526020017f4c6f63616c5265736f757263655461626c6500000000000000000000000000008152506040518060400160405280600681526020017f64656c65746500000000000000000000000000000000000000000000000000008152506000805b600680549050811015613227573373ffffffffffffffffffffffffffffffffffffffff16600682815481106130ee576130ed614da6565b5b906000526020600020906006020160040160009054906101000a900473ffffffffffffffffffffffffffffffffffffffff1673ffffffffffffffffffffffffffffffffffffffff1614801561317257506006818154811061315257613151614da6565b5b906000526020600020906006020160040160159054906101000a900460ff165b156132145783805190602001206006828154811061319357613192614da6565b5b90600052602060002090600602016001016040516131b19190615288565b604051809103902014801561320557508280519060200120600682815481106131dd576131dc614da6565b5b90600052602060002090600602016002016040516131fb9190615288565b6040518091039020145b156132135760019150613227565b5b808061321f906152ce565b9150506130b6565b5080613268576040517f08c379a000000000000000000000000000000000000000000000000000000000815260040161325f90615388565b60405180910390fd5b6003600481111561327c5761327b6146ad565b5b600160009054906101000a900473ffffffffffffffffffffffffffffffffffffffff1673ffffffffffffffffffffffffffffffffffffffff166344276733876040518263ffffffff1660e01b81526004016132d79190614bd1565b602060405180830381865afa1580156132f4573d6000803e3d6000fd5b505050506040513d601f19601f8201168201806040525081019061331891906158cc565b600481111561332a576133296146ad565b5b1415806133f65750600480811115613345576133446146ad565b5b600160009054906101000a900473ffffffffffffffffffffffffffffffffffffffff1673ffffffffffffffffffffffffffffffffffffffff166344276733876040518263ffffffff1660e01b81526004016133a09190614bd1565b602060405180830381865afa1580156133bd573d6000803e3d6000fd5b505050506040513d601f19601f820116820180604052508101906133e191906158cc565b60048111156133f3576133f26146ad565b5b14155b15613503576000806000600260009054906101000a900473ffffffffffffffffffffffffffffffffffffffff1673ffffffffffffffffffffffffffffffffffffffff1663c4df01ce336040518263ffffffff1660e01b815260040161345b9190615e77565b6000604051808303816000875af115801561347a573d6000803e3d6000fd5b505050506040513d6000823e3d601f19601f820116820180604052508101906134a39190615b23565b9250925092503373ffffffffffffffffffffffffffffffffffffffff167f3fc8de32d0ff2767d320c8c52fd3ab1a29ddf9484b23575845d542369bdfa37f8484846040516134f393929190615b92565b60405180910390a25050506135dd565b600160009054906101000a900473ffffffffffffffffffffffffffffffffffffffff1673ffffffffffffffffffffffffffffffffffffffff166380e52e3f866040518263ffffffff1660e01b815260040161355e9190614bd1565b600060405180830381600087803b15801561357857600080fd5b505af115801561358c573d6000803e3d6000fd5b505050503373ffffffffffffffffffffffffffffffffffffffff167f83d90dfabb9dd5929f37bedd596ec8b76fec40556dcf87a93c891c43ecbc35a26040516135d490615fcc565b60405180910390a25b5050505050565b60076020528160005260406000206020528060005260406000206000915091509054906101000a900460ff1681565b6000600260009054906101000a900473ffffffffffffffffffffffffffffffffffffffff1673ffffffffffffffffffffffffffffffffffffffff16630e104278336040518263ffffffff1660e01b81526004016136709190614bd1565b602060405180830381865afa15801561368d573d6000803e3d6000fd5b505050506040513d601f19601f820116820180604052508101906136b19190615126565b90508042116136f5576040517f08c379a00000000000000000000000000000000000000000000000000000000081526004016136ec906151c5565b60405180910390fd5b6040518060400160405280601381526020017f476c6f62616c5265736f757263655461626c65000000000000000000000000008152506040518060400160405280600481526020017f65646974000000000000000000000000000000000000000000000000000000008152506000805b6006805490508110156138d6573373ffffffffffffffffffffffffffffffffffffffff166006828154811061379d5761379c614da6565b5b906000526020600020906006020160040160009054906101000a900473ffffffffffffffffffffffffffffffffffffffff1673ffffffffffffffffffffffffffffffffffffffff1614801561382157506006818154811061380157613800614da6565b5b906000526020600020906006020160040160159054906101000a900460ff165b156138c35783805190602001206006828154811061384257613841614da6565b5b90600052602060002090600602016001016040516138609190615288565b60405180910390201480156138b4575082805190602001206006828154811061388c5761388b614da6565b5b90600052602060002090600602016002016040516138aa9190615288565b6040518091039020145b156138c257600191506138d6565b5b80806138ce906152ce565b915050613765565b5080613917576040517f08c379a000000000000000000000000000000000000000000000000000000000815260040161390e90615388565b60405180910390fd5b6002600481111561392b5761392a6146ad565b5b600160009054906101000a900473ffffffffffffffffffffffffffffffffffffffff1673ffffffffffffffffffffffffffffffffffffffff166344276733886040518263ffffffff1660e01b81526004016139869190614bd1565b602060405180830381865afa1580156139a3573d6000803e3d6000fd5b505050506040513d601f19601f820116820180604052508101906139c791906158cc565b60048111156139d9576139d86146ad565b5b141580613aa65750600260048111156139f5576139f46146ad565b5b600160009054906101000a900473ffffffffffffffffffffffffffffffffffffffff1673ffffffffffffffffffffffffffffffffffffffff166344276733876040518263ffffffff1660e01b8152600401613a509190614bd1565b602060405180830381865afa158015613a6d573d6000803e3d6000fd5b505050506040513d601f19601f82011682018060405250810190613a9191906158cc565b6004811115613aa357613aa26146ad565b5b14155b15613bb3576000806000600260009054906101000a900473ffffffffffffffffffffffffffffffffffffffff1673ffffffffffffffffffffffffffffffffffffffff1663c4df01ce336040518263ffffffff1660e01b8152600401613b0b9190615e77565b6000604051808303816000875af1158015613b2a573d6000803e3d6000fd5b505050506040513d6000823e3d601f19601f82011682018060405250810190613b539190615b23565b9250925092503373ffffffffffffffffffffffffffffffffffffffff167f3fc8de32d0ff2767d320c8c52fd3ab1a29ddf9484b23575845d542369bdfa37f848484604051613ba393929190615b92565b60405180910390a2505050613c8f565b600160009054906101000a900473ffffffffffffffffffffffffffffffffffffffff1673ffffffffffffffffffffffffffffffffffffffff16636fab480487876040518363ffffffff1660e01b8152600401613c10929190615f24565b600060405180830381600087803b158015613c2a57600080fd5b505af1158015613c3e573d6000803e3d6000fd5b505050503373ffffffffffffffffffffffffffffffffffffffff167f83d90dfabb9dd5929f37bedd596ec8b76fec40556dcf87a93c891c43ecbc35a2604051613c8690615fff565b60405180910390a25b505050505050565b60058181548110613ca757600080fd5b90600052602060002090600502016000915090508060000160009054906101000a900460ff1690806001018054613cdd90614e04565b80601f0160208091040260200160405190810160405280929190818152602001828054613d0990614e04565b8015613d565780601f10613d2b57610100808354040283529160200191613d56565b820191906000526020600020905b815481529060010190602001808311613d3957829003601f168201915b505050505090806002018054613d6b90614e04565b80601f0160208091040260200160405190810160405280929190818152602001828054613d9790614e04565b8015613de45780601f10613db957610100808354040283529160200191613de4565b820191906000526020600020905b815481529060010190602001808311613dc757829003601f168201915b505050505090806003018054613df990614e04565b80601f0160208091040260200160405190810160405280929190818152602001828054613e2590614e04565b8015613e725780601f10613e4757610100808354040283529160200191613e72565b820191906000526020600020905b815481529060010190602001808311613e5557829003601f168201915b5050505050908060040154905085565b600260009054906101000a900473ffffffffffffffffffffffffffffffffffffffff1681565b613eb0613f2e565b600073ffffffffffffffffffffffffffffffffffffffff168173ffffffffffffffffffffffffffffffffffffffff1603613f225760006040517f1e4fbdf7000000000000000000000000000000000000000000000000000000008152600401613f199190614bd1565b60405180910390fd5b613f2b8161415e565b50565b613f36614222565b73ffffffffffffffffffffffffffffffffffffffff16613f54612723565b73ffffffffffffffffffffffffffffffffffffffff1614613fb357613f77614222565b6040517f118cdaa7000000000000000000000000000000000000000000000000000000008152600401613faa9190614bd1565b60405180910390fd5b565b600080600090505b60058054905081101561415157826004811115613fdd57613fdc6146ad565b5b60058281548110613ff157613ff0614da6565b5b906000526020600020906005020160000160009054906101000a900460ff166004811115614022576140216146ad565b5b14801561406e575084805190602001206005828154811061404657614045614da6565b5b90600052602060002090600502016001016040516140649190615288565b6040518091039020145b80156140b9575083805190602001206005828154811061409157614090614da6565b5b90600052602060002090600502016002016040516140af9190615288565b6040518091039020145b1561413e576040518060400160405280600581526020017f616c6c6f77000000000000000000000000000000000000000000000000000000815250805190602001206005828154811061410f5761410e614da6565b5b906000526020600020906005020160030160405161412d9190615288565b604051809103902014915050614157565b8080614149906152ce565b915050613fbd565b50600090505b9392505050565b60008060009054906101000a900473ffffffffffffffffffffffffffffffffffffffff169050816000806101000a81548173ffffffffffffffffffffffffffffffffffffffff021916908373ffffffffffffffffffffffffffffffffffffffff1602179055508173ffffffffffffffffffffffffffffffffffffffff168173ffffffffffffffffffffffffffffffffffffffff167f8be0079c531659141344cd1fd0a4f28419497f9722a3daafe3b4186f6b6457e060405160405180910390a35050565b600033905090565b50805461423690614e04565b6000825580601f106142485750614267565b601f016020900490600052602060002090810190614266919061426a565b5b50565b5b8082111561428357600081600090555060010161426b565b5090565b600073ffffffffffffffffffffffffffffffffffffffff82169050919050565b6000819050919050565b60006142cc6142c76142c284614287565b6142a7565b614287565b9050919050565b60006142de826142b1565b9050919050565b60006142f0826142d3565b9050919050565b614300816142e5565b82525050565b600060208201905061431b60008301846142f7565b92915050565b6000604051905090565b600080fd5b600080fd5b6000819050919050565b61434881614335565b811461435357600080fd5b50565b6000813590506143658161433f565b92915050565b6005811061437857600080fd5b50565b60008135905061438a8161436b565b92915050565b600080fd5b600080fd5b6000601f19601f8301169050919050565b7f4e487b7100000000000000000000000000000000000000000000000000000000600052604160045260246000fd5b6143e38261439a565b810181811067ffffffffffffffff82111715614402576144016143ab565b5b80604052505050565b6000614415614321565b905061442182826143da565b919050565b600067ffffffffffffffff821115614441576144406143ab565b5b61444a8261439a565b9050602081019050919050565b82818337600083830152505050565b600061447961447484614426565b61440b565b90508281526020810184848401111561449557614494614395565b5b6144a0848285614457565b509392505050565b600082601f8301126144bd576144bc614390565b5b81356144cd848260208601614466565b91505092915050565b600080600080600060a086880312156144f2576144f161432b565b5b600061450088828901614356565b95505060206145118882890161437b565b945050604086013567ffffffffffffffff81111561453257614531614330565b5b61453e888289016144a8565b935050606086013567ffffffffffffffff81111561455f5761455e614330565b5b61456b888289016144a8565b925050608086013567ffffffffffffffff81111561458c5761458b614330565b5b614598888289016144a8565b9150509295509295909350565b6000602082840312156145bb576145ba61432b565b5b60006145c984828501614356565b91505092915050565b600081519050919050565b600082825260208201905092915050565b6000819050602082019050919050565b600061460982614287565b9050919050565b614619816145fe565b82525050565b600081519050919050565b600082825260208201905092915050565b60005b8381101561465957808201518184015260208101905061463e565b60008484015250505050565b60006146708261461f565b61467a818561462a565b935061468a81856020860161463b565b6146938161439a565b840191505092915050565b6146a781614335565b82525050565b7f4e487b7100000000000000000000000000000000000000000000000000000000600052602160045260246000fd5b600581106146ed576146ec6146ad565b5b50565b60008190506146fe826146dc565b919050565b600061470e826146f0565b9050919050565b61471e81614703565b82525050565b600060c08301600083015161473c6000860182614610565b50602083015184820360208601526147548282614665565b9150506040830151848203604086015261476e8282614665565b915050606083015184820360608601526147888282614665565b915050608083015161479d608086018261469e565b5060a08301516147b060a0860182614715565b508091505092915050565b60006147c78383614724565b905092915050565b6000602082019050919050565b60006147e7826145d2565b6147f181856145dd565b935083602082028501614803856145ee565b8060005b8581101561483f578484038952815161482085826147bb565b945061482b836147cf565b925060208a01995050600181019050614807565b50829750879550505050505092915050565b6000602082019050818103600083015261486b81846147dc565b905092915050565b60008115159050919050565b61488881614873565b811461489357600080fd5b50565b6000813590506148a58161487f565b92915050565b600080604083850312156148c2576148c161432b565b5b60006148d085828601614356565b92505060206148e185828601614896565b9150509250929050565b6148f481614335565b82525050565b600060208201905061490f60008301846148eb565b92915050565b6000806040838503121561492c5761492b61432b565b5b600083013567ffffffffffffffff81111561494a57614949614330565b5b614956858286016144a8565b925050602083013567ffffffffffffffff81111561497757614976614330565b5b614983858286016144a8565b9150509250929050565b614996816145fe565b81146149a157600080fd5b50565b6000813590506149b38161498d565b92915050565b6000602082840312156149cf576149ce61432b565b5b60006149dd848285016149a4565b91505092915050565b60008060008060808587031215614a00576149ff61432b565b5b6000614a0e8782880161437b565b945050602085013567ffffffffffffffff811115614a2f57614a2e614330565b5b614a3b878288016144a8565b935050604085013567ffffffffffffffff811115614a5c57614a5b614330565b5b614a68878288016144a8565b925050606085013567ffffffffffffffff811115614a8957614a88614330565b5b614a95878288016144a8565b91505092959194509250565b6000614aac826142d3565b9050919050565b614abc81614aa1565b82525050565b6000602082019050614ad76000830184614ab3565b92915050565b600082825260208201905092915050565b6000614af98261461f565b614b038185614add565b9350614b1381856020860161463b565b614b1c8161439a565b840191505092915050565b614b30816145fe565b82525050565b614b3f81614873565b82525050565b600061010082019050614b5b600083018b6148eb565b8181036020830152614b6d818a614aee565b90508181036040830152614b818189614aee565b9050614b9060608301886148eb565b614b9d6080830187614b27565b614baa60a0830186614b36565b614bb760c0830185614b36565b614bc460e08301846148eb565b9998505050505050505050565b6000602082019050614be66000830184614b27565b92915050565b60008060408385031215614c0357614c0261432b565b5b6000614c11858286016149a4565b9250506020614c22858286016149a4565b9150509250929050565b60008060408385031215614c4357614c4261432b565b5b6000614c5185828601614356565b9250506020614c62858286016149a4565b9150509250929050565b6000602082019050614c816000830184614b36565b92915050565b614c9081614703565b82525050565b600060a082019050614cab6000830188614c87565b8181036020830152614cbd8187614aee565b90508181036040830152614cd18186614aee565b90508181036060830152614ce58185614aee565b9050614cf460808301846148eb565b9695505050505050565b6000614d09826142d3565b9050919050565b614d1981614cfe565b82525050565b6000602082019050614d346000830184614d10565b92915050565b7f506f6c69637920646f6573206e6f742065786973740000000000000000000000600082015250565b6000614d70601583614add565b9150614d7b82614d3a565b602082019050919050565b60006020820190508181036000830152614d9f81614d63565b9050919050565b7f4e487b7100000000000000000000000000000000000000000000000000000000600052603260045260246000fd5b7f4e487b7100000000000000000000000000000000000000000000000000000000600052602260045260246000fd5b60006002820490506001821680614e1c57607f821691505b602082108103614e2f57614e2e614dd5565b5b50919050565b60008190508160005260206000209050919050565b60006020601f8301049050919050565b600082821b905092915050565b600060088302614e977fffffffffffffffffffffffffffffffffffffffffffffffffffffffffffffffff82614e5a565b614ea18683614e5a565b95508019841693508086168417925050509392505050565b6000614ed4614ecf614eca84614335565b6142a7565b614335565b9050919050565b6000819050919050565b614eee83614eb9565b614f02614efa82614edb565b848454614e67565b825550505050565b600090565b614f17614f0a565b614f22818484614ee5565b505050565b5b81811015614f4657614f3b600082614f0f565b600181019050614f28565b5050565b601f821115614f8b57614f5c81614e35565b614f6584614e4a565b81016020851015614f74578190505b614f88614f8085614e4a565b830182614f27565b50505b505050565b600082821c905092915050565b6000614fae60001984600802614f90565b1980831691505092915050565b6000614fc78383614f9d565b9150826002028217905092915050565b614fe08261461f565b67ffffffffffffffff811115614ff957614ff86143ab565b5b6150038254614e04565b61500e828285614f4a565b600060209050601f831160018114615041576000841561502f578287015190505b6150398582614fbb565b8655506150a1565b601f19841661504f86614e35565b60005b8281101561507757848901518255600182019150602085019450602081019050615052565b868310156150945784890151615090601f891682614f9d565b8355505b6001600288020188555050505b505050505050565b600060a0820190506150be60008301886148eb565b6150cb6020830187614c87565b81810360408301526150dd8186614aee565b905081810360608301526150f18185614aee565b905081810360808301526151058184614aee565b90509695505050505050565b6000815190506151208161433f565b92915050565b60006020828403121561513c5761513b61432b565b5b600061514a84828501615111565b91505092915050565b7f416363657373436f6e74726f6c436f6e74726163743a204d656d62657220697360008201527f20626c6f636b6564000000000000000000000000000000000000000000000000602082015250565b60006151af602883614add565b91506151ba82615153565b604082019050919050565b600060208201905081810360008301526151de816151a2565b9050919050565b600081905092915050565b60008190508160005260206000209050919050565b6000815461521281614e04565b61521c81866151e5565b94506001821660008114615237576001811461524c5761527f565b60ff198316865281151582028601935061527f565b615255856151f0565b60005b8381101561527757815481890152600182019150602081019050615258565b838801955050505b50505092915050565b60006152948284615205565b915081905092915050565b7f4e487b7100000000000000000000000000000000000000000000000000000000600052601160045260246000fd5b60006152d982614335565b91507fffffffffffffffffffffffffffffffffffffffffffffffffffffffffffffffff820361530b5761530a61529f565b5b600182019050919050565b7f4e6f7420617574686f72697a656420746f20616363657373207468697320726560008201527f736f757263650000000000000000000000000000000000000000000000000000602082015250565b6000615372602683614add565b915061537d82615316565b604082019050919050565b600060208201905081810360008301526153a181615365565b9050919050565b600080fd5b600080fd5b6000815190506153c18161498d565b92915050565b60006153da6153d584614426565b61440b565b9050828152602081018484840111156153f6576153f5614395565b5b61540184828561463b565b509392505050565b600082601f83011261541e5761541d614390565b5b815161542e8482602086016153c7565b91505092915050565b6000815190506154468161436b565b92915050565b600060c08284031215615462576154616153a8565b5b61546c60c061440b565b9050600061547c848285016153b2565b600083015250602082015167ffffffffffffffff8111156154a05761549f6153ad565b5b6154ac84828501615409565b602083015250604082015167ffffffffffffffff8111156154d0576154cf6153ad565b5b6154dc84828501615409565b604083015250606082015167ffffffffffffffff811115615500576154ff6153ad565b5b61550c84828501615409565b606083015250608061552084828501615111565b60808301525060a061553484828501615437565b60a08301525092915050565b6000602082840312156155565761555561432b565b5b600082015167ffffffffffffffff81111561557457615573614330565b5b6155808482850161544c565b91505092915050565b7f4c6f63616c5265736f757263655461626c650000000000000000000000000000600082015250565b60006155bf601283614add565b91506155ca82615589565b602082019050919050565b7f5669657700000000000000000000000000000000000000000000000000000000600082015250565b600061560b600483614add565b9150615616826155d5565b602082019050919050565b6000604082019050818103600083015261563a816155b2565b9050818103602083015261564d816155fe565b9050919050565b6000602082019050818103600083015261566e8184614aee565b905092915050565b600067ffffffffffffffff821115615691576156906143ab565b5b602082029050602081019050919050565b600080fd5b60006156ba6156b584615676565b61440b565b905080838252602082019050602084028301858111156156dd576156dc6156a2565b5b835b8181101561572457805167ffffffffffffffff81111561570257615701614390565b5b80860161570f898261544c565b855260208501945050506020810190506156df565b5050509392505050565b600082601f83011261574357615742614390565b5b81516157538482602086016156a7565b91505092915050565b6000602082840312156157725761577161432b565b5b600082015167ffffffffffffffff8111156157905761578f614330565b5b61579c8482850161572e565b91505092915050565b60006040820190506157ba6000830185614b27565b6157c76020830184614c87565b9392505050565b7f496e76616c696420726571756573742049440000000000000000000000000000600082015250565b6000615804601283614add565b915061580f826157ce565b602082019050919050565b60006020820190508181036000830152615833816157f7565b9050919050565b7f5072696d6172792067726f757020686561642063616e6e6f7420617070726f7660008201527f65207468656972206f776e207265717565737400000000000000000000000000602082015250565b6000615896603383614add565b91506158a18261583a565b604082019050919050565b600060208201905081810360008301526158c581615889565b9050919050565b6000602082840312156158e2576158e161432b565b5b60006158f084828501615437565b91505092915050565b60006020828403121561590f5761590e61432b565b5b600061591d848285016153b2565b91505092915050565b7f5072696d61727920686561642068616e646c696e67207468652072657175657360008201527f74206d75737420626520746865207265717565737465722773207072696d617260208201527f7920686561640000000000000000000000000000000000000000000000000000604082015250565b60006159a8604683614add565b91506159b382615926565b606082019050919050565b600060208201905081810360008301526159d78161599b565b9050919050565b7f4163636573732052657175657374000000000000000000000000000000000000600082015250565b6000615a14600e83614add565b9150615a1f826159de565b602082019050919050565b7f48616e646c650000000000000000000000000000000000000000000000000000600082015250565b6000615a60600683614add565b9150615a6b82615a2a565b602082019050919050565b60006040820190508181036000830152615a8f81615a07565b90508181036020830152615aa281615a53565b9050919050565b7f54616d706572696e672077697468206461746100000000000000000000000000600082015250565b6000615adf601383614add565b9150615aea82615aa9565b602082019050919050565b6000604082019050615b0a6000830184614b27565b8181036020830152615b1b81615ad2565b905092915050565b600080600060608486031215615b3c57615b3b61432b565b5b6000615b4a86828701615111565b935050602084015167ffffffffffffffff811115615b6b57615b6a614330565b5b615b7786828701615409565b9250506040615b8886828701615111565b9150509250925092565b6000606082019050615ba760008301866148eb565b8181036020830152615bb98185614aee565b9050615bc860408301846148eb565b949350505050565b7f556e617574686f72697a65642061636365737320617474656d70740000000000600082015250565b6000615c06601b83614add565b9150615c1182615bd0565b602082019050919050565b6000604082019050615c316000830184614b27565b8181036020830152615c4281615bf9565b905092915050565b6000615c5582614335565b9150615c6083614335565b9250828203905081811115615c7857615c7761529f565b5b92915050565b6000615c8982614335565b9150615c9483614335565b9250828202615ca281614335565b91508282048414831517615cb957615cb861529f565b5b5092915050565b7f4e487b7100000000000000000000000000000000000000000000000000000000600052601260045260246000fd5b6000615cfa82614335565b9150615d0583614335565b925082615d1557615d14615cc0565b5b828204905092915050565b60008060408385031215615d3757615d3661432b565b5b6000615d4585828601615111565b925050602083015167ffffffffffffffff811115615d6657615d65614330565b5b615d7285828601615409565b9150509250929050565b6000604082019050615d9160008301856148eb565b8181036020830152615da38184614aee565b90509392505050565b7f476c6f62616c5265736f757263655461626c6500000000000000000000000000600082015250565b6000615de2601383614add565b9150615ded82615dac565b602082019050919050565b60006040820190508181036000830152615e1181615dd5565b90508181036020830152615e24816155fe565b9050919050565b7f50726976696c65676520657363616c6174696f6e000000000000000000000000600082015250565b6000615e61601483614add565b9150615e6c82615e2b565b602082019050919050565b6000604082019050615e8c6000830184614b27565b8181036020830152615e9d81615e54565b905092915050565b7f44656c6574650000000000000000000000000000000000000000000000000000600082015250565b6000615edb600683614add565b9150615ee682615ea5565b602082019050919050565b60006040820190508181036000830152615f0a81615dd5565b90508181036020830152615f1d81615ece565b9050919050565b6000604082019050615f396000830185614b27565b615f466020830184614b27565b9392505050565b7f4564697400000000000000000000000000000000000000000000000000000000600082015250565b6000615f83600483614add565b9150615f8e82615f4d565b602082019050919050565b60006040820190508181036000830152615fb2816155b2565b90508181036020830152615fc581615f76565b9050919050565b60006040820190508181036000830152615fe5816155b2565b90508181036020830152615ff881615ece565b9050919050565b6000604082019050818103600083015261601881615dd5565b9050818103602083015261602b81615f76565b905091905056fea26469706673582212203391025a083df2658061c4a03a0abc2e77d769ef7ede9b93dd1e475709b4bfcf64736f6c63430008150033",
  "linkReferences": {},
  "deployedLinkReferences": {}
}