{
  "_format": "hh-sol-artifact-1",
  "contractName": "RoleBasedAccessControl",
  "sourceName": "contracts/RoleBasedAccessControl.sol",
  "abi": [
    {
      "inputs": [
        {
          "internalType": "address",
          "name": "_roleTokenContract",
          "type": "address"
        },
        {
          "internalType": "address",
          "name": "_admin",
          "type": "address"
        }
      ],
      "stateMutability": "nonpayable",
      "type": "constructor"
    },
    {
      "inputs": [],
      "name": "admin",
      "outputs": [
        {
          "internalType": "address",
          "name": "",
          "type": "address"
        }
      ],
      "stateMutability": "view",
      "type": "function"
    },
    {
      "inputs": [
        {
          "internalType": "address",
          "name": "account1",
          "type": "address"
        },
        {
          "internalType": "address",
          "name": "account2",
          "type": "address"
        }
      ],
      "name": "areSameOrGlobalMembers",
      "outputs": [
        {
          "internalType": "bool",
          "name": "",
          "type": "bool"
        }
      ],
      "stateMutability": "view",
      "type": "function"
    },
    {
      "inputs": [
        {
          "internalType": "address",
          "name": "_memberAddress",
          "type": "address"
        },
        {
          "internalType": "string",
          "name": "_name",
          "type": "string"
        },
        {
          "internalType": "string",
          "name": "_memberType",
          "type": "string"
        }
      ],
      "name": "assignRole",
      "outputs": [],
      "stateMutability": "nonpayable",
      "type": "function"
    },
    {
      "inputs": [],
      "name": "getGlobalResourceTable",
      "outputs": [
        {
          "components": [
            {
              "internalType": "address",
              "name": "memberAddress",
              "type": "address"
            },
            {
              "internalType": "string",
              "name": "name",
              "type": "string"
            },
            {
              "internalType": "string",
              "name": "memberType",
              "type": "string"
            },
            {
              "internalType": "string",
              "name": "status",
              "type": "string"
            },
            {
              "internalType": "uint256",
              "name": "lastStatusUpdate",
              "type": "uint256"
            },
            {
              "internalType": "enum RoleToken.Role",
              "name": "role",
              "type": "uint8"
            }
          ],
          "internalType": "struct RoleToken.Member[]",
          "name": "",
          "type": "tuple[]"
        }
      ],
      "stateMutability": "view",
      "type": "function"
    },
    {
      "inputs": [
        {
          "internalType": "string",
          "name": "memberType",
          "type": "string"
        }
      ],
      "name": "getLocalResourceTable",
      "outputs": [
        {
          "components": [
            {
              "internalType": "address",
              "name": "memberAddress",
              "type": "address"
            },
            {
              "internalType": "string",
              "name": "name",
              "type": "string"
            },
            {
              "internalType": "string",
              "name": "memberType",
              "type": "string"
            },
            {
              "internalType": "string",
              "name": "status",
              "type": "string"
            },
            {
              "internalType": "uint256",
              "name": "lastStatusUpdate",
              "type": "uint256"
            },
            {
              "internalType": "enum RoleToken.Role",
              "name": "role",
              "type": "uint8"
            }
          ],
          "internalType": "struct RoleToken.Member[]",
          "name": "",
          "type": "tuple[]"
        }
      ],
      "stateMutability": "view",
      "type": "function"
    },
    {
      "inputs": [
        {
          "internalType": "address",
          "name": "account",
          "type": "address"
        }
      ],
      "name": "getMember",
      "outputs": [
        {
          "components": [
            {
              "internalType": "address",
              "name": "memberAddress",
              "type": "address"
            },
            {
              "internalType": "string",
              "name": "name",
              "type": "string"
            },
            {
              "internalType": "string",
              "name": "memberType",
              "type": "string"
            },
            {
              "internalType": "string",
              "name": "status",
              "type": "string"
            },
            {
              "internalType": "uint256",
              "name": "lastStatusUpdate",
              "type": "uint256"
            },
            {
              "internalType": "enum RoleToken.Role",
              "name": "role",
              "type": "uint8"
            }
          ],
          "internalType": "struct RoleToken.Member",
          "name": "",
          "type": "tuple"
        }
      ],
      "stateMutability": "view",
      "type": "function"
    },
    {
      "inputs": [
        {
          "internalType": "address",
          "name": "regularMember",
          "type": "address"
        }
      ],
      "name": "getPrimaryHeadAddress",
      "outputs": [
        {
          "internalType": "address",
          "name": "",
          "type": "address"
        }
      ],
      "stateMutability": "view",
      "type": "function"
    },
    {
      "inputs": [
        {
          "internalType": "address",
          "name": "account",
          "type": "address"
        }
      ],
      "name": "getRole",
      "outputs": [
        {
          "internalType": "enum RoleToken.Role",
          "name": "",
          "type": "uint8"
        }
      ],
      "stateMutability": "view",
      "type": "function"
    },
    {
      "inputs": [
        {
          "internalType": "address",
          "name": "_memberAddress",
          "type": "address"
        },
        {
          "internalType": "uint256",
          "name": "_amount",
          "type": "uint256"
        }
      ],
      "name": "penalizeMember",
      "outputs": [],
      "stateMutability": "nonpayable",
      "type": "function"
    },
    {
      "inputs": [],
      "name": "printBalances",
      "outputs": [
        {
          "internalType": "address",
          "name": "",
          "type": "address"
        },
        {
          "internalType": "uint256",
          "name": "",
          "type": "uint256"
        }
      ],
      "stateMutability": "view",
      "type": "function"
    },
    {
      "inputs": [
        {
          "internalType": "address",
          "name": "account",
          "type": "address"
        },
        {
          "internalType": "enum RoleToken.Role",
          "name": "role",
          "type": "uint8"
        }
      ],
      "name": "requireRole",
      "outputs": [],
      "stateMutability": "view",
      "type": "function"
    },
    {
      "inputs": [
        {
          "internalType": "address",
          "name": "account",
          "type": "address"
        }
      ],
      "name": "revokeRole",
      "outputs": [],
      "stateMutability": "nonpayable",
      "type": "function"
    },
    {
      "inputs": [
        {
          "internalType": "address",
          "name": "_memberAddress",
          "type": "address"
        },
        {
          "internalType": "uint256",
          "name": "_amount",
          "type": "uint256"
        }
      ],
      "name": "rewardMember",
      "outputs": [],
      "stateMutability": "nonpayable",
      "type": "function"
    },
    {
      "inputs": [],
      "name": "roleTokenContract",
      "outputs": [
        {
          "internalType": "contract RoleToken",
          "name": "",
          "type": "address"
        }
      ],
      "stateMutability": "view",
      "type": "function"
    },
    {
      "inputs": [
        {
          "internalType": "address",
          "name": "_address1",
          "type": "address"
        },
        {
          "internalType": "address",
          "name": "_address2",
          "type": "address"
        }
      ],
      "name": "swapRole",
      "outputs": [],
      "stateMutability": "nonpayable",
      "type": "function"
    },
    {
      "inputs": [
        {
          "internalType": "address",
          "name": "_memberAddress",
          "type": "address"
        },
        {
          "internalType": "string",
          "name": "_newStatus",
          "type": "string"
        }
      ],
      "name": "updateMemberStatus",
      "outputs": [],
      "stateMutability": "nonpayable",
      "type": "function"
    }
  ],
  "bytecode": "0x60806040523480156200001157600080fd5b50604051620030753803806200307583398181016040528101906200003791906200012a565b816000806101000a81548173ffffffffffffffffffffffffffffffffffffffff021916908373ffffffffffffffffffffffffffffffffffffffff16021790555080600160006101000a81548173ffffffffffffffffffffffffffffffffffffffff021916908373ffffffffffffffffffffffffffffffffffffffff160217905550505062000171565b600080fd5b600073ffffffffffffffffffffffffffffffffffffffff82169050919050565b6000620000f282620000c5565b9050919050565b6200010481620000e5565b81146200011057600080fd5b50565b6000815190506200012481620000f9565b92915050565b60008060408385031215620001445762000143620000c0565b5b6000620001548582860162000113565b9250506020620001678582860162000113565b9150509250929050565b612ef480620001816000396000f3fe608060405234801561001057600080fd5b50600436106101005760003560e01c8063746d961e1161009757806380e52e3f1161006657806380e52e3f146102ac578063d3a2ab10146102c8578063deb2bbef146102e4578063f851a4401461031457610100565b8063746d961e146102245780637575bb42146102405780637a0c26471461025e5780637e7a06e61461027c57610100565b80633b5e80b2116100d35780633b5e80b2146101a057806344276733146101bc5780636925da90146101ec5780636fab48041461020857610100565b806311192999146101055780631816faff146101355780631bc15d53146101545780632ada259614610170575b600080fd5b61011f600480360381019061011a9190612085565b610332565b60405161012c9190612377565b60405180910390f35b61013d6104da565b60405161014b9291906123b7565b60405180910390f35b61016e6004803603810190610169919061240c565b610580565b005b61018a60048036038101906101859190612468565b610769565b604051610197919061252c565b60405180910390f35b6101ba60048036038101906101b5919061257a565b610917565b005b6101d660048036038101906101d19190612468565b610b00565b6040516101e391906125c9565b60405180910390f35b61020660048036038101906102019190612609565b610ca2565b005b610222600480360381019061021d9190612649565b610da5565b005b61023e6004803603810190610239919061257a565b610ffe565b005b6102486111e7565b6040516102559190612377565b60405180910390f35b61026661144a565b60405161027391906126e8565b60405180910390f35b61029660048036038101906102919190612468565b61146e565b6040516102a39190612703565b60405180910390f35b6102c660048036038101906102c19190612468565b611610565b005b6102e260048036038101906102dd919061271e565b611866565b005b6102fe60048036038101906102f99190612649565b611a52565b60405161030b91906127c4565b60405180910390f35b61031c611ea7565b6040516103299190612703565b60405180910390f35b606060006004811115610348576103476121d3565b5b60008054906101000a900473ffffffffffffffffffffffffffffffffffffffff1673ffffffffffffffffffffffffffffffffffffffff166344276733336040518263ffffffff1660e01b81526004016103a19190612703565b602060405180830381865afa1580156103be573d6000803e3d6000fd5b505050506040513d601f19601f820116820180604052508101906103e291906127f4565b60048111156103f4576103f36121d3565b5b03610434576040517f08c379a000000000000000000000000000000000000000000000000000000000815260040161042b9061287e565b60405180910390fd5b60008054906101000a900473ffffffffffffffffffffffffffffffffffffffff1673ffffffffffffffffffffffffffffffffffffffff166311192999836040518263ffffffff1660e01b815260040161048d91906128d7565b600060405180830381865afa1580156104aa573d6000803e3d6000fd5b505050506040513d6000823e3d601f19601f820116820180604052508101906104d39190612b77565b9050919050565b6000803360008054906101000a900473ffffffffffffffffffffffffffffffffffffffff1673ffffffffffffffffffffffffffffffffffffffff166370a08231336040518263ffffffff1660e01b81526004016105379190612703565b602060405180830381865afa158015610554573d6000803e3d6000fd5b505050506040513d601f19601f820116820180604052508101906105789190612bc0565b915091509091565b600160009054906101000a900473ffffffffffffffffffffffffffffffffffffffff1673ffffffffffffffffffffffffffffffffffffffff163373ffffffffffffffffffffffffffffffffffffffff1614806106995750600160048111156105eb576105ea6121d3565b5b60008054906101000a900473ffffffffffffffffffffffffffffffffffffffff1673ffffffffffffffffffffffffffffffffffffffff166344276733336040518263ffffffff1660e01b81526004016106449190612703565b602060405180830381865afa158015610661573d6000803e3d6000fd5b505050506040513d601f19601f8201168201806040525081019061068591906127f4565b6004811115610697576106966121d3565b5b145b6106d8576040517f08c379a00000000000000000000000000000000000000000000000000000000081526004016106cf90612c39565b60405180910390fd5b60008054906101000a900473ffffffffffffffffffffffffffffffffffffffff1673ffffffffffffffffffffffffffffffffffffffff16631bc15d5383836040518363ffffffff1660e01b8152600401610733929190612c59565b600060405180830381600087803b15801561074d57600080fd5b505af1158015610761573d6000803e3d6000fd5b505050505050565b610771611ecd565b60006004811115610785576107846121d3565b5b60008054906101000a900473ffffffffffffffffffffffffffffffffffffffff1673ffffffffffffffffffffffffffffffffffffffff166344276733336040518263ffffffff1660e01b81526004016107de9190612703565b602060405180830381865afa1580156107fb573d6000803e3d6000fd5b505050506040513d601f19601f8201168201806040525081019061081f91906127f4565b6004811115610831576108306121d3565b5b03610871576040517f08c379a00000000000000000000000000000000000000000000000000000000081526004016108689061287e565b60405180910390fd5b60008054906101000a900473ffffffffffffffffffffffffffffffffffffffff1673ffffffffffffffffffffffffffffffffffffffff16632ada2596836040518263ffffffff1660e01b81526004016108ca9190612703565b600060405180830381865afa1580156108e7573d6000803e3d6000fd5b505050506040513d6000823e3d601f19601f820116820180604052508101906109109190612c89565b9050919050565b600160009054906101000a900473ffffffffffffffffffffffffffffffffffffffff1673ffffffffffffffffffffffffffffffffffffffff163373ffffffffffffffffffffffffffffffffffffffff161480610a30575060016004811115610982576109816121d3565b5b60008054906101000a900473ffffffffffffffffffffffffffffffffffffffff1673ffffffffffffffffffffffffffffffffffffffff166344276733336040518263ffffffff1660e01b81526004016109db9190612703565b602060405180830381865afa1580156109f8573d6000803e3d6000fd5b505050506040513d601f19601f82011682018060405250810190610a1c91906127f4565b6004811115610a2e57610a2d6121d3565b5b145b610a6f576040517f08c379a0000000000000000000000000000000000000000000000000000000008152600401610a6690612c39565b60405180910390fd5b60008054906101000a900473ffffffffffffffffffffffffffffffffffffffff1673ffffffffffffffffffffffffffffffffffffffff16633b5e80b283836040518363ffffffff1660e01b8152600401610aca9291906123b7565b600060405180830381600087803b158015610ae457600080fd5b505af1158015610af8573d6000803e3d6000fd5b505050505050565b6000806004811115610b1557610b146121d3565b5b60008054906101000a900473ffffffffffffffffffffffffffffffffffffffff1673ffffffffffffffffffffffffffffffffffffffff166344276733336040518263ffffffff1660e01b8152600401610b6e9190612703565b602060405180830381865afa158015610b8b573d6000803e3d6000fd5b505050506040513d601f19601f82011682018060405250810190610baf91906127f4565b6004811115610bc157610bc06121d3565b5b03610c01576040517f08c379a0000000000000000000000000000000000000000000000000000000008152600401610bf89061287e565b60405180910390fd5b60008054906101000a900473ffffffffffffffffffffffffffffffffffffffff1673ffffffffffffffffffffffffffffffffffffffff166344276733836040518263ffffffff1660e01b8152600401610c5a9190612703565b602060405180830381865afa158015610c77573d6000803e3d6000fd5b505050506040513d601f19601f82011682018060405250810190610c9b91906127f4565b9050919050565b806004811115610cb557610cb46121d3565b5b60008054906101000a900473ffffffffffffffffffffffffffffffffffffffff1673ffffffffffffffffffffffffffffffffffffffff166344276733846040518263ffffffff1660e01b8152600401610d0e9190612703565b602060405180830381865afa158015610d2b573d6000803e3d6000fd5b505050506040513d601f19601f82011682018060405250810190610d4f91906127f4565b6004811115610d6157610d606121d3565b5b14610da1576040517f08c379a0000000000000000000000000000000000000000000000000000000008152600401610d9890612d1e565b60405180910390fd5b5050565b60016004811115610db957610db86121d3565b5b60008054906101000a900473ffffffffffffffffffffffffffffffffffffffff1673ffffffffffffffffffffffffffffffffffffffff166344276733336040518263ffffffff1660e01b8152600401610e129190612703565b602060405180830381865afa158015610e2f573d6000803e3d6000fd5b505050506040513d601f19601f82011682018060405250810190610e5391906127f4565b6004811115610e6557610e646121d3565b5b1480610f2e575060026004811115610e8057610e7f6121d3565b5b60008054906101000a900473ffffffffffffffffffffffffffffffffffffffff1673ffffffffffffffffffffffffffffffffffffffff166344276733336040518263ffffffff1660e01b8152600401610ed99190612703565b602060405180830381865afa158015610ef6573d6000803e3d6000fd5b505050506040513d601f19601f82011682018060405250810190610f1a91906127f4565b6004811115610f2c57610f2b6121d3565b5b145b610f6d576040517f08c379a0000000000000000000000000000000000000000000000000000000008152600401610f6490612db0565b60405180910390fd5b60008054906101000a900473ffffffffffffffffffffffffffffffffffffffff1673ffffffffffffffffffffffffffffffffffffffff16636fab480483836040518363ffffffff1660e01b8152600401610fc8929190612dd0565b600060405180830381600087803b158015610fe257600080fd5b505af1158015610ff6573d6000803e3d6000fd5b505050505050565b600160009054906101000a900473ffffffffffffffffffffffffffffffffffffffff1673ffffffffffffffffffffffffffffffffffffffff163373ffffffffffffffffffffffffffffffffffffffff161480611117575060016004811115611069576110686121d3565b5b60008054906101000a900473ffffffffffffffffffffffffffffffffffffffff1673ffffffffffffffffffffffffffffffffffffffff166344276733336040518263ffffffff1660e01b81526004016110c29190612703565b602060405180830381865afa1580156110df573d6000803e3d6000fd5b505050506040513d601f19601f8201168201806040525081019061110391906127f4565b6004811115611115576111146121d3565b5b145b611156576040517f08c379a000000000000000000000000000000000000000000000000000000000815260040161114d90612c39565b60405180910390fd5b60008054906101000a900473ffffffffffffffffffffffffffffffffffffffff1673ffffffffffffffffffffffffffffffffffffffff1663746d961e83836040518363ffffffff1660e01b81526004016111b19291906123b7565b600060405180830381600087803b1580156111cb57600080fd5b505af11580156111df573d6000803e3d6000fd5b505050505050565b6060600160048111156111fd576111fc6121d3565b5b60008054906101000a900473ffffffffffffffffffffffffffffffffffffffff1673ffffffffffffffffffffffffffffffffffffffff166344276733336040518263ffffffff1660e01b81526004016112569190612703565b602060405180830381865afa158015611273573d6000803e3d6000fd5b505050506040513d601f19601f8201168201806040525081019061129791906127f4565b60048111156112a9576112a86121d3565b5b14806113725750600260048111156112c4576112c36121d3565b5b60008054906101000a900473ffffffffffffffffffffffffffffffffffffffff1673ffffffffffffffffffffffffffffffffffffffff166344276733336040518263ffffffff1660e01b815260040161131d9190612703565b602060405180830381865afa15801561133a573d6000803e3d6000fd5b505050506040513d601f19601f8201168201806040525081019061135e91906127f4565b60048111156113705761136f6121d3565b5b145b6113b1576040517f08c379a00000000000000000000000000000000000000000000000000000000081526004016113a890612db0565b60405180910390fd5b60008054906101000a900473ffffffffffffffffffffffffffffffffffffffff1673ffffffffffffffffffffffffffffffffffffffff16637575bb426040518163ffffffff1660e01b8152600401600060405180830381865afa15801561141c573d6000803e3d6000fd5b505050506040513d6000823e3d601f19601f820116820180604052508101906114459190612b77565b905090565b60008054906101000a900473ffffffffffffffffffffffffffffffffffffffff1681565b6000806004811115611483576114826121d3565b5b60008054906101000a900473ffffffffffffffffffffffffffffffffffffffff1673ffffffffffffffffffffffffffffffffffffffff166344276733336040518263ffffffff1660e01b81526004016114dc9190612703565b602060405180830381865afa1580156114f9573d6000803e3d6000fd5b505050506040513d601f19601f8201168201806040525081019061151d91906127f4565b600481111561152f5761152e6121d3565b5b0361156f576040517f08c379a00000000000000000000000000000000000000000000000000000000081526004016115669061287e565b60405180910390fd5b60008054906101000a900473ffffffffffffffffffffffffffffffffffffffff1673ffffffffffffffffffffffffffffffffffffffff16637e7a06e6836040518263ffffffff1660e01b81526004016115c89190612703565b602060405180830381865afa1580156115e5573d6000803e3d6000fd5b505050506040513d601f19601f820116820180604052508101906116099190612df9565b9050919050565b60016004811115611624576116236121d3565b5b60008054906101000a900473ffffffffffffffffffffffffffffffffffffffff1673ffffffffffffffffffffffffffffffffffffffff166344276733336040518263ffffffff1660e01b815260040161167d9190612703565b602060405180830381865afa15801561169a573d6000803e3d6000fd5b505050506040513d601f19601f820116820180604052508101906116be91906127f4565b60048111156116d0576116cf6121d3565b5b14806117995750600260048111156116eb576116ea6121d3565b5b60008054906101000a900473ffffffffffffffffffffffffffffffffffffffff1673ffffffffffffffffffffffffffffffffffffffff166344276733336040518263ffffffff1660e01b81526004016117449190612703565b602060405180830381865afa158015611761573d6000803e3d6000fd5b505050506040513d601f19601f8201168201806040525081019061178591906127f4565b6004811115611797576117966121d3565b5b145b6117d8576040517f08c379a00000000000000000000000000000000000000000000000000000000081526004016117cf90612db0565b60405180910390fd5b60008054906101000a900473ffffffffffffffffffffffffffffffffffffffff1673ffffffffffffffffffffffffffffffffffffffff166380e52e3f826040518263ffffffff1660e01b81526004016118319190612703565b600060405180830381600087803b15801561184b57600080fd5b505af115801561185f573d6000803e3d6000fd5b5050505050565b600160009054906101000a900473ffffffffffffffffffffffffffffffffffffffff1673ffffffffffffffffffffffffffffffffffffffff163373ffffffffffffffffffffffffffffffffffffffff16148061197f5750600160048111156118d1576118d06121d3565b5b60008054906101000a900473ffffffffffffffffffffffffffffffffffffffff1673ffffffffffffffffffffffffffffffffffffffff166344276733336040518263ffffffff1660e01b815260040161192a9190612703565b602060405180830381865afa158015611947573d6000803e3d6000fd5b505050506040513d601f19601f8201168201806040525081019061196b91906127f4565b600481111561197d5761197c6121d3565b5b145b6119be576040517f08c379a00000000000000000000000000000000000000000000000000000000081526004016119b590612c39565b60405180910390fd5b60008054906101000a900473ffffffffffffffffffffffffffffffffffffffff1673ffffffffffffffffffffffffffffffffffffffff1663d3a2ab108484846040518463ffffffff1660e01b8152600401611a1b93929190612e26565b600060405180830381600087803b158015611a3557600080fd5b505af1158015611a49573d6000803e3d6000fd5b50505050505050565b6000806004811115611a6757611a666121d3565b5b60008054906101000a900473ffffffffffffffffffffffffffffffffffffffff1673ffffffffffffffffffffffffffffffffffffffff166344276733336040518263ffffffff1660e01b8152600401611ac09190612703565b602060405180830381865afa158015611add573d6000803e3d6000fd5b505050506040513d601f19601f82011682018060405250810190611b0191906127f4565b6004811115611b1357611b126121d3565b5b03611b53576040517f08c379a0000000000000000000000000000000000000000000000000000000008152600401611b4a9061287e565b60405180910390fd5b60008060009054906101000a900473ffffffffffffffffffffffffffffffffffffffff1673ffffffffffffffffffffffffffffffffffffffff166344276733856040518263ffffffff1660e01b8152600401611baf9190612703565b602060405180830381865afa158015611bcc573d6000803e3d6000fd5b505050506040513d601f19601f82011682018060405250810190611bf091906127f4565b905060008060009054906101000a900473ffffffffffffffffffffffffffffffffffffffff1673ffffffffffffffffffffffffffffffffffffffff166344276733856040518263ffffffff1660e01b8152600401611c4e9190612703565b602060405180830381865afa158015611c6b573d6000803e3d6000fd5b505050506040513d601f19601f82011682018060405250810190611c8f91906127f4565b9050600060026004811115611ca757611ca66121d3565b5b836004811115611cba57611cb96121d3565b5b148015611ceb575060026004811115611cd657611cd56121d3565b5b826004811115611ce957611ce86121d3565b5b145b905060008060009054906101000a900473ffffffffffffffffffffffffffffffffffffffff1673ffffffffffffffffffffffffffffffffffffffff16632ada2596886040518263ffffffff1660e01b8152600401611d499190612703565b600060405180830381865afa158015611d66573d6000803e3d6000fd5b505050506040513d6000823e3d601f19601f82011682018060405250810190611d8f9190612c89565b60400151905060008060009054906101000a900473ffffffffffffffffffffffffffffffffffffffff1673ffffffffffffffffffffffffffffffffffffffff16632ada2596886040518263ffffffff1660e01b8152600401611df19190612703565b600060405180830381865afa158015611e0e573d6000803e3d6000fd5b505050506040513d6000823e3d601f19601f82011682018060405250810190611e379190612c89565b604001519050600081604051602001611e509190612ea7565b6040516020818303038152906040528051906020012083604051602001611e779190612ea7565b604051602081830303815290604052805190602001201490508380611e995750805b965050505050505092915050565b600160009054906101000a900473ffffffffffffffffffffffffffffffffffffffff1681565b6040518060c00160405280600073ffffffffffffffffffffffffffffffffffffffff1681526020016060815260200160608152602001606081526020016000815260200160006004811115611f2557611f246121d3565b5b81525090565b6000604051905090565b600080fd5b600080fd5b600080fd5b600080fd5b6000601f19601f8301169050919050565b7f4e487b7100000000000000000000000000000000000000000000000000000000600052604160045260246000fd5b611f9282611f49565b810181811067ffffffffffffffff82111715611fb157611fb0611f5a565b5b80604052505050565b6000611fc4611f2b565b9050611fd08282611f89565b919050565b600067ffffffffffffffff821115611ff057611fef611f5a565b5b611ff982611f49565b9050602081019050919050565b82818337600083830152505050565b600061202861202384611fd5565b611fba565b90508281526020810184848401111561204457612043611f44565b5b61204f848285612006565b509392505050565b600082601f83011261206c5761206b611f3f565b5b813561207c848260208601612015565b91505092915050565b60006020828403121561209b5761209a611f35565b5b600082013567ffffffffffffffff8111156120b9576120b8611f3a565b5b6120c584828501612057565b91505092915050565b600081519050919050565b600082825260208201905092915050565b6000819050602082019050919050565b600073ffffffffffffffffffffffffffffffffffffffff82169050919050565b6000612125826120fa565b9050919050565b6121358161211a565b82525050565b600081519050919050565b600082825260208201905092915050565b60005b8381101561217557808201518184015260208101905061215a565b60008484015250505050565b600061218c8261213b565b6121968185612146565b93506121a6818560208601612157565b6121af81611f49565b840191505092915050565b6000819050919050565b6121cd816121ba565b82525050565b7f4e487b7100000000000000000000000000000000000000000000000000000000600052602160045260246000fd5b60058110612213576122126121d3565b5b50565b600081905061222482612202565b919050565b600061223482612216565b9050919050565b61224481612229565b82525050565b600060c083016000830151612262600086018261212c565b506020830151848203602086015261227a8282612181565b915050604083015184820360408601526122948282612181565b915050606083015184820360608601526122ae8282612181565b91505060808301516122c360808601826121c4565b5060a08301516122d660a086018261223b565b508091505092915050565b60006122ed838361224a565b905092915050565b6000602082019050919050565b600061230d826120ce565b61231781856120d9565b935083602082028501612329856120ea565b8060005b85811015612365578484038952815161234685826122e1565b9450612351836122f5565b925060208a0199505060018101905061232d565b50829750879550505050505092915050565b600060208201905081810360008301526123918184612302565b905092915050565b6123a28161211a565b82525050565b6123b1816121ba565b82525050565b60006040820190506123cc6000830185612399565b6123d960208301846123a8565b9392505050565b6123e98161211a565b81146123f457600080fd5b50565b600081359050612406816123e0565b92915050565b6000806040838503121561242357612422611f35565b5b6000612431858286016123f7565b925050602083013567ffffffffffffffff81111561245257612451611f3a565b5b61245e85828601612057565b9150509250929050565b60006020828403121561247e5761247d611f35565b5b600061248c848285016123f7565b91505092915050565b600060c0830160008301516124ad600086018261212c565b50602083015184820360208601526124c58282612181565b915050604083015184820360408601526124df8282612181565b915050606083015184820360608601526124f98282612181565b915050608083015161250e60808601826121c4565b5060a083015161252160a086018261223b565b508091505092915050565b600060208201905081810360008301526125468184612495565b905092915050565b612557816121ba565b811461256257600080fd5b50565b6000813590506125748161254e565b92915050565b6000806040838503121561259157612590611f35565b5b600061259f858286016123f7565b92505060206125b085828601612565565b9150509250929050565b6125c381612229565b82525050565b60006020820190506125de60008301846125ba565b92915050565b600581106125f157600080fd5b50565b600081359050612603816125e4565b92915050565b600080604083850312156126205761261f611f35565b5b600061262e858286016123f7565b925050602061263f858286016125f4565b9150509250929050565b600080604083850312156126605761265f611f35565b5b600061266e858286016123f7565b925050602061267f858286016123f7565b9150509250929050565b6000819050919050565b60006126ae6126a96126a4846120fa565b612689565b6120fa565b9050919050565b60006126c082612693565b9050919050565b60006126d2826126b5565b9050919050565b6126e2816126c7565b82525050565b60006020820190506126fd60008301846126d9565b92915050565b60006020820190506127186000830184612399565b92915050565b60008060006060848603121561273757612736611f35565b5b6000612745868287016123f7565b935050602084013567ffffffffffffffff81111561276657612765611f3a565b5b61277286828701612057565b925050604084013567ffffffffffffffff81111561279357612792611f3a565b5b61279f86828701612057565b9150509250925092565b60008115159050919050565b6127be816127a9565b82525050565b60006020820190506127d960008301846127b5565b92915050565b6000815190506127ee816125e4565b92915050565b60006020828403121561280a57612809611f35565b5b6000612818848285016127df565b91505092915050565b600082825260208201905092915050565b7f4163636573732064656e6965643a204e6f742061204d656d6265720000000000600082015250565b6000612868601b83612821565b915061287382612832565b602082019050919050565b600060208201905081810360008301526128978161285b565b9050919050565b60006128a98261213b565b6128b38185612821565b93506128c3818560208601612157565b6128cc81611f49565b840191505092915050565b600060208201905081810360008301526128f1818461289e565b905092915050565b600067ffffffffffffffff82111561291457612913611f5a565b5b602082029050602081019050919050565b600080fd5b600080fd5b600080fd5b600081519050612943816123e0565b92915050565b600061295c61295784611fd5565b611fba565b90508281526020810184848401111561297857612977611f44565b5b612983848285612157565b509392505050565b600082601f8301126129a05761299f611f3f565b5b81516129b0848260208601612949565b91505092915050565b6000815190506129c88161254e565b92915050565b600060c082840312156129e4576129e361292a565b5b6129ee60c0611fba565b905060006129fe84828501612934565b600083015250602082015167ffffffffffffffff811115612a2257612a2161292f565b5b612a2e8482850161298b565b602083015250604082015167ffffffffffffffff811115612a5257612a5161292f565b5b612a5e8482850161298b565b604083015250606082015167ffffffffffffffff811115612a8257612a8161292f565b5b612a8e8482850161298b565b6060830152506080612aa2848285016129b9565b60808301525060a0612ab6848285016127df565b60a08301525092915050565b6000612ad5612ad0846128f9565b611fba565b90508083825260208201905060208402830185811115612af857612af7612925565b5b835b81811015612b3f57805167ffffffffffffffff811115612b1d57612b1c611f3f565b5b808601612b2a89826129ce565b85526020850194505050602081019050612afa565b5050509392505050565b600082601f830112612b5e57612b5d611f3f565b5b8151612b6e848260208601612ac2565b91505092915050565b600060208284031215612b8d57612b8c611f35565b5b600082015167ffffffffffffffff811115612bab57612baa611f3a565b5b612bb784828501612b49565b91505092915050565b600060208284031215612bd657612bd5611f35565b5b6000612be4848285016129b9565b91505092915050565b7f4163636573732064656e6965643a204e6f7420616e2041646d696e0000000000600082015250565b6000612c23601b83612821565b9150612c2e82612bed565b602082019050919050565b60006020820190508181036000830152612c5281612c16565b9050919050565b6000604082019050612c6e6000830185612399565b8181036020830152612c80818461289e565b90509392505050565b600060208284031215612c9f57612c9e611f35565b5b600082015167ffffffffffffffff811115612cbd57612cbc611f3a565b5b612cc9848285016129ce565b91505092915050565b7f4163636573732064656e6965643a20696e636f727265637420726f6c65000000600082015250565b6000612d08601d83612821565b9150612d1382612cd2565b602082019050919050565b60006020820190508181036000830152612d3781612cfb565b9050919050565b7f4163636573732064656e6965643a204e6f7420616e2041646d696e206f72205060008201527f72696d6172792047726f75702048656164000000000000000000000000000000602082015250565b6000612d9a603183612821565b9150612da582612d3e565b604082019050919050565b60006020820190508181036000830152612dc981612d8d565b9050919050565b6000604082019050612de56000830185612399565b612df26020830184612399565b9392505050565b600060208284031215612e0f57612e0e611f35565b5b6000612e1d84828501612934565b91505092915050565b6000606082019050612e3b6000830186612399565b8181036020830152612e4d818561289e565b90508181036040830152612e61818461289e565b9050949350505050565b600081905092915050565b6000612e818261213b565b612e8b8185612e6b565b9350612e9b818560208601612157565b80840191505092915050565b6000612eb38284612e76565b91508190509291505056fea264697066735822122034cf055f2cd4c21cb036556b4ec5b1649dbc8c5e40d095f03ba46328dbbd98f064736f6c63430008150033",
  "linkReferences": {},
  "deployedLinkReferences": {}
}