{
	"Contracts/contracts_v2 - test/contracts/Scheduler.sol": {
		"Scheduler": {
			"abi": [
				{
					"inputs": [],
					"name": "executeTask",
					"outputs": [],
					"stateMutability": "nonpayable",
					"type": "function"
				},
				{
					"inputs": [],
					"name": "isTaskReady",
					"outputs": [
						{
							"internalType": "bool",
							"name": "",
							"type": "bool"
						}
					],
					"stateMutability": "view",
					"type": "function"
				},
				{
					"inputs": [
						{
							"internalType": "uint256",
							"name": "delayInSeconds",
							"type": "uint256"
						}
					],
					"name": "scheduleTask",
					"outputs": [],
					"stateMutability": "nonpayable",
					"type": "function"
				},
				{
					"inputs": [
						{
							"internalType": "address",
							"name": "",
							"type": "address"
						}
					],
					"name": "tasks",
					"outputs": [
						{
							"internalType": "uint256",
							"name": "executionTime",
							"type": "uint256"
						},
						{
							"internalType": "bool",
							"name": "isExecuted",
							"type": "bool"
						}
					],
					"stateMutability": "view",
					"type": "function"
				}
			],
			"devdoc": {
				"kind": "dev",
				"methods": {},
				"version": 1
			},
			"evm": {
				"assembly": "    /* \"Contracts/contracts_v2 - test/contracts/Scheduler.sol\":0:1329  contract Scheduler {... */\n  mstore(0x40, 0x80)\n  callvalue\n  dup1\n  iszero\n  tag_1\n  jumpi\n  0x00\n  dup1\n  revert\ntag_1:\n  pop\n  dataSize(sub_0)\n  dup1\n  dataOffset(sub_0)\n  0x00\n  codecopy\n  0x00\n  return\nstop\n\nsub_0: assembly {\n        /* \"Contracts/contracts_v2 - test/contracts/Scheduler.sol\":0:1329  contract Scheduler {... */\n      mstore(0x40, 0x80)\n      callvalue\n      dup1\n      iszero\n      tag_1\n      jumpi\n      0x00\n      dup1\n      revert\n    tag_1:\n      pop\n      jumpi(tag_2, lt(calldatasize, 0x04))\n      shr(0xe0, calldataload(0x00))\n      dup1\n      0x1652e307\n      eq\n      tag_3\n      jumpi\n      dup1\n      0x526a52c0\n      eq\n      tag_4\n      jumpi\n      dup1\n      0x5345fb74\n      eq\n      tag_5\n      jumpi\n      dup1\n      0x77c237fd\n      eq\n      tag_6\n      jumpi\n    tag_2:\n      0x00\n      dup1\n      revert\n        /* \"Contracts/contracts_v2 - test/contracts/Scheduler.sol\":295:575  function scheduleTask(uint256 delayInSeconds) external {... */\n    tag_3:\n      tag_7\n      0x04\n      dup1\n      calldatasize\n      sub\n      dup2\n      add\n      swap1\n      tag_8\n      swap2\n      swap1\n      tag_9\n      jump\t// in\n    tag_8:\n      tag_10\n      jump\t// in\n    tag_7:\n      stop\n        /* \"Contracts/contracts_v2 - test/contracts/Scheduler.sol\":630:1068  function executeTask() external {... */\n    tag_4:\n      tag_11\n      tag_12\n      jump\t// in\n    tag_11:\n      stop\n        /* \"Contracts/contracts_v2 - test/contracts/Scheduler.sol\":1134:1326  function isTaskReady() external view returns (bool) {... */\n    tag_5:\n      tag_13\n      tag_14\n      jump\t// in\n    tag_13:\n      mload(0x40)\n      tag_15\n      swap2\n      swap1\n      tag_16\n      jump\t// in\n    tag_15:\n      mload(0x40)\n      dup1\n      swap2\n      sub\n      swap1\n      return\n        /* \"Contracts/contracts_v2 - test/contracts/Scheduler.sol\":204:250  mapping(address => ScheduledTask) public tasks */\n    tag_6:\n      tag_17\n      0x04\n      dup1\n      calldatasize\n      sub\n      dup2\n      add\n      swap1\n      tag_18\n      swap2\n      swap1\n      tag_19\n      jump\t// in\n    tag_18:\n      tag_20\n      jump\t// in\n    tag_17:\n      mload(0x40)\n      tag_21\n      swap3\n      swap2\n      swap1\n      tag_22\n      jump\t// in\n    tag_21:\n      mload(0x40)\n      dup1\n      swap2\n      sub\n      swap1\n      return\n        /* \"Contracts/contracts_v2 - test/contracts/Scheduler.sol\":295:575  function scheduleTask(uint256 delayInSeconds) external {... */\n    tag_10:\n        /* \"Contracts/contracts_v2 - test/contracts/Scheduler.sol\":404:405  0 */\n      0x00\n        /* \"Contracts/contracts_v2 - test/contracts/Scheduler.sol\":369:374  tasks */\n      dup1\n        /* \"Contracts/contracts_v2 - test/contracts/Scheduler.sol\":369:386  tasks[msg.sender] */\n      0x00\n        /* \"Contracts/contracts_v2 - test/contracts/Scheduler.sol\":375:385  msg.sender */\n      caller\n        /* \"Contracts/contracts_v2 - test/contracts/Scheduler.sol\":369:386  tasks[msg.sender] */\n      0xffffffffffffffffffffffffffffffffffffffff\n      and\n      0xffffffffffffffffffffffffffffffffffffffff\n      and\n      dup2\n      mstore\n      0x20\n      add\n      swap1\n      dup2\n      mstore\n      0x20\n      add\n      0x00\n      keccak256\n        /* \"Contracts/contracts_v2 - test/contracts/Scheduler.sol\":369:400  tasks[msg.sender].executionTime */\n      0x00\n      add\n      sload\n        /* \"Contracts/contracts_v2 - test/contracts/Scheduler.sol\":369:405  tasks[msg.sender].executionTime == 0 */\n      eq\n        /* \"Contracts/contracts_v2 - test/contracts/Scheduler.sol\":361:432  require(tasks[msg.sender].executionTime == 0, \"Task already scheduled\") */\n      tag_24\n      jumpi\n      mload(0x40)\n      0x08c379a000000000000000000000000000000000000000000000000000000000\n      dup2\n      mstore\n      0x04\n      add\n      tag_25\n      swap1\n      tag_26\n      jump\t// in\n    tag_25:\n      mload(0x40)\n      dup1\n      swap2\n      sub\n      swap1\n      revert\n    tag_24:\n        /* \"Contracts/contracts_v2 - test/contracts/Scheduler.sol\":445:466  uint256 executionTime */\n      0x00\n        /* \"Contracts/contracts_v2 - test/contracts/Scheduler.sol\":487:501  delayInSeconds */\n      dup2\n        /* \"Contracts/contracts_v2 - test/contracts/Scheduler.sol\":469:484  block.timestamp */\n      timestamp\n        /* \"Contracts/contracts_v2 - test/contracts/Scheduler.sol\":469:501  block.timestamp + delayInSeconds */\n      tag_27\n      swap2\n      swap1\n      tag_28\n      jump\t// in\n    tag_27:\n        /* \"Contracts/contracts_v2 - test/contracts/Scheduler.sol\":445:501  uint256 executionTime = block.timestamp + delayInSeconds */\n      swap1\n      pop\n        /* \"Contracts/contracts_v2 - test/contracts/Scheduler.sol\":532:567  ScheduledTask(executionTime, false) */\n      mload(0x40)\n      dup1\n      0x40\n      add\n      0x40\n      mstore\n      dup1\n        /* \"Contracts/contracts_v2 - test/contracts/Scheduler.sol\":546:559  executionTime */\n      dup3\n        /* \"Contracts/contracts_v2 - test/contracts/Scheduler.sol\":532:567  ScheduledTask(executionTime, false) */\n      dup2\n      mstore\n      0x20\n      add\n        /* \"Contracts/contracts_v2 - test/contracts/Scheduler.sol\":561:566  false */\n      0x00\n        /* \"Contracts/contracts_v2 - test/contracts/Scheduler.sol\":532:567  ScheduledTask(executionTime, false) */\n      iszero\n      iszero\n      dup2\n      mstore\n      pop\n        /* \"Contracts/contracts_v2 - test/contracts/Scheduler.sol\":512:517  tasks */\n      0x00\n        /* \"Contracts/contracts_v2 - test/contracts/Scheduler.sol\":512:529  tasks[msg.sender] */\n      dup1\n        /* \"Contracts/contracts_v2 - test/contracts/Scheduler.sol\":518:528  msg.sender */\n      caller\n        /* \"Contracts/contracts_v2 - test/contracts/Scheduler.sol\":512:529  tasks[msg.sender] */\n      0xffffffffffffffffffffffffffffffffffffffff\n      and\n      0xffffffffffffffffffffffffffffffffffffffff\n      and\n      dup2\n      mstore\n      0x20\n      add\n      swap1\n      dup2\n      mstore\n      0x20\n      add\n      0x00\n      keccak256\n        /* \"Contracts/contracts_v2 - test/contracts/Scheduler.sol\":512:567  tasks[msg.sender] = ScheduledTask(executionTime, false) */\n      0x00\n      dup3\n      add\n      mload\n      dup2\n      0x00\n      add\n      sstore\n      0x20\n      dup3\n      add\n      mload\n      dup2\n      0x01\n      add\n      exp(0x0100, 0x00)\n      dup2\n      sload\n      dup2\n      0xff\n      mul\n      not\n      and\n      swap1\n      dup4\n      iszero\n      iszero\n      mul\n      or\n      swap1\n      sstore\n      pop\n      swap1\n      pop\n      pop\n        /* \"Contracts/contracts_v2 - test/contracts/Scheduler.sol\":350:575  {... */\n      pop\n        /* \"Contracts/contracts_v2 - test/contracts/Scheduler.sol\":295:575  function scheduleTask(uint256 delayInSeconds) external {... */\n      pop\n      jump\t// out\n        /* \"Contracts/contracts_v2 - test/contracts/Scheduler.sol\":630:1068  function executeTask() external {... */\n    tag_12:\n        /* \"Contracts/contracts_v2 - test/contracts/Scheduler.sol\":673:699  ScheduledTask storage task */\n      0x00\n        /* \"Contracts/contracts_v2 - test/contracts/Scheduler.sol\":702:707  tasks */\n      dup1\n        /* \"Contracts/contracts_v2 - test/contracts/Scheduler.sol\":702:719  tasks[msg.sender] */\n      0x00\n        /* \"Contracts/contracts_v2 - test/contracts/Scheduler.sol\":708:718  msg.sender */\n      caller\n        /* \"Contracts/contracts_v2 - test/contracts/Scheduler.sol\":702:719  tasks[msg.sender] */\n      0xffffffffffffffffffffffffffffffffffffffff\n      and\n      0xffffffffffffffffffffffffffffffffffffffff\n      and\n      dup2\n      mstore\n      0x20\n      add\n      swap1\n      dup2\n      mstore\n      0x20\n      add\n      0x00\n      keccak256\n        /* \"Contracts/contracts_v2 - test/contracts/Scheduler.sol\":673:719  ScheduledTask storage task = tasks[msg.sender] */\n      swap1\n      pop\n        /* \"Contracts/contracts_v2 - test/contracts/Scheduler.sol\":759:763  task */\n      dup1\n        /* \"Contracts/contracts_v2 - test/contracts/Scheduler.sol\":759:777  task.executionTime */\n      0x00\n      add\n      sload\n        /* \"Contracts/contracts_v2 - test/contracts/Scheduler.sol\":740:755  block.timestamp */\n      timestamp\n        /* \"Contracts/contracts_v2 - test/contracts/Scheduler.sol\":740:777  block.timestamp >= task.executionTime */\n      lt\n      iszero\n        /* \"Contracts/contracts_v2 - test/contracts/Scheduler.sol\":732:805  require(block.timestamp >= task.executionTime, \"Task not yet executable\") */\n      tag_30\n      jumpi\n      mload(0x40)\n      0x08c379a000000000000000000000000000000000000000000000000000000000\n      dup2\n      mstore\n      0x04\n      add\n      tag_31\n      swap1\n      tag_32\n      jump\t// in\n    tag_31:\n      mload(0x40)\n      dup1\n      swap2\n      sub\n      swap1\n      revert\n    tag_30:\n        /* \"Contracts/contracts_v2 - test/contracts/Scheduler.sol\":825:829  task */\n      dup1\n        /* \"Contracts/contracts_v2 - test/contracts/Scheduler.sol\":825:840  task.isExecuted */\n      0x01\n      add\n      0x00\n      swap1\n      sload\n      swap1\n      0x0100\n      exp\n      swap1\n      div\n      0xff\n      and\n        /* \"Contracts/contracts_v2 - test/contracts/Scheduler.sol\":824:840  !task.isExecuted */\n      iszero\n        /* \"Contracts/contracts_v2 - test/contracts/Scheduler.sol\":816:866  require(!task.isExecuted, \"Task already executed\") */\n      tag_33\n      jumpi\n      mload(0x40)\n      0x08c379a000000000000000000000000000000000000000000000000000000000\n      dup2\n      mstore\n      0x04\n      add\n      tag_34\n      swap1\n      tag_35\n      jump\t// in\n    tag_34:\n      mload(0x40)\n      dup1\n      swap2\n      sub\n      swap1\n      revert\n    tag_33:\n        /* \"Contracts/contracts_v2 - test/contracts/Scheduler.sol\":1010:1014  true */\n      0x01\n        /* \"Contracts/contracts_v2 - test/contracts/Scheduler.sol\":992:996  task */\n      dup2\n        /* \"Contracts/contracts_v2 - test/contracts/Scheduler.sol\":992:1007  task.isExecuted */\n      0x01\n      add\n      0x00\n        /* \"Contracts/contracts_v2 - test/contracts/Scheduler.sol\":992:1014  task.isExecuted = true */\n      0x0100\n      exp\n      dup2\n      sload\n      dup2\n      0xff\n      mul\n      not\n      and\n      swap1\n      dup4\n      iszero\n      iszero\n      mul\n      or\n      swap1\n      sstore\n      pop\n        /* \"Contracts/contracts_v2 - test/contracts/Scheduler.sol\":662:1068  {... */\n      pop\n        /* \"Contracts/contracts_v2 - test/contracts/Scheduler.sol\":630:1068  function executeTask() external {... */\n      jump\t// out\n        /* \"Contracts/contracts_v2 - test/contracts/Scheduler.sol\":1134:1326  function isTaskReady() external view returns (bool) {... */\n    tag_14:\n        /* \"Contracts/contracts_v2 - test/contracts/Scheduler.sol\":1180:1184  bool */\n      0x00\n        /* \"Contracts/contracts_v2 - test/contracts/Scheduler.sol\":1197:1223  ScheduledTask storage task */\n      dup1\n        /* \"Contracts/contracts_v2 - test/contracts/Scheduler.sol\":1226:1231  tasks */\n      0x00\n        /* \"Contracts/contracts_v2 - test/contracts/Scheduler.sol\":1226:1243  tasks[msg.sender] */\n      dup1\n        /* \"Contracts/contracts_v2 - test/contracts/Scheduler.sol\":1232:1242  msg.sender */\n      caller\n        /* \"Contracts/contracts_v2 - test/contracts/Scheduler.sol\":1226:1243  tasks[msg.sender] */\n      0xffffffffffffffffffffffffffffffffffffffff\n      and\n      0xffffffffffffffffffffffffffffffffffffffff\n      and\n      dup2\n      mstore\n      0x20\n      add\n      swap1\n      dup2\n      mstore\n      0x20\n      add\n      0x00\n      keccak256\n        /* \"Contracts/contracts_v2 - test/contracts/Scheduler.sol\":1197:1243  ScheduledTask storage task = tasks[msg.sender] */\n      swap1\n      pop\n        /* \"Contracts/contracts_v2 - test/contracts/Scheduler.sol\":1280:1284  task */\n      dup1\n        /* \"Contracts/contracts_v2 - test/contracts/Scheduler.sol\":1280:1298  task.executionTime */\n      0x00\n      add\n      sload\n        /* \"Contracts/contracts_v2 - test/contracts/Scheduler.sol\":1261:1276  block.timestamp */\n      timestamp\n        /* \"Contracts/contracts_v2 - test/contracts/Scheduler.sol\":1261:1298  block.timestamp >= task.executionTime */\n      lt\n      iszero\n        /* \"Contracts/contracts_v2 - test/contracts/Scheduler.sol\":1261:1318  block.timestamp >= task.executionTime && !task.isExecuted */\n      dup1\n      iszero\n      tag_37\n      jumpi\n      pop\n        /* \"Contracts/contracts_v2 - test/contracts/Scheduler.sol\":1303:1307  task */\n      dup1\n        /* \"Contracts/contracts_v2 - test/contracts/Scheduler.sol\":1303:1318  task.isExecuted */\n      0x01\n      add\n      0x00\n      swap1\n      sload\n      swap1\n      0x0100\n      exp\n      swap1\n      div\n      0xff\n      and\n        /* \"Contracts/contracts_v2 - test/contracts/Scheduler.sol\":1302:1318  !task.isExecuted */\n      iszero\n        /* \"Contracts/contracts_v2 - test/contracts/Scheduler.sol\":1261:1318  block.timestamp >= task.executionTime && !task.isExecuted */\n    tag_37:\n        /* \"Contracts/contracts_v2 - test/contracts/Scheduler.sol\":1254:1318  return block.timestamp >= task.executionTime && !task.isExecuted */\n      swap2\n      pop\n      pop\n        /* \"Contracts/contracts_v2 - test/contracts/Scheduler.sol\":1134:1326  function isTaskReady() external view returns (bool) {... */\n      swap1\n      jump\t// out\n        /* \"Contracts/contracts_v2 - test/contracts/Scheduler.sol\":204:250  mapping(address => ScheduledTask) public tasks */\n    tag_20:\n      mstore(0x20, 0x00)\n      dup1\n      0x00\n      mstore\n      keccak256(0x00, 0x40)\n      0x00\n      swap2\n      pop\n      swap1\n      pop\n      dup1\n      0x00\n      add\n      sload\n      swap1\n      dup1\n      0x01\n      add\n      0x00\n      swap1\n      sload\n      swap1\n      0x0100\n      exp\n      swap1\n      div\n      0xff\n      and\n      swap1\n      pop\n      dup3\n      jump\t// out\n        /* \"#utility.yul\":88:205   */\n    tag_39:\n        /* \"#utility.yul\":197:198   */\n      0x00\n        /* \"#utility.yul\":194:195   */\n      dup1\n        /* \"#utility.yul\":187:199   */\n      revert\n        /* \"#utility.yul\":334:411   */\n    tag_41:\n        /* \"#utility.yul\":371:378   */\n      0x00\n        /* \"#utility.yul\":400:405   */\n      dup2\n        /* \"#utility.yul\":389:405   */\n      swap1\n      pop\n        /* \"#utility.yul\":334:411   */\n      swap2\n      swap1\n      pop\n      jump\t// out\n        /* \"#utility.yul\":417:539   */\n    tag_42:\n        /* \"#utility.yul\":490:514   */\n      tag_65\n        /* \"#utility.yul\":508:513   */\n      dup2\n        /* \"#utility.yul\":490:514   */\n      tag_41\n      jump\t// in\n    tag_65:\n        /* \"#utility.yul\":483:488   */\n      dup2\n        /* \"#utility.yul\":480:515   */\n      eq\n        /* \"#utility.yul\":470:533   */\n      tag_66\n      jumpi\n        /* \"#utility.yul\":529:530   */\n      0x00\n        /* \"#utility.yul\":526:527   */\n      dup1\n        /* \"#utility.yul\":519:531   */\n      revert\n        /* \"#utility.yul\":470:533   */\n    tag_66:\n        /* \"#utility.yul\":417:539   */\n      pop\n      jump\t// out\n        /* \"#utility.yul\":545:684   */\n    tag_43:\n        /* \"#utility.yul\":591:596   */\n      0x00\n        /* \"#utility.yul\":629:635   */\n      dup2\n        /* \"#utility.yul\":616:636   */\n      calldataload\n        /* \"#utility.yul\":607:636   */\n      swap1\n      pop\n        /* \"#utility.yul\":645:678   */\n      tag_68\n        /* \"#utility.yul\":672:677   */\n      dup2\n        /* \"#utility.yul\":645:678   */\n      tag_42\n      jump\t// in\n    tag_68:\n        /* \"#utility.yul\":545:684   */\n      swap3\n      swap2\n      pop\n      pop\n      jump\t// out\n        /* \"#utility.yul\":690:1019   */\n    tag_9:\n        /* \"#utility.yul\":749:755   */\n      0x00\n        /* \"#utility.yul\":798:800   */\n      0x20\n        /* \"#utility.yul\":786:795   */\n      dup3\n        /* \"#utility.yul\":777:784   */\n      dup5\n        /* \"#utility.yul\":773:796   */\n      sub\n        /* \"#utility.yul\":769:801   */\n      slt\n        /* \"#utility.yul\":766:885   */\n      iszero\n      tag_70\n      jumpi\n        /* \"#utility.yul\":804:883   */\n      tag_71\n      tag_39\n      jump\t// in\n    tag_71:\n        /* \"#utility.yul\":766:885   */\n    tag_70:\n        /* \"#utility.yul\":924:925   */\n      0x00\n        /* \"#utility.yul\":949:1002   */\n      tag_72\n        /* \"#utility.yul\":994:1001   */\n      dup5\n        /* \"#utility.yul\":985:991   */\n      dup3\n        /* \"#utility.yul\":974:983   */\n      dup6\n        /* \"#utility.yul\":970:992   */\n      add\n        /* \"#utility.yul\":949:1002   */\n      tag_43\n      jump\t// in\n    tag_72:\n        /* \"#utility.yul\":939:1002   */\n      swap2\n      pop\n        /* \"#utility.yul\":895:1012   */\n      pop\n        /* \"#utility.yul\":690:1019   */\n      swap3\n      swap2\n      pop\n      pop\n      jump\t// out\n        /* \"#utility.yul\":1025:1115   */\n    tag_44:\n        /* \"#utility.yul\":1059:1066   */\n      0x00\n        /* \"#utility.yul\":1102:1107   */\n      dup2\n        /* \"#utility.yul\":1095:1108   */\n      iszero\n        /* \"#utility.yul\":1088:1109   */\n      iszero\n        /* \"#utility.yul\":1077:1109   */\n      swap1\n      pop\n        /* \"#utility.yul\":1025:1115   */\n      swap2\n      swap1\n      pop\n      jump\t// out\n        /* \"#utility.yul\":1121:1230   */\n    tag_45:\n        /* \"#utility.yul\":1202:1223   */\n      tag_75\n        /* \"#utility.yul\":1217:1222   */\n      dup2\n        /* \"#utility.yul\":1202:1223   */\n      tag_44\n      jump\t// in\n    tag_75:\n        /* \"#utility.yul\":1197:1200   */\n      dup3\n        /* \"#utility.yul\":1190:1224   */\n      mstore\n        /* \"#utility.yul\":1121:1230   */\n      pop\n      pop\n      jump\t// out\n        /* \"#utility.yul\":1236:1446   */\n    tag_16:\n        /* \"#utility.yul\":1323:1327   */\n      0x00\n        /* \"#utility.yul\":1361:1363   */\n      0x20\n        /* \"#utility.yul\":1350:1359   */\n      dup3\n        /* \"#utility.yul\":1346:1364   */\n      add\n        /* \"#utility.yul\":1338:1364   */\n      swap1\n      pop\n        /* \"#utility.yul\":1374:1439   */\n      tag_77\n        /* \"#utility.yul\":1436:1437   */\n      0x00\n        /* \"#utility.yul\":1425:1434   */\n      dup4\n        /* \"#utility.yul\":1421:1438   */\n      add\n        /* \"#utility.yul\":1412:1418   */\n      dup5\n        /* \"#utility.yul\":1374:1439   */\n      tag_45\n      jump\t// in\n    tag_77:\n        /* \"#utility.yul\":1236:1446   */\n      swap3\n      swap2\n      pop\n      pop\n      jump\t// out\n        /* \"#utility.yul\":1452:1578   */\n    tag_46:\n        /* \"#utility.yul\":1489:1496   */\n      0x00\n        /* \"#utility.yul\":1529:1571   */\n      0xffffffffffffffffffffffffffffffffffffffff\n        /* \"#utility.yul\":1522:1527   */\n      dup3\n        /* \"#utility.yul\":1518:1572   */\n      and\n        /* \"#utility.yul\":1507:1572   */\n      swap1\n      pop\n        /* \"#utility.yul\":1452:1578   */\n      swap2\n      swap1\n      pop\n      jump\t// out\n        /* \"#utility.yul\":1584:1680   */\n    tag_47:\n        /* \"#utility.yul\":1621:1628   */\n      0x00\n        /* \"#utility.yul\":1650:1674   */\n      tag_80\n        /* \"#utility.yul\":1668:1673   */\n      dup3\n        /* \"#utility.yul\":1650:1674   */\n      tag_46\n      jump\t// in\n    tag_80:\n        /* \"#utility.yul\":1639:1674   */\n      swap1\n      pop\n        /* \"#utility.yul\":1584:1680   */\n      swap2\n      swap1\n      pop\n      jump\t// out\n        /* \"#utility.yul\":1686:1808   */\n    tag_48:\n        /* \"#utility.yul\":1759:1783   */\n      tag_82\n        /* \"#utility.yul\":1777:1782   */\n      dup2\n        /* \"#utility.yul\":1759:1783   */\n      tag_47\n      jump\t// in\n    tag_82:\n        /* \"#utility.yul\":1752:1757   */\n      dup2\n        /* \"#utility.yul\":1749:1784   */\n      eq\n        /* \"#utility.yul\":1739:1802   */\n      tag_83\n      jumpi\n        /* \"#utility.yul\":1798:1799   */\n      0x00\n        /* \"#utility.yul\":1795:1796   */\n      dup1\n        /* \"#utility.yul\":1788:1800   */\n      revert\n        /* \"#utility.yul\":1739:1802   */\n    tag_83:\n        /* \"#utility.yul\":1686:1808   */\n      pop\n      jump\t// out\n        /* \"#utility.yul\":1814:1953   */\n    tag_49:\n        /* \"#utility.yul\":1860:1865   */\n      0x00\n        /* \"#utility.yul\":1898:1904   */\n      dup2\n        /* \"#utility.yul\":1885:1905   */\n      calldataload\n        /* \"#utility.yul\":1876:1905   */\n      swap1\n      pop\n        /* \"#utility.yul\":1914:1947   */\n      tag_85\n        /* \"#utility.yul\":1941:1946   */\n      dup2\n        /* \"#utility.yul\":1914:1947   */\n      tag_48\n      jump\t// in\n    tag_85:\n        /* \"#utility.yul\":1814:1953   */\n      swap3\n      swap2\n      pop\n      pop\n      jump\t// out\n        /* \"#utility.yul\":1959:2288   */\n    tag_19:\n        /* \"#utility.yul\":2018:2024   */\n      0x00\n        /* \"#utility.yul\":2067:2069   */\n      0x20\n        /* \"#utility.yul\":2055:2064   */\n      dup3\n        /* \"#utility.yul\":2046:2053   */\n      dup5\n        /* \"#utility.yul\":2042:2065   */\n      sub\n        /* \"#utility.yul\":2038:2070   */\n      slt\n        /* \"#utility.yul\":2035:2154   */\n      iszero\n      tag_87\n      jumpi\n        /* \"#utility.yul\":2073:2152   */\n      tag_88\n      tag_39\n      jump\t// in\n    tag_88:\n        /* \"#utility.yul\":2035:2154   */\n    tag_87:\n        /* \"#utility.yul\":2193:2194   */\n      0x00\n        /* \"#utility.yul\":2218:2271   */\n      tag_89\n        /* \"#utility.yul\":2263:2270   */\n      dup5\n        /* \"#utility.yul\":2254:2260   */\n      dup3\n        /* \"#utility.yul\":2243:2252   */\n      dup6\n        /* \"#utility.yul\":2239:2261   */\n      add\n        /* \"#utility.yul\":2218:2271   */\n      tag_49\n      jump\t// in\n    tag_89:\n        /* \"#utility.yul\":2208:2271   */\n      swap2\n      pop\n        /* \"#utility.yul\":2164:2281   */\n      pop\n        /* \"#utility.yul\":1959:2288   */\n      swap3\n      swap2\n      pop\n      pop\n      jump\t// out\n        /* \"#utility.yul\":2294:2412   */\n    tag_50:\n        /* \"#utility.yul\":2381:2405   */\n      tag_91\n        /* \"#utility.yul\":2399:2404   */\n      dup2\n        /* \"#utility.yul\":2381:2405   */\n      tag_41\n      jump\t// in\n    tag_91:\n        /* \"#utility.yul\":2376:2379   */\n      dup3\n        /* \"#utility.yul\":2369:2406   */\n      mstore\n        /* \"#utility.yul\":2294:2412   */\n      pop\n      pop\n      jump\t// out\n        /* \"#utility.yul\":2418:2738   */\n    tag_22:\n        /* \"#utility.yul\":2533:2537   */\n      0x00\n        /* \"#utility.yul\":2571:2573   */\n      0x40\n        /* \"#utility.yul\":2560:2569   */\n      dup3\n        /* \"#utility.yul\":2556:2574   */\n      add\n        /* \"#utility.yul\":2548:2574   */\n      swap1\n      pop\n        /* \"#utility.yul\":2584:2655   */\n      tag_93\n        /* \"#utility.yul\":2652:2653   */\n      0x00\n        /* \"#utility.yul\":2641:2650   */\n      dup4\n        /* \"#utility.yul\":2637:2654   */\n      add\n        /* \"#utility.yul\":2628:2634   */\n      dup6\n        /* \"#utility.yul\":2584:2655   */\n      tag_50\n      jump\t// in\n    tag_93:\n        /* \"#utility.yul\":2665:2731   */\n      tag_94\n        /* \"#utility.yul\":2727:2729   */\n      0x20\n        /* \"#utility.yul\":2716:2725   */\n      dup4\n        /* \"#utility.yul\":2712:2730   */\n      add\n        /* \"#utility.yul\":2703:2709   */\n      dup5\n        /* \"#utility.yul\":2665:2731   */\n      tag_45\n      jump\t// in\n    tag_94:\n        /* \"#utility.yul\":2418:2738   */\n      swap4\n      swap3\n      pop\n      pop\n      pop\n      jump\t// out\n        /* \"#utility.yul\":2744:2913   */\n    tag_51:\n        /* \"#utility.yul\":2828:2839   */\n      0x00\n        /* \"#utility.yul\":2862:2868   */\n      dup3\n        /* \"#utility.yul\":2857:2860   */\n      dup3\n        /* \"#utility.yul\":2850:2869   */\n      mstore\n        /* \"#utility.yul\":2902:2906   */\n      0x20\n        /* \"#utility.yul\":2897:2900   */\n      dup3\n        /* \"#utility.yul\":2893:2907   */\n      add\n        /* \"#utility.yul\":2878:2907   */\n      swap1\n      pop\n        /* \"#utility.yul\":2744:2913   */\n      swap3\n      swap2\n      pop\n      pop\n      jump\t// out\n        /* \"#utility.yul\":2919:3091   */\n    tag_52:\n        /* \"#utility.yul\":3059:3083   */\n      0x5461736b20616c7265616479207363686564756c656400000000000000000000\n        /* \"#utility.yul\":3055:3056   */\n      0x00\n        /* \"#utility.yul\":3047:3053   */\n      dup3\n        /* \"#utility.yul\":3043:3057   */\n      add\n        /* \"#utility.yul\":3036:3084   */\n      mstore\n        /* \"#utility.yul\":2919:3091   */\n      pop\n      jump\t// out\n        /* \"#utility.yul\":3097:3463   */\n    tag_53:\n        /* \"#utility.yul\":3239:3242   */\n      0x00\n        /* \"#utility.yul\":3260:3327   */\n      tag_98\n        /* \"#utility.yul\":3324:3326   */\n      0x16\n        /* \"#utility.yul\":3319:3322   */\n      dup4\n        /* \"#utility.yul\":3260:3327   */\n      tag_51\n      jump\t// in\n    tag_98:\n        /* \"#utility.yul\":3253:3327   */\n      swap2\n      pop\n        /* \"#utility.yul\":3336:3429   */\n      tag_99\n        /* \"#utility.yul\":3425:3428   */\n      dup3\n        /* \"#utility.yul\":3336:3429   */\n      tag_52\n      jump\t// in\n    tag_99:\n        /* \"#utility.yul\":3454:3456   */\n      0x20\n        /* \"#utility.yul\":3449:3452   */\n      dup3\n        /* \"#utility.yul\":3445:3457   */\n      add\n        /* \"#utility.yul\":3438:3457   */\n      swap1\n      pop\n        /* \"#utility.yul\":3097:3463   */\n      swap2\n      swap1\n      pop\n      jump\t// out\n        /* \"#utility.yul\":3469:3888   */\n    tag_26:\n        /* \"#utility.yul\":3635:3639   */\n      0x00\n        /* \"#utility.yul\":3673:3675   */\n      0x20\n        /* \"#utility.yul\":3662:3671   */\n      dup3\n        /* \"#utility.yul\":3658:3676   */\n      add\n        /* \"#utility.yul\":3650:3676   */\n      swap1\n      pop\n        /* \"#utility.yul\":3722:3731   */\n      dup2\n        /* \"#utility.yul\":3716:3720   */\n      dup2\n        /* \"#utility.yul\":3712:3732   */\n      sub\n        /* \"#utility.yul\":3708:3709   */\n      0x00\n        /* \"#utility.yul\":3697:3706   */\n      dup4\n        /* \"#utility.yul\":3693:3710   */\n      add\n        /* \"#utility.yul\":3686:3733   */\n      mstore\n        /* \"#utility.yul\":3750:3881   */\n      tag_101\n        /* \"#utility.yul\":3876:3880   */\n      dup2\n        /* \"#utility.yul\":3750:3881   */\n      tag_53\n      jump\t// in\n    tag_101:\n        /* \"#utility.yul\":3742:3881   */\n      swap1\n      pop\n        /* \"#utility.yul\":3469:3888   */\n      swap2\n      swap1\n      pop\n      jump\t// out\n        /* \"#utility.yul\":3894:4074   */\n    tag_54:\n        /* \"#utility.yul\":3942:4019   */\n      0x4e487b7100000000000000000000000000000000000000000000000000000000\n        /* \"#utility.yul\":3939:3940   */\n      0x00\n        /* \"#utility.yul\":3932:4020   */\n      mstore\n        /* \"#utility.yul\":4039:4043   */\n      0x11\n        /* \"#utility.yul\":4036:4037   */\n      0x04\n        /* \"#utility.yul\":4029:4044   */\n      mstore\n        /* \"#utility.yul\":4063:4067   */\n      0x24\n        /* \"#utility.yul\":4060:4061   */\n      0x00\n        /* \"#utility.yul\":4053:4068   */\n      revert\n        /* \"#utility.yul\":4080:4271   */\n    tag_28:\n        /* \"#utility.yul\":4120:4123   */\n      0x00\n        /* \"#utility.yul\":4139:4159   */\n      tag_104\n        /* \"#utility.yul\":4157:4158   */\n      dup3\n        /* \"#utility.yul\":4139:4159   */\n      tag_41\n      jump\t// in\n    tag_104:\n        /* \"#utility.yul\":4134:4159   */\n      swap2\n      pop\n        /* \"#utility.yul\":4173:4193   */\n      tag_105\n        /* \"#utility.yul\":4191:4192   */\n      dup4\n        /* \"#utility.yul\":4173:4193   */\n      tag_41\n      jump\t// in\n    tag_105:\n        /* \"#utility.yul\":4168:4193   */\n      swap3\n      pop\n        /* \"#utility.yul\":4216:4217   */\n      dup3\n        /* \"#utility.yul\":4213:4214   */\n      dup3\n        /* \"#utility.yul\":4209:4218   */\n      add\n        /* \"#utility.yul\":4202:4218   */\n      swap1\n      pop\n        /* \"#utility.yul\":4237:4240   */\n      dup1\n        /* \"#utility.yul\":4234:4235   */\n      dup3\n        /* \"#utility.yul\":4231:4241   */\n      gt\n        /* \"#utility.yul\":4228:4264   */\n      iszero\n      tag_106\n      jumpi\n        /* \"#utility.yul\":4244:4262   */\n      tag_107\n      tag_54\n      jump\t// in\n    tag_107:\n        /* \"#utility.yul\":4228:4264   */\n    tag_106:\n        /* \"#utility.yul\":4080:4271   */\n      swap3\n      swap2\n      pop\n      pop\n      jump\t// out\n        /* \"#utility.yul\":4277:4450   */\n    tag_55:\n        /* \"#utility.yul\":4417:4442   */\n      0x5461736b206e6f74207965742065786563757461626c65000000000000000000\n        /* \"#utility.yul\":4413:4414   */\n      0x00\n        /* \"#utility.yul\":4405:4411   */\n      dup3\n        /* \"#utility.yul\":4401:4415   */\n      add\n        /* \"#utility.yul\":4394:4443   */\n      mstore\n        /* \"#utility.yul\":4277:4450   */\n      pop\n      jump\t// out\n        /* \"#utility.yul\":4456:4822   */\n    tag_56:\n        /* \"#utility.yul\":4598:4601   */\n      0x00\n        /* \"#utility.yul\":4619:4686   */\n      tag_110\n        /* \"#utility.yul\":4683:4685   */\n      0x17\n        /* \"#utility.yul\":4678:4681   */\n      dup4\n        /* \"#utility.yul\":4619:4686   */\n      tag_51\n      jump\t// in\n    tag_110:\n        /* \"#utility.yul\":4612:4686   */\n      swap2\n      pop\n        /* \"#utility.yul\":4695:4788   */\n      tag_111\n        /* \"#utility.yul\":4784:4787   */\n      dup3\n        /* \"#utility.yul\":4695:4788   */\n      tag_55\n      jump\t// in\n    tag_111:\n        /* \"#utility.yul\":4813:4815   */\n      0x20\n        /* \"#utility.yul\":4808:4811   */\n      dup3\n        /* \"#utility.yul\":4804:4816   */\n      add\n        /* \"#utility.yul\":4797:4816   */\n      swap1\n      pop\n        /* \"#utility.yul\":4456:4822   */\n      swap2\n      swap1\n      pop\n      jump\t// out\n        /* \"#utility.yul\":4828:5247   */\n    tag_32:\n        /* \"#utility.yul\":4994:4998   */\n      0x00\n        /* \"#utility.yul\":5032:5034   */\n      0x20\n        /* \"#utility.yul\":5021:5030   */\n      dup3\n        /* \"#utility.yul\":5017:5035   */\n      add\n        /* \"#utility.yul\":5009:5035   */\n      swap1\n      pop\n        /* \"#utility.yul\":5081:5090   */\n      dup2\n        /* \"#utility.yul\":5075:5079   */\n      dup2\n        /* \"#utility.yul\":5071:5091   */\n      sub\n        /* \"#utility.yul\":5067:5068   */\n      0x00\n        /* \"#utility.yul\":5056:5065   */\n      dup4\n        /* \"#utility.yul\":5052:5069   */\n      add\n        /* \"#utility.yul\":5045:5092   */\n      mstore\n        /* \"#utility.yul\":5109:5240   */\n      tag_113\n        /* \"#utility.yul\":5235:5239   */\n      dup2\n        /* \"#utility.yul\":5109:5240   */\n      tag_56\n      jump\t// in\n    tag_113:\n        /* \"#utility.yul\":5101:5240   */\n      swap1\n      pop\n        /* \"#utility.yul\":4828:5247   */\n      swap2\n      swap1\n      pop\n      jump\t// out\n        /* \"#utility.yul\":5253:5424   */\n    tag_57:\n        /* \"#utility.yul\":5393:5416   */\n      0x5461736b20616c72656164792065786563757465640000000000000000000000\n        /* \"#utility.yul\":5389:5390   */\n      0x00\n        /* \"#utility.yul\":5381:5387   */\n      dup3\n        /* \"#utility.yul\":5377:5391   */\n      add\n        /* \"#utility.yul\":5370:5417   */\n      mstore\n        /* \"#utility.yul\":5253:5424   */\n      pop\n      jump\t// out\n        /* \"#utility.yul\":5430:5796   */\n    tag_58:\n        /* \"#utility.yul\":5572:5575   */\n      0x00\n        /* \"#utility.yul\":5593:5660   */\n      tag_116\n        /* \"#utility.yul\":5657:5659   */\n      0x15\n        /* \"#utility.yul\":5652:5655   */\n      dup4\n        /* \"#utility.yul\":5593:5660   */\n      tag_51\n      jump\t// in\n    tag_116:\n        /* \"#utility.yul\":5586:5660   */\n      swap2\n      pop\n        /* \"#utility.yul\":5669:5762   */\n      tag_117\n        /* \"#utility.yul\":5758:5761   */\n      dup3\n        /* \"#utility.yul\":5669:5762   */\n      tag_57\n      jump\t// in\n    tag_117:\n        /* \"#utility.yul\":5787:5789   */\n      0x20\n        /* \"#utility.yul\":5782:5785   */\n      dup3\n        /* \"#utility.yul\":5778:5790   */\n      add\n        /* \"#utility.yul\":5771:5790   */\n      swap1\n      pop\n        /* \"#utility.yul\":5430:5796   */\n      swap2\n      swap1\n      pop\n      jump\t// out\n        /* \"#utility.yul\":5802:6221   */\n    tag_35:\n        /* \"#utility.yul\":5968:5972   */\n      0x00\n        /* \"#utility.yul\":6006:6008   */\n      0x20\n        /* \"#utility.yul\":5995:6004   */\n      dup3\n        /* \"#utility.yul\":5991:6009   */\n      add\n        /* \"#utility.yul\":5983:6009   */\n      swap1\n      pop\n        /* \"#utility.yul\":6055:6064   */\n      dup2\n        /* \"#utility.yul\":6049:6053   */\n      dup2\n        /* \"#utility.yul\":6045:6065   */\n      sub\n        /* \"#utility.yul\":6041:6042   */\n      0x00\n        /* \"#utility.yul\":6030:6039   */\n      dup4\n        /* \"#utility.yul\":6026:6043   */\n      add\n        /* \"#utility.yul\":6019:6066   */\n      mstore\n        /* \"#utility.yul\":6083:6214   */\n      tag_119\n        /* \"#utility.yul\":6209:6213   */\n      dup2\n        /* \"#utility.yul\":6083:6214   */\n      tag_58\n      jump\t// in\n    tag_119:\n        /* \"#utility.yul\":6075:6214   */\n      swap1\n      pop\n        /* \"#utility.yul\":5802:6221   */\n      swap2\n      swap1\n      pop\n      jump\t// out\n\n    auxdata: 0xa26469706673582212200038d641de2c7a21349efa148bb67f542b0d0ee60133fe06aac8e77e44dd3e0d64736f6c634300081a0033\n}\n",
				"bytecode": {
					"linkReferences": {},
					"object": "6080604052348015600e575f80fd5b506106888061001c5f395ff3fe608060405234801561000f575f80fd5b506004361061004a575f3560e01c80631652e3071461004e578063526a52c01461006a5780635345fb741461007457806377c237fd14610092575b5f80fd5b61006860048036038101906100639190610391565b6100c3565b005b6100726101d3565b005b61007c6102c8565b60405161008991906103d6565b60405180910390f35b6100ac60048036038101906100a79190610449565b61032f565b6040516100ba929190610483565b60405180910390f35b5f805f3373ffffffffffffffffffffffffffffffffffffffff1673ffffffffffffffffffffffffffffffffffffffff1681526020019081526020015f205f015414610143576040517f08c379a000000000000000000000000000000000000000000000000000000000815260040161013a90610504565b60405180910390fd5b5f8142610150919061054f565b905060405180604001604052808281526020015f15158152505f803373ffffffffffffffffffffffffffffffffffffffff1673ffffffffffffffffffffffffffffffffffffffff1681526020019081526020015f205f820151815f01556020820151816001015f6101000a81548160ff0219169083151502179055509050505050565b5f805f3373ffffffffffffffffffffffffffffffffffffffff1673ffffffffffffffffffffffffffffffffffffffff1681526020019081526020015f209050805f0154421015610258576040517f08c379a000000000000000000000000000000000000000000000000000000000815260040161024f906105cc565b60405180910390fd5b806001015f9054906101000a900460ff16156102a9576040517f08c379a00000000000000000000000000000000000000000000000000000000081526004016102a090610634565b60405180910390fd5b6001816001015f6101000a81548160ff02191690831515021790555050565b5f805f803373ffffffffffffffffffffffffffffffffffffffff1673ffffffffffffffffffffffffffffffffffffffff1681526020019081526020015f209050805f015442101580156103295750806001015f9054906101000a900460ff16155b91505090565b5f602052805f5260405f205f91509050805f015490806001015f9054906101000a900460ff16905082565b5f80fd5b5f819050919050565b6103708161035e565b811461037a575f80fd5b50565b5f8135905061038b81610367565b92915050565b5f602082840312156103a6576103a561035a565b5b5f6103b38482850161037d565b91505092915050565b5f8115159050919050565b6103d0816103bc565b82525050565b5f6020820190506103e95f8301846103c7565b92915050565b5f73ffffffffffffffffffffffffffffffffffffffff82169050919050565b5f610418826103ef565b9050919050565b6104288161040e565b8114610432575f80fd5b50565b5f813590506104438161041f565b92915050565b5f6020828403121561045e5761045d61035a565b5b5f61046b84828501610435565b91505092915050565b61047d8161035e565b82525050565b5f6040820190506104965f830185610474565b6104a360208301846103c7565b9392505050565b5f82825260208201905092915050565b7f5461736b20616c7265616479207363686564756c6564000000000000000000005f82015250565b5f6104ee6016836104aa565b91506104f9826104ba565b602082019050919050565b5f6020820190508181035f83015261051b816104e2565b9050919050565b7f4e487b71000000000000000000000000000000000000000000000000000000005f52601160045260245ffd5b5f6105598261035e565b91506105648361035e565b925082820190508082111561057c5761057b610522565b5b92915050565b7f5461736b206e6f74207965742065786563757461626c650000000000000000005f82015250565b5f6105b66017836104aa565b91506105c182610582565b602082019050919050565b5f6020820190508181035f8301526105e3816105aa565b9050919050565b7f5461736b20616c726561647920657865637574656400000000000000000000005f82015250565b5f61061e6015836104aa565b9150610629826105ea565b602082019050919050565b5f6020820190508181035f83015261064b81610612565b905091905056fea26469706673582212200038d641de2c7a21349efa148bb67f542b0d0ee60133fe06aac8e77e44dd3e0d64736f6c634300081a0033",
					"opcodes": "PUSH1 0x80 PUSH1 0x40 MSTORE CALLVALUE DUP1 ISZERO PUSH1 0xE JUMPI PUSH0 DUP1 REVERT JUMPDEST POP PUSH2 0x688 DUP1 PUSH2 0x1C PUSH0 CODECOPY PUSH0 RETURN INVALID PUSH1 0x80 PUSH1 0x40 MSTORE CALLVALUE DUP1 ISZERO PUSH2 0xF JUMPI PUSH0 DUP1 REVERT JUMPDEST POP PUSH1 0x4 CALLDATASIZE LT PUSH2 0x4A JUMPI PUSH0 CALLDATALOAD PUSH1 0xE0 SHR DUP1 PUSH4 0x1652E307 EQ PUSH2 0x4E JUMPI DUP1 PUSH4 0x526A52C0 EQ PUSH2 0x6A JUMPI DUP1 PUSH4 0x5345FB74 EQ PUSH2 0x74 JUMPI DUP1 PUSH4 0x77C237FD EQ PUSH2 0x92 JUMPI JUMPDEST PUSH0 DUP1 REVERT JUMPDEST PUSH2 0x68 PUSH1 0x4 DUP1 CALLDATASIZE SUB DUP2 ADD SWAP1 PUSH2 0x63 SWAP2 SWAP1 PUSH2 0x391 JUMP JUMPDEST PUSH2 0xC3 JUMP JUMPDEST STOP JUMPDEST PUSH2 0x72 PUSH2 0x1D3 JUMP JUMPDEST STOP JUMPDEST PUSH2 0x7C PUSH2 0x2C8 JUMP JUMPDEST PUSH1 0x40 MLOAD PUSH2 0x89 SWAP2 SWAP1 PUSH2 0x3D6 JUMP JUMPDEST PUSH1 0x40 MLOAD DUP1 SWAP2 SUB SWAP1 RETURN JUMPDEST PUSH2 0xAC PUSH1 0x4 DUP1 CALLDATASIZE SUB DUP2 ADD SWAP1 PUSH2 0xA7 SWAP2 SWAP1 PUSH2 0x449 JUMP JUMPDEST PUSH2 0x32F JUMP JUMPDEST PUSH1 0x40 MLOAD PUSH2 0xBA SWAP3 SWAP2 SWAP1 PUSH2 0x483 JUMP JUMPDEST PUSH1 0x40 MLOAD DUP1 SWAP2 SUB SWAP1 RETURN JUMPDEST PUSH0 DUP1 PUSH0 CALLER PUSH20 0xFFFFFFFFFFFFFFFFFFFFFFFFFFFFFFFFFFFFFFFF AND PUSH20 0xFFFFFFFFFFFFFFFFFFFFFFFFFFFFFFFFFFFFFFFF AND DUP2 MSTORE PUSH1 0x20 ADD SWAP1 DUP2 MSTORE PUSH1 0x20 ADD PUSH0 KECCAK256 PUSH0 ADD SLOAD EQ PUSH2 0x143 JUMPI PUSH1 0x40 MLOAD PUSH32 0x8C379A000000000000000000000000000000000000000000000000000000000 DUP2 MSTORE PUSH1 0x4 ADD PUSH2 0x13A SWAP1 PUSH2 0x504 JUMP JUMPDEST PUSH1 0x40 MLOAD DUP1 SWAP2 SUB SWAP1 REVERT JUMPDEST PUSH0 DUP2 TIMESTAMP PUSH2 0x150 SWAP2 SWAP1 PUSH2 0x54F JUMP JUMPDEST SWAP1 POP PUSH1 0x40 MLOAD DUP1 PUSH1 0x40 ADD PUSH1 0x40 MSTORE DUP1 DUP3 DUP2 MSTORE PUSH1 0x20 ADD PUSH0 ISZERO ISZERO DUP2 MSTORE POP PUSH0 DUP1 CALLER PUSH20 0xFFFFFFFFFFFFFFFFFFFFFFFFFFFFFFFFFFFFFFFF AND PUSH20 0xFFFFFFFFFFFFFFFFFFFFFFFFFFFFFFFFFFFFFFFF AND DUP2 MSTORE PUSH1 0x20 ADD SWAP1 DUP2 MSTORE PUSH1 0x20 ADD PUSH0 KECCAK256 PUSH0 DUP3 ADD MLOAD DUP2 PUSH0 ADD SSTORE PUSH1 0x20 DUP3 ADD MLOAD DUP2 PUSH1 0x1 ADD PUSH0 PUSH2 0x100 EXP DUP2 SLOAD DUP2 PUSH1 0xFF MUL NOT AND SWAP1 DUP4 ISZERO ISZERO MUL OR SWAP1 SSTORE POP SWAP1 POP POP POP POP JUMP JUMPDEST PUSH0 DUP1 PUSH0 CALLER PUSH20 0xFFFFFFFFFFFFFFFFFFFFFFFFFFFFFFFFFFFFFFFF AND PUSH20 0xFFFFFFFFFFFFFFFFFFFFFFFFFFFFFFFFFFFFFFFF AND DUP2 MSTORE PUSH1 0x20 ADD SWAP1 DUP2 MSTORE PUSH1 0x20 ADD PUSH0 KECCAK256 SWAP1 POP DUP1 PUSH0 ADD SLOAD TIMESTAMP LT ISZERO PUSH2 0x258 JUMPI PUSH1 0x40 MLOAD PUSH32 0x8C379A000000000000000000000000000000000000000000000000000000000 DUP2 MSTORE PUSH1 0x4 ADD PUSH2 0x24F SWAP1 PUSH2 0x5CC JUMP JUMPDEST PUSH1 0x40 MLOAD DUP1 SWAP2 SUB SWAP1 REVERT JUMPDEST DUP1 PUSH1 0x1 ADD PUSH0 SWAP1 SLOAD SWAP1 PUSH2 0x100 EXP SWAP1 DIV PUSH1 0xFF AND ISZERO PUSH2 0x2A9 JUMPI PUSH1 0x40 MLOAD PUSH32 0x8C379A000000000000000000000000000000000000000000000000000000000 DUP2 MSTORE PUSH1 0x4 ADD PUSH2 0x2A0 SWAP1 PUSH2 0x634 JUMP JUMPDEST PUSH1 0x40 MLOAD DUP1 SWAP2 SUB SWAP1 REVERT JUMPDEST PUSH1 0x1 DUP2 PUSH1 0x1 ADD PUSH0 PUSH2 0x100 EXP DUP2 SLOAD DUP2 PUSH1 0xFF MUL NOT AND SWAP1 DUP4 ISZERO ISZERO MUL OR SWAP1 SSTORE POP POP JUMP JUMPDEST PUSH0 DUP1 PUSH0 DUP1 CALLER PUSH20 0xFFFFFFFFFFFFFFFFFFFFFFFFFFFFFFFFFFFFFFFF AND PUSH20 0xFFFFFFFFFFFFFFFFFFFFFFFFFFFFFFFFFFFFFFFF AND DUP2 MSTORE PUSH1 0x20 ADD SWAP1 DUP2 MSTORE PUSH1 0x20 ADD PUSH0 KECCAK256 SWAP1 POP DUP1 PUSH0 ADD SLOAD TIMESTAMP LT ISZERO DUP1 ISZERO PUSH2 0x329 JUMPI POP DUP1 PUSH1 0x1 ADD PUSH0 SWAP1 SLOAD SWAP1 PUSH2 0x100 EXP SWAP1 DIV PUSH1 0xFF AND ISZERO JUMPDEST SWAP2 POP POP SWAP1 JUMP JUMPDEST PUSH0 PUSH1 0x20 MSTORE DUP1 PUSH0 MSTORE PUSH1 0x40 PUSH0 KECCAK256 PUSH0 SWAP2 POP SWAP1 POP DUP1 PUSH0 ADD SLOAD SWAP1 DUP1 PUSH1 0x1 ADD PUSH0 SWAP1 SLOAD SWAP1 PUSH2 0x100 EXP SWAP1 DIV PUSH1 0xFF AND SWAP1 POP DUP3 JUMP JUMPDEST PUSH0 DUP1 REVERT JUMPDEST PUSH0 DUP2 SWAP1 POP SWAP2 SWAP1 POP JUMP JUMPDEST PUSH2 0x370 DUP2 PUSH2 0x35E JUMP JUMPDEST DUP2 EQ PUSH2 0x37A JUMPI PUSH0 DUP1 REVERT JUMPDEST POP JUMP JUMPDEST PUSH0 DUP2 CALLDATALOAD SWAP1 POP PUSH2 0x38B DUP2 PUSH2 0x367 JUMP JUMPDEST SWAP3 SWAP2 POP POP JUMP JUMPDEST PUSH0 PUSH1 0x20 DUP3 DUP5 SUB SLT ISZERO PUSH2 0x3A6 JUMPI PUSH2 0x3A5 PUSH2 0x35A JUMP JUMPDEST JUMPDEST PUSH0 PUSH2 0x3B3 DUP5 DUP3 DUP6 ADD PUSH2 0x37D JUMP JUMPDEST SWAP2 POP POP SWAP3 SWAP2 POP POP JUMP JUMPDEST PUSH0 DUP2 ISZERO ISZERO SWAP1 POP SWAP2 SWAP1 POP JUMP JUMPDEST PUSH2 0x3D0 DUP2 PUSH2 0x3BC JUMP JUMPDEST DUP3 MSTORE POP POP JUMP JUMPDEST PUSH0 PUSH1 0x20 DUP3 ADD SWAP1 POP PUSH2 0x3E9 PUSH0 DUP4 ADD DUP5 PUSH2 0x3C7 JUMP JUMPDEST SWAP3 SWAP2 POP POP JUMP JUMPDEST PUSH0 PUSH20 0xFFFFFFFFFFFFFFFFFFFFFFFFFFFFFFFFFFFFFFFF DUP3 AND SWAP1 POP SWAP2 SWAP1 POP JUMP JUMPDEST PUSH0 PUSH2 0x418 DUP3 PUSH2 0x3EF JUMP JUMPDEST SWAP1 POP SWAP2 SWAP1 POP JUMP JUMPDEST PUSH2 0x428 DUP2 PUSH2 0x40E JUMP JUMPDEST DUP2 EQ PUSH2 0x432 JUMPI PUSH0 DUP1 REVERT JUMPDEST POP JUMP JUMPDEST PUSH0 DUP2 CALLDATALOAD SWAP1 POP PUSH2 0x443 DUP2 PUSH2 0x41F JUMP JUMPDEST SWAP3 SWAP2 POP POP JUMP JUMPDEST PUSH0 PUSH1 0x20 DUP3 DUP5 SUB SLT ISZERO PUSH2 0x45E JUMPI PUSH2 0x45D PUSH2 0x35A JUMP JUMPDEST JUMPDEST PUSH0 PUSH2 0x46B DUP5 DUP3 DUP6 ADD PUSH2 0x435 JUMP JUMPDEST SWAP2 POP POP SWAP3 SWAP2 POP POP JUMP JUMPDEST PUSH2 0x47D DUP2 PUSH2 0x35E JUMP JUMPDEST DUP3 MSTORE POP POP JUMP JUMPDEST PUSH0 PUSH1 0x40 DUP3 ADD SWAP1 POP PUSH2 0x496 PUSH0 DUP4 ADD DUP6 PUSH2 0x474 JUMP JUMPDEST PUSH2 0x4A3 PUSH1 0x20 DUP4 ADD DUP5 PUSH2 0x3C7 JUMP JUMPDEST SWAP4 SWAP3 POP POP POP JUMP JUMPDEST PUSH0 DUP3 DUP3 MSTORE PUSH1 0x20 DUP3 ADD SWAP1 POP SWAP3 SWAP2 POP POP JUMP JUMPDEST PUSH32 0x5461736B20616C7265616479207363686564756C656400000000000000000000 PUSH0 DUP3 ADD MSTORE POP JUMP JUMPDEST PUSH0 PUSH2 0x4EE PUSH1 0x16 DUP4 PUSH2 0x4AA JUMP JUMPDEST SWAP2 POP PUSH2 0x4F9 DUP3 PUSH2 0x4BA JUMP JUMPDEST PUSH1 0x20 DUP3 ADD SWAP1 POP SWAP2 SWAP1 POP JUMP JUMPDEST PUSH0 PUSH1 0x20 DUP3 ADD SWAP1 POP DUP2 DUP2 SUB PUSH0 DUP4 ADD MSTORE PUSH2 0x51B DUP2 PUSH2 0x4E2 JUMP JUMPDEST SWAP1 POP SWAP2 SWAP1 POP JUMP JUMPDEST PUSH32 0x4E487B7100000000000000000000000000000000000000000000000000000000 PUSH0 MSTORE PUSH1 0x11 PUSH1 0x4 MSTORE PUSH1 0x24 PUSH0 REVERT JUMPDEST PUSH0 PUSH2 0x559 DUP3 PUSH2 0x35E JUMP JUMPDEST SWAP2 POP PUSH2 0x564 DUP4 PUSH2 0x35E JUMP JUMPDEST SWAP3 POP DUP3 DUP3 ADD SWAP1 POP DUP1 DUP3 GT ISZERO PUSH2 0x57C JUMPI PUSH2 0x57B PUSH2 0x522 JUMP JUMPDEST JUMPDEST SWAP3 SWAP2 POP POP JUMP JUMPDEST PUSH32 0x5461736B206E6F74207965742065786563757461626C65000000000000000000 PUSH0 DUP3 ADD MSTORE POP JUMP JUMPDEST PUSH0 PUSH2 0x5B6 PUSH1 0x17 DUP4 PUSH2 0x4AA JUMP JUMPDEST SWAP2 POP PUSH2 0x5C1 DUP3 PUSH2 0x582 JUMP JUMPDEST PUSH1 0x20 DUP3 ADD SWAP1 POP SWAP2 SWAP1 POP JUMP JUMPDEST PUSH0 PUSH1 0x20 DUP3 ADD SWAP1 POP DUP2 DUP2 SUB PUSH0 DUP4 ADD MSTORE PUSH2 0x5E3 DUP2 PUSH2 0x5AA JUMP JUMPDEST SWAP1 POP SWAP2 SWAP1 POP JUMP JUMPDEST PUSH32 0x5461736B20616C72656164792065786563757465640000000000000000000000 PUSH0 DUP3 ADD MSTORE POP JUMP JUMPDEST PUSH0 PUSH2 0x61E PUSH1 0x15 DUP4 PUSH2 0x4AA JUMP JUMPDEST SWAP2 POP PUSH2 0x629 DUP3 PUSH2 0x5EA JUMP JUMPDEST PUSH1 0x20 DUP3 ADD SWAP1 POP SWAP2 SWAP1 POP JUMP JUMPDEST PUSH0 PUSH1 0x20 DUP3 ADD SWAP1 POP DUP2 DUP2 SUB PUSH0 DUP4 ADD MSTORE PUSH2 0x64B DUP2 PUSH2 0x612 JUMP JUMPDEST SWAP1 POP SWAP2 SWAP1 POP JUMP INVALID LOG2 PUSH5 0x6970667358 0x22 SLT KECCAK256 STOP CODESIZE 0xD6 COINBASE 0xDE 0x2C PUSH27 0x21349EFA148BB67F542B0D0EE60133FE06AAC8E77E44DD3E0D6473 PUSH16 0x6C634300081A00330000000000000000 "
				},
				"gasEstimates": {
					"creation": {
						"codeDepositCost": "334400",
						"executionCost": "372",
						"totalCost": "334772"
					},
					"external": {
						"executeTask()": "28805",
						"isTaskReady()": "4742",
						"scheduleTask(uint256)": "infinite",
						"tasks(address)": "5110"
					}
				},
				"methodIdentifiers": {
					"executeTask()": "526a52c0",
					"isTaskReady()": "5345fb74",
					"scheduleTask(uint256)": "1652e307",
					"tasks(address)": "77c237fd"
				}
			},
			"storageLayout": {
				"storage": [
					{
						"astId": 10,
						"contract": "Contracts/contracts_v2 - test/contracts/Scheduler.sol:Scheduler",
						"label": "tasks",
						"offset": 0,
						"slot": "0",
						"type": "t_mapping(t_address,t_struct(ScheduledTask)5_storage)"
					}
				],
				"types": {
					"t_address": {
						"encoding": "inplace",
						"label": "address",
						"numberOfBytes": "20"
					},
					"t_bool": {
						"encoding": "inplace",
						"label": "bool",
						"numberOfBytes": "1"
					},
					"t_mapping(t_address,t_struct(ScheduledTask)5_storage)": {
						"encoding": "mapping",
						"key": "t_address",
						"label": "mapping(address => struct Scheduler.ScheduledTask)",
						"numberOfBytes": "32",
						"value": "t_struct(ScheduledTask)5_storage"
					},
					"t_struct(ScheduledTask)5_storage": {
						"encoding": "inplace",
						"label": "struct Scheduler.ScheduledTask",
						"members": [
							{
								"astId": 2,
								"contract": "Contracts/contracts_v2 - test/contracts/Scheduler.sol:Scheduler",
								"label": "executionTime",
								"offset": 0,
								"slot": "0",
								"type": "t_uint256"
							},
							{
								"astId": 4,
								"contract": "Contracts/contracts_v2 - test/contracts/Scheduler.sol:Scheduler",
								"label": "isExecuted",
								"offset": 0,
								"slot": "1",
								"type": "t_bool"
							}
						],
						"numberOfBytes": "64"
					},
					"t_uint256": {
						"encoding": "inplace",
						"label": "uint256",
						"numberOfBytes": "32"
					}
				}
			},
			"userdoc": {
				"kind": "user",
				"methods": {},
				"version": 1
			}
		}
	}
}