{
  "_format": "hh-sol-artifact-1",
  "contractName": "AccessControlContract",
  "sourceName": "contracts/AccessControlContract.sol",
  "abi": [
    {
      "inputs": [
        {
          "internalType": "address",
          "name": "_subjectAddress",
          "type": "address"
        },
        {
          "internalType": "address",
          "name": "_objectAddress",
          "type": "address"
        },
        {
          "internalType": "string",
          "name": "_accType",
          "type": "string"
        },
        {
          "internalType": "address",
          "name": "_roleBasedContract",
          "type": "address"
        },
        {
          "internalType": "address",
          "name": "_creator",
          "type": "address"
        }
      ],
      "stateMutability": "nonpayable",
      "type": "constructor"
    },
    {
      "anonymous": false,
      "inputs": [
        {
          "indexed": true,
          "internalType": "address",
          "name": "subject",
          "type": "address"
        },
        {
          "indexed": false,
          "internalType": "enum RoleToken.Role",
          "name": "role",
          "type": "uint8"
        },
        {
          "indexed": false,
          "internalType": "string",
          "name": "resource",
          "type": "string"
        },
        {
          "indexed": false,
          "internalType": "string",
          "name": "action",
          "type": "string"
        },
        {
          "indexed": false,
          "internalType": "bool",
          "name": "allowed",
          "type": "bool"
        }
      ],
      "name": "AccessControlChecked",
      "type": "event"
    },
    {
      "anonymous": false,
      "inputs": [],
      "name": "ContractActivated",
      "type": "event"
    },
    {
      "anonymous": false,
      "inputs": [],
      "name": "ContractDeactivated",
      "type": "event"
    },
    {
      "anonymous": false,
      "inputs": [
        {
          "indexed": true,
          "internalType": "address",
          "name": "from",
          "type": "address"
        },
        {
          "indexed": true,
          "internalType": "address",
          "name": "to",
          "type": "address"
        },
        {
          "indexed": false,
          "internalType": "string",
          "name": "data",
          "type": "string"
        }
      ],
      "name": "DataTransferred",
      "type": "event"
    },
    {
      "anonymous": false,
      "inputs": [
        {
          "indexed": false,
          "internalType": "string",
          "name": "functionName",
          "type": "string"
        }
      ],
      "name": "FunctionCalled",
      "type": "event"
    },
    {
      "anonymous": false,
      "inputs": [
        {
          "indexed": false,
          "internalType": "address",
          "name": "judgeContract",
          "type": "address"
        }
      ],
      "name": "JudgeContractSet",
      "type": "event"
    },
    {
      "anonymous": false,
      "inputs": [
        {
          "indexed": true,
          "internalType": "address",
          "name": "subject",
          "type": "address"
        },
        {
          "indexed": false,
          "internalType": "uint256",
          "name": "penaltyAmount",
          "type": "uint256"
        },
        {
          "indexed": false,
          "internalType": "string",
          "name": "reason",
          "type": "string"
        },
        {
          "indexed": false,
          "internalType": "uint256",
          "name": "blockingEndTime",
          "type": "uint256"
        }
      ],
      "name": "MaliciousActivityReported",
      "type": "event"
    },
    {
      "anonymous": false,
      "inputs": [
        {
          "indexed": true,
          "internalType": "address",
          "name": "subject",
          "type": "address"
        },
        {
          "indexed": false,
          "internalType": "uint256",
          "name": "rewardAmount",
          "type": "uint256"
        },
        {
          "indexed": false,
          "internalType": "string",
          "name": "newStatus",
          "type": "string"
        }
      ],
      "name": "NonPenalizeMisbehaviorReported",
      "type": "event"
    },
    {
      "anonymous": false,
      "inputs": [
        {
          "indexed": true,
          "internalType": "uint256",
          "name": "policyId",
          "type": "uint256"
        },
        {
          "indexed": false,
          "internalType": "enum RoleToken.Role",
          "name": "role",
          "type": "uint8"
        },
        {
          "indexed": false,
          "internalType": "string",
          "name": "resource",
          "type": "string"
        },
        {
          "indexed": false,
          "internalType": "string",
          "name": "action",
          "type": "string"
        },
        {
          "indexed": false,
          "internalType": "string",
          "name": "permission",
          "type": "string"
        }
      ],
      "name": "PolicyAdded",
      "type": "event"
    },
    {
      "anonymous": false,
      "inputs": [
        {
          "indexed": true,
          "internalType": "uint256",
          "name": "policyId",
          "type": "uint256"
        }
      ],
      "name": "PolicyDeleted",
      "type": "event"
    },
    {
      "anonymous": false,
      "inputs": [
        {
          "indexed": false,
          "internalType": "string",
          "name": "resource",
          "type": "string"
        },
        {
          "indexed": false,
          "internalType": "string",
          "name": "action",
          "type": "string"
        }
      ],
      "name": "PolicyNotFoundForAccessControl",
      "type": "event"
    },
    {
      "anonymous": false,
      "inputs": [
        {
          "indexed": true,
          "internalType": "uint256",
          "name": "policyId",
          "type": "uint256"
        },
        {
          "indexed": false,
          "internalType": "enum RoleToken.Role",
          "name": "role",
          "type": "uint8"
        },
        {
          "indexed": false,
          "internalType": "string",
          "name": "resource",
          "type": "string"
        },
        {
          "indexed": false,
          "internalType": "string",
          "name": "action",
          "type": "string"
        },
        {
          "indexed": false,
          "internalType": "string",
          "name": "permission",
          "type": "string"
        }
      ],
      "name": "PolicyUpdated",
      "type": "event"
    },
    {
      "anonymous": false,
      "inputs": [
        {
          "indexed": false,
          "internalType": "address",
          "name": "roleBasedContract",
          "type": "address"
        }
      ],
      "name": "RoleBasedContractSet",
      "type": "event"
    },
    {
      "inputs": [],
      "name": "accType",
      "outputs": [
        {
          "internalType": "string",
          "name": "",
          "type": "string"
        }
      ],
      "stateMutability": "view",
      "type": "function"
    },
    {
      "inputs": [
        {
          "internalType": "string",
          "name": "resource",
          "type": "string"
        },
        {
          "internalType": "string",
          "name": "action",
          "type": "string"
        }
      ],
      "name": "accessControl",
      "outputs": [
        {
          "internalType": "bool",
          "name": "",
          "type": "bool"
        }
      ],
      "stateMutability": "nonpayable",
      "type": "function"
    },
    {
      "inputs": [],
      "name": "activateContract",
      "outputs": [],
      "stateMutability": "nonpayable",
      "type": "function"
    },
    {
      "inputs": [],
      "name": "benignThreshold",
      "outputs": [
        {
          "internalType": "uint256",
          "name": "",
          "type": "uint256"
        }
      ],
      "stateMutability": "view",
      "type": "function"
    },
    {
      "inputs": [],
      "name": "creator",
      "outputs": [
        {
          "internalType": "address",
          "name": "",
          "type": "address"
        }
      ],
      "stateMutability": "view",
      "type": "function"
    },
    {
      "inputs": [],
      "name": "deactivateContract",
      "outputs": [],
      "stateMutability": "nonpayable",
      "type": "function"
    },
    {
      "inputs": [],
      "name": "getTime",
      "outputs": [
        {
          "internalType": "uint256",
          "name": "",
          "type": "uint256"
        },
        {
          "internalType": "bool",
          "name": "",
          "type": "bool"
        }
      ],
      "stateMutability": "view",
      "type": "function"
    },
    {
      "inputs": [],
      "name": "isActive",
      "outputs": [
        {
          "internalType": "bool",
          "name": "",
          "type": "bool"
        }
      ],
      "stateMutability": "view",
      "type": "function"
    },
    {
      "inputs": [],
      "name": "judgeContract",
      "outputs": [
        {
          "internalType": "contract JudgeContract",
          "name": "",
          "type": "address"
        }
      ],
      "stateMutability": "view",
      "type": "function"
    },
    {
      "inputs": [],
      "name": "objectAddress",
      "outputs": [
        {
          "internalType": "address",
          "name": "",
          "type": "address"
        }
      ],
      "stateMutability": "view",
      "type": "function"
    },
    {
      "inputs": [
        {
          "internalType": "uint256",
          "name": "",
          "type": "uint256"
        }
      ],
      "name": "policies",
      "outputs": [
        {
          "internalType": "enum RoleToken.Role",
          "name": "role",
          "type": "uint8"
        },
        {
          "internalType": "string",
          "name": "resource",
          "type": "string"
        },
        {
          "internalType": "string",
          "name": "action",
          "type": "string"
        },
        {
          "internalType": "string",
          "name": "permission",
          "type": "string"
        },
        {
          "internalType": "uint256",
          "name": "timeOfLastRequest",
          "type": "uint256"
        }
      ],
      "stateMutability": "view",
      "type": "function"
    },
    {
      "inputs": [
        {
          "internalType": "enum RoleToken.Role",
          "name": "role",
          "type": "uint8"
        },
        {
          "internalType": "string",
          "name": "resource",
          "type": "string"
        },
        {
          "internalType": "string",
          "name": "action",
          "type": "string"
        },
        {
          "internalType": "string",
          "name": "permission",
          "type": "string"
        }
      ],
      "name": "policyAdd",
      "outputs": [],
      "stateMutability": "nonpayable",
      "type": "function"
    },
    {
      "inputs": [
        {
          "internalType": "uint256",
          "name": "policyId",
          "type": "uint256"
        }
      ],
      "name": "policyDelete",
      "outputs": [],
      "stateMutability": "nonpayable",
      "type": "function"
    },
    {
      "inputs": [
        {
          "internalType": "uint256",
          "name": "policyId",
          "type": "uint256"
        },
        {
          "internalType": "enum RoleToken.Role",
          "name": "role",
          "type": "uint8"
        },
        {
          "internalType": "string",
          "name": "resource",
          "type": "string"
        },
        {
          "internalType": "string",
          "name": "action",
          "type": "string"
        },
        {
          "internalType": "string",
          "name": "permission",
          "type": "string"
        }
      ],
      "name": "policyUpdate",
      "outputs": [],
      "stateMutability": "nonpayable",
      "type": "function"
    },
    {
      "inputs": [],
      "name": "roleBasedContract",
      "outputs": [
        {
          "internalType": "contract RoleBasedAccessControl",
          "name": "",
          "type": "address"
        }
      ],
      "stateMutability": "view",
      "type": "function"
    },
    {
      "inputs": [
        {
          "internalType": "address",
          "name": "_judgeContract",
          "type": "address"
        }
      ],
      "name": "setJudgeContract",
      "outputs": [],
      "stateMutability": "nonpayable",
      "type": "function"
    },
    {
      "inputs": [],
      "name": "subjectAddress",
      "outputs": [
        {
          "internalType": "address",
          "name": "",
          "type": "address"
        }
      ],
      "stateMutability": "view",
      "type": "function"
    },
    {
      "inputs": [],
      "name": "threshold",
      "outputs": [
        {
          "internalType": "uint256",
          "name": "",
          "type": "uint256"
        }
      ],
      "stateMutability": "view",
      "type": "function"
    }
  ],
  "bytecode": "0x6080604052603c6003556001600460006101000a81548160ff021916908315150217905550620151806008553480156200003857600080fd5b50604051620042ce380380620042ce83398181016040528101906200005e919062000377565b81600260006101000a81548173ffffffffffffffffffffffffffffffffffffffff021916908373ffffffffffffffffffffffffffffffffffffffff16021790555084600460016101000a81548173ffffffffffffffffffffffffffffffffffffffff021916908373ffffffffffffffffffffffffffffffffffffffff16021790555083600560006101000a81548173ffffffffffffffffffffffffffffffffffffffff021916908373ffffffffffffffffffffffffffffffffffffffff160217905550826006908162000132919062000669565b5080600760006101000a81548173ffffffffffffffffffffffffffffffffffffffff021916908373ffffffffffffffffffffffffffffffffffffffff160217905550505050505062000750565b6000604051905090565b600080fd5b600080fd5b600073ffffffffffffffffffffffffffffffffffffffff82169050919050565b6000620001c08262000193565b9050919050565b620001d281620001b3565b8114620001de57600080fd5b50565b600081519050620001f281620001c7565b92915050565b600080fd5b600080fd5b6000601f19601f8301169050919050565b7f4e487b7100000000000000000000000000000000000000000000000000000000600052604160045260246000fd5b6200024d8262000202565b810181811067ffffffffffffffff821117156200026f576200026e62000213565b5b80604052505050565b6000620002846200017f565b905062000292828262000242565b919050565b600067ffffffffffffffff821115620002b557620002b462000213565b5b620002c08262000202565b9050602081019050919050565b60005b83811015620002ed578082015181840152602081019050620002d0565b60008484015250505050565b6000620003106200030a8462000297565b62000278565b9050828152602081018484840111156200032f576200032e620001fd565b5b6200033c848285620002cd565b509392505050565b600082601f8301126200035c576200035b620001f8565b5b81516200036e848260208601620002f9565b91505092915050565b600080600080600060a0868803121562000396576200039562000189565b5b6000620003a688828901620001e1565b9550506020620003b988828901620001e1565b945050604086015167ffffffffffffffff811115620003dd57620003dc6200018e565b5b620003eb8882890162000344565b9350506060620003fe88828901620001e1565b92505060806200041188828901620001e1565b9150509295509295909350565b600081519050919050565b7f4e487b7100000000000000000000000000000000000000000000000000000000600052602260045260246000fd5b600060028204905060018216806200047157607f821691505b60208210810362000487576200048662000429565b5b50919050565b60008190508160005260206000209050919050565b60006020601f8301049050919050565b600082821b905092915050565b600060088302620004f17fffffffffffffffffffffffffffffffffffffffffffffffffffffffffffffffff82620004b2565b620004fd8683620004b2565b95508019841693508086168417925050509392505050565b6000819050919050565b6000819050919050565b60006200054a620005446200053e8462000515565b6200051f565b62000515565b9050919050565b6000819050919050565b620005668362000529565b6200057e620005758262000551565b848454620004bf565b825550505050565b600090565b6200059562000586565b620005a28184846200055b565b505050565b5b81811015620005ca57620005be6000826200058b565b600181019050620005a8565b5050565b601f8211156200061957620005e3816200048d565b620005ee84620004a2565b81016020851015620005fe578190505b620006166200060d85620004a2565b830182620005a7565b50505b505050565b600082821c905092915050565b60006200063e600019846008026200061e565b1980831691505092915050565b60006200065983836200062b565b9150826002028217905092915050565b62000674826200041e565b67ffffffffffffffff81111562000690576200068f62000213565b5b6200069c825462000458565b620006a9828285620005ce565b600060209050601f831160018114620006e15760008415620006cc578287015190505b620006d885826200064b565b86555062000748565b601f198416620006f1866200048d565b60005b828110156200071b57848901518255600182019150602085019450602081019050620006f4565b868310156200073b578489015162000737601f8916826200062b565b8355505b6001600288020188555050505b505050505050565b613b6e80620007606000396000f3fe608060405234801561001057600080fd5b50600436106101165760003560e01c806358dbc45d116100a2578063a51b713611610071578063a51b71361461029a578063bca353be146102b8578063d3e89483146102c2578063d6b683fc146102f6578063f03d96d01461031457610116565b806358dbc45d146102385780636391b4881461025657806378f47501146102725780638fda356d1461029057610116565b806322f3e2d4116100e957806322f3e2d4146101a3578063235fd7e2146101c157806342cde4e8146101dd57806348d33ef2146101fb578063557ed1ba1461021957610116565b806302d05d3f1461011b5780630d9f7ed4146101395780631073d7c1146101555780631e3b70b414610185575b600080fd5b610123610330565b604051610130919061286e565b60405180910390f35b610153600480360381019061014e9190612a3e565b610356565b005b61016f600480360381019061016a9190612b0d565b6107b8565b60405161017c9190612ba0565b60405180910390f35b61018d611567565b60405161019a9190612c3a565b60405180910390f35b6101ab6115f5565b6040516101b89190612ba0565b60405180910390f35b6101db60048036038101906101d69190612c5c565b611608565b005b6101e56119eb565b6040516101f29190612c98565b60405180910390f35b6102036119f1565b6040516102109190612c98565b60405180910390f35b6102216119f7565b60405161022f929190612cb3565b60405180910390f35b610240611ab5565b60405161024d919061286e565b60405180910390f35b610270600480360381019061026b9190612cdc565b611adb565b005b61027a611f0e565b604051610287919061286e565b60405180910390f35b610298611f34565b005b6102a2612229565b6040516102af9190612df6565b60405180910390f35b6102c061224f565b005b6102dc60048036038101906102d79190612c5c565b612544565b6040516102ed959493929190612e88565b60405180910390f35b6102fe61272f565b60405161030b9190612f11565b60405180910390f35b61032e60048036038101906103299190612f58565b612755565b005b600760009054906101000a900473ffffffffffffffffffffffffffffffffffffffff1681565b600460009054906101000a900460ff166103a5576040517f08c379a000000000000000000000000000000000000000000000000000000000815260040161039c90612fd1565b60405180910390fd5b6000600160009054906101000a900473ffffffffffffffffffffffffffffffffffffffff1673ffffffffffffffffffffffffffffffffffffffff16630e104278336040518263ffffffff1660e01b8152600401610402919061286e565b602060405180830381865afa15801561041f573d6000803e3d6000fd5b505050506040513d601f19601f820116820180604052508101906104439190613006565b9050804211610487576040517f08c379a000000000000000000000000000000000000000000000000000000000815260040161047e906130a5565b60405180910390fd5b6040518060400160405280601b81526020017f556e617574686f72697a65642061636365737320617474656d70740000000000815250600760009054906101000a900473ffffffffffffffffffffffffffffffffffffffff1673ffffffffffffffffffffffffffffffffffffffff163373ffffffffffffffffffffffffffffffffffffffff161461064f576000806000600160009054906101000a900473ffffffffffffffffffffffffffffffffffffffff1673ffffffffffffffffffffffffffffffffffffffff1663c4df01ce33866040518363ffffffff1660e01b81526004016105749291906130c5565b6000604051808303816000875af1158015610593573d6000803e3d6000fd5b505050506040513d6000823e3d601f19601f820116820180604052508101906105bc9190613165565b9250925092503373ffffffffffffffffffffffffffffffffffffffff167f3fc8de32d0ff2767d320c8c52fd3ab1a29ddf9484b23575845d542369bdfa37f84848460405161060c939291906131d4565b60405180910390a26040517f08c379a000000000000000000000000000000000000000000000000000000000815260040161064690613284565b60405180910390fd5b6000805490508710610696576040517f08c379a000000000000000000000000000000000000000000000000000000000815260040161068d906132f0565b60405180910390fd5b6040518060a001604052808760048111156106b4576106b3612e11565b5b81526020018681526020018581526020018481526020016000815250600088815481106106e4576106e3613310565b5b906000526020600020906005020160008201518160000160006101000a81548160ff0219169083600481111561071d5761071c612e11565b5b021790555060208201518160010190816107379190613541565b50604082015181600201908161074d9190613541565b5060608201518160030190816107639190613541565b5060808201518160040155905050867f4a878bb267cedaa636258d749db7a5ac8f0cc2338419d6b0429443d8a11d5470878787876040516107a79493929190613613565b60405180910390a250505050505050565b6000600460009054906101000a900460ff16610809576040517f08c379a000000000000000000000000000000000000000000000000000000000815260040161080090612fd1565b60405180910390fd5b6000600160009054906101000a900473ffffffffffffffffffffffffffffffffffffffff1673ffffffffffffffffffffffffffffffffffffffff16630e104278336040518263ffffffff1660e01b8152600401610866919061286e565b602060405180830381865afa158015610883573d6000803e3d6000fd5b505050506040513d601f19601f820116820180604052508101906108a79190613006565b90508042116108eb576040517f08c379a00000000000000000000000000000000000000000000000000000000081526004016108e2906130a5565b60405180910390fd5b3373ffffffffffffffffffffffffffffffffffffffff16600460019054906101000a900473ffffffffffffffffffffffffffffffffffffffff1673ffffffffffffffffffffffffffffffffffffffff161461097b576040517f08c379a0000000000000000000000000000000000000000000000000000000008152600401610972906136b9565b60405180910390fd5b6000600260009054906101000a900473ffffffffffffffffffffffffffffffffffffffff1673ffffffffffffffffffffffffffffffffffffffff166344276733336040518263ffffffff1660e01b81526004016109d8919061286e565b602060405180830381865afa1580156109f5573d6000803e3d6000fd5b505050506040513d601f19601f82011682018060405250810190610a1991906136ee565b905060005b60008054905081101561123157816004811115610a3e57610a3d612e11565b5b60008281548110610a5257610a51613310565b5b906000526020600020906005020160000160009054906101000a900460ff166004811115610a8357610a82612e11565b5b148015610acf5750858051906020012060008281548110610aa757610aa6613310565b5b9060005260206000209060050201600101604051610ac591906137be565b6040518091039020145b8015610b1a5750848051906020012060008281548110610af257610af1613310565b5b9060005260206000209060050201600201604051610b1091906137be565b6040518091039020145b1561121e5760035460008281548110610b3657610b35613310565b5b906000526020600020906005020160040154610b529190613804565b421015610c89576000806000600160009054906101000a900473ffffffffffffffffffffffffffffffffffffffff1673ffffffffffffffffffffffffffffffffffffffff1663c4df01ce336040518263ffffffff1660e01b8152600401610bb99190613884565b6000604051808303816000875af1158015610bd8573d6000803e3d6000fd5b505050506040513d6000823e3d601f19601f82011682018060405250810190610c019190613165565b925092509250600460019054906101000a900473ffffffffffffffffffffffffffffffffffffffff1673ffffffffffffffffffffffffffffffffffffffff167f3fc8de32d0ff2767d320c8c52fd3ab1a29ddf9484b23575845d542369bdfa37f848484604051610c73939291906131d4565b60405180910390a2600096505050505050611560565b4260008281548110610c9e57610c9d613310565b5b906000526020600020906005020160040181905550600460019054906101000a900473ffffffffffffffffffffffffffffffffffffffff1673ffffffffffffffffffffffffffffffffffffffff167f5003ba6da275d66409e57db43f48416fff9168f7954c0da01fb2ffb3112c45a88388886040518060400160405280600581526020017f616c6c6f770000000000000000000000000000000000000000000000000000008152508051906020012060008781548110610d6157610d60613310565b5b9060005260206000209060050201600301604051610d7f91906137be565b604051809103902014604051610d9894939291906138b2565b60405180910390a260006040518060400160405280600581526020017f616c6c6f770000000000000000000000000000000000000000000000000000008152508051906020012060008381548110610df357610df2613310565b5b9060005260206000209060050201600301604051610e1191906137be565b60405180910390201490508015610f2357600080600160009054906101000a900473ffffffffffffffffffffffffffffffffffffffff1673ffffffffffffffffffffffffffffffffffffffff16631e349d1c336040518263ffffffff1660e01b8152600401610e80919061286e565b6000604051808303816000875af1158015610e9f573d6000803e3d6000fd5b505050506040513d6000823e3d601f19601f82011682018060405250810190610ec89190613905565b915091503373ffffffffffffffffffffffffffffffffffffffff167f99160c89fdccb67e1961cf554a10fffb3dbbb7b2cd44a817f2aac33deb57d9d78383604051610f14929190613961565b60405180910390a25050611213565b6040518060400160405280600481526020017f65646974000000000000000000000000000000000000000000000000000000008152508051906020012086805190602001201480610fb657506040518060400160405280600681526020017f64656c6574650000000000000000000000000000000000000000000000000000815250805190602001208680519060200120145b156110c3576000806000600160009054906101000a900473ffffffffffffffffffffffffffffffffffffffff1673ffffffffffffffffffffffffffffffffffffffff1663c4df01ce336040518263ffffffff1660e01b815260040161101b91906139dd565b6000604051808303816000875af115801561103a573d6000803e3d6000fd5b505050506040513d6000823e3d601f19601f820116820180604052508101906110639190613165565b9250925092503373ffffffffffffffffffffffffffffffffffffffff167f3fc8de32d0ff2767d320c8c52fd3ab1a29ddf9484b23575845d542369bdfa37f8484846040516110b3939291906131d4565b60405180910390a2505050611212565b6040518060400160405280600481526020017f766965770000000000000000000000000000000000000000000000000000000081525080519060200120868051906020012003611211576000806000600160009054906101000a900473ffffffffffffffffffffffffffffffffffffffff1673ffffffffffffffffffffffffffffffffffffffff1663c4df01ce336040518263ffffffff1660e01b815260040161116d9190613a57565b6000604051808303816000875af115801561118c573d6000803e3d6000fd5b505050506040513d6000823e3d601f19601f820116820180604052508101906111b59190613165565b9250925092503373ffffffffffffffffffffffffffffffffffffffff167f3fc8de32d0ff2767d320c8c52fd3ab1a29ddf9484b23575845d542369bdfa37f848484604051611205939291906131d4565b60405180910390a25050505b5b5b809450505050611560565b808061122990613a85565b915050610a1e565b506040518060400160405280600481526020017f656469740000000000000000000000000000000000000000000000000000000081525080519060200120848051906020012014806112c557506040518060400160405280600681526020017f64656c6574650000000000000000000000000000000000000000000000000000815250805190602001208480519060200120145b156113d2576000806000600160009054906101000a900473ffffffffffffffffffffffffffffffffffffffff1673ffffffffffffffffffffffffffffffffffffffff1663c4df01ce336040518263ffffffff1660e01b815260040161132a91906139dd565b6000604051808303816000875af1158015611349573d6000803e3d6000fd5b505050506040513d6000823e3d601f19601f820116820180604052508101906113729190613165565b9250925092503373ffffffffffffffffffffffffffffffffffffffff167f3fc8de32d0ff2767d320c8c52fd3ab1a29ddf9484b23575845d542369bdfa37f8484846040516113c2939291906131d4565b60405180910390a2505050611521565b6040518060400160405280600481526020017f766965770000000000000000000000000000000000000000000000000000000081525080519060200120848051906020012003611520576000806000600160009054906101000a900473ffffffffffffffffffffffffffffffffffffffff1673ffffffffffffffffffffffffffffffffffffffff1663c4df01ce336040518263ffffffff1660e01b815260040161147c9190613a57565b6000604051808303816000875af115801561149b573d6000803e3d6000fd5b505050506040513d6000823e3d601f19601f820116820180604052508101906114c49190613165565b9250925092503373ffffffffffffffffffffffffffffffffffffffff167f3fc8de32d0ff2767d320c8c52fd3ab1a29ddf9484b23575845d542369bdfa37f848484604051611514939291906131d4565b60405180910390a25050505b5b7f38df3a8dddf6ef31501df5a214b30fe934ac5f4ed0cd1b5bc31f44752486c6ac8585604051611552929190613acd565b60405180910390a160009250505b5092915050565b600680546115749061336e565b80601f01602080910402602001604051908101604052809291908181526020018280546115a09061336e565b80156115ed5780601f106115c2576101008083540402835291602001916115ed565b820191906000526020600020905b8154815290600101906020018083116115d057829003601f168201915b505050505081565b600460009054906101000a900460ff1681565b600460009054906101000a900460ff16611657576040517f08c379a000000000000000000000000000000000000000000000000000000000815260040161164e90612fd1565b60405180910390fd5b6000600160009054906101000a900473ffffffffffffffffffffffffffffffffffffffff1673ffffffffffffffffffffffffffffffffffffffff16630e104278336040518263ffffffff1660e01b81526004016116b4919061286e565b602060405180830381865afa1580156116d1573d6000803e3d6000fd5b505050506040513d601f19601f820116820180604052508101906116f59190613006565b9050804211611739576040517f08c379a0000000000000000000000000000000000000000000000000000000008152600401611730906130a5565b60405180910390fd5b6040518060400160405280601b81526020017f556e617574686f72697a65642061636365737320617474656d70740000000000815250600760009054906101000a900473ffffffffffffffffffffffffffffffffffffffff1673ffffffffffffffffffffffffffffffffffffffff163373ffffffffffffffffffffffffffffffffffffffff1614611901576000806000600160009054906101000a900473ffffffffffffffffffffffffffffffffffffffff1673ffffffffffffffffffffffffffffffffffffffff1663c4df01ce33866040518363ffffffff1660e01b81526004016118269291906130c5565b6000604051808303816000875af1158015611845573d6000803e3d6000fd5b505050506040513d6000823e3d601f19601f8201168201806040525081019061186e9190613165565b9250925092503373ffffffffffffffffffffffffffffffffffffffff167f3fc8de32d0ff2767d320c8c52fd3ab1a29ddf9484b23575845d542369bdfa37f8484846040516118be939291906131d4565b60405180910390a26040517f08c379a00000000000000000000000000000000000000000000000000000000081526004016118f890613284565b60405180910390fd5b6000805490508310611948576040517f08c379a000000000000000000000000000000000000000000000000000000000815260040161193f906132f0565b60405180910390fd5b6000838154811061195c5761195b613310565b5b9060005260206000209060050201600080820160006101000a81549060ff021916905560018201600061198f91906127d0565b60028201600061199f91906127d0565b6003820160006119af91906127d0565b60048201600090555050827f433ab09ab993382af577c4a70f77dcc7cf149b5b52eb40d19b869664bfb5496d60405160405180910390a2505050565b60035481565b60085481565b6000806000600160009054906101000a900473ffffffffffffffffffffffffffffffffffffffff1673ffffffffffffffffffffffffffffffffffffffff16630e104278336040518263ffffffff1660e01b8152600401611a57919061286e565b602060405180830381865afa158015611a74573d6000803e3d6000fd5b505050506040513d601f19601f82011682018060405250810190611a989190613006565b9050600081421015611aa957600190505b81819350935050509091565b600460019054906101000a900473ffffffffffffffffffffffffffffffffffffffff1681565b600460009054906101000a900460ff16611b2a576040517f08c379a0000000000000000000000000000000000000000000000000000000008152600401611b2190612fd1565b60405180910390fd5b6000600160009054906101000a900473ffffffffffffffffffffffffffffffffffffffff1673ffffffffffffffffffffffffffffffffffffffff16630e104278336040518263ffffffff1660e01b8152600401611b87919061286e565b602060405180830381865afa158015611ba4573d6000803e3d6000fd5b505050506040513d601f19601f82011682018060405250810190611bc89190613006565b9050804211611c0c576040517f08c379a0000000000000000000000000000000000000000000000000000000008152600401611c03906130a5565b60405180910390fd5b6040518060400160405280601b81526020017f556e617574686f72697a65642061636365737320617474656d70740000000000815250600760009054906101000a900473ffffffffffffffffffffffffffffffffffffffff1673ffffffffffffffffffffffffffffffffffffffff163373ffffffffffffffffffffffffffffffffffffffff1614611dd4576000806000600160009054906101000a900473ffffffffffffffffffffffffffffffffffffffff1673ffffffffffffffffffffffffffffffffffffffff1663c4df01ce33866040518363ffffffff1660e01b8152600401611cf99291906130c5565b6000604051808303816000875af1158015611d18573d6000803e3d6000fd5b505050506040513d6000823e3d601f19601f82011682018060405250810190611d419190613165565b9250925092503373ffffffffffffffffffffffffffffffffffffffff167f3fc8de32d0ff2767d320c8c52fd3ab1a29ddf9484b23575845d542369bdfa37f848484604051611d91939291906131d4565b60405180910390a26040517f08c379a0000000000000000000000000000000000000000000000000000000008152600401611dcb90613284565b60405180910390fd5b60006040518060a00160405280886004811115611df457611df3612e11565b5b81526020018781526020018681526020018581526020016000815250908060018154018082558091505060019003906000526020600020906005020160009091909190915060008201518160000160006101000a81548160ff02191690836004811115611e6457611e63612e11565b5b02179055506020820151816001019081611e7e9190613541565b506040820151816002019081611e949190613541565b506060820151816003019081611eaa9190613541565b506080820151816004015550506001600080549050611ec99190613b04565b7fb90b27d205996a6ce127fc2f1bfbad17d5d8270e9a27ebb35037f2d67853b6cf87878787604051611efe9493929190613613565b60405180910390a2505050505050565b600560009054906101000a900473ffffffffffffffffffffffffffffffffffffffff1681565b6000600160009054906101000a900473ffffffffffffffffffffffffffffffffffffffff1673ffffffffffffffffffffffffffffffffffffffff16630e104278336040518263ffffffff1660e01b8152600401611f91919061286e565b602060405180830381865afa158015611fae573d6000803e3d6000fd5b505050506040513d601f19601f82011682018060405250810190611fd29190613006565b9050804211612016576040517f08c379a000000000000000000000000000000000000000000000000000000000815260040161200d906130a5565b60405180910390fd5b6040518060400160405280601181526020017f44656e69616c206f662053657276696365000000000000000000000000000000815250600760009054906101000a900473ffffffffffffffffffffffffffffffffffffffff1673ffffffffffffffffffffffffffffffffffffffff163373ffffffffffffffffffffffffffffffffffffffff16146121de576000806000600160009054906101000a900473ffffffffffffffffffffffffffffffffffffffff1673ffffffffffffffffffffffffffffffffffffffff1663c4df01ce33866040518363ffffffff1660e01b81526004016121039291906130c5565b6000604051808303816000875af1158015612122573d6000803e3d6000fd5b505050506040513d6000823e3d601f19601f8201168201806040525081019061214b9190613165565b9250925092503373ffffffffffffffffffffffffffffffffffffffff167f3fc8de32d0ff2767d320c8c52fd3ab1a29ddf9484b23575845d542369bdfa37f84848460405161219b939291906131d4565b60405180910390a26040517f08c379a00000000000000000000000000000000000000000000000000000000081526004016121d590613284565b60405180910390fd5b6000600460006101000a81548160ff0219169083151502179055507f8c8771d60e1ae6b90556d35dc2f79a3190d6b4088c05d7ca8cabbb9e9061f3e560405160405180910390a15050565b600260009054906101000a900473ffffffffffffffffffffffffffffffffffffffff1681565b6000600160009054906101000a900473ffffffffffffffffffffffffffffffffffffffff1673ffffffffffffffffffffffffffffffffffffffff16630e104278336040518263ffffffff1660e01b81526004016122ac919061286e565b602060405180830381865afa1580156122c9573d6000803e3d6000fd5b505050506040513d601f19601f820116820180604052508101906122ed9190613006565b9050804211612331576040517f08c379a0000000000000000000000000000000000000000000000000000000008152600401612328906130a5565b60405180910390fd5b6040518060400160405280601181526020017f44656e69616c206f662053657276696365000000000000000000000000000000815250600760009054906101000a900473ffffffffffffffffffffffffffffffffffffffff1673ffffffffffffffffffffffffffffffffffffffff163373ffffffffffffffffffffffffffffffffffffffff16146124f9576000806000600160009054906101000a900473ffffffffffffffffffffffffffffffffffffffff1673ffffffffffffffffffffffffffffffffffffffff1663c4df01ce33866040518363ffffffff1660e01b815260040161241e9291906130c5565b6000604051808303816000875af115801561243d573d6000803e3d6000fd5b505050506040513d6000823e3d601f19601f820116820180604052508101906124669190613165565b9250925092503373ffffffffffffffffffffffffffffffffffffffff167f3fc8de32d0ff2767d320c8c52fd3ab1a29ddf9484b23575845d542369bdfa37f8484846040516124b6939291906131d4565b60405180910390a26040517f08c379a00000000000000000000000000000000000000000000000000000000081526004016124f090613284565b60405180910390fd5b6000600460006101000a81548160ff0219169083151502179055507f8c8771d60e1ae6b90556d35dc2f79a3190d6b4088c05d7ca8cabbb9e9061f3e560405160405180910390a15050565b6000818154811061255457600080fd5b90600052602060002090600502016000915090508060000160009054906101000a900460ff169080600101805461258a9061336e565b80601f01602080910402602001604051908101604052809291908181526020018280546125b69061336e565b80156126035780601f106125d857610100808354040283529160200191612603565b820191906000526020600020905b8154815290600101906020018083116125e657829003601f168201915b5050505050908060020180546126189061336e565b80601f01602080910402602001604051908101604052809291908181526020018280546126449061336e565b80156126915780601f1061266657610100808354040283529160200191612691565b820191906000526020600020905b81548152906001019060200180831161267457829003601f168201915b5050505050908060030180546126a69061336e565b80601f01602080910402602001604051908101604052809291908181526020018280546126d29061336e565b801561271f5780601f106126f45761010080835404028352916020019161271f565b820191906000526020600020905b81548152906001019060200180831161270257829003601f168201915b5050505050908060040154905085565b600160009054906101000a900473ffffffffffffffffffffffffffffffffffffffff1681565b80600160006101000a81548173ffffffffffffffffffffffffffffffffffffffff021916908373ffffffffffffffffffffffffffffffffffffffff1602179055507f60aef7237739f69cdef5dd8e8f90780ef1f3f6d76024d66e168102d04e88b5f4816040516127c5919061286e565b60405180910390a150565b5080546127dc9061336e565b6000825580601f106127ee575061280d565b601f01602090049060005260206000209081019061280c9190612810565b5b50565b5b80821115612829576000816000905550600101612811565b5090565b600073ffffffffffffffffffffffffffffffffffffffff82169050919050565b60006128588261282d565b9050919050565b6128688161284d565b82525050565b6000602082019050612883600083018461285f565b92915050565b6000604051905090565b600080fd5b600080fd5b6000819050919050565b6128b08161289d565b81146128bb57600080fd5b50565b6000813590506128cd816128a7565b92915050565b600581106128e057600080fd5b50565b6000813590506128f2816128d3565b92915050565b600080fd5b600080fd5b6000601f19601f8301169050919050565b7f4e487b7100000000000000000000000000000000000000000000000000000000600052604160045260246000fd5b61294b82612902565b810181811067ffffffffffffffff8211171561296a57612969612913565b5b80604052505050565b600061297d612889565b90506129898282612942565b919050565b600067ffffffffffffffff8211156129a9576129a8612913565b5b6129b282612902565b9050602081019050919050565b82818337600083830152505050565b60006129e16129dc8461298e565b612973565b9050828152602081018484840111156129fd576129fc6128fd565b5b612a088482856129bf565b509392505050565b600082601f830112612a2557612a246128f8565b5b8135612a358482602086016129ce565b91505092915050565b600080600080600060a08688031215612a5a57612a59612893565b5b6000612a68888289016128be565b9550506020612a79888289016128e3565b945050604086013567ffffffffffffffff811115612a9a57612a99612898565b5b612aa688828901612a10565b935050606086013567ffffffffffffffff811115612ac757612ac6612898565b5b612ad388828901612a10565b925050608086013567ffffffffffffffff811115612af457612af3612898565b5b612b0088828901612a10565b9150509295509295909350565b60008060408385031215612b2457612b23612893565b5b600083013567ffffffffffffffff811115612b4257612b41612898565b5b612b4e85828601612a10565b925050602083013567ffffffffffffffff811115612b6f57612b6e612898565b5b612b7b85828601612a10565b9150509250929050565b60008115159050919050565b612b9a81612b85565b82525050565b6000602082019050612bb56000830184612b91565b92915050565b600081519050919050565b600082825260208201905092915050565b60005b83811015612bf5578082015181840152602081019050612bda565b60008484015250505050565b6000612c0c82612bbb565b612c168185612bc6565b9350612c26818560208601612bd7565b612c2f81612902565b840191505092915050565b60006020820190508181036000830152612c548184612c01565b905092915050565b600060208284031215612c7257612c71612893565b5b6000612c80848285016128be565b91505092915050565b612c928161289d565b82525050565b6000602082019050612cad6000830184612c89565b92915050565b6000604082019050612cc86000830185612c89565b612cd56020830184612b91565b9392505050565b60008060008060808587031215612cf657612cf5612893565b5b6000612d04878288016128e3565b945050602085013567ffffffffffffffff811115612d2557612d24612898565b5b612d3187828801612a10565b935050604085013567ffffffffffffffff811115612d5257612d51612898565b5b612d5e87828801612a10565b925050606085013567ffffffffffffffff811115612d7f57612d7e612898565b5b612d8b87828801612a10565b91505092959194509250565b6000819050919050565b6000612dbc612db7612db28461282d565b612d97565b61282d565b9050919050565b6000612dce82612da1565b9050919050565b6000612de082612dc3565b9050919050565b612df081612dd5565b82525050565b6000602082019050612e0b6000830184612de7565b92915050565b7f4e487b7100000000000000000000000000000000000000000000000000000000600052602160045260246000fd5b60058110612e5157612e50612e11565b5b50565b6000819050612e6282612e40565b919050565b6000612e7282612e54565b9050919050565b612e8281612e67565b82525050565b600060a082019050612e9d6000830188612e79565b8181036020830152612eaf8187612c01565b90508181036040830152612ec38186612c01565b90508181036060830152612ed78185612c01565b9050612ee66080830184612c89565b9695505050505050565b6000612efb82612dc3565b9050919050565b612f0b81612ef0565b82525050565b6000602082019050612f266000830184612f02565b92915050565b612f358161284d565b8114612f4057600080fd5b50565b600081359050612f5281612f2c565b92915050565b600060208284031215612f6e57612f6d612893565b5b6000612f7c84828501612f43565b91505092915050565b7f436f6e7472616374206973206e6f742061637469766500000000000000000000600082015250565b6000612fbb601683612bc6565b9150612fc682612f85565b602082019050919050565b60006020820190508181036000830152612fea81612fae565b9050919050565b600081519050613000816128a7565b92915050565b60006020828403121561301c5761301b612893565b5b600061302a84828501612ff1565b91505092915050565b7f416363657373436f6e74726f6c436f6e74726163743a204d656d62657220697360008201527f20626c6f636b6564000000000000000000000000000000000000000000000000602082015250565b600061308f602883612bc6565b915061309a82613033565b604082019050919050565b600060208201905081810360008301526130be81613082565b9050919050565b60006040820190506130da600083018561285f565b81810360208301526130ec8184612c01565b90509392505050565b60006131086131038461298e565b612973565b905082815260208101848484011115613124576131236128fd565b5b61312f848285612bd7565b509392505050565b600082601f83011261314c5761314b6128f8565b5b815161315c8482602086016130f5565b91505092915050565b60008060006060848603121561317e5761317d612893565b5b600061318c86828701612ff1565b935050602084015167ffffffffffffffff8111156131ad576131ac612898565b5b6131b986828701613137565b92505060406131ca86828701612ff1565b9150509250925092565b60006060820190506131e96000830186612c89565b81810360208301526131fb8185612c01565b905061320a6040830184612c89565b949350505050565b7f416363657373436f6e74726f6c436f6e74726163743a2063616c6c657220697360008201527f206e6f74207468652063726561746f7200000000000000000000000000000000602082015250565b600061326e603083612bc6565b915061327982613212565b604082019050919050565b6000602082019050818103600083015261329d81613261565b9050919050565b7f506f6c69637920646f6573206e6f742065786973740000000000000000000000600082015250565b60006132da601583612bc6565b91506132e5826132a4565b602082019050919050565b60006020820190508181036000830152613309816132cd565b9050919050565b7f4e487b7100000000000000000000000000000000000000000000000000000000600052603260045260246000fd5b7f4e487b7100000000000000000000000000000000000000000000000000000000600052602260045260246000fd5b6000600282049050600182168061338657607f821691505b6020821081036133995761339861333f565b5b50919050565b60008190508160005260206000209050919050565b60006020601f8301049050919050565b600082821b905092915050565b6000600883026134017fffffffffffffffffffffffffffffffffffffffffffffffffffffffffffffffff826133c4565b61340b86836133c4565b95508019841693508086168417925050509392505050565b600061343e6134396134348461289d565b612d97565b61289d565b9050919050565b6000819050919050565b61345883613423565b61346c61346482613445565b8484546133d1565b825550505050565b600090565b613481613474565b61348c81848461344f565b505050565b5b818110156134b0576134a5600082613479565b600181019050613492565b5050565b601f8211156134f5576134c68161339f565b6134cf846133b4565b810160208510156134de578190505b6134f26134ea856133b4565b830182613491565b50505b505050565b600082821c905092915050565b6000613518600019846008026134fa565b1980831691505092915050565b60006135318383613507565b9150826002028217905092915050565b61354a82612bbb565b67ffffffffffffffff81111561356357613562612913565b5b61356d825461336e565b6135788282856134b4565b600060209050601f8311600181146135ab5760008415613599578287015190505b6135a38582613525565b86555061360b565b601f1984166135b98661339f565b60005b828110156135e1578489015182556001820191506020850194506020810190506135bc565b868310156135fe57848901516135fa601f891682613507565b8355505b6001600288020188555050505b505050505050565b60006080820190506136286000830187612e79565b818103602083015261363a8186612c01565b9050818103604083015261364e8185612c01565b905081810360608301526136628184612c01565b905095945050505050565b7f43616c6c6572206973206e6f74207375626a6563740000000000000000000000600082015250565b60006136a3601583612bc6565b91506136ae8261366d565b602082019050919050565b600060208201905081810360008301526136d281613696565b9050919050565b6000815190506136e8816128d3565b92915050565b60006020828403121561370457613703612893565b5b6000613712848285016136d9565b91505092915050565b600081905092915050565b60008190508160005260206000209050919050565b600081546137488161336e565b613752818661371b565b9450600182166000811461376d5760018114613782576137b5565b60ff19831686528115158202860193506137b5565b61378b85613726565b60005b838110156137ad5781548189015260018201915060208101905061378e565b838801955050505b50505092915050565b60006137ca828461373b565b915081905092915050565b7f4e487b7100000000000000000000000000000000000000000000000000000000600052601160045260246000fd5b600061380f8261289d565b915061381a8361289d565b9250828201905080821115613832576138316137d5565b5b92915050565b7f546f6f206672657175656e742061636365737300000000000000000000000000600082015250565b600061386e601383612bc6565b915061387982613838565b602082019050919050565b6000604082019050613899600083018461285f565b81810360208301526138aa81613861565b905092915050565b60006080820190506138c76000830187612e79565b81810360208301526138d98186612c01565b905081810360408301526138ed8185612c01565b90506138fc6060830184612b91565b95945050505050565b6000806040838503121561391c5761391b612893565b5b600061392a85828601612ff1565b925050602083015167ffffffffffffffff81111561394b5761394a612898565b5b61395785828601613137565b9150509250929050565b60006040820190506139766000830185612c89565b81810360208301526139888184612c01565b90509392505050565b7f54616d706572696e672077697468206461746100000000000000000000000000600082015250565b60006139c7601383612bc6565b91506139d282613991565b602082019050919050565b60006040820190506139f2600083018461285f565b8181036020830152613a03816139ba565b905092915050565b7f556e617574686f72697a65642061636365737320617474656d70740000000000600082015250565b6000613a41601b83612bc6565b9150613a4c82613a0b565b602082019050919050565b6000604082019050613a6c600083018461285f565b8181036020830152613a7d81613a34565b905092915050565b6000613a908261289d565b91507fffffffffffffffffffffffffffffffffffffffffffffffffffffffffffffffff8203613ac257613ac16137d5565b5b600182019050919050565b60006040820190508181036000830152613ae78185612c01565b90508181036020830152613afb8184612c01565b90509392505050565b6000613b0f8261289d565b9150613b1a8361289d565b9250828203905081811115613b3257613b316137d5565b5b9291505056fea264697066735822122060999526b93b1b319ef56774765989af69dac11cbe37d4b0d7f3ce3250f5080b64736f6c63430008150033",
  "linkReferences": {},
  "deployedLinkReferences": {}
}