{
	"data": {
		"bytecode": {
			"linkReferences": {},
			"object": "6080604052603c600355600160045f6101000a81548160ff02191690831515021790555062015180600855348015610035575f80fd5b50604051613e9c380380613e9c83398181016040528101906100579190610319565b8160025f6101000a81548173ffffffffffffffffffffffffffffffffffffffff021916908373ffffffffffffffffffffffffffffffffffffffff16021790555084600460016101000a81548173ffffffffffffffffffffffffffffffffffffffff021916908373ffffffffffffffffffffffffffffffffffffffff1602179055508360055f6101000a81548173ffffffffffffffffffffffffffffffffffffffff021916908373ffffffffffffffffffffffffffffffffffffffff160217905550826006908161012791906105b9565b508060075f6101000a81548173ffffffffffffffffffffffffffffffffffffffff021916908373ffffffffffffffffffffffffffffffffffffffff1602179055505050505050610688565b5f604051905090565b5f80fd5b5f80fd5b5f73ffffffffffffffffffffffffffffffffffffffff82169050919050565b5f6101ac82610183565b9050919050565b6101bc816101a2565b81146101c6575f80fd5b50565b5f815190506101d7816101b3565b92915050565b5f80fd5b5f80fd5b5f601f19601f8301169050919050565b7f4e487b71000000000000000000000000000000000000000000000000000000005f52604160045260245ffd5b61022b826101e5565b810181811067ffffffffffffffff8211171561024a576102496101f5565b5b80604052505050565b5f61025c610172565b90506102688282610222565b919050565b5f67ffffffffffffffff821115610287576102866101f5565b5b610290826101e5565b9050602081019050919050565b8281835e5f83830152505050565b5f6102bd6102b88461026d565b610253565b9050828152602081018484840111156102d9576102d86101e1565b5b6102e484828561029d565b509392505050565b5f82601f830112610300576102ff6101dd565b5b81516103108482602086016102ab565b91505092915050565b5f805f805f60a086880312156103325761033161017b565b5b5f61033f888289016101c9565b9550506020610350888289016101c9565b945050604086015167ffffffffffffffff8111156103715761037061017f565b5b61037d888289016102ec565b935050606061038e888289016101c9565b925050608061039f888289016101c9565b9150509295509295909350565b5f81519050919050565b7f4e487b71000000000000000000000000000000000000000000000000000000005f52602260045260245ffd5b5f60028204905060018216806103fa57607f821691505b60208210810361040d5761040c6103b6565b5b50919050565b5f819050815f5260205f209050919050565b5f6020601f8301049050919050565b5f82821b905092915050565b5f6008830261046f7fffffffffffffffffffffffffffffffffffffffffffffffffffffffffffffffff82610434565b6104798683610434565b95508019841693508086168417925050509392505050565b5f819050919050565b5f819050919050565b5f6104bd6104b86104b384610491565b61049a565b610491565b9050919050565b5f819050919050565b6104d6836104a3565b6104ea6104e2826104c4565b848454610440565b825550505050565b5f90565b6104fe6104f2565b6105098184846104cd565b505050565b5b8181101561052c576105215f826104f6565b60018101905061050f565b5050565b601f8211156105715761054281610413565b61054b84610425565b8101602085101561055a578190505b61056e61056685610425565b83018261050e565b50505b505050565b5f82821c905092915050565b5f6105915f1984600802610576565b1980831691505092915050565b5f6105a98383610582565b9150826002028217905092915050565b6105c2826103ac565b67ffffffffffffffff8111156105db576105da6101f5565b5b6105e582546103e3565b6105f0828285610530565b5f60209050601f831160018114610621575f841561060f578287015190505b610619858261059e565b865550610680565b601f19841661062f86610413565b5f5b8281101561065657848901518255600182019150602085019450602081019050610631565b86831015610673578489015161066f601f891682610582565b8355505b6001600288020188555050505b505050505050565b613807806106955f395ff3fe608060405234801561000f575f80fd5b5060043610610114575f3560e01c806358dbc45d116100a0578063a51b71361161006f578063a51b713614610297578063bca353be146102b5578063d3e89483146102bf578063d6b683fc146102f3578063f03d96d01461031157610114565b806358dbc45d146102355780636391b4881461025357806378f475011461026f5780638fda356d1461028d57610114565b806322f3e2d4116100e757806322f3e2d4146101a0578063235fd7e2146101be57806342cde4e8146101da57806348d33ef2146101f8578063557ed1ba1461021657610114565b806302d05d3f146101185780630d9f7ed4146101365780631073d7c1146101525780631e3b70b414610182575b5f80fd5b61012061032d565b60405161012d9190612692565b60405180910390f35b610150600480360381019061014b919061284e565b610352565b005b61016c60048036038101906101679190612919565b61076c565b60405161017991906129a9565b60405180910390f35b61018a6114c0565b6040516101979190612a22565b60405180910390f35b6101a861154c565b6040516101b591906129a9565b60405180910390f35b6101d860048036038101906101d39190612a42565b61155e565b005b6101e26118f7565b6040516101ef9190612a7c565b60405180910390f35b6102006118fd565b60405161020d9190612a7c565b60405180910390f35b61021e611903565b60405161022c929190612a95565b60405180910390f35b61023d6119bb565b60405161024a9190612692565b60405180910390f35b61026d60048036038101906102689190612abc565b6119e1565b005b610277611dcb565b6040516102849190612692565b60405180910390f35b610295611df0565b005b61029f6120a5565b6040516102ac9190612bcf565b60405180910390f35b6102bd6120ca565b005b6102d960048036038101906102d49190612a42565b61237e565b6040516102ea959493929190612c5b565b60405180910390f35b6102fb61255c565b6040516103089190612ce1565b60405180910390f35b61032b60048036038101906103269190612d24565b612581565b005b60075f9054906101000a900473ffffffffffffffffffffffffffffffffffffffff1681565b60045f9054906101000a900460ff166103a0576040517f08c379a000000000000000000000000000000000000000000000000000000000815260040161039790612d99565b60405180910390fd5b5f60015f9054906101000a900473ffffffffffffffffffffffffffffffffffffffff1673ffffffffffffffffffffffffffffffffffffffff16630e104278336040518263ffffffff1660e01b81526004016103fb9190612692565b602060405180830381865afa158015610416573d5f803e3d5ffd5b505050506040513d601f19601f8201168201806040525081019061043a9190612dcb565b905080421161047e576040517f08c379a000000000000000000000000000000000000000000000000000000000815260040161047590612e66565b60405180910390fd5b6040518060400160405280601b81526020017f556e617574686f72697a65642061636365737320617474656d7074000000000081525060075f9054906101000a900473ffffffffffffffffffffffffffffffffffffffff1673ffffffffffffffffffffffffffffffffffffffff163373ffffffffffffffffffffffffffffffffffffffff161461060a575f805f60015f9054906101000a900473ffffffffffffffffffffffffffffffffffffffff1673ffffffffffffffffffffffffffffffffffffffff1663c4df01ce33866040518363ffffffff1660e01b8152600401610567929190612e84565b5f604051808303815f875af1158015610582573d5f803e3d5ffd5b505050506040513d5f823e3d601f19601f820116820180604052508101906105aa9190612f20565b9250925092503373ffffffffffffffffffffffffffffffffffffffff167f3fc8de32d0ff2767d320c8c52fd3ab1a29ddf9484b23575845d542369bdfa37f8484846040516105fa93929190612f8c565b60405180910390a2505050610763565b5f805490508710610650576040517f08c379a000000000000000000000000000000000000000000000000000000000815260040161064790613012565b60405180910390fd5b6040518060a0016040528087600481111561066e5761066d612be8565b5b81526020018681526020018581526020018481526020015f8152505f888154811061069c5761069b613030565b5b905f5260205f2090600502015f820151815f015f6101000a81548160ff021916908360048111156106d0576106cf612be8565b5b021790555060208201518160010190816106ea919061324e565b506040820151816002019081610700919061324e565b506060820151816003019081610716919061324e565b5060808201518160040155905050867f4a878bb267cedaa636258d749db7a5ac8f0cc2338419d6b0429443d8a11d54708787878760405161075a949392919061331d565b60405180910390a25b50505050505050565b5f60045f9054906101000a900460ff166107bb576040517f08c379a00000000000000000000000000000000000000000000000000000000081526004016107b290612d99565b60405180910390fd5b5f60015f9054906101000a900473ffffffffffffffffffffffffffffffffffffffff1673ffffffffffffffffffffffffffffffffffffffff16630e104278336040518263ffffffff1660e01b81526004016108169190612692565b602060405180830381865afa158015610831573d5f803e3d5ffd5b505050506040513d601f19601f820116820180604052508101906108559190612dcb565b9050804211610899576040517f08c379a000000000000000000000000000000000000000000000000000000000815260040161089090612e66565b60405180910390fd5b3373ffffffffffffffffffffffffffffffffffffffff16600460019054906101000a900473ffffffffffffffffffffffffffffffffffffffff1673ffffffffffffffffffffffffffffffffffffffff1614610929576040517f08c379a0000000000000000000000000000000000000000000000000000000008152600401610920906133bf565b60405180910390fd5b5f60025f9054906101000a900473ffffffffffffffffffffffffffffffffffffffff1673ffffffffffffffffffffffffffffffffffffffff166344276733336040518263ffffffff1660e01b81526004016109849190612692565b602060405180830381865afa15801561099f573d5f803e3d5ffd5b505050506040513d601f19601f820116820180604052508101906109c391906133f1565b90505f5b5f8054905081101561119b578160048111156109e6576109e5612be8565b5b5f82815481106109f9576109f8613030565b5b905f5260205f2090600502015f015f9054906101000a900460ff166004811115610a2657610a25612be8565b5b148015610a6f575085805190602001205f8281548110610a4957610a48613030565b5b905f5260205f209060050201600101604051610a6591906134b8565b6040518091039020145b8015610ab7575084805190602001205f8281548110610a9157610a90613030565b5b905f5260205f209060050201600201604051610aad91906134b8565b6040518091039020145b1561118e576003545f8281548110610ad257610ad1613030565b5b905f5260205f20906005020160040154610aec91906134fb565b421015610c1a575f805f60015f9054906101000a900473ffffffffffffffffffffffffffffffffffffffff1673ffffffffffffffffffffffffffffffffffffffff1663c4df01ce336040518263ffffffff1660e01b8152600401610b509190613578565b5f604051808303815f875af1158015610b6b573d5f803e3d5ffd5b505050506040513d5f823e3d601f19601f82011682018060405250810190610b939190612f20565b925092509250600460019054906101000a900473ffffffffffffffffffffffffffffffffffffffff1673ffffffffffffffffffffffffffffffffffffffff167f3fc8de32d0ff2767d320c8c52fd3ab1a29ddf9484b23575845d542369bdfa37f848484604051610c0593929190612f8c565b60405180910390a25f965050505050506114b9565b425f8281548110610c2e57610c2d613030565b5b905f5260205f20906005020160040181905550600460019054906101000a900473ffffffffffffffffffffffffffffffffffffffff1673ffffffffffffffffffffffffffffffffffffffff167f5003ba6da275d66409e57db43f48416fff9168f7954c0da01fb2ffb3112c45a88388886040518060400160405280600581526020017f616c6c6f77000000000000000000000000000000000000000000000000000000815250805190602001205f8781548110610cee57610ced613030565b5b905f5260205f209060050201600301604051610d0a91906134b8565b604051809103902014604051610d2394939291906135a4565b60405180910390a25f6040518060400160405280600581526020017f616c6c6f77000000000000000000000000000000000000000000000000000000815250805190602001205f8381548110610d7c57610d7b613030565b5b905f5260205f209060050201600301604051610d9891906134b8565b60405180910390201490508015610ea3575f8060015f9054906101000a900473ffffffffffffffffffffffffffffffffffffffff1673ffffffffffffffffffffffffffffffffffffffff16631e349d1c336040518263ffffffff1660e01b8152600401610e059190612692565b5f604051808303815f875af1158015610e20573d5f803e3d5ffd5b505050506040513d5f823e3d601f19601f82011682018060405250810190610e4891906135f5565b915091503373ffffffffffffffffffffffffffffffffffffffff167f99160c89fdccb67e1961cf554a10fffb3dbbb7b2cd44a817f2aac33deb57d9d78383604051610e9492919061364f565b60405180910390a25050611183565b6040518060400160405280600481526020017f65646974000000000000000000000000000000000000000000000000000000008152508051906020012086805190602001201480610f3657506040518060400160405280600681526020017f64656c6574650000000000000000000000000000000000000000000000000000815250805190602001208680519060200120145b1561103b575f805f60015f9054906101000a900473ffffffffffffffffffffffffffffffffffffffff1673ffffffffffffffffffffffffffffffffffffffff1663c4df01ce336040518263ffffffff1660e01b8152600401610f9891906136c7565b5f604051808303815f875af1158015610fb3573d5f803e3d5ffd5b505050506040513d5f823e3d601f19601f82011682018060405250810190610fdb9190612f20565b9250925092503373ffffffffffffffffffffffffffffffffffffffff167f3fc8de32d0ff2767d320c8c52fd3ab1a29ddf9484b23575845d542369bdfa37f84848460405161102b93929190612f8c565b60405180910390a2505050611182565b6040518060400160405280600481526020017f766965770000000000000000000000000000000000000000000000000000000081525080519060200120868051906020012003611181575f805f60015f9054906101000a900473ffffffffffffffffffffffffffffffffffffffff1673ffffffffffffffffffffffffffffffffffffffff1663c4df01ce336040518263ffffffff1660e01b81526004016110e2919061373d565b5f604051808303815f875af11580156110fd573d5f803e3d5ffd5b505050506040513d5f823e3d601f19601f820116820180604052508101906111259190612f20565b9250925092503373ffffffffffffffffffffffffffffffffffffffff167f3fc8de32d0ff2767d320c8c52fd3ab1a29ddf9484b23575845d542369bdfa37f84848460405161117593929190612f8c565b60405180910390a25050505b5b5b8094505050506114b9565b80806001019150506109c7565b506040518060400160405280600481526020017f6564697400000000000000000000000000000000000000000000000000000000815250805190602001208480519060200120148061122f57506040518060400160405280600681526020017f64656c6574650000000000000000000000000000000000000000000000000000815250805190602001208480519060200120145b15611334575f805f60015f9054906101000a900473ffffffffffffffffffffffffffffffffffffffff1673ffffffffffffffffffffffffffffffffffffffff1663c4df01ce336040518263ffffffff1660e01b815260040161129191906136c7565b5f604051808303815f875af11580156112ac573d5f803e3d5ffd5b505050506040513d5f823e3d601f19601f820116820180604052508101906112d49190612f20565b9250925092503373ffffffffffffffffffffffffffffffffffffffff167f3fc8de32d0ff2767d320c8c52fd3ab1a29ddf9484b23575845d542369bdfa37f84848460405161132493929190612f8c565b60405180910390a250505061147b565b6040518060400160405280600481526020017f76696577000000000000000000000000000000000000000000000000000000008152508051906020012084805190602001200361147a575f805f60015f9054906101000a900473ffffffffffffffffffffffffffffffffffffffff1673ffffffffffffffffffffffffffffffffffffffff1663c4df01ce336040518263ffffffff1660e01b81526004016113db919061373d565b5f604051808303815f875af11580156113f6573d5f803e3d5ffd5b505050506040513d5f823e3d601f19601f8201168201806040525081019061141e9190612f20565b9250925092503373ffffffffffffffffffffffffffffffffffffffff167f3fc8de32d0ff2767d320c8c52fd3ab1a29ddf9484b23575845d542369bdfa37f84848460405161146e93929190612f8c565b60405180910390a25050505b5b7f38df3a8dddf6ef31501df5a214b30fe934ac5f4ed0cd1b5bc31f44752486c6ac85856040516114ac929190613769565b60405180910390a15f9250505b5092915050565b600680546114cd9061308a565b80601f01602080910402602001604051908101604052809291908181526020018280546114f99061308a565b80156115445780601f1061151b57610100808354040283529160200191611544565b820191905f5260205f20905b81548152906001019060200180831161152757829003601f168201915b505050505081565b60045f9054906101000a900460ff1681565b60045f9054906101000a900460ff166115ac576040517f08c379a00000000000000000000000000000000000000000000000000000000081526004016115a390612d99565b60405180910390fd5b5f60015f9054906101000a900473ffffffffffffffffffffffffffffffffffffffff1673ffffffffffffffffffffffffffffffffffffffff16630e104278336040518263ffffffff1660e01b81526004016116079190612692565b602060405180830381865afa158015611622573d5f803e3d5ffd5b505050506040513d601f19601f820116820180604052508101906116469190612dcb565b905080421161168a576040517f08c379a000000000000000000000000000000000000000000000000000000000815260040161168190612e66565b60405180910390fd5b6040518060400160405280601b81526020017f556e617574686f72697a65642061636365737320617474656d7074000000000081525060075f9054906101000a900473ffffffffffffffffffffffffffffffffffffffff1673ffffffffffffffffffffffffffffffffffffffff163373ffffffffffffffffffffffffffffffffffffffff1614611816575f805f60015f9054906101000a900473ffffffffffffffffffffffffffffffffffffffff1673ffffffffffffffffffffffffffffffffffffffff1663c4df01ce33866040518363ffffffff1660e01b8152600401611773929190612e84565b5f604051808303815f875af115801561178e573d5f803e3d5ffd5b505050506040513d5f823e3d601f19601f820116820180604052508101906117b69190612f20565b9250925092503373ffffffffffffffffffffffffffffffffffffffff167f3fc8de32d0ff2767d320c8c52fd3ab1a29ddf9484b23575845d542369bdfa37f84848460405161180693929190612f8c565b60405180910390a25050506118f2565b5f80549050831061185c576040517f08c379a000000000000000000000000000000000000000000000000000000000815260040161185390613012565b60405180910390fd5b5f838154811061186f5761186e613030565b5b905f5260205f2090600502015f8082015f6101000a81549060ff0219169055600182015f61189d91906125fb565b600282015f6118ac91906125fb565b600382015f6118bb91906125fb565b600482015f90555050827f433ab09ab993382af577c4a70f77dcc7cf149b5b52eb40d19b869664bfb5496d60405160405180910390a25b505050565b60035481565b60085481565b5f805f60015f9054906101000a900473ffffffffffffffffffffffffffffffffffffffff1673ffffffffffffffffffffffffffffffffffffffff16630e104278336040518263ffffffff1660e01b81526004016119609190612692565b602060405180830381865afa15801561197b573d5f803e3d5ffd5b505050506040513d601f19601f8201168201806040525081019061199f9190612dcb565b90505f814210156119af57600190505b81819350935050509091565b600460019054906101000a900473ffffffffffffffffffffffffffffffffffffffff1681565b60045f9054906101000a900460ff16611a2f576040517f08c379a0000000000000000000000000000000000000000000000000000000008152600401611a2690612d99565b60405180910390fd5b5f60015f9054906101000a900473ffffffffffffffffffffffffffffffffffffffff1673ffffffffffffffffffffffffffffffffffffffff16630e104278336040518263ffffffff1660e01b8152600401611a8a9190612692565b602060405180830381865afa158015611aa5573d5f803e3d5ffd5b505050506040513d601f19601f82011682018060405250810190611ac99190612dcb565b9050804211611b0d576040517f08c379a0000000000000000000000000000000000000000000000000000000008152600401611b0490612e66565b60405180910390fd5b6040518060400160405280601b81526020017f556e617574686f72697a65642061636365737320617474656d7074000000000081525060075f9054906101000a900473ffffffffffffffffffffffffffffffffffffffff1673ffffffffffffffffffffffffffffffffffffffff163373ffffffffffffffffffffffffffffffffffffffff1614611c99575f805f60015f9054906101000a900473ffffffffffffffffffffffffffffffffffffffff1673ffffffffffffffffffffffffffffffffffffffff1663c4df01ce33866040518363ffffffff1660e01b8152600401611bf6929190612e84565b5f604051808303815f875af1158015611c11573d5f803e3d5ffd5b505050506040513d5f823e3d601f19601f82011682018060405250810190611c399190612f20565b9250925092503373ffffffffffffffffffffffffffffffffffffffff167f3fc8de32d0ff2767d320c8c52fd3ab1a29ddf9484b23575845d542369bdfa37f848484604051611c8993929190612f8c565b60405180910390a2505050611dc3565b5f6040518060a00160405280886004811115611cb857611cb7612be8565b5b81526020018781526020018681526020018581526020015f815250908060018154018082558091505060019003905f5260205f2090600502015f909190919091505f820151815f015f6101000a81548160ff02191690836004811115611d2157611d20612be8565b5b02179055506020820151816001019081611d3b919061324e565b506040820151816002019081611d51919061324e565b506060820151816003019081611d67919061324e565b5060808201518160040155505060015f80549050611d85919061379e565b7fb90b27d205996a6ce127fc2f1bfbad17d5d8270e9a27ebb35037f2d67853b6cf87878787604051611dba949392919061331d565b60405180910390a25b505050505050565b60055f9054906101000a900473ffffffffffffffffffffffffffffffffffffffff1681565b5f60015f9054906101000a900473ffffffffffffffffffffffffffffffffffffffff1673ffffffffffffffffffffffffffffffffffffffff16630e104278336040518263ffffffff1660e01b8152600401611e4b9190612692565b602060405180830381865afa158015611e66573d5f803e3d5ffd5b505050506040513d601f19601f82011682018060405250810190611e8a9190612dcb565b9050804211611ece576040517f08c379a0000000000000000000000000000000000000000000000000000000008152600401611ec590612e66565b60405180910390fd5b6040518060400160405280601181526020017f44656e69616c206f66205365727669636500000000000000000000000000000081525060075f9054906101000a900473ffffffffffffffffffffffffffffffffffffffff1673ffffffffffffffffffffffffffffffffffffffff163373ffffffffffffffffffffffffffffffffffffffff161461205a575f805f60015f9054906101000a900473ffffffffffffffffffffffffffffffffffffffff1673ffffffffffffffffffffffffffffffffffffffff1663c4df01ce33866040518363ffffffff1660e01b8152600401611fb7929190612e84565b5f604051808303815f875af1158015611fd2573d5f803e3d5ffd5b505050506040513d5f823e3d601f19601f82011682018060405250810190611ffa9190612f20565b9250925092503373ffffffffffffffffffffffffffffffffffffffff167f3fc8de32d0ff2767d320c8c52fd3ab1a29ddf9484b23575845d542369bdfa37f84848460405161204a93929190612f8c565b60405180910390a25050506120a1565b600160045f6101000a81548160ff0219169083151502179055507fe09eb0ac9bad92f05e0b489e6fc1d3e349861ffd8a2548182ef06278968a9bd060405160405180910390a15b5050565b60025f9054906101000a900473ffffffffffffffffffffffffffffffffffffffff1681565b5f60015f9054906101000a900473ffffffffffffffffffffffffffffffffffffffff1673ffffffffffffffffffffffffffffffffffffffff16630e104278336040518263ffffffff1660e01b81526004016121259190612692565b602060405180830381865afa158015612140573d5f803e3d5ffd5b505050506040513d601f19601f820116820180604052508101906121649190612dcb565b90508042116121a8576040517f08c379a000000000000000000000000000000000000000000000000000000000815260040161219f90612e66565b60405180910390fd5b6040518060400160405280601181526020017f44656e69616c206f66205365727669636500000000000000000000000000000081525060075f9054906101000a900473ffffffffffffffffffffffffffffffffffffffff1673ffffffffffffffffffffffffffffffffffffffff163373ffffffffffffffffffffffffffffffffffffffff1614612334575f805f60015f9054906101000a900473ffffffffffffffffffffffffffffffffffffffff1673ffffffffffffffffffffffffffffffffffffffff1663c4df01ce33866040518363ffffffff1660e01b8152600401612291929190612e84565b5f604051808303815f875af11580156122ac573d5f803e3d5ffd5b505050506040513d5f823e3d601f19601f820116820180604052508101906122d49190612f20565b9250925092503373ffffffffffffffffffffffffffffffffffffffff167f3fc8de32d0ff2767d320c8c52fd3ab1a29ddf9484b23575845d542369bdfa37f84848460405161232493929190612f8c565b60405180910390a250505061237a565b5f60045f6101000a81548160ff0219169083151502179055507f8c8771d60e1ae6b90556d35dc2f79a3190d6b4088c05d7ca8cabbb9e9061f3e560405160405180910390a15b5050565b5f818154811061238c575f80fd5b905f5260205f2090600502015f91509050805f015f9054906101000a900460ff16908060010180546123bd9061308a565b80601f01602080910402602001604051908101604052809291908181526020018280546123e99061308a565b80156124345780601f1061240b57610100808354040283529160200191612434565b820191905f5260205f20905b81548152906001019060200180831161241757829003601f168201915b5050505050908060020180546124499061308a565b80601f01602080910402602001604051908101604052809291908181526020018280546124759061308a565b80156124c05780601f10612497576101008083540402835291602001916124c0565b820191905f5260205f20905b8154815290600101906020018083116124a357829003601f168201915b5050505050908060030180546124d59061308a565b80601f01602080910402602001604051908101604052809291908181526020018280546125019061308a565b801561254c5780601f106125235761010080835404028352916020019161254c565b820191905f5260205f20905b81548152906001019060200180831161252f57829003601f168201915b5050505050908060040154905085565b60015f9054906101000a900473ffffffffffffffffffffffffffffffffffffffff1681565b8060015f6101000a81548173ffffffffffffffffffffffffffffffffffffffff021916908373ffffffffffffffffffffffffffffffffffffffff1602179055507f60aef7237739f69cdef5dd8e8f90780ef1f3f6d76024d66e168102d04e88b5f4816040516125f09190612692565b60405180910390a150565b5080546126079061308a565b5f825580601f106126185750612635565b601f0160209004905f5260205f20908101906126349190612638565b5b50565b5b8082111561264f575f815f905550600101612639565b5090565b5f73ffffffffffffffffffffffffffffffffffffffff82169050919050565b5f61267c82612653565b9050919050565b61268c81612672565b82525050565b5f6020820190506126a55f830184612683565b92915050565b5f604051905090565b5f80fd5b5f80fd5b5f819050919050565b6126ce816126bc565b81146126d8575f80fd5b50565b5f813590506126e9816126c5565b92915050565b600581106126fb575f80fd5b50565b5f8135905061270c816126ef565b92915050565b5f80fd5b5f80fd5b5f601f19601f8301169050919050565b7f4e487b71000000000000000000000000000000000000000000000000000000005f52604160045260245ffd5b6127608261271a565b810181811067ffffffffffffffff8211171561277f5761277e61272a565b5b80604052505050565b5f6127916126ab565b905061279d8282612757565b919050565b5f67ffffffffffffffff8211156127bc576127bb61272a565b5b6127c58261271a565b9050602081019050919050565b828183375f83830152505050565b5f6127f26127ed846127a2565b612788565b90508281526020810184848401111561280e5761280d612716565b5b6128198482856127d2565b509392505050565b5f82601f83011261283557612834612712565b5b81356128458482602086016127e0565b91505092915050565b5f805f805f60a08688031215612867576128666126b4565b5b5f612874888289016126db565b9550506020612885888289016126fe565b945050604086013567ffffffffffffffff8111156128a6576128a56126b8565b5b6128b288828901612821565b935050606086013567ffffffffffffffff8111156128d3576128d26126b8565b5b6128df88828901612821565b925050608086013567ffffffffffffffff811115612900576128ff6126b8565b5b61290c88828901612821565b9150509295509295909350565b5f806040838503121561292f5761292e6126b4565b5b5f83013567ffffffffffffffff81111561294c5761294b6126b8565b5b61295885828601612821565b925050602083013567ffffffffffffffff811115612979576129786126b8565b5b61298585828601612821565b9150509250929050565b5f8115159050919050565b6129a38161298f565b82525050565b5f6020820190506129bc5f83018461299a565b92915050565b5f81519050919050565b5f82825260208201905092915050565b8281835e5f83830152505050565b5f6129f4826129c2565b6129fe81856129cc565b9350612a0e8185602086016129dc565b612a178161271a565b840191505092915050565b5f6020820190508181035f830152612a3a81846129ea565b905092915050565b5f60208284031215612a5757612a566126b4565b5b5f612a64848285016126db565b91505092915050565b612a76816126bc565b82525050565b5f602082019050612a8f5f830184612a6d565b92915050565b5f604082019050612aa85f830185612a6d565b612ab5602083018461299a565b9392505050565b5f805f8060808587031215612ad457612ad36126b4565b5b5f612ae1878288016126fe565b945050602085013567ffffffffffffffff811115612b0257612b016126b8565b5b612b0e87828801612821565b935050604085013567ffffffffffffffff811115612b2f57612b2e6126b8565b5b612b3b87828801612821565b925050606085013567ffffffffffffffff811115612b5c57612b5b6126b8565b5b612b6887828801612821565b91505092959194509250565b5f819050919050565b5f612b97612b92612b8d84612653565b612b74565b612653565b9050919050565b5f612ba882612b7d565b9050919050565b5f612bb982612b9e565b9050919050565b612bc981612baf565b82525050565b5f602082019050612be25f830184612bc0565b92915050565b7f4e487b71000000000000000000000000000000000000000000000000000000005f52602160045260245ffd5b60058110612c2657612c25612be8565b5b50565b5f819050612c3682612c15565b919050565b5f612c4582612c29565b9050919050565b612c5581612c3b565b82525050565b5f60a082019050612c6e5f830188612c4c565b8181036020830152612c8081876129ea565b90508181036040830152612c9481866129ea565b90508181036060830152612ca881856129ea565b9050612cb76080830184612a6d565b9695505050505050565b5f612ccb82612b9e565b9050919050565b612cdb81612cc1565b82525050565b5f602082019050612cf45f830184612cd2565b92915050565b612d0381612672565b8114612d0d575f80fd5b50565b5f81359050612d1e81612cfa565b92915050565b5f60208284031215612d3957612d386126b4565b5b5f612d4684828501612d10565b91505092915050565b7f436f6e7472616374206973206e6f7420616374697665000000000000000000005f82015250565b5f612d836016836129cc565b9150612d8e82612d4f565b602082019050919050565b5f6020820190508181035f830152612db081612d77565b9050919050565b5f81519050612dc5816126c5565b92915050565b5f60208284031215612de057612ddf6126b4565b5b5f612ded84828501612db7565b91505092915050565b7f416363657373436f6e74726f6c436f6e74726163743a204d656d6265722069735f8201527f20626c6f636b6564000000000000000000000000000000000000000000000000602082015250565b5f612e506028836129cc565b9150612e5b82612df6565b604082019050919050565b5f6020820190508181035f830152612e7d81612e44565b9050919050565b5f604082019050612e975f830185612683565b8181036020830152612ea981846129ea565b90509392505050565b5f612ec4612ebf846127a2565b612788565b905082815260208101848484011115612ee057612edf612716565b5b612eeb8482856129dc565b509392505050565b5f82601f830112612f0757612f06612712565b5b8151612f17848260208601612eb2565b91505092915050565b5f805f60608486031215612f3757612f366126b4565b5b5f612f4486828701612db7565b935050602084015167ffffffffffffffff811115612f6557612f646126b8565b5b612f7186828701612ef3565b9250506040612f8286828701612db7565b9150509250925092565b5f606082019050612f9f5f830186612a6d565b8181036020830152612fb181856129ea565b9050612fc06040830184612a6d565b949350505050565b7f506f6c69637920646f6573206e6f7420657869737400000000000000000000005f82015250565b5f612ffc6015836129cc565b915061300782612fc8565b602082019050919050565b5f6020820190508181035f83015261302981612ff0565b9050919050565b7f4e487b71000000000000000000000000000000000000000000000000000000005f52603260045260245ffd5b7f4e487b71000000000000000000000000000000000000000000000000000000005f52602260045260245ffd5b5f60028204905060018216806130a157607f821691505b6020821081036130b4576130b361305d565b5b50919050565b5f819050815f5260205f209050919050565b5f6020601f8301049050919050565b5f82821b905092915050565b5f600883026131167fffffffffffffffffffffffffffffffffffffffffffffffffffffffffffffffff826130db565b61312086836130db565b95508019841693508086168417925050509392505050565b5f61315261314d613148846126bc565b612b74565b6126bc565b9050919050565b5f819050919050565b61316b83613138565b61317f61317782613159565b8484546130e7565b825550505050565b5f90565b613193613187565b61319e818484613162565b505050565b5b818110156131c1576131b65f8261318b565b6001810190506131a4565b5050565b601f821115613206576131d7816130ba565b6131e0846130cc565b810160208510156131ef578190505b6132036131fb856130cc565b8301826131a3565b50505b505050565b5f82821c905092915050565b5f6132265f198460080261320b565b1980831691505092915050565b5f61323e8383613217565b9150826002028217905092915050565b613257826129c2565b67ffffffffffffffff8111156132705761326f61272a565b5b61327a825461308a565b6132858282856131c5565b5f60209050601f8311600181146132b6575f84156132a4578287015190505b6132ae8582613233565b865550613315565b601f1984166132c4866130ba565b5f5b828110156132eb578489015182556001820191506020850194506020810190506132c6565b868310156133085784890151613304601f891682613217565b8355505b6001600288020188555050505b505050505050565b5f6080820190506133305f830187612c4c565b818103602083015261334281866129ea565b9050818103604083015261335681856129ea565b9050818103606083015261336a81846129ea565b905095945050505050565b7f43616c6c6572206973206e6f74207375626a65637400000000000000000000005f82015250565b5f6133a96015836129cc565b91506133b482613375565b602082019050919050565b5f6020820190508181035f8301526133d68161339d565b9050919050565b5f815190506133eb816126ef565b92915050565b5f60208284031215613406576134056126b4565b5b5f613413848285016133dd565b91505092915050565b5f81905092915050565b5f819050815f5260205f209050919050565b5f81546134448161308a565b61344e818661341c565b9450600182165f8114613468576001811461347d576134af565b60ff19831686528115158202860193506134af565b61348685613426565b5f5b838110156134a757815481890152600182019150602081019050613488565b838801955050505b50505092915050565b5f6134c38284613438565b915081905092915050565b7f4e487b71000000000000000000000000000000000000000000000000000000005f52601160045260245ffd5b5f613505826126bc565b9150613510836126bc565b9250828201905080821115613528576135276134ce565b5b92915050565b7f546f6f206672657175656e7420616363657373000000000000000000000000005f82015250565b5f6135626013836129cc565b915061356d8261352e565b602082019050919050565b5f60408201905061358b5f830184612683565b818103602083015261359c81613556565b905092915050565b5f6080820190506135b75f830187612c4c565b81810360208301526135c981866129ea565b905081810360408301526135dd81856129ea565b90506135ec606083018461299a565b95945050505050565b5f806040838503121561360b5761360a6126b4565b5b5f61361885828601612db7565b925050602083015167ffffffffffffffff811115613639576136386126b8565b5b61364585828601612ef3565b9150509250929050565b5f6040820190506136625f830185612a6d565b818103602083015261367481846129ea565b90509392505050565b7f54616d706572696e6720776974682064617461000000000000000000000000005f82015250565b5f6136b16013836129cc565b91506136bc8261367d565b602082019050919050565b5f6040820190506136da5f830184612683565b81810360208301526136eb816136a5565b905092915050565b7f556e617574686f72697a65642061636365737320617474656d707400000000005f82015250565b5f613727601b836129cc565b9150613732826136f3565b602082019050919050565b5f6040820190506137505f830184612683565b81810360208301526137618161371b565b905092915050565b5f6040820190508181035f83015261378181856129ea565b9050818103602083015261379581846129ea565b90509392505050565b5f6137a8826126bc565b91506137b3836126bc565b92508282039050818111156137cb576137ca6134ce565b5b9291505056fea26469706673582212205f63d89725a8d4465611f47f203ea4072c1d9c8456cab9233ef6689579e5155d64736f6c634300081a0033",
			"opcodes": "PUSH1 0x80 PUSH1 0x40 MSTORE PUSH1 0x3C PUSH1 0x3 SSTORE PUSH1 0x1 PUSH1 0x4 PUSH0 PUSH2 0x100 EXP DUP2 SLOAD DUP2 PUSH1 0xFF MUL NOT AND SWAP1 DUP4 ISZERO ISZERO MUL OR SWAP1 SSTORE POP PUSH3 0x15180 PUSH1 0x8 SSTORE CALLVALUE DUP1 ISZERO PUSH2 0x35 JUMPI PUSH0 DUP1 REVERT JUMPDEST POP PUSH1 0x40 MLOAD PUSH2 0x3E9C CODESIZE SUB DUP1 PUSH2 0x3E9C DUP4 CODECOPY DUP2 DUP2 ADD PUSH1 0x40 MSTORE DUP2 ADD SWAP1 PUSH2 0x57 SWAP2 SWAP1 PUSH2 0x319 JUMP JUMPDEST DUP2 PUSH1 0x2 PUSH0 PUSH2 0x100 EXP DUP2 SLOAD DUP2 PUSH20 0xFFFFFFFFFFFFFFFFFFFFFFFFFFFFFFFFFFFFFFFF MUL NOT AND SWAP1 DUP4 PUSH20 0xFFFFFFFFFFFFFFFFFFFFFFFFFFFFFFFFFFFFFFFF AND MUL OR SWAP1 SSTORE POP DUP5 PUSH1 0x4 PUSH1 0x1 PUSH2 0x100 EXP DUP2 SLOAD DUP2 PUSH20 0xFFFFFFFFFFFFFFFFFFFFFFFFFFFFFFFFFFFFFFFF MUL NOT AND SWAP1 DUP4 PUSH20 0xFFFFFFFFFFFFFFFFFFFFFFFFFFFFFFFFFFFFFFFF AND MUL OR SWAP1 SSTORE POP DUP4 PUSH1 0x5 PUSH0 PUSH2 0x100 EXP DUP2 SLOAD DUP2 PUSH20 0xFFFFFFFFFFFFFFFFFFFFFFFFFFFFFFFFFFFFFFFF MUL NOT AND SWAP1 DUP4 PUSH20 0xFFFFFFFFFFFFFFFFFFFFFFFFFFFFFFFFFFFFFFFF AND MUL OR SWAP1 SSTORE POP DUP3 PUSH1 0x6 SWAP1 DUP2 PUSH2 0x127 SWAP2 SWAP1 PUSH2 0x5B9 JUMP JUMPDEST POP DUP1 PUSH1 0x7 PUSH0 PUSH2 0x100 EXP DUP2 SLOAD DUP2 PUSH20 0xFFFFFFFFFFFFFFFFFFFFFFFFFFFFFFFFFFFFFFFF MUL NOT AND SWAP1 DUP4 PUSH20 0xFFFFFFFFFFFFFFFFFFFFFFFFFFFFFFFFFFFFFFFF AND MUL OR SWAP1 SSTORE POP POP POP POP POP POP PUSH2 0x688 JUMP JUMPDEST PUSH0 PUSH1 0x40 MLOAD SWAP1 POP SWAP1 JUMP JUMPDEST PUSH0 DUP1 REVERT JUMPDEST PUSH0 DUP1 REVERT JUMPDEST PUSH0 PUSH20 0xFFFFFFFFFFFFFFFFFFFFFFFFFFFFFFFFFFFFFFFF DUP3 AND SWAP1 POP SWAP2 SWAP1 POP JUMP JUMPDEST PUSH0 PUSH2 0x1AC DUP3 PUSH2 0x183 JUMP JUMPDEST SWAP1 POP SWAP2 SWAP1 POP JUMP JUMPDEST PUSH2 0x1BC DUP2 PUSH2 0x1A2 JUMP JUMPDEST DUP2 EQ PUSH2 0x1C6 JUMPI PUSH0 DUP1 REVERT JUMPDEST POP JUMP JUMPDEST PUSH0 DUP2 MLOAD SWAP1 POP PUSH2 0x1D7 DUP2 PUSH2 0x1B3 JUMP JUMPDEST SWAP3 SWAP2 POP POP JUMP JUMPDEST PUSH0 DUP1 REVERT JUMPDEST PUSH0 DUP1 REVERT JUMPDEST PUSH0 PUSH1 0x1F NOT PUSH1 0x1F DUP4 ADD AND SWAP1 POP SWAP2 SWAP1 POP JUMP JUMPDEST PUSH32 0x4E487B7100000000000000000000000000000000000000000000000000000000 PUSH0 MSTORE PUSH1 0x41 PUSH1 0x4 MSTORE PUSH1 0x24 PUSH0 REVERT JUMPDEST PUSH2 0x22B DUP3 PUSH2 0x1E5 JUMP JUMPDEST DUP2 ADD DUP2 DUP2 LT PUSH8 0xFFFFFFFFFFFFFFFF DUP3 GT OR ISZERO PUSH2 0x24A JUMPI PUSH2 0x249 PUSH2 0x1F5 JUMP JUMPDEST JUMPDEST DUP1 PUSH1 0x40 MSTORE POP POP POP JUMP JUMPDEST PUSH0 PUSH2 0x25C PUSH2 0x172 JUMP JUMPDEST SWAP1 POP PUSH2 0x268 DUP3 DUP3 PUSH2 0x222 JUMP JUMPDEST SWAP2 SWAP1 POP JUMP JUMPDEST PUSH0 PUSH8 0xFFFFFFFFFFFFFFFF DUP3 GT ISZERO PUSH2 0x287 JUMPI PUSH2 0x286 PUSH2 0x1F5 JUMP JUMPDEST JUMPDEST PUSH2 0x290 DUP3 PUSH2 0x1E5 JUMP JUMPDEST SWAP1 POP PUSH1 0x20 DUP2 ADD SWAP1 POP SWAP2 SWAP1 POP JUMP JUMPDEST DUP3 DUP2 DUP4 MCOPY PUSH0 DUP4 DUP4 ADD MSTORE POP POP POP JUMP JUMPDEST PUSH0 PUSH2 0x2BD PUSH2 0x2B8 DUP5 PUSH2 0x26D JUMP JUMPDEST PUSH2 0x253 JUMP JUMPDEST SWAP1 POP DUP3 DUP2 MSTORE PUSH1 0x20 DUP2 ADD DUP5 DUP5 DUP5 ADD GT ISZERO PUSH2 0x2D9 JUMPI PUSH2 0x2D8 PUSH2 0x1E1 JUMP JUMPDEST JUMPDEST PUSH2 0x2E4 DUP5 DUP3 DUP6 PUSH2 0x29D JUMP JUMPDEST POP SWAP4 SWAP3 POP POP POP JUMP JUMPDEST PUSH0 DUP3 PUSH1 0x1F DUP4 ADD SLT PUSH2 0x300 JUMPI PUSH2 0x2FF PUSH2 0x1DD JUMP JUMPDEST JUMPDEST DUP2 MLOAD PUSH2 0x310 DUP5 DUP3 PUSH1 0x20 DUP7 ADD PUSH2 0x2AB JUMP JUMPDEST SWAP2 POP POP SWAP3 SWAP2 POP POP JUMP JUMPDEST PUSH0 DUP1 PUSH0 DUP1 PUSH0 PUSH1 0xA0 DUP7 DUP9 SUB SLT ISZERO PUSH2 0x332 JUMPI PUSH2 0x331 PUSH2 0x17B JUMP JUMPDEST JUMPDEST PUSH0 PUSH2 0x33F DUP9 DUP3 DUP10 ADD PUSH2 0x1C9 JUMP JUMPDEST SWAP6 POP POP PUSH1 0x20 PUSH2 0x350 DUP9 DUP3 DUP10 ADD PUSH2 0x1C9 JUMP JUMPDEST SWAP5 POP POP PUSH1 0x40 DUP7 ADD MLOAD PUSH8 0xFFFFFFFFFFFFFFFF DUP2 GT ISZERO PUSH2 0x371 JUMPI PUSH2 0x370 PUSH2 0x17F JUMP JUMPDEST JUMPDEST PUSH2 0x37D DUP9 DUP3 DUP10 ADD PUSH2 0x2EC JUMP JUMPDEST SWAP4 POP POP PUSH1 0x60 PUSH2 0x38E DUP9 DUP3 DUP10 ADD PUSH2 0x1C9 JUMP JUMPDEST SWAP3 POP POP PUSH1 0x80 PUSH2 0x39F DUP9 DUP3 DUP10 ADD PUSH2 0x1C9 JUMP JUMPDEST SWAP2 POP POP SWAP3 SWAP6 POP SWAP3 SWAP6 SWAP1 SWAP4 POP JUMP JUMPDEST PUSH0 DUP2 MLOAD SWAP1 POP SWAP2 SWAP1 POP JUMP JUMPDEST PUSH32 0x4E487B7100000000000000000000000000000000000000000000000000000000 PUSH0 MSTORE PUSH1 0x22 PUSH1 0x4 MSTORE PUSH1 0x24 PUSH0 REVERT JUMPDEST PUSH0 PUSH1 0x2 DUP3 DIV SWAP1 POP PUSH1 0x1 DUP3 AND DUP1 PUSH2 0x3FA JUMPI PUSH1 0x7F DUP3 AND SWAP2 POP JUMPDEST PUSH1 0x20 DUP3 LT DUP2 SUB PUSH2 0x40D JUMPI PUSH2 0x40C PUSH2 0x3B6 JUMP JUMPDEST JUMPDEST POP SWAP2 SWAP1 POP JUMP JUMPDEST PUSH0 DUP2 SWAP1 POP DUP2 PUSH0 MSTORE PUSH1 0x20 PUSH0 KECCAK256 SWAP1 POP SWAP2 SWAP1 POP JUMP JUMPDEST PUSH0 PUSH1 0x20 PUSH1 0x1F DUP4 ADD DIV SWAP1 POP SWAP2 SWAP1 POP JUMP JUMPDEST PUSH0 DUP3 DUP3 SHL SWAP1 POP SWAP3 SWAP2 POP POP JUMP JUMPDEST PUSH0 PUSH1 0x8 DUP4 MUL PUSH2 0x46F PUSH32 0xFFFFFFFFFFFFFFFFFFFFFFFFFFFFFFFFFFFFFFFFFFFFFFFFFFFFFFFFFFFFFFFF DUP3 PUSH2 0x434 JUMP JUMPDEST PUSH2 0x479 DUP7 DUP4 PUSH2 0x434 JUMP JUMPDEST SWAP6 POP DUP1 NOT DUP5 AND SWAP4 POP DUP1 DUP7 AND DUP5 OR SWAP3 POP POP POP SWAP4 SWAP3 POP POP POP JUMP JUMPDEST PUSH0 DUP2 SWAP1 POP SWAP2 SWAP1 POP JUMP JUMPDEST PUSH0 DUP2 SWAP1 POP SWAP2 SWAP1 POP JUMP JUMPDEST PUSH0 PUSH2 0x4BD PUSH2 0x4B8 PUSH2 0x4B3 DUP5 PUSH2 0x491 JUMP JUMPDEST PUSH2 0x49A JUMP JUMPDEST PUSH2 0x491 JUMP JUMPDEST SWAP1 POP SWAP2 SWAP1 POP JUMP JUMPDEST PUSH0 DUP2 SWAP1 POP SWAP2 SWAP1 POP JUMP JUMPDEST PUSH2 0x4D6 DUP4 PUSH2 0x4A3 JUMP JUMPDEST PUSH2 0x4EA PUSH2 0x4E2 DUP3 PUSH2 0x4C4 JUMP JUMPDEST DUP5 DUP5 SLOAD PUSH2 0x440 JUMP JUMPDEST DUP3 SSTORE POP POP POP POP JUMP JUMPDEST PUSH0 SWAP1 JUMP JUMPDEST PUSH2 0x4FE PUSH2 0x4F2 JUMP JUMPDEST PUSH2 0x509 DUP2 DUP5 DUP5 PUSH2 0x4CD JUMP JUMPDEST POP POP POP JUMP JUMPDEST JUMPDEST DUP2 DUP2 LT ISZERO PUSH2 0x52C JUMPI PUSH2 0x521 PUSH0 DUP3 PUSH2 0x4F6 JUMP JUMPDEST PUSH1 0x1 DUP2 ADD SWAP1 POP PUSH2 0x50F JUMP JUMPDEST POP POP JUMP JUMPDEST PUSH1 0x1F DUP3 GT ISZERO PUSH2 0x571 JUMPI PUSH2 0x542 DUP2 PUSH2 0x413 JUMP JUMPDEST PUSH2 0x54B DUP5 PUSH2 0x425 JUMP JUMPDEST DUP2 ADD PUSH1 0x20 DUP6 LT ISZERO PUSH2 0x55A JUMPI DUP2 SWAP1 POP JUMPDEST PUSH2 0x56E PUSH2 0x566 DUP6 PUSH2 0x425 JUMP JUMPDEST DUP4 ADD DUP3 PUSH2 0x50E JUMP JUMPDEST POP POP JUMPDEST POP POP POP JUMP JUMPDEST PUSH0 DUP3 DUP3 SHR SWAP1 POP SWAP3 SWAP2 POP POP JUMP JUMPDEST PUSH0 PUSH2 0x591 PUSH0 NOT DUP5 PUSH1 0x8 MUL PUSH2 0x576 JUMP JUMPDEST NOT DUP1 DUP4 AND SWAP2 POP POP SWAP3 SWAP2 POP POP JUMP JUMPDEST PUSH0 PUSH2 0x5A9 DUP4 DUP4 PUSH2 0x582 JUMP JUMPDEST SWAP2 POP DUP3 PUSH1 0x2 MUL DUP3 OR SWAP1 POP SWAP3 SWAP2 POP POP JUMP JUMPDEST PUSH2 0x5C2 DUP3 PUSH2 0x3AC JUMP JUMPDEST PUSH8 0xFFFFFFFFFFFFFFFF DUP2 GT ISZERO PUSH2 0x5DB JUMPI PUSH2 0x5DA PUSH2 0x1F5 JUMP JUMPDEST JUMPDEST PUSH2 0x5E5 DUP3 SLOAD PUSH2 0x3E3 JUMP JUMPDEST PUSH2 0x5F0 DUP3 DUP3 DUP6 PUSH2 0x530 JUMP JUMPDEST PUSH0 PUSH1 0x20 SWAP1 POP PUSH1 0x1F DUP4 GT PUSH1 0x1 DUP2 EQ PUSH2 0x621 JUMPI PUSH0 DUP5 ISZERO PUSH2 0x60F JUMPI DUP3 DUP8 ADD MLOAD SWAP1 POP JUMPDEST PUSH2 0x619 DUP6 DUP3 PUSH2 0x59E JUMP JUMPDEST DUP7 SSTORE POP PUSH2 0x680 JUMP JUMPDEST PUSH1 0x1F NOT DUP5 AND PUSH2 0x62F DUP7 PUSH2 0x413 JUMP JUMPDEST PUSH0 JUMPDEST DUP3 DUP2 LT ISZERO PUSH2 0x656 JUMPI DUP5 DUP10 ADD MLOAD DUP3 SSTORE PUSH1 0x1 DUP3 ADD SWAP2 POP PUSH1 0x20 DUP6 ADD SWAP5 POP PUSH1 0x20 DUP2 ADD SWAP1 POP PUSH2 0x631 JUMP JUMPDEST DUP7 DUP4 LT ISZERO PUSH2 0x673 JUMPI DUP5 DUP10 ADD MLOAD PUSH2 0x66F PUSH1 0x1F DUP10 AND DUP3 PUSH2 0x582 JUMP JUMPDEST DUP4 SSTORE POP JUMPDEST PUSH1 0x1 PUSH1 0x2 DUP9 MUL ADD DUP9 SSTORE POP POP POP JUMPDEST POP POP POP POP POP POP JUMP JUMPDEST PUSH2 0x3807 DUP1 PUSH2 0x695 PUSH0 CODECOPY PUSH0 RETURN INVALID PUSH1 0x80 PUSH1 0x40 MSTORE CALLVALUE DUP1 ISZERO PUSH2 0xF JUMPI PUSH0 DUP1 REVERT JUMPDEST POP PUSH1 0x4 CALLDATASIZE LT PUSH2 0x114 JUMPI PUSH0 CALLDATALOAD PUSH1 0xE0 SHR DUP1 PUSH4 0x58DBC45D GT PUSH2 0xA0 JUMPI DUP1 PUSH4 0xA51B7136 GT PUSH2 0x6F JUMPI DUP1 PUSH4 0xA51B7136 EQ PUSH2 0x297 JUMPI DUP1 PUSH4 0xBCA353BE EQ PUSH2 0x2B5 JUMPI DUP1 PUSH4 0xD3E89483 EQ PUSH2 0x2BF JUMPI DUP1 PUSH4 0xD6B683FC EQ PUSH2 0x2F3 JUMPI DUP1 PUSH4 0xF03D96D0 EQ PUSH2 0x311 JUMPI PUSH2 0x114 JUMP JUMPDEST DUP1 PUSH4 0x58DBC45D EQ PUSH2 0x235 JUMPI DUP1 PUSH4 0x6391B488 EQ PUSH2 0x253 JUMPI DUP1 PUSH4 0x78F47501 EQ PUSH2 0x26F JUMPI DUP1 PUSH4 0x8FDA356D EQ PUSH2 0x28D JUMPI PUSH2 0x114 JUMP JUMPDEST DUP1 PUSH4 0x22F3E2D4 GT PUSH2 0xE7 JUMPI DUP1 PUSH4 0x22F3E2D4 EQ PUSH2 0x1A0 JUMPI DUP1 PUSH4 0x235FD7E2 EQ PUSH2 0x1BE JUMPI DUP1 PUSH4 0x42CDE4E8 EQ PUSH2 0x1DA JUMPI DUP1 PUSH4 0x48D33EF2 EQ PUSH2 0x1F8 JUMPI DUP1 PUSH4 0x557ED1BA EQ PUSH2 0x216 JUMPI PUSH2 0x114 JUMP JUMPDEST DUP1 PUSH4 0x2D05D3F EQ PUSH2 0x118 JUMPI DUP1 PUSH4 0xD9F7ED4 EQ PUSH2 0x136 JUMPI DUP1 PUSH4 0x1073D7C1 EQ PUSH2 0x152 JUMPI DUP1 PUSH4 0x1E3B70B4 EQ PUSH2 0x182 JUMPI JUMPDEST PUSH0 DUP1 REVERT JUMPDEST PUSH2 0x120 PUSH2 0x32D JUMP JUMPDEST PUSH1 0x40 MLOAD PUSH2 0x12D SWAP2 SWAP1 PUSH2 0x2692 JUMP JUMPDEST PUSH1 0x40 MLOAD DUP1 SWAP2 SUB SWAP1 RETURN JUMPDEST PUSH2 0x150 PUSH1 0x4 DUP1 CALLDATASIZE SUB DUP2 ADD SWAP1 PUSH2 0x14B SWAP2 SWAP1 PUSH2 0x284E JUMP JUMPDEST PUSH2 0x352 JUMP JUMPDEST STOP JUMPDEST PUSH2 0x16C PUSH1 0x4 DUP1 CALLDATASIZE SUB DUP2 ADD SWAP1 PUSH2 0x167 SWAP2 SWAP1 PUSH2 0x2919 JUMP JUMPDEST PUSH2 0x76C JUMP JUMPDEST PUSH1 0x40 MLOAD PUSH2 0x179 SWAP2 SWAP1 PUSH2 0x29A9 JUMP JUMPDEST PUSH1 0x40 MLOAD DUP1 SWAP2 SUB SWAP1 RETURN JUMPDEST PUSH2 0x18A PUSH2 0x14C0 JUMP JUMPDEST PUSH1 0x40 MLOAD PUSH2 0x197 SWAP2 SWAP1 PUSH2 0x2A22 JUMP JUMPDEST PUSH1 0x40 MLOAD DUP1 SWAP2 SUB SWAP1 RETURN JUMPDEST PUSH2 0x1A8 PUSH2 0x154C JUMP JUMPDEST PUSH1 0x40 MLOAD PUSH2 0x1B5 SWAP2 SWAP1 PUSH2 0x29A9 JUMP JUMPDEST PUSH1 0x40 MLOAD DUP1 SWAP2 SUB SWAP1 RETURN JUMPDEST PUSH2 0x1D8 PUSH1 0x4 DUP1 CALLDATASIZE SUB DUP2 ADD SWAP1 PUSH2 0x1D3 SWAP2 SWAP1 PUSH2 0x2A42 JUMP JUMPDEST PUSH2 0x155E JUMP JUMPDEST STOP JUMPDEST PUSH2 0x1E2 PUSH2 0x18F7 JUMP JUMPDEST PUSH1 0x40 MLOAD PUSH2 0x1EF SWAP2 SWAP1 PUSH2 0x2A7C JUMP JUMPDEST PUSH1 0x40 MLOAD DUP1 SWAP2 SUB SWAP1 RETURN JUMPDEST PUSH2 0x200 PUSH2 0x18FD JUMP JUMPDEST PUSH1 0x40 MLOAD PUSH2 0x20D SWAP2 SWAP1 PUSH2 0x2A7C JUMP JUMPDEST PUSH1 0x40 MLOAD DUP1 SWAP2 SUB SWAP1 RETURN JUMPDEST PUSH2 0x21E PUSH2 0x1903 JUMP JUMPDEST PUSH1 0x40 MLOAD PUSH2 0x22C SWAP3 SWAP2 SWAP1 PUSH2 0x2A95 JUMP JUMPDEST PUSH1 0x40 MLOAD DUP1 SWAP2 SUB SWAP1 RETURN JUMPDEST PUSH2 0x23D PUSH2 0x19BB JUMP JUMPDEST PUSH1 0x40 MLOAD PUSH2 0x24A SWAP2 SWAP1 PUSH2 0x2692 JUMP JUMPDEST PUSH1 0x40 MLOAD DUP1 SWAP2 SUB SWAP1 RETURN JUMPDEST PUSH2 0x26D PUSH1 0x4 DUP1 CALLDATASIZE SUB DUP2 ADD SWAP1 PUSH2 0x268 SWAP2 SWAP1 PUSH2 0x2ABC JUMP JUMPDEST PUSH2 0x19E1 JUMP JUMPDEST STOP JUMPDEST PUSH2 0x277 PUSH2 0x1DCB JUMP JUMPDEST PUSH1 0x40 MLOAD PUSH2 0x284 SWAP2 SWAP1 PUSH2 0x2692 JUMP JUMPDEST PUSH1 0x40 MLOAD DUP1 SWAP2 SUB SWAP1 RETURN JUMPDEST PUSH2 0x295 PUSH2 0x1DF0 JUMP JUMPDEST STOP JUMPDEST PUSH2 0x29F PUSH2 0x20A5 JUMP JUMPDEST PUSH1 0x40 MLOAD PUSH2 0x2AC SWAP2 SWAP1 PUSH2 0x2BCF JUMP JUMPDEST PUSH1 0x40 MLOAD DUP1 SWAP2 SUB SWAP1 RETURN JUMPDEST PUSH2 0x2BD PUSH2 0x20CA JUMP JUMPDEST STOP JUMPDEST PUSH2 0x2D9 PUSH1 0x4 DUP1 CALLDATASIZE SUB DUP2 ADD SWAP1 PUSH2 0x2D4 SWAP2 SWAP1 PUSH2 0x2A42 JUMP JUMPDEST PUSH2 0x237E JUMP JUMPDEST PUSH1 0x40 MLOAD PUSH2 0x2EA SWAP6 SWAP5 SWAP4 SWAP3 SWAP2 SWAP1 PUSH2 0x2C5B JUMP JUMPDEST PUSH1 0x40 MLOAD DUP1 SWAP2 SUB SWAP1 RETURN JUMPDEST PUSH2 0x2FB PUSH2 0x255C JUMP JUMPDEST PUSH1 0x40 MLOAD PUSH2 0x308 SWAP2 SWAP1 PUSH2 0x2CE1 JUMP JUMPDEST PUSH1 0x40 MLOAD DUP1 SWAP2 SUB SWAP1 RETURN JUMPDEST PUSH2 0x32B PUSH1 0x4 DUP1 CALLDATASIZE SUB DUP2 ADD SWAP1 PUSH2 0x326 SWAP2 SWAP1 PUSH2 0x2D24 JUMP JUMPDEST PUSH2 0x2581 JUMP JUMPDEST STOP JUMPDEST PUSH1 0x7 PUSH0 SWAP1 SLOAD SWAP1 PUSH2 0x100 EXP SWAP1 DIV PUSH20 0xFFFFFFFFFFFFFFFFFFFFFFFFFFFFFFFFFFFFFFFF AND DUP2 JUMP JUMPDEST PUSH1 0x4 PUSH0 SWAP1 SLOAD SWAP1 PUSH2 0x100 EXP SWAP1 DIV PUSH1 0xFF AND PUSH2 0x3A0 JUMPI PUSH1 0x40 MLOAD PUSH32 0x8C379A000000000000000000000000000000000000000000000000000000000 DUP2 MSTORE PUSH1 0x4 ADD PUSH2 0x397 SWAP1 PUSH2 0x2D99 JUMP JUMPDEST PUSH1 0x40 MLOAD DUP1 SWAP2 SUB SWAP1 REVERT JUMPDEST PUSH0 PUSH1 0x1 PUSH0 SWAP1 SLOAD SWAP1 PUSH2 0x100 EXP SWAP1 DIV PUSH20 0xFFFFFFFFFFFFFFFFFFFFFFFFFFFFFFFFFFFFFFFF AND PUSH20 0xFFFFFFFFFFFFFFFFFFFFFFFFFFFFFFFFFFFFFFFF AND PUSH4 0xE104278 CALLER PUSH1 0x40 MLOAD DUP3 PUSH4 0xFFFFFFFF AND PUSH1 0xE0 SHL DUP2 MSTORE PUSH1 0x4 ADD PUSH2 0x3FB SWAP2 SWAP1 PUSH2 0x2692 JUMP JUMPDEST PUSH1 0x20 PUSH1 0x40 MLOAD DUP1 DUP4 SUB DUP2 DUP7 GAS STATICCALL ISZERO DUP1 ISZERO PUSH2 0x416 JUMPI RETURNDATASIZE PUSH0 DUP1 RETURNDATACOPY RETURNDATASIZE PUSH0 REVERT JUMPDEST POP POP POP POP PUSH1 0x40 MLOAD RETURNDATASIZE PUSH1 0x1F NOT PUSH1 0x1F DUP3 ADD AND DUP3 ADD DUP1 PUSH1 0x40 MSTORE POP DUP2 ADD SWAP1 PUSH2 0x43A SWAP2 SWAP1 PUSH2 0x2DCB JUMP JUMPDEST SWAP1 POP DUP1 TIMESTAMP GT PUSH2 0x47E JUMPI PUSH1 0x40 MLOAD PUSH32 0x8C379A000000000000000000000000000000000000000000000000000000000 DUP2 MSTORE PUSH1 0x4 ADD PUSH2 0x475 SWAP1 PUSH2 0x2E66 JUMP JUMPDEST PUSH1 0x40 MLOAD DUP1 SWAP2 SUB SWAP1 REVERT JUMPDEST PUSH1 0x40 MLOAD DUP1 PUSH1 0x40 ADD PUSH1 0x40 MSTORE DUP1 PUSH1 0x1B DUP2 MSTORE PUSH1 0x20 ADD PUSH32 0x556E617574686F72697A65642061636365737320617474656D70740000000000 DUP2 MSTORE POP PUSH1 0x7 PUSH0 SWAP1 SLOAD SWAP1 PUSH2 0x100 EXP SWAP1 DIV PUSH20 0xFFFFFFFFFFFFFFFFFFFFFFFFFFFFFFFFFFFFFFFF AND PUSH20 0xFFFFFFFFFFFFFFFFFFFFFFFFFFFFFFFFFFFFFFFF AND CALLER PUSH20 0xFFFFFFFFFFFFFFFFFFFFFFFFFFFFFFFFFFFFFFFF AND EQ PUSH2 0x60A JUMPI PUSH0 DUP1 PUSH0 PUSH1 0x1 PUSH0 SWAP1 SLOAD SWAP1 PUSH2 0x100 EXP SWAP1 DIV PUSH20 0xFFFFFFFFFFFFFFFFFFFFFFFFFFFFFFFFFFFFFFFF AND PUSH20 0xFFFFFFFFFFFFFFFFFFFFFFFFFFFFFFFFFFFFFFFF AND PUSH4 0xC4DF01CE CALLER DUP7 PUSH1 0x40 MLOAD DUP4 PUSH4 0xFFFFFFFF AND PUSH1 0xE0 SHL DUP2 MSTORE PUSH1 0x4 ADD PUSH2 0x567 SWAP3 SWAP2 SWAP1 PUSH2 0x2E84 JUMP JUMPDEST PUSH0 PUSH1 0x40 MLOAD DUP1 DUP4 SUB DUP2 PUSH0 DUP8 GAS CALL ISZERO DUP1 ISZERO PUSH2 0x582 JUMPI RETURNDATASIZE PUSH0 DUP1 RETURNDATACOPY RETURNDATASIZE PUSH0 REVERT JUMPDEST POP POP POP POP PUSH1 0x40 MLOAD RETURNDATASIZE PUSH0 DUP3 RETURNDATACOPY RETURNDATASIZE PUSH1 0x1F NOT PUSH1 0x1F DUP3 ADD AND DUP3 ADD DUP1 PUSH1 0x40 MSTORE POP DUP2 ADD SWAP1 PUSH2 0x5AA SWAP2 SWAP1 PUSH2 0x2F20 JUMP JUMPDEST SWAP3 POP SWAP3 POP SWAP3 POP CALLER PUSH20 0xFFFFFFFFFFFFFFFFFFFFFFFFFFFFFFFFFFFFFFFF AND PUSH32 0x3FC8DE32D0FF2767D320C8C52FD3AB1A29DDF9484B23575845D542369BDFA37F DUP5 DUP5 DUP5 PUSH1 0x40 MLOAD PUSH2 0x5FA SWAP4 SWAP3 SWAP2 SWAP1 PUSH2 0x2F8C JUMP JUMPDEST PUSH1 0x40 MLOAD DUP1 SWAP2 SUB SWAP1 LOG2 POP POP POP PUSH2 0x763 JUMP JUMPDEST PUSH0 DUP1 SLOAD SWAP1 POP DUP8 LT PUSH2 0x650 JUMPI PUSH1 0x40 MLOAD PUSH32 0x8C379A000000000000000000000000000000000000000000000000000000000 DUP2 MSTORE PUSH1 0x4 ADD PUSH2 0x647 SWAP1 PUSH2 0x3012 JUMP JUMPDEST PUSH1 0x40 MLOAD DUP1 SWAP2 SUB SWAP1 REVERT JUMPDEST PUSH1 0x40 MLOAD DUP1 PUSH1 0xA0 ADD PUSH1 0x40 MSTORE DUP1 DUP8 PUSH1 0x4 DUP2 GT ISZERO PUSH2 0x66E JUMPI PUSH2 0x66D PUSH2 0x2BE8 JUMP JUMPDEST JUMPDEST DUP2 MSTORE PUSH1 0x20 ADD DUP7 DUP2 MSTORE PUSH1 0x20 ADD DUP6 DUP2 MSTORE PUSH1 0x20 ADD DUP5 DUP2 MSTORE PUSH1 0x20 ADD PUSH0 DUP2 MSTORE POP PUSH0 DUP9 DUP2 SLOAD DUP2 LT PUSH2 0x69C JUMPI PUSH2 0x69B PUSH2 0x3030 JUMP JUMPDEST JUMPDEST SWAP1 PUSH0 MSTORE PUSH1 0x20 PUSH0 KECCAK256 SWAP1 PUSH1 0x5 MUL ADD PUSH0 DUP3 ADD MLOAD DUP2 PUSH0 ADD PUSH0 PUSH2 0x100 EXP DUP2 SLOAD DUP2 PUSH1 0xFF MUL NOT AND SWAP1 DUP4 PUSH1 0x4 DUP2 GT ISZERO PUSH2 0x6D0 JUMPI PUSH2 0x6CF PUSH2 0x2BE8 JUMP JUMPDEST JUMPDEST MUL OR SWAP1 SSTORE POP PUSH1 0x20 DUP3 ADD MLOAD DUP2 PUSH1 0x1 ADD SWAP1 DUP2 PUSH2 0x6EA SWAP2 SWAP1 PUSH2 0x324E JUMP JUMPDEST POP PUSH1 0x40 DUP3 ADD MLOAD DUP2 PUSH1 0x2 ADD SWAP1 DUP2 PUSH2 0x700 SWAP2 SWAP1 PUSH2 0x324E JUMP JUMPDEST POP PUSH1 0x60 DUP3 ADD MLOAD DUP2 PUSH1 0x3 ADD SWAP1 DUP2 PUSH2 0x716 SWAP2 SWAP1 PUSH2 0x324E JUMP JUMPDEST POP PUSH1 0x80 DUP3 ADD MLOAD DUP2 PUSH1 0x4 ADD SSTORE SWAP1 POP POP DUP7 PUSH32 0x4A878BB267CEDAA636258D749DB7A5AC8F0CC2338419D6B0429443D8A11D5470 DUP8 DUP8 DUP8 DUP8 PUSH1 0x40 MLOAD PUSH2 0x75A SWAP5 SWAP4 SWAP3 SWAP2 SWAP1 PUSH2 0x331D JUMP JUMPDEST PUSH1 0x40 MLOAD DUP1 SWAP2 SUB SWAP1 LOG2 JUMPDEST POP POP POP POP POP POP POP JUMP JUMPDEST PUSH0 PUSH1 0x4 PUSH0 SWAP1 SLOAD SWAP1 PUSH2 0x100 EXP SWAP1 DIV PUSH1 0xFF AND PUSH2 0x7BB JUMPI PUSH1 0x40 MLOAD PUSH32 0x8C379A000000000000000000000000000000000000000000000000000000000 DUP2 MSTORE PUSH1 0x4 ADD PUSH2 0x7B2 SWAP1 PUSH2 0x2D99 JUMP JUMPDEST PUSH1 0x40 MLOAD DUP1 SWAP2 SUB SWAP1 REVERT JUMPDEST PUSH0 PUSH1 0x1 PUSH0 SWAP1 SLOAD SWAP1 PUSH2 0x100 EXP SWAP1 DIV PUSH20 0xFFFFFFFFFFFFFFFFFFFFFFFFFFFFFFFFFFFFFFFF AND PUSH20 0xFFFFFFFFFFFFFFFFFFFFFFFFFFFFFFFFFFFFFFFF AND PUSH4 0xE104278 CALLER PUSH1 0x40 MLOAD DUP3 PUSH4 0xFFFFFFFF AND PUSH1 0xE0 SHL DUP2 MSTORE PUSH1 0x4 ADD PUSH2 0x816 SWAP2 SWAP1 PUSH2 0x2692 JUMP JUMPDEST PUSH1 0x20 PUSH1 0x40 MLOAD DUP1 DUP4 SUB DUP2 DUP7 GAS STATICCALL ISZERO DUP1 ISZERO PUSH2 0x831 JUMPI RETURNDATASIZE PUSH0 DUP1 RETURNDATACOPY RETURNDATASIZE PUSH0 REVERT JUMPDEST POP POP POP POP PUSH1 0x40 MLOAD RETURNDATASIZE PUSH1 0x1F NOT PUSH1 0x1F DUP3 ADD AND DUP3 ADD DUP1 PUSH1 0x40 MSTORE POP DUP2 ADD SWAP1 PUSH2 0x855 SWAP2 SWAP1 PUSH2 0x2DCB JUMP JUMPDEST SWAP1 POP DUP1 TIMESTAMP GT PUSH2 0x899 JUMPI PUSH1 0x40 MLOAD PUSH32 0x8C379A000000000000000000000000000000000000000000000000000000000 DUP2 MSTORE PUSH1 0x4 ADD PUSH2 0x890 SWAP1 PUSH2 0x2E66 JUMP JUMPDEST PUSH1 0x40 MLOAD DUP1 SWAP2 SUB SWAP1 REVERT JUMPDEST CALLER PUSH20 0xFFFFFFFFFFFFFFFFFFFFFFFFFFFFFFFFFFFFFFFF AND PUSH1 0x4 PUSH1 0x1 SWAP1 SLOAD SWAP1 PUSH2 0x100 EXP SWAP1 DIV PUSH20 0xFFFFFFFFFFFFFFFFFFFFFFFFFFFFFFFFFFFFFFFF AND PUSH20 0xFFFFFFFFFFFFFFFFFFFFFFFFFFFFFFFFFFFFFFFF AND EQ PUSH2 0x929 JUMPI PUSH1 0x40 MLOAD PUSH32 0x8C379A000000000000000000000000000000000000000000000000000000000 DUP2 MSTORE PUSH1 0x4 ADD PUSH2 0x920 SWAP1 PUSH2 0x33BF JUMP JUMPDEST PUSH1 0x40 MLOAD DUP1 SWAP2 SUB SWAP1 REVERT JUMPDEST PUSH0 PUSH1 0x2 PUSH0 SWAP1 SLOAD SWAP1 PUSH2 0x100 EXP SWAP1 DIV PUSH20 0xFFFFFFFFFFFFFFFFFFFFFFFFFFFFFFFFFFFFFFFF AND PUSH20 0xFFFFFFFFFFFFFFFFFFFFFFFFFFFFFFFFFFFFFFFF AND PUSH4 0x44276733 CALLER PUSH1 0x40 MLOAD DUP3 PUSH4 0xFFFFFFFF AND PUSH1 0xE0 SHL DUP2 MSTORE PUSH1 0x4 ADD PUSH2 0x984 SWAP2 SWAP1 PUSH2 0x2692 JUMP JUMPDEST PUSH1 0x20 PUSH1 0x40 MLOAD DUP1 DUP4 SUB DUP2 DUP7 GAS STATICCALL ISZERO DUP1 ISZERO PUSH2 0x99F JUMPI RETURNDATASIZE PUSH0 DUP1 RETURNDATACOPY RETURNDATASIZE PUSH0 REVERT JUMPDEST POP POP POP POP PUSH1 0x40 MLOAD RETURNDATASIZE PUSH1 0x1F NOT PUSH1 0x1F DUP3 ADD AND DUP3 ADD DUP1 PUSH1 0x40 MSTORE POP DUP2 ADD SWAP1 PUSH2 0x9C3 SWAP2 SWAP1 PUSH2 0x33F1 JUMP JUMPDEST SWAP1 POP PUSH0 JUMPDEST PUSH0 DUP1 SLOAD SWAP1 POP DUP2 LT ISZERO PUSH2 0x119B JUMPI DUP2 PUSH1 0x4 DUP2 GT ISZERO PUSH2 0x9E6 JUMPI PUSH2 0x9E5 PUSH2 0x2BE8 JUMP JUMPDEST JUMPDEST PUSH0 DUP3 DUP2 SLOAD DUP2 LT PUSH2 0x9F9 JUMPI PUSH2 0x9F8 PUSH2 0x3030 JUMP JUMPDEST JUMPDEST SWAP1 PUSH0 MSTORE PUSH1 0x20 PUSH0 KECCAK256 SWAP1 PUSH1 0x5 MUL ADD PUSH0 ADD PUSH0 SWAP1 SLOAD SWAP1 PUSH2 0x100 EXP SWAP1 DIV PUSH1 0xFF AND PUSH1 0x4 DUP2 GT ISZERO PUSH2 0xA26 JUMPI PUSH2 0xA25 PUSH2 0x2BE8 JUMP JUMPDEST JUMPDEST EQ DUP1 ISZERO PUSH2 0xA6F JUMPI POP DUP6 DUP1 MLOAD SWAP1 PUSH1 0x20 ADD KECCAK256 PUSH0 DUP3 DUP2 SLOAD DUP2 LT PUSH2 0xA49 JUMPI PUSH2 0xA48 PUSH2 0x3030 JUMP JUMPDEST JUMPDEST SWAP1 PUSH0 MSTORE PUSH1 0x20 PUSH0 KECCAK256 SWAP1 PUSH1 0x5 MUL ADD PUSH1 0x1 ADD PUSH1 0x40 MLOAD PUSH2 0xA65 SWAP2 SWAP1 PUSH2 0x34B8 JUMP JUMPDEST PUSH1 0x40 MLOAD DUP1 SWAP2 SUB SWAP1 KECCAK256 EQ JUMPDEST DUP1 ISZERO PUSH2 0xAB7 JUMPI POP DUP5 DUP1 MLOAD SWAP1 PUSH1 0x20 ADD KECCAK256 PUSH0 DUP3 DUP2 SLOAD DUP2 LT PUSH2 0xA91 JUMPI PUSH2 0xA90 PUSH2 0x3030 JUMP JUMPDEST JUMPDEST SWAP1 PUSH0 MSTORE PUSH1 0x20 PUSH0 KECCAK256 SWAP1 PUSH1 0x5 MUL ADD PUSH1 0x2 ADD PUSH1 0x40 MLOAD PUSH2 0xAAD SWAP2 SWAP1 PUSH2 0x34B8 JUMP JUMPDEST PUSH1 0x40 MLOAD DUP1 SWAP2 SUB SWAP1 KECCAK256 EQ JUMPDEST ISZERO PUSH2 0x118E JUMPI PUSH1 0x3 SLOAD PUSH0 DUP3 DUP2 SLOAD DUP2 LT PUSH2 0xAD2 JUMPI PUSH2 0xAD1 PUSH2 0x3030 JUMP JUMPDEST JUMPDEST SWAP1 PUSH0 MSTORE PUSH1 0x20 PUSH0 KECCAK256 SWAP1 PUSH1 0x5 MUL ADD PUSH1 0x4 ADD SLOAD PUSH2 0xAEC SWAP2 SWAP1 PUSH2 0x34FB JUMP JUMPDEST TIMESTAMP LT ISZERO PUSH2 0xC1A JUMPI PUSH0 DUP1 PUSH0 PUSH1 0x1 PUSH0 SWAP1 SLOAD SWAP1 PUSH2 0x100 EXP SWAP1 DIV PUSH20 0xFFFFFFFFFFFFFFFFFFFFFFFFFFFFFFFFFFFFFFFF AND PUSH20 0xFFFFFFFFFFFFFFFFFFFFFFFFFFFFFFFFFFFFFFFF AND PUSH4 0xC4DF01CE CALLER PUSH1 0x40 MLOAD DUP3 PUSH4 0xFFFFFFFF AND PUSH1 0xE0 SHL DUP2 MSTORE PUSH1 0x4 ADD PUSH2 0xB50 SWAP2 SWAP1 PUSH2 0x3578 JUMP JUMPDEST PUSH0 PUSH1 0x40 MLOAD DUP1 DUP4 SUB DUP2 PUSH0 DUP8 GAS CALL ISZERO DUP1 ISZERO PUSH2 0xB6B JUMPI RETURNDATASIZE PUSH0 DUP1 RETURNDATACOPY RETURNDATASIZE PUSH0 REVERT JUMPDEST POP POP POP POP PUSH1 0x40 MLOAD RETURNDATASIZE PUSH0 DUP3 RETURNDATACOPY RETURNDATASIZE PUSH1 0x1F NOT PUSH1 0x1F DUP3 ADD AND DUP3 ADD DUP1 PUSH1 0x40 MSTORE POP DUP2 ADD SWAP1 PUSH2 0xB93 SWAP2 SWAP1 PUSH2 0x2F20 JUMP JUMPDEST SWAP3 POP SWAP3 POP SWAP3 POP PUSH1 0x4 PUSH1 0x1 SWAP1 SLOAD SWAP1 PUSH2 0x100 EXP SWAP1 DIV PUSH20 0xFFFFFFFFFFFFFFFFFFFFFFFFFFFFFFFFFFFFFFFF AND PUSH20 0xFFFFFFFFFFFFFFFFFFFFFFFFFFFFFFFFFFFFFFFF AND PUSH32 0x3FC8DE32D0FF2767D320C8C52FD3AB1A29DDF9484B23575845D542369BDFA37F DUP5 DUP5 DUP5 PUSH1 0x40 MLOAD PUSH2 0xC05 SWAP4 SWAP3 SWAP2 SWAP1 PUSH2 0x2F8C JUMP JUMPDEST PUSH1 0x40 MLOAD DUP1 SWAP2 SUB SWAP1 LOG2 PUSH0 SWAP7 POP POP POP POP POP POP PUSH2 0x14B9 JUMP JUMPDEST TIMESTAMP PUSH0 DUP3 DUP2 SLOAD DUP2 LT PUSH2 0xC2E JUMPI PUSH2 0xC2D PUSH2 0x3030 JUMP JUMPDEST JUMPDEST SWAP1 PUSH0 MSTORE PUSH1 0x20 PUSH0 KECCAK256 SWAP1 PUSH1 0x5 MUL ADD PUSH1 0x4 ADD DUP2 SWAP1 SSTORE POP PUSH1 0x4 PUSH1 0x1 SWAP1 SLOAD SWAP1 PUSH2 0x100 EXP SWAP1 DIV PUSH20 0xFFFFFFFFFFFFFFFFFFFFFFFFFFFFFFFFFFFFFFFF AND PUSH20 0xFFFFFFFFFFFFFFFFFFFFFFFFFFFFFFFFFFFFFFFF AND PUSH32 0x5003BA6DA275D66409E57DB43F48416FFF9168F7954C0DA01FB2FFB3112C45A8 DUP4 DUP9 DUP9 PUSH1 0x40 MLOAD DUP1 PUSH1 0x40 ADD PUSH1 0x40 MSTORE DUP1 PUSH1 0x5 DUP2 MSTORE PUSH1 0x20 ADD PUSH32 0x616C6C6F77000000000000000000000000000000000000000000000000000000 DUP2 MSTORE POP DUP1 MLOAD SWAP1 PUSH1 0x20 ADD KECCAK256 PUSH0 DUP8 DUP2 SLOAD DUP2 LT PUSH2 0xCEE JUMPI PUSH2 0xCED PUSH2 0x3030 JUMP JUMPDEST JUMPDEST SWAP1 PUSH0 MSTORE PUSH1 0x20 PUSH0 KECCAK256 SWAP1 PUSH1 0x5 MUL ADD PUSH1 0x3 ADD PUSH1 0x40 MLOAD PUSH2 0xD0A SWAP2 SWAP1 PUSH2 0x34B8 JUMP JUMPDEST PUSH1 0x40 MLOAD DUP1 SWAP2 SUB SWAP1 KECCAK256 EQ PUSH1 0x40 MLOAD PUSH2 0xD23 SWAP5 SWAP4 SWAP3 SWAP2 SWAP1 PUSH2 0x35A4 JUMP JUMPDEST PUSH1 0x40 MLOAD DUP1 SWAP2 SUB SWAP1 LOG2 PUSH0 PUSH1 0x40 MLOAD DUP1 PUSH1 0x40 ADD PUSH1 0x40 MSTORE DUP1 PUSH1 0x5 DUP2 MSTORE PUSH1 0x20 ADD PUSH32 0x616C6C6F77000000000000000000000000000000000000000000000000000000 DUP2 MSTORE POP DUP1 MLOAD SWAP1 PUSH1 0x20 ADD KECCAK256 PUSH0 DUP4 DUP2 SLOAD DUP2 LT PUSH2 0xD7C JUMPI PUSH2 0xD7B PUSH2 0x3030 JUMP JUMPDEST JUMPDEST SWAP1 PUSH0 MSTORE PUSH1 0x20 PUSH0 KECCAK256 SWAP1 PUSH1 0x5 MUL ADD PUSH1 0x3 ADD PUSH1 0x40 MLOAD PUSH2 0xD98 SWAP2 SWAP1 PUSH2 0x34B8 JUMP JUMPDEST PUSH1 0x40 MLOAD DUP1 SWAP2 SUB SWAP1 KECCAK256 EQ SWAP1 POP DUP1 ISZERO PUSH2 0xEA3 JUMPI PUSH0 DUP1 PUSH1 0x1 PUSH0 SWAP1 SLOAD SWAP1 PUSH2 0x100 EXP SWAP1 DIV PUSH20 0xFFFFFFFFFFFFFFFFFFFFFFFFFFFFFFFFFFFFFFFF AND PUSH20 0xFFFFFFFFFFFFFFFFFFFFFFFFFFFFFFFFFFFFFFFF AND PUSH4 0x1E349D1C CALLER PUSH1 0x40 MLOAD DUP3 PUSH4 0xFFFFFFFF AND PUSH1 0xE0 SHL DUP2 MSTORE PUSH1 0x4 ADD PUSH2 0xE05 SWAP2 SWAP1 PUSH2 0x2692 JUMP JUMPDEST PUSH0 PUSH1 0x40 MLOAD DUP1 DUP4 SUB DUP2 PUSH0 DUP8 GAS CALL ISZERO DUP1 ISZERO PUSH2 0xE20 JUMPI RETURNDATASIZE PUSH0 DUP1 RETURNDATACOPY RETURNDATASIZE PUSH0 REVERT JUMPDEST POP POP POP POP PUSH1 0x40 MLOAD RETURNDATASIZE PUSH0 DUP3 RETURNDATACOPY RETURNDATASIZE PUSH1 0x1F NOT PUSH1 0x1F DUP3 ADD AND DUP3 ADD DUP1 PUSH1 0x40 MSTORE POP DUP2 ADD SWAP1 PUSH2 0xE48 SWAP2 SWAP1 PUSH2 0x35F5 JUMP JUMPDEST SWAP2 POP SWAP2 POP CALLER PUSH20 0xFFFFFFFFFFFFFFFFFFFFFFFFFFFFFFFFFFFFFFFF AND PUSH32 0x99160C89FDCCB67E1961CF554A10FFFB3DBBB7B2CD44A817F2AAC33DEB57D9D7 DUP4 DUP4 PUSH1 0x40 MLOAD PUSH2 0xE94 SWAP3 SWAP2 SWAP1 PUSH2 0x364F JUMP JUMPDEST PUSH1 0x40 MLOAD DUP1 SWAP2 SUB SWAP1 LOG2 POP POP PUSH2 0x1183 JUMP JUMPDEST PUSH1 0x40 MLOAD DUP1 PUSH1 0x40 ADD PUSH1 0x40 MSTORE DUP1 PUSH1 0x4 DUP2 MSTORE PUSH1 0x20 ADD PUSH32 0x6564697400000000000000000000000000000000000000000000000000000000 DUP2 MSTORE POP DUP1 MLOAD SWAP1 PUSH1 0x20 ADD KECCAK256 DUP7 DUP1 MLOAD SWAP1 PUSH1 0x20 ADD KECCAK256 EQ DUP1 PUSH2 0xF36 JUMPI POP PUSH1 0x40 MLOAD DUP1 PUSH1 0x40 ADD PUSH1 0x40 MSTORE DUP1 PUSH1 0x6 DUP2 MSTORE PUSH1 0x20 ADD PUSH32 0x64656C6574650000000000000000000000000000000000000000000000000000 DUP2 MSTORE POP DUP1 MLOAD SWAP1 PUSH1 0x20 ADD KECCAK256 DUP7 DUP1 MLOAD SWAP1 PUSH1 0x20 ADD KECCAK256 EQ JUMPDEST ISZERO PUSH2 0x103B JUMPI PUSH0 DUP1 PUSH0 PUSH1 0x1 PUSH0 SWAP1 SLOAD SWAP1 PUSH2 0x100 EXP SWAP1 DIV PUSH20 0xFFFFFFFFFFFFFFFFFFFFFFFFFFFFFFFFFFFFFFFF AND PUSH20 0xFFFFFFFFFFFFFFFFFFFFFFFFFFFFFFFFFFFFFFFF AND PUSH4 0xC4DF01CE CALLER PUSH1 0x40 MLOAD DUP3 PUSH4 0xFFFFFFFF AND PUSH1 0xE0 SHL DUP2 MSTORE PUSH1 0x4 ADD PUSH2 0xF98 SWAP2 SWAP1 PUSH2 0x36C7 JUMP JUMPDEST PUSH0 PUSH1 0x40 MLOAD DUP1 DUP4 SUB DUP2 PUSH0 DUP8 GAS CALL ISZERO DUP1 ISZERO PUSH2 0xFB3 JUMPI RETURNDATASIZE PUSH0 DUP1 RETURNDATACOPY RETURNDATASIZE PUSH0 REVERT JUMPDEST POP POP POP POP PUSH1 0x40 MLOAD RETURNDATASIZE PUSH0 DUP3 RETURNDATACOPY RETURNDATASIZE PUSH1 0x1F NOT PUSH1 0x1F DUP3 ADD AND DUP3 ADD DUP1 PUSH1 0x40 MSTORE POP DUP2 ADD SWAP1 PUSH2 0xFDB SWAP2 SWAP1 PUSH2 0x2F20 JUMP JUMPDEST SWAP3 POP SWAP3 POP SWAP3 POP CALLER PUSH20 0xFFFFFFFFFFFFFFFFFFFFFFFFFFFFFFFFFFFFFFFF AND PUSH32 0x3FC8DE32D0FF2767D320C8C52FD3AB1A29DDF9484B23575845D542369BDFA37F DUP5 DUP5 DUP5 PUSH1 0x40 MLOAD PUSH2 0x102B SWAP4 SWAP3 SWAP2 SWAP1 PUSH2 0x2F8C JUMP JUMPDEST PUSH1 0x40 MLOAD DUP1 SWAP2 SUB SWAP1 LOG2 POP POP POP PUSH2 0x1182 JUMP JUMPDEST PUSH1 0x40 MLOAD DUP1 PUSH1 0x40 ADD PUSH1 0x40 MSTORE DUP1 PUSH1 0x4 DUP2 MSTORE PUSH1 0x20 ADD PUSH32 0x7669657700000000000000000000000000000000000000000000000000000000 DUP2 MSTORE POP DUP1 MLOAD SWAP1 PUSH1 0x20 ADD KECCAK256 DUP7 DUP1 MLOAD SWAP1 PUSH1 0x20 ADD KECCAK256 SUB PUSH2 0x1181 JUMPI PUSH0 DUP1 PUSH0 PUSH1 0x1 PUSH0 SWAP1 SLOAD SWAP1 PUSH2 0x100 EXP SWAP1 DIV PUSH20 0xFFFFFFFFFFFFFFFFFFFFFFFFFFFFFFFFFFFFFFFF AND PUSH20 0xFFFFFFFFFFFFFFFFFFFFFFFFFFFFFFFFFFFFFFFF AND PUSH4 0xC4DF01CE CALLER PUSH1 0x40 MLOAD DUP3 PUSH4 0xFFFFFFFF AND PUSH1 0xE0 SHL DUP2 MSTORE PUSH1 0x4 ADD PUSH2 0x10E2 SWAP2 SWAP1 PUSH2 0x373D JUMP JUMPDEST PUSH0 PUSH1 0x40 MLOAD DUP1 DUP4 SUB DUP2 PUSH0 DUP8 GAS CALL ISZERO DUP1 ISZERO PUSH2 0x10FD JUMPI RETURNDATASIZE PUSH0 DUP1 RETURNDATACOPY RETURNDATASIZE PUSH0 REVERT JUMPDEST POP POP POP POP PUSH1 0x40 MLOAD RETURNDATASIZE PUSH0 DUP3 RETURNDATACOPY RETURNDATASIZE PUSH1 0x1F NOT PUSH1 0x1F DUP3 ADD AND DUP3 ADD DUP1 PUSH1 0x40 MSTORE POP DUP2 ADD SWAP1 PUSH2 0x1125 SWAP2 SWAP1 PUSH2 0x2F20 JUMP JUMPDEST SWAP3 POP SWAP3 POP SWAP3 POP CALLER PUSH20 0xFFFFFFFFFFFFFFFFFFFFFFFFFFFFFFFFFFFFFFFF AND PUSH32 0x3FC8DE32D0FF2767D320C8C52FD3AB1A29DDF9484B23575845D542369BDFA37F DUP5 DUP5 DUP5 PUSH1 0x40 MLOAD PUSH2 0x1175 SWAP4 SWAP3 SWAP2 SWAP1 PUSH2 0x2F8C JUMP JUMPDEST PUSH1 0x40 MLOAD DUP1 SWAP2 SUB SWAP1 LOG2 POP POP POP JUMPDEST JUMPDEST JUMPDEST DUP1 SWAP5 POP POP POP POP PUSH2 0x14B9 JUMP JUMPDEST DUP1 DUP1 PUSH1 0x1 ADD SWAP2 POP POP PUSH2 0x9C7 JUMP JUMPDEST POP PUSH1 0x40 MLOAD DUP1 PUSH1 0x40 ADD PUSH1 0x40 MSTORE DUP1 PUSH1 0x4 DUP2 MSTORE PUSH1 0x20 ADD PUSH32 0x6564697400000000000000000000000000000000000000000000000000000000 DUP2 MSTORE POP DUP1 MLOAD SWAP1 PUSH1 0x20 ADD KECCAK256 DUP5 DUP1 MLOAD SWAP1 PUSH1 0x20 ADD KECCAK256 EQ DUP1 PUSH2 0x122F JUMPI POP PUSH1 0x40 MLOAD DUP1 PUSH1 0x40 ADD PUSH1 0x40 MSTORE DUP1 PUSH1 0x6 DUP2 MSTORE PUSH1 0x20 ADD PUSH32 0x64656C6574650000000000000000000000000000000000000000000000000000 DUP2 MSTORE POP DUP1 MLOAD SWAP1 PUSH1 0x20 ADD KECCAK256 DUP5 DUP1 MLOAD SWAP1 PUSH1 0x20 ADD KECCAK256 EQ JUMPDEST ISZERO PUSH2 0x1334 JUMPI PUSH0 DUP1 PUSH0 PUSH1 0x1 PUSH0 SWAP1 SLOAD SWAP1 PUSH2 0x100 EXP SWAP1 DIV PUSH20 0xFFFFFFFFFFFFFFFFFFFFFFFFFFFFFFFFFFFFFFFF AND PUSH20 0xFFFFFFFFFFFFFFFFFFFFFFFFFFFFFFFFFFFFFFFF AND PUSH4 0xC4DF01CE CALLER PUSH1 0x40 MLOAD DUP3 PUSH4 0xFFFFFFFF AND PUSH1 0xE0 SHL DUP2 MSTORE PUSH1 0x4 ADD PUSH2 0x1291 SWAP2 SWAP1 PUSH2 0x36C7 JUMP JUMPDEST PUSH0 PUSH1 0x40 MLOAD DUP1 DUP4 SUB DUP2 PUSH0 DUP8 GAS CALL ISZERO DUP1 ISZERO PUSH2 0x12AC JUMPI RETURNDATASIZE PUSH0 DUP1 RETURNDATACOPY RETURNDATASIZE PUSH0 REVERT JUMPDEST POP POP POP POP PUSH1 0x40 MLOAD RETURNDATASIZE PUSH0 DUP3 RETURNDATACOPY RETURNDATASIZE PUSH1 0x1F NOT PUSH1 0x1F DUP3 ADD AND DUP3 ADD DUP1 PUSH1 0x40 MSTORE POP DUP2 ADD SWAP1 PUSH2 0x12D4 SWAP2 SWAP1 PUSH2 0x2F20 JUMP JUMPDEST SWAP3 POP SWAP3 POP SWAP3 POP CALLER PUSH20 0xFFFFFFFFFFFFFFFFFFFFFFFFFFFFFFFFFFFFFFFF AND PUSH32 0x3FC8DE32D0FF2767D320C8C52FD3AB1A29DDF9484B23575845D542369BDFA37F DUP5 DUP5 DUP5 PUSH1 0x40 MLOAD PUSH2 0x1324 SWAP4 SWAP3 SWAP2 SWAP1 PUSH2 0x2F8C JUMP JUMPDEST PUSH1 0x40 MLOAD DUP1 SWAP2 SUB SWAP1 LOG2 POP POP POP PUSH2 0x147B JUMP JUMPDEST PUSH1 0x40 MLOAD DUP1 PUSH1 0x40 ADD PUSH1 0x40 MSTORE DUP1 PUSH1 0x4 DUP2 MSTORE PUSH1 0x20 ADD PUSH32 0x7669657700000000000000000000000000000000000000000000000000000000 DUP2 MSTORE POP DUP1 MLOAD SWAP1 PUSH1 0x20 ADD KECCAK256 DUP5 DUP1 MLOAD SWAP1 PUSH1 0x20 ADD KECCAK256 SUB PUSH2 0x147A JUMPI PUSH0 DUP1 PUSH0 PUSH1 0x1 PUSH0 SWAP1 SLOAD SWAP1 PUSH2 0x100 EXP SWAP1 DIV PUSH20 0xFFFFFFFFFFFFFFFFFFFFFFFFFFFFFFFFFFFFFFFF AND PUSH20 0xFFFFFFFFFFFFFFFFFFFFFFFFFFFFFFFFFFFFFFFF AND PUSH4 0xC4DF01CE CALLER PUSH1 0x40 MLOAD DUP3 PUSH4 0xFFFFFFFF AND PUSH1 0xE0 SHL DUP2 MSTORE PUSH1 0x4 ADD PUSH2 0x13DB SWAP2 SWAP1 PUSH2 0x373D JUMP JUMPDEST PUSH0 PUSH1 0x40 MLOAD DUP1 DUP4 SUB DUP2 PUSH0 DUP8 GAS CALL ISZERO DUP1 ISZERO PUSH2 0x13F6 JUMPI RETURNDATASIZE PUSH0 DUP1 RETURNDATACOPY RETURNDATASIZE PUSH0 REVERT JUMPDEST POP POP POP POP PUSH1 0x40 MLOAD RETURNDATASIZE PUSH0 DUP3 RETURNDATACOPY RETURNDATASIZE PUSH1 0x1F NOT PUSH1 0x1F DUP3 ADD AND DUP3 ADD DUP1 PUSH1 0x40 MSTORE POP DUP2 ADD SWAP1 PUSH2 0x141E SWAP2 SWAP1 PUSH2 0x2F20 JUMP JUMPDEST SWAP3 POP SWAP3 POP SWAP3 POP CALLER PUSH20 0xFFFFFFFFFFFFFFFFFFFFFFFFFFFFFFFFFFFFFFFF AND PUSH32 0x3FC8DE32D0FF2767D320C8C52FD3AB1A29DDF9484B23575845D542369BDFA37F DUP5 DUP5 DUP5 PUSH1 0x40 MLOAD PUSH2 0x146E SWAP4 SWAP3 SWAP2 SWAP1 PUSH2 0x2F8C JUMP JUMPDEST PUSH1 0x40 MLOAD DUP1 SWAP2 SUB SWAP1 LOG2 POP POP POP JUMPDEST JUMPDEST PUSH32 0x38DF3A8DDDF6EF31501DF5A214B30FE934AC5F4ED0CD1B5BC31F44752486C6AC DUP6 DUP6 PUSH1 0x40 MLOAD PUSH2 0x14AC SWAP3 SWAP2 SWAP1 PUSH2 0x3769 JUMP JUMPDEST PUSH1 0x40 MLOAD DUP1 SWAP2 SUB SWAP1 LOG1 PUSH0 SWAP3 POP POP JUMPDEST POP SWAP3 SWAP2 POP POP JUMP JUMPDEST PUSH1 0x6 DUP1 SLOAD PUSH2 0x14CD SWAP1 PUSH2 0x308A JUMP JUMPDEST DUP1 PUSH1 0x1F ADD PUSH1 0x20 DUP1 SWAP2 DIV MUL PUSH1 0x20 ADD PUSH1 0x40 MLOAD SWAP1 DUP2 ADD PUSH1 0x40 MSTORE DUP1 SWAP3 SWAP2 SWAP1 DUP2 DUP2 MSTORE PUSH1 0x20 ADD DUP3 DUP1 SLOAD PUSH2 0x14F9 SWAP1 PUSH2 0x308A JUMP JUMPDEST DUP1 ISZERO PUSH2 0x1544 JUMPI DUP1 PUSH1 0x1F LT PUSH2 0x151B JUMPI PUSH2 0x100 DUP1 DUP4 SLOAD DIV MUL DUP4 MSTORE SWAP2 PUSH1 0x20 ADD SWAP2 PUSH2 0x1544 JUMP JUMPDEST DUP3 ADD SWAP2 SWAP1 PUSH0 MSTORE PUSH1 0x20 PUSH0 KECCAK256 SWAP1 JUMPDEST DUP2 SLOAD DUP2 MSTORE SWAP1 PUSH1 0x1 ADD SWAP1 PUSH1 0x20 ADD DUP1 DUP4 GT PUSH2 0x1527 JUMPI DUP3 SWAP1 SUB PUSH1 0x1F AND DUP3 ADD SWAP2 JUMPDEST POP POP POP POP POP DUP2 JUMP JUMPDEST PUSH1 0x4 PUSH0 SWAP1 SLOAD SWAP1 PUSH2 0x100 EXP SWAP1 DIV PUSH1 0xFF AND DUP2 JUMP JUMPDEST PUSH1 0x4 PUSH0 SWAP1 SLOAD SWAP1 PUSH2 0x100 EXP SWAP1 DIV PUSH1 0xFF AND PUSH2 0x15AC JUMPI PUSH1 0x40 MLOAD PUSH32 0x8C379A000000000000000000000000000000000000000000000000000000000 DUP2 MSTORE PUSH1 0x4 ADD PUSH2 0x15A3 SWAP1 PUSH2 0x2D99 JUMP JUMPDEST PUSH1 0x40 MLOAD DUP1 SWAP2 SUB SWAP1 REVERT JUMPDEST PUSH0 PUSH1 0x1 PUSH0 SWAP1 SLOAD SWAP1 PUSH2 0x100 EXP SWAP1 DIV PUSH20 0xFFFFFFFFFFFFFFFFFFFFFFFFFFFFFFFFFFFFFFFF AND PUSH20 0xFFFFFFFFFFFFFFFFFFFFFFFFFFFFFFFFFFFFFFFF AND PUSH4 0xE104278 CALLER PUSH1 0x40 MLOAD DUP3 PUSH4 0xFFFFFFFF AND PUSH1 0xE0 SHL DUP2 MSTORE PUSH1 0x4 ADD PUSH2 0x1607 SWAP2 SWAP1 PUSH2 0x2692 JUMP JUMPDEST PUSH1 0x20 PUSH1 0x40 MLOAD DUP1 DUP4 SUB DUP2 DUP7 GAS STATICCALL ISZERO DUP1 ISZERO PUSH2 0x1622 JUMPI RETURNDATASIZE PUSH0 DUP1 RETURNDATACOPY RETURNDATASIZE PUSH0 REVERT JUMPDEST POP POP POP POP PUSH1 0x40 MLOAD RETURNDATASIZE PUSH1 0x1F NOT PUSH1 0x1F DUP3 ADD AND DUP3 ADD DUP1 PUSH1 0x40 MSTORE POP DUP2 ADD SWAP1 PUSH2 0x1646 SWAP2 SWAP1 PUSH2 0x2DCB JUMP JUMPDEST SWAP1 POP DUP1 TIMESTAMP GT PUSH2 0x168A JUMPI PUSH1 0x40 MLOAD PUSH32 0x8C379A000000000000000000000000000000000000000000000000000000000 DUP2 MSTORE PUSH1 0x4 ADD PUSH2 0x1681 SWAP1 PUSH2 0x2E66 JUMP JUMPDEST PUSH1 0x40 MLOAD DUP1 SWAP2 SUB SWAP1 REVERT JUMPDEST PUSH1 0x40 MLOAD DUP1 PUSH1 0x40 ADD PUSH1 0x40 MSTORE DUP1 PUSH1 0x1B DUP2 MSTORE PUSH1 0x20 ADD PUSH32 0x556E617574686F72697A65642061636365737320617474656D70740000000000 DUP2 MSTORE POP PUSH1 0x7 PUSH0 SWAP1 SLOAD SWAP1 PUSH2 0x100 EXP SWAP1 DIV PUSH20 0xFFFFFFFFFFFFFFFFFFFFFFFFFFFFFFFFFFFFFFFF AND PUSH20 0xFFFFFFFFFFFFFFFFFFFFFFFFFFFFFFFFFFFFFFFF AND CALLER PUSH20 0xFFFFFFFFFFFFFFFFFFFFFFFFFFFFFFFFFFFFFFFF AND EQ PUSH2 0x1816 JUMPI PUSH0 DUP1 PUSH0 PUSH1 0x1 PUSH0 SWAP1 SLOAD SWAP1 PUSH2 0x100 EXP SWAP1 DIV PUSH20 0xFFFFFFFFFFFFFFFFFFFFFFFFFFFFFFFFFFFFFFFF AND PUSH20 0xFFFFFFFFFFFFFFFFFFFFFFFFFFFFFFFFFFFFFFFF AND PUSH4 0xC4DF01CE CALLER DUP7 PUSH1 0x40 MLOAD DUP4 PUSH4 0xFFFFFFFF AND PUSH1 0xE0 SHL DUP2 MSTORE PUSH1 0x4 ADD PUSH2 0x1773 SWAP3 SWAP2 SWAP1 PUSH2 0x2E84 JUMP JUMPDEST PUSH0 PUSH1 0x40 MLOAD DUP1 DUP4 SUB DUP2 PUSH0 DUP8 GAS CALL ISZERO DUP1 ISZERO PUSH2 0x178E JUMPI RETURNDATASIZE PUSH0 DUP1 RETURNDATACOPY RETURNDATASIZE PUSH0 REVERT JUMPDEST POP POP POP POP PUSH1 0x40 MLOAD RETURNDATASIZE PUSH0 DUP3 RETURNDATACOPY RETURNDATASIZE PUSH1 0x1F NOT PUSH1 0x1F DUP3 ADD AND DUP3 ADD DUP1 PUSH1 0x40 MSTORE POP DUP2 ADD SWAP1 PUSH2 0x17B6 SWAP2 SWAP1 PUSH2 0x2F20 JUMP JUMPDEST SWAP3 POP SWAP3 POP SWAP3 POP CALLER PUSH20 0xFFFFFFFFFFFFFFFFFFFFFFFFFFFFFFFFFFFFFFFF AND PUSH32 0x3FC8DE32D0FF2767D320C8C52FD3AB1A29DDF9484B23575845D542369BDFA37F DUP5 DUP5 DUP5 PUSH1 0x40 MLOAD PUSH2 0x1806 SWAP4 SWAP3 SWAP2 SWAP1 PUSH2 0x2F8C JUMP JUMPDEST PUSH1 0x40 MLOAD DUP1 SWAP2 SUB SWAP1 LOG2 POP POP POP PUSH2 0x18F2 JUMP JUMPDEST PUSH0 DUP1 SLOAD SWAP1 POP DUP4 LT PUSH2 0x185C JUMPI PUSH1 0x40 MLOAD PUSH32 0x8C379A000000000000000000000000000000000000000000000000000000000 DUP2 MSTORE PUSH1 0x4 ADD PUSH2 0x1853 SWAP1 PUSH2 0x3012 JUMP JUMPDEST PUSH1 0x40 MLOAD DUP1 SWAP2 SUB SWAP1 REVERT JUMPDEST PUSH0 DUP4 DUP2 SLOAD DUP2 LT PUSH2 0x186F JUMPI PUSH2 0x186E PUSH2 0x3030 JUMP JUMPDEST JUMPDEST SWAP1 PUSH0 MSTORE PUSH1 0x20 PUSH0 KECCAK256 SWAP1 PUSH1 0x5 MUL ADD PUSH0 DUP1 DUP3 ADD PUSH0 PUSH2 0x100 EXP DUP2 SLOAD SWAP1 PUSH1 0xFF MUL NOT AND SWAP1 SSTORE PUSH1 0x1 DUP3 ADD PUSH0 PUSH2 0x189D SWAP2 SWAP1 PUSH2 0x25FB JUMP JUMPDEST PUSH1 0x2 DUP3 ADD PUSH0 PUSH2 0x18AC SWAP2 SWAP1 PUSH2 0x25FB JUMP JUMPDEST PUSH1 0x3 DUP3 ADD PUSH0 PUSH2 0x18BB SWAP2 SWAP1 PUSH2 0x25FB JUMP JUMPDEST PUSH1 0x4 DUP3 ADD PUSH0 SWAP1 SSTORE POP POP DUP3 PUSH32 0x433AB09AB993382AF577C4A70F77DCC7CF149B5B52EB40D19B869664BFB5496D PUSH1 0x40 MLOAD PUSH1 0x40 MLOAD DUP1 SWAP2 SUB SWAP1 LOG2 JUMPDEST POP POP POP JUMP JUMPDEST PUSH1 0x3 SLOAD DUP2 JUMP JUMPDEST PUSH1 0x8 SLOAD DUP2 JUMP JUMPDEST PUSH0 DUP1 PUSH0 PUSH1 0x1 PUSH0 SWAP1 SLOAD SWAP1 PUSH2 0x100 EXP SWAP1 DIV PUSH20 0xFFFFFFFFFFFFFFFFFFFFFFFFFFFFFFFFFFFFFFFF AND PUSH20 0xFFFFFFFFFFFFFFFFFFFFFFFFFFFFFFFFFFFFFFFF AND PUSH4 0xE104278 CALLER PUSH1 0x40 MLOAD DUP3 PUSH4 0xFFFFFFFF AND PUSH1 0xE0 SHL DUP2 MSTORE PUSH1 0x4 ADD PUSH2 0x1960 SWAP2 SWAP1 PUSH2 0x2692 JUMP JUMPDEST PUSH1 0x20 PUSH1 0x40 MLOAD DUP1 DUP4 SUB DUP2 DUP7 GAS STATICCALL ISZERO DUP1 ISZERO PUSH2 0x197B JUMPI RETURNDATASIZE PUSH0 DUP1 RETURNDATACOPY RETURNDATASIZE PUSH0 REVERT JUMPDEST POP POP POP POP PUSH1 0x40 MLOAD RETURNDATASIZE PUSH1 0x1F NOT PUSH1 0x1F DUP3 ADD AND DUP3 ADD DUP1 PUSH1 0x40 MSTORE POP DUP2 ADD SWAP1 PUSH2 0x199F SWAP2 SWAP1 PUSH2 0x2DCB JUMP JUMPDEST SWAP1 POP PUSH0 DUP2 TIMESTAMP LT ISZERO PUSH2 0x19AF JUMPI PUSH1 0x1 SWAP1 POP JUMPDEST DUP2 DUP2 SWAP4 POP SWAP4 POP POP POP SWAP1 SWAP2 JUMP JUMPDEST PUSH1 0x4 PUSH1 0x1 SWAP1 SLOAD SWAP1 PUSH2 0x100 EXP SWAP1 DIV PUSH20 0xFFFFFFFFFFFFFFFFFFFFFFFFFFFFFFFFFFFFFFFF AND DUP2 JUMP JUMPDEST PUSH1 0x4 PUSH0 SWAP1 SLOAD SWAP1 PUSH2 0x100 EXP SWAP1 DIV PUSH1 0xFF AND PUSH2 0x1A2F JUMPI PUSH1 0x40 MLOAD PUSH32 0x8C379A000000000000000000000000000000000000000000000000000000000 DUP2 MSTORE PUSH1 0x4 ADD PUSH2 0x1A26 SWAP1 PUSH2 0x2D99 JUMP JUMPDEST PUSH1 0x40 MLOAD DUP1 SWAP2 SUB SWAP1 REVERT JUMPDEST PUSH0 PUSH1 0x1 PUSH0 SWAP1 SLOAD SWAP1 PUSH2 0x100 EXP SWAP1 DIV PUSH20 0xFFFFFFFFFFFFFFFFFFFFFFFFFFFFFFFFFFFFFFFF AND PUSH20 0xFFFFFFFFFFFFFFFFFFFFFFFFFFFFFFFFFFFFFFFF AND PUSH4 0xE104278 CALLER PUSH1 0x40 MLOAD DUP3 PUSH4 0xFFFFFFFF AND PUSH1 0xE0 SHL DUP2 MSTORE PUSH1 0x4 ADD PUSH2 0x1A8A SWAP2 SWAP1 PUSH2 0x2692 JUMP JUMPDEST PUSH1 0x20 PUSH1 0x40 MLOAD DUP1 DUP4 SUB DUP2 DUP7 GAS STATICCALL ISZERO DUP1 ISZERO PUSH2 0x1AA5 JUMPI RETURNDATASIZE PUSH0 DUP1 RETURNDATACOPY RETURNDATASIZE PUSH0 REVERT JUMPDEST POP POP POP POP PUSH1 0x40 MLOAD RETURNDATASIZE PUSH1 0x1F NOT PUSH1 0x1F DUP3 ADD AND DUP3 ADD DUP1 PUSH1 0x40 MSTORE POP DUP2 ADD SWAP1 PUSH2 0x1AC9 SWAP2 SWAP1 PUSH2 0x2DCB JUMP JUMPDEST SWAP1 POP DUP1 TIMESTAMP GT PUSH2 0x1B0D JUMPI PUSH1 0x40 MLOAD PUSH32 0x8C379A000000000000000000000000000000000000000000000000000000000 DUP2 MSTORE PUSH1 0x4 ADD PUSH2 0x1B04 SWAP1 PUSH2 0x2E66 JUMP JUMPDEST PUSH1 0x40 MLOAD DUP1 SWAP2 SUB SWAP1 REVERT JUMPDEST PUSH1 0x40 MLOAD DUP1 PUSH1 0x40 ADD PUSH1 0x40 MSTORE DUP1 PUSH1 0x1B DUP2 MSTORE PUSH1 0x20 ADD PUSH32 0x556E617574686F72697A65642061636365737320617474656D70740000000000 DUP2 MSTORE POP PUSH1 0x7 PUSH0 SWAP1 SLOAD SWAP1 PUSH2 0x100 EXP SWAP1 DIV PUSH20 0xFFFFFFFFFFFFFFFFFFFFFFFFFFFFFFFFFFFFFFFF AND PUSH20 0xFFFFFFFFFFFFFFFFFFFFFFFFFFFFFFFFFFFFFFFF AND CALLER PUSH20 0xFFFFFFFFFFFFFFFFFFFFFFFFFFFFFFFFFFFFFFFF AND EQ PUSH2 0x1C99 JUMPI PUSH0 DUP1 PUSH0 PUSH1 0x1 PUSH0 SWAP1 SLOAD SWAP1 PUSH2 0x100 EXP SWAP1 DIV PUSH20 0xFFFFFFFFFFFFFFFFFFFFFFFFFFFFFFFFFFFFFFFF AND PUSH20 0xFFFFFFFFFFFFFFFFFFFFFFFFFFFFFFFFFFFFFFFF AND PUSH4 0xC4DF01CE CALLER DUP7 PUSH1 0x40 MLOAD DUP4 PUSH4 0xFFFFFFFF AND PUSH1 0xE0 SHL DUP2 MSTORE PUSH1 0x4 ADD PUSH2 0x1BF6 SWAP3 SWAP2 SWAP1 PUSH2 0x2E84 JUMP JUMPDEST PUSH0 PUSH1 0x40 MLOAD DUP1 DUP4 SUB DUP2 PUSH0 DUP8 GAS CALL ISZERO DUP1 ISZERO PUSH2 0x1C11 JUMPI RETURNDATASIZE PUSH0 DUP1 RETURNDATACOPY RETURNDATASIZE PUSH0 REVERT JUMPDEST POP POP POP POP PUSH1 0x40 MLOAD RETURNDATASIZE PUSH0 DUP3 RETURNDATACOPY RETURNDATASIZE PUSH1 0x1F NOT PUSH1 0x1F DUP3 ADD AND DUP3 ADD DUP1 PUSH1 0x40 MSTORE POP DUP2 ADD SWAP1 PUSH2 0x1C39 SWAP2 SWAP1 PUSH2 0x2F20 JUMP JUMPDEST SWAP3 POP SWAP3 POP SWAP3 POP CALLER PUSH20 0xFFFFFFFFFFFFFFFFFFFFFFFFFFFFFFFFFFFFFFFF AND PUSH32 0x3FC8DE32D0FF2767D320C8C52FD3AB1A29DDF9484B23575845D542369BDFA37F DUP5 DUP5 DUP5 PUSH1 0x40 MLOAD PUSH2 0x1C89 SWAP4 SWAP3 SWAP2 SWAP1 PUSH2 0x2F8C JUMP JUMPDEST PUSH1 0x40 MLOAD DUP1 SWAP2 SUB SWAP1 LOG2 POP POP POP PUSH2 0x1DC3 JUMP JUMPDEST PUSH0 PUSH1 0x40 MLOAD DUP1 PUSH1 0xA0 ADD PUSH1 0x40 MSTORE DUP1 DUP9 PUSH1 0x4 DUP2 GT ISZERO PUSH2 0x1CB8 JUMPI PUSH2 0x1CB7 PUSH2 0x2BE8 JUMP JUMPDEST JUMPDEST DUP2 MSTORE PUSH1 0x20 ADD DUP8 DUP2 MSTORE PUSH1 0x20 ADD DUP7 DUP2 MSTORE PUSH1 0x20 ADD DUP6 DUP2 MSTORE PUSH1 0x20 ADD PUSH0 DUP2 MSTORE POP SWAP1 DUP1 PUSH1 0x1 DUP2 SLOAD ADD DUP1 DUP3 SSTORE DUP1 SWAP2 POP POP PUSH1 0x1 SWAP1 SUB SWAP1 PUSH0 MSTORE PUSH1 0x20 PUSH0 KECCAK256 SWAP1 PUSH1 0x5 MUL ADD PUSH0 SWAP1 SWAP2 SWAP1 SWAP2 SWAP1 SWAP2 POP PUSH0 DUP3 ADD MLOAD DUP2 PUSH0 ADD PUSH0 PUSH2 0x100 EXP DUP2 SLOAD DUP2 PUSH1 0xFF MUL NOT AND SWAP1 DUP4 PUSH1 0x4 DUP2 GT ISZERO PUSH2 0x1D21 JUMPI PUSH2 0x1D20 PUSH2 0x2BE8 JUMP JUMPDEST JUMPDEST MUL OR SWAP1 SSTORE POP PUSH1 0x20 DUP3 ADD MLOAD DUP2 PUSH1 0x1 ADD SWAP1 DUP2 PUSH2 0x1D3B SWAP2 SWAP1 PUSH2 0x324E JUMP JUMPDEST POP PUSH1 0x40 DUP3 ADD MLOAD DUP2 PUSH1 0x2 ADD SWAP1 DUP2 PUSH2 0x1D51 SWAP2 SWAP1 PUSH2 0x324E JUMP JUMPDEST POP PUSH1 0x60 DUP3 ADD MLOAD DUP2 PUSH1 0x3 ADD SWAP1 DUP2 PUSH2 0x1D67 SWAP2 SWAP1 PUSH2 0x324E JUMP JUMPDEST POP PUSH1 0x80 DUP3 ADD MLOAD DUP2 PUSH1 0x4 ADD SSTORE POP POP PUSH1 0x1 PUSH0 DUP1 SLOAD SWAP1 POP PUSH2 0x1D85 SWAP2 SWAP1 PUSH2 0x379E JUMP JUMPDEST PUSH32 0xB90B27D205996A6CE127FC2F1BFBAD17D5D8270E9A27EBB35037F2D67853B6CF DUP8 DUP8 DUP8 DUP8 PUSH1 0x40 MLOAD PUSH2 0x1DBA SWAP5 SWAP4 SWAP3 SWAP2 SWAP1 PUSH2 0x331D JUMP JUMPDEST PUSH1 0x40 MLOAD DUP1 SWAP2 SUB SWAP1 LOG2 JUMPDEST POP POP POP POP POP POP JUMP JUMPDEST PUSH1 0x5 PUSH0 SWAP1 SLOAD SWAP1 PUSH2 0x100 EXP SWAP1 DIV PUSH20 0xFFFFFFFFFFFFFFFFFFFFFFFFFFFFFFFFFFFFFFFF AND DUP2 JUMP JUMPDEST PUSH0 PUSH1 0x1 PUSH0 SWAP1 SLOAD SWAP1 PUSH2 0x100 EXP SWAP1 DIV PUSH20 0xFFFFFFFFFFFFFFFFFFFFFFFFFFFFFFFFFFFFFFFF AND PUSH20 0xFFFFFFFFFFFFFFFFFFFFFFFFFFFFFFFFFFFFFFFF AND PUSH4 0xE104278 CALLER PUSH1 0x40 MLOAD DUP3 PUSH4 0xFFFFFFFF AND PUSH1 0xE0 SHL DUP2 MSTORE PUSH1 0x4 ADD PUSH2 0x1E4B SWAP2 SWAP1 PUSH2 0x2692 JUMP JUMPDEST PUSH1 0x20 PUSH1 0x40 MLOAD DUP1 DUP4 SUB DUP2 DUP7 GAS STATICCALL ISZERO DUP1 ISZERO PUSH2 0x1E66 JUMPI RETURNDATASIZE PUSH0 DUP1 RETURNDATACOPY RETURNDATASIZE PUSH0 REVERT JUMPDEST POP POP POP POP PUSH1 0x40 MLOAD RETURNDATASIZE PUSH1 0x1F NOT PUSH1 0x1F DUP3 ADD AND DUP3 ADD DUP1 PUSH1 0x40 MSTORE POP DUP2 ADD SWAP1 PUSH2 0x1E8A SWAP2 SWAP1 PUSH2 0x2DCB JUMP JUMPDEST SWAP1 POP DUP1 TIMESTAMP GT PUSH2 0x1ECE JUMPI PUSH1 0x40 MLOAD PUSH32 0x8C379A000000000000000000000000000000000000000000000000000000000 DUP2 MSTORE PUSH1 0x4 ADD PUSH2 0x1EC5 SWAP1 PUSH2 0x2E66 JUMP JUMPDEST PUSH1 0x40 MLOAD DUP1 SWAP2 SUB SWAP1 REVERT JUMPDEST PUSH1 0x40 MLOAD DUP1 PUSH1 0x40 ADD PUSH1 0x40 MSTORE DUP1 PUSH1 0x11 DUP2 MSTORE PUSH1 0x20 ADD PUSH32 0x44656E69616C206F662053657276696365000000000000000000000000000000 DUP2 MSTORE POP PUSH1 0x7 PUSH0 SWAP1 SLOAD SWAP1 PUSH2 0x100 EXP SWAP1 DIV PUSH20 0xFFFFFFFFFFFFFFFFFFFFFFFFFFFFFFFFFFFFFFFF AND PUSH20 0xFFFFFFFFFFFFFFFFFFFFFFFFFFFFFFFFFFFFFFFF AND CALLER PUSH20 0xFFFFFFFFFFFFFFFFFFFFFFFFFFFFFFFFFFFFFFFF AND EQ PUSH2 0x205A JUMPI PUSH0 DUP1 PUSH0 PUSH1 0x1 PUSH0 SWAP1 SLOAD SWAP1 PUSH2 0x100 EXP SWAP1 DIV PUSH20 0xFFFFFFFFFFFFFFFFFFFFFFFFFFFFFFFFFFFFFFFF AND PUSH20 0xFFFFFFFFFFFFFFFFFFFFFFFFFFFFFFFFFFFFFFFF AND PUSH4 0xC4DF01CE CALLER DUP7 PUSH1 0x40 MLOAD DUP4 PUSH4 0xFFFFFFFF AND PUSH1 0xE0 SHL DUP2 MSTORE PUSH1 0x4 ADD PUSH2 0x1FB7 SWAP3 SWAP2 SWAP1 PUSH2 0x2E84 JUMP JUMPDEST PUSH0 PUSH1 0x40 MLOAD DUP1 DUP4 SUB DUP2 PUSH0 DUP8 GAS CALL ISZERO DUP1 ISZERO PUSH2 0x1FD2 JUMPI RETURNDATASIZE PUSH0 DUP1 RETURNDATACOPY RETURNDATASIZE PUSH0 REVERT JUMPDEST POP POP POP POP PUSH1 0x40 MLOAD RETURNDATASIZE PUSH0 DUP3 RETURNDATACOPY RETURNDATASIZE PUSH1 0x1F NOT PUSH1 0x1F DUP3 ADD AND DUP3 ADD DUP1 PUSH1 0x40 MSTORE POP DUP2 ADD SWAP1 PUSH2 0x1FFA SWAP2 SWAP1 PUSH2 0x2F20 JUMP JUMPDEST SWAP3 POP SWAP3 POP SWAP3 POP CALLER PUSH20 0xFFFFFFFFFFFFFFFFFFFFFFFFFFFFFFFFFFFFFFFF AND PUSH32 0x3FC8DE32D0FF2767D320C8C52FD3AB1A29DDF9484B23575845D542369BDFA37F DUP5 DUP5 DUP5 PUSH1 0x40 MLOAD PUSH2 0x204A SWAP4 SWAP3 SWAP2 SWAP1 PUSH2 0x2F8C JUMP JUMPDEST PUSH1 0x40 MLOAD DUP1 SWAP2 SUB SWAP1 LOG2 POP POP POP PUSH2 0x20A1 JUMP JUMPDEST PUSH1 0x1 PUSH1 0x4 PUSH0 PUSH2 0x100 EXP DUP2 SLOAD DUP2 PUSH1 0xFF MUL NOT AND SWAP1 DUP4 ISZERO ISZERO MUL OR SWAP1 SSTORE POP PUSH32 0xE09EB0AC9BAD92F05E0B489E6FC1D3E349861FFD8A2548182EF06278968A9BD0 PUSH1 0x40 MLOAD PUSH1 0x40 MLOAD DUP1 SWAP2 SUB SWAP1 LOG1 JUMPDEST POP POP JUMP JUMPDEST PUSH1 0x2 PUSH0 SWAP1 SLOAD SWAP1 PUSH2 0x100 EXP SWAP1 DIV PUSH20 0xFFFFFFFFFFFFFFFFFFFFFFFFFFFFFFFFFFFFFFFF AND DUP2 JUMP JUMPDEST PUSH0 PUSH1 0x1 PUSH0 SWAP1 SLOAD SWAP1 PUSH2 0x100 EXP SWAP1 DIV PUSH20 0xFFFFFFFFFFFFFFFFFFFFFFFFFFFFFFFFFFFFFFFF AND PUSH20 0xFFFFFFFFFFFFFFFFFFFFFFFFFFFFFFFFFFFFFFFF AND PUSH4 0xE104278 CALLER PUSH1 0x40 MLOAD DUP3 PUSH4 0xFFFFFFFF AND PUSH1 0xE0 SHL DUP2 MSTORE PUSH1 0x4 ADD PUSH2 0x2125 SWAP2 SWAP1 PUSH2 0x2692 JUMP JUMPDEST PUSH1 0x20 PUSH1 0x40 MLOAD DUP1 DUP4 SUB DUP2 DUP7 GAS STATICCALL ISZERO DUP1 ISZERO PUSH2 0x2140 JUMPI RETURNDATASIZE PUSH0 DUP1 RETURNDATACOPY RETURNDATASIZE PUSH0 REVERT JUMPDEST POP POP POP POP PUSH1 0x40 MLOAD RETURNDATASIZE PUSH1 0x1F NOT PUSH1 0x1F DUP3 ADD AND DUP3 ADD DUP1 PUSH1 0x40 MSTORE POP DUP2 ADD SWAP1 PUSH2 0x2164 SWAP2 SWAP1 PUSH2 0x2DCB JUMP JUMPDEST SWAP1 POP DUP1 TIMESTAMP GT PUSH2 0x21A8 JUMPI PUSH1 0x40 MLOAD PUSH32 0x8C379A000000000000000000000000000000000000000000000000000000000 DUP2 MSTORE PUSH1 0x4 ADD PUSH2 0x219F SWAP1 PUSH2 0x2E66 JUMP JUMPDEST PUSH1 0x40 MLOAD DUP1 SWAP2 SUB SWAP1 REVERT JUMPDEST PUSH1 0x40 MLOAD DUP1 PUSH1 0x40 ADD PUSH1 0x40 MSTORE DUP1 PUSH1 0x11 DUP2 MSTORE PUSH1 0x20 ADD PUSH32 0x44656E69616C206F662053657276696365000000000000000000000000000000 DUP2 MSTORE POP PUSH1 0x7 PUSH0 SWAP1 SLOAD SWAP1 PUSH2 0x100 EXP SWAP1 DIV PUSH20 0xFFFFFFFFFFFFFFFFFFFFFFFFFFFFFFFFFFFFFFFF AND PUSH20 0xFFFFFFFFFFFFFFFFFFFFFFFFFFFFFFFFFFFFFFFF AND CALLER PUSH20 0xFFFFFFFFFFFFFFFFFFFFFFFFFFFFFFFFFFFFFFFF AND EQ PUSH2 0x2334 JUMPI PUSH0 DUP1 PUSH0 PUSH1 0x1 PUSH0 SWAP1 SLOAD SWAP1 PUSH2 0x100 EXP SWAP1 DIV PUSH20 0xFFFFFFFFFFFFFFFFFFFFFFFFFFFFFFFFFFFFFFFF AND PUSH20 0xFFFFFFFFFFFFFFFFFFFFFFFFFFFFFFFFFFFFFFFF AND PUSH4 0xC4DF01CE CALLER DUP7 PUSH1 0x40 MLOAD DUP4 PUSH4 0xFFFFFFFF AND PUSH1 0xE0 SHL DUP2 MSTORE PUSH1 0x4 ADD PUSH2 0x2291 SWAP3 SWAP2 SWAP1 PUSH2 0x2E84 JUMP JUMPDEST PUSH0 PUSH1 0x40 MLOAD DUP1 DUP4 SUB DUP2 PUSH0 DUP8 GAS CALL ISZERO DUP1 ISZERO PUSH2 0x22AC JUMPI RETURNDATASIZE PUSH0 DUP1 RETURNDATACOPY RETURNDATASIZE PUSH0 REVERT JUMPDEST POP POP POP POP PUSH1 0x40 MLOAD RETURNDATASIZE PUSH0 DUP3 RETURNDATACOPY RETURNDATASIZE PUSH1 0x1F NOT PUSH1 0x1F DUP3 ADD AND DUP3 ADD DUP1 PUSH1 0x40 MSTORE POP DUP2 ADD SWAP1 PUSH2 0x22D4 SWAP2 SWAP1 PUSH2 0x2F20 JUMP JUMPDEST SWAP3 POP SWAP3 POP SWAP3 POP CALLER PUSH20 0xFFFFFFFFFFFFFFFFFFFFFFFFFFFFFFFFFFFFFFFF AND PUSH32 0x3FC8DE32D0FF2767D320C8C52FD3AB1A29DDF9484B23575845D542369BDFA37F DUP5 DUP5 DUP5 PUSH1 0x40 MLOAD PUSH2 0x2324 SWAP4 SWAP3 SWAP2 SWAP1 PUSH2 0x2F8C JUMP JUMPDEST PUSH1 0x40 MLOAD DUP1 SWAP2 SUB SWAP1 LOG2 POP POP POP PUSH2 0x237A JUMP JUMPDEST PUSH0 PUSH1 0x4 PUSH0 PUSH2 0x100 EXP DUP2 SLOAD DUP2 PUSH1 0xFF MUL NOT AND SWAP1 DUP4 ISZERO ISZERO MUL OR SWAP1 SSTORE POP PUSH32 0x8C8771D60E1AE6B90556D35DC2F79A3190D6B4088C05D7CA8CABBB9E9061F3E5 PUSH1 0x40 MLOAD PUSH1 0x40 MLOAD DUP1 SWAP2 SUB SWAP1 LOG1 JUMPDEST POP POP JUMP JUMPDEST PUSH0 DUP2 DUP2 SLOAD DUP2 LT PUSH2 0x238C JUMPI PUSH0 DUP1 REVERT JUMPDEST SWAP1 PUSH0 MSTORE PUSH1 0x20 PUSH0 KECCAK256 SWAP1 PUSH1 0x5 MUL ADD PUSH0 SWAP2 POP SWAP1 POP DUP1 PUSH0 ADD PUSH0 SWAP1 SLOAD SWAP1 PUSH2 0x100 EXP SWAP1 DIV PUSH1 0xFF AND SWAP1 DUP1 PUSH1 0x1 ADD DUP1 SLOAD PUSH2 0x23BD SWAP1 PUSH2 0x308A JUMP JUMPDEST DUP1 PUSH1 0x1F ADD PUSH1 0x20 DUP1 SWAP2 DIV MUL PUSH1 0x20 ADD PUSH1 0x40 MLOAD SWAP1 DUP2 ADD PUSH1 0x40 MSTORE DUP1 SWAP3 SWAP2 SWAP1 DUP2 DUP2 MSTORE PUSH1 0x20 ADD DUP3 DUP1 SLOAD PUSH2 0x23E9 SWAP1 PUSH2 0x308A JUMP JUMPDEST DUP1 ISZERO PUSH2 0x2434 JUMPI DUP1 PUSH1 0x1F LT PUSH2 0x240B JUMPI PUSH2 0x100 DUP1 DUP4 SLOAD DIV MUL DUP4 MSTORE SWAP2 PUSH1 0x20 ADD SWAP2 PUSH2 0x2434 JUMP JUMPDEST DUP3 ADD SWAP2 SWAP1 PUSH0 MSTORE PUSH1 0x20 PUSH0 KECCAK256 SWAP1 JUMPDEST DUP2 SLOAD DUP2 MSTORE SWAP1 PUSH1 0x1 ADD SWAP1 PUSH1 0x20 ADD DUP1 DUP4 GT PUSH2 0x2417 JUMPI DUP3 SWAP1 SUB PUSH1 0x1F AND DUP3 ADD SWAP2 JUMPDEST POP POP POP POP POP SWAP1 DUP1 PUSH1 0x2 ADD DUP1 SLOAD PUSH2 0x2449 SWAP1 PUSH2 0x308A JUMP JUMPDEST DUP1 PUSH1 0x1F ADD PUSH1 0x20 DUP1 SWAP2 DIV MUL PUSH1 0x20 ADD PUSH1 0x40 MLOAD SWAP1 DUP2 ADD PUSH1 0x40 MSTORE DUP1 SWAP3 SWAP2 SWAP1 DUP2 DUP2 MSTORE PUSH1 0x20 ADD DUP3 DUP1 SLOAD PUSH2 0x2475 SWAP1 PUSH2 0x308A JUMP JUMPDEST DUP1 ISZERO PUSH2 0x24C0 JUMPI DUP1 PUSH1 0x1F LT PUSH2 0x2497 JUMPI PUSH2 0x100 DUP1 DUP4 SLOAD DIV MUL DUP4 MSTORE SWAP2 PUSH1 0x20 ADD SWAP2 PUSH2 0x24C0 JUMP JUMPDEST DUP3 ADD SWAP2 SWAP1 PUSH0 MSTORE PUSH1 0x20 PUSH0 KECCAK256 SWAP1 JUMPDEST DUP2 SLOAD DUP2 MSTORE SWAP1 PUSH1 0x1 ADD SWAP1 PUSH1 0x20 ADD DUP1 DUP4 GT PUSH2 0x24A3 JUMPI DUP3 SWAP1 SUB PUSH1 0x1F AND DUP3 ADD SWAP2 JUMPDEST POP POP POP POP POP SWAP1 DUP1 PUSH1 0x3 ADD DUP1 SLOAD PUSH2 0x24D5 SWAP1 PUSH2 0x308A JUMP JUMPDEST DUP1 PUSH1 0x1F ADD PUSH1 0x20 DUP1 SWAP2 DIV MUL PUSH1 0x20 ADD PUSH1 0x40 MLOAD SWAP1 DUP2 ADD PUSH1 0x40 MSTORE DUP1 SWAP3 SWAP2 SWAP1 DUP2 DUP2 MSTORE PUSH1 0x20 ADD DUP3 DUP1 SLOAD PUSH2 0x2501 SWAP1 PUSH2 0x308A JUMP JUMPDEST DUP1 ISZERO PUSH2 0x254C JUMPI DUP1 PUSH1 0x1F LT PUSH2 0x2523 JUMPI PUSH2 0x100 DUP1 DUP4 SLOAD DIV MUL DUP4 MSTORE SWAP2 PUSH1 0x20 ADD SWAP2 PUSH2 0x254C JUMP JUMPDEST DUP3 ADD SWAP2 SWAP1 PUSH0 MSTORE PUSH1 0x20 PUSH0 KECCAK256 SWAP1 JUMPDEST DUP2 SLOAD DUP2 MSTORE SWAP1 PUSH1 0x1 ADD SWAP1 PUSH1 0x20 ADD DUP1 DUP4 GT PUSH2 0x252F JUMPI DUP3 SWAP1 SUB PUSH1 0x1F AND DUP3 ADD SWAP2 JUMPDEST POP POP POP POP POP SWAP1 DUP1 PUSH1 0x4 ADD SLOAD SWAP1 POP DUP6 JUMP JUMPDEST PUSH1 0x1 PUSH0 SWAP1 SLOAD SWAP1 PUSH2 0x100 EXP SWAP1 DIV PUSH20 0xFFFFFFFFFFFFFFFFFFFFFFFFFFFFFFFFFFFFFFFF AND DUP2 JUMP JUMPDEST DUP1 PUSH1 0x1 PUSH0 PUSH2 0x100 EXP DUP2 SLOAD DUP2 PUSH20 0xFFFFFFFFFFFFFFFFFFFFFFFFFFFFFFFFFFFFFFFF MUL NOT AND SWAP1 DUP4 PUSH20 0xFFFFFFFFFFFFFFFFFFFFFFFFFFFFFFFFFFFFFFFF AND MUL OR SWAP1 SSTORE POP PUSH32 0x60AEF7237739F69CDEF5DD8E8F90780EF1F3F6D76024D66E168102D04E88B5F4 DUP2 PUSH1 0x40 MLOAD PUSH2 0x25F0 SWAP2 SWAP1 PUSH2 0x2692 JUMP JUMPDEST PUSH1 0x40 MLOAD DUP1 SWAP2 SUB SWAP1 LOG1 POP JUMP JUMPDEST POP DUP1 SLOAD PUSH2 0x2607 SWAP1 PUSH2 0x308A JUMP JUMPDEST PUSH0 DUP3 SSTORE DUP1 PUSH1 0x1F LT PUSH2 0x2618 JUMPI POP PUSH2 0x2635 JUMP JUMPDEST PUSH1 0x1F ADD PUSH1 0x20 SWAP1 DIV SWAP1 PUSH0 MSTORE PUSH1 0x20 PUSH0 KECCAK256 SWAP1 DUP2 ADD SWAP1 PUSH2 0x2634 SWAP2 SWAP1 PUSH2 0x2638 JUMP JUMPDEST JUMPDEST POP JUMP JUMPDEST JUMPDEST DUP1 DUP3 GT ISZERO PUSH2 0x264F JUMPI PUSH0 DUP2 PUSH0 SWAP1 SSTORE POP PUSH1 0x1 ADD PUSH2 0x2639 JUMP JUMPDEST POP SWAP1 JUMP JUMPDEST PUSH0 PUSH20 0xFFFFFFFFFFFFFFFFFFFFFFFFFFFFFFFFFFFFFFFF DUP3 AND SWAP1 POP SWAP2 SWAP1 POP JUMP JUMPDEST PUSH0 PUSH2 0x267C DUP3 PUSH2 0x2653 JUMP JUMPDEST SWAP1 POP SWAP2 SWAP1 POP JUMP JUMPDEST PUSH2 0x268C DUP2 PUSH2 0x2672 JUMP JUMPDEST DUP3 MSTORE POP POP JUMP JUMPDEST PUSH0 PUSH1 0x20 DUP3 ADD SWAP1 POP PUSH2 0x26A5 PUSH0 DUP4 ADD DUP5 PUSH2 0x2683 JUMP JUMPDEST SWAP3 SWAP2 POP POP JUMP JUMPDEST PUSH0 PUSH1 0x40 MLOAD SWAP1 POP SWAP1 JUMP JUMPDEST PUSH0 DUP1 REVERT JUMPDEST PUSH0 DUP1 REVERT JUMPDEST PUSH0 DUP2 SWAP1 POP SWAP2 SWAP1 POP JUMP JUMPDEST PUSH2 0x26CE DUP2 PUSH2 0x26BC JUMP JUMPDEST DUP2 EQ PUSH2 0x26D8 JUMPI PUSH0 DUP1 REVERT JUMPDEST POP JUMP JUMPDEST PUSH0 DUP2 CALLDATALOAD SWAP1 POP PUSH2 0x26E9 DUP2 PUSH2 0x26C5 JUMP JUMPDEST SWAP3 SWAP2 POP POP JUMP JUMPDEST PUSH1 0x5 DUP2 LT PUSH2 0x26FB JUMPI PUSH0 DUP1 REVERT JUMPDEST POP JUMP JUMPDEST PUSH0 DUP2 CALLDATALOAD SWAP1 POP PUSH2 0x270C DUP2 PUSH2 0x26EF JUMP JUMPDEST SWAP3 SWAP2 POP POP JUMP JUMPDEST PUSH0 DUP1 REVERT JUMPDEST PUSH0 DUP1 REVERT JUMPDEST PUSH0 PUSH1 0x1F NOT PUSH1 0x1F DUP4 ADD AND SWAP1 POP SWAP2 SWAP1 POP JUMP JUMPDEST PUSH32 0x4E487B7100000000000000000000000000000000000000000000000000000000 PUSH0 MSTORE PUSH1 0x41 PUSH1 0x4 MSTORE PUSH1 0x24 PUSH0 REVERT JUMPDEST PUSH2 0x2760 DUP3 PUSH2 0x271A JUMP JUMPDEST DUP2 ADD DUP2 DUP2 LT PUSH8 0xFFFFFFFFFFFFFFFF DUP3 GT OR ISZERO PUSH2 0x277F JUMPI PUSH2 0x277E PUSH2 0x272A JUMP JUMPDEST JUMPDEST DUP1 PUSH1 0x40 MSTORE POP POP POP JUMP JUMPDEST PUSH0 PUSH2 0x2791 PUSH2 0x26AB JUMP JUMPDEST SWAP1 POP PUSH2 0x279D DUP3 DUP3 PUSH2 0x2757 JUMP JUMPDEST SWAP2 SWAP1 POP JUMP JUMPDEST PUSH0 PUSH8 0xFFFFFFFFFFFFFFFF DUP3 GT ISZERO PUSH2 0x27BC JUMPI PUSH2 0x27BB PUSH2 0x272A JUMP JUMPDEST JUMPDEST PUSH2 0x27C5 DUP3 PUSH2 0x271A JUMP JUMPDEST SWAP1 POP PUSH1 0x20 DUP2 ADD SWAP1 POP SWAP2 SWAP1 POP JUMP JUMPDEST DUP3 DUP2 DUP4 CALLDATACOPY PUSH0 DUP4 DUP4 ADD MSTORE POP POP POP JUMP JUMPDEST PUSH0 PUSH2 0x27F2 PUSH2 0x27ED DUP5 PUSH2 0x27A2 JUMP JUMPDEST PUSH2 0x2788 JUMP JUMPDEST SWAP1 POP DUP3 DUP2 MSTORE PUSH1 0x20 DUP2 ADD DUP5 DUP5 DUP5 ADD GT ISZERO PUSH2 0x280E JUMPI PUSH2 0x280D PUSH2 0x2716 JUMP JUMPDEST JUMPDEST PUSH2 0x2819 DUP5 DUP3 DUP6 PUSH2 0x27D2 JUMP JUMPDEST POP SWAP4 SWAP3 POP POP POP JUMP JUMPDEST PUSH0 DUP3 PUSH1 0x1F DUP4 ADD SLT PUSH2 0x2835 JUMPI PUSH2 0x2834 PUSH2 0x2712 JUMP JUMPDEST JUMPDEST DUP2 CALLDATALOAD PUSH2 0x2845 DUP5 DUP3 PUSH1 0x20 DUP7 ADD PUSH2 0x27E0 JUMP JUMPDEST SWAP2 POP POP SWAP3 SWAP2 POP POP JUMP JUMPDEST PUSH0 DUP1 PUSH0 DUP1 PUSH0 PUSH1 0xA0 DUP7 DUP9 SUB SLT ISZERO PUSH2 0x2867 JUMPI PUSH2 0x2866 PUSH2 0x26B4 JUMP JUMPDEST JUMPDEST PUSH0 PUSH2 0x2874 DUP9 DUP3 DUP10 ADD PUSH2 0x26DB JUMP JUMPDEST SWAP6 POP POP PUSH1 0x20 PUSH2 0x2885 DUP9 DUP3 DUP10 ADD PUSH2 0x26FE JUMP JUMPDEST SWAP5 POP POP PUSH1 0x40 DUP7 ADD CALLDATALOAD PUSH8 0xFFFFFFFFFFFFFFFF DUP2 GT ISZERO PUSH2 0x28A6 JUMPI PUSH2 0x28A5 PUSH2 0x26B8 JUMP JUMPDEST JUMPDEST PUSH2 0x28B2 DUP9 DUP3 DUP10 ADD PUSH2 0x2821 JUMP JUMPDEST SWAP4 POP POP PUSH1 0x60 DUP7 ADD CALLDATALOAD PUSH8 0xFFFFFFFFFFFFFFFF DUP2 GT ISZERO PUSH2 0x28D3 JUMPI PUSH2 0x28D2 PUSH2 0x26B8 JUMP JUMPDEST JUMPDEST PUSH2 0x28DF DUP9 DUP3 DUP10 ADD PUSH2 0x2821 JUMP JUMPDEST SWAP3 POP POP PUSH1 0x80 DUP7 ADD CALLDATALOAD PUSH8 0xFFFFFFFFFFFFFFFF DUP2 GT ISZERO PUSH2 0x2900 JUMPI PUSH2 0x28FF PUSH2 0x26B8 JUMP JUMPDEST JUMPDEST PUSH2 0x290C DUP9 DUP3 DUP10 ADD PUSH2 0x2821 JUMP JUMPDEST SWAP2 POP POP SWAP3 SWAP6 POP SWAP3 SWAP6 SWAP1 SWAP4 POP JUMP JUMPDEST PUSH0 DUP1 PUSH1 0x40 DUP4 DUP6 SUB SLT ISZERO PUSH2 0x292F JUMPI PUSH2 0x292E PUSH2 0x26B4 JUMP JUMPDEST JUMPDEST PUSH0 DUP4 ADD CALLDATALOAD PUSH8 0xFFFFFFFFFFFFFFFF DUP2 GT ISZERO PUSH2 0x294C JUMPI PUSH2 0x294B PUSH2 0x26B8 JUMP JUMPDEST JUMPDEST PUSH2 0x2958 DUP6 DUP3 DUP7 ADD PUSH2 0x2821 JUMP JUMPDEST SWAP3 POP POP PUSH1 0x20 DUP4 ADD CALLDATALOAD PUSH8 0xFFFFFFFFFFFFFFFF DUP2 GT ISZERO PUSH2 0x2979 JUMPI PUSH2 0x2978 PUSH2 0x26B8 JUMP JUMPDEST JUMPDEST PUSH2 0x2985 DUP6 DUP3 DUP7 ADD PUSH2 0x2821 JUMP JUMPDEST SWAP2 POP POP SWAP3 POP SWAP3 SWAP1 POP JUMP JUMPDEST PUSH0 DUP2 ISZERO ISZERO SWAP1 POP SWAP2 SWAP1 POP JUMP JUMPDEST PUSH2 0x29A3 DUP2 PUSH2 0x298F JUMP JUMPDEST DUP3 MSTORE POP POP JUMP JUMPDEST PUSH0 PUSH1 0x20 DUP3 ADD SWAP1 POP PUSH2 0x29BC PUSH0 DUP4 ADD DUP5 PUSH2 0x299A JUMP JUMPDEST SWAP3 SWAP2 POP POP JUMP JUMPDEST PUSH0 DUP2 MLOAD SWAP1 POP SWAP2 SWAP1 POP JUMP JUMPDEST PUSH0 DUP3 DUP3 MSTORE PUSH1 0x20 DUP3 ADD SWAP1 POP SWAP3 SWAP2 POP POP JUMP JUMPDEST DUP3 DUP2 DUP4 MCOPY PUSH0 DUP4 DUP4 ADD MSTORE POP POP POP JUMP JUMPDEST PUSH0 PUSH2 0x29F4 DUP3 PUSH2 0x29C2 JUMP JUMPDEST PUSH2 0x29FE DUP2 DUP6 PUSH2 0x29CC JUMP JUMPDEST SWAP4 POP PUSH2 0x2A0E DUP2 DUP6 PUSH1 0x20 DUP7 ADD PUSH2 0x29DC JUMP JUMPDEST PUSH2 0x2A17 DUP2 PUSH2 0x271A JUMP JUMPDEST DUP5 ADD SWAP2 POP POP SWAP3 SWAP2 POP POP JUMP JUMPDEST PUSH0 PUSH1 0x20 DUP3 ADD SWAP1 POP DUP2 DUP2 SUB PUSH0 DUP4 ADD MSTORE PUSH2 0x2A3A DUP2 DUP5 PUSH2 0x29EA JUMP JUMPDEST SWAP1 POP SWAP3 SWAP2 POP POP JUMP JUMPDEST PUSH0 PUSH1 0x20 DUP3 DUP5 SUB SLT ISZERO PUSH2 0x2A57 JUMPI PUSH2 0x2A56 PUSH2 0x26B4 JUMP JUMPDEST JUMPDEST PUSH0 PUSH2 0x2A64 DUP5 DUP3 DUP6 ADD PUSH2 0x26DB JUMP JUMPDEST SWAP2 POP POP SWAP3 SWAP2 POP POP JUMP JUMPDEST PUSH2 0x2A76 DUP2 PUSH2 0x26BC JUMP JUMPDEST DUP3 MSTORE POP POP JUMP JUMPDEST PUSH0 PUSH1 0x20 DUP3 ADD SWAP1 POP PUSH2 0x2A8F PUSH0 DUP4 ADD DUP5 PUSH2 0x2A6D JUMP JUMPDEST SWAP3 SWAP2 POP POP JUMP JUMPDEST PUSH0 PUSH1 0x40 DUP3 ADD SWAP1 POP PUSH2 0x2AA8 PUSH0 DUP4 ADD DUP6 PUSH2 0x2A6D JUMP JUMPDEST PUSH2 0x2AB5 PUSH1 0x20 DUP4 ADD DUP5 PUSH2 0x299A JUMP JUMPDEST SWAP4 SWAP3 POP POP POP JUMP JUMPDEST PUSH0 DUP1 PUSH0 DUP1 PUSH1 0x80 DUP6 DUP8 SUB SLT ISZERO PUSH2 0x2AD4 JUMPI PUSH2 0x2AD3 PUSH2 0x26B4 JUMP JUMPDEST JUMPDEST PUSH0 PUSH2 0x2AE1 DUP8 DUP3 DUP9 ADD PUSH2 0x26FE JUMP JUMPDEST SWAP5 POP POP PUSH1 0x20 DUP6 ADD CALLDATALOAD PUSH8 0xFFFFFFFFFFFFFFFF DUP2 GT ISZERO PUSH2 0x2B02 JUMPI PUSH2 0x2B01 PUSH2 0x26B8 JUMP JUMPDEST JUMPDEST PUSH2 0x2B0E DUP8 DUP3 DUP9 ADD PUSH2 0x2821 JUMP JUMPDEST SWAP4 POP POP PUSH1 0x40 DUP6 ADD CALLDATALOAD PUSH8 0xFFFFFFFFFFFFFFFF DUP2 GT ISZERO PUSH2 0x2B2F JUMPI PUSH2 0x2B2E PUSH2 0x26B8 JUMP JUMPDEST JUMPDEST PUSH2 0x2B3B DUP8 DUP3 DUP9 ADD PUSH2 0x2821 JUMP JUMPDEST SWAP3 POP POP PUSH1 0x60 DUP6 ADD CALLDATALOAD PUSH8 0xFFFFFFFFFFFFFFFF DUP2 GT ISZERO PUSH2 0x2B5C JUMPI PUSH2 0x2B5B PUSH2 0x26B8 JUMP JUMPDEST JUMPDEST PUSH2 0x2B68 DUP8 DUP3 DUP9 ADD PUSH2 0x2821 JUMP JUMPDEST SWAP2 POP POP SWAP3 SWAP6 SWAP2 SWAP5 POP SWAP3 POP JUMP JUMPDEST PUSH0 DUP2 SWAP1 POP SWAP2 SWAP1 POP JUMP JUMPDEST PUSH0 PUSH2 0x2B97 PUSH2 0x2B92 PUSH2 0x2B8D DUP5 PUSH2 0x2653 JUMP JUMPDEST PUSH2 0x2B74 JUMP JUMPDEST PUSH2 0x2653 JUMP JUMPDEST SWAP1 POP SWAP2 SWAP1 POP JUMP JUMPDEST PUSH0 PUSH2 0x2BA8 DUP3 PUSH2 0x2B7D JUMP JUMPDEST SWAP1 POP SWAP2 SWAP1 POP JUMP JUMPDEST PUSH0 PUSH2 0x2BB9 DUP3 PUSH2 0x2B9E JUMP JUMPDEST SWAP1 POP SWAP2 SWAP1 POP JUMP JUMPDEST PUSH2 0x2BC9 DUP2 PUSH2 0x2BAF JUMP JUMPDEST DUP3 MSTORE POP POP JUMP JUMPDEST PUSH0 PUSH1 0x20 DUP3 ADD SWAP1 POP PUSH2 0x2BE2 PUSH0 DUP4 ADD DUP5 PUSH2 0x2BC0 JUMP JUMPDEST SWAP3 SWAP2 POP POP JUMP JUMPDEST PUSH32 0x4E487B7100000000000000000000000000000000000000000000000000000000 PUSH0 MSTORE PUSH1 0x21 PUSH1 0x4 MSTORE PUSH1 0x24 PUSH0 REVERT JUMPDEST PUSH1 0x5 DUP2 LT PUSH2 0x2C26 JUMPI PUSH2 0x2C25 PUSH2 0x2BE8 JUMP JUMPDEST JUMPDEST POP JUMP JUMPDEST PUSH0 DUP2 SWAP1 POP PUSH2 0x2C36 DUP3 PUSH2 0x2C15 JUMP JUMPDEST SWAP2 SWAP1 POP JUMP JUMPDEST PUSH0 PUSH2 0x2C45 DUP3 PUSH2 0x2C29 JUMP JUMPDEST SWAP1 POP SWAP2 SWAP1 POP JUMP JUMPDEST PUSH2 0x2C55 DUP2 PUSH2 0x2C3B JUMP JUMPDEST DUP3 MSTORE POP POP JUMP JUMPDEST PUSH0 PUSH1 0xA0 DUP3 ADD SWAP1 POP PUSH2 0x2C6E PUSH0 DUP4 ADD DUP9 PUSH2 0x2C4C JUMP JUMPDEST DUP2 DUP2 SUB PUSH1 0x20 DUP4 ADD MSTORE PUSH2 0x2C80 DUP2 DUP8 PUSH2 0x29EA JUMP JUMPDEST SWAP1 POP DUP2 DUP2 SUB PUSH1 0x40 DUP4 ADD MSTORE PUSH2 0x2C94 DUP2 DUP7 PUSH2 0x29EA JUMP JUMPDEST SWAP1 POP DUP2 DUP2 SUB PUSH1 0x60 DUP4 ADD MSTORE PUSH2 0x2CA8 DUP2 DUP6 PUSH2 0x29EA JUMP JUMPDEST SWAP1 POP PUSH2 0x2CB7 PUSH1 0x80 DUP4 ADD DUP5 PUSH2 0x2A6D JUMP JUMPDEST SWAP7 SWAP6 POP POP POP POP POP POP JUMP JUMPDEST PUSH0 PUSH2 0x2CCB DUP3 PUSH2 0x2B9E JUMP JUMPDEST SWAP1 POP SWAP2 SWAP1 POP JUMP JUMPDEST PUSH2 0x2CDB DUP2 PUSH2 0x2CC1 JUMP JUMPDEST DUP3 MSTORE POP POP JUMP JUMPDEST PUSH0 PUSH1 0x20 DUP3 ADD SWAP1 POP PUSH2 0x2CF4 PUSH0 DUP4 ADD DUP5 PUSH2 0x2CD2 JUMP JUMPDEST SWAP3 SWAP2 POP POP JUMP JUMPDEST PUSH2 0x2D03 DUP2 PUSH2 0x2672 JUMP JUMPDEST DUP2 EQ PUSH2 0x2D0D JUMPI PUSH0 DUP1 REVERT JUMPDEST POP JUMP JUMPDEST PUSH0 DUP2 CALLDATALOAD SWAP1 POP PUSH2 0x2D1E DUP2 PUSH2 0x2CFA JUMP JUMPDEST SWAP3 SWAP2 POP POP JUMP JUMPDEST PUSH0 PUSH1 0x20 DUP3 DUP5 SUB SLT ISZERO PUSH2 0x2D39 JUMPI PUSH2 0x2D38 PUSH2 0x26B4 JUMP JUMPDEST JUMPDEST PUSH0 PUSH2 0x2D46 DUP5 DUP3 DUP6 ADD PUSH2 0x2D10 JUMP JUMPDEST SWAP2 POP POP SWAP3 SWAP2 POP POP JUMP JUMPDEST PUSH32 0x436F6E7472616374206973206E6F742061637469766500000000000000000000 PUSH0 DUP3 ADD MSTORE POP JUMP JUMPDEST PUSH0 PUSH2 0x2D83 PUSH1 0x16 DUP4 PUSH2 0x29CC JUMP JUMPDEST SWAP2 POP PUSH2 0x2D8E DUP3 PUSH2 0x2D4F JUMP JUMPDEST PUSH1 0x20 DUP3 ADD SWAP1 POP SWAP2 SWAP1 POP JUMP JUMPDEST PUSH0 PUSH1 0x20 DUP3 ADD SWAP1 POP DUP2 DUP2 SUB PUSH0 DUP4 ADD MSTORE PUSH2 0x2DB0 DUP2 PUSH2 0x2D77 JUMP JUMPDEST SWAP1 POP SWAP2 SWAP1 POP JUMP JUMPDEST PUSH0 DUP2 MLOAD SWAP1 POP PUSH2 0x2DC5 DUP2 PUSH2 0x26C5 JUMP JUMPDEST SWAP3 SWAP2 POP POP JUMP JUMPDEST PUSH0 PUSH1 0x20 DUP3 DUP5 SUB SLT ISZERO PUSH2 0x2DE0 JUMPI PUSH2 0x2DDF PUSH2 0x26B4 JUMP JUMPDEST JUMPDEST PUSH0 PUSH2 0x2DED DUP5 DUP3 DUP6 ADD PUSH2 0x2DB7 JUMP JUMPDEST SWAP2 POP POP SWAP3 SWAP2 POP POP JUMP JUMPDEST PUSH32 0x416363657373436F6E74726F6C436F6E74726163743A204D656D626572206973 PUSH0 DUP3 ADD MSTORE PUSH32 0x20626C6F636B6564000000000000000000000000000000000000000000000000 PUSH1 0x20 DUP3 ADD MSTORE POP JUMP JUMPDEST PUSH0 PUSH2 0x2E50 PUSH1 0x28 DUP4 PUSH2 0x29CC JUMP JUMPDEST SWAP2 POP PUSH2 0x2E5B DUP3 PUSH2 0x2DF6 JUMP JUMPDEST PUSH1 0x40 DUP3 ADD SWAP1 POP SWAP2 SWAP1 POP JUMP JUMPDEST PUSH0 PUSH1 0x20 DUP3 ADD SWAP1 POP DUP2 DUP2 SUB PUSH0 DUP4 ADD MSTORE PUSH2 0x2E7D DUP2 PUSH2 0x2E44 JUMP JUMPDEST SWAP1 POP SWAP2 SWAP1 POP JUMP JUMPDEST PUSH0 PUSH1 0x40 DUP3 ADD SWAP1 POP PUSH2 0x2E97 PUSH0 DUP4 ADD DUP6 PUSH2 0x2683 JUMP JUMPDEST DUP2 DUP2 SUB PUSH1 0x20 DUP4 ADD MSTORE PUSH2 0x2EA9 DUP2 DUP5 PUSH2 0x29EA JUMP JUMPDEST SWAP1 POP SWAP4 SWAP3 POP POP POP JUMP JUMPDEST PUSH0 PUSH2 0x2EC4 PUSH2 0x2EBF DUP5 PUSH2 0x27A2 JUMP JUMPDEST PUSH2 0x2788 JUMP JUMPDEST SWAP1 POP DUP3 DUP2 MSTORE PUSH1 0x20 DUP2 ADD DUP5 DUP5 DUP5 ADD GT ISZERO PUSH2 0x2EE0 JUMPI PUSH2 0x2EDF PUSH2 0x2716 JUMP JUMPDEST JUMPDEST PUSH2 0x2EEB DUP5 DUP3 DUP6 PUSH2 0x29DC JUMP JUMPDEST POP SWAP4 SWAP3 POP POP POP JUMP JUMPDEST PUSH0 DUP3 PUSH1 0x1F DUP4 ADD SLT PUSH2 0x2F07 JUMPI PUSH2 0x2F06 PUSH2 0x2712 JUMP JUMPDEST JUMPDEST DUP2 MLOAD PUSH2 0x2F17 DUP5 DUP3 PUSH1 0x20 DUP7 ADD PUSH2 0x2EB2 JUMP JUMPDEST SWAP2 POP POP SWAP3 SWAP2 POP POP JUMP JUMPDEST PUSH0 DUP1 PUSH0 PUSH1 0x60 DUP5 DUP7 SUB SLT ISZERO PUSH2 0x2F37 JUMPI PUSH2 0x2F36 PUSH2 0x26B4 JUMP JUMPDEST JUMPDEST PUSH0 PUSH2 0x2F44 DUP7 DUP3 DUP8 ADD PUSH2 0x2DB7 JUMP JUMPDEST SWAP4 POP POP PUSH1 0x20 DUP5 ADD MLOAD PUSH8 0xFFFFFFFFFFFFFFFF DUP2 GT ISZERO PUSH2 0x2F65 JUMPI PUSH2 0x2F64 PUSH2 0x26B8 JUMP JUMPDEST JUMPDEST PUSH2 0x2F71 DUP7 DUP3 DUP8 ADD PUSH2 0x2EF3 JUMP JUMPDEST SWAP3 POP POP PUSH1 0x40 PUSH2 0x2F82 DUP7 DUP3 DUP8 ADD PUSH2 0x2DB7 JUMP JUMPDEST SWAP2 POP POP SWAP3 POP SWAP3 POP SWAP3 JUMP JUMPDEST PUSH0 PUSH1 0x60 DUP3 ADD SWAP1 POP PUSH2 0x2F9F PUSH0 DUP4 ADD DUP7 PUSH2 0x2A6D JUMP JUMPDEST DUP2 DUP2 SUB PUSH1 0x20 DUP4 ADD MSTORE PUSH2 0x2FB1 DUP2 DUP6 PUSH2 0x29EA JUMP JUMPDEST SWAP1 POP PUSH2 0x2FC0 PUSH1 0x40 DUP4 ADD DUP5 PUSH2 0x2A6D JUMP JUMPDEST SWAP5 SWAP4 POP POP POP POP JUMP JUMPDEST PUSH32 0x506F6C69637920646F6573206E6F742065786973740000000000000000000000 PUSH0 DUP3 ADD MSTORE POP JUMP JUMPDEST PUSH0 PUSH2 0x2FFC PUSH1 0x15 DUP4 PUSH2 0x29CC JUMP JUMPDEST SWAP2 POP PUSH2 0x3007 DUP3 PUSH2 0x2FC8 JUMP JUMPDEST PUSH1 0x20 DUP3 ADD SWAP1 POP SWAP2 SWAP1 POP JUMP JUMPDEST PUSH0 PUSH1 0x20 DUP3 ADD SWAP1 POP DUP2 DUP2 SUB PUSH0 DUP4 ADD MSTORE PUSH2 0x3029 DUP2 PUSH2 0x2FF0 JUMP JUMPDEST SWAP1 POP SWAP2 SWAP1 POP JUMP JUMPDEST PUSH32 0x4E487B7100000000000000000000000000000000000000000000000000000000 PUSH0 MSTORE PUSH1 0x32 PUSH1 0x4 MSTORE PUSH1 0x24 PUSH0 REVERT JUMPDEST PUSH32 0x4E487B7100000000000000000000000000000000000000000000000000000000 PUSH0 MSTORE PUSH1 0x22 PUSH1 0x4 MSTORE PUSH1 0x24 PUSH0 REVERT JUMPDEST PUSH0 PUSH1 0x2 DUP3 DIV SWAP1 POP PUSH1 0x1 DUP3 AND DUP1 PUSH2 0x30A1 JUMPI PUSH1 0x7F DUP3 AND SWAP2 POP JUMPDEST PUSH1 0x20 DUP3 LT DUP2 SUB PUSH2 0x30B4 JUMPI PUSH2 0x30B3 PUSH2 0x305D JUMP JUMPDEST JUMPDEST POP SWAP2 SWAP1 POP JUMP JUMPDEST PUSH0 DUP2 SWAP1 POP DUP2 PUSH0 MSTORE PUSH1 0x20 PUSH0 KECCAK256 SWAP1 POP SWAP2 SWAP1 POP JUMP JUMPDEST PUSH0 PUSH1 0x20 PUSH1 0x1F DUP4 ADD DIV SWAP1 POP SWAP2 SWAP1 POP JUMP JUMPDEST PUSH0 DUP3 DUP3 SHL SWAP1 POP SWAP3 SWAP2 POP POP JUMP JUMPDEST PUSH0 PUSH1 0x8 DUP4 MUL PUSH2 0x3116 PUSH32 0xFFFFFFFFFFFFFFFFFFFFFFFFFFFFFFFFFFFFFFFFFFFFFFFFFFFFFFFFFFFFFFFF DUP3 PUSH2 0x30DB JUMP JUMPDEST PUSH2 0x3120 DUP7 DUP4 PUSH2 0x30DB JUMP JUMPDEST SWAP6 POP DUP1 NOT DUP5 AND SWAP4 POP DUP1 DUP7 AND DUP5 OR SWAP3 POP POP POP SWAP4 SWAP3 POP POP POP JUMP JUMPDEST PUSH0 PUSH2 0x3152 PUSH2 0x314D PUSH2 0x3148 DUP5 PUSH2 0x26BC JUMP JUMPDEST PUSH2 0x2B74 JUMP JUMPDEST PUSH2 0x26BC JUMP JUMPDEST SWAP1 POP SWAP2 SWAP1 POP JUMP JUMPDEST PUSH0 DUP2 SWAP1 POP SWAP2 SWAP1 POP JUMP JUMPDEST PUSH2 0x316B DUP4 PUSH2 0x3138 JUMP JUMPDEST PUSH2 0x317F PUSH2 0x3177 DUP3 PUSH2 0x3159 JUMP JUMPDEST DUP5 DUP5 SLOAD PUSH2 0x30E7 JUMP JUMPDEST DUP3 SSTORE POP POP POP POP JUMP JUMPDEST PUSH0 SWAP1 JUMP JUMPDEST PUSH2 0x3193 PUSH2 0x3187 JUMP JUMPDEST PUSH2 0x319E DUP2 DUP5 DUP5 PUSH2 0x3162 JUMP JUMPDEST POP POP POP JUMP JUMPDEST JUMPDEST DUP2 DUP2 LT ISZERO PUSH2 0x31C1 JUMPI PUSH2 0x31B6 PUSH0 DUP3 PUSH2 0x318B JUMP JUMPDEST PUSH1 0x1 DUP2 ADD SWAP1 POP PUSH2 0x31A4 JUMP JUMPDEST POP POP JUMP JUMPDEST PUSH1 0x1F DUP3 GT ISZERO PUSH2 0x3206 JUMPI PUSH2 0x31D7 DUP2 PUSH2 0x30BA JUMP JUMPDEST PUSH2 0x31E0 DUP5 PUSH2 0x30CC JUMP JUMPDEST DUP2 ADD PUSH1 0x20 DUP6 LT ISZERO PUSH2 0x31EF JUMPI DUP2 SWAP1 POP JUMPDEST PUSH2 0x3203 PUSH2 0x31FB DUP6 PUSH2 0x30CC JUMP JUMPDEST DUP4 ADD DUP3 PUSH2 0x31A3 JUMP JUMPDEST POP POP JUMPDEST POP POP POP JUMP JUMPDEST PUSH0 DUP3 DUP3 SHR SWAP1 POP SWAP3 SWAP2 POP POP JUMP JUMPDEST PUSH0 PUSH2 0x3226 PUSH0 NOT DUP5 PUSH1 0x8 MUL PUSH2 0x320B JUMP JUMPDEST NOT DUP1 DUP4 AND SWAP2 POP POP SWAP3 SWAP2 POP POP JUMP JUMPDEST PUSH0 PUSH2 0x323E DUP4 DUP4 PUSH2 0x3217 JUMP JUMPDEST SWAP2 POP DUP3 PUSH1 0x2 MUL DUP3 OR SWAP1 POP SWAP3 SWAP2 POP POP JUMP JUMPDEST PUSH2 0x3257 DUP3 PUSH2 0x29C2 JUMP JUMPDEST PUSH8 0xFFFFFFFFFFFFFFFF DUP2 GT ISZERO PUSH2 0x3270 JUMPI PUSH2 0x326F PUSH2 0x272A JUMP JUMPDEST JUMPDEST PUSH2 0x327A DUP3 SLOAD PUSH2 0x308A JUMP JUMPDEST PUSH2 0x3285 DUP3 DUP3 DUP6 PUSH2 0x31C5 JUMP JUMPDEST PUSH0 PUSH1 0x20 SWAP1 POP PUSH1 0x1F DUP4 GT PUSH1 0x1 DUP2 EQ PUSH2 0x32B6 JUMPI PUSH0 DUP5 ISZERO PUSH2 0x32A4 JUMPI DUP3 DUP8 ADD MLOAD SWAP1 POP JUMPDEST PUSH2 0x32AE DUP6 DUP3 PUSH2 0x3233 JUMP JUMPDEST DUP7 SSTORE POP PUSH2 0x3315 JUMP JUMPDEST PUSH1 0x1F NOT DUP5 AND PUSH2 0x32C4 DUP7 PUSH2 0x30BA JUMP JUMPDEST PUSH0 JUMPDEST DUP3 DUP2 LT ISZERO PUSH2 0x32EB JUMPI DUP5 DUP10 ADD MLOAD DUP3 SSTORE PUSH1 0x1 DUP3 ADD SWAP2 POP PUSH1 0x20 DUP6 ADD SWAP5 POP PUSH1 0x20 DUP2 ADD SWAP1 POP PUSH2 0x32C6 JUMP JUMPDEST DUP7 DUP4 LT ISZERO PUSH2 0x3308 JUMPI DUP5 DUP10 ADD MLOAD PUSH2 0x3304 PUSH1 0x1F DUP10 AND DUP3 PUSH2 0x3217 JUMP JUMPDEST DUP4 SSTORE POP JUMPDEST PUSH1 0x1 PUSH1 0x2 DUP9 MUL ADD DUP9 SSTORE POP POP POP JUMPDEST POP POP POP POP POP POP JUMP JUMPDEST PUSH0 PUSH1 0x80 DUP3 ADD SWAP1 POP PUSH2 0x3330 PUSH0 DUP4 ADD DUP8 PUSH2 0x2C4C JUMP JUMPDEST DUP2 DUP2 SUB PUSH1 0x20 DUP4 ADD MSTORE PUSH2 0x3342 DUP2 DUP7 PUSH2 0x29EA JUMP JUMPDEST SWAP1 POP DUP2 DUP2 SUB PUSH1 0x40 DUP4 ADD MSTORE PUSH2 0x3356 DUP2 DUP6 PUSH2 0x29EA JUMP JUMPDEST SWAP1 POP DUP2 DUP2 SUB PUSH1 0x60 DUP4 ADD MSTORE PUSH2 0x336A DUP2 DUP5 PUSH2 0x29EA JUMP JUMPDEST SWAP1 POP SWAP6 SWAP5 POP POP POP POP POP JUMP JUMPDEST PUSH32 0x43616C6C6572206973206E6F74207375626A6563740000000000000000000000 PUSH0 DUP3 ADD MSTORE POP JUMP JUMPDEST PUSH0 PUSH2 0x33A9 PUSH1 0x15 DUP4 PUSH2 0x29CC JUMP JUMPDEST SWAP2 POP PUSH2 0x33B4 DUP3 PUSH2 0x3375 JUMP JUMPDEST PUSH1 0x20 DUP3 ADD SWAP1 POP SWAP2 SWAP1 POP JUMP JUMPDEST PUSH0 PUSH1 0x20 DUP3 ADD SWAP1 POP DUP2 DUP2 SUB PUSH0 DUP4 ADD MSTORE PUSH2 0x33D6 DUP2 PUSH2 0x339D JUMP JUMPDEST SWAP1 POP SWAP2 SWAP1 POP JUMP JUMPDEST PUSH0 DUP2 MLOAD SWAP1 POP PUSH2 0x33EB DUP2 PUSH2 0x26EF JUMP JUMPDEST SWAP3 SWAP2 POP POP JUMP JUMPDEST PUSH0 PUSH1 0x20 DUP3 DUP5 SUB SLT ISZERO PUSH2 0x3406 JUMPI PUSH2 0x3405 PUSH2 0x26B4 JUMP JUMPDEST JUMPDEST PUSH0 PUSH2 0x3413 DUP5 DUP3 DUP6 ADD PUSH2 0x33DD JUMP JUMPDEST SWAP2 POP POP SWAP3 SWAP2 POP POP JUMP JUMPDEST PUSH0 DUP2 SWAP1 POP SWAP3 SWAP2 POP POP JUMP JUMPDEST PUSH0 DUP2 SWAP1 POP DUP2 PUSH0 MSTORE PUSH1 0x20 PUSH0 KECCAK256 SWAP1 POP SWAP2 SWAP1 POP JUMP JUMPDEST PUSH0 DUP2 SLOAD PUSH2 0x3444 DUP2 PUSH2 0x308A JUMP JUMPDEST PUSH2 0x344E DUP2 DUP7 PUSH2 0x341C JUMP JUMPDEST SWAP5 POP PUSH1 0x1 DUP3 AND PUSH0 DUP2 EQ PUSH2 0x3468 JUMPI PUSH1 0x1 DUP2 EQ PUSH2 0x347D JUMPI PUSH2 0x34AF JUMP JUMPDEST PUSH1 0xFF NOT DUP4 AND DUP7 MSTORE DUP2 ISZERO ISZERO DUP3 MUL DUP7 ADD SWAP4 POP PUSH2 0x34AF JUMP JUMPDEST PUSH2 0x3486 DUP6 PUSH2 0x3426 JUMP JUMPDEST PUSH0 JUMPDEST DUP4 DUP2 LT ISZERO PUSH2 0x34A7 JUMPI DUP2 SLOAD DUP2 DUP10 ADD MSTORE PUSH1 0x1 DUP3 ADD SWAP2 POP PUSH1 0x20 DUP2 ADD SWAP1 POP PUSH2 0x3488 JUMP JUMPDEST DUP4 DUP9 ADD SWAP6 POP POP POP JUMPDEST POP POP POP SWAP3 SWAP2 POP POP JUMP JUMPDEST PUSH0 PUSH2 0x34C3 DUP3 DUP5 PUSH2 0x3438 JUMP JUMPDEST SWAP2 POP DUP2 SWAP1 POP SWAP3 SWAP2 POP POP JUMP JUMPDEST PUSH32 0x4E487B7100000000000000000000000000000000000000000000000000000000 PUSH0 MSTORE PUSH1 0x11 PUSH1 0x4 MSTORE PUSH1 0x24 PUSH0 REVERT JUMPDEST PUSH0 PUSH2 0x3505 DUP3 PUSH2 0x26BC JUMP JUMPDEST SWAP2 POP PUSH2 0x3510 DUP4 PUSH2 0x26BC JUMP JUMPDEST SWAP3 POP DUP3 DUP3 ADD SWAP1 POP DUP1 DUP3 GT ISZERO PUSH2 0x3528 JUMPI PUSH2 0x3527 PUSH2 0x34CE JUMP JUMPDEST JUMPDEST SWAP3 SWAP2 POP POP JUMP JUMPDEST PUSH32 0x546F6F206672657175656E742061636365737300000000000000000000000000 PUSH0 DUP3 ADD MSTORE POP JUMP JUMPDEST PUSH0 PUSH2 0x3562 PUSH1 0x13 DUP4 PUSH2 0x29CC JUMP JUMPDEST SWAP2 POP PUSH2 0x356D DUP3 PUSH2 0x352E JUMP JUMPDEST PUSH1 0x20 DUP3 ADD SWAP1 POP SWAP2 SWAP1 POP JUMP JUMPDEST PUSH0 PUSH1 0x40 DUP3 ADD SWAP1 POP PUSH2 0x358B PUSH0 DUP4 ADD DUP5 PUSH2 0x2683 JUMP JUMPDEST DUP2 DUP2 SUB PUSH1 0x20 DUP4 ADD MSTORE PUSH2 0x359C DUP2 PUSH2 0x3556 JUMP JUMPDEST SWAP1 POP SWAP3 SWAP2 POP POP JUMP JUMPDEST PUSH0 PUSH1 0x80 DUP3 ADD SWAP1 POP PUSH2 0x35B7 PUSH0 DUP4 ADD DUP8 PUSH2 0x2C4C JUMP JUMPDEST DUP2 DUP2 SUB PUSH1 0x20 DUP4 ADD MSTORE PUSH2 0x35C9 DUP2 DUP7 PUSH2 0x29EA JUMP JUMPDEST SWAP1 POP DUP2 DUP2 SUB PUSH1 0x40 DUP4 ADD MSTORE PUSH2 0x35DD DUP2 DUP6 PUSH2 0x29EA JUMP JUMPDEST SWAP1 POP PUSH2 0x35EC PUSH1 0x60 DUP4 ADD DUP5 PUSH2 0x299A JUMP JUMPDEST SWAP6 SWAP5 POP POP POP POP POP JUMP JUMPDEST PUSH0 DUP1 PUSH1 0x40 DUP4 DUP6 SUB SLT ISZERO PUSH2 0x360B JUMPI PUSH2 0x360A PUSH2 0x26B4 JUMP JUMPDEST JUMPDEST PUSH0 PUSH2 0x3618 DUP6 DUP3 DUP7 ADD PUSH2 0x2DB7 JUMP JUMPDEST SWAP3 POP POP PUSH1 0x20 DUP4 ADD MLOAD PUSH8 0xFFFFFFFFFFFFFFFF DUP2 GT ISZERO PUSH2 0x3639 JUMPI PUSH2 0x3638 PUSH2 0x26B8 JUMP JUMPDEST JUMPDEST PUSH2 0x3645 DUP6 DUP3 DUP7 ADD PUSH2 0x2EF3 JUMP JUMPDEST SWAP2 POP POP SWAP3 POP SWAP3 SWAP1 POP JUMP JUMPDEST PUSH0 PUSH1 0x40 DUP3 ADD SWAP1 POP PUSH2 0x3662 PUSH0 DUP4 ADD DUP6 PUSH2 0x2A6D JUMP JUMPDEST DUP2 DUP2 SUB PUSH1 0x20 DUP4 ADD MSTORE PUSH2 0x3674 DUP2 DUP5 PUSH2 0x29EA JUMP JUMPDEST SWAP1 POP SWAP4 SWAP3 POP POP POP JUMP JUMPDEST PUSH32 0x54616D706572696E672077697468206461746100000000000000000000000000 PUSH0 DUP3 ADD MSTORE POP JUMP JUMPDEST PUSH0 PUSH2 0x36B1 PUSH1 0x13 DUP4 PUSH2 0x29CC JUMP JUMPDEST SWAP2 POP PUSH2 0x36BC DUP3 PUSH2 0x367D JUMP JUMPDEST PUSH1 0x20 DUP3 ADD SWAP1 POP SWAP2 SWAP1 POP JUMP JUMPDEST PUSH0 PUSH1 0x40 DUP3 ADD SWAP1 POP PUSH2 0x36DA PUSH0 DUP4 ADD DUP5 PUSH2 0x2683 JUMP JUMPDEST DUP2 DUP2 SUB PUSH1 0x20 DUP4 ADD MSTORE PUSH2 0x36EB DUP2 PUSH2 0x36A5 JUMP JUMPDEST SWAP1 POP SWAP3 SWAP2 POP POP JUMP JUMPDEST PUSH32 0x556E617574686F72697A65642061636365737320617474656D70740000000000 PUSH0 DUP3 ADD MSTORE POP JUMP JUMPDEST PUSH0 PUSH2 0x3727 PUSH1 0x1B DUP4 PUSH2 0x29CC JUMP JUMPDEST SWAP2 POP PUSH2 0x3732 DUP3 PUSH2 0x36F3 JUMP JUMPDEST PUSH1 0x20 DUP3 ADD SWAP1 POP SWAP2 SWAP1 POP JUMP JUMPDEST PUSH0 PUSH1 0x40 DUP3 ADD SWAP1 POP PUSH2 0x3750 PUSH0 DUP4 ADD DUP5 PUSH2 0x2683 JUMP JUMPDEST DUP2 DUP2 SUB PUSH1 0x20 DUP4 ADD MSTORE PUSH2 0x3761 DUP2 PUSH2 0x371B JUMP JUMPDEST SWAP1 POP SWAP3 SWAP2 POP POP JUMP JUMPDEST PUSH0 PUSH1 0x40 DUP3 ADD SWAP1 POP DUP2 DUP2 SUB PUSH0 DUP4 ADD MSTORE PUSH2 0x3781 DUP2 DUP6 PUSH2 0x29EA JUMP JUMPDEST SWAP1 POP DUP2 DUP2 SUB PUSH1 0x20 DUP4 ADD MSTORE PUSH2 0x3795 DUP2 DUP5 PUSH2 0x29EA JUMP JUMPDEST SWAP1 POP SWAP4 SWAP3 POP POP POP JUMP JUMPDEST PUSH0 PUSH2 0x37A8 DUP3 PUSH2 0x26BC JUMP JUMPDEST SWAP2 POP PUSH2 0x37B3 DUP4 PUSH2 0x26BC JUMP JUMPDEST SWAP3 POP DUP3 DUP3 SUB SWAP1 POP DUP2 DUP2 GT ISZERO PUSH2 0x37CB JUMPI PUSH2 0x37CA PUSH2 0x34CE JUMP JUMPDEST JUMPDEST SWAP3 SWAP2 POP POP JUMP INVALID LOG2 PUSH5 0x6970667358 0x22 SLT KECCAK256 PUSH0 PUSH4 0xD89725A8 0xD4 CHAINID JUMP GT DELEGATECALL PUSH32 0x203EA4072C1D9C8456CAB9233EF6689579E5155D64736F6C634300081A003300 "
		},
		"gasEstimates": {
			"creation": {
				"codeDepositCost": "2868600",
				"executionCost": "infinite",
				"totalCost": "infinite"
			},
			"external": {
				"accType()": "infinite",
				"accessControl(string,string)": "infinite",
				"activateContract()": "infinite",
				"benignThreshold()": "2514",
				"creator()": "2532",
				"deactivateContract()": "infinite",
				"getTime()": "infinite",
				"isActive()": "2489",
				"judgeContract()": "infinite",
				"objectAddress()": "2575",
				"policies(uint256)": "infinite",
				"policyAdd(uint8,string,string,string)": "infinite",
				"policyDelete(uint256)": "infinite",
				"policyUpdate(uint256,uint8,string,string,string)": "infinite",
				"roleBasedContract()": "infinite",
				"setJudgeContract(address)": "infinite",
				"subjectAddress()": "2582",
				"threshold()": "2492"
			}
		},
		"methodIdentifiers": {
			"accType()": "1e3b70b4",
			"accessControl(string,string)": "1073d7c1",
			"activateContract()": "8fda356d",
			"benignThreshold()": "48d33ef2",
			"creator()": "02d05d3f",
			"deactivateContract()": "bca353be",
			"getTime()": "557ed1ba",
			"isActive()": "22f3e2d4",
			"judgeContract()": "d6b683fc",
			"objectAddress()": "78f47501",
			"policies(uint256)": "d3e89483",
			"policyAdd(uint8,string,string,string)": "6391b488",
			"policyDelete(uint256)": "235fd7e2",
			"policyUpdate(uint256,uint8,string,string,string)": "0d9f7ed4",
			"roleBasedContract()": "a51b7136",
			"setJudgeContract(address)": "f03d96d0",
			"subjectAddress()": "58dbc45d",
			"threshold()": "42cde4e8"
		}
	},
	"abi": [
		{
			"inputs": [
				{
					"internalType": "address",
					"name": "_subjectAddress",
					"type": "address"
				},
				{
					"internalType": "address",
					"name": "_objectAddress",
					"type": "address"
				},
				{
					"internalType": "string",
					"name": "_accType",
					"type": "string"
				},
				{
					"internalType": "address",
					"name": "_roleBasedContract",
					"type": "address"
				},
				{
					"internalType": "address",
					"name": "_creator",
					"type": "address"
				}
			],
			"stateMutability": "nonpayable",
			"type": "constructor"
		},
		{
			"anonymous": false,
			"inputs": [
				{
					"indexed": true,
					"internalType": "address",
					"name": "subject",
					"type": "address"
				},
				{
					"indexed": false,
					"internalType": "enum RoleToken.Role",
					"name": "role",
					"type": "uint8"
				},
				{
					"indexed": false,
					"internalType": "string",
					"name": "resource",
					"type": "string"
				},
				{
					"indexed": false,
					"internalType": "string",
					"name": "action",
					"type": "string"
				},
				{
					"indexed": false,
					"internalType": "bool",
					"name": "allowed",
					"type": "bool"
				}
			],
			"name": "AccessControlChecked",
			"type": "event"
		},
		{
			"anonymous": false,
			"inputs": [],
			"name": "ContractActivated",
			"type": "event"
		},
		{
			"anonymous": false,
			"inputs": [],
			"name": "ContractDeactivated",
			"type": "event"
		},
		{
			"anonymous": false,
			"inputs": [
				{
					"indexed": true,
					"internalType": "address",
					"name": "from",
					"type": "address"
				},
				{
					"indexed": true,
					"internalType": "address",
					"name": "to",
					"type": "address"
				},
				{
					"indexed": false,
					"internalType": "string",
					"name": "data",
					"type": "string"
				}
			],
			"name": "DataTransferred",
			"type": "event"
		},
		{
			"anonymous": false,
			"inputs": [
				{
					"indexed": false,
					"internalType": "string",
					"name": "functionName",
					"type": "string"
				}
			],
			"name": "FunctionCalled",
			"type": "event"
		},
		{
			"anonymous": false,
			"inputs": [
				{
					"indexed": false,
					"internalType": "address",
					"name": "judgeContract",
					"type": "address"
				}
			],
			"name": "JudgeContractSet",
			"type": "event"
		},
		{
			"anonymous": false,
			"inputs": [
				{
					"indexed": true,
					"internalType": "address",
					"name": "subject",
					"type": "address"
				},
				{
					"indexed": false,
					"internalType": "uint256",
					"name": "penaltyAmount",
					"type": "uint256"
				},
				{
					"indexed": false,
					"internalType": "string",
					"name": "reason",
					"type": "string"
				},
				{
					"indexed": false,
					"internalType": "uint256",
					"name": "blockingEndTime",
					"type": "uint256"
				}
			],
			"name": "MaliciousActivityReported",
			"type": "event"
		},
		{
			"anonymous": false,
			"inputs": [
				{
					"indexed": true,
					"internalType": "address",
					"name": "subject",
					"type": "address"
				},
				{
					"indexed": false,
					"internalType": "uint256",
					"name": "rewardAmount",
					"type": "uint256"
				},
				{
					"indexed": false,
					"internalType": "string",
					"name": "newStatus",
					"type": "string"
				}
			],
			"name": "NonPenalizeMisbehaviorReported",
			"type": "event"
		},
		{
			"anonymous": false,
			"inputs": [
				{
					"indexed": true,
					"internalType": "uint256",
					"name": "policyId",
					"type": "uint256"
				},
				{
					"indexed": false,
					"internalType": "enum RoleToken.Role",
					"name": "role",
					"type": "uint8"
				},
				{
					"indexed": false,
					"internalType": "string",
					"name": "resource",
					"type": "string"
				},
				{
					"indexed": false,
					"internalType": "string",
					"name": "action",
					"type": "string"
				},
				{
					"indexed": false,
					"internalType": "string",
					"name": "permission",
					"type": "string"
				}
			],
			"name": "PolicyAdded",
			"type": "event"
		},
		{
			"anonymous": false,
			"inputs": [
				{
					"indexed": true,
					"internalType": "uint256",
					"name": "policyId",
					"type": "uint256"
				}
			],
			"name": "PolicyDeleted",
			"type": "event"
		},
		{
			"anonymous": false,
			"inputs": [
				{
					"indexed": false,
					"internalType": "string",
					"name": "resource",
					"type": "string"
				},
				{
					"indexed": false,
					"internalType": "string",
					"name": "action",
					"type": "string"
				}
			],
			"name": "PolicyNotFoundForAccessControl",
			"type": "event"
		},
		{
			"anonymous": false,
			"inputs": [
				{
					"indexed": true,
					"internalType": "uint256",
					"name": "policyId",
					"type": "uint256"
				},
				{
					"indexed": false,
					"internalType": "enum RoleToken.Role",
					"name": "role",
					"type": "uint8"
				},
				{
					"indexed": false,
					"internalType": "string",
					"name": "resource",
					"type": "string"
				},
				{
					"indexed": false,
					"internalType": "string",
					"name": "action",
					"type": "string"
				},
				{
					"indexed": false,
					"internalType": "string",
					"name": "permission",
					"type": "string"
				}
			],
			"name": "PolicyUpdated",
			"type": "event"
		},
		{
			"anonymous": false,
			"inputs": [
				{
					"indexed": false,
					"internalType": "address",
					"name": "roleBasedContract",
					"type": "address"
				}
			],
			"name": "RoleBasedContractSet",
			"type": "event"
		},
		{
			"inputs": [],
			"name": "accType",
			"outputs": [
				{
					"internalType": "string",
					"name": "",
					"type": "string"
				}
			],
			"stateMutability": "view",
			"type": "function"
		},
		{
			"inputs": [
				{
					"internalType": "string",
					"name": "resource",
					"type": "string"
				},
				{
					"internalType": "string",
					"name": "action",
					"type": "string"
				}
			],
			"name": "accessControl",
			"outputs": [
				{
					"internalType": "bool",
					"name": "",
					"type": "bool"
				}
			],
			"stateMutability": "nonpayable",
			"type": "function"
		},
		{
			"inputs": [],
			"name": "activateContract",
			"outputs": [],
			"stateMutability": "nonpayable",
			"type": "function"
		},
		{
			"inputs": [],
			"name": "benignThreshold",
			"outputs": [
				{
					"internalType": "uint256",
					"name": "",
					"type": "uint256"
				}
			],
			"stateMutability": "view",
			"type": "function"
		},
		{
			"inputs": [],
			"name": "creator",
			"outputs": [
				{
					"internalType": "address",
					"name": "",
					"type": "address"
				}
			],
			"stateMutability": "view",
			"type": "function"
		},
		{
			"inputs": [],
			"name": "deactivateContract",
			"outputs": [],
			"stateMutability": "nonpayable",
			"type": "function"
		},
		{
			"inputs": [],
			"name": "getTime",
			"outputs": [
				{
					"internalType": "uint256",
					"name": "",
					"type": "uint256"
				},
				{
					"internalType": "bool",
					"name": "",
					"type": "bool"
				}
			],
			"stateMutability": "view",
			"type": "function"
		},
		{
			"inputs": [],
			"name": "isActive",
			"outputs": [
				{
					"internalType": "bool",
					"name": "",
					"type": "bool"
				}
			],
			"stateMutability": "view",
			"type": "function"
		},
		{
			"inputs": [],
			"name": "judgeContract",
			"outputs": [
				{
					"internalType": "contract JudgeContract",
					"name": "",
					"type": "address"
				}
			],
			"stateMutability": "view",
			"type": "function"
		},
		{
			"inputs": [],
			"name": "objectAddress",
			"outputs": [
				{
					"internalType": "address",
					"name": "",
					"type": "address"
				}
			],
			"stateMutability": "view",
			"type": "function"
		},
		{
			"inputs": [
				{
					"internalType": "uint256",
					"name": "",
					"type": "uint256"
				}
			],
			"name": "policies",
			"outputs": [
				{
					"internalType": "enum RoleToken.Role",
					"name": "role",
					"type": "uint8"
				},
				{
					"internalType": "string",
					"name": "resource",
					"type": "string"
				},
				{
					"internalType": "string",
					"name": "action",
					"type": "string"
				},
				{
					"internalType": "string",
					"name": "permission",
					"type": "string"
				},
				{
					"internalType": "uint256",
					"name": "timeOfLastRequest",
					"type": "uint256"
				}
			],
			"stateMutability": "view",
			"type": "function"
		},
		{
			"inputs": [
				{
					"internalType": "enum RoleToken.Role",
					"name": "role",
					"type": "uint8"
				},
				{
					"internalType": "string",
					"name": "resource",
					"type": "string"
				},
				{
					"internalType": "string",
					"name": "action",
					"type": "string"
				},
				{
					"internalType": "string",
					"name": "permission",
					"type": "string"
				}
			],
			"name": "policyAdd",
			"outputs": [],
			"stateMutability": "nonpayable",
			"type": "function"
		},
		{
			"inputs": [
				{
					"internalType": "uint256",
					"name": "policyId",
					"type": "uint256"
				}
			],
			"name": "policyDelete",
			"outputs": [],
			"stateMutability": "nonpayable",
			"type": "function"
		},
		{
			"inputs": [
				{
					"internalType": "uint256",
					"name": "policyId",
					"type": "uint256"
				},
				{
					"internalType": "enum RoleToken.Role",
					"name": "role",
					"type": "uint8"
				},
				{
					"internalType": "string",
					"name": "resource",
					"type": "string"
				},
				{
					"internalType": "string",
					"name": "action",
					"type": "string"
				},
				{
					"internalType": "string",
					"name": "permission",
					"type": "string"
				}
			],
			"name": "policyUpdate",
			"outputs": [],
			"stateMutability": "nonpayable",
			"type": "function"
		},
		{
			"inputs": [],
			"name": "roleBasedContract",
			"outputs": [
				{
					"internalType": "contract RoleBasedAccessControl",
					"name": "",
					"type": "address"
				}
			],
			"stateMutability": "view",
			"type": "function"
		},
		{
			"inputs": [
				{
					"internalType": "address",
					"name": "_judgeContract",
					"type": "address"
				}
			],
			"name": "setJudgeContract",
			"outputs": [],
			"stateMutability": "nonpayable",
			"type": "function"
		},
		{
			"inputs": [],
			"name": "subjectAddress",
			"outputs": [
				{
					"internalType": "address",
					"name": "",
					"type": "address"
				}
			],
			"stateMutability": "view",
			"type": "function"
		},
		{
			"inputs": [],
			"name": "threshold",
			"outputs": [
				{
					"internalType": "uint256",
					"name": "",
					"type": "uint256"
				}
			],
			"stateMutability": "view",
			"type": "function"
		}
	]
}