{
	"data": {
		"bytecode": {
			"linkReferences": {},
			"object": "608060405234801561000f575f80fd5b506040516130e73803806130e783398101604081905261002e91610113565b836001600160a01b03811661005c57604051631e4fbdf760e01b81525f600482015260240160405180910390fd5b610065816100a9565b50600180546001600160a01b039485166001600160a01b03199182161790915560028054938516938216939093179092556003805491909316911617905550610164565b5f80546001600160a01b038381166001600160a01b0319831681178455604051919092169283917f8be0079c531659141344cd1fd0a4f28419497f9722a3daafe3b4186f6b6457e09190a35050565b80516001600160a01b038116811461010e575f80fd5b919050565b5f805f8060808587031215610126575f80fd5b61012f856100f8565b935061013d602086016100f8565b925061014b604086016100f8565b9150610159606086016100f8565b905092959194509250565b612f76806101715f395ff3fe608060405234801561000f575f80fd5b506004361061007a575f3560e01c806389d4e1031161005857806389d4e103146100ca5780638da5cb5b146100dd578063d6b683fc146100ed578063f2fde38b14610100575f80fd5b80630c317f061461007e578063715018a6146100ad5780637feffff3146100b7575b5f80fd5b600154610091906001600160a01b031681565b6040516001600160a01b03909116815260200160405180910390f35b6100b5610113565b005b600254610091906001600160a01b031681565b6100916100d8366004610555565b610126565b5f546001600160a01b0316610091565b600354610091906001600160a01b031681565b6100b561010e366004610628565b610461565b61011b61049e565b6101245f6104ca565b565b60015460405163deb2bbef60e01b81526001600160a01b03848116600483015285811660248301525f92169063deb2bbef90604401602060405180830381865afa158015610176573d5f803e3d5ffd5b505050506040513d601f19601f8201168201806040525081019061019a9190610648565b6102225760405162461bcd60e51b815260206004820152604860248201527f5375626a65637420616e64204f626a656374206d75737420626520696e20746860448201527f652073616d652067726f7570206f7220696e20676c6f62616c207265736f75726064820152676365207461626c6560c01b608482015260a4015b60405180910390fd5b60025460405163716e89e560e11b81526001600160a01b039091169063e2dd13ca9061025690879087908790600401610695565b602060405180830381865afa158015610271573d5f803e3d5ffd5b505050506040513d601f19601f820116820180604052508101906102959190610648565b1561030a576040805162461bcd60e51b81526020600482015260248101919091527f4572726f723a20416363657373436f6e74726f6c436f6e747261637420616c7260448201527f656164792065786973747320666f72207468697320636f6d62696e6174696f6e6064820152608401610219565b5f83858460015f9054906101000a90046001600160a01b03163360405161033090610519565b61033e9594939291906106c9565b604051809103905ff080158015610357573d5f803e3d5ffd5b50600354604051630f03d96d60e41b81526001600160a01b03918216600482015291925082169063f03d96d0906024015f604051808303815f87803b15801561039e575f80fd5b505af11580156103b0573d5f803e3d5ffd5b50506002546040516329cba93360e11b81526001600160a01b039091169250635397526691506103ea908890889088908790600401610716565b5f604051808303815f87803b158015610401575f80fd5b505af1158015610413573d5f803e3d5ffd5b5050604080516001600160a01b03851681523360208201527ffae712e212a1fa7ded47c40c88a1c2aab5dcb4942a1852ac75d9565b5b85741a935001905060405180910390a1949350505050565b61046961049e565b6001600160a01b03811661049257604051631e4fbdf760e01b81525f6004820152602401610219565b61049b816104ca565b50565b5f546001600160a01b031633146101245760405163118cdaa760e01b8152336004820152602401610219565b5f80546001600160a01b038381166001600160a01b0319831681178455604051919092169283917f8be0079c531659141344cd1fd0a4f28419497f9722a3daafe3b4186f6b6457e09190a35050565b6127e68061075b83390190565b80356001600160a01b038116811461053c575f80fd5b919050565b634e487b7160e01b5f52604160045260245ffd5b5f805f60608486031215610567575f80fd5b61057084610526565b925061057e60208501610526565b9150604084013567ffffffffffffffff811115610599575f80fd5b8401601f810186136105a9575f80fd5b803567ffffffffffffffff8111156105c3576105c3610541565b604051601f8201601f19908116603f0116810167ffffffffffffffff811182821017156105f2576105f2610541565b604052818152828201602001881015610609575f80fd5b816020840160208301375f602083830101528093505050509250925092565b5f60208284031215610638575f80fd5b61064182610526565b9392505050565b5f60208284031215610658575f80fd5b81518015158114610641575f80fd5b5f81518084528060208401602086015e5f602082860101526020601f19601f83011685010191505092915050565b6001600160a01b038481168252831660208201526060604082018190525f906106c090830184610667565b95945050505050565b6001600160a01b0386811682528516602082015260a0604082018190525f906106f490830186610667565b6001600160a01b03948516606084015292909316608090910152949350505050565b6001600160a01b038581168252841660208201526080604082018190525f9061074190830185610667565b905060018060a01b03831660608301529594505050505056fe6080604052603c6003556004805460ff1916600117905562015180600855348015610028575f80fd5b506040516127e63803806127e6833981016040819052610047916100f8565b600280546001600160a01b038085166001600160a01b0319928316179092556004805488841661010002610100600160a81b03199091161790556005805492871692909116919091179055600661009e848261026e565b50600780546001600160a01b0319166001600160a01b03929092169190911790555061032892505050565b80516001600160a01b03811681146100df575f80fd5b919050565b634e487b7160e01b5f52604160045260245ffd5b5f805f805f60a0868803121561010c575f80fd5b610115866100c9565b9450610123602087016100c9565b60408701519094506001600160401b0381111561013e575f80fd5b8601601f8101881361014e575f80fd5b80516001600160401b03811115610167576101676100e4565b604051601f8201601f19908116603f011681016001600160401b0381118282101715610195576101956100e4565b6040528181528282016020018a10156101ac575f80fd5b8160208401602083015e5f602083830101528095505050506101d0606087016100c9565b91506101de608087016100c9565b90509295509295909350565b600181811c908216806101fe57607f821691505b60208210810361021c57634e487b7160e01b5f52602260045260245ffd5b50919050565b601f82111561026957805f5260205f20601f840160051c810160208510156102475750805b601f840160051c820191505b81811015610266575f8155600101610253565b50505b505050565b81516001600160401b03811115610287576102876100e4565b61029b8161029584546101ea565b84610222565b6020601f8211600181146102cd575f83156102b65750848201515b5f19600385901b1c1916600184901b178455610266565b5f84815260208120601f198516915b828110156102fc57878501518255602094850194600190920191016102dc565b508482101561031957868401515f19600387901b60f8161c191681555b50505050600190811b01905550565b6124b1806103355f395ff3fe608060405234801561000f575f80fd5b5060043610610111575f3560e01c806358dbc45d1161009e578063a51b71361161006e578063a51b713614610235578063bca353be14610248578063d3e8948314610250578063d6b683fc14610274578063f03d96d014610287575f80fd5b806358dbc45d146101ef5780636391b4881461020757806378f475011461021a5780638fda356d1461022d575f80fd5b806322f3e2d4116100e457806322f3e2d414610192578063235fd7e21461019f57806342cde4e8146101b257806348d33ef2146101c9578063557ed1ba146101d2575f80fd5b806302d05d3f146101155780630d9f7ed4146101455780631073d7c11461015a5780631e3b70b41461017d575b5f80fd5b600754610128906001600160a01b031681565b6040516001600160a01b0390911681526020015b60405180910390f35b610158610153366004611c5f565b61029a565b005b61016d610168366004611d06565b610596565b604051901515815260200161013c565b610185611011565b60405161013c9190611d97565b60045461016d9060ff1681565b6101586101ad366004611db0565b61109d565b6101bb60035481565b60405190815260200161013c565b6101bb60085481565b6101da611306565b6040805192835290151560208301520161013c565b6004546101289061010090046001600160a01b031681565b610158610215366004611dc7565b61138c565b600554610128906001600160a01b031681565b610158611636565b600254610128906001600160a01b031681565b6101586117eb565b61026361025e366004611db0565b61191c565b60405161013c959493929190611e99565b600154610128906001600160a01b031681565b610158610295366004611ef1565b611af1565b60045460ff166102c55760405162461bcd60e51b81526004016102bc90611f17565b60405180910390fd5b6001546040516301c2084f60e31b81523360048201525f916001600160a01b031690630e10427890602401602060405180830381865afa15801561030b573d5f803e3d5ffd5b505050506040513d601f19601f8201168201806040525081019061032f9190611f47565b90508042116103505760405162461bcd60e51b81526004016102bc90611f5e565b60408051808201909152601b81525f8051602061243c83398151915260208201526007546001600160a01b0316331461043b5760015460405163626f80e760e11b81525f91829182916001600160a01b03169063c4df01ce906103b99033908890600401611fa6565b5f604051808303815f875af11580156103d4573d5f803e3d5ffd5b505050506040513d5f823e601f3d908101601f191682016040526103fb919081019061201e565b925092509250336001600160a01b03165f8051602061245c83398151915284848460405161042b9392919061206d565b60405180910390a250505061058d565b5f5487106104835760405162461bcd60e51b8152602060048201526015602482015274141bdb1a58de48191bd95cc81b9bdd08195e1a5cdd605a1b60448201526064016102bc565b6040518060a001604052808760048111156104a0576104a0611e65565b81526020018681526020018581526020018481526020015f8152505f88815481106104cd576104cd612095565b5f918252602090912082516005909202018054909190829060ff191660018360048111156104fd576104fd611e65565b021790555060208201516001820190610516908261212c565b506040820151600282019061052b908261212c565b5060608201516003820190610540908261212c565b5060808201518160040155905050867f4a878bb267cedaa636258d749db7a5ac8f0cc2338419d6b0429443d8a11d54708787878760405161058494939291906121e6565b60405180910390a25b50505050505050565b6004545f9060ff166105ba5760405162461bcd60e51b81526004016102bc90611f17565b6001546040516301c2084f60e31b81523360048201525f916001600160a01b031690630e10427890602401602060405180830381865afa158015610600573d5f803e3d5ffd5b505050506040513d601f19601f820116820180604052508101906106249190611f47565b90508042116106455760405162461bcd60e51b81526004016102bc90611f5e565b60045461010090046001600160a01b0316331461069c5760405162461bcd60e51b815260206004820152601560248201527410d85b1b195c881a5cc81b9bdd081cdd589a9958dd605a1b60448201526064016102bc565b600254604051634427673360e01b81523360048201525f916001600160a01b031690634427673390602401602060405180830381865afa1580156106e2573d5f803e3d5ffd5b505050506040513d601f19601f820116820180604052508101906107069190612236565b90505f5b5f54811015610d855781600481111561072557610725611e65565b5f828154811061073757610737612095565b5f91825260209091206005909102015460ff16600481111561075b5761075b611e65565b1480156107a3575085805190602001205f828154811061077d5761077d612095565b905f5260205f2090600502016001016040516107999190612251565b6040518091039020145b80156107ea575084805190602001205f82815481106107c4576107c4612095565b905f5260205f2090600502016002016040516107e09190612251565b6040518091039020145b15610d7d576003545f828154811061080457610804612095565b905f5260205f2090600502016004015461081e91906122d6565b421015610912576001546040805163626f80e760e11b815233600482015260248101919091526013604482015272546f6f206672657175656e742061636365737360681b60648201525f91829182916001600160a01b03169063c4df01ce906084015f604051808303815f875af115801561089b573d5f803e3d5ffd5b505050506040513d5f823e601f3d908101601f191682016040526108c2919081019061201e565b600454604051939650919450925061010090046001600160a01b0316905f8051602061245c833981519152906108fd9086908690869061206d565b60405180910390a25f9650505050505061100a565b425f828154811061092557610925612095565b905f5260205f20906005020160040181905550600460019054906101000a90046001600160a01b03166001600160a01b03167f5003ba6da275d66409e57db43f48416fff9168f7954c0da01fb2ffb3112c45a883888860405180604001604052806005815260200164616c6c6f7760d81b815250805190602001205f87815481106109b2576109b2612095565b905f5260205f2090600502016003016040516109ce9190612251565b6040519081900381206109e59594939214906122ef565b60405180910390a2604080518082019091526005815264616c6c6f7760d81b6020909101525f80547fbcec4be69db00d4d20952ae27cd2494b0e3bf401159e19fb6165a3f0849ef94090829084908110610a4157610a41612095565b905f5260205f209060050201600301604051610a5d9190612251565b60405180910390201490508015610b2d5760015460405163078d274760e21b81523360048201525f9182916001600160a01b0390911690631e349d1c906024015f604051808303815f875af1158015610ab8573d5f803e3d5ffd5b505050506040513d5f823e601f3d908101601f19168201604052610adf9190810190612334565b91509150336001600160a01b03167f99160c89fdccb67e1961cf554a10fffb3dbbb7b2cd44a817f2aac33deb57d9d78383604051610b1e92919061236e565b60405180910390a25050610d73565b60408051808201909152600481526319591a5d60e21b6020918201528651908701207fc1430af76e820ac7237bd100fccc681bfa953ee7522bb693b2fa2a71f1beafdd1480610bbe575060408051808201909152600681526564656c65746560d01b6020918201528651908701207f9fcba1e1e2be1b4668ce9e58bf81b52190e4098ed5452612e77505295dfbca56145b15610c795760015460405163626f80e760e11b81525f91829182916001600160a01b03169063c4df01ce90610bf7903390600401612386565b5f604051808303815f875af1158015610c12573d5f803e3d5ffd5b505050506040513d5f823e601f3d908101601f19168201604052610c39919081019061201e565b925092509250336001600160a01b03165f8051602061245c833981519152848484604051610c699392919061206d565b60405180910390a2505050610d73565b6040805180820190915260048152637669657760e01b6020918201528651908701207f5d4381bb4a4c75c843c4d35f8b5a6677e24c2b3b8c8ec346faaa6201d8dd576a01610d735760015460405163626f80e760e11b81525f91829182916001600160a01b03169063c4df01ce90610cf59033906004016123c5565b5f604051808303815f875af1158015610d10573d5f803e3d5ffd5b505050506040513d5f823e601f3d908101601f19168201604052610d37919081019061201e565b925092509250336001600160a01b03165f8051602061245c833981519152848484604051610d679392919061206d565b60405180910390a25050505b935061100a915050565b60010161070a565b5060408051808201909152600481526319591a5d60e21b6020918201528451908501207fc1430af76e820ac7237bd100fccc681bfa953ee7522bb693b2fa2a71f1beafdd1480610e17575060408051808201909152600681526564656c65746560d01b6020918201528451908501207f9fcba1e1e2be1b4668ce9e58bf81b52190e4098ed5452612e77505295dfbca56145b15610ed25760015460405163626f80e760e11b81525f91829182916001600160a01b03169063c4df01ce90610e50903390600401612386565b5f604051808303815f875af1158015610e6b573d5f803e3d5ffd5b505050506040513d5f823e601f3d908101601f19168201604052610e92919081019061201e565b925092509250336001600160a01b03165f8051602061245c833981519152848484604051610ec29392919061206d565b60405180910390a2505050610fcc565b6040805180820190915260048152637669657760e01b6020918201528451908501207f5d4381bb4a4c75c843c4d35f8b5a6677e24c2b3b8c8ec346faaa6201d8dd576a01610fcc5760015460405163626f80e760e11b81525f91829182916001600160a01b03169063c4df01ce90610f4e9033906004016123c5565b5f604051808303815f875af1158015610f69573d5f803e3d5ffd5b505050506040513d5f823e601f3d908101601f19168201604052610f90919081019061201e565b925092509250336001600160a01b03165f8051602061245c833981519152848484604051610fc09392919061206d565b60405180910390a25050505b7f38df3a8dddf6ef31501df5a214b30fe934ac5f4ed0cd1b5bc31f44752486c6ac8585604051610ffd9291906123fb565b60405180910390a15f9250505b5092915050565b6006805461101e906120a9565b80601f016020809104026020016040519081016040528092919081815260200182805461104a906120a9565b80156110955780601f1061106c57610100808354040283529160200191611095565b820191905f5260205f20905b81548152906001019060200180831161107857829003601f168201915b505050505081565b60045460ff166110bf5760405162461bcd60e51b81526004016102bc90611f17565b6001546040516301c2084f60e31b81523360048201525f916001600160a01b031690630e10427890602401602060405180830381865afa158015611105573d5f803e3d5ffd5b505050506040513d601f19601f820116820180604052508101906111299190611f47565b905080421161114a5760405162461bcd60e51b81526004016102bc90611f5e565b60408051808201909152601b81525f8051602061243c83398151915260208201526007546001600160a01b031633146112355760015460405163626f80e760e11b81525f91829182916001600160a01b03169063c4df01ce906111b39033908890600401611fa6565b5f604051808303815f875af11580156111ce573d5f803e3d5ffd5b505050506040513d5f823e601f3d908101601f191682016040526111f5919081019061201e565b925092509250336001600160a01b03165f8051602061245c8339815191528484846040516112259392919061206d565b60405180910390a2505050505050565b5f54831061127d5760405162461bcd60e51b8152602060048201526015602482015274141bdb1a58de48191bd95cc81b9bdd08195e1a5cdd605a1b60448201526064016102bc565b5f838154811061128f5761128f612095565b5f91825260208220600590910201805460ff19168155906112b36001830182611b45565b6112c0600283015f611b45565b6112cd600383015f611b45565b505f60049190910181905560405184917f433ab09ab993382af577c4a70f77dcc7cf149b5b52eb40d19b869664bfb5496d91a25b505050565b6001546040516301c2084f60e31b81523360048201525f91829182916001600160a01b031690630e10427890602401602060405180830381865afa158015611350573d5f803e3d5ffd5b505050506040513d601f19601f820116820180604052508101906113749190611f47565b90505f81421015611383575060015b90939092509050565b60045460ff166113ae5760405162461bcd60e51b81526004016102bc90611f17565b6001546040516301c2084f60e31b81523360048201525f916001600160a01b031690630e10427890602401602060405180830381865afa1580156113f4573d5f803e3d5ffd5b505050506040513d601f19601f820116820180604052508101906114189190611f47565b90508042116114395760405162461bcd60e51b81526004016102bc90611f5e565b60408051808201909152601b81525f8051602061243c83398151915260208201526007546001600160a01b031633146115245760015460405163626f80e760e11b81525f91829182916001600160a01b03169063c4df01ce906114a29033908890600401611fa6565b5f604051808303815f875af11580156114bd573d5f803e3d5ffd5b505050506040513d5f823e601f3d908101601f191682016040526114e4919081019061201e565b925092509250336001600160a01b03165f8051602061245c8339815191528484846040516115149392919061206d565b60405180910390a250505061162e565b5f6040518060a0016040528088600481111561154257611542611e65565b8152602080820189905260408201889052606082018790525f608090920182905283546001818101865594835291208251600590920201805492939092839160ff199091169083600481111561159a5761159a611e65565b0217905550602082015160018201906115b3908261212c565b50604082015160028201906115c8908261212c565b50606082015160038201906115dd908261212c565b50608091909101516004909101555f546115f990600190612428565b7fb90b27d205996a6ce127fc2f1bfbad17d5d8270e9a27ebb35037f2d67853b6cf8787878760405161122594939291906121e6565b505050505050565b6001546040516301c2084f60e31b81523360048201525f916001600160a01b031690630e10427890602401602060405180830381865afa15801561167c573d5f803e3d5ffd5b505050506040513d601f19601f820116820180604052508101906116a09190611f47565b90508042116116c15760405162461bcd60e51b81526004016102bc90611f5e565b60408051808201909152601181527044656e69616c206f66205365727669636560781b60208201526007546001600160a01b031633146117b25760015460405163626f80e760e11b81525f91829182916001600160a01b03169063c4df01ce906117319033908890600401611fa6565b5f604051808303815f875af115801561174c573d5f803e3d5ffd5b505050506040513d5f823e601f3d908101601f19168201604052611773919081019061201e565b925092509250336001600160a01b03165f8051602061245c8339815191528484846040516117a39392919061206d565b60405180910390a25050505050565b6004805460ff191660011790556040517fe09eb0ac9bad92f05e0b489e6fc1d3e349861ffd8a2548182ef06278968a9bd0905f90a15050565b6001546040516301c2084f60e31b81523360048201525f916001600160a01b031690630e10427890602401602060405180830381865afa158015611831573d5f803e3d5ffd5b505050506040513d601f19601f820116820180604052508101906118559190611f47565b90508042116118765760405162461bcd60e51b81526004016102bc90611f5e565b60408051808201909152601181527044656e69616c206f66205365727669636560781b60208201526007546001600160a01b031633146118e65760015460405163626f80e760e11b81525f91829182916001600160a01b03169063c4df01ce906117319033908890600401611fa6565b6004805460ff191690556040517f8c8771d60e1ae6b90556d35dc2f79a3190d6b4088c05d7ca8cabbb9e9061f3e5905f90a15050565b5f818154811061192a575f80fd5b5f9182526020909120600590910201805460018201805460ff909216935090611952906120a9565b80601f016020809104026020016040519081016040528092919081815260200182805461197e906120a9565b80156119c95780601f106119a0576101008083540402835291602001916119c9565b820191905f5260205f20905b8154815290600101906020018083116119ac57829003601f168201915b5050505050908060020180546119de906120a9565b80601f0160208091040260200160405190810160405280929190818152602001828054611a0a906120a9565b8015611a555780601f10611a2c57610100808354040283529160200191611a55565b820191905f5260205f20905b815481529060010190602001808311611a3857829003601f168201915b505050505090806003018054611a6a906120a9565b80601f0160208091040260200160405190810160405280929190818152602001828054611a96906120a9565b8015611ae15780601f10611ab857610100808354040283529160200191611ae1565b820191905f5260205f20905b815481529060010190602001808311611ac457829003601f168201915b5050505050908060040154905085565b600180546001600160a01b0319166001600160a01b0383169081179091556040519081527f60aef7237739f69cdef5dd8e8f90780ef1f3f6d76024d66e168102d04e88b5f49060200160405180910390a150565b508054611b51906120a9565b5f825580601f10611b60575050565b601f0160209004905f5260205f2090810190611b7c9190611b7f565b50565b5b80821115611b93575f8155600101611b80565b5090565b60058110611b7c575f80fd5b634e487b7160e01b5f52604160045260245ffd5b604051601f8201601f191681016001600160401b0381118282101715611bdf57611bdf611ba3565b604052919050565b5f6001600160401b03821115611bff57611bff611ba3565b50601f01601f191660200190565b5f82601f830112611c1c575f80fd5b8135611c2f611c2a82611be7565b611bb7565b818152846020838601011115611c43575f80fd5b816020850160208301375f918101602001919091529392505050565b5f805f805f60a08688031215611c73575f80fd5b853594506020860135611c8581611b97565b935060408601356001600160401b03811115611c9f575f80fd5b611cab88828901611c0d565b93505060608601356001600160401b03811115611cc6575f80fd5b611cd288828901611c0d565b92505060808601356001600160401b03811115611ced575f80fd5b611cf988828901611c0d565b9150509295509295909350565b5f8060408385031215611d17575f80fd5b82356001600160401b03811115611d2c575f80fd5b611d3885828601611c0d565b92505060208301356001600160401b03811115611d53575f80fd5b611d5f85828601611c0d565b9150509250929050565b5f81518084528060208401602086015e5f602082860101526020601f19601f83011685010191505092915050565b602081525f611da96020830184611d69565b9392505050565b5f60208284031215611dc0575f80fd5b5035919050565b5f805f8060808587031215611dda575f80fd5b8435611de581611b97565b935060208501356001600160401b03811115611dff575f80fd5b611e0b87828801611c0d565b93505060408501356001600160401b03811115611e26575f80fd5b611e3287828801611c0d565b92505060608501356001600160401b03811115611e4d575f80fd5b611e5987828801611c0d565b91505092959194509250565b634e487b7160e01b5f52602160045260245ffd5b60058110611e9557634e487b7160e01b5f52602160045260245ffd5b9052565b611ea38187611e79565b60a060208201525f611eb860a0830187611d69565b8281036040840152611eca8187611d69565b90508281036060840152611ede8186611d69565b9150508260808301529695505050505050565b5f60208284031215611f01575f80fd5b81356001600160a01b0381168114611da9575f80fd5b602080825260169082015275436f6e7472616374206973206e6f742061637469766560501b604082015260600190565b5f60208284031215611f57575f80fd5b5051919050565b60208082526028908201527f416363657373436f6e74726f6c436f6e74726163743a204d656d62657220697360408201526708189b1bd8dad95960c21b606082015260800190565b6001600160a01b03831681526040602082018190525f90611fc990830184611d69565b949350505050565b5f82601f830112611fe0575f80fd5b8151611fee611c2a82611be7565b818152846020838601011115612002575f80fd5b8160208501602083015e5f918101602001919091529392505050565b5f805f60608486031215612030575f80fd5b835160208501519093506001600160401b0381111561204d575f80fd5b61205986828701611fd1565b604095909501519396949550929392505050565b838152606060208201525f6120856060830185611d69565b9050826040830152949350505050565b634e487b7160e01b5f52603260045260245ffd5b600181811c908216806120bd57607f821691505b6020821081036120db57634e487b7160e01b5f52602260045260245ffd5b50919050565b601f82111561130157805f5260205f20601f840160051c810160208510156121065750805b601f840160051c820191505b81811015612125575f8155600101612112565b5050505050565b81516001600160401b0381111561214557612145611ba3565b6121598161215384546120a9565b846120e1565b6020601f82116001811461218b575f83156121745750848201515b5f19600385901b1c1916600184901b178455612125565b5f84815260208120601f198516915b828110156121ba578785015182556020948501946001909201910161219a565b50848210156121d757868401515f19600387901b60f8161c191681555b50505050600190811b01905550565b6121f08186611e79565b608060208201525f6122056080830186611d69565b82810360408401526122178186611d69565b9050828103606084015261222b8185611d69565b979650505050505050565b5f60208284031215612246575f80fd5b8151611da981611b97565b5f80835461225e816120a9565b600182168015612275576001811461228a576122b7565b60ff19831686528115158202860193506122b7565b865f5260205f205f5b838110156122af57815488820152600190910190602001612293565b505081860193505b509195945050505050565b634e487b7160e01b5f52601160045260245ffd5b808201808211156122e9576122e96122c2565b92915050565b6122f98186611e79565b608060208201525f61230e6080830186611d69565b82810360408401526123208186611d69565b915050821515606083015295945050505050565b5f8060408385031215612345575f80fd5b825160208401519092506001600160401b03811115612362575f80fd5b611d5f85828601611fd1565b828152604060208201525f611fc96040830184611d69565b6001600160a01b039190911681526040602082018190526013908201527254616d706572696e672077697468206461746160681b606082015260800190565b6001600160a01b03919091168152604060208201819052601b908201525f8051602061243c833981519152606082015260800190565b604081525f61240d6040830185611d69565b828103602084015261241f8185611d69565b95945050505050565b818103818111156122e9576122e96122c256fe556e617574686f72697a65642061636365737320617474656d707400000000003fc8de32d0ff2767d320c8c52fd3ab1a29ddf9484b23575845d542369bdfa37fa2646970667358221220a48f79aae767d20e9dd38e7c7e76df23035a12784ff95cdb2c985a462c408e1264736f6c634300081a0033a2646970667358221220e479e7c684fcd5455c43272b866f8636ca48b00ce3ce8c160d56b62fe80e1d6164736f6c634300081a0033",
			"opcodes": "PUSH1 0x80 PUSH1 0x40 MSTORE CALLVALUE DUP1 ISZERO PUSH2 0xF JUMPI PUSH0 DUP1 REVERT JUMPDEST POP PUSH1 0x40 MLOAD PUSH2 0x30E7 CODESIZE SUB DUP1 PUSH2 0x30E7 DUP4 CODECOPY DUP2 ADD PUSH1 0x40 DUP2 SWAP1 MSTORE PUSH2 0x2E SWAP2 PUSH2 0x113 JUMP JUMPDEST DUP4 PUSH1 0x1 PUSH1 0x1 PUSH1 0xA0 SHL SUB DUP2 AND PUSH2 0x5C JUMPI PUSH1 0x40 MLOAD PUSH4 0x1E4FBDF7 PUSH1 0xE0 SHL DUP2 MSTORE PUSH0 PUSH1 0x4 DUP3 ADD MSTORE PUSH1 0x24 ADD PUSH1 0x40 MLOAD DUP1 SWAP2 SUB SWAP1 REVERT JUMPDEST PUSH2 0x65 DUP2 PUSH2 0xA9 JUMP JUMPDEST POP PUSH1 0x1 DUP1 SLOAD PUSH1 0x1 PUSH1 0x1 PUSH1 0xA0 SHL SUB SWAP5 DUP6 AND PUSH1 0x1 PUSH1 0x1 PUSH1 0xA0 SHL SUB NOT SWAP2 DUP3 AND OR SWAP1 SWAP2 SSTORE PUSH1 0x2 DUP1 SLOAD SWAP4 DUP6 AND SWAP4 DUP3 AND SWAP4 SWAP1 SWAP4 OR SWAP1 SWAP3 SSTORE PUSH1 0x3 DUP1 SLOAD SWAP2 SWAP1 SWAP4 AND SWAP2 AND OR SWAP1 SSTORE POP PUSH2 0x164 JUMP JUMPDEST PUSH0 DUP1 SLOAD PUSH1 0x1 PUSH1 0x1 PUSH1 0xA0 SHL SUB DUP4 DUP2 AND PUSH1 0x1 PUSH1 0x1 PUSH1 0xA0 SHL SUB NOT DUP4 AND DUP2 OR DUP5 SSTORE PUSH1 0x40 MLOAD SWAP2 SWAP1 SWAP3 AND SWAP3 DUP4 SWAP2 PUSH32 0x8BE0079C531659141344CD1FD0A4F28419497F9722A3DAAFE3B4186F6B6457E0 SWAP2 SWAP1 LOG3 POP POP JUMP JUMPDEST DUP1 MLOAD PUSH1 0x1 PUSH1 0x1 PUSH1 0xA0 SHL SUB DUP2 AND DUP2 EQ PUSH2 0x10E JUMPI PUSH0 DUP1 REVERT JUMPDEST SWAP2 SWAP1 POP JUMP JUMPDEST PUSH0 DUP1 PUSH0 DUP1 PUSH1 0x80 DUP6 DUP8 SUB SLT ISZERO PUSH2 0x126 JUMPI PUSH0 DUP1 REVERT JUMPDEST PUSH2 0x12F DUP6 PUSH2 0xF8 JUMP JUMPDEST SWAP4 POP PUSH2 0x13D PUSH1 0x20 DUP7 ADD PUSH2 0xF8 JUMP JUMPDEST SWAP3 POP PUSH2 0x14B PUSH1 0x40 DUP7 ADD PUSH2 0xF8 JUMP JUMPDEST SWAP2 POP PUSH2 0x159 PUSH1 0x60 DUP7 ADD PUSH2 0xF8 JUMP JUMPDEST SWAP1 POP SWAP3 SWAP6 SWAP2 SWAP5 POP SWAP3 POP JUMP JUMPDEST PUSH2 0x2F76 DUP1 PUSH2 0x171 PUSH0 CODECOPY PUSH0 RETURN INVALID PUSH1 0x80 PUSH1 0x40 MSTORE CALLVALUE DUP1 ISZERO PUSH2 0xF JUMPI PUSH0 DUP1 REVERT JUMPDEST POP PUSH1 0x4 CALLDATASIZE LT PUSH2 0x7A JUMPI PUSH0 CALLDATALOAD PUSH1 0xE0 SHR DUP1 PUSH4 0x89D4E103 GT PUSH2 0x58 JUMPI DUP1 PUSH4 0x89D4E103 EQ PUSH2 0xCA JUMPI DUP1 PUSH4 0x8DA5CB5B EQ PUSH2 0xDD JUMPI DUP1 PUSH4 0xD6B683FC EQ PUSH2 0xED JUMPI DUP1 PUSH4 0xF2FDE38B EQ PUSH2 0x100 JUMPI PUSH0 DUP1 REVERT JUMPDEST DUP1 PUSH4 0xC317F06 EQ PUSH2 0x7E JUMPI DUP1 PUSH4 0x715018A6 EQ PUSH2 0xAD JUMPI DUP1 PUSH4 0x7FEFFFF3 EQ PUSH2 0xB7 JUMPI JUMPDEST PUSH0 DUP1 REVERT JUMPDEST PUSH1 0x1 SLOAD PUSH2 0x91 SWAP1 PUSH1 0x1 PUSH1 0x1 PUSH1 0xA0 SHL SUB AND DUP2 JUMP JUMPDEST PUSH1 0x40 MLOAD PUSH1 0x1 PUSH1 0x1 PUSH1 0xA0 SHL SUB SWAP1 SWAP2 AND DUP2 MSTORE PUSH1 0x20 ADD PUSH1 0x40 MLOAD DUP1 SWAP2 SUB SWAP1 RETURN JUMPDEST PUSH2 0xB5 PUSH2 0x113 JUMP JUMPDEST STOP JUMPDEST PUSH1 0x2 SLOAD PUSH2 0x91 SWAP1 PUSH1 0x1 PUSH1 0x1 PUSH1 0xA0 SHL SUB AND DUP2 JUMP JUMPDEST PUSH2 0x91 PUSH2 0xD8 CALLDATASIZE PUSH1 0x4 PUSH2 0x555 JUMP JUMPDEST PUSH2 0x126 JUMP JUMPDEST PUSH0 SLOAD PUSH1 0x1 PUSH1 0x1 PUSH1 0xA0 SHL SUB AND PUSH2 0x91 JUMP JUMPDEST PUSH1 0x3 SLOAD PUSH2 0x91 SWAP1 PUSH1 0x1 PUSH1 0x1 PUSH1 0xA0 SHL SUB AND DUP2 JUMP JUMPDEST PUSH2 0xB5 PUSH2 0x10E CALLDATASIZE PUSH1 0x4 PUSH2 0x628 JUMP JUMPDEST PUSH2 0x461 JUMP JUMPDEST PUSH2 0x11B PUSH2 0x49E JUMP JUMPDEST PUSH2 0x124 PUSH0 PUSH2 0x4CA JUMP JUMPDEST JUMP JUMPDEST PUSH1 0x1 SLOAD PUSH1 0x40 MLOAD PUSH4 0xDEB2BBEF PUSH1 0xE0 SHL DUP2 MSTORE PUSH1 0x1 PUSH1 0x1 PUSH1 0xA0 SHL SUB DUP5 DUP2 AND PUSH1 0x4 DUP4 ADD MSTORE DUP6 DUP2 AND PUSH1 0x24 DUP4 ADD MSTORE PUSH0 SWAP3 AND SWAP1 PUSH4 0xDEB2BBEF SWAP1 PUSH1 0x44 ADD PUSH1 0x20 PUSH1 0x40 MLOAD DUP1 DUP4 SUB DUP2 DUP7 GAS STATICCALL ISZERO DUP1 ISZERO PUSH2 0x176 JUMPI RETURNDATASIZE PUSH0 DUP1 RETURNDATACOPY RETURNDATASIZE PUSH0 REVERT JUMPDEST POP POP POP POP PUSH1 0x40 MLOAD RETURNDATASIZE PUSH1 0x1F NOT PUSH1 0x1F DUP3 ADD AND DUP3 ADD DUP1 PUSH1 0x40 MSTORE POP DUP2 ADD SWAP1 PUSH2 0x19A SWAP2 SWAP1 PUSH2 0x648 JUMP JUMPDEST PUSH2 0x222 JUMPI PUSH1 0x40 MLOAD PUSH3 0x461BCD PUSH1 0xE5 SHL DUP2 MSTORE PUSH1 0x20 PUSH1 0x4 DUP3 ADD MSTORE PUSH1 0x48 PUSH1 0x24 DUP3 ADD MSTORE PUSH32 0x5375626A65637420616E64204F626A656374206D75737420626520696E207468 PUSH1 0x44 DUP3 ADD MSTORE PUSH32 0x652073616D652067726F7570206F7220696E20676C6F62616C207265736F7572 PUSH1 0x64 DUP3 ADD MSTORE PUSH8 0x6365207461626C65 PUSH1 0xC0 SHL PUSH1 0x84 DUP3 ADD MSTORE PUSH1 0xA4 ADD JUMPDEST PUSH1 0x40 MLOAD DUP1 SWAP2 SUB SWAP1 REVERT JUMPDEST PUSH1 0x2 SLOAD PUSH1 0x40 MLOAD PUSH4 0x716E89E5 PUSH1 0xE1 SHL DUP2 MSTORE PUSH1 0x1 PUSH1 0x1 PUSH1 0xA0 SHL SUB SWAP1 SWAP2 AND SWAP1 PUSH4 0xE2DD13CA SWAP1 PUSH2 0x256 SWAP1 DUP8 SWAP1 DUP8 SWAP1 DUP8 SWAP1 PUSH1 0x4 ADD PUSH2 0x695 JUMP JUMPDEST PUSH1 0x20 PUSH1 0x40 MLOAD DUP1 DUP4 SUB DUP2 DUP7 GAS STATICCALL ISZERO DUP1 ISZERO PUSH2 0x271 JUMPI RETURNDATASIZE PUSH0 DUP1 RETURNDATACOPY RETURNDATASIZE PUSH0 REVERT JUMPDEST POP POP POP POP PUSH1 0x40 MLOAD RETURNDATASIZE PUSH1 0x1F NOT PUSH1 0x1F DUP3 ADD AND DUP3 ADD DUP1 PUSH1 0x40 MSTORE POP DUP2 ADD SWAP1 PUSH2 0x295 SWAP2 SWAP1 PUSH2 0x648 JUMP JUMPDEST ISZERO PUSH2 0x30A JUMPI PUSH1 0x40 DUP1 MLOAD PUSH3 0x461BCD PUSH1 0xE5 SHL DUP2 MSTORE PUSH1 0x20 PUSH1 0x4 DUP3 ADD MSTORE PUSH1 0x24 DUP2 ADD SWAP2 SWAP1 SWAP2 MSTORE PUSH32 0x4572726F723A20416363657373436F6E74726F6C436F6E747261637420616C72 PUSH1 0x44 DUP3 ADD MSTORE PUSH32 0x656164792065786973747320666F72207468697320636F6D62696E6174696F6E PUSH1 0x64 DUP3 ADD MSTORE PUSH1 0x84 ADD PUSH2 0x219 JUMP JUMPDEST PUSH0 DUP4 DUP6 DUP5 PUSH1 0x1 PUSH0 SWAP1 SLOAD SWAP1 PUSH2 0x100 EXP SWAP1 DIV PUSH1 0x1 PUSH1 0x1 PUSH1 0xA0 SHL SUB AND CALLER PUSH1 0x40 MLOAD PUSH2 0x330 SWAP1 PUSH2 0x519 JUMP JUMPDEST PUSH2 0x33E SWAP6 SWAP5 SWAP4 SWAP3 SWAP2 SWAP1 PUSH2 0x6C9 JUMP JUMPDEST PUSH1 0x40 MLOAD DUP1 SWAP2 SUB SWAP1 PUSH0 CREATE DUP1 ISZERO DUP1 ISZERO PUSH2 0x357 JUMPI RETURNDATASIZE PUSH0 DUP1 RETURNDATACOPY RETURNDATASIZE PUSH0 REVERT JUMPDEST POP PUSH1 0x3 SLOAD PUSH1 0x40 MLOAD PUSH4 0xF03D96D PUSH1 0xE4 SHL DUP2 MSTORE PUSH1 0x1 PUSH1 0x1 PUSH1 0xA0 SHL SUB SWAP2 DUP3 AND PUSH1 0x4 DUP3 ADD MSTORE SWAP2 SWAP3 POP DUP3 AND SWAP1 PUSH4 0xF03D96D0 SWAP1 PUSH1 0x24 ADD PUSH0 PUSH1 0x40 MLOAD DUP1 DUP4 SUB DUP2 PUSH0 DUP8 DUP1 EXTCODESIZE ISZERO DUP1 ISZERO PUSH2 0x39E JUMPI PUSH0 DUP1 REVERT JUMPDEST POP GAS CALL ISZERO DUP1 ISZERO PUSH2 0x3B0 JUMPI RETURNDATASIZE PUSH0 DUP1 RETURNDATACOPY RETURNDATASIZE PUSH0 REVERT JUMPDEST POP POP PUSH1 0x2 SLOAD PUSH1 0x40 MLOAD PUSH4 0x29CBA933 PUSH1 0xE1 SHL DUP2 MSTORE PUSH1 0x1 PUSH1 0x1 PUSH1 0xA0 SHL SUB SWAP1 SWAP2 AND SWAP3 POP PUSH4 0x53975266 SWAP2 POP PUSH2 0x3EA SWAP1 DUP9 SWAP1 DUP9 SWAP1 DUP9 SWAP1 DUP8 SWAP1 PUSH1 0x4 ADD PUSH2 0x716 JUMP JUMPDEST PUSH0 PUSH1 0x40 MLOAD DUP1 DUP4 SUB DUP2 PUSH0 DUP8 DUP1 EXTCODESIZE ISZERO DUP1 ISZERO PUSH2 0x401 JUMPI PUSH0 DUP1 REVERT JUMPDEST POP GAS CALL ISZERO DUP1 ISZERO PUSH2 0x413 JUMPI RETURNDATASIZE PUSH0 DUP1 RETURNDATACOPY RETURNDATASIZE PUSH0 REVERT JUMPDEST POP POP PUSH1 0x40 DUP1 MLOAD PUSH1 0x1 PUSH1 0x1 PUSH1 0xA0 SHL SUB DUP6 AND DUP2 MSTORE CALLER PUSH1 0x20 DUP3 ADD MSTORE PUSH32 0xFAE712E212A1FA7DED47C40C88A1C2AAB5DCB4942A1852AC75D9565B5B85741A SWAP4 POP ADD SWAP1 POP PUSH1 0x40 MLOAD DUP1 SWAP2 SUB SWAP1 LOG1 SWAP5 SWAP4 POP POP POP POP JUMP JUMPDEST PUSH2 0x469 PUSH2 0x49E JUMP JUMPDEST PUSH1 0x1 PUSH1 0x1 PUSH1 0xA0 SHL SUB DUP2 AND PUSH2 0x492 JUMPI PUSH1 0x40 MLOAD PUSH4 0x1E4FBDF7 PUSH1 0xE0 SHL DUP2 MSTORE PUSH0 PUSH1 0x4 DUP3 ADD MSTORE PUSH1 0x24 ADD PUSH2 0x219 JUMP JUMPDEST PUSH2 0x49B DUP2 PUSH2 0x4CA JUMP JUMPDEST POP JUMP JUMPDEST PUSH0 SLOAD PUSH1 0x1 PUSH1 0x1 PUSH1 0xA0 SHL SUB AND CALLER EQ PUSH2 0x124 JUMPI PUSH1 0x40 MLOAD PUSH4 0x118CDAA7 PUSH1 0xE0 SHL DUP2 MSTORE CALLER PUSH1 0x4 DUP3 ADD MSTORE PUSH1 0x24 ADD PUSH2 0x219 JUMP JUMPDEST PUSH0 DUP1 SLOAD PUSH1 0x1 PUSH1 0x1 PUSH1 0xA0 SHL SUB DUP4 DUP2 AND PUSH1 0x1 PUSH1 0x1 PUSH1 0xA0 SHL SUB NOT DUP4 AND DUP2 OR DUP5 SSTORE PUSH1 0x40 MLOAD SWAP2 SWAP1 SWAP3 AND SWAP3 DUP4 SWAP2 PUSH32 0x8BE0079C531659141344CD1FD0A4F28419497F9722A3DAAFE3B4186F6B6457E0 SWAP2 SWAP1 LOG3 POP POP JUMP JUMPDEST PUSH2 0x27E6 DUP1 PUSH2 0x75B DUP4 CODECOPY ADD SWAP1 JUMP JUMPDEST DUP1 CALLDATALOAD PUSH1 0x1 PUSH1 0x1 PUSH1 0xA0 SHL SUB DUP2 AND DUP2 EQ PUSH2 0x53C JUMPI PUSH0 DUP1 REVERT JUMPDEST SWAP2 SWAP1 POP JUMP JUMPDEST PUSH4 0x4E487B71 PUSH1 0xE0 SHL PUSH0 MSTORE PUSH1 0x41 PUSH1 0x4 MSTORE PUSH1 0x24 PUSH0 REVERT JUMPDEST PUSH0 DUP1 PUSH0 PUSH1 0x60 DUP5 DUP7 SUB SLT ISZERO PUSH2 0x567 JUMPI PUSH0 DUP1 REVERT JUMPDEST PUSH2 0x570 DUP5 PUSH2 0x526 JUMP JUMPDEST SWAP3 POP PUSH2 0x57E PUSH1 0x20 DUP6 ADD PUSH2 0x526 JUMP JUMPDEST SWAP2 POP PUSH1 0x40 DUP5 ADD CALLDATALOAD PUSH8 0xFFFFFFFFFFFFFFFF DUP2 GT ISZERO PUSH2 0x599 JUMPI PUSH0 DUP1 REVERT JUMPDEST DUP5 ADD PUSH1 0x1F DUP2 ADD DUP7 SGT PUSH2 0x5A9 JUMPI PUSH0 DUP1 REVERT JUMPDEST DUP1 CALLDATALOAD PUSH8 0xFFFFFFFFFFFFFFFF DUP2 GT ISZERO PUSH2 0x5C3 JUMPI PUSH2 0x5C3 PUSH2 0x541 JUMP JUMPDEST PUSH1 0x40 MLOAD PUSH1 0x1F DUP3 ADD PUSH1 0x1F NOT SWAP1 DUP2 AND PUSH1 0x3F ADD AND DUP2 ADD PUSH8 0xFFFFFFFFFFFFFFFF DUP2 GT DUP3 DUP3 LT OR ISZERO PUSH2 0x5F2 JUMPI PUSH2 0x5F2 PUSH2 0x541 JUMP JUMPDEST PUSH1 0x40 MSTORE DUP2 DUP2 MSTORE DUP3 DUP3 ADD PUSH1 0x20 ADD DUP9 LT ISZERO PUSH2 0x609 JUMPI PUSH0 DUP1 REVERT JUMPDEST DUP2 PUSH1 0x20 DUP5 ADD PUSH1 0x20 DUP4 ADD CALLDATACOPY PUSH0 PUSH1 0x20 DUP4 DUP4 ADD ADD MSTORE DUP1 SWAP4 POP POP POP POP SWAP3 POP SWAP3 POP SWAP3 JUMP JUMPDEST PUSH0 PUSH1 0x20 DUP3 DUP5 SUB SLT ISZERO PUSH2 0x638 JUMPI PUSH0 DUP1 REVERT JUMPDEST PUSH2 0x641 DUP3 PUSH2 0x526 JUMP JUMPDEST SWAP4 SWAP3 POP POP POP JUMP JUMPDEST PUSH0 PUSH1 0x20 DUP3 DUP5 SUB SLT ISZERO PUSH2 0x658 JUMPI PUSH0 DUP1 REVERT JUMPDEST DUP2 MLOAD DUP1 ISZERO ISZERO DUP2 EQ PUSH2 0x641 JUMPI PUSH0 DUP1 REVERT JUMPDEST PUSH0 DUP2 MLOAD DUP1 DUP5 MSTORE DUP1 PUSH1 0x20 DUP5 ADD PUSH1 0x20 DUP7 ADD MCOPY PUSH0 PUSH1 0x20 DUP3 DUP7 ADD ADD MSTORE PUSH1 0x20 PUSH1 0x1F NOT PUSH1 0x1F DUP4 ADD AND DUP6 ADD ADD SWAP2 POP POP SWAP3 SWAP2 POP POP JUMP JUMPDEST PUSH1 0x1 PUSH1 0x1 PUSH1 0xA0 SHL SUB DUP5 DUP2 AND DUP3 MSTORE DUP4 AND PUSH1 0x20 DUP3 ADD MSTORE PUSH1 0x60 PUSH1 0x40 DUP3 ADD DUP2 SWAP1 MSTORE PUSH0 SWAP1 PUSH2 0x6C0 SWAP1 DUP4 ADD DUP5 PUSH2 0x667 JUMP JUMPDEST SWAP6 SWAP5 POP POP POP POP POP JUMP JUMPDEST PUSH1 0x1 PUSH1 0x1 PUSH1 0xA0 SHL SUB DUP7 DUP2 AND DUP3 MSTORE DUP6 AND PUSH1 0x20 DUP3 ADD MSTORE PUSH1 0xA0 PUSH1 0x40 DUP3 ADD DUP2 SWAP1 MSTORE PUSH0 SWAP1 PUSH2 0x6F4 SWAP1 DUP4 ADD DUP7 PUSH2 0x667 JUMP JUMPDEST PUSH1 0x1 PUSH1 0x1 PUSH1 0xA0 SHL SUB SWAP5 DUP6 AND PUSH1 0x60 DUP5 ADD MSTORE SWAP3 SWAP1 SWAP4 AND PUSH1 0x80 SWAP1 SWAP2 ADD MSTORE SWAP5 SWAP4 POP POP POP POP JUMP JUMPDEST PUSH1 0x1 PUSH1 0x1 PUSH1 0xA0 SHL SUB DUP6 DUP2 AND DUP3 MSTORE DUP5 AND PUSH1 0x20 DUP3 ADD MSTORE PUSH1 0x80 PUSH1 0x40 DUP3 ADD DUP2 SWAP1 MSTORE PUSH0 SWAP1 PUSH2 0x741 SWAP1 DUP4 ADD DUP6 PUSH2 0x667 JUMP JUMPDEST SWAP1 POP PUSH1 0x1 DUP1 PUSH1 0xA0 SHL SUB DUP4 AND PUSH1 0x60 DUP4 ADD MSTORE SWAP6 SWAP5 POP POP POP POP POP JUMP INVALID PUSH1 0x80 PUSH1 0x40 MSTORE PUSH1 0x3C PUSH1 0x3 SSTORE PUSH1 0x4 DUP1 SLOAD PUSH1 0xFF NOT AND PUSH1 0x1 OR SWAP1 SSTORE PUSH3 0x15180 PUSH1 0x8 SSTORE CALLVALUE DUP1 ISZERO PUSH2 0x28 JUMPI PUSH0 DUP1 REVERT JUMPDEST POP PUSH1 0x40 MLOAD PUSH2 0x27E6 CODESIZE SUB DUP1 PUSH2 0x27E6 DUP4 CODECOPY DUP2 ADD PUSH1 0x40 DUP2 SWAP1 MSTORE PUSH2 0x47 SWAP2 PUSH2 0xF8 JUMP JUMPDEST PUSH1 0x2 DUP1 SLOAD PUSH1 0x1 PUSH1 0x1 PUSH1 0xA0 SHL SUB DUP1 DUP6 AND PUSH1 0x1 PUSH1 0x1 PUSH1 0xA0 SHL SUB NOT SWAP3 DUP4 AND OR SWAP1 SWAP3 SSTORE PUSH1 0x4 DUP1 SLOAD DUP9 DUP5 AND PUSH2 0x100 MUL PUSH2 0x100 PUSH1 0x1 PUSH1 0xA8 SHL SUB NOT SWAP1 SWAP2 AND OR SWAP1 SSTORE PUSH1 0x5 DUP1 SLOAD SWAP3 DUP8 AND SWAP3 SWAP1 SWAP2 AND SWAP2 SWAP1 SWAP2 OR SWAP1 SSTORE PUSH1 0x6 PUSH2 0x9E DUP5 DUP3 PUSH2 0x26E JUMP JUMPDEST POP PUSH1 0x7 DUP1 SLOAD PUSH1 0x1 PUSH1 0x1 PUSH1 0xA0 SHL SUB NOT AND PUSH1 0x1 PUSH1 0x1 PUSH1 0xA0 SHL SUB SWAP3 SWAP1 SWAP3 AND SWAP2 SWAP1 SWAP2 OR SWAP1 SSTORE POP PUSH2 0x328 SWAP3 POP POP POP JUMP JUMPDEST DUP1 MLOAD PUSH1 0x1 PUSH1 0x1 PUSH1 0xA0 SHL SUB DUP2 AND DUP2 EQ PUSH2 0xDF JUMPI PUSH0 DUP1 REVERT JUMPDEST SWAP2 SWAP1 POP JUMP JUMPDEST PUSH4 0x4E487B71 PUSH1 0xE0 SHL PUSH0 MSTORE PUSH1 0x41 PUSH1 0x4 MSTORE PUSH1 0x24 PUSH0 REVERT JUMPDEST PUSH0 DUP1 PUSH0 DUP1 PUSH0 PUSH1 0xA0 DUP7 DUP9 SUB SLT ISZERO PUSH2 0x10C JUMPI PUSH0 DUP1 REVERT JUMPDEST PUSH2 0x115 DUP7 PUSH2 0xC9 JUMP JUMPDEST SWAP5 POP PUSH2 0x123 PUSH1 0x20 DUP8 ADD PUSH2 0xC9 JUMP JUMPDEST PUSH1 0x40 DUP8 ADD MLOAD SWAP1 SWAP5 POP PUSH1 0x1 PUSH1 0x1 PUSH1 0x40 SHL SUB DUP2 GT ISZERO PUSH2 0x13E JUMPI PUSH0 DUP1 REVERT JUMPDEST DUP7 ADD PUSH1 0x1F DUP2 ADD DUP9 SGT PUSH2 0x14E JUMPI PUSH0 DUP1 REVERT JUMPDEST DUP1 MLOAD PUSH1 0x1 PUSH1 0x1 PUSH1 0x40 SHL SUB DUP2 GT ISZERO PUSH2 0x167 JUMPI PUSH2 0x167 PUSH2 0xE4 JUMP JUMPDEST PUSH1 0x40 MLOAD PUSH1 0x1F DUP3 ADD PUSH1 0x1F NOT SWAP1 DUP2 AND PUSH1 0x3F ADD AND DUP2 ADD PUSH1 0x1 PUSH1 0x1 PUSH1 0x40 SHL SUB DUP2 GT DUP3 DUP3 LT OR ISZERO PUSH2 0x195 JUMPI PUSH2 0x195 PUSH2 0xE4 JUMP JUMPDEST PUSH1 0x40 MSTORE DUP2 DUP2 MSTORE DUP3 DUP3 ADD PUSH1 0x20 ADD DUP11 LT ISZERO PUSH2 0x1AC JUMPI PUSH0 DUP1 REVERT JUMPDEST DUP2 PUSH1 0x20 DUP5 ADD PUSH1 0x20 DUP4 ADD MCOPY PUSH0 PUSH1 0x20 DUP4 DUP4 ADD ADD MSTORE DUP1 SWAP6 POP POP POP POP PUSH2 0x1D0 PUSH1 0x60 DUP8 ADD PUSH2 0xC9 JUMP JUMPDEST SWAP2 POP PUSH2 0x1DE PUSH1 0x80 DUP8 ADD PUSH2 0xC9 JUMP JUMPDEST SWAP1 POP SWAP3 SWAP6 POP SWAP3 SWAP6 SWAP1 SWAP4 POP JUMP JUMPDEST PUSH1 0x1 DUP2 DUP2 SHR SWAP1 DUP3 AND DUP1 PUSH2 0x1FE JUMPI PUSH1 0x7F DUP3 AND SWAP2 POP JUMPDEST PUSH1 0x20 DUP3 LT DUP2 SUB PUSH2 0x21C JUMPI PUSH4 0x4E487B71 PUSH1 0xE0 SHL PUSH0 MSTORE PUSH1 0x22 PUSH1 0x4 MSTORE PUSH1 0x24 PUSH0 REVERT JUMPDEST POP SWAP2 SWAP1 POP JUMP JUMPDEST PUSH1 0x1F DUP3 GT ISZERO PUSH2 0x269 JUMPI DUP1 PUSH0 MSTORE PUSH1 0x20 PUSH0 KECCAK256 PUSH1 0x1F DUP5 ADD PUSH1 0x5 SHR DUP2 ADD PUSH1 0x20 DUP6 LT ISZERO PUSH2 0x247 JUMPI POP DUP1 JUMPDEST PUSH1 0x1F DUP5 ADD PUSH1 0x5 SHR DUP3 ADD SWAP2 POP JUMPDEST DUP2 DUP2 LT ISZERO PUSH2 0x266 JUMPI PUSH0 DUP2 SSTORE PUSH1 0x1 ADD PUSH2 0x253 JUMP JUMPDEST POP POP JUMPDEST POP POP POP JUMP JUMPDEST DUP2 MLOAD PUSH1 0x1 PUSH1 0x1 PUSH1 0x40 SHL SUB DUP2 GT ISZERO PUSH2 0x287 JUMPI PUSH2 0x287 PUSH2 0xE4 JUMP JUMPDEST PUSH2 0x29B DUP2 PUSH2 0x295 DUP5 SLOAD PUSH2 0x1EA JUMP JUMPDEST DUP5 PUSH2 0x222 JUMP JUMPDEST PUSH1 0x20 PUSH1 0x1F DUP3 GT PUSH1 0x1 DUP2 EQ PUSH2 0x2CD JUMPI PUSH0 DUP4 ISZERO PUSH2 0x2B6 JUMPI POP DUP5 DUP3 ADD MLOAD JUMPDEST PUSH0 NOT PUSH1 0x3 DUP6 SWAP1 SHL SHR NOT AND PUSH1 0x1 DUP5 SWAP1 SHL OR DUP5 SSTORE PUSH2 0x266 JUMP JUMPDEST PUSH0 DUP5 DUP2 MSTORE PUSH1 0x20 DUP2 KECCAK256 PUSH1 0x1F NOT DUP6 AND SWAP2 JUMPDEST DUP3 DUP2 LT ISZERO PUSH2 0x2FC JUMPI DUP8 DUP6 ADD MLOAD DUP3 SSTORE PUSH1 0x20 SWAP5 DUP6 ADD SWAP5 PUSH1 0x1 SWAP1 SWAP3 ADD SWAP2 ADD PUSH2 0x2DC JUMP JUMPDEST POP DUP5 DUP3 LT ISZERO PUSH2 0x319 JUMPI DUP7 DUP5 ADD MLOAD PUSH0 NOT PUSH1 0x3 DUP8 SWAP1 SHL PUSH1 0xF8 AND SHR NOT AND DUP2 SSTORE JUMPDEST POP POP POP POP PUSH1 0x1 SWAP1 DUP2 SHL ADD SWAP1 SSTORE POP JUMP JUMPDEST PUSH2 0x24B1 DUP1 PUSH2 0x335 PUSH0 CODECOPY PUSH0 RETURN INVALID PUSH1 0x80 PUSH1 0x40 MSTORE CALLVALUE DUP1 ISZERO PUSH2 0xF JUMPI PUSH0 DUP1 REVERT JUMPDEST POP PUSH1 0x4 CALLDATASIZE LT PUSH2 0x111 JUMPI PUSH0 CALLDATALOAD PUSH1 0xE0 SHR DUP1 PUSH4 0x58DBC45D GT PUSH2 0x9E JUMPI DUP1 PUSH4 0xA51B7136 GT PUSH2 0x6E JUMPI DUP1 PUSH4 0xA51B7136 EQ PUSH2 0x235 JUMPI DUP1 PUSH4 0xBCA353BE EQ PUSH2 0x248 JUMPI DUP1 PUSH4 0xD3E89483 EQ PUSH2 0x250 JUMPI DUP1 PUSH4 0xD6B683FC EQ PUSH2 0x274 JUMPI DUP1 PUSH4 0xF03D96D0 EQ PUSH2 0x287 JUMPI PUSH0 DUP1 REVERT JUMPDEST DUP1 PUSH4 0x58DBC45D EQ PUSH2 0x1EF JUMPI DUP1 PUSH4 0x6391B488 EQ PUSH2 0x207 JUMPI DUP1 PUSH4 0x78F47501 EQ PUSH2 0x21A JUMPI DUP1 PUSH4 0x8FDA356D EQ PUSH2 0x22D JUMPI PUSH0 DUP1 REVERT JUMPDEST DUP1 PUSH4 0x22F3E2D4 GT PUSH2 0xE4 JUMPI DUP1 PUSH4 0x22F3E2D4 EQ PUSH2 0x192 JUMPI DUP1 PUSH4 0x235FD7E2 EQ PUSH2 0x19F JUMPI DUP1 PUSH4 0x42CDE4E8 EQ PUSH2 0x1B2 JUMPI DUP1 PUSH4 0x48D33EF2 EQ PUSH2 0x1C9 JUMPI DUP1 PUSH4 0x557ED1BA EQ PUSH2 0x1D2 JUMPI PUSH0 DUP1 REVERT JUMPDEST DUP1 PUSH4 0x2D05D3F EQ PUSH2 0x115 JUMPI DUP1 PUSH4 0xD9F7ED4 EQ PUSH2 0x145 JUMPI DUP1 PUSH4 0x1073D7C1 EQ PUSH2 0x15A JUMPI DUP1 PUSH4 0x1E3B70B4 EQ PUSH2 0x17D JUMPI JUMPDEST PUSH0 DUP1 REVERT JUMPDEST PUSH1 0x7 SLOAD PUSH2 0x128 SWAP1 PUSH1 0x1 PUSH1 0x1 PUSH1 0xA0 SHL SUB AND DUP2 JUMP JUMPDEST PUSH1 0x40 MLOAD PUSH1 0x1 PUSH1 0x1 PUSH1 0xA0 SHL SUB SWAP1 SWAP2 AND DUP2 MSTORE PUSH1 0x20 ADD JUMPDEST PUSH1 0x40 MLOAD DUP1 SWAP2 SUB SWAP1 RETURN JUMPDEST PUSH2 0x158 PUSH2 0x153 CALLDATASIZE PUSH1 0x4 PUSH2 0x1C5F JUMP JUMPDEST PUSH2 0x29A JUMP JUMPDEST STOP JUMPDEST PUSH2 0x16D PUSH2 0x168 CALLDATASIZE PUSH1 0x4 PUSH2 0x1D06 JUMP JUMPDEST PUSH2 0x596 JUMP JUMPDEST PUSH1 0x40 MLOAD SWAP1 ISZERO ISZERO DUP2 MSTORE PUSH1 0x20 ADD PUSH2 0x13C JUMP JUMPDEST PUSH2 0x185 PUSH2 0x1011 JUMP JUMPDEST PUSH1 0x40 MLOAD PUSH2 0x13C SWAP2 SWAP1 PUSH2 0x1D97 JUMP JUMPDEST PUSH1 0x4 SLOAD PUSH2 0x16D SWAP1 PUSH1 0xFF AND DUP2 JUMP JUMPDEST PUSH2 0x158 PUSH2 0x1AD CALLDATASIZE PUSH1 0x4 PUSH2 0x1DB0 JUMP JUMPDEST PUSH2 0x109D JUMP JUMPDEST PUSH2 0x1BB PUSH1 0x3 SLOAD DUP2 JUMP JUMPDEST PUSH1 0x40 MLOAD SWAP1 DUP2 MSTORE PUSH1 0x20 ADD PUSH2 0x13C JUMP JUMPDEST PUSH2 0x1BB PUSH1 0x8 SLOAD DUP2 JUMP JUMPDEST PUSH2 0x1DA PUSH2 0x1306 JUMP JUMPDEST PUSH1 0x40 DUP1 MLOAD SWAP3 DUP4 MSTORE SWAP1 ISZERO ISZERO PUSH1 0x20 DUP4 ADD MSTORE ADD PUSH2 0x13C JUMP JUMPDEST PUSH1 0x4 SLOAD PUSH2 0x128 SWAP1 PUSH2 0x100 SWAP1 DIV PUSH1 0x1 PUSH1 0x1 PUSH1 0xA0 SHL SUB AND DUP2 JUMP JUMPDEST PUSH2 0x158 PUSH2 0x215 CALLDATASIZE PUSH1 0x4 PUSH2 0x1DC7 JUMP JUMPDEST PUSH2 0x138C JUMP JUMPDEST PUSH1 0x5 SLOAD PUSH2 0x128 SWAP1 PUSH1 0x1 PUSH1 0x1 PUSH1 0xA0 SHL SUB AND DUP2 JUMP JUMPDEST PUSH2 0x158 PUSH2 0x1636 JUMP JUMPDEST PUSH1 0x2 SLOAD PUSH2 0x128 SWAP1 PUSH1 0x1 PUSH1 0x1 PUSH1 0xA0 SHL SUB AND DUP2 JUMP JUMPDEST PUSH2 0x158 PUSH2 0x17EB JUMP JUMPDEST PUSH2 0x263 PUSH2 0x25E CALLDATASIZE PUSH1 0x4 PUSH2 0x1DB0 JUMP JUMPDEST PUSH2 0x191C JUMP JUMPDEST PUSH1 0x40 MLOAD PUSH2 0x13C SWAP6 SWAP5 SWAP4 SWAP3 SWAP2 SWAP1 PUSH2 0x1E99 JUMP JUMPDEST PUSH1 0x1 SLOAD PUSH2 0x128 SWAP1 PUSH1 0x1 PUSH1 0x1 PUSH1 0xA0 SHL SUB AND DUP2 JUMP JUMPDEST PUSH2 0x158 PUSH2 0x295 CALLDATASIZE PUSH1 0x4 PUSH2 0x1EF1 JUMP JUMPDEST PUSH2 0x1AF1 JUMP JUMPDEST PUSH1 0x4 SLOAD PUSH1 0xFF AND PUSH2 0x2C5 JUMPI PUSH1 0x40 MLOAD PUSH3 0x461BCD PUSH1 0xE5 SHL DUP2 MSTORE PUSH1 0x4 ADD PUSH2 0x2BC SWAP1 PUSH2 0x1F17 JUMP JUMPDEST PUSH1 0x40 MLOAD DUP1 SWAP2 SUB SWAP1 REVERT JUMPDEST PUSH1 0x1 SLOAD PUSH1 0x40 MLOAD PUSH4 0x1C2084F PUSH1 0xE3 SHL DUP2 MSTORE CALLER PUSH1 0x4 DUP3 ADD MSTORE PUSH0 SWAP2 PUSH1 0x1 PUSH1 0x1 PUSH1 0xA0 SHL SUB AND SWAP1 PUSH4 0xE104278 SWAP1 PUSH1 0x24 ADD PUSH1 0x20 PUSH1 0x40 MLOAD DUP1 DUP4 SUB DUP2 DUP7 GAS STATICCALL ISZERO DUP1 ISZERO PUSH2 0x30B JUMPI RETURNDATASIZE PUSH0 DUP1 RETURNDATACOPY RETURNDATASIZE PUSH0 REVERT JUMPDEST POP POP POP POP PUSH1 0x40 MLOAD RETURNDATASIZE PUSH1 0x1F NOT PUSH1 0x1F DUP3 ADD AND DUP3 ADD DUP1 PUSH1 0x40 MSTORE POP DUP2 ADD SWAP1 PUSH2 0x32F SWAP2 SWAP1 PUSH2 0x1F47 JUMP JUMPDEST SWAP1 POP DUP1 TIMESTAMP GT PUSH2 0x350 JUMPI PUSH1 0x40 MLOAD PUSH3 0x461BCD PUSH1 0xE5 SHL DUP2 MSTORE PUSH1 0x4 ADD PUSH2 0x2BC SWAP1 PUSH2 0x1F5E JUMP JUMPDEST PUSH1 0x40 DUP1 MLOAD DUP1 DUP3 ADD SWAP1 SWAP2 MSTORE PUSH1 0x1B DUP2 MSTORE PUSH0 DUP1 MLOAD PUSH1 0x20 PUSH2 0x243C DUP4 CODECOPY DUP2 MLOAD SWAP2 MSTORE PUSH1 0x20 DUP3 ADD MSTORE PUSH1 0x7 SLOAD PUSH1 0x1 PUSH1 0x1 PUSH1 0xA0 SHL SUB AND CALLER EQ PUSH2 0x43B JUMPI PUSH1 0x1 SLOAD PUSH1 0x40 MLOAD PUSH4 0x626F80E7 PUSH1 0xE1 SHL DUP2 MSTORE PUSH0 SWAP2 DUP3 SWAP2 DUP3 SWAP2 PUSH1 0x1 PUSH1 0x1 PUSH1 0xA0 SHL SUB AND SWAP1 PUSH4 0xC4DF01CE SWAP1 PUSH2 0x3B9 SWAP1 CALLER SWAP1 DUP9 SWAP1 PUSH1 0x4 ADD PUSH2 0x1FA6 JUMP JUMPDEST PUSH0 PUSH1 0x40 MLOAD DUP1 DUP4 SUB DUP2 PUSH0 DUP8 GAS CALL ISZERO DUP1 ISZERO PUSH2 0x3D4 JUMPI RETURNDATASIZE PUSH0 DUP1 RETURNDATACOPY RETURNDATASIZE PUSH0 REVERT JUMPDEST POP POP POP POP PUSH1 0x40 MLOAD RETURNDATASIZE PUSH0 DUP3 RETURNDATACOPY PUSH1 0x1F RETURNDATASIZE SWAP1 DUP2 ADD PUSH1 0x1F NOT AND DUP3 ADD PUSH1 0x40 MSTORE PUSH2 0x3FB SWAP2 SWAP1 DUP2 ADD SWAP1 PUSH2 0x201E JUMP JUMPDEST SWAP3 POP SWAP3 POP SWAP3 POP CALLER PUSH1 0x1 PUSH1 0x1 PUSH1 0xA0 SHL SUB AND PUSH0 DUP1 MLOAD PUSH1 0x20 PUSH2 0x245C DUP4 CODECOPY DUP2 MLOAD SWAP2 MSTORE DUP5 DUP5 DUP5 PUSH1 0x40 MLOAD PUSH2 0x42B SWAP4 SWAP3 SWAP2 SWAP1 PUSH2 0x206D JUMP JUMPDEST PUSH1 0x40 MLOAD DUP1 SWAP2 SUB SWAP1 LOG2 POP POP POP PUSH2 0x58D JUMP JUMPDEST PUSH0 SLOAD DUP8 LT PUSH2 0x483 JUMPI PUSH1 0x40 MLOAD PUSH3 0x461BCD PUSH1 0xE5 SHL DUP2 MSTORE PUSH1 0x20 PUSH1 0x4 DUP3 ADD MSTORE PUSH1 0x15 PUSH1 0x24 DUP3 ADD MSTORE PUSH21 0x141BDB1A58DE48191BD95CC81B9BDD08195E1A5CDD PUSH1 0x5A SHL PUSH1 0x44 DUP3 ADD MSTORE PUSH1 0x64 ADD PUSH2 0x2BC JUMP JUMPDEST PUSH1 0x40 MLOAD DUP1 PUSH1 0xA0 ADD PUSH1 0x40 MSTORE DUP1 DUP8 PUSH1 0x4 DUP2 GT ISZERO PUSH2 0x4A0 JUMPI PUSH2 0x4A0 PUSH2 0x1E65 JUMP JUMPDEST DUP2 MSTORE PUSH1 0x20 ADD DUP7 DUP2 MSTORE PUSH1 0x20 ADD DUP6 DUP2 MSTORE PUSH1 0x20 ADD DUP5 DUP2 MSTORE PUSH1 0x20 ADD PUSH0 DUP2 MSTORE POP PUSH0 DUP9 DUP2 SLOAD DUP2 LT PUSH2 0x4CD JUMPI PUSH2 0x4CD PUSH2 0x2095 JUMP JUMPDEST PUSH0 SWAP2 DUP3 MSTORE PUSH1 0x20 SWAP1 SWAP2 KECCAK256 DUP3 MLOAD PUSH1 0x5 SWAP1 SWAP3 MUL ADD DUP1 SLOAD SWAP1 SWAP2 SWAP1 DUP3 SWAP1 PUSH1 0xFF NOT AND PUSH1 0x1 DUP4 PUSH1 0x4 DUP2 GT ISZERO PUSH2 0x4FD JUMPI PUSH2 0x4FD PUSH2 0x1E65 JUMP JUMPDEST MUL OR SWAP1 SSTORE POP PUSH1 0x20 DUP3 ADD MLOAD PUSH1 0x1 DUP3 ADD SWAP1 PUSH2 0x516 SWAP1 DUP3 PUSH2 0x212C JUMP JUMPDEST POP PUSH1 0x40 DUP3 ADD MLOAD PUSH1 0x2 DUP3 ADD SWAP1 PUSH2 0x52B SWAP1 DUP3 PUSH2 0x212C JUMP JUMPDEST POP PUSH1 0x60 DUP3 ADD MLOAD PUSH1 0x3 DUP3 ADD SWAP1 PUSH2 0x540 SWAP1 DUP3 PUSH2 0x212C JUMP JUMPDEST POP PUSH1 0x80 DUP3 ADD MLOAD DUP2 PUSH1 0x4 ADD SSTORE SWAP1 POP POP DUP7 PUSH32 0x4A878BB267CEDAA636258D749DB7A5AC8F0CC2338419D6B0429443D8A11D5470 DUP8 DUP8 DUP8 DUP8 PUSH1 0x40 MLOAD PUSH2 0x584 SWAP5 SWAP4 SWAP3 SWAP2 SWAP1 PUSH2 0x21E6 JUMP JUMPDEST PUSH1 0x40 MLOAD DUP1 SWAP2 SUB SWAP1 LOG2 JUMPDEST POP POP POP POP POP POP POP JUMP JUMPDEST PUSH1 0x4 SLOAD PUSH0 SWAP1 PUSH1 0xFF AND PUSH2 0x5BA JUMPI PUSH1 0x40 MLOAD PUSH3 0x461BCD PUSH1 0xE5 SHL DUP2 MSTORE PUSH1 0x4 ADD PUSH2 0x2BC SWAP1 PUSH2 0x1F17 JUMP JUMPDEST PUSH1 0x1 SLOAD PUSH1 0x40 MLOAD PUSH4 0x1C2084F PUSH1 0xE3 SHL DUP2 MSTORE CALLER PUSH1 0x4 DUP3 ADD MSTORE PUSH0 SWAP2 PUSH1 0x1 PUSH1 0x1 PUSH1 0xA0 SHL SUB AND SWAP1 PUSH4 0xE104278 SWAP1 PUSH1 0x24 ADD PUSH1 0x20 PUSH1 0x40 MLOAD DUP1 DUP4 SUB DUP2 DUP7 GAS STATICCALL ISZERO DUP1 ISZERO PUSH2 0x600 JUMPI RETURNDATASIZE PUSH0 DUP1 RETURNDATACOPY RETURNDATASIZE PUSH0 REVERT JUMPDEST POP POP POP POP PUSH1 0x40 MLOAD RETURNDATASIZE PUSH1 0x1F NOT PUSH1 0x1F DUP3 ADD AND DUP3 ADD DUP1 PUSH1 0x40 MSTORE POP DUP2 ADD SWAP1 PUSH2 0x624 SWAP2 SWAP1 PUSH2 0x1F47 JUMP JUMPDEST SWAP1 POP DUP1 TIMESTAMP GT PUSH2 0x645 JUMPI PUSH1 0x40 MLOAD PUSH3 0x461BCD PUSH1 0xE5 SHL DUP2 MSTORE PUSH1 0x4 ADD PUSH2 0x2BC SWAP1 PUSH2 0x1F5E JUMP JUMPDEST PUSH1 0x4 SLOAD PUSH2 0x100 SWAP1 DIV PUSH1 0x1 PUSH1 0x1 PUSH1 0xA0 SHL SUB AND CALLER EQ PUSH2 0x69C JUMPI PUSH1 0x40 MLOAD PUSH3 0x461BCD PUSH1 0xE5 SHL DUP2 MSTORE PUSH1 0x20 PUSH1 0x4 DUP3 ADD MSTORE PUSH1 0x15 PUSH1 0x24 DUP3 ADD MSTORE PUSH21 0x10D85B1B195C881A5CC81B9BDD081CDD589A9958DD PUSH1 0x5A SHL PUSH1 0x44 DUP3 ADD MSTORE PUSH1 0x64 ADD PUSH2 0x2BC JUMP JUMPDEST PUSH1 0x2 SLOAD PUSH1 0x40 MLOAD PUSH4 0x44276733 PUSH1 0xE0 SHL DUP2 MSTORE CALLER PUSH1 0x4 DUP3 ADD MSTORE PUSH0 SWAP2 PUSH1 0x1 PUSH1 0x1 PUSH1 0xA0 SHL SUB AND SWAP1 PUSH4 0x44276733 SWAP1 PUSH1 0x24 ADD PUSH1 0x20 PUSH1 0x40 MLOAD DUP1 DUP4 SUB DUP2 DUP7 GAS STATICCALL ISZERO DUP1 ISZERO PUSH2 0x6E2 JUMPI RETURNDATASIZE PUSH0 DUP1 RETURNDATACOPY RETURNDATASIZE PUSH0 REVERT JUMPDEST POP POP POP POP PUSH1 0x40 MLOAD RETURNDATASIZE PUSH1 0x1F NOT PUSH1 0x1F DUP3 ADD AND DUP3 ADD DUP1 PUSH1 0x40 MSTORE POP DUP2 ADD SWAP1 PUSH2 0x706 SWAP2 SWAP1 PUSH2 0x2236 JUMP JUMPDEST SWAP1 POP PUSH0 JUMPDEST PUSH0 SLOAD DUP2 LT ISZERO PUSH2 0xD85 JUMPI DUP2 PUSH1 0x4 DUP2 GT ISZERO PUSH2 0x725 JUMPI PUSH2 0x725 PUSH2 0x1E65 JUMP JUMPDEST PUSH0 DUP3 DUP2 SLOAD DUP2 LT PUSH2 0x737 JUMPI PUSH2 0x737 PUSH2 0x2095 JUMP JUMPDEST PUSH0 SWAP2 DUP3 MSTORE PUSH1 0x20 SWAP1 SWAP2 KECCAK256 PUSH1 0x5 SWAP1 SWAP2 MUL ADD SLOAD PUSH1 0xFF AND PUSH1 0x4 DUP2 GT ISZERO PUSH2 0x75B JUMPI PUSH2 0x75B PUSH2 0x1E65 JUMP JUMPDEST EQ DUP1 ISZERO PUSH2 0x7A3 JUMPI POP DUP6 DUP1 MLOAD SWAP1 PUSH1 0x20 ADD KECCAK256 PUSH0 DUP3 DUP2 SLOAD DUP2 LT PUSH2 0x77D JUMPI PUSH2 0x77D PUSH2 0x2095 JUMP JUMPDEST SWAP1 PUSH0 MSTORE PUSH1 0x20 PUSH0 KECCAK256 SWAP1 PUSH1 0x5 MUL ADD PUSH1 0x1 ADD PUSH1 0x40 MLOAD PUSH2 0x799 SWAP2 SWAP1 PUSH2 0x2251 JUMP JUMPDEST PUSH1 0x40 MLOAD DUP1 SWAP2 SUB SWAP1 KECCAK256 EQ JUMPDEST DUP1 ISZERO PUSH2 0x7EA JUMPI POP DUP5 DUP1 MLOAD SWAP1 PUSH1 0x20 ADD KECCAK256 PUSH0 DUP3 DUP2 SLOAD DUP2 LT PUSH2 0x7C4 JUMPI PUSH2 0x7C4 PUSH2 0x2095 JUMP JUMPDEST SWAP1 PUSH0 MSTORE PUSH1 0x20 PUSH0 KECCAK256 SWAP1 PUSH1 0x5 MUL ADD PUSH1 0x2 ADD PUSH1 0x40 MLOAD PUSH2 0x7E0 SWAP2 SWAP1 PUSH2 0x2251 JUMP JUMPDEST PUSH1 0x40 MLOAD DUP1 SWAP2 SUB SWAP1 KECCAK256 EQ JUMPDEST ISZERO PUSH2 0xD7D JUMPI PUSH1 0x3 SLOAD PUSH0 DUP3 DUP2 SLOAD DUP2 LT PUSH2 0x804 JUMPI PUSH2 0x804 PUSH2 0x2095 JUMP JUMPDEST SWAP1 PUSH0 MSTORE PUSH1 0x20 PUSH0 KECCAK256 SWAP1 PUSH1 0x5 MUL ADD PUSH1 0x4 ADD SLOAD PUSH2 0x81E SWAP2 SWAP1 PUSH2 0x22D6 JUMP JUMPDEST TIMESTAMP LT ISZERO PUSH2 0x912 JUMPI PUSH1 0x1 SLOAD PUSH1 0x40 DUP1 MLOAD PUSH4 0x626F80E7 PUSH1 0xE1 SHL DUP2 MSTORE CALLER PUSH1 0x4 DUP3 ADD MSTORE PUSH1 0x24 DUP2 ADD SWAP2 SWAP1 SWAP2 MSTORE PUSH1 0x13 PUSH1 0x44 DUP3 ADD MSTORE PUSH19 0x546F6F206672657175656E7420616363657373 PUSH1 0x68 SHL PUSH1 0x64 DUP3 ADD MSTORE PUSH0 SWAP2 DUP3 SWAP2 DUP3 SWAP2 PUSH1 0x1 PUSH1 0x1 PUSH1 0xA0 SHL SUB AND SWAP1 PUSH4 0xC4DF01CE SWAP1 PUSH1 0x84 ADD PUSH0 PUSH1 0x40 MLOAD DUP1 DUP4 SUB DUP2 PUSH0 DUP8 GAS CALL ISZERO DUP1 ISZERO PUSH2 0x89B JUMPI RETURNDATASIZE PUSH0 DUP1 RETURNDATACOPY RETURNDATASIZE PUSH0 REVERT JUMPDEST POP POP POP POP PUSH1 0x40 MLOAD RETURNDATASIZE PUSH0 DUP3 RETURNDATACOPY PUSH1 0x1F RETURNDATASIZE SWAP1 DUP2 ADD PUSH1 0x1F NOT AND DUP3 ADD PUSH1 0x40 MSTORE PUSH2 0x8C2 SWAP2 SWAP1 DUP2 ADD SWAP1 PUSH2 0x201E JUMP JUMPDEST PUSH1 0x4 SLOAD PUSH1 0x40 MLOAD SWAP4 SWAP7 POP SWAP2 SWAP5 POP SWAP3 POP PUSH2 0x100 SWAP1 DIV PUSH1 0x1 PUSH1 0x1 PUSH1 0xA0 SHL SUB AND SWAP1 PUSH0 DUP1 MLOAD PUSH1 0x20 PUSH2 0x245C DUP4 CODECOPY DUP2 MLOAD SWAP2 MSTORE SWAP1 PUSH2 0x8FD SWAP1 DUP7 SWAP1 DUP7 SWAP1 DUP7 SWAP1 PUSH2 0x206D JUMP JUMPDEST PUSH1 0x40 MLOAD DUP1 SWAP2 SUB SWAP1 LOG2 PUSH0 SWAP7 POP POP POP POP POP POP PUSH2 0x100A JUMP JUMPDEST TIMESTAMP PUSH0 DUP3 DUP2 SLOAD DUP2 LT PUSH2 0x925 JUMPI PUSH2 0x925 PUSH2 0x2095 JUMP JUMPDEST SWAP1 PUSH0 MSTORE PUSH1 0x20 PUSH0 KECCAK256 SWAP1 PUSH1 0x5 MUL ADD PUSH1 0x4 ADD DUP2 SWAP1 SSTORE POP PUSH1 0x4 PUSH1 0x1 SWAP1 SLOAD SWAP1 PUSH2 0x100 EXP SWAP1 DIV PUSH1 0x1 PUSH1 0x1 PUSH1 0xA0 SHL SUB AND PUSH1 0x1 PUSH1 0x1 PUSH1 0xA0 SHL SUB AND PUSH32 0x5003BA6DA275D66409E57DB43F48416FFF9168F7954C0DA01FB2FFB3112C45A8 DUP4 DUP9 DUP9 PUSH1 0x40 MLOAD DUP1 PUSH1 0x40 ADD PUSH1 0x40 MSTORE DUP1 PUSH1 0x5 DUP2 MSTORE PUSH1 0x20 ADD PUSH5 0x616C6C6F77 PUSH1 0xD8 SHL DUP2 MSTORE POP DUP1 MLOAD SWAP1 PUSH1 0x20 ADD KECCAK256 PUSH0 DUP8 DUP2 SLOAD DUP2 LT PUSH2 0x9B2 JUMPI PUSH2 0x9B2 PUSH2 0x2095 JUMP JUMPDEST SWAP1 PUSH0 MSTORE PUSH1 0x20 PUSH0 KECCAK256 SWAP1 PUSH1 0x5 MUL ADD PUSH1 0x3 ADD PUSH1 0x40 MLOAD PUSH2 0x9CE SWAP2 SWAP1 PUSH2 0x2251 JUMP JUMPDEST PUSH1 0x40 MLOAD SWAP1 DUP2 SWAP1 SUB DUP2 KECCAK256 PUSH2 0x9E5 SWAP6 SWAP5 SWAP4 SWAP3 EQ SWAP1 PUSH2 0x22EF JUMP JUMPDEST PUSH1 0x40 MLOAD DUP1 SWAP2 SUB SWAP1 LOG2 PUSH1 0x40 DUP1 MLOAD DUP1 DUP3 ADD SWAP1 SWAP2 MSTORE PUSH1 0x5 DUP2 MSTORE PUSH5 0x616C6C6F77 PUSH1 0xD8 SHL PUSH1 0x20 SWAP1 SWAP2 ADD MSTORE PUSH0 DUP1 SLOAD PUSH32 0xBCEC4BE69DB00D4D20952AE27CD2494B0E3BF401159E19FB6165A3F0849EF940 SWAP1 DUP3 SWAP1 DUP5 SWAP1 DUP2 LT PUSH2 0xA41 JUMPI PUSH2 0xA41 PUSH2 0x2095 JUMP JUMPDEST SWAP1 PUSH0 MSTORE PUSH1 0x20 PUSH0 KECCAK256 SWAP1 PUSH1 0x5 MUL ADD PUSH1 0x3 ADD PUSH1 0x40 MLOAD PUSH2 0xA5D SWAP2 SWAP1 PUSH2 0x2251 JUMP JUMPDEST PUSH1 0x40 MLOAD DUP1 SWAP2 SUB SWAP1 KECCAK256 EQ SWAP1 POP DUP1 ISZERO PUSH2 0xB2D JUMPI PUSH1 0x1 SLOAD PUSH1 0x40 MLOAD PUSH4 0x78D2747 PUSH1 0xE2 SHL DUP2 MSTORE CALLER PUSH1 0x4 DUP3 ADD MSTORE PUSH0 SWAP2 DUP3 SWAP2 PUSH1 0x1 PUSH1 0x1 PUSH1 0xA0 SHL SUB SWAP1 SWAP2 AND SWAP1 PUSH4 0x1E349D1C SWAP1 PUSH1 0x24 ADD PUSH0 PUSH1 0x40 MLOAD DUP1 DUP4 SUB DUP2 PUSH0 DUP8 GAS CALL ISZERO DUP1 ISZERO PUSH2 0xAB8 JUMPI RETURNDATASIZE PUSH0 DUP1 RETURNDATACOPY RETURNDATASIZE PUSH0 REVERT JUMPDEST POP POP POP POP PUSH1 0x40 MLOAD RETURNDATASIZE PUSH0 DUP3 RETURNDATACOPY PUSH1 0x1F RETURNDATASIZE SWAP1 DUP2 ADD PUSH1 0x1F NOT AND DUP3 ADD PUSH1 0x40 MSTORE PUSH2 0xADF SWAP2 SWAP1 DUP2 ADD SWAP1 PUSH2 0x2334 JUMP JUMPDEST SWAP2 POP SWAP2 POP CALLER PUSH1 0x1 PUSH1 0x1 PUSH1 0xA0 SHL SUB AND PUSH32 0x99160C89FDCCB67E1961CF554A10FFFB3DBBB7B2CD44A817F2AAC33DEB57D9D7 DUP4 DUP4 PUSH1 0x40 MLOAD PUSH2 0xB1E SWAP3 SWAP2 SWAP1 PUSH2 0x236E JUMP JUMPDEST PUSH1 0x40 MLOAD DUP1 SWAP2 SUB SWAP1 LOG2 POP POP PUSH2 0xD73 JUMP JUMPDEST PUSH1 0x40 DUP1 MLOAD DUP1 DUP3 ADD SWAP1 SWAP2 MSTORE PUSH1 0x4 DUP2 MSTORE PUSH4 0x19591A5D PUSH1 0xE2 SHL PUSH1 0x20 SWAP2 DUP3 ADD MSTORE DUP7 MLOAD SWAP1 DUP8 ADD KECCAK256 PUSH32 0xC1430AF76E820AC7237BD100FCCC681BFA953EE7522BB693B2FA2A71F1BEAFDD EQ DUP1 PUSH2 0xBBE JUMPI POP PUSH1 0x40 DUP1 MLOAD DUP1 DUP3 ADD SWAP1 SWAP2 MSTORE PUSH1 0x6 DUP2 MSTORE PUSH6 0x64656C657465 PUSH1 0xD0 SHL PUSH1 0x20 SWAP2 DUP3 ADD MSTORE DUP7 MLOAD SWAP1 DUP8 ADD KECCAK256 PUSH32 0x9FCBA1E1E2BE1B4668CE9E58BF81B52190E4098ED5452612E77505295DFBCA56 EQ JUMPDEST ISZERO PUSH2 0xC79 JUMPI PUSH1 0x1 SLOAD PUSH1 0x40 MLOAD PUSH4 0x626F80E7 PUSH1 0xE1 SHL DUP2 MSTORE PUSH0 SWAP2 DUP3 SWAP2 DUP3 SWAP2 PUSH1 0x1 PUSH1 0x1 PUSH1 0xA0 SHL SUB AND SWAP1 PUSH4 0xC4DF01CE SWAP1 PUSH2 0xBF7 SWAP1 CALLER SWAP1 PUSH1 0x4 ADD PUSH2 0x2386 JUMP JUMPDEST PUSH0 PUSH1 0x40 MLOAD DUP1 DUP4 SUB DUP2 PUSH0 DUP8 GAS CALL ISZERO DUP1 ISZERO PUSH2 0xC12 JUMPI RETURNDATASIZE PUSH0 DUP1 RETURNDATACOPY RETURNDATASIZE PUSH0 REVERT JUMPDEST POP POP POP POP PUSH1 0x40 MLOAD RETURNDATASIZE PUSH0 DUP3 RETURNDATACOPY PUSH1 0x1F RETURNDATASIZE SWAP1 DUP2 ADD PUSH1 0x1F NOT AND DUP3 ADD PUSH1 0x40 MSTORE PUSH2 0xC39 SWAP2 SWAP1 DUP2 ADD SWAP1 PUSH2 0x201E JUMP JUMPDEST SWAP3 POP SWAP3 POP SWAP3 POP CALLER PUSH1 0x1 PUSH1 0x1 PUSH1 0xA0 SHL SUB AND PUSH0 DUP1 MLOAD PUSH1 0x20 PUSH2 0x245C DUP4 CODECOPY DUP2 MLOAD SWAP2 MSTORE DUP5 DUP5 DUP5 PUSH1 0x40 MLOAD PUSH2 0xC69 SWAP4 SWAP3 SWAP2 SWAP1 PUSH2 0x206D JUMP JUMPDEST PUSH1 0x40 MLOAD DUP1 SWAP2 SUB SWAP1 LOG2 POP POP POP PUSH2 0xD73 JUMP JUMPDEST PUSH1 0x40 DUP1 MLOAD DUP1 DUP3 ADD SWAP1 SWAP2 MSTORE PUSH1 0x4 DUP2 MSTORE PUSH4 0x76696577 PUSH1 0xE0 SHL PUSH1 0x20 SWAP2 DUP3 ADD MSTORE DUP7 MLOAD SWAP1 DUP8 ADD KECCAK256 PUSH32 0x5D4381BB4A4C75C843C4D35F8B5A6677E24C2B3B8C8EC346FAAA6201D8DD576A ADD PUSH2 0xD73 JUMPI PUSH1 0x1 SLOAD PUSH1 0x40 MLOAD PUSH4 0x626F80E7 PUSH1 0xE1 SHL DUP2 MSTORE PUSH0 SWAP2 DUP3 SWAP2 DUP3 SWAP2 PUSH1 0x1 PUSH1 0x1 PUSH1 0xA0 SHL SUB AND SWAP1 PUSH4 0xC4DF01CE SWAP1 PUSH2 0xCF5 SWAP1 CALLER SWAP1 PUSH1 0x4 ADD PUSH2 0x23C5 JUMP JUMPDEST PUSH0 PUSH1 0x40 MLOAD DUP1 DUP4 SUB DUP2 PUSH0 DUP8 GAS CALL ISZERO DUP1 ISZERO PUSH2 0xD10 JUMPI RETURNDATASIZE PUSH0 DUP1 RETURNDATACOPY RETURNDATASIZE PUSH0 REVERT JUMPDEST POP POP POP POP PUSH1 0x40 MLOAD RETURNDATASIZE PUSH0 DUP3 RETURNDATACOPY PUSH1 0x1F RETURNDATASIZE SWAP1 DUP2 ADD PUSH1 0x1F NOT AND DUP3 ADD PUSH1 0x40 MSTORE PUSH2 0xD37 SWAP2 SWAP1 DUP2 ADD SWAP1 PUSH2 0x201E JUMP JUMPDEST SWAP3 POP SWAP3 POP SWAP3 POP CALLER PUSH1 0x1 PUSH1 0x1 PUSH1 0xA0 SHL SUB AND PUSH0 DUP1 MLOAD PUSH1 0x20 PUSH2 0x245C DUP4 CODECOPY DUP2 MLOAD SWAP2 MSTORE DUP5 DUP5 DUP5 PUSH1 0x40 MLOAD PUSH2 0xD67 SWAP4 SWAP3 SWAP2 SWAP1 PUSH2 0x206D JUMP JUMPDEST PUSH1 0x40 MLOAD DUP1 SWAP2 SUB SWAP1 LOG2 POP POP POP JUMPDEST SWAP4 POP PUSH2 0x100A SWAP2 POP POP JUMP JUMPDEST PUSH1 0x1 ADD PUSH2 0x70A JUMP JUMPDEST POP PUSH1 0x40 DUP1 MLOAD DUP1 DUP3 ADD SWAP1 SWAP2 MSTORE PUSH1 0x4 DUP2 MSTORE PUSH4 0x19591A5D PUSH1 0xE2 SHL PUSH1 0x20 SWAP2 DUP3 ADD MSTORE DUP5 MLOAD SWAP1 DUP6 ADD KECCAK256 PUSH32 0xC1430AF76E820AC7237BD100FCCC681BFA953EE7522BB693B2FA2A71F1BEAFDD EQ DUP1 PUSH2 0xE17 JUMPI POP PUSH1 0x40 DUP1 MLOAD DUP1 DUP3 ADD SWAP1 SWAP2 MSTORE PUSH1 0x6 DUP2 MSTORE PUSH6 0x64656C657465 PUSH1 0xD0 SHL PUSH1 0x20 SWAP2 DUP3 ADD MSTORE DUP5 MLOAD SWAP1 DUP6 ADD KECCAK256 PUSH32 0x9FCBA1E1E2BE1B4668CE9E58BF81B52190E4098ED5452612E77505295DFBCA56 EQ JUMPDEST ISZERO PUSH2 0xED2 JUMPI PUSH1 0x1 SLOAD PUSH1 0x40 MLOAD PUSH4 0x626F80E7 PUSH1 0xE1 SHL DUP2 MSTORE PUSH0 SWAP2 DUP3 SWAP2 DUP3 SWAP2 PUSH1 0x1 PUSH1 0x1 PUSH1 0xA0 SHL SUB AND SWAP1 PUSH4 0xC4DF01CE SWAP1 PUSH2 0xE50 SWAP1 CALLER SWAP1 PUSH1 0x4 ADD PUSH2 0x2386 JUMP JUMPDEST PUSH0 PUSH1 0x40 MLOAD DUP1 DUP4 SUB DUP2 PUSH0 DUP8 GAS CALL ISZERO DUP1 ISZERO PUSH2 0xE6B JUMPI RETURNDATASIZE PUSH0 DUP1 RETURNDATACOPY RETURNDATASIZE PUSH0 REVERT JUMPDEST POP POP POP POP PUSH1 0x40 MLOAD RETURNDATASIZE PUSH0 DUP3 RETURNDATACOPY PUSH1 0x1F RETURNDATASIZE SWAP1 DUP2 ADD PUSH1 0x1F NOT AND DUP3 ADD PUSH1 0x40 MSTORE PUSH2 0xE92 SWAP2 SWAP1 DUP2 ADD SWAP1 PUSH2 0x201E JUMP JUMPDEST SWAP3 POP SWAP3 POP SWAP3 POP CALLER PUSH1 0x1 PUSH1 0x1 PUSH1 0xA0 SHL SUB AND PUSH0 DUP1 MLOAD PUSH1 0x20 PUSH2 0x245C DUP4 CODECOPY DUP2 MLOAD SWAP2 MSTORE DUP5 DUP5 DUP5 PUSH1 0x40 MLOAD PUSH2 0xEC2 SWAP4 SWAP3 SWAP2 SWAP1 PUSH2 0x206D JUMP JUMPDEST PUSH1 0x40 MLOAD DUP1 SWAP2 SUB SWAP1 LOG2 POP POP POP PUSH2 0xFCC JUMP JUMPDEST PUSH1 0x40 DUP1 MLOAD DUP1 DUP3 ADD SWAP1 SWAP2 MSTORE PUSH1 0x4 DUP2 MSTORE PUSH4 0x76696577 PUSH1 0xE0 SHL PUSH1 0x20 SWAP2 DUP3 ADD MSTORE DUP5 MLOAD SWAP1 DUP6 ADD KECCAK256 PUSH32 0x5D4381BB4A4C75C843C4D35F8B5A6677E24C2B3B8C8EC346FAAA6201D8DD576A ADD PUSH2 0xFCC JUMPI PUSH1 0x1 SLOAD PUSH1 0x40 MLOAD PUSH4 0x626F80E7 PUSH1 0xE1 SHL DUP2 MSTORE PUSH0 SWAP2 DUP3 SWAP2 DUP3 SWAP2 PUSH1 0x1 PUSH1 0x1 PUSH1 0xA0 SHL SUB AND SWAP1 PUSH4 0xC4DF01CE SWAP1 PUSH2 0xF4E SWAP1 CALLER SWAP1 PUSH1 0x4 ADD PUSH2 0x23C5 JUMP JUMPDEST PUSH0 PUSH1 0x40 MLOAD DUP1 DUP4 SUB DUP2 PUSH0 DUP8 GAS CALL ISZERO DUP1 ISZERO PUSH2 0xF69 JUMPI RETURNDATASIZE PUSH0 DUP1 RETURNDATACOPY RETURNDATASIZE PUSH0 REVERT JUMPDEST POP POP POP POP PUSH1 0x40 MLOAD RETURNDATASIZE PUSH0 DUP3 RETURNDATACOPY PUSH1 0x1F RETURNDATASIZE SWAP1 DUP2 ADD PUSH1 0x1F NOT AND DUP3 ADD PUSH1 0x40 MSTORE PUSH2 0xF90 SWAP2 SWAP1 DUP2 ADD SWAP1 PUSH2 0x201E JUMP JUMPDEST SWAP3 POP SWAP3 POP SWAP3 POP CALLER PUSH1 0x1 PUSH1 0x1 PUSH1 0xA0 SHL SUB AND PUSH0 DUP1 MLOAD PUSH1 0x20 PUSH2 0x245C DUP4 CODECOPY DUP2 MLOAD SWAP2 MSTORE DUP5 DUP5 DUP5 PUSH1 0x40 MLOAD PUSH2 0xFC0 SWAP4 SWAP3 SWAP2 SWAP1 PUSH2 0x206D JUMP JUMPDEST PUSH1 0x40 MLOAD DUP1 SWAP2 SUB SWAP1 LOG2 POP POP POP JUMPDEST PUSH32 0x38DF3A8DDDF6EF31501DF5A214B30FE934AC5F4ED0CD1B5BC31F44752486C6AC DUP6 DUP6 PUSH1 0x40 MLOAD PUSH2 0xFFD SWAP3 SWAP2 SWAP1 PUSH2 0x23FB JUMP JUMPDEST PUSH1 0x40 MLOAD DUP1 SWAP2 SUB SWAP1 LOG1 PUSH0 SWAP3 POP POP JUMPDEST POP SWAP3 SWAP2 POP POP JUMP JUMPDEST PUSH1 0x6 DUP1 SLOAD PUSH2 0x101E SWAP1 PUSH2 0x20A9 JUMP JUMPDEST DUP1 PUSH1 0x1F ADD PUSH1 0x20 DUP1 SWAP2 DIV MUL PUSH1 0x20 ADD PUSH1 0x40 MLOAD SWAP1 DUP2 ADD PUSH1 0x40 MSTORE DUP1 SWAP3 SWAP2 SWAP1 DUP2 DUP2 MSTORE PUSH1 0x20 ADD DUP3 DUP1 SLOAD PUSH2 0x104A SWAP1 PUSH2 0x20A9 JUMP JUMPDEST DUP1 ISZERO PUSH2 0x1095 JUMPI DUP1 PUSH1 0x1F LT PUSH2 0x106C JUMPI PUSH2 0x100 DUP1 DUP4 SLOAD DIV MUL DUP4 MSTORE SWAP2 PUSH1 0x20 ADD SWAP2 PUSH2 0x1095 JUMP JUMPDEST DUP3 ADD SWAP2 SWAP1 PUSH0 MSTORE PUSH1 0x20 PUSH0 KECCAK256 SWAP1 JUMPDEST DUP2 SLOAD DUP2 MSTORE SWAP1 PUSH1 0x1 ADD SWAP1 PUSH1 0x20 ADD DUP1 DUP4 GT PUSH2 0x1078 JUMPI DUP3 SWAP1 SUB PUSH1 0x1F AND DUP3 ADD SWAP2 JUMPDEST POP POP POP POP POP DUP2 JUMP JUMPDEST PUSH1 0x4 SLOAD PUSH1 0xFF AND PUSH2 0x10BF JUMPI PUSH1 0x40 MLOAD PUSH3 0x461BCD PUSH1 0xE5 SHL DUP2 MSTORE PUSH1 0x4 ADD PUSH2 0x2BC SWAP1 PUSH2 0x1F17 JUMP JUMPDEST PUSH1 0x1 SLOAD PUSH1 0x40 MLOAD PUSH4 0x1C2084F PUSH1 0xE3 SHL DUP2 MSTORE CALLER PUSH1 0x4 DUP3 ADD MSTORE PUSH0 SWAP2 PUSH1 0x1 PUSH1 0x1 PUSH1 0xA0 SHL SUB AND SWAP1 PUSH4 0xE104278 SWAP1 PUSH1 0x24 ADD PUSH1 0x20 PUSH1 0x40 MLOAD DUP1 DUP4 SUB DUP2 DUP7 GAS STATICCALL ISZERO DUP1 ISZERO PUSH2 0x1105 JUMPI RETURNDATASIZE PUSH0 DUP1 RETURNDATACOPY RETURNDATASIZE PUSH0 REVERT JUMPDEST POP POP POP POP PUSH1 0x40 MLOAD RETURNDATASIZE PUSH1 0x1F NOT PUSH1 0x1F DUP3 ADD AND DUP3 ADD DUP1 PUSH1 0x40 MSTORE POP DUP2 ADD SWAP1 PUSH2 0x1129 SWAP2 SWAP1 PUSH2 0x1F47 JUMP JUMPDEST SWAP1 POP DUP1 TIMESTAMP GT PUSH2 0x114A JUMPI PUSH1 0x40 MLOAD PUSH3 0x461BCD PUSH1 0xE5 SHL DUP2 MSTORE PUSH1 0x4 ADD PUSH2 0x2BC SWAP1 PUSH2 0x1F5E JUMP JUMPDEST PUSH1 0x40 DUP1 MLOAD DUP1 DUP3 ADD SWAP1 SWAP2 MSTORE PUSH1 0x1B DUP2 MSTORE PUSH0 DUP1 MLOAD PUSH1 0x20 PUSH2 0x243C DUP4 CODECOPY DUP2 MLOAD SWAP2 MSTORE PUSH1 0x20 DUP3 ADD MSTORE PUSH1 0x7 SLOAD PUSH1 0x1 PUSH1 0x1 PUSH1 0xA0 SHL SUB AND CALLER EQ PUSH2 0x1235 JUMPI PUSH1 0x1 SLOAD PUSH1 0x40 MLOAD PUSH4 0x626F80E7 PUSH1 0xE1 SHL DUP2 MSTORE PUSH0 SWAP2 DUP3 SWAP2 DUP3 SWAP2 PUSH1 0x1 PUSH1 0x1 PUSH1 0xA0 SHL SUB AND SWAP1 PUSH4 0xC4DF01CE SWAP1 PUSH2 0x11B3 SWAP1 CALLER SWAP1 DUP9 SWAP1 PUSH1 0x4 ADD PUSH2 0x1FA6 JUMP JUMPDEST PUSH0 PUSH1 0x40 MLOAD DUP1 DUP4 SUB DUP2 PUSH0 DUP8 GAS CALL ISZERO DUP1 ISZERO PUSH2 0x11CE JUMPI RETURNDATASIZE PUSH0 DUP1 RETURNDATACOPY RETURNDATASIZE PUSH0 REVERT JUMPDEST POP POP POP POP PUSH1 0x40 MLOAD RETURNDATASIZE PUSH0 DUP3 RETURNDATACOPY PUSH1 0x1F RETURNDATASIZE SWAP1 DUP2 ADD PUSH1 0x1F NOT AND DUP3 ADD PUSH1 0x40 MSTORE PUSH2 0x11F5 SWAP2 SWAP1 DUP2 ADD SWAP1 PUSH2 0x201E JUMP JUMPDEST SWAP3 POP SWAP3 POP SWAP3 POP CALLER PUSH1 0x1 PUSH1 0x1 PUSH1 0xA0 SHL SUB AND PUSH0 DUP1 MLOAD PUSH1 0x20 PUSH2 0x245C DUP4 CODECOPY DUP2 MLOAD SWAP2 MSTORE DUP5 DUP5 DUP5 PUSH1 0x40 MLOAD PUSH2 0x1225 SWAP4 SWAP3 SWAP2 SWAP1 PUSH2 0x206D JUMP JUMPDEST PUSH1 0x40 MLOAD DUP1 SWAP2 SUB SWAP1 LOG2 POP POP POP POP POP POP JUMP JUMPDEST PUSH0 SLOAD DUP4 LT PUSH2 0x127D JUMPI PUSH1 0x40 MLOAD PUSH3 0x461BCD PUSH1 0xE5 SHL DUP2 MSTORE PUSH1 0x20 PUSH1 0x4 DUP3 ADD MSTORE PUSH1 0x15 PUSH1 0x24 DUP3 ADD MSTORE PUSH21 0x141BDB1A58DE48191BD95CC81B9BDD08195E1A5CDD PUSH1 0x5A SHL PUSH1 0x44 DUP3 ADD MSTORE PUSH1 0x64 ADD PUSH2 0x2BC JUMP JUMPDEST PUSH0 DUP4 DUP2 SLOAD DUP2 LT PUSH2 0x128F JUMPI PUSH2 0x128F PUSH2 0x2095 JUMP JUMPDEST PUSH0 SWAP2 DUP3 MSTORE PUSH1 0x20 DUP3 KECCAK256 PUSH1 0x5 SWAP1 SWAP2 MUL ADD DUP1 SLOAD PUSH1 0xFF NOT AND DUP2 SSTORE SWAP1 PUSH2 0x12B3 PUSH1 0x1 DUP4 ADD DUP3 PUSH2 0x1B45 JUMP JUMPDEST PUSH2 0x12C0 PUSH1 0x2 DUP4 ADD PUSH0 PUSH2 0x1B45 JUMP JUMPDEST PUSH2 0x12CD PUSH1 0x3 DUP4 ADD PUSH0 PUSH2 0x1B45 JUMP JUMPDEST POP PUSH0 PUSH1 0x4 SWAP2 SWAP1 SWAP2 ADD DUP2 SWAP1 SSTORE PUSH1 0x40 MLOAD DUP5 SWAP2 PUSH32 0x433AB09AB993382AF577C4A70F77DCC7CF149B5B52EB40D19B869664BFB5496D SWAP2 LOG2 JUMPDEST POP POP POP JUMP JUMPDEST PUSH1 0x1 SLOAD PUSH1 0x40 MLOAD PUSH4 0x1C2084F PUSH1 0xE3 SHL DUP2 MSTORE CALLER PUSH1 0x4 DUP3 ADD MSTORE PUSH0 SWAP2 DUP3 SWAP2 DUP3 SWAP2 PUSH1 0x1 PUSH1 0x1 PUSH1 0xA0 SHL SUB AND SWAP1 PUSH4 0xE104278 SWAP1 PUSH1 0x24 ADD PUSH1 0x20 PUSH1 0x40 MLOAD DUP1 DUP4 SUB DUP2 DUP7 GAS STATICCALL ISZERO DUP1 ISZERO PUSH2 0x1350 JUMPI RETURNDATASIZE PUSH0 DUP1 RETURNDATACOPY RETURNDATASIZE PUSH0 REVERT JUMPDEST POP POP POP POP PUSH1 0x40 MLOAD RETURNDATASIZE PUSH1 0x1F NOT PUSH1 0x1F DUP3 ADD AND DUP3 ADD DUP1 PUSH1 0x40 MSTORE POP DUP2 ADD SWAP1 PUSH2 0x1374 SWAP2 SWAP1 PUSH2 0x1F47 JUMP JUMPDEST SWAP1 POP PUSH0 DUP2 TIMESTAMP LT ISZERO PUSH2 0x1383 JUMPI POP PUSH1 0x1 JUMPDEST SWAP1 SWAP4 SWAP1 SWAP3 POP SWAP1 POP JUMP JUMPDEST PUSH1 0x4 SLOAD PUSH1 0xFF AND PUSH2 0x13AE JUMPI PUSH1 0x40 MLOAD PUSH3 0x461BCD PUSH1 0xE5 SHL DUP2 MSTORE PUSH1 0x4 ADD PUSH2 0x2BC SWAP1 PUSH2 0x1F17 JUMP JUMPDEST PUSH1 0x1 SLOAD PUSH1 0x40 MLOAD PUSH4 0x1C2084F PUSH1 0xE3 SHL DUP2 MSTORE CALLER PUSH1 0x4 DUP3 ADD MSTORE PUSH0 SWAP2 PUSH1 0x1 PUSH1 0x1 PUSH1 0xA0 SHL SUB AND SWAP1 PUSH4 0xE104278 SWAP1 PUSH1 0x24 ADD PUSH1 0x20 PUSH1 0x40 MLOAD DUP1 DUP4 SUB DUP2 DUP7 GAS STATICCALL ISZERO DUP1 ISZERO PUSH2 0x13F4 JUMPI RETURNDATASIZE PUSH0 DUP1 RETURNDATACOPY RETURNDATASIZE PUSH0 REVERT JUMPDEST POP POP POP POP PUSH1 0x40 MLOAD RETURNDATASIZE PUSH1 0x1F NOT PUSH1 0x1F DUP3 ADD AND DUP3 ADD DUP1 PUSH1 0x40 MSTORE POP DUP2 ADD SWAP1 PUSH2 0x1418 SWAP2 SWAP1 PUSH2 0x1F47 JUMP JUMPDEST SWAP1 POP DUP1 TIMESTAMP GT PUSH2 0x1439 JUMPI PUSH1 0x40 MLOAD PUSH3 0x461BCD PUSH1 0xE5 SHL DUP2 MSTORE PUSH1 0x4 ADD PUSH2 0x2BC SWAP1 PUSH2 0x1F5E JUMP JUMPDEST PUSH1 0x40 DUP1 MLOAD DUP1 DUP3 ADD SWAP1 SWAP2 MSTORE PUSH1 0x1B DUP2 MSTORE PUSH0 DUP1 MLOAD PUSH1 0x20 PUSH2 0x243C DUP4 CODECOPY DUP2 MLOAD SWAP2 MSTORE PUSH1 0x20 DUP3 ADD MSTORE PUSH1 0x7 SLOAD PUSH1 0x1 PUSH1 0x1 PUSH1 0xA0 SHL SUB AND CALLER EQ PUSH2 0x1524 JUMPI PUSH1 0x1 SLOAD PUSH1 0x40 MLOAD PUSH4 0x626F80E7 PUSH1 0xE1 SHL DUP2 MSTORE PUSH0 SWAP2 DUP3 SWAP2 DUP3 SWAP2 PUSH1 0x1 PUSH1 0x1 PUSH1 0xA0 SHL SUB AND SWAP1 PUSH4 0xC4DF01CE SWAP1 PUSH2 0x14A2 SWAP1 CALLER SWAP1 DUP9 SWAP1 PUSH1 0x4 ADD PUSH2 0x1FA6 JUMP JUMPDEST PUSH0 PUSH1 0x40 MLOAD DUP1 DUP4 SUB DUP2 PUSH0 DUP8 GAS CALL ISZERO DUP1 ISZERO PUSH2 0x14BD JUMPI RETURNDATASIZE PUSH0 DUP1 RETURNDATACOPY RETURNDATASIZE PUSH0 REVERT JUMPDEST POP POP POP POP PUSH1 0x40 MLOAD RETURNDATASIZE PUSH0 DUP3 RETURNDATACOPY PUSH1 0x1F RETURNDATASIZE SWAP1 DUP2 ADD PUSH1 0x1F NOT AND DUP3 ADD PUSH1 0x40 MSTORE PUSH2 0x14E4 SWAP2 SWAP1 DUP2 ADD SWAP1 PUSH2 0x201E JUMP JUMPDEST SWAP3 POP SWAP3 POP SWAP3 POP CALLER PUSH1 0x1 PUSH1 0x1 PUSH1 0xA0 SHL SUB AND PUSH0 DUP1 MLOAD PUSH1 0x20 PUSH2 0x245C DUP4 CODECOPY DUP2 MLOAD SWAP2 MSTORE DUP5 DUP5 DUP5 PUSH1 0x40 MLOAD PUSH2 0x1514 SWAP4 SWAP3 SWAP2 SWAP1 PUSH2 0x206D JUMP JUMPDEST PUSH1 0x40 MLOAD DUP1 SWAP2 SUB SWAP1 LOG2 POP POP POP PUSH2 0x162E JUMP JUMPDEST PUSH0 PUSH1 0x40 MLOAD DUP1 PUSH1 0xA0 ADD PUSH1 0x40 MSTORE DUP1 DUP9 PUSH1 0x4 DUP2 GT ISZERO PUSH2 0x1542 JUMPI PUSH2 0x1542 PUSH2 0x1E65 JUMP JUMPDEST DUP2 MSTORE PUSH1 0x20 DUP1 DUP3 ADD DUP10 SWAP1 MSTORE PUSH1 0x40 DUP3 ADD DUP9 SWAP1 MSTORE PUSH1 0x60 DUP3 ADD DUP8 SWAP1 MSTORE PUSH0 PUSH1 0x80 SWAP1 SWAP3 ADD DUP3 SWAP1 MSTORE DUP4 SLOAD PUSH1 0x1 DUP2 DUP2 ADD DUP7 SSTORE SWAP5 DUP4 MSTORE SWAP2 KECCAK256 DUP3 MLOAD PUSH1 0x5 SWAP1 SWAP3 MUL ADD DUP1 SLOAD SWAP3 SWAP4 SWAP1 SWAP3 DUP4 SWAP2 PUSH1 0xFF NOT SWAP1 SWAP2 AND SWAP1 DUP4 PUSH1 0x4 DUP2 GT ISZERO PUSH2 0x159A JUMPI PUSH2 0x159A PUSH2 0x1E65 JUMP JUMPDEST MUL OR SWAP1 SSTORE POP PUSH1 0x20 DUP3 ADD MLOAD PUSH1 0x1 DUP3 ADD SWAP1 PUSH2 0x15B3 SWAP1 DUP3 PUSH2 0x212C JUMP JUMPDEST POP PUSH1 0x40 DUP3 ADD MLOAD PUSH1 0x2 DUP3 ADD SWAP1 PUSH2 0x15C8 SWAP1 DUP3 PUSH2 0x212C JUMP JUMPDEST POP PUSH1 0x60 DUP3 ADD MLOAD PUSH1 0x3 DUP3 ADD SWAP1 PUSH2 0x15DD SWAP1 DUP3 PUSH2 0x212C JUMP JUMPDEST POP PUSH1 0x80 SWAP2 SWAP1 SWAP2 ADD MLOAD PUSH1 0x4 SWAP1 SWAP2 ADD SSTORE PUSH0 SLOAD PUSH2 0x15F9 SWAP1 PUSH1 0x1 SWAP1 PUSH2 0x2428 JUMP JUMPDEST PUSH32 0xB90B27D205996A6CE127FC2F1BFBAD17D5D8270E9A27EBB35037F2D67853B6CF DUP8 DUP8 DUP8 DUP8 PUSH1 0x40 MLOAD PUSH2 0x1225 SWAP5 SWAP4 SWAP3 SWAP2 SWAP1 PUSH2 0x21E6 JUMP JUMPDEST POP POP POP POP POP POP JUMP JUMPDEST PUSH1 0x1 SLOAD PUSH1 0x40 MLOAD PUSH4 0x1C2084F PUSH1 0xE3 SHL DUP2 MSTORE CALLER PUSH1 0x4 DUP3 ADD MSTORE PUSH0 SWAP2 PUSH1 0x1 PUSH1 0x1 PUSH1 0xA0 SHL SUB AND SWAP1 PUSH4 0xE104278 SWAP1 PUSH1 0x24 ADD PUSH1 0x20 PUSH1 0x40 MLOAD DUP1 DUP4 SUB DUP2 DUP7 GAS STATICCALL ISZERO DUP1 ISZERO PUSH2 0x167C JUMPI RETURNDATASIZE PUSH0 DUP1 RETURNDATACOPY RETURNDATASIZE PUSH0 REVERT JUMPDEST POP POP POP POP PUSH1 0x40 MLOAD RETURNDATASIZE PUSH1 0x1F NOT PUSH1 0x1F DUP3 ADD AND DUP3 ADD DUP1 PUSH1 0x40 MSTORE POP DUP2 ADD SWAP1 PUSH2 0x16A0 SWAP2 SWAP1 PUSH2 0x1F47 JUMP JUMPDEST SWAP1 POP DUP1 TIMESTAMP GT PUSH2 0x16C1 JUMPI PUSH1 0x40 MLOAD PUSH3 0x461BCD PUSH1 0xE5 SHL DUP2 MSTORE PUSH1 0x4 ADD PUSH2 0x2BC SWAP1 PUSH2 0x1F5E JUMP JUMPDEST PUSH1 0x40 DUP1 MLOAD DUP1 DUP3 ADD SWAP1 SWAP2 MSTORE PUSH1 0x11 DUP2 MSTORE PUSH17 0x44656E69616C206F662053657276696365 PUSH1 0x78 SHL PUSH1 0x20 DUP3 ADD MSTORE PUSH1 0x7 SLOAD PUSH1 0x1 PUSH1 0x1 PUSH1 0xA0 SHL SUB AND CALLER EQ PUSH2 0x17B2 JUMPI PUSH1 0x1 SLOAD PUSH1 0x40 MLOAD PUSH4 0x626F80E7 PUSH1 0xE1 SHL DUP2 MSTORE PUSH0 SWAP2 DUP3 SWAP2 DUP3 SWAP2 PUSH1 0x1 PUSH1 0x1 PUSH1 0xA0 SHL SUB AND SWAP1 PUSH4 0xC4DF01CE SWAP1 PUSH2 0x1731 SWAP1 CALLER SWAP1 DUP9 SWAP1 PUSH1 0x4 ADD PUSH2 0x1FA6 JUMP JUMPDEST PUSH0 PUSH1 0x40 MLOAD DUP1 DUP4 SUB DUP2 PUSH0 DUP8 GAS CALL ISZERO DUP1 ISZERO PUSH2 0x174C JUMPI RETURNDATASIZE PUSH0 DUP1 RETURNDATACOPY RETURNDATASIZE PUSH0 REVERT JUMPDEST POP POP POP POP PUSH1 0x40 MLOAD RETURNDATASIZE PUSH0 DUP3 RETURNDATACOPY PUSH1 0x1F RETURNDATASIZE SWAP1 DUP2 ADD PUSH1 0x1F NOT AND DUP3 ADD PUSH1 0x40 MSTORE PUSH2 0x1773 SWAP2 SWAP1 DUP2 ADD SWAP1 PUSH2 0x201E JUMP JUMPDEST SWAP3 POP SWAP3 POP SWAP3 POP CALLER PUSH1 0x1 PUSH1 0x1 PUSH1 0xA0 SHL SUB AND PUSH0 DUP1 MLOAD PUSH1 0x20 PUSH2 0x245C DUP4 CODECOPY DUP2 MLOAD SWAP2 MSTORE DUP5 DUP5 DUP5 PUSH1 0x40 MLOAD PUSH2 0x17A3 SWAP4 SWAP3 SWAP2 SWAP1 PUSH2 0x206D JUMP JUMPDEST PUSH1 0x40 MLOAD DUP1 SWAP2 SUB SWAP1 LOG2 POP POP POP POP POP JUMP JUMPDEST PUSH1 0x4 DUP1 SLOAD PUSH1 0xFF NOT AND PUSH1 0x1 OR SWAP1 SSTORE PUSH1 0x40 MLOAD PUSH32 0xE09EB0AC9BAD92F05E0B489E6FC1D3E349861FFD8A2548182EF06278968A9BD0 SWAP1 PUSH0 SWAP1 LOG1 POP POP JUMP JUMPDEST PUSH1 0x1 SLOAD PUSH1 0x40 MLOAD PUSH4 0x1C2084F PUSH1 0xE3 SHL DUP2 MSTORE CALLER PUSH1 0x4 DUP3 ADD MSTORE PUSH0 SWAP2 PUSH1 0x1 PUSH1 0x1 PUSH1 0xA0 SHL SUB AND SWAP1 PUSH4 0xE104278 SWAP1 PUSH1 0x24 ADD PUSH1 0x20 PUSH1 0x40 MLOAD DUP1 DUP4 SUB DUP2 DUP7 GAS STATICCALL ISZERO DUP1 ISZERO PUSH2 0x1831 JUMPI RETURNDATASIZE PUSH0 DUP1 RETURNDATACOPY RETURNDATASIZE PUSH0 REVERT JUMPDEST POP POP POP POP PUSH1 0x40 MLOAD RETURNDATASIZE PUSH1 0x1F NOT PUSH1 0x1F DUP3 ADD AND DUP3 ADD DUP1 PUSH1 0x40 MSTORE POP DUP2 ADD SWAP1 PUSH2 0x1855 SWAP2 SWAP1 PUSH2 0x1F47 JUMP JUMPDEST SWAP1 POP DUP1 TIMESTAMP GT PUSH2 0x1876 JUMPI PUSH1 0x40 MLOAD PUSH3 0x461BCD PUSH1 0xE5 SHL DUP2 MSTORE PUSH1 0x4 ADD PUSH2 0x2BC SWAP1 PUSH2 0x1F5E JUMP JUMPDEST PUSH1 0x40 DUP1 MLOAD DUP1 DUP3 ADD SWAP1 SWAP2 MSTORE PUSH1 0x11 DUP2 MSTORE PUSH17 0x44656E69616C206F662053657276696365 PUSH1 0x78 SHL PUSH1 0x20 DUP3 ADD MSTORE PUSH1 0x7 SLOAD PUSH1 0x1 PUSH1 0x1 PUSH1 0xA0 SHL SUB AND CALLER EQ PUSH2 0x18E6 JUMPI PUSH1 0x1 SLOAD PUSH1 0x40 MLOAD PUSH4 0x626F80E7 PUSH1 0xE1 SHL DUP2 MSTORE PUSH0 SWAP2 DUP3 SWAP2 DUP3 SWAP2 PUSH1 0x1 PUSH1 0x1 PUSH1 0xA0 SHL SUB AND SWAP1 PUSH4 0xC4DF01CE SWAP1 PUSH2 0x1731 SWAP1 CALLER SWAP1 DUP9 SWAP1 PUSH1 0x4 ADD PUSH2 0x1FA6 JUMP JUMPDEST PUSH1 0x4 DUP1 SLOAD PUSH1 0xFF NOT AND SWAP1 SSTORE PUSH1 0x40 MLOAD PUSH32 0x8C8771D60E1AE6B90556D35DC2F79A3190D6B4088C05D7CA8CABBB9E9061F3E5 SWAP1 PUSH0 SWAP1 LOG1 POP POP JUMP JUMPDEST PUSH0 DUP2 DUP2 SLOAD DUP2 LT PUSH2 0x192A JUMPI PUSH0 DUP1 REVERT JUMPDEST PUSH0 SWAP2 DUP3 MSTORE PUSH1 0x20 SWAP1 SWAP2 KECCAK256 PUSH1 0x5 SWAP1 SWAP2 MUL ADD DUP1 SLOAD PUSH1 0x1 DUP3 ADD DUP1 SLOAD PUSH1 0xFF SWAP1 SWAP3 AND SWAP4 POP SWAP1 PUSH2 0x1952 SWAP1 PUSH2 0x20A9 JUMP JUMPDEST DUP1 PUSH1 0x1F ADD PUSH1 0x20 DUP1 SWAP2 DIV MUL PUSH1 0x20 ADD PUSH1 0x40 MLOAD SWAP1 DUP2 ADD PUSH1 0x40 MSTORE DUP1 SWAP3 SWAP2 SWAP1 DUP2 DUP2 MSTORE PUSH1 0x20 ADD DUP3 DUP1 SLOAD PUSH2 0x197E SWAP1 PUSH2 0x20A9 JUMP JUMPDEST DUP1 ISZERO PUSH2 0x19C9 JUMPI DUP1 PUSH1 0x1F LT PUSH2 0x19A0 JUMPI PUSH2 0x100 DUP1 DUP4 SLOAD DIV MUL DUP4 MSTORE SWAP2 PUSH1 0x20 ADD SWAP2 PUSH2 0x19C9 JUMP JUMPDEST DUP3 ADD SWAP2 SWAP1 PUSH0 MSTORE PUSH1 0x20 PUSH0 KECCAK256 SWAP1 JUMPDEST DUP2 SLOAD DUP2 MSTORE SWAP1 PUSH1 0x1 ADD SWAP1 PUSH1 0x20 ADD DUP1 DUP4 GT PUSH2 0x19AC JUMPI DUP3 SWAP1 SUB PUSH1 0x1F AND DUP3 ADD SWAP2 JUMPDEST POP POP POP POP POP SWAP1 DUP1 PUSH1 0x2 ADD DUP1 SLOAD PUSH2 0x19DE SWAP1 PUSH2 0x20A9 JUMP JUMPDEST DUP1 PUSH1 0x1F ADD PUSH1 0x20 DUP1 SWAP2 DIV MUL PUSH1 0x20 ADD PUSH1 0x40 MLOAD SWAP1 DUP2 ADD PUSH1 0x40 MSTORE DUP1 SWAP3 SWAP2 SWAP1 DUP2 DUP2 MSTORE PUSH1 0x20 ADD DUP3 DUP1 SLOAD PUSH2 0x1A0A SWAP1 PUSH2 0x20A9 JUMP JUMPDEST DUP1 ISZERO PUSH2 0x1A55 JUMPI DUP1 PUSH1 0x1F LT PUSH2 0x1A2C JUMPI PUSH2 0x100 DUP1 DUP4 SLOAD DIV MUL DUP4 MSTORE SWAP2 PUSH1 0x20 ADD SWAP2 PUSH2 0x1A55 JUMP JUMPDEST DUP3 ADD SWAP2 SWAP1 PUSH0 MSTORE PUSH1 0x20 PUSH0 KECCAK256 SWAP1 JUMPDEST DUP2 SLOAD DUP2 MSTORE SWAP1 PUSH1 0x1 ADD SWAP1 PUSH1 0x20 ADD DUP1 DUP4 GT PUSH2 0x1A38 JUMPI DUP3 SWAP1 SUB PUSH1 0x1F AND DUP3 ADD SWAP2 JUMPDEST POP POP POP POP POP SWAP1 DUP1 PUSH1 0x3 ADD DUP1 SLOAD PUSH2 0x1A6A SWAP1 PUSH2 0x20A9 JUMP JUMPDEST DUP1 PUSH1 0x1F ADD PUSH1 0x20 DUP1 SWAP2 DIV MUL PUSH1 0x20 ADD PUSH1 0x40 MLOAD SWAP1 DUP2 ADD PUSH1 0x40 MSTORE DUP1 SWAP3 SWAP2 SWAP1 DUP2 DUP2 MSTORE PUSH1 0x20 ADD DUP3 DUP1 SLOAD PUSH2 0x1A96 SWAP1 PUSH2 0x20A9 JUMP JUMPDEST DUP1 ISZERO PUSH2 0x1AE1 JUMPI DUP1 PUSH1 0x1F LT PUSH2 0x1AB8 JUMPI PUSH2 0x100 DUP1 DUP4 SLOAD DIV MUL DUP4 MSTORE SWAP2 PUSH1 0x20 ADD SWAP2 PUSH2 0x1AE1 JUMP JUMPDEST DUP3 ADD SWAP2 SWAP1 PUSH0 MSTORE PUSH1 0x20 PUSH0 KECCAK256 SWAP1 JUMPDEST DUP2 SLOAD DUP2 MSTORE SWAP1 PUSH1 0x1 ADD SWAP1 PUSH1 0x20 ADD DUP1 DUP4 GT PUSH2 0x1AC4 JUMPI DUP3 SWAP1 SUB PUSH1 0x1F AND DUP3 ADD SWAP2 JUMPDEST POP POP POP POP POP SWAP1 DUP1 PUSH1 0x4 ADD SLOAD SWAP1 POP DUP6 JUMP JUMPDEST PUSH1 0x1 DUP1 SLOAD PUSH1 0x1 PUSH1 0x1 PUSH1 0xA0 SHL SUB NOT AND PUSH1 0x1 PUSH1 0x1 PUSH1 0xA0 SHL SUB DUP4 AND SWAP1 DUP2 OR SWAP1 SWAP2 SSTORE PUSH1 0x40 MLOAD SWAP1 DUP2 MSTORE PUSH32 0x60AEF7237739F69CDEF5DD8E8F90780EF1F3F6D76024D66E168102D04E88B5F4 SWAP1 PUSH1 0x20 ADD PUSH1 0x40 MLOAD DUP1 SWAP2 SUB SWAP1 LOG1 POP JUMP JUMPDEST POP DUP1 SLOAD PUSH2 0x1B51 SWAP1 PUSH2 0x20A9 JUMP JUMPDEST PUSH0 DUP3 SSTORE DUP1 PUSH1 0x1F LT PUSH2 0x1B60 JUMPI POP POP JUMP JUMPDEST PUSH1 0x1F ADD PUSH1 0x20 SWAP1 DIV SWAP1 PUSH0 MSTORE PUSH1 0x20 PUSH0 KECCAK256 SWAP1 DUP2 ADD SWAP1 PUSH2 0x1B7C SWAP2 SWAP1 PUSH2 0x1B7F JUMP JUMPDEST POP JUMP JUMPDEST JUMPDEST DUP1 DUP3 GT ISZERO PUSH2 0x1B93 JUMPI PUSH0 DUP2 SSTORE PUSH1 0x1 ADD PUSH2 0x1B80 JUMP JUMPDEST POP SWAP1 JUMP JUMPDEST PUSH1 0x5 DUP2 LT PUSH2 0x1B7C JUMPI PUSH0 DUP1 REVERT JUMPDEST PUSH4 0x4E487B71 PUSH1 0xE0 SHL PUSH0 MSTORE PUSH1 0x41 PUSH1 0x4 MSTORE PUSH1 0x24 PUSH0 REVERT JUMPDEST PUSH1 0x40 MLOAD PUSH1 0x1F DUP3 ADD PUSH1 0x1F NOT AND DUP2 ADD PUSH1 0x1 PUSH1 0x1 PUSH1 0x40 SHL SUB DUP2 GT DUP3 DUP3 LT OR ISZERO PUSH2 0x1BDF JUMPI PUSH2 0x1BDF PUSH2 0x1BA3 JUMP JUMPDEST PUSH1 0x40 MSTORE SWAP2 SWAP1 POP JUMP JUMPDEST PUSH0 PUSH1 0x1 PUSH1 0x1 PUSH1 0x40 SHL SUB DUP3 GT ISZERO PUSH2 0x1BFF JUMPI PUSH2 0x1BFF PUSH2 0x1BA3 JUMP JUMPDEST POP PUSH1 0x1F ADD PUSH1 0x1F NOT AND PUSH1 0x20 ADD SWAP1 JUMP JUMPDEST PUSH0 DUP3 PUSH1 0x1F DUP4 ADD SLT PUSH2 0x1C1C JUMPI PUSH0 DUP1 REVERT JUMPDEST DUP2 CALLDATALOAD PUSH2 0x1C2F PUSH2 0x1C2A DUP3 PUSH2 0x1BE7 JUMP JUMPDEST PUSH2 0x1BB7 JUMP JUMPDEST DUP2 DUP2 MSTORE DUP5 PUSH1 0x20 DUP4 DUP7 ADD ADD GT ISZERO PUSH2 0x1C43 JUMPI PUSH0 DUP1 REVERT JUMPDEST DUP2 PUSH1 0x20 DUP6 ADD PUSH1 0x20 DUP4 ADD CALLDATACOPY PUSH0 SWAP2 DUP2 ADD PUSH1 0x20 ADD SWAP2 SWAP1 SWAP2 MSTORE SWAP4 SWAP3 POP POP POP JUMP JUMPDEST PUSH0 DUP1 PUSH0 DUP1 PUSH0 PUSH1 0xA0 DUP7 DUP9 SUB SLT ISZERO PUSH2 0x1C73 JUMPI PUSH0 DUP1 REVERT JUMPDEST DUP6 CALLDATALOAD SWAP5 POP PUSH1 0x20 DUP7 ADD CALLDATALOAD PUSH2 0x1C85 DUP2 PUSH2 0x1B97 JUMP JUMPDEST SWAP4 POP PUSH1 0x40 DUP7 ADD CALLDATALOAD PUSH1 0x1 PUSH1 0x1 PUSH1 0x40 SHL SUB DUP2 GT ISZERO PUSH2 0x1C9F JUMPI PUSH0 DUP1 REVERT JUMPDEST PUSH2 0x1CAB DUP9 DUP3 DUP10 ADD PUSH2 0x1C0D JUMP JUMPDEST SWAP4 POP POP PUSH1 0x60 DUP7 ADD CALLDATALOAD PUSH1 0x1 PUSH1 0x1 PUSH1 0x40 SHL SUB DUP2 GT ISZERO PUSH2 0x1CC6 JUMPI PUSH0 DUP1 REVERT JUMPDEST PUSH2 0x1CD2 DUP9 DUP3 DUP10 ADD PUSH2 0x1C0D JUMP JUMPDEST SWAP3 POP POP PUSH1 0x80 DUP7 ADD CALLDATALOAD PUSH1 0x1 PUSH1 0x1 PUSH1 0x40 SHL SUB DUP2 GT ISZERO PUSH2 0x1CED JUMPI PUSH0 DUP1 REVERT JUMPDEST PUSH2 0x1CF9 DUP9 DUP3 DUP10 ADD PUSH2 0x1C0D JUMP JUMPDEST SWAP2 POP POP SWAP3 SWAP6 POP SWAP3 SWAP6 SWAP1 SWAP4 POP JUMP JUMPDEST PUSH0 DUP1 PUSH1 0x40 DUP4 DUP6 SUB SLT ISZERO PUSH2 0x1D17 JUMPI PUSH0 DUP1 REVERT JUMPDEST DUP3 CALLDATALOAD PUSH1 0x1 PUSH1 0x1 PUSH1 0x40 SHL SUB DUP2 GT ISZERO PUSH2 0x1D2C JUMPI PUSH0 DUP1 REVERT JUMPDEST PUSH2 0x1D38 DUP6 DUP3 DUP7 ADD PUSH2 0x1C0D JUMP JUMPDEST SWAP3 POP POP PUSH1 0x20 DUP4 ADD CALLDATALOAD PUSH1 0x1 PUSH1 0x1 PUSH1 0x40 SHL SUB DUP2 GT ISZERO PUSH2 0x1D53 JUMPI PUSH0 DUP1 REVERT JUMPDEST PUSH2 0x1D5F DUP6 DUP3 DUP7 ADD PUSH2 0x1C0D JUMP JUMPDEST SWAP2 POP POP SWAP3 POP SWAP3 SWAP1 POP JUMP JUMPDEST PUSH0 DUP2 MLOAD DUP1 DUP5 MSTORE DUP1 PUSH1 0x20 DUP5 ADD PUSH1 0x20 DUP7 ADD MCOPY PUSH0 PUSH1 0x20 DUP3 DUP7 ADD ADD MSTORE PUSH1 0x20 PUSH1 0x1F NOT PUSH1 0x1F DUP4 ADD AND DUP6 ADD ADD SWAP2 POP POP SWAP3 SWAP2 POP POP JUMP JUMPDEST PUSH1 0x20 DUP2 MSTORE PUSH0 PUSH2 0x1DA9 PUSH1 0x20 DUP4 ADD DUP5 PUSH2 0x1D69 JUMP JUMPDEST SWAP4 SWAP3 POP POP POP JUMP JUMPDEST PUSH0 PUSH1 0x20 DUP3 DUP5 SUB SLT ISZERO PUSH2 0x1DC0 JUMPI PUSH0 DUP1 REVERT JUMPDEST POP CALLDATALOAD SWAP2 SWAP1 POP JUMP JUMPDEST PUSH0 DUP1 PUSH0 DUP1 PUSH1 0x80 DUP6 DUP8 SUB SLT ISZERO PUSH2 0x1DDA JUMPI PUSH0 DUP1 REVERT JUMPDEST DUP5 CALLDATALOAD PUSH2 0x1DE5 DUP2 PUSH2 0x1B97 JUMP JUMPDEST SWAP4 POP PUSH1 0x20 DUP6 ADD CALLDATALOAD PUSH1 0x1 PUSH1 0x1 PUSH1 0x40 SHL SUB DUP2 GT ISZERO PUSH2 0x1DFF JUMPI PUSH0 DUP1 REVERT JUMPDEST PUSH2 0x1E0B DUP8 DUP3 DUP9 ADD PUSH2 0x1C0D JUMP JUMPDEST SWAP4 POP POP PUSH1 0x40 DUP6 ADD CALLDATALOAD PUSH1 0x1 PUSH1 0x1 PUSH1 0x40 SHL SUB DUP2 GT ISZERO PUSH2 0x1E26 JUMPI PUSH0 DUP1 REVERT JUMPDEST PUSH2 0x1E32 DUP8 DUP3 DUP9 ADD PUSH2 0x1C0D JUMP JUMPDEST SWAP3 POP POP PUSH1 0x60 DUP6 ADD CALLDATALOAD PUSH1 0x1 PUSH1 0x1 PUSH1 0x40 SHL SUB DUP2 GT ISZERO PUSH2 0x1E4D JUMPI PUSH0 DUP1 REVERT JUMPDEST PUSH2 0x1E59 DUP8 DUP3 DUP9 ADD PUSH2 0x1C0D JUMP JUMPDEST SWAP2 POP POP SWAP3 SWAP6 SWAP2 SWAP5 POP SWAP3 POP JUMP JUMPDEST PUSH4 0x4E487B71 PUSH1 0xE0 SHL PUSH0 MSTORE PUSH1 0x21 PUSH1 0x4 MSTORE PUSH1 0x24 PUSH0 REVERT JUMPDEST PUSH1 0x5 DUP2 LT PUSH2 0x1E95 JUMPI PUSH4 0x4E487B71 PUSH1 0xE0 SHL PUSH0 MSTORE PUSH1 0x21 PUSH1 0x4 MSTORE PUSH1 0x24 PUSH0 REVERT JUMPDEST SWAP1 MSTORE JUMP JUMPDEST PUSH2 0x1EA3 DUP2 DUP8 PUSH2 0x1E79 JUMP JUMPDEST PUSH1 0xA0 PUSH1 0x20 DUP3 ADD MSTORE PUSH0 PUSH2 0x1EB8 PUSH1 0xA0 DUP4 ADD DUP8 PUSH2 0x1D69 JUMP JUMPDEST DUP3 DUP2 SUB PUSH1 0x40 DUP5 ADD MSTORE PUSH2 0x1ECA DUP2 DUP8 PUSH2 0x1D69 JUMP JUMPDEST SWAP1 POP DUP3 DUP2 SUB PUSH1 0x60 DUP5 ADD MSTORE PUSH2 0x1EDE DUP2 DUP7 PUSH2 0x1D69 JUMP JUMPDEST SWAP2 POP POP DUP3 PUSH1 0x80 DUP4 ADD MSTORE SWAP7 SWAP6 POP POP POP POP POP POP JUMP JUMPDEST PUSH0 PUSH1 0x20 DUP3 DUP5 SUB SLT ISZERO PUSH2 0x1F01 JUMPI PUSH0 DUP1 REVERT JUMPDEST DUP2 CALLDATALOAD PUSH1 0x1 PUSH1 0x1 PUSH1 0xA0 SHL SUB DUP2 AND DUP2 EQ PUSH2 0x1DA9 JUMPI PUSH0 DUP1 REVERT JUMPDEST PUSH1 0x20 DUP1 DUP3 MSTORE PUSH1 0x16 SWAP1 DUP3 ADD MSTORE PUSH22 0x436F6E7472616374206973206E6F7420616374697665 PUSH1 0x50 SHL PUSH1 0x40 DUP3 ADD MSTORE PUSH1 0x60 ADD SWAP1 JUMP JUMPDEST PUSH0 PUSH1 0x20 DUP3 DUP5 SUB SLT ISZERO PUSH2 0x1F57 JUMPI PUSH0 DUP1 REVERT JUMPDEST POP MLOAD SWAP2 SWAP1 POP JUMP JUMPDEST PUSH1 0x20 DUP1 DUP3 MSTORE PUSH1 0x28 SWAP1 DUP3 ADD MSTORE PUSH32 0x416363657373436F6E74726F6C436F6E74726163743A204D656D626572206973 PUSH1 0x40 DUP3 ADD MSTORE PUSH8 0x8189B1BD8DAD959 PUSH1 0xC2 SHL PUSH1 0x60 DUP3 ADD MSTORE PUSH1 0x80 ADD SWAP1 JUMP JUMPDEST PUSH1 0x1 PUSH1 0x1 PUSH1 0xA0 SHL SUB DUP4 AND DUP2 MSTORE PUSH1 0x40 PUSH1 0x20 DUP3 ADD DUP2 SWAP1 MSTORE PUSH0 SWAP1 PUSH2 0x1FC9 SWAP1 DUP4 ADD DUP5 PUSH2 0x1D69 JUMP JUMPDEST SWAP5 SWAP4 POP POP POP POP JUMP JUMPDEST PUSH0 DUP3 PUSH1 0x1F DUP4 ADD SLT PUSH2 0x1FE0 JUMPI PUSH0 DUP1 REVERT JUMPDEST DUP2 MLOAD PUSH2 0x1FEE PUSH2 0x1C2A DUP3 PUSH2 0x1BE7 JUMP JUMPDEST DUP2 DUP2 MSTORE DUP5 PUSH1 0x20 DUP4 DUP7 ADD ADD GT ISZERO PUSH2 0x2002 JUMPI PUSH0 DUP1 REVERT JUMPDEST DUP2 PUSH1 0x20 DUP6 ADD PUSH1 0x20 DUP4 ADD MCOPY PUSH0 SWAP2 DUP2 ADD PUSH1 0x20 ADD SWAP2 SWAP1 SWAP2 MSTORE SWAP4 SWAP3 POP POP POP JUMP JUMPDEST PUSH0 DUP1 PUSH0 PUSH1 0x60 DUP5 DUP7 SUB SLT ISZERO PUSH2 0x2030 JUMPI PUSH0 DUP1 REVERT JUMPDEST DUP4 MLOAD PUSH1 0x20 DUP6 ADD MLOAD SWAP1 SWAP4 POP PUSH1 0x1 PUSH1 0x1 PUSH1 0x40 SHL SUB DUP2 GT ISZERO PUSH2 0x204D JUMPI PUSH0 DUP1 REVERT JUMPDEST PUSH2 0x2059 DUP7 DUP3 DUP8 ADD PUSH2 0x1FD1 JUMP JUMPDEST PUSH1 0x40 SWAP6 SWAP1 SWAP6 ADD MLOAD SWAP4 SWAP7 SWAP5 SWAP6 POP SWAP3 SWAP4 SWAP3 POP POP POP JUMP JUMPDEST DUP4 DUP2 MSTORE PUSH1 0x60 PUSH1 0x20 DUP3 ADD MSTORE PUSH0 PUSH2 0x2085 PUSH1 0x60 DUP4 ADD DUP6 PUSH2 0x1D69 JUMP JUMPDEST SWAP1 POP DUP3 PUSH1 0x40 DUP4 ADD MSTORE SWAP5 SWAP4 POP POP POP POP JUMP JUMPDEST PUSH4 0x4E487B71 PUSH1 0xE0 SHL PUSH0 MSTORE PUSH1 0x32 PUSH1 0x4 MSTORE PUSH1 0x24 PUSH0 REVERT JUMPDEST PUSH1 0x1 DUP2 DUP2 SHR SWAP1 DUP3 AND DUP1 PUSH2 0x20BD JUMPI PUSH1 0x7F DUP3 AND SWAP2 POP JUMPDEST PUSH1 0x20 DUP3 LT DUP2 SUB PUSH2 0x20DB JUMPI PUSH4 0x4E487B71 PUSH1 0xE0 SHL PUSH0 MSTORE PUSH1 0x22 PUSH1 0x4 MSTORE PUSH1 0x24 PUSH0 REVERT JUMPDEST POP SWAP2 SWAP1 POP JUMP JUMPDEST PUSH1 0x1F DUP3 GT ISZERO PUSH2 0x1301 JUMPI DUP1 PUSH0 MSTORE PUSH1 0x20 PUSH0 KECCAK256 PUSH1 0x1F DUP5 ADD PUSH1 0x5 SHR DUP2 ADD PUSH1 0x20 DUP6 LT ISZERO PUSH2 0x2106 JUMPI POP DUP1 JUMPDEST PUSH1 0x1F DUP5 ADD PUSH1 0x5 SHR DUP3 ADD SWAP2 POP JUMPDEST DUP2 DUP2 LT ISZERO PUSH2 0x2125 JUMPI PUSH0 DUP2 SSTORE PUSH1 0x1 ADD PUSH2 0x2112 JUMP JUMPDEST POP POP POP POP POP JUMP JUMPDEST DUP2 MLOAD PUSH1 0x1 PUSH1 0x1 PUSH1 0x40 SHL SUB DUP2 GT ISZERO PUSH2 0x2145 JUMPI PUSH2 0x2145 PUSH2 0x1BA3 JUMP JUMPDEST PUSH2 0x2159 DUP2 PUSH2 0x2153 DUP5 SLOAD PUSH2 0x20A9 JUMP JUMPDEST DUP5 PUSH2 0x20E1 JUMP JUMPDEST PUSH1 0x20 PUSH1 0x1F DUP3 GT PUSH1 0x1 DUP2 EQ PUSH2 0x218B JUMPI PUSH0 DUP4 ISZERO PUSH2 0x2174 JUMPI POP DUP5 DUP3 ADD MLOAD JUMPDEST PUSH0 NOT PUSH1 0x3 DUP6 SWAP1 SHL SHR NOT AND PUSH1 0x1 DUP5 SWAP1 SHL OR DUP5 SSTORE PUSH2 0x2125 JUMP JUMPDEST PUSH0 DUP5 DUP2 MSTORE PUSH1 0x20 DUP2 KECCAK256 PUSH1 0x1F NOT DUP6 AND SWAP2 JUMPDEST DUP3 DUP2 LT ISZERO PUSH2 0x21BA JUMPI DUP8 DUP6 ADD MLOAD DUP3 SSTORE PUSH1 0x20 SWAP5 DUP6 ADD SWAP5 PUSH1 0x1 SWAP1 SWAP3 ADD SWAP2 ADD PUSH2 0x219A JUMP JUMPDEST POP DUP5 DUP3 LT ISZERO PUSH2 0x21D7 JUMPI DUP7 DUP5 ADD MLOAD PUSH0 NOT PUSH1 0x3 DUP8 SWAP1 SHL PUSH1 0xF8 AND SHR NOT AND DUP2 SSTORE JUMPDEST POP POP POP POP PUSH1 0x1 SWAP1 DUP2 SHL ADD SWAP1 SSTORE POP JUMP JUMPDEST PUSH2 0x21F0 DUP2 DUP7 PUSH2 0x1E79 JUMP JUMPDEST PUSH1 0x80 PUSH1 0x20 DUP3 ADD MSTORE PUSH0 PUSH2 0x2205 PUSH1 0x80 DUP4 ADD DUP7 PUSH2 0x1D69 JUMP JUMPDEST DUP3 DUP2 SUB PUSH1 0x40 DUP5 ADD MSTORE PUSH2 0x2217 DUP2 DUP7 PUSH2 0x1D69 JUMP JUMPDEST SWAP1 POP DUP3 DUP2 SUB PUSH1 0x60 DUP5 ADD MSTORE PUSH2 0x222B DUP2 DUP6 PUSH2 0x1D69 JUMP JUMPDEST SWAP8 SWAP7 POP POP POP POP POP POP POP JUMP JUMPDEST PUSH0 PUSH1 0x20 DUP3 DUP5 SUB SLT ISZERO PUSH2 0x2246 JUMPI PUSH0 DUP1 REVERT JUMPDEST DUP2 MLOAD PUSH2 0x1DA9 DUP2 PUSH2 0x1B97 JUMP JUMPDEST PUSH0 DUP1 DUP4 SLOAD PUSH2 0x225E DUP2 PUSH2 0x20A9 JUMP JUMPDEST PUSH1 0x1 DUP3 AND DUP1 ISZERO PUSH2 0x2275 JUMPI PUSH1 0x1 DUP2 EQ PUSH2 0x228A JUMPI PUSH2 0x22B7 JUMP JUMPDEST PUSH1 0xFF NOT DUP4 AND DUP7 MSTORE DUP2 ISZERO ISZERO DUP3 MUL DUP7 ADD SWAP4 POP PUSH2 0x22B7 JUMP JUMPDEST DUP7 PUSH0 MSTORE PUSH1 0x20 PUSH0 KECCAK256 PUSH0 JUMPDEST DUP4 DUP2 LT ISZERO PUSH2 0x22AF JUMPI DUP2 SLOAD DUP9 DUP3 ADD MSTORE PUSH1 0x1 SWAP1 SWAP2 ADD SWAP1 PUSH1 0x20 ADD PUSH2 0x2293 JUMP JUMPDEST POP POP DUP2 DUP7 ADD SWAP4 POP JUMPDEST POP SWAP2 SWAP6 SWAP5 POP POP POP POP POP JUMP JUMPDEST PUSH4 0x4E487B71 PUSH1 0xE0 SHL PUSH0 MSTORE PUSH1 0x11 PUSH1 0x4 MSTORE PUSH1 0x24 PUSH0 REVERT JUMPDEST DUP1 DUP3 ADD DUP1 DUP3 GT ISZERO PUSH2 0x22E9 JUMPI PUSH2 0x22E9 PUSH2 0x22C2 JUMP JUMPDEST SWAP3 SWAP2 POP POP JUMP JUMPDEST PUSH2 0x22F9 DUP2 DUP7 PUSH2 0x1E79 JUMP JUMPDEST PUSH1 0x80 PUSH1 0x20 DUP3 ADD MSTORE PUSH0 PUSH2 0x230E PUSH1 0x80 DUP4 ADD DUP7 PUSH2 0x1D69 JUMP JUMPDEST DUP3 DUP2 SUB PUSH1 0x40 DUP5 ADD MSTORE PUSH2 0x2320 DUP2 DUP7 PUSH2 0x1D69 JUMP JUMPDEST SWAP2 POP POP DUP3 ISZERO ISZERO PUSH1 0x60 DUP4 ADD MSTORE SWAP6 SWAP5 POP POP POP POP POP JUMP JUMPDEST PUSH0 DUP1 PUSH1 0x40 DUP4 DUP6 SUB SLT ISZERO PUSH2 0x2345 JUMPI PUSH0 DUP1 REVERT JUMPDEST DUP3 MLOAD PUSH1 0x20 DUP5 ADD MLOAD SWAP1 SWAP3 POP PUSH1 0x1 PUSH1 0x1 PUSH1 0x40 SHL SUB DUP2 GT ISZERO PUSH2 0x2362 JUMPI PUSH0 DUP1 REVERT JUMPDEST PUSH2 0x1D5F DUP6 DUP3 DUP7 ADD PUSH2 0x1FD1 JUMP JUMPDEST DUP3 DUP2 MSTORE PUSH1 0x40 PUSH1 0x20 DUP3 ADD MSTORE PUSH0 PUSH2 0x1FC9 PUSH1 0x40 DUP4 ADD DUP5 PUSH2 0x1D69 JUMP JUMPDEST PUSH1 0x1 PUSH1 0x1 PUSH1 0xA0 SHL SUB SWAP2 SWAP1 SWAP2 AND DUP2 MSTORE PUSH1 0x40 PUSH1 0x20 DUP3 ADD DUP2 SWAP1 MSTORE PUSH1 0x13 SWAP1 DUP3 ADD MSTORE PUSH19 0x54616D706572696E6720776974682064617461 PUSH1 0x68 SHL PUSH1 0x60 DUP3 ADD MSTORE PUSH1 0x80 ADD SWAP1 JUMP JUMPDEST PUSH1 0x1 PUSH1 0x1 PUSH1 0xA0 SHL SUB SWAP2 SWAP1 SWAP2 AND DUP2 MSTORE PUSH1 0x40 PUSH1 0x20 DUP3 ADD DUP2 SWAP1 MSTORE PUSH1 0x1B SWAP1 DUP3 ADD MSTORE PUSH0 DUP1 MLOAD PUSH1 0x20 PUSH2 0x243C DUP4 CODECOPY DUP2 MLOAD SWAP2 MSTORE PUSH1 0x60 DUP3 ADD MSTORE PUSH1 0x80 ADD SWAP1 JUMP JUMPDEST PUSH1 0x40 DUP2 MSTORE PUSH0 PUSH2 0x240D PUSH1 0x40 DUP4 ADD DUP6 PUSH2 0x1D69 JUMP JUMPDEST DUP3 DUP2 SUB PUSH1 0x20 DUP5 ADD MSTORE PUSH2 0x241F DUP2 DUP6 PUSH2 0x1D69 JUMP JUMPDEST SWAP6 SWAP5 POP POP POP POP POP JUMP JUMPDEST DUP2 DUP2 SUB DUP2 DUP2 GT ISZERO PUSH2 0x22E9 JUMPI PUSH2 0x22E9 PUSH2 0x22C2 JUMP INVALID SSTORE PUSH15 0x617574686F72697A65642061636365 PUSH20 0x7320617474656D707400000000003FC8DE32D0FF 0x27 PUSH8 0xD320C8C52FD3AB1A 0x29 0xDD 0xF9 BASEFEE 0x4B 0x23 JUMPI PC GASLIMIT 0xD5 TIMESTAMP CALLDATASIZE SWAP12 0xDF LOG3 PUSH32 0xA2646970667358221220A48F79AAE767D20E9DD38E7C7E76DF23035A12784FF9 TLOAD 0xDB 0x2C SWAP9 GAS CHAINID 0x2C BLOCKHASH DUP15 SLT PUSH5 0x736F6C6343 STOP ADDMOD BYTE STOP CALLER LOG2 PUSH5 0x6970667358 0x22 SLT KECCAK256 0xE4 PUSH26 0xE7C684FCD5455C43272B866F8636CA48B00CE3CE8C160D56B62F 0xE8 0xE SAR PUSH2 0x6473 PUSH16 0x6C634300081A00330000000000000000 "
		},
		"gasEstimates": {
			"creation": {
				"codeDepositCost": "2430000",
				"executionCost": "infinite",
				"totalCost": "infinite"
			},
			"external": {
				"deployAccessControlContract(address,address,string)": "infinite",
				"judgeContract()": "2368",
				"owner()": "2339",
				"registerContract()": "2369",
				"renounceOwnership()": "infinite",
				"roleBasedAccessControl()": "2325",
				"transferOwnership(address)": "28395"
			}
		},
		"methodIdentifiers": {
			"deployAccessControlContract(address,address,string)": "89d4e103",
			"judgeContract()": "d6b683fc",
			"owner()": "8da5cb5b",
			"registerContract()": "7feffff3",
			"renounceOwnership()": "715018a6",
			"roleBasedAccessControl()": "0c317f06",
			"transferOwnership(address)": "f2fde38b"
		}
	},
	"abi": [
		{
			"inputs": [
				{
					"internalType": "address",
					"name": "initialAdmin",
					"type": "address"
				},
				{
					"internalType": "address",
					"name": "_roleBasedAccessControl",
					"type": "address"
				},
				{
					"internalType": "address",
					"name": "_registerContract",
					"type": "address"
				},
				{
					"internalType": "address",
					"name": "_judgeContract",
					"type": "address"
				}
			],
			"stateMutability": "nonpayable",
			"type": "constructor"
		},
		{
			"inputs": [
				{
					"internalType": "address",
					"name": "owner",
					"type": "address"
				}
			],
			"name": "OwnableInvalidOwner",
			"type": "error"
		},
		{
			"inputs": [
				{
					"internalType": "address",
					"name": "account",
					"type": "address"
				}
			],
			"name": "OwnableUnauthorizedAccount",
			"type": "error"
		},
		{
			"anonymous": false,
			"inputs": [
				{
					"indexed": false,
					"internalType": "address",
					"name": "accAddress",
					"type": "address"
				},
				{
					"indexed": false,
					"internalType": "address",
					"name": "owner",
					"type": "address"
				}
			],
			"name": "ACCDeployed",
			"type": "event"
		},
		{
			"anonymous": false,
			"inputs": [
				{
					"indexed": true,
					"internalType": "address",
					"name": "previousOwner",
					"type": "address"
				},
				{
					"indexed": true,
					"internalType": "address",
					"name": "newOwner",
					"type": "address"
				}
			],
			"name": "OwnershipTransferred",
			"type": "event"
		},
		{
			"inputs": [
				{
					"internalType": "address",
					"name": "objectAddress",
					"type": "address"
				},
				{
					"internalType": "address",
					"name": "subjectAddress",
					"type": "address"
				},
				{
					"internalType": "string",
					"name": "accType",
					"type": "string"
				}
			],
			"name": "deployAccessControlContract",
			"outputs": [
				{
					"internalType": "address",
					"name": "",
					"type": "address"
				}
			],
			"stateMutability": "nonpayable",
			"type": "function"
		},
		{
			"inputs": [],
			"name": "judgeContract",
			"outputs": [
				{
					"internalType": "contract JudgeContract",
					"name": "",
					"type": "address"
				}
			],
			"stateMutability": "view",
			"type": "function"
		},
		{
			"inputs": [],
			"name": "owner",
			"outputs": [
				{
					"internalType": "address",
					"name": "",
					"type": "address"
				}
			],
			"stateMutability": "view",
			"type": "function"
		},
		{
			"inputs": [],
			"name": "registerContract",
			"outputs": [
				{
					"internalType": "contract RegisterContract",
					"name": "",
					"type": "address"
				}
			],
			"stateMutability": "view",
			"type": "function"
		},
		{
			"inputs": [],
			"name": "renounceOwnership",
			"outputs": [],
			"stateMutability": "nonpayable",
			"type": "function"
		},
		{
			"inputs": [],
			"name": "roleBasedAccessControl",
			"outputs": [
				{
					"internalType": "contract RoleBasedAccessControl",
					"name": "",
					"type": "address"
				}
			],
			"stateMutability": "view",
			"type": "function"
		},
		{
			"inputs": [
				{
					"internalType": "address",
					"name": "newOwner",
					"type": "address"
				}
			],
			"name": "transferOwnership",
			"outputs": [],
			"stateMutability": "nonpayable",
			"type": "function"
		}
	]
}