{
	"data": {
		"bytecode": {
			"linkReferences": {},
			"object": "60806040526033600455348015610014575f80fd5b506040516179363803806179368339818101604052810190610036919061029f565b805f73ffffffffffffffffffffffffffffffffffffffff168173ffffffffffffffffffffffffffffffffffffffff16036100a7575f6040517f1e4fbdf700000000000000000000000000000000000000000000000000000000815260040161009e9190610312565b60405180910390fd5b6100b68161018060201b60201c565b508360015f6101000a81548173ffffffffffffffffffffffffffffffffffffffff021916908373ffffffffffffffffffffffffffffffffffffffff1602179055508260025f6101000a81548173ffffffffffffffffffffffffffffffffffffffff021916908373ffffffffffffffffffffffffffffffffffffffff1602179055508160035f6101000a81548173ffffffffffffffffffffffffffffffffffffffff021916908373ffffffffffffffffffffffffffffffffffffffff1602179055505050505061032b565b5f805f9054906101000a900473ffffffffffffffffffffffffffffffffffffffff169050815f806101000a81548173ffffffffffffffffffffffffffffffffffffffff021916908373ffffffffffffffffffffffffffffffffffffffff1602179055508173ffffffffffffffffffffffffffffffffffffffff168173ffffffffffffffffffffffffffffffffffffffff167f8be0079c531659141344cd1fd0a4f28419497f9722a3daafe3b4186f6b6457e060405160405180910390a35050565b5f80fd5b5f73ffffffffffffffffffffffffffffffffffffffff82169050919050565b5f61026e82610245565b9050919050565b61027e81610264565b8114610288575f80fd5b50565b5f8151905061029981610275565b92915050565b5f805f80608085870312156102b7576102b6610241565b5b5f6102c48782880161028b565b94505060206102d58782880161028b565b93505060406102e68782880161028b565b92505060606102f78782880161028b565b91505092959194509250565b61030c81610264565b82525050565b5f6020820190506103255f830184610303565b92915050565b6175fe806103385f395ff3fe608060405234801561000f575f80fd5b5060043610610140575f3560e01c8063715018a6116100b6578063a39610a01161007a578063a39610a0146102f4578063ab2850da14610310578063b3b4c20a14610340578063d3e894831461035c578063d6b683fc14610390578063f2fde38b146103ae57610140565b8063715018a61461025b5780637feffff3146102655780638ca91a9a146102835780638da5cb5b146102ba5780638eee05be146102d857610140565b80634fa76ec9116101085780634fa76ec9146101c057806355668260146101de578063557ed1ba146101fa5780636293902f1461021957806362f2788a146102235780636391b4881461023f57610140565b80630c317f06146101445780630d9f7ed414610162578063235fd7e21461017e57806337930faf1461019a5780633c2b363a146101a4575b5f80fd5b61014c6103ca565b60405161015991906159ce565b60405180910390f35b61017c60048036038101906101779190615b8a565b6103ef565b005b61019860048036038101906101939190615c55565b610559565b005b6101a261064b565b005b6101be60048036038101906101b99190615cb5565b610eed565b005b6101c8611508565b6040516101d59190615d02565b60405180910390f35b6101f860048036038101906101f39190615d1b565b61150e565b005b610202611e21565b604051610210929190615da0565b60405180910390f35b610221611ed9565b005b61023d60048036038101906102389190615e02565b6126cc565b005b61025960048036038101906102549190615e2d565b613029565b005b610263613163565b005b61026d613176565b60405161027a9190615f05565b60405180910390f35b61029d60048036038101906102989190615c55565b61319b565b6040516102b1989796959493929190615f8d565b60405180910390f35b6102c2613333565b6040516102cf9190616017565b60405180910390f35b6102f260048036038101906102ed9190616030565b61335a565b005b61030e60048036038101906103099190615e02565b613f14565b005b61032a6004803603810190610325919061606e565b61493a565b60405161033791906160ac565b60405180910390f35b61035a60048036038101906103559190616030565b614964565b005b61037660048036038101906103719190615c55565b61538f565b604051610387959493929190616138565b60405180910390f35b61039861556e565b6040516103a591906161be565b60405180910390f35b6103c860048036038101906103c39190615e02565b615593565b005b60015f9054906101000a900473ffffffffffffffffffffffffffffffffffffffff1681565b6103f7615617565b600580549050851061043e576040517f08c379a000000000000000000000000000000000000000000000000000000000815260040161043590616221565b60405180910390fd5b6040518060a0016040528085600481111561045c5761045b6160c5565b5b81526020018481526020018381526020018281526020015f8152506005868154811061048b5761048a61623f565b5b905f5260205f2090600502015f820151815f015f6101000a81548160ff021916908360048111156104bf576104be6160c5565b5b021790555060208201518160010190816104d9919061645d565b5060408201518160020190816104ef919061645d565b506060820151816003019081610505919061645d565b50608082015181600401559050507f4a878bb267cedaa636258d749db7a5ac8f0cc2338419d6b0429443d8a11d5470858585858560405161054a95949392919061652c565b60405180910390a15050505050565b610561615617565b60058054905081106105a8576040517f08c379a000000000000000000000000000000000000000000000000000000000815260040161059f90616221565b60405180910390fd5b600581815481106105bc576105bb61623f565b5b905f5260205f2090600502015f8082015f6101000a81549060ff0219169055600182015f6105ea91906158fc565b600282015f6105f991906158fc565b600382015f61060891906158fc565b600482015f905550507f433ab09ab993382af577c4a70f77dcc7cf149b5b52eb40d19b869664bfb5496d816040516106409190615d02565b60405180910390a150565b5f60025f9054906101000a900473ffffffffffffffffffffffffffffffffffffffff1673ffffffffffffffffffffffffffffffffffffffff16630e104278336040518263ffffffff1660e01b81526004016106a69190616017565b602060405180830381865afa1580156106c1573d5f803e3d5ffd5b505050506040513d601f19601f820116820180604052508101906106e591906165a6565b9050804211610729576040517f08c379a000000000000000000000000000000000000000000000000000000000815260040161072090616641565b60405180910390fd5b6040518060400160405280601281526020017f4c6f63616c5265736f757263655461626c6500000000000000000000000000008152506040518060400160405280600481526020017f76696577000000000000000000000000000000000000000000000000000000008152505f805b600680549050811015610929573373ffffffffffffffffffffffffffffffffffffffff16600682815481106107d0576107cf61623f565b5b905f5260205f2090600602016004015f9054906101000a900473ffffffffffffffffffffffffffffffffffffffff1673ffffffffffffffffffffffffffffffffffffffff1614801561084f5750600681815481106108315761083061623f565b5b905f5260205f20906006020160040160159054906101000a900460ff165b1561091c578380519060200120600682815481106108705761086f61623f565b5b905f5260205f20906006020160010160405161088c91906166fb565b60405180910390201480156108de57508280519060200120600682815481106108b8576108b761623f565b5b905f5260205f2090600602016002016040516108d491906166fb565b6040518091039020145b1561091b57600681815481106108f7576108f661623f565b5b905f5260205f20906006020160040160159054906101000a900460ff169150610929565b5b8080600101915050610798565b5080610c13576040518060400160405280600681526020017f64656c657465000000000000000000000000000000000000000000000000000081525080519060200120828051906020012014806109c2575081805190602001206040518060400160405280600481526020017f656469740000000000000000000000000000000000000000000000000000000081525080519060200120145b15610ac7575f805f60025f9054906101000a900473ffffffffffffffffffffffffffffffffffffffff1673ffffffffffffffffffffffffffffffffffffffff1663c4df01ce336040518263ffffffff1660e01b8152600401610a24919061675b565b5f604051808303815f875af1158015610a3f573d5f803e3d5ffd5b505050506040513d5f823e3d601f19601f82011682018060405250810190610a6791906167f5565b9250925092503373ffffffffffffffffffffffffffffffffffffffff167f3fc8de32d0ff2767d320c8c52fd3ab1a29ddf9484b23575845d542369bdfa37f848484604051610ab793929190616861565b60405180910390a2505050610c0e565b6040518060400160405280600481526020017f766965770000000000000000000000000000000000000000000000000000000081525080519060200120828051906020012003610c0d575f805f60025f9054906101000a900473ffffffffffffffffffffffffffffffffffffffff1673ffffffffffffffffffffffffffffffffffffffff1663c4df01ce336040518263ffffffff1660e01b8152600401610b6e91906168e7565b5f604051808303815f875af1158015610b89573d5f803e3d5ffd5b505050506040513d5f823e3d601f19601f82011682018060405250810190610bb191906167f5565b9250925092503373ffffffffffffffffffffffffffffffffffffffff167f3fc8de32d0ff2767d320c8c52fd3ab1a29ddf9484b23575845d542369bdfa37f848484604051610c0193929190616861565b60405180910390a25050505b5b610ee7565b5f8060025f9054906101000a900473ffffffffffffffffffffffffffffffffffffffff1673ffffffffffffffffffffffffffffffffffffffff16631e349d1c336040518263ffffffff1660e01b8152600401610c6f9190616017565b5f604051808303815f875af1158015610c8a573d5f803e3d5ffd5b505050506040513d5f823e3d601f19601f82011682018060405250810190610cb29190616913565b915091503373ffffffffffffffffffffffffffffffffffffffff167f99160c89fdccb67e1961cf554a10fffb3dbbb7b2cd44a817f2aac33deb57d9d78383604051610cfe92919061696d565b60405180910390a25f60015f9054906101000a900473ffffffffffffffffffffffffffffffffffffffff1673ffffffffffffffffffffffffffffffffffffffff16632ada2596336040518263ffffffff1660e01b8152600401610d619190616017565b5f60405180830381865afa158015610d7b573d5f803e3d5ffd5b505050506040513d5f823e3d601f19601f82011682018060405250810190610da39190616abc565b90505f60015f9054906101000a900473ffffffffffffffffffffffffffffffffffffffff1673ffffffffffffffffffffffffffffffffffffffff16631119299983604001516040518263ffffffff1660e01b8152600401610e049190616b03565b5f60405180830381865afa158015610e1e573d5f803e3d5ffd5b505050506040513d5f823e3d601f19601f82011682018060405250810190610e469190616c05565b90503373ffffffffffffffffffffffffffffffffffffffff167f83d90dfabb9dd5929f37bedd596ec8b76fec40556dcf87a93c891c43ecbc35a2604051610e8c90616ce0565b60405180910390a23373ffffffffffffffffffffffffffffffffffffffff167f407c4ef04235409d41af032d283e6adfceff36c0f951614adfad3fd31879959a82604051610eda9190616ed5565b60405180910390a2505050505b50505050565b60015f9054906101000a900473ffffffffffffffffffffffffffffffffffffffff1673ffffffffffffffffffffffffffffffffffffffff16636925da903360026040518363ffffffff1660e01b8152600401610f4a929190616ef5565b5f6040518083038186803b158015610f60575f80fd5b505afa158015610f72573d5f803e3d5ffd5b505050505f60025f9054906101000a900473ffffffffffffffffffffffffffffffffffffffff1673ffffffffffffffffffffffffffffffffffffffff16630e104278336040518263ffffffff1660e01b8152600401610fd19190616017565b602060405180830381865afa158015610fec573d5f803e3d5ffd5b505050506040513d601f19601f8201168201806040525081019061101091906165a6565b9050804211611054576040517f08c379a000000000000000000000000000000000000000000000000000000000815260040161104b90616641565b60405180910390fd5b600680549050831061109b576040517f08c379a000000000000000000000000000000000000000000000000000000000815260040161109290616f66565b60405180910390fd5b5f600684815481106110b0576110af61623f565b5b905f5260205f2090600602019050806004015f9054906101000a900473ffffffffffffffffffffffffffffffffffffffff1673ffffffffffffffffffffffffffffffffffffffff163373ffffffffffffffffffffffffffffffffffffffff160361114f576040517f08c379a000000000000000000000000000000000000000000000000000000000815260040161114690616ff4565b60405180910390fd5b8060040160149054906101000a900460ff1615801561124c575060048081111561117c5761117b6160c5565b5b60015f9054906101000a900473ffffffffffffffffffffffffffffffffffffffff1673ffffffffffffffffffffffffffffffffffffffff166344276733836004015f9054906101000a900473ffffffffffffffffffffffffffffffffffffffff166040518263ffffffff1660e01b81526004016111f99190616017565b602060405180830381865afa158015611214573d5f803e3d5ffd5b505050506040513d601f19601f820116820180604052508101906112389190617012565b600481111561124a576112496160c5565b5b145b15611380575f60015f9054906101000a900473ffffffffffffffffffffffffffffffffffffffff1673ffffffffffffffffffffffffffffffffffffffff16637e7a06e6836004015f9054906101000a900473ffffffffffffffffffffffffffffffffffffffff166040518263ffffffff1660e01b81526004016112cf9190616017565b602060405180830381865afa1580156112ea573d5f803e3d5ffd5b505050506040513d601f19601f8201168201806040525081019061130e919061703d565b90503373ffffffffffffffffffffffffffffffffffffffff168173ffffffffffffffffffffffffffffffffffffffff161461137e576040517f08c379a0000000000000000000000000000000000000000000000000000000008152600401611375906170fe565b60405180910390fd5b505b8280156113e3575060075f8581526020019081526020015f205f3373ffffffffffffffffffffffffffffffffffffffff1673ffffffffffffffffffffffffffffffffffffffff1681526020019081526020015f205f9054906101000a900460ff16155b1561150257806003015f8154809291906113fc90617149565b9190505550600160075f8681526020019081526020015f205f3373ffffffffffffffffffffffffffffffffffffffff1673ffffffffffffffffffffffffffffffffffffffff1681526020019081526020015f205f6101000a81548160ff02191690831515021790555080600501548160030154106115015760018160040160156101000a81548160ff021916908315150217905550806004015f9054906101000a900473ffffffffffffffffffffffffffffffffffffffff1673ffffffffffffffffffffffffffffffffffffffff167f83d90dfabb9dd5929f37bedd596ec8b76fec40556dcf87a93c891c43ecbc35a26040516114f890617224565b60405180910390a25b5b50505050565b60045481565b5f60025f9054906101000a900473ffffffffffffffffffffffffffffffffffffffff1673ffffffffffffffffffffffffffffffffffffffff16630e104278336040518263ffffffff1660e01b81526004016115699190616017565b602060405180830381865afa158015611584573d5f803e3d5ffd5b505050506040513d601f19601f820116820180604052508101906115a891906165a6565b90508042116115ec576040517f08c379a00000000000000000000000000000000000000000000000000000000081526004016115e390616641565b60405180910390fd5b5f60015f9054906101000a900473ffffffffffffffffffffffffffffffffffffffff1673ffffffffffffffffffffffffffffffffffffffff166344276733336040518263ffffffff1660e01b81526004016116479190616017565b602060405180830381865afa158015611662573d5f803e3d5ffd5b505050506040513d601f19601f820116820180604052508101906116869190617012565b90505f61169485858461569e565b905080611981576040518060400160405280600481526020017f6564697400000000000000000000000000000000000000000000000000000000815250805190602001208480519060200120148061172e57506040518060400160405280600681526020017f64656c6574650000000000000000000000000000000000000000000000000000815250805190602001208480519060200120145b15611833575f805f60025f9054906101000a900473ffffffffffffffffffffffffffffffffffffffff1673ffffffffffffffffffffffffffffffffffffffff1663c4df01ce336040518263ffffffff1660e01b8152600401611790919061675b565b5f604051808303815f875af11580156117ab573d5f803e3d5ffd5b505050506040513d5f823e3d601f19601f820116820180604052508101906117d391906167f5565b9250925092503373ffffffffffffffffffffffffffffffffffffffff167f3fc8de32d0ff2767d320c8c52fd3ab1a29ddf9484b23575845d542369bdfa37f84848460405161182393929190616861565b60405180910390a250505061197a565b6040518060400160405280600481526020017f766965770000000000000000000000000000000000000000000000000000000081525080519060200120848051906020012003611979575f805f60025f9054906101000a900473ffffffffffffffffffffffffffffffffffffffff1673ffffffffffffffffffffffffffffffffffffffff1663c4df01ce336040518263ffffffff1660e01b81526004016118da91906168e7565b5f604051808303815f875af11580156118f5573d5f803e3d5ffd5b505050506040513d5f823e3d601f19601f8201168201806040525081019061191d91906167f5565b9250925092503373ffffffffffffffffffffffffffffffffffffffff167f3fc8de32d0ff2767d320c8c52fd3ab1a29ddf9484b23575845d542369bdfa37f84848460405161196d93929190616861565b60405180910390a25050505b5b5050611e1c565b5f6040518060400160405280601381526020017f476c6f62616c5265736f757263655461626c65000000000000000000000000008152508051906020012086805190602001201490505f811580156119fd5750600260048111156119e8576119e76160c5565b5b8460048111156119fb576119fa6160c5565b5b145b90505f8215611b50575f60015f9054906101000a900473ffffffffffffffffffffffffffffffffffffffff1673ffffffffffffffffffffffffffffffffffffffff16637575bb426040518163ffffffff1660e01b81526004015f60405180830381865afa158015611a70573d5f803e3d5ffd5b505050506040513d5f823e3d601f19601f82011682018060405250810190611a989190616c05565b5190505f8114611b465760026004811115611ab657611ab56160c5565b5b866004811115611ac957611ac86160c5565b5b03611b24575f600454600183611adf9190617255565b611ae99190617288565b9050606481611af891906172f6565b92505f606482611b089190617326565b1115611b1e57600183611b1b9190617356565b92505b50611b41565b606460045482611b349190617288565b611b3e91906172f6565b91505b611b4a565b5f91505b50611b55565b600190505b5f600680549050905060066040518061010001604052808381526020018b81526020018a815260200185611b89575f611b8c565b60015b60ff1681526020013373ffffffffffffffffffffffffffffffffffffffff1681526020018615158152602001851515815260200184815250908060018154018082558091505060019003905f5260205f2090600602015f909190919091505f820151815f01556020820151816001019081611c07919061645d565b506040820151816002019081611c1d919061645d565b50606082015181600301556080820151816004015f6101000a81548173ffffffffffffffffffffffffffffffffffffffff021916908373ffffffffffffffffffffffffffffffffffffffff16021790555060a08201518160040160146101000a81548160ff02191690831515021790555060c08201518160040160156101000a81548160ff02191690831515021790555060e0820151816005015550505f8060025f9054906101000a900473ffffffffffffffffffffffffffffffffffffffff1673ffffffffffffffffffffffffffffffffffffffff16631e349d1c336040518263ffffffff1660e01b8152600401611d169190616017565b5f604051808303815f875af1158015611d31573d5f803e3d5ffd5b505050506040513d5f823e3d601f19601f82011682018060405250810190611d599190616913565b915091503373ffffffffffffffffffffffffffffffffffffffff167f99160c89fdccb67e1961cf554a10fffb3dbbb7b2cd44a817f2aac33deb57d9d78383604051611da592919061696d565b60405180910390a23073ffffffffffffffffffffffffffffffffffffffff163373ffffffffffffffffffffffffffffffffffffffff16847fccb40be31330cd8cdf0ab9448dce3cc578cc50fa1511b2bf5bdfd9ac2c0ac2028e604051611e0b9190616b03565b60405180910390a450505050505050505b505050565b5f805f60025f9054906101000a900473ffffffffffffffffffffffffffffffffffffffff1673ffffffffffffffffffffffffffffffffffffffff16630e104278336040518263ffffffff1660e01b8152600401611e7e9190616017565b602060405180830381865afa158015611e99573d5f803e3d5ffd5b505050506040513d601f19601f82011682018060405250810190611ebd91906165a6565b90505f81421015611ecd57600190505b81819350935050509091565b5f60025f9054906101000a900473ffffffffffffffffffffffffffffffffffffffff1673ffffffffffffffffffffffffffffffffffffffff16630e104278336040518263ffffffff1660e01b8152600401611f349190616017565b602060405180830381865afa158015611f4f573d5f803e3d5ffd5b505050506040513d601f19601f82011682018060405250810190611f7391906165a6565b9050804211611fb7576040517f08c379a0000000000000000000000000000000000000000000000000000000008152600401611fae90616641565b60405180910390fd5b6040518060400160405280601381526020017f476c6f62616c5265736f757263655461626c65000000000000000000000000008152506040518060400160405280600481526020017f76696577000000000000000000000000000000000000000000000000000000008152505f805b6006805490508110156121b7573373ffffffffffffffffffffffffffffffffffffffff166006828154811061205e5761205d61623f565b5b905f5260205f2090600602016004015f9054906101000a900473ffffffffffffffffffffffffffffffffffffffff1673ffffffffffffffffffffffffffffffffffffffff161480156120dd5750600681815481106120bf576120be61623f565b5b905f5260205f20906006020160040160159054906101000a900460ff165b156121aa578380519060200120600682815481106120fe576120fd61623f565b5b905f5260205f20906006020160010160405161211a91906166fb565b604051809103902014801561216c57508280519060200120600682815481106121465761214561623f565b5b905f5260205f20906006020160020160405161216291906166fb565b6040518091039020145b156121a957600681815481106121855761218461623f565b5b905f5260205f20906006020160040160159054906101000a900460ff1691506121b7565b5b8080600101915050612026565b50806124a1576040518060400160405280600681526020017f64656c65746500000000000000000000000000000000000000000000000000008152508051906020012082805190602001201480612250575081805190602001206040518060400160405280600481526020017f656469740000000000000000000000000000000000000000000000000000000081525080519060200120145b15612355575f805f60025f9054906101000a900473ffffffffffffffffffffffffffffffffffffffff1673ffffffffffffffffffffffffffffffffffffffff1663c4df01ce336040518263ffffffff1660e01b81526004016122b2919061675b565b5f604051808303815f875af11580156122cd573d5f803e3d5ffd5b505050506040513d5f823e3d601f19601f820116820180604052508101906122f591906167f5565b9250925092503373ffffffffffffffffffffffffffffffffffffffff167f3fc8de32d0ff2767d320c8c52fd3ab1a29ddf9484b23575845d542369bdfa37f84848460405161234593929190616861565b60405180910390a250505061249c565b6040518060400160405280600481526020017f76696577000000000000000000000000000000000000000000000000000000008152508051906020012082805190602001200361249b575f805f60025f9054906101000a900473ffffffffffffffffffffffffffffffffffffffff1673ffffffffffffffffffffffffffffffffffffffff1663c4df01ce336040518263ffffffff1660e01b81526004016123fc91906168e7565b5f604051808303815f875af1158015612417573d5f803e3d5ffd5b505050506040513d5f823e3d601f19601f8201168201806040525081019061243f91906167f5565b9250925092503373ffffffffffffffffffffffffffffffffffffffff167f3fc8de32d0ff2767d320c8c52fd3ab1a29ddf9484b23575845d542369bdfa37f84848460405161248f93929190616861565b60405180910390a25050505b5b6126c6565b5f8060025f9054906101000a900473ffffffffffffffffffffffffffffffffffffffff1673ffffffffffffffffffffffffffffffffffffffff16631e349d1c336040518263ffffffff1660e01b81526004016124fd9190616017565b5f604051808303815f875af1158015612518573d5f803e3d5ffd5b505050506040513d5f823e3d601f19601f820116820180604052508101906125409190616913565b915091503373ffffffffffffffffffffffffffffffffffffffff167f99160c89fdccb67e1961cf554a10fffb3dbbb7b2cd44a817f2aac33deb57d9d7838360405161258c92919061696d565b60405180910390a25f60015f9054906101000a900473ffffffffffffffffffffffffffffffffffffffff1673ffffffffffffffffffffffffffffffffffffffff16637575bb426040518163ffffffff1660e01b81526004015f60405180830381865afa1580156125fe573d5f803e3d5ffd5b505050506040513d5f823e3d601f19601f820116820180604052508101906126269190616c05565b90503373ffffffffffffffffffffffffffffffffffffffff167f83d90dfabb9dd5929f37bedd596ec8b76fec40556dcf87a93c891c43ecbc35a260405161266c90616ce0565b60405180910390a23373ffffffffffffffffffffffffffffffffffffffff167ff143951aaf024293781c4d1530b6c0dadd2e4221c98833db9e7788aa65fd3519826040516126ba9190616ed5565b60405180910390a25050505b50505050565b5f60025f9054906101000a900473ffffffffffffffffffffffffffffffffffffffff1673ffffffffffffffffffffffffffffffffffffffff16630e104278336040518263ffffffff1660e01b81526004016127279190616017565b602060405180830381865afa158015612742573d5f803e3d5ffd5b505050506040513d601f19601f8201168201806040525081019061276691906165a6565b90508042116127aa576040517f08c379a00000000000000000000000000000000000000000000000000000000081526004016127a190616641565b60405180910390fd5b6040518060400160405280601381526020017f476c6f62616c5265736f757263655461626c65000000000000000000000000008152506040518060400160405280600681526020017f64656c65746500000000000000000000000000000000000000000000000000008152505f805b6006805490508110156129aa573373ffffffffffffffffffffffffffffffffffffffff16600682815481106128515761285061623f565b5b905f5260205f2090600602016004015f9054906101000a900473ffffffffffffffffffffffffffffffffffffffff1673ffffffffffffffffffffffffffffffffffffffff161480156128d05750600681815481106128b2576128b161623f565b5b905f5260205f20906006020160040160159054906101000a900460ff165b1561299d578380519060200120600682815481106128f1576128f061623f565b5b905f5260205f20906006020160010160405161290d91906166fb565b604051809103902014801561295f57508280519060200120600682815481106129395761293861623f565b5b905f5260205f20906006020160020160405161295591906166fb565b6040518091039020145b1561299c57600681815481106129785761297761623f565b5b905f5260205f20906006020160040160159054906101000a900460ff1691506129aa565b5b8080600101915050612819565b5080612c94576040518060400160405280600681526020017f64656c65746500000000000000000000000000000000000000000000000000008152508051906020012082805190602001201480612a43575081805190602001206040518060400160405280600481526020017f656469740000000000000000000000000000000000000000000000000000000081525080519060200120145b15612b48575f805f60025f9054906101000a900473ffffffffffffffffffffffffffffffffffffffff1673ffffffffffffffffffffffffffffffffffffffff1663c4df01ce336040518263ffffffff1660e01b8152600401612aa5919061675b565b5f604051808303815f875af1158015612ac0573d5f803e3d5ffd5b505050506040513d5f823e3d601f19601f82011682018060405250810190612ae891906167f5565b9250925092503373ffffffffffffffffffffffffffffffffffffffff167f3fc8de32d0ff2767d320c8c52fd3ab1a29ddf9484b23575845d542369bdfa37f848484604051612b3893929190616861565b60405180910390a2505050612c8f565b6040518060400160405280600481526020017f766965770000000000000000000000000000000000000000000000000000000081525080519060200120828051906020012003612c8e575f805f60025f9054906101000a900473ffffffffffffffffffffffffffffffffffffffff1673ffffffffffffffffffffffffffffffffffffffff1663c4df01ce336040518263ffffffff1660e01b8152600401612bef91906168e7565b5f604051808303815f875af1158015612c0a573d5f803e3d5ffd5b505050506040513d5f823e3d601f19601f82011682018060405250810190612c3291906167f5565b9250925092503373ffffffffffffffffffffffffffffffffffffffff167f3fc8de32d0ff2767d320c8c52fd3ab1a29ddf9484b23575845d542369bdfa37f848484604051612c8293929190616861565b60405180910390a25050505b5b613022565b5f8060025f9054906101000a900473ffffffffffffffffffffffffffffffffffffffff1673ffffffffffffffffffffffffffffffffffffffff16631e349d1c336040518263ffffffff1660e01b8152600401612cf09190616017565b5f604051808303815f875af1158015612d0b573d5f803e3d5ffd5b505050506040513d5f823e3d601f19601f82011682018060405250810190612d339190616913565b915091503373ffffffffffffffffffffffffffffffffffffffff167f99160c89fdccb67e1961cf554a10fffb3dbbb7b2cd44a817f2aac33deb57d9d78383604051612d7f92919061696d565b60405180910390a260026004811115612d9b57612d9a6160c5565b5b60015f9054906101000a900473ffffffffffffffffffffffffffffffffffffffff1673ffffffffffffffffffffffffffffffffffffffff166344276733896040518263ffffffff1660e01b8152600401612df59190616017565b602060405180830381865afa158015612e10573d5f803e3d5ffd5b505050506040513d601f19601f82011682018060405250810190612e349190617012565b6004811115612e4657612e456160c5565b5b14612f4b575f805f60025f9054906101000a900473ffffffffffffffffffffffffffffffffffffffff1673ffffffffffffffffffffffffffffffffffffffff1663c4df01ce336040518263ffffffff1660e01b8152600401612ea891906173d3565b5f604051808303815f875af1158015612ec3573d5f803e3d5ffd5b505050506040513d5f823e3d601f19601f82011682018060405250810190612eeb91906167f5565b9250925092503373ffffffffffffffffffffffffffffffffffffffff167f3fc8de32d0ff2767d320c8c52fd3ab1a29ddf9484b23575845d542369bdfa37f848484604051612f3b93929190616861565b60405180910390a250505061301f565b60015f9054906101000a900473ffffffffffffffffffffffffffffffffffffffff1673ffffffffffffffffffffffffffffffffffffffff166380e52e3f886040518263ffffffff1660e01b8152600401612fa59190616017565b5f604051808303815f87803b158015612fbc575f80fd5b505af1158015612fce573d5f803e3d5ffd5b505050503373ffffffffffffffffffffffffffffffffffffffff167f83d90dfabb9dd5929f37bedd596ec8b76fec40556dcf87a93c891c43ecbc35a260405161301690617449565b60405180910390a25b50505b5050505050565b613031615617565b60056040518060a00160405280866004811115613051576130506160c5565b5b81526020018581526020018481526020018381526020015f815250908060018154018082558091505060019003905f5260205f2090600502015f909190919091505f820151815f015f6101000a81548160ff021916908360048111156130ba576130b96160c5565b5b021790555060208201518160010190816130d4919061645d565b5060408201518160020190816130ea919061645d565b506060820151816003019081613100919061645d565b506080820151816004015550507fb90b27d205996a6ce127fc2f1bfbad17d5d8270e9a27ebb35037f2d67853b6cf60016005805490506131409190617255565b8585858560405161315595949392919061652c565b60405180910390a150505050565b61316b615617565b6131745f615834565b565b60035f9054906101000a900473ffffffffffffffffffffffffffffffffffffffff1681565b600681815481106131aa575f80fd5b905f5260205f2090600602015f91509050805f0154908060010180546131cf90616299565b80601f01602080910402602001604051908101604052809291908181526020018280546131fb90616299565b80156132465780601f1061321d57610100808354040283529160200191613246565b820191905f5260205f20905b81548152906001019060200180831161322957829003601f168201915b50505050509080600201805461325b90616299565b80601f016020809104026020016040519081016040528092919081815260200182805461328790616299565b80156132d25780601f106132a9576101008083540402835291602001916132d2565b820191905f5260205f20905b8154815290600101906020018083116132b557829003601f168201915b505050505090806003015490806004015f9054906101000a900473ffffffffffffffffffffffffffffffffffffffff16908060040160149054906101000a900460ff16908060040160159054906101000a900460ff16908060050154905088565b5f805f9054906101000a900473ffffffffffffffffffffffffffffffffffffffff16905090565b5f60025f9054906101000a900473ffffffffffffffffffffffffffffffffffffffff1673ffffffffffffffffffffffffffffffffffffffff16630e104278336040518263ffffffff1660e01b81526004016133b59190616017565b602060405180830381865afa1580156133d0573d5f803e3d5ffd5b505050506040513d601f19601f820116820180604052508101906133f491906165a6565b9050804211613438576040517f08c379a000000000000000000000000000000000000000000000000000000000815260040161342f90616641565b60405180910390fd5b6040518060400160405280601281526020017f4c6f63616c5265736f757263655461626c6500000000000000000000000000008152506040518060400160405280600481526020017f65646974000000000000000000000000000000000000000000000000000000008152505f805b600680549050811015613638573373ffffffffffffffffffffffffffffffffffffffff16600682815481106134df576134de61623f565b5b905f5260205f2090600602016004015f9054906101000a900473ffffffffffffffffffffffffffffffffffffffff1673ffffffffffffffffffffffffffffffffffffffff1614801561355e5750600681815481106135405761353f61623f565b5b905f5260205f20906006020160040160159054906101000a900460ff165b1561362b5783805190602001206006828154811061357f5761357e61623f565b5b905f5260205f20906006020160010160405161359b91906166fb565b60405180910390201480156135ed57508280519060200120600682815481106135c7576135c661623f565b5b905f5260205f2090600602016002016040516135e391906166fb565b6040518091039020145b1561362a57600681815481106136065761360561623f565b5b905f5260205f20906006020160040160159054906101000a900460ff169150613638565b5b80806001019150506134a7565b5080613922576040518060400160405280600681526020017f64656c657465000000000000000000000000000000000000000000000000000081525080519060200120828051906020012014806136d1575081805190602001206040518060400160405280600481526020017f656469740000000000000000000000000000000000000000000000000000000081525080519060200120145b156137d6575f805f60025f9054906101000a900473ffffffffffffffffffffffffffffffffffffffff1673ffffffffffffffffffffffffffffffffffffffff1663c4df01ce336040518263ffffffff1660e01b8152600401613733919061675b565b5f604051808303815f875af115801561374e573d5f803e3d5ffd5b505050506040513d5f823e3d601f19601f8201168201806040525081019061377691906167f5565b9250925092503373ffffffffffffffffffffffffffffffffffffffff167f3fc8de32d0ff2767d320c8c52fd3ab1a29ddf9484b23575845d542369bdfa37f8484846040516137c693929190616861565b60405180910390a250505061391d565b6040518060400160405280600481526020017f76696577000000000000000000000000000000000000000000000000000000008152508051906020012082805190602001200361391c575f805f60025f9054906101000a900473ffffffffffffffffffffffffffffffffffffffff1673ffffffffffffffffffffffffffffffffffffffff1663c4df01ce336040518263ffffffff1660e01b815260040161387d91906168e7565b5f604051808303815f875af1158015613898573d5f803e3d5ffd5b505050506040513d5f823e3d601f19601f820116820180604052508101906138c091906167f5565b9250925092503373ffffffffffffffffffffffffffffffffffffffff167f3fc8de32d0ff2767d320c8c52fd3ab1a29ddf9484b23575845d542369bdfa37f84848460405161391093929190616861565b60405180910390a25050505b5b613f0c565b5f8060025f9054906101000a900473ffffffffffffffffffffffffffffffffffffffff1673ffffffffffffffffffffffffffffffffffffffff16631e349d1c336040518263ffffffff1660e01b815260040161397e9190616017565b5f604051808303815f875af1158015613999573d5f803e3d5ffd5b505050506040513d5f823e3d601f19601f820116820180604052508101906139c19190616913565b915091503373ffffffffffffffffffffffffffffffffffffffff167f99160c89fdccb67e1961cf554a10fffb3dbbb7b2cd44a817f2aac33deb57d9d78383604051613a0d92919061696d565b60405180910390a260036004811115613a2957613a286160c5565b5b60015f9054906101000a900473ffffffffffffffffffffffffffffffffffffffff1673ffffffffffffffffffffffffffffffffffffffff1663442767338a6040518263ffffffff1660e01b8152600401613a839190616017565b602060405180830381865afa158015613a9e573d5f803e3d5ffd5b505050506040513d601f19601f82011682018060405250810190613ac29190617012565b6004811115613ad457613ad36160c5565b5b14158015613b9e5750600480811115613af057613aef6160c5565b5b60015f9054906101000a900473ffffffffffffffffffffffffffffffffffffffff1673ffffffffffffffffffffffffffffffffffffffff1663442767338a6040518263ffffffff1660e01b8152600401613b4a9190616017565b602060405180830381865afa158015613b65573d5f803e3d5ffd5b505050506040513d601f19601f82011682018060405250810190613b899190617012565b6004811115613b9b57613b9a6160c5565b5b14155b80613d2e575060036004811115613bb857613bb76160c5565b5b60015f9054906101000a900473ffffffffffffffffffffffffffffffffffffffff1673ffffffffffffffffffffffffffffffffffffffff166344276733896040518263ffffffff1660e01b8152600401613c129190616017565b602060405180830381865afa158015613c2d573d5f803e3d5ffd5b505050506040513d601f19601f82011682018060405250810190613c519190617012565b6004811115613c6357613c626160c5565b5b14158015613d2d5750600480811115613c7f57613c7e6160c5565b5b60015f9054906101000a900473ffffffffffffffffffffffffffffffffffffffff1673ffffffffffffffffffffffffffffffffffffffff166344276733896040518263ffffffff1660e01b8152600401613cd99190616017565b602060405180830381865afa158015613cf4573d5f803e3d5ffd5b505050506040513d601f19601f82011682018060405250810190613d189190617012565b6004811115613d2a57613d296160c5565b5b14155b5b15613e33575f805f60025f9054906101000a900473ffffffffffffffffffffffffffffffffffffffff1673ffffffffffffffffffffffffffffffffffffffff1663c4df01ce336040518263ffffffff1660e01b8152600401613d9091906173d3565b5f604051808303815f875af1158015613dab573d5f803e3d5ffd5b505050506040513d5f823e3d601f19601f82011682018060405250810190613dd391906167f5565b9250925092503373ffffffffffffffffffffffffffffffffffffffff167f3fc8de32d0ff2767d320c8c52fd3ab1a29ddf9484b23575845d542369bdfa37f848484604051613e2393929190616861565b60405180910390a2505050613f09565b60015f9054906101000a900473ffffffffffffffffffffffffffffffffffffffff1673ffffffffffffffffffffffffffffffffffffffff16636fab480489896040518363ffffffff1660e01b8152600401613e8f92919061747a565b5f604051808303815f87803b158015613ea6575f80fd5b505af1158015613eb8573d5f803e3d5ffd5b505050503373ffffffffffffffffffffffffffffffffffffffff167f83d90dfabb9dd5929f37bedd596ec8b76fec40556dcf87a93c891c43ecbc35a2604051613f0090617535565b60405180910390a25b50505b505050505050565b5f60025f9054906101000a900473ffffffffffffffffffffffffffffffffffffffff1673ffffffffffffffffffffffffffffffffffffffff16630e104278336040518263ffffffff1660e01b8152600401613f6f9190616017565b602060405180830381865afa158015613f8a573d5f803e3d5ffd5b505050506040513d601f19601f82011682018060405250810190613fae91906165a6565b9050804211613ff2576040517f08c379a0000000000000000000000000000000000000000000000000000000008152600401613fe990616641565b60405180910390fd5b6040518060400160405280601281526020017f4c6f63616c5265736f757263655461626c6500000000000000000000000000008152506040518060400160405280600681526020017f64656c65746500000000000000000000000000000000000000000000000000008152505f805b6006805490508110156141f2573373ffffffffffffffffffffffffffffffffffffffff16600682815481106140995761409861623f565b5b905f5260205f2090600602016004015f9054906101000a900473ffffffffffffffffffffffffffffffffffffffff1673ffffffffffffffffffffffffffffffffffffffff161480156141185750600681815481106140fa576140f961623f565b5b905f5260205f20906006020160040160159054906101000a900460ff165b156141e5578380519060200120600682815481106141395761413861623f565b5b905f5260205f20906006020160010160405161415591906166fb565b60405180910390201480156141a757508280519060200120600682815481106141815761418061623f565b5b905f5260205f20906006020160020160405161419d91906166fb565b6040518091039020145b156141e457600681815481106141c0576141bf61623f565b5b905f5260205f20906006020160040160159054906101000a900460ff1691506141f2565b5b8080600101915050614061565b50806144dc576040518060400160405280600681526020017f64656c6574650000000000000000000000000000000000000000000000000000815250805190602001208280519060200120148061428b575081805190602001206040518060400160405280600481526020017f656469740000000000000000000000000000000000000000000000000000000081525080519060200120145b15614390575f805f60025f9054906101000a900473ffffffffffffffffffffffffffffffffffffffff1673ffffffffffffffffffffffffffffffffffffffff1663c4df01ce336040518263ffffffff1660e01b81526004016142ed919061675b565b5f604051808303815f875af1158015614308573d5f803e3d5ffd5b505050506040513d5f823e3d601f19601f8201168201806040525081019061433091906167f5565b9250925092503373ffffffffffffffffffffffffffffffffffffffff167f3fc8de32d0ff2767d320c8c52fd3ab1a29ddf9484b23575845d542369bdfa37f84848460405161438093929190616861565b60405180910390a25050506144d7565b6040518060400160405280600481526020017f7669657700000000000000000000000000000000000000000000000000000000815250805190602001208280519060200120036144d6575f805f60025f9054906101000a900473ffffffffffffffffffffffffffffffffffffffff1673ffffffffffffffffffffffffffffffffffffffff1663c4df01ce336040518263ffffffff1660e01b815260040161443791906168e7565b5f604051808303815f875af1158015614452573d5f803e3d5ffd5b505050506040513d5f823e3d601f19601f8201168201806040525081019061447a91906167f5565b9250925092503373ffffffffffffffffffffffffffffffffffffffff167f3fc8de32d0ff2767d320c8c52fd3ab1a29ddf9484b23575845d542369bdfa37f8484846040516144ca93929190616861565b60405180910390a25050505b5b614933565b5f8060025f9054906101000a900473ffffffffffffffffffffffffffffffffffffffff1673ffffffffffffffffffffffffffffffffffffffff16631e349d1c336040518263ffffffff1660e01b81526004016145389190616017565b5f604051808303815f875af1158015614553573d5f803e3d5ffd5b505050506040513d5f823e3d601f19601f8201168201806040525081019061457b9190616913565b915091503373ffffffffffffffffffffffffffffffffffffffff167f99160c89fdccb67e1961cf554a10fffb3dbbb7b2cd44a817f2aac33deb57d9d783836040516145c792919061696d565b60405180910390a2600360048111156145e3576145e26160c5565b5b60015f9054906101000a900473ffffffffffffffffffffffffffffffffffffffff1673ffffffffffffffffffffffffffffffffffffffff166344276733896040518263ffffffff1660e01b815260040161463d9190616017565b602060405180830381865afa158015614658573d5f803e3d5ffd5b505050506040513d601f19601f8201168201806040525081019061467c9190617012565b600481111561468e5761468d6160c5565b5b14158061475757506004808111156146a9576146a86160c5565b5b60015f9054906101000a900473ffffffffffffffffffffffffffffffffffffffff1673ffffffffffffffffffffffffffffffffffffffff166344276733896040518263ffffffff1660e01b81526004016147039190616017565b602060405180830381865afa15801561471e573d5f803e3d5ffd5b505050506040513d601f19601f820116820180604052508101906147429190617012565b6004811115614754576147536160c5565b5b14155b1561485c575f805f60025f9054906101000a900473ffffffffffffffffffffffffffffffffffffffff1673ffffffffffffffffffffffffffffffffffffffff1663c4df01ce336040518263ffffffff1660e01b81526004016147b991906173d3565b5f604051808303815f875af11580156147d4573d5f803e3d5ffd5b505050506040513d5f823e3d601f19601f820116820180604052508101906147fc91906167f5565b9250925092503373ffffffffffffffffffffffffffffffffffffffff167f3fc8de32d0ff2767d320c8c52fd3ab1a29ddf9484b23575845d542369bdfa37f84848460405161484c93929190616861565b60405180910390a2505050614930565b60015f9054906101000a900473ffffffffffffffffffffffffffffffffffffffff1673ffffffffffffffffffffffffffffffffffffffff166380e52e3f886040518263ffffffff1660e01b81526004016148b69190616017565b5f604051808303815f87803b1580156148cd575f80fd5b505af11580156148df573d5f803e3d5ffd5b505050503373ffffffffffffffffffffffffffffffffffffffff167f83d90dfabb9dd5929f37bedd596ec8b76fec40556dcf87a93c891c43ecbc35a260405161492790617566565b60405180910390a25b50505b5050505050565b6007602052815f5260405f20602052805f5260405f205f915091509054906101000a900460ff1681565b5f60025f9054906101000a900473ffffffffffffffffffffffffffffffffffffffff1673ffffffffffffffffffffffffffffffffffffffff16630e104278336040518263ffffffff1660e01b81526004016149bf9190616017565b602060405180830381865afa1580156149da573d5f803e3d5ffd5b505050506040513d601f19601f820116820180604052508101906149fe91906165a6565b9050804211614a42576040517f08c379a0000000000000000000000000000000000000000000000000000000008152600401614a3990616641565b60405180910390fd5b6040518060400160405280601381526020017f476c6f62616c5265736f757263655461626c65000000000000000000000000008152506040518060400160405280600481526020017f65646974000000000000000000000000000000000000000000000000000000008152505f805b600680549050811015614c42573373ffffffffffffffffffffffffffffffffffffffff1660068281548110614ae957614ae861623f565b5b905f5260205f2090600602016004015f9054906101000a900473ffffffffffffffffffffffffffffffffffffffff1673ffffffffffffffffffffffffffffffffffffffff16148015614b68575060068181548110614b4a57614b4961623f565b5b905f5260205f20906006020160040160159054906101000a900460ff165b15614c3557838051906020012060068281548110614b8957614b8861623f565b5b905f5260205f209060060201600101604051614ba591906166fb565b6040518091039020148015614bf75750828051906020012060068281548110614bd157614bd061623f565b5b905f5260205f209060060201600201604051614bed91906166fb565b6040518091039020145b15614c345760068181548110614c1057614c0f61623f565b5b905f5260205f20906006020160040160159054906101000a900460ff169150614c42565b5b8080600101915050614ab1565b5080614f2c576040518060400160405280600681526020017f64656c65746500000000000000000000000000000000000000000000000000008152508051906020012082805190602001201480614cdb575081805190602001206040518060400160405280600481526020017f656469740000000000000000000000000000000000000000000000000000000081525080519060200120145b15614de0575f805f60025f9054906101000a900473ffffffffffffffffffffffffffffffffffffffff1673ffffffffffffffffffffffffffffffffffffffff1663c4df01ce336040518263ffffffff1660e01b8152600401614d3d919061675b565b5f604051808303815f875af1158015614d58573d5f803e3d5ffd5b505050506040513d5f823e3d601f19601f82011682018060405250810190614d8091906167f5565b9250925092503373ffffffffffffffffffffffffffffffffffffffff167f3fc8de32d0ff2767d320c8c52fd3ab1a29ddf9484b23575845d542369bdfa37f848484604051614dd093929190616861565b60405180910390a2505050614f27565b6040518060400160405280600481526020017f766965770000000000000000000000000000000000000000000000000000000081525080519060200120828051906020012003614f26575f805f60025f9054906101000a900473ffffffffffffffffffffffffffffffffffffffff1673ffffffffffffffffffffffffffffffffffffffff1663c4df01ce336040518263ffffffff1660e01b8152600401614e8791906168e7565b5f604051808303815f875af1158015614ea2573d5f803e3d5ffd5b505050506040513d5f823e3d601f19601f82011682018060405250810190614eca91906167f5565b9250925092503373ffffffffffffffffffffffffffffffffffffffff167f3fc8de32d0ff2767d320c8c52fd3ab1a29ddf9484b23575845d542369bdfa37f848484604051614f1a93929190616861565b60405180910390a25050505b5b615387565b5f8060025f9054906101000a900473ffffffffffffffffffffffffffffffffffffffff1673ffffffffffffffffffffffffffffffffffffffff16631e349d1c336040518263ffffffff1660e01b8152600401614f889190616017565b5f604051808303815f875af1158015614fa3573d5f803e3d5ffd5b505050506040513d5f823e3d601f19601f82011682018060405250810190614fcb9190616913565b915091503373ffffffffffffffffffffffffffffffffffffffff167f99160c89fdccb67e1961cf554a10fffb3dbbb7b2cd44a817f2aac33deb57d9d7838360405161501792919061696d565b60405180910390a260026004811115615033576150326160c5565b5b60015f9054906101000a900473ffffffffffffffffffffffffffffffffffffffff1673ffffffffffffffffffffffffffffffffffffffff1663442767338a6040518263ffffffff1660e01b815260040161508d9190616017565b602060405180830381865afa1580156150a8573d5f803e3d5ffd5b505050506040513d601f19601f820116820180604052508101906150cc9190617012565b60048111156150de576150dd6160c5565b5b141580156151a95750600260048111156150fb576150fa6160c5565b5b60015f9054906101000a900473ffffffffffffffffffffffffffffffffffffffff1673ffffffffffffffffffffffffffffffffffffffff166344276733896040518263ffffffff1660e01b81526004016151559190616017565b602060405180830381865afa158015615170573d5f803e3d5ffd5b505050506040513d601f19601f820116820180604052508101906151949190617012565b60048111156151a6576151a56160c5565b5b14155b156152ae575f805f60025f9054906101000a900473ffffffffffffffffffffffffffffffffffffffff1673ffffffffffffffffffffffffffffffffffffffff1663c4df01ce336040518263ffffffff1660e01b815260040161520b91906173d3565b5f604051808303815f875af1158015615226573d5f803e3d5ffd5b505050506040513d5f823e3d601f19601f8201168201806040525081019061524e91906167f5565b9250925092503373ffffffffffffffffffffffffffffffffffffffff167f3fc8de32d0ff2767d320c8c52fd3ab1a29ddf9484b23575845d542369bdfa37f84848460405161529e93929190616861565b60405180910390a2505050615384565b60015f9054906101000a900473ffffffffffffffffffffffffffffffffffffffff1673ffffffffffffffffffffffffffffffffffffffff16636fab480489896040518363ffffffff1660e01b815260040161530a92919061747a565b5f604051808303815f87803b158015615321575f80fd5b505af1158015615333573d5f803e3d5ffd5b505050503373ffffffffffffffffffffffffffffffffffffffff167f83d90dfabb9dd5929f37bedd596ec8b76fec40556dcf87a93c891c43ecbc35a260405161537b90617597565b60405180910390a25b50505b505050505050565b6005818154811061539e575f80fd5b905f5260205f2090600502015f91509050805f015f9054906101000a900460ff16908060010180546153cf90616299565b80601f01602080910402602001604051908101604052809291908181526020018280546153fb90616299565b80156154465780601f1061541d57610100808354040283529160200191615446565b820191905f5260205f20905b81548152906001019060200180831161542957829003601f168201915b50505050509080600201805461545b90616299565b80601f016020809104026020016040519081016040528092919081815260200182805461548790616299565b80156154d25780601f106154a9576101008083540402835291602001916154d2565b820191905f5260205f20905b8154815290600101906020018083116154b557829003601f168201915b5050505050908060030180546154e790616299565b80601f016020809104026020016040519081016040528092919081815260200182805461551390616299565b801561555e5780601f106155355761010080835404028352916020019161555e565b820191905f5260205f20905b81548152906001019060200180831161554157829003601f168201915b5050505050908060040154905085565b60025f9054906101000a900473ffffffffffffffffffffffffffffffffffffffff1681565b61559b615617565b5f73ffffffffffffffffffffffffffffffffffffffff168173ffffffffffffffffffffffffffffffffffffffff160361560b575f6040517f1e4fbdf70000000000000000000000000000000000000000000000000000000081526004016156029190616017565b60405180910390fd5b61561481615834565b50565b61561f6158f5565b73ffffffffffffffffffffffffffffffffffffffff1661563d613333565b73ffffffffffffffffffffffffffffffffffffffff161461569c576156606158f5565b6040517f118cdaa70000000000000000000000000000000000000000000000000000000081526004016156939190616017565b60405180910390fd5b565b5f805f90505b600580549050811015615828578260048111156156c4576156c36160c5565b5b600582815481106156d8576156d761623f565b5b905f5260205f2090600502015f015f9054906101000a900460ff166004811115615705576157046160c5565b5b14801561574f57508480519060200120600582815481106157295761572861623f565b5b905f5260205f20906005020160010160405161574591906166fb565b6040518091039020145b801561579857508380519060200120600582815481106157725761577161623f565b5b905f5260205f20906005020160020160405161578e91906166fb565b6040518091039020145b1561581b576040518060400160405280600581526020017f616c6c6f7700000000000000000000000000000000000000000000000000000081525080519060200120600582815481106157ee576157ed61623f565b5b905f5260205f20906005020160030160405161580a91906166fb565b60405180910390201491505061582d565b80806001019150506156a4565b505f90505b9392505050565b5f805f9054906101000a900473ffffffffffffffffffffffffffffffffffffffff169050815f806101000a81548173ffffffffffffffffffffffffffffffffffffffff021916908373ffffffffffffffffffffffffffffffffffffffff1602179055508173ffffffffffffffffffffffffffffffffffffffff168173ffffffffffffffffffffffffffffffffffffffff167f8be0079c531659141344cd1fd0a4f28419497f9722a3daafe3b4186f6b6457e060405160405180910390a35050565b5f33905090565b50805461590890616299565b5f825580601f106159195750615936565b601f0160209004905f5260205f20908101906159359190615939565b5b50565b5b80821115615950575f815f90555060010161593a565b5090565b5f73ffffffffffffffffffffffffffffffffffffffff82169050919050565b5f819050919050565b5f61599661599161598c84615954565b615973565b615954565b9050919050565b5f6159a78261597c565b9050919050565b5f6159b88261599d565b9050919050565b6159c8816159ae565b82525050565b5f6020820190506159e15f8301846159bf565b92915050565b5f604051905090565b5f80fd5b5f80fd5b5f819050919050565b615a0a816159f8565b8114615a14575f80fd5b50565b5f81359050615a2581615a01565b92915050565b60058110615a37575f80fd5b50565b5f81359050615a4881615a2b565b92915050565b5f80fd5b5f80fd5b5f601f19601f8301169050919050565b7f4e487b71000000000000000000000000000000000000000000000000000000005f52604160045260245ffd5b615a9c82615a56565b810181811067ffffffffffffffff82111715615abb57615aba615a66565b5b80604052505050565b5f615acd6159e7565b9050615ad98282615a93565b919050565b5f67ffffffffffffffff821115615af857615af7615a66565b5b615b0182615a56565b9050602081019050919050565b828183375f83830152505050565b5f615b2e615b2984615ade565b615ac4565b905082815260208101848484011115615b4a57615b49615a52565b5b615b55848285615b0e565b509392505050565b5f82601f830112615b7157615b70615a4e565b5b8135615b81848260208601615b1c565b91505092915050565b5f805f805f60a08688031215615ba357615ba26159f0565b5b5f615bb088828901615a17565b9550506020615bc188828901615a3a565b945050604086013567ffffffffffffffff811115615be257615be16159f4565b5b615bee88828901615b5d565b935050606086013567ffffffffffffffff811115615c0f57615c0e6159f4565b5b615c1b88828901615b5d565b925050608086013567ffffffffffffffff811115615c3c57615c3b6159f4565b5b615c4888828901615b5d565b9150509295509295909350565b5f60208284031215615c6a57615c696159f0565b5b5f615c7784828501615a17565b91505092915050565b5f8115159050919050565b615c9481615c80565b8114615c9e575f80fd5b50565b5f81359050615caf81615c8b565b92915050565b5f8060408385031215615ccb57615cca6159f0565b5b5f615cd885828601615a17565b9250506020615ce985828601615ca1565b9150509250929050565b615cfc816159f8565b82525050565b5f602082019050615d155f830184615cf3565b92915050565b5f8060408385031215615d3157615d306159f0565b5b5f83013567ffffffffffffffff811115615d4e57615d4d6159f4565b5b615d5a85828601615b5d565b925050602083013567ffffffffffffffff811115615d7b57615d7a6159f4565b5b615d8785828601615b5d565b9150509250929050565b615d9a81615c80565b82525050565b5f604082019050615db35f830185615cf3565b615dc06020830184615d91565b9392505050565b5f615dd182615954565b9050919050565b615de181615dc7565b8114615deb575f80fd5b50565b5f81359050615dfc81615dd8565b92915050565b5f60208284031215615e1757615e166159f0565b5b5f615e2484828501615dee565b91505092915050565b5f805f8060808587031215615e4557615e446159f0565b5b5f615e5287828801615a3a565b945050602085013567ffffffffffffffff811115615e7357615e726159f4565b5b615e7f87828801615b5d565b935050604085013567ffffffffffffffff811115615ea057615e9f6159f4565b5b615eac87828801615b5d565b925050606085013567ffffffffffffffff811115615ecd57615ecc6159f4565b5b615ed987828801615b5d565b91505092959194509250565b5f615eef8261599d565b9050919050565b615eff81615ee5565b82525050565b5f602082019050615f185f830184615ef6565b92915050565b5f81519050919050565b5f82825260208201905092915050565b8281835e5f83830152505050565b5f615f5082615f1e565b615f5a8185615f28565b9350615f6a818560208601615f38565b615f7381615a56565b840191505092915050565b615f8781615dc7565b82525050565b5f61010082019050615fa15f83018b615cf3565b8181036020830152615fb3818a615f46565b90508181036040830152615fc78189615f46565b9050615fd66060830188615cf3565b615fe36080830187615f7e565b615ff060a0830186615d91565b615ffd60c0830185615d91565b61600a60e0830184615cf3565b9998505050505050505050565b5f60208201905061602a5f830184615f7e565b92915050565b5f8060408385031215616046576160456159f0565b5b5f61605385828601615dee565b925050602061606485828601615dee565b9150509250929050565b5f8060408385031215616084576160836159f0565b5b5f61609185828601615a17565b92505060206160a285828601615dee565b9150509250929050565b5f6020820190506160bf5f830184615d91565b92915050565b7f4e487b71000000000000000000000000000000000000000000000000000000005f52602160045260245ffd5b60058110616103576161026160c5565b5b50565b5f819050616113826160f2565b919050565b5f61612282616106565b9050919050565b61613281616118565b82525050565b5f60a08201905061614b5f830188616129565b818103602083015261615d8187615f46565b905081810360408301526161718186615f46565b905081810360608301526161858185615f46565b90506161946080830184615cf3565b9695505050505050565b5f6161a88261599d565b9050919050565b6161b88161619e565b82525050565b5f6020820190506161d15f8301846161af565b92915050565b7f506f6c69637920646f6573206e6f7420657869737400000000000000000000005f82015250565b5f61620b601583615f28565b9150616216826161d7565b602082019050919050565b5f6020820190508181035f830152616238816161ff565b9050919050565b7f4e487b71000000000000000000000000000000000000000000000000000000005f52603260045260245ffd5b7f4e487b71000000000000000000000000000000000000000000000000000000005f52602260045260245ffd5b5f60028204905060018216806162b057607f821691505b6020821081036162c3576162c261626c565b5b50919050565b5f819050815f5260205f209050919050565b5f6020601f8301049050919050565b5f82821b905092915050565b5f600883026163257fffffffffffffffffffffffffffffffffffffffffffffffffffffffffffffffff826162ea565b61632f86836162ea565b95508019841693508086168417925050509392505050565b5f61636161635c616357846159f8565b615973565b6159f8565b9050919050565b5f819050919050565b61637a83616347565b61638e61638682616368565b8484546162f6565b825550505050565b5f90565b6163a2616396565b6163ad818484616371565b505050565b5b818110156163d0576163c55f8261639a565b6001810190506163b3565b5050565b601f821115616415576163e6816162c9565b6163ef846162db565b810160208510156163fe578190505b61641261640a856162db565b8301826163b2565b50505b505050565b5f82821c905092915050565b5f6164355f198460080261641a565b1980831691505092915050565b5f61644d8383616426565b9150826002028217905092915050565b61646682615f1e565b67ffffffffffffffff81111561647f5761647e615a66565b5b6164898254616299565b6164948282856163d4565b5f60209050601f8311600181146164c5575f84156164b3578287015190505b6164bd8582616442565b865550616524565b601f1984166164d3866162c9565b5f5b828110156164fa578489015182556001820191506020850194506020810190506164d5565b868310156165175784890151616513601f891682616426565b8355505b6001600288020188555050505b505050505050565b5f60a08201905061653f5f830188615cf3565b61654c6020830187616129565b818103604083015261655e8186615f46565b905081810360608301526165728185615f46565b905081810360808301526165868184615f46565b90509695505050505050565b5f815190506165a081615a01565b92915050565b5f602082840312156165bb576165ba6159f0565b5b5f6165c884828501616592565b91505092915050565b7f416363657373436f6e74726f6c436f6e74726163743a204d656d6265722069735f8201527f20626c6f636b6564000000000000000000000000000000000000000000000000602082015250565b5f61662b602883615f28565b9150616636826165d1565b604082019050919050565b5f6020820190508181035f8301526166588161661f565b9050919050565b5f81905092915050565b5f819050815f5260205f209050919050565b5f815461668781616299565b616691818661665f565b9450600182165f81146166ab57600181146166c0576166f2565b60ff19831686528115158202860193506166f2565b6166c985616669565b5f5b838110156166ea578154818901526001820191506020810190506166cb565b838801955050505b50505092915050565b5f616706828461667b565b915081905092915050565b7f54616d706572696e6720776974682064617461000000000000000000000000005f82015250565b5f616745601383615f28565b915061675082616711565b602082019050919050565b5f60408201905061676e5f830184615f7e565b818103602083015261677f81616739565b905092915050565b5f61679961679484615ade565b615ac4565b9050828152602081018484840111156167b5576167b4615a52565b5b6167c0848285615f38565b509392505050565b5f82601f8301126167dc576167db615a4e565b5b81516167ec848260208601616787565b91505092915050565b5f805f6060848603121561680c5761680b6159f0565b5b5f61681986828701616592565b935050602084015167ffffffffffffffff81111561683a576168396159f4565b5b616846868287016167c8565b925050604061685786828701616592565b9150509250925092565b5f6060820190506168745f830186615cf3565b81810360208301526168868185615f46565b90506168956040830184615cf3565b949350505050565b7f556e617574686f72697a65642061636365737320617474656d707400000000005f82015250565b5f6168d1601b83615f28565b91506168dc8261689d565b602082019050919050565b5f6040820190506168fa5f830184615f7e565b818103602083015261690b816168c5565b905092915050565b5f8060408385031215616929576169286159f0565b5b5f61693685828601616592565b925050602083015167ffffffffffffffff811115616957576169566159f4565b5b616963858286016167c8565b9150509250929050565b5f6040820190506169805f830185615cf3565b81810360208301526169928184615f46565b90509392505050565b5f80fd5b5f80fd5b5f815190506169b181615dd8565b92915050565b5f815190506169c581615a2b565b92915050565b5f60c082840312156169e0576169df61699b565b5b6169ea60c0615ac4565b90505f6169f9848285016169a3565b5f83015250602082015167ffffffffffffffff811115616a1c57616a1b61699f565b5b616a28848285016167c8565b602083015250604082015167ffffffffffffffff811115616a4c57616a4b61699f565b5b616a58848285016167c8565b604083015250606082015167ffffffffffffffff811115616a7c57616a7b61699f565b5b616a88848285016167c8565b6060830152506080616a9c84828501616592565b60808301525060a0616ab0848285016169b7565b60a08301525092915050565b5f60208284031215616ad157616ad06159f0565b5b5f82015167ffffffffffffffff811115616aee57616aed6159f4565b5b616afa848285016169cb565b91505092915050565b5f6020820190508181035f830152616b1b8184615f46565b905092915050565b5f67ffffffffffffffff821115616b3d57616b3c615a66565b5b602082029050602081019050919050565b5f80fd5b5f616b64616b5f84616b23565b615ac4565b90508083825260208201905060208402830185811115616b8757616b86616b4e565b5b835b81811015616bce57805167ffffffffffffffff811115616bac57616bab615a4e565b5b808601616bb989826169cb565b85526020850194505050602081019050616b89565b5050509392505050565b5f82601f830112616bec57616beb615a4e565b5b8151616bfc848260208601616b52565b91505092915050565b5f60208284031215616c1a57616c196159f0565b5b5f82015167ffffffffffffffff811115616c3757616c366159f4565b5b616c4384828501616bd8565b91505092915050565b7f476c6f62616c5265736f757263655461626c65000000000000000000000000005f82015250565b5f616c80601383615f28565b9150616c8b82616c4c565b602082019050919050565b7f56696577000000000000000000000000000000000000000000000000000000005f82015250565b5f616cca600483615f28565b9150616cd582616c96565b602082019050919050565b5f6040820190508181035f830152616cf781616c74565b90508181036020830152616d0a81616cbe565b9050919050565b5f81519050919050565b5f82825260208201905092915050565b5f819050602082019050919050565b616d4381615dc7565b82525050565b5f82825260208201905092915050565b5f616d6382615f1e565b616d6d8185616d49565b9350616d7d818560208601615f38565b616d8681615a56565b840191505092915050565b616d9a816159f8565b82525050565b616da981616118565b82525050565b5f60c083015f830151616dc45f860182616d3a565b5060208301518482036020860152616ddc8282616d59565b91505060408301518482036040860152616df68282616d59565b91505060608301518482036060860152616e108282616d59565b9150506080830151616e256080860182616d91565b5060a0830151616e3860a0860182616da0565b508091505092915050565b5f616e4e8383616daf565b905092915050565b5f602082019050919050565b5f616e6c82616d11565b616e768185616d1b565b935083602082028501616e8885616d2b565b805f5b85811015616ec35784840389528151616ea48582616e43565b9450616eaf83616e56565b925060208a01995050600181019050616e8b565b50829750879550505050505092915050565b5f6020820190508181035f830152616eed8184616e62565b905092915050565b5f604082019050616f085f830185615f7e565b616f156020830184616129565b9392505050565b7f496e76616c6964207265717565737420494400000000000000000000000000005f82015250565b5f616f50601283615f28565b9150616f5b82616f1c565b602082019050919050565b5f6020820190508181035f830152616f7d81616f44565b9050919050565b7f5072696d6172792067726f757020686561642063616e6e6f7420617070726f765f8201527f65207468656972206f776e207265717565737400000000000000000000000000602082015250565b5f616fde603383615f28565b9150616fe982616f84565b604082019050919050565b5f6020820190508181035f83015261700b81616fd2565b9050919050565b5f60208284031215617027576170266159f0565b5b5f617034848285016169b7565b91505092915050565b5f60208284031215617052576170516159f0565b5b5f61705f848285016169a3565b91505092915050565b7f5072696d61727920686561642068616e646c696e6720746865207265717565735f8201527f74206d75737420626520746865207265717565737465722773207072696d617260208201527f7920686561640000000000000000000000000000000000000000000000000000604082015250565b5f6170e8604683615f28565b91506170f382617068565b606082019050919050565b5f6020820190508181035f830152617115816170dc565b9050919050565b7f4e487b71000000000000000000000000000000000000000000000000000000005f52601160045260245ffd5b5f617153826159f8565b91507fffffffffffffffffffffffffffffffffffffffffffffffffffffffffffffffff82036171855761718461711c565b5b600182019050919050565b7f41636365737320526571756573740000000000000000000000000000000000005f82015250565b5f6171c4600e83615f28565b91506171cf82617190565b602082019050919050565b7f48616e646c6500000000000000000000000000000000000000000000000000005f82015250565b5f61720e600683615f28565b9150617219826171da565b602082019050919050565b5f6040820190508181035f83015261723b816171b8565b9050818103602083015261724e81617202565b9050919050565b5f61725f826159f8565b915061726a836159f8565b92508282039050818111156172825761728161711c565b5b92915050565b5f617292826159f8565b915061729d836159f8565b92508282026172ab816159f8565b915082820484148315176172c2576172c161711c565b5b5092915050565b7f4e487b71000000000000000000000000000000000000000000000000000000005f52601260045260245ffd5b5f617300826159f8565b915061730b836159f8565b92508261731b5761731a6172c9565b5b828204905092915050565b5f617330826159f8565b915061733b836159f8565b92508261734b5761734a6172c9565b5b828206905092915050565b5f617360826159f8565b915061736b836159f8565b92508282019050808211156173835761738261711c565b5b92915050565b7f50726976696c65676520657363616c6174696f6e0000000000000000000000005f82015250565b5f6173bd601483615f28565b91506173c882617389565b602082019050919050565b5f6040820190506173e65f830184615f7e565b81810360208301526173f7816173b1565b905092915050565b7f44656c65746500000000000000000000000000000000000000000000000000005f82015250565b5f617433600683615f28565b915061743e826173ff565b602082019050919050565b5f6040820190508181035f83015261746081616c74565b9050818103602083015261747381617427565b9050919050565b5f60408201905061748d5f830185615f7e565b61749a6020830184615f7e565b9392505050565b7f4c6f63616c5265736f757263655461626c6500000000000000000000000000005f82015250565b5f6174d5601283615f28565b91506174e0826174a1565b602082019050919050565b7f45646974000000000000000000000000000000000000000000000000000000005f82015250565b5f61751f600483615f28565b915061752a826174eb565b602082019050919050565b5f6040820190508181035f83015261754c816174c9565b9050818103602083015261755f81617513565b9050919050565b5f6040820190508181035f83015261757d816174c9565b9050818103602083015261759081617427565b9050919050565b5f6040820190508181035f8301526175ae81616c74565b905081810360208301526175c181617513565b905091905056fea26469706673582212204856a36ceafc44ec77a42fa9d4b7587e4f180ba5e87a81d7d81b9ee140e1957364736f6c634300081a0033",
			"opcodes": "PUSH1 0x80 PUSH1 0x40 MSTORE PUSH1 0x33 PUSH1 0x4 SSTORE CALLVALUE DUP1 ISZERO PUSH2 0x14 JUMPI PUSH0 DUP1 REVERT JUMPDEST POP PUSH1 0x40 MLOAD PUSH2 0x7936 CODESIZE SUB DUP1 PUSH2 0x7936 DUP4 CODECOPY DUP2 DUP2 ADD PUSH1 0x40 MSTORE DUP2 ADD SWAP1 PUSH2 0x36 SWAP2 SWAP1 PUSH2 0x29F JUMP JUMPDEST DUP1 PUSH0 PUSH20 0xFFFFFFFFFFFFFFFFFFFFFFFFFFFFFFFFFFFFFFFF AND DUP2 PUSH20 0xFFFFFFFFFFFFFFFFFFFFFFFFFFFFFFFFFFFFFFFF AND SUB PUSH2 0xA7 JUMPI PUSH0 PUSH1 0x40 MLOAD PUSH32 0x1E4FBDF700000000000000000000000000000000000000000000000000000000 DUP2 MSTORE PUSH1 0x4 ADD PUSH2 0x9E SWAP2 SWAP1 PUSH2 0x312 JUMP JUMPDEST PUSH1 0x40 MLOAD DUP1 SWAP2 SUB SWAP1 REVERT JUMPDEST PUSH2 0xB6 DUP2 PUSH2 0x180 PUSH1 0x20 SHL PUSH1 0x20 SHR JUMP JUMPDEST POP DUP4 PUSH1 0x1 PUSH0 PUSH2 0x100 EXP DUP2 SLOAD DUP2 PUSH20 0xFFFFFFFFFFFFFFFFFFFFFFFFFFFFFFFFFFFFFFFF MUL NOT AND SWAP1 DUP4 PUSH20 0xFFFFFFFFFFFFFFFFFFFFFFFFFFFFFFFFFFFFFFFF AND MUL OR SWAP1 SSTORE POP DUP3 PUSH1 0x2 PUSH0 PUSH2 0x100 EXP DUP2 SLOAD DUP2 PUSH20 0xFFFFFFFFFFFFFFFFFFFFFFFFFFFFFFFFFFFFFFFF MUL NOT AND SWAP1 DUP4 PUSH20 0xFFFFFFFFFFFFFFFFFFFFFFFFFFFFFFFFFFFFFFFF AND MUL OR SWAP1 SSTORE POP DUP2 PUSH1 0x3 PUSH0 PUSH2 0x100 EXP DUP2 SLOAD DUP2 PUSH20 0xFFFFFFFFFFFFFFFFFFFFFFFFFFFFFFFFFFFFFFFF MUL NOT AND SWAP1 DUP4 PUSH20 0xFFFFFFFFFFFFFFFFFFFFFFFFFFFFFFFFFFFFFFFF AND MUL OR SWAP1 SSTORE POP POP POP POP POP PUSH2 0x32B JUMP JUMPDEST PUSH0 DUP1 PUSH0 SWAP1 SLOAD SWAP1 PUSH2 0x100 EXP SWAP1 DIV PUSH20 0xFFFFFFFFFFFFFFFFFFFFFFFFFFFFFFFFFFFFFFFF AND SWAP1 POP DUP2 PUSH0 DUP1 PUSH2 0x100 EXP DUP2 SLOAD DUP2 PUSH20 0xFFFFFFFFFFFFFFFFFFFFFFFFFFFFFFFFFFFFFFFF MUL NOT AND SWAP1 DUP4 PUSH20 0xFFFFFFFFFFFFFFFFFFFFFFFFFFFFFFFFFFFFFFFF AND MUL OR SWAP1 SSTORE POP DUP2 PUSH20 0xFFFFFFFFFFFFFFFFFFFFFFFFFFFFFFFFFFFFFFFF AND DUP2 PUSH20 0xFFFFFFFFFFFFFFFFFFFFFFFFFFFFFFFFFFFFFFFF AND PUSH32 0x8BE0079C531659141344CD1FD0A4F28419497F9722A3DAAFE3B4186F6B6457E0 PUSH1 0x40 MLOAD PUSH1 0x40 MLOAD DUP1 SWAP2 SUB SWAP1 LOG3 POP POP JUMP JUMPDEST PUSH0 DUP1 REVERT JUMPDEST PUSH0 PUSH20 0xFFFFFFFFFFFFFFFFFFFFFFFFFFFFFFFFFFFFFFFF DUP3 AND SWAP1 POP SWAP2 SWAP1 POP JUMP JUMPDEST PUSH0 PUSH2 0x26E DUP3 PUSH2 0x245 JUMP JUMPDEST SWAP1 POP SWAP2 SWAP1 POP JUMP JUMPDEST PUSH2 0x27E DUP2 PUSH2 0x264 JUMP JUMPDEST DUP2 EQ PUSH2 0x288 JUMPI PUSH0 DUP1 REVERT JUMPDEST POP JUMP JUMPDEST PUSH0 DUP2 MLOAD SWAP1 POP PUSH2 0x299 DUP2 PUSH2 0x275 JUMP JUMPDEST SWAP3 SWAP2 POP POP JUMP JUMPDEST PUSH0 DUP1 PUSH0 DUP1 PUSH1 0x80 DUP6 DUP8 SUB SLT ISZERO PUSH2 0x2B7 JUMPI PUSH2 0x2B6 PUSH2 0x241 JUMP JUMPDEST JUMPDEST PUSH0 PUSH2 0x2C4 DUP8 DUP3 DUP9 ADD PUSH2 0x28B JUMP JUMPDEST SWAP5 POP POP PUSH1 0x20 PUSH2 0x2D5 DUP8 DUP3 DUP9 ADD PUSH2 0x28B JUMP JUMPDEST SWAP4 POP POP PUSH1 0x40 PUSH2 0x2E6 DUP8 DUP3 DUP9 ADD PUSH2 0x28B JUMP JUMPDEST SWAP3 POP POP PUSH1 0x60 PUSH2 0x2F7 DUP8 DUP3 DUP9 ADD PUSH2 0x28B JUMP JUMPDEST SWAP2 POP POP SWAP3 SWAP6 SWAP2 SWAP5 POP SWAP3 POP JUMP JUMPDEST PUSH2 0x30C DUP2 PUSH2 0x264 JUMP JUMPDEST DUP3 MSTORE POP POP JUMP JUMPDEST PUSH0 PUSH1 0x20 DUP3 ADD SWAP1 POP PUSH2 0x325 PUSH0 DUP4 ADD DUP5 PUSH2 0x303 JUMP JUMPDEST SWAP3 SWAP2 POP POP JUMP JUMPDEST PUSH2 0x75FE DUP1 PUSH2 0x338 PUSH0 CODECOPY PUSH0 RETURN INVALID PUSH1 0x80 PUSH1 0x40 MSTORE CALLVALUE DUP1 ISZERO PUSH2 0xF JUMPI PUSH0 DUP1 REVERT JUMPDEST POP PUSH1 0x4 CALLDATASIZE LT PUSH2 0x140 JUMPI PUSH0 CALLDATALOAD PUSH1 0xE0 SHR DUP1 PUSH4 0x715018A6 GT PUSH2 0xB6 JUMPI DUP1 PUSH4 0xA39610A0 GT PUSH2 0x7A JUMPI DUP1 PUSH4 0xA39610A0 EQ PUSH2 0x2F4 JUMPI DUP1 PUSH4 0xAB2850DA EQ PUSH2 0x310 JUMPI DUP1 PUSH4 0xB3B4C20A EQ PUSH2 0x340 JUMPI DUP1 PUSH4 0xD3E89483 EQ PUSH2 0x35C JUMPI DUP1 PUSH4 0xD6B683FC EQ PUSH2 0x390 JUMPI DUP1 PUSH4 0xF2FDE38B EQ PUSH2 0x3AE JUMPI PUSH2 0x140 JUMP JUMPDEST DUP1 PUSH4 0x715018A6 EQ PUSH2 0x25B JUMPI DUP1 PUSH4 0x7FEFFFF3 EQ PUSH2 0x265 JUMPI DUP1 PUSH4 0x8CA91A9A EQ PUSH2 0x283 JUMPI DUP1 PUSH4 0x8DA5CB5B EQ PUSH2 0x2BA JUMPI DUP1 PUSH4 0x8EEE05BE EQ PUSH2 0x2D8 JUMPI PUSH2 0x140 JUMP JUMPDEST DUP1 PUSH4 0x4FA76EC9 GT PUSH2 0x108 JUMPI DUP1 PUSH4 0x4FA76EC9 EQ PUSH2 0x1C0 JUMPI DUP1 PUSH4 0x55668260 EQ PUSH2 0x1DE JUMPI DUP1 PUSH4 0x557ED1BA EQ PUSH2 0x1FA JUMPI DUP1 PUSH4 0x6293902F EQ PUSH2 0x219 JUMPI DUP1 PUSH4 0x62F2788A EQ PUSH2 0x223 JUMPI DUP1 PUSH4 0x6391B488 EQ PUSH2 0x23F JUMPI PUSH2 0x140 JUMP JUMPDEST DUP1 PUSH4 0xC317F06 EQ PUSH2 0x144 JUMPI DUP1 PUSH4 0xD9F7ED4 EQ PUSH2 0x162 JUMPI DUP1 PUSH4 0x235FD7E2 EQ PUSH2 0x17E JUMPI DUP1 PUSH4 0x37930FAF EQ PUSH2 0x19A JUMPI DUP1 PUSH4 0x3C2B363A EQ PUSH2 0x1A4 JUMPI JUMPDEST PUSH0 DUP1 REVERT JUMPDEST PUSH2 0x14C PUSH2 0x3CA JUMP JUMPDEST PUSH1 0x40 MLOAD PUSH2 0x159 SWAP2 SWAP1 PUSH2 0x59CE JUMP JUMPDEST PUSH1 0x40 MLOAD DUP1 SWAP2 SUB SWAP1 RETURN JUMPDEST PUSH2 0x17C PUSH1 0x4 DUP1 CALLDATASIZE SUB DUP2 ADD SWAP1 PUSH2 0x177 SWAP2 SWAP1 PUSH2 0x5B8A JUMP JUMPDEST PUSH2 0x3EF JUMP JUMPDEST STOP JUMPDEST PUSH2 0x198 PUSH1 0x4 DUP1 CALLDATASIZE SUB DUP2 ADD SWAP1 PUSH2 0x193 SWAP2 SWAP1 PUSH2 0x5C55 JUMP JUMPDEST PUSH2 0x559 JUMP JUMPDEST STOP JUMPDEST PUSH2 0x1A2 PUSH2 0x64B JUMP JUMPDEST STOP JUMPDEST PUSH2 0x1BE PUSH1 0x4 DUP1 CALLDATASIZE SUB DUP2 ADD SWAP1 PUSH2 0x1B9 SWAP2 SWAP1 PUSH2 0x5CB5 JUMP JUMPDEST PUSH2 0xEED JUMP JUMPDEST STOP JUMPDEST PUSH2 0x1C8 PUSH2 0x1508 JUMP JUMPDEST PUSH1 0x40 MLOAD PUSH2 0x1D5 SWAP2 SWAP1 PUSH2 0x5D02 JUMP JUMPDEST PUSH1 0x40 MLOAD DUP1 SWAP2 SUB SWAP1 RETURN JUMPDEST PUSH2 0x1F8 PUSH1 0x4 DUP1 CALLDATASIZE SUB DUP2 ADD SWAP1 PUSH2 0x1F3 SWAP2 SWAP1 PUSH2 0x5D1B JUMP JUMPDEST PUSH2 0x150E JUMP JUMPDEST STOP JUMPDEST PUSH2 0x202 PUSH2 0x1E21 JUMP JUMPDEST PUSH1 0x40 MLOAD PUSH2 0x210 SWAP3 SWAP2 SWAP1 PUSH2 0x5DA0 JUMP JUMPDEST PUSH1 0x40 MLOAD DUP1 SWAP2 SUB SWAP1 RETURN JUMPDEST PUSH2 0x221 PUSH2 0x1ED9 JUMP JUMPDEST STOP JUMPDEST PUSH2 0x23D PUSH1 0x4 DUP1 CALLDATASIZE SUB DUP2 ADD SWAP1 PUSH2 0x238 SWAP2 SWAP1 PUSH2 0x5E02 JUMP JUMPDEST PUSH2 0x26CC JUMP JUMPDEST STOP JUMPDEST PUSH2 0x259 PUSH1 0x4 DUP1 CALLDATASIZE SUB DUP2 ADD SWAP1 PUSH2 0x254 SWAP2 SWAP1 PUSH2 0x5E2D JUMP JUMPDEST PUSH2 0x3029 JUMP JUMPDEST STOP JUMPDEST PUSH2 0x263 PUSH2 0x3163 JUMP JUMPDEST STOP JUMPDEST PUSH2 0x26D PUSH2 0x3176 JUMP JUMPDEST PUSH1 0x40 MLOAD PUSH2 0x27A SWAP2 SWAP1 PUSH2 0x5F05 JUMP JUMPDEST PUSH1 0x40 MLOAD DUP1 SWAP2 SUB SWAP1 RETURN JUMPDEST PUSH2 0x29D PUSH1 0x4 DUP1 CALLDATASIZE SUB DUP2 ADD SWAP1 PUSH2 0x298 SWAP2 SWAP1 PUSH2 0x5C55 JUMP JUMPDEST PUSH2 0x319B JUMP JUMPDEST PUSH1 0x40 MLOAD PUSH2 0x2B1 SWAP9 SWAP8 SWAP7 SWAP6 SWAP5 SWAP4 SWAP3 SWAP2 SWAP1 PUSH2 0x5F8D JUMP JUMPDEST PUSH1 0x40 MLOAD DUP1 SWAP2 SUB SWAP1 RETURN JUMPDEST PUSH2 0x2C2 PUSH2 0x3333 JUMP JUMPDEST PUSH1 0x40 MLOAD PUSH2 0x2CF SWAP2 SWAP1 PUSH2 0x6017 JUMP JUMPDEST PUSH1 0x40 MLOAD DUP1 SWAP2 SUB SWAP1 RETURN JUMPDEST PUSH2 0x2F2 PUSH1 0x4 DUP1 CALLDATASIZE SUB DUP2 ADD SWAP1 PUSH2 0x2ED SWAP2 SWAP1 PUSH2 0x6030 JUMP JUMPDEST PUSH2 0x335A JUMP JUMPDEST STOP JUMPDEST PUSH2 0x30E PUSH1 0x4 DUP1 CALLDATASIZE SUB DUP2 ADD SWAP1 PUSH2 0x309 SWAP2 SWAP1 PUSH2 0x5E02 JUMP JUMPDEST PUSH2 0x3F14 JUMP JUMPDEST STOP JUMPDEST PUSH2 0x32A PUSH1 0x4 DUP1 CALLDATASIZE SUB DUP2 ADD SWAP1 PUSH2 0x325 SWAP2 SWAP1 PUSH2 0x606E JUMP JUMPDEST PUSH2 0x493A JUMP JUMPDEST PUSH1 0x40 MLOAD PUSH2 0x337 SWAP2 SWAP1 PUSH2 0x60AC JUMP JUMPDEST PUSH1 0x40 MLOAD DUP1 SWAP2 SUB SWAP1 RETURN JUMPDEST PUSH2 0x35A PUSH1 0x4 DUP1 CALLDATASIZE SUB DUP2 ADD SWAP1 PUSH2 0x355 SWAP2 SWAP1 PUSH2 0x6030 JUMP JUMPDEST PUSH2 0x4964 JUMP JUMPDEST STOP JUMPDEST PUSH2 0x376 PUSH1 0x4 DUP1 CALLDATASIZE SUB DUP2 ADD SWAP1 PUSH2 0x371 SWAP2 SWAP1 PUSH2 0x5C55 JUMP JUMPDEST PUSH2 0x538F JUMP JUMPDEST PUSH1 0x40 MLOAD PUSH2 0x387 SWAP6 SWAP5 SWAP4 SWAP3 SWAP2 SWAP1 PUSH2 0x6138 JUMP JUMPDEST PUSH1 0x40 MLOAD DUP1 SWAP2 SUB SWAP1 RETURN JUMPDEST PUSH2 0x398 PUSH2 0x556E JUMP JUMPDEST PUSH1 0x40 MLOAD PUSH2 0x3A5 SWAP2 SWAP1 PUSH2 0x61BE JUMP JUMPDEST PUSH1 0x40 MLOAD DUP1 SWAP2 SUB SWAP1 RETURN JUMPDEST PUSH2 0x3C8 PUSH1 0x4 DUP1 CALLDATASIZE SUB DUP2 ADD SWAP1 PUSH2 0x3C3 SWAP2 SWAP1 PUSH2 0x5E02 JUMP JUMPDEST PUSH2 0x5593 JUMP JUMPDEST STOP JUMPDEST PUSH1 0x1 PUSH0 SWAP1 SLOAD SWAP1 PUSH2 0x100 EXP SWAP1 DIV PUSH20 0xFFFFFFFFFFFFFFFFFFFFFFFFFFFFFFFFFFFFFFFF AND DUP2 JUMP JUMPDEST PUSH2 0x3F7 PUSH2 0x5617 JUMP JUMPDEST PUSH1 0x5 DUP1 SLOAD SWAP1 POP DUP6 LT PUSH2 0x43E JUMPI PUSH1 0x40 MLOAD PUSH32 0x8C379A000000000000000000000000000000000000000000000000000000000 DUP2 MSTORE PUSH1 0x4 ADD PUSH2 0x435 SWAP1 PUSH2 0x6221 JUMP JUMPDEST PUSH1 0x40 MLOAD DUP1 SWAP2 SUB SWAP1 REVERT JUMPDEST PUSH1 0x40 MLOAD DUP1 PUSH1 0xA0 ADD PUSH1 0x40 MSTORE DUP1 DUP6 PUSH1 0x4 DUP2 GT ISZERO PUSH2 0x45C JUMPI PUSH2 0x45B PUSH2 0x60C5 JUMP JUMPDEST JUMPDEST DUP2 MSTORE PUSH1 0x20 ADD DUP5 DUP2 MSTORE PUSH1 0x20 ADD DUP4 DUP2 MSTORE PUSH1 0x20 ADD DUP3 DUP2 MSTORE PUSH1 0x20 ADD PUSH0 DUP2 MSTORE POP PUSH1 0x5 DUP7 DUP2 SLOAD DUP2 LT PUSH2 0x48B JUMPI PUSH2 0x48A PUSH2 0x623F JUMP JUMPDEST JUMPDEST SWAP1 PUSH0 MSTORE PUSH1 0x20 PUSH0 KECCAK256 SWAP1 PUSH1 0x5 MUL ADD PUSH0 DUP3 ADD MLOAD DUP2 PUSH0 ADD PUSH0 PUSH2 0x100 EXP DUP2 SLOAD DUP2 PUSH1 0xFF MUL NOT AND SWAP1 DUP4 PUSH1 0x4 DUP2 GT ISZERO PUSH2 0x4BF JUMPI PUSH2 0x4BE PUSH2 0x60C5 JUMP JUMPDEST JUMPDEST MUL OR SWAP1 SSTORE POP PUSH1 0x20 DUP3 ADD MLOAD DUP2 PUSH1 0x1 ADD SWAP1 DUP2 PUSH2 0x4D9 SWAP2 SWAP1 PUSH2 0x645D JUMP JUMPDEST POP PUSH1 0x40 DUP3 ADD MLOAD DUP2 PUSH1 0x2 ADD SWAP1 DUP2 PUSH2 0x4EF SWAP2 SWAP1 PUSH2 0x645D JUMP JUMPDEST POP PUSH1 0x60 DUP3 ADD MLOAD DUP2 PUSH1 0x3 ADD SWAP1 DUP2 PUSH2 0x505 SWAP2 SWAP1 PUSH2 0x645D JUMP JUMPDEST POP PUSH1 0x80 DUP3 ADD MLOAD DUP2 PUSH1 0x4 ADD SSTORE SWAP1 POP POP PUSH32 0x4A878BB267CEDAA636258D749DB7A5AC8F0CC2338419D6B0429443D8A11D5470 DUP6 DUP6 DUP6 DUP6 DUP6 PUSH1 0x40 MLOAD PUSH2 0x54A SWAP6 SWAP5 SWAP4 SWAP3 SWAP2 SWAP1 PUSH2 0x652C JUMP JUMPDEST PUSH1 0x40 MLOAD DUP1 SWAP2 SUB SWAP1 LOG1 POP POP POP POP POP JUMP JUMPDEST PUSH2 0x561 PUSH2 0x5617 JUMP JUMPDEST PUSH1 0x5 DUP1 SLOAD SWAP1 POP DUP2 LT PUSH2 0x5A8 JUMPI PUSH1 0x40 MLOAD PUSH32 0x8C379A000000000000000000000000000000000000000000000000000000000 DUP2 MSTORE PUSH1 0x4 ADD PUSH2 0x59F SWAP1 PUSH2 0x6221 JUMP JUMPDEST PUSH1 0x40 MLOAD DUP1 SWAP2 SUB SWAP1 REVERT JUMPDEST PUSH1 0x5 DUP2 DUP2 SLOAD DUP2 LT PUSH2 0x5BC JUMPI PUSH2 0x5BB PUSH2 0x623F JUMP JUMPDEST JUMPDEST SWAP1 PUSH0 MSTORE PUSH1 0x20 PUSH0 KECCAK256 SWAP1 PUSH1 0x5 MUL ADD PUSH0 DUP1 DUP3 ADD PUSH0 PUSH2 0x100 EXP DUP2 SLOAD SWAP1 PUSH1 0xFF MUL NOT AND SWAP1 SSTORE PUSH1 0x1 DUP3 ADD PUSH0 PUSH2 0x5EA SWAP2 SWAP1 PUSH2 0x58FC JUMP JUMPDEST PUSH1 0x2 DUP3 ADD PUSH0 PUSH2 0x5F9 SWAP2 SWAP1 PUSH2 0x58FC JUMP JUMPDEST PUSH1 0x3 DUP3 ADD PUSH0 PUSH2 0x608 SWAP2 SWAP1 PUSH2 0x58FC JUMP JUMPDEST PUSH1 0x4 DUP3 ADD PUSH0 SWAP1 SSTORE POP POP PUSH32 0x433AB09AB993382AF577C4A70F77DCC7CF149B5B52EB40D19B869664BFB5496D DUP2 PUSH1 0x40 MLOAD PUSH2 0x640 SWAP2 SWAP1 PUSH2 0x5D02 JUMP JUMPDEST PUSH1 0x40 MLOAD DUP1 SWAP2 SUB SWAP1 LOG1 POP JUMP JUMPDEST PUSH0 PUSH1 0x2 PUSH0 SWAP1 SLOAD SWAP1 PUSH2 0x100 EXP SWAP1 DIV PUSH20 0xFFFFFFFFFFFFFFFFFFFFFFFFFFFFFFFFFFFFFFFF AND PUSH20 0xFFFFFFFFFFFFFFFFFFFFFFFFFFFFFFFFFFFFFFFF AND PUSH4 0xE104278 CALLER PUSH1 0x40 MLOAD DUP3 PUSH4 0xFFFFFFFF AND PUSH1 0xE0 SHL DUP2 MSTORE PUSH1 0x4 ADD PUSH2 0x6A6 SWAP2 SWAP1 PUSH2 0x6017 JUMP JUMPDEST PUSH1 0x20 PUSH1 0x40 MLOAD DUP1 DUP4 SUB DUP2 DUP7 GAS STATICCALL ISZERO DUP1 ISZERO PUSH2 0x6C1 JUMPI RETURNDATASIZE PUSH0 DUP1 RETURNDATACOPY RETURNDATASIZE PUSH0 REVERT JUMPDEST POP POP POP POP PUSH1 0x40 MLOAD RETURNDATASIZE PUSH1 0x1F NOT PUSH1 0x1F DUP3 ADD AND DUP3 ADD DUP1 PUSH1 0x40 MSTORE POP DUP2 ADD SWAP1 PUSH2 0x6E5 SWAP2 SWAP1 PUSH2 0x65A6 JUMP JUMPDEST SWAP1 POP DUP1 TIMESTAMP GT PUSH2 0x729 JUMPI PUSH1 0x40 MLOAD PUSH32 0x8C379A000000000000000000000000000000000000000000000000000000000 DUP2 MSTORE PUSH1 0x4 ADD PUSH2 0x720 SWAP1 PUSH2 0x6641 JUMP JUMPDEST PUSH1 0x40 MLOAD DUP1 SWAP2 SUB SWAP1 REVERT JUMPDEST PUSH1 0x40 MLOAD DUP1 PUSH1 0x40 ADD PUSH1 0x40 MSTORE DUP1 PUSH1 0x12 DUP2 MSTORE PUSH1 0x20 ADD PUSH32 0x4C6F63616C5265736F757263655461626C650000000000000000000000000000 DUP2 MSTORE POP PUSH1 0x40 MLOAD DUP1 PUSH1 0x40 ADD PUSH1 0x40 MSTORE DUP1 PUSH1 0x4 DUP2 MSTORE PUSH1 0x20 ADD PUSH32 0x7669657700000000000000000000000000000000000000000000000000000000 DUP2 MSTORE POP PUSH0 DUP1 JUMPDEST PUSH1 0x6 DUP1 SLOAD SWAP1 POP DUP2 LT ISZERO PUSH2 0x929 JUMPI CALLER PUSH20 0xFFFFFFFFFFFFFFFFFFFFFFFFFFFFFFFFFFFFFFFF AND PUSH1 0x6 DUP3 DUP2 SLOAD DUP2 LT PUSH2 0x7D0 JUMPI PUSH2 0x7CF PUSH2 0x623F JUMP JUMPDEST JUMPDEST SWAP1 PUSH0 MSTORE PUSH1 0x20 PUSH0 KECCAK256 SWAP1 PUSH1 0x6 MUL ADD PUSH1 0x4 ADD PUSH0 SWAP1 SLOAD SWAP1 PUSH2 0x100 EXP SWAP1 DIV PUSH20 0xFFFFFFFFFFFFFFFFFFFFFFFFFFFFFFFFFFFFFFFF AND PUSH20 0xFFFFFFFFFFFFFFFFFFFFFFFFFFFFFFFFFFFFFFFF AND EQ DUP1 ISZERO PUSH2 0x84F JUMPI POP PUSH1 0x6 DUP2 DUP2 SLOAD DUP2 LT PUSH2 0x831 JUMPI PUSH2 0x830 PUSH2 0x623F JUMP JUMPDEST JUMPDEST SWAP1 PUSH0 MSTORE PUSH1 0x20 PUSH0 KECCAK256 SWAP1 PUSH1 0x6 MUL ADD PUSH1 0x4 ADD PUSH1 0x15 SWAP1 SLOAD SWAP1 PUSH2 0x100 EXP SWAP1 DIV PUSH1 0xFF AND JUMPDEST ISZERO PUSH2 0x91C JUMPI DUP4 DUP1 MLOAD SWAP1 PUSH1 0x20 ADD KECCAK256 PUSH1 0x6 DUP3 DUP2 SLOAD DUP2 LT PUSH2 0x870 JUMPI PUSH2 0x86F PUSH2 0x623F JUMP JUMPDEST JUMPDEST SWAP1 PUSH0 MSTORE PUSH1 0x20 PUSH0 KECCAK256 SWAP1 PUSH1 0x6 MUL ADD PUSH1 0x1 ADD PUSH1 0x40 MLOAD PUSH2 0x88C SWAP2 SWAP1 PUSH2 0x66FB JUMP JUMPDEST PUSH1 0x40 MLOAD DUP1 SWAP2 SUB SWAP1 KECCAK256 EQ DUP1 ISZERO PUSH2 0x8DE JUMPI POP DUP3 DUP1 MLOAD SWAP1 PUSH1 0x20 ADD KECCAK256 PUSH1 0x6 DUP3 DUP2 SLOAD DUP2 LT PUSH2 0x8B8 JUMPI PUSH2 0x8B7 PUSH2 0x623F JUMP JUMPDEST JUMPDEST SWAP1 PUSH0 MSTORE PUSH1 0x20 PUSH0 KECCAK256 SWAP1 PUSH1 0x6 MUL ADD PUSH1 0x2 ADD PUSH1 0x40 MLOAD PUSH2 0x8D4 SWAP2 SWAP1 PUSH2 0x66FB JUMP JUMPDEST PUSH1 0x40 MLOAD DUP1 SWAP2 SUB SWAP1 KECCAK256 EQ JUMPDEST ISZERO PUSH2 0x91B JUMPI PUSH1 0x6 DUP2 DUP2 SLOAD DUP2 LT PUSH2 0x8F7 JUMPI PUSH2 0x8F6 PUSH2 0x623F JUMP JUMPDEST JUMPDEST SWAP1 PUSH0 MSTORE PUSH1 0x20 PUSH0 KECCAK256 SWAP1 PUSH1 0x6 MUL ADD PUSH1 0x4 ADD PUSH1 0x15 SWAP1 SLOAD SWAP1 PUSH2 0x100 EXP SWAP1 DIV PUSH1 0xFF AND SWAP2 POP PUSH2 0x929 JUMP JUMPDEST JUMPDEST DUP1 DUP1 PUSH1 0x1 ADD SWAP2 POP POP PUSH2 0x798 JUMP JUMPDEST POP DUP1 PUSH2 0xC13 JUMPI PUSH1 0x40 MLOAD DUP1 PUSH1 0x40 ADD PUSH1 0x40 MSTORE DUP1 PUSH1 0x6 DUP2 MSTORE PUSH1 0x20 ADD PUSH32 0x64656C6574650000000000000000000000000000000000000000000000000000 DUP2 MSTORE POP DUP1 MLOAD SWAP1 PUSH1 0x20 ADD KECCAK256 DUP3 DUP1 MLOAD SWAP1 PUSH1 0x20 ADD KECCAK256 EQ DUP1 PUSH2 0x9C2 JUMPI POP DUP2 DUP1 MLOAD SWAP1 PUSH1 0x20 ADD KECCAK256 PUSH1 0x40 MLOAD DUP1 PUSH1 0x40 ADD PUSH1 0x40 MSTORE DUP1 PUSH1 0x4 DUP2 MSTORE PUSH1 0x20 ADD PUSH32 0x6564697400000000000000000000000000000000000000000000000000000000 DUP2 MSTORE POP DUP1 MLOAD SWAP1 PUSH1 0x20 ADD KECCAK256 EQ JUMPDEST ISZERO PUSH2 0xAC7 JUMPI PUSH0 DUP1 PUSH0 PUSH1 0x2 PUSH0 SWAP1 SLOAD SWAP1 PUSH2 0x100 EXP SWAP1 DIV PUSH20 0xFFFFFFFFFFFFFFFFFFFFFFFFFFFFFFFFFFFFFFFF AND PUSH20 0xFFFFFFFFFFFFFFFFFFFFFFFFFFFFFFFFFFFFFFFF AND PUSH4 0xC4DF01CE CALLER PUSH1 0x40 MLOAD DUP3 PUSH4 0xFFFFFFFF AND PUSH1 0xE0 SHL DUP2 MSTORE PUSH1 0x4 ADD PUSH2 0xA24 SWAP2 SWAP1 PUSH2 0x675B JUMP JUMPDEST PUSH0 PUSH1 0x40 MLOAD DUP1 DUP4 SUB DUP2 PUSH0 DUP8 GAS CALL ISZERO DUP1 ISZERO PUSH2 0xA3F JUMPI RETURNDATASIZE PUSH0 DUP1 RETURNDATACOPY RETURNDATASIZE PUSH0 REVERT JUMPDEST POP POP POP POP PUSH1 0x40 MLOAD RETURNDATASIZE PUSH0 DUP3 RETURNDATACOPY RETURNDATASIZE PUSH1 0x1F NOT PUSH1 0x1F DUP3 ADD AND DUP3 ADD DUP1 PUSH1 0x40 MSTORE POP DUP2 ADD SWAP1 PUSH2 0xA67 SWAP2 SWAP1 PUSH2 0x67F5 JUMP JUMPDEST SWAP3 POP SWAP3 POP SWAP3 POP CALLER PUSH20 0xFFFFFFFFFFFFFFFFFFFFFFFFFFFFFFFFFFFFFFFF AND PUSH32 0x3FC8DE32D0FF2767D320C8C52FD3AB1A29DDF9484B23575845D542369BDFA37F DUP5 DUP5 DUP5 PUSH1 0x40 MLOAD PUSH2 0xAB7 SWAP4 SWAP3 SWAP2 SWAP1 PUSH2 0x6861 JUMP JUMPDEST PUSH1 0x40 MLOAD DUP1 SWAP2 SUB SWAP1 LOG2 POP POP POP PUSH2 0xC0E JUMP JUMPDEST PUSH1 0x40 MLOAD DUP1 PUSH1 0x40 ADD PUSH1 0x40 MSTORE DUP1 PUSH1 0x4 DUP2 MSTORE PUSH1 0x20 ADD PUSH32 0x7669657700000000000000000000000000000000000000000000000000000000 DUP2 MSTORE POP DUP1 MLOAD SWAP1 PUSH1 0x20 ADD KECCAK256 DUP3 DUP1 MLOAD SWAP1 PUSH1 0x20 ADD KECCAK256 SUB PUSH2 0xC0D JUMPI PUSH0 DUP1 PUSH0 PUSH1 0x2 PUSH0 SWAP1 SLOAD SWAP1 PUSH2 0x100 EXP SWAP1 DIV PUSH20 0xFFFFFFFFFFFFFFFFFFFFFFFFFFFFFFFFFFFFFFFF AND PUSH20 0xFFFFFFFFFFFFFFFFFFFFFFFFFFFFFFFFFFFFFFFF AND PUSH4 0xC4DF01CE CALLER PUSH1 0x40 MLOAD DUP3 PUSH4 0xFFFFFFFF AND PUSH1 0xE0 SHL DUP2 MSTORE PUSH1 0x4 ADD PUSH2 0xB6E SWAP2 SWAP1 PUSH2 0x68E7 JUMP JUMPDEST PUSH0 PUSH1 0x40 MLOAD DUP1 DUP4 SUB DUP2 PUSH0 DUP8 GAS CALL ISZERO DUP1 ISZERO PUSH2 0xB89 JUMPI RETURNDATASIZE PUSH0 DUP1 RETURNDATACOPY RETURNDATASIZE PUSH0 REVERT JUMPDEST POP POP POP POP PUSH1 0x40 MLOAD RETURNDATASIZE PUSH0 DUP3 RETURNDATACOPY RETURNDATASIZE PUSH1 0x1F NOT PUSH1 0x1F DUP3 ADD AND DUP3 ADD DUP1 PUSH1 0x40 MSTORE POP DUP2 ADD SWAP1 PUSH2 0xBB1 SWAP2 SWAP1 PUSH2 0x67F5 JUMP JUMPDEST SWAP3 POP SWAP3 POP SWAP3 POP CALLER PUSH20 0xFFFFFFFFFFFFFFFFFFFFFFFFFFFFFFFFFFFFFFFF AND PUSH32 0x3FC8DE32D0FF2767D320C8C52FD3AB1A29DDF9484B23575845D542369BDFA37F DUP5 DUP5 DUP5 PUSH1 0x40 MLOAD PUSH2 0xC01 SWAP4 SWAP3 SWAP2 SWAP1 PUSH2 0x6861 JUMP JUMPDEST PUSH1 0x40 MLOAD DUP1 SWAP2 SUB SWAP1 LOG2 POP POP POP JUMPDEST JUMPDEST PUSH2 0xEE7 JUMP JUMPDEST PUSH0 DUP1 PUSH1 0x2 PUSH0 SWAP1 SLOAD SWAP1 PUSH2 0x100 EXP SWAP1 DIV PUSH20 0xFFFFFFFFFFFFFFFFFFFFFFFFFFFFFFFFFFFFFFFF AND PUSH20 0xFFFFFFFFFFFFFFFFFFFFFFFFFFFFFFFFFFFFFFFF AND PUSH4 0x1E349D1C CALLER PUSH1 0x40 MLOAD DUP3 PUSH4 0xFFFFFFFF AND PUSH1 0xE0 SHL DUP2 MSTORE PUSH1 0x4 ADD PUSH2 0xC6F SWAP2 SWAP1 PUSH2 0x6017 JUMP JUMPDEST PUSH0 PUSH1 0x40 MLOAD DUP1 DUP4 SUB DUP2 PUSH0 DUP8 GAS CALL ISZERO DUP1 ISZERO PUSH2 0xC8A JUMPI RETURNDATASIZE PUSH0 DUP1 RETURNDATACOPY RETURNDATASIZE PUSH0 REVERT JUMPDEST POP POP POP POP PUSH1 0x40 MLOAD RETURNDATASIZE PUSH0 DUP3 RETURNDATACOPY RETURNDATASIZE PUSH1 0x1F NOT PUSH1 0x1F DUP3 ADD AND DUP3 ADD DUP1 PUSH1 0x40 MSTORE POP DUP2 ADD SWAP1 PUSH2 0xCB2 SWAP2 SWAP1 PUSH2 0x6913 JUMP JUMPDEST SWAP2 POP SWAP2 POP CALLER PUSH20 0xFFFFFFFFFFFFFFFFFFFFFFFFFFFFFFFFFFFFFFFF AND PUSH32 0x99160C89FDCCB67E1961CF554A10FFFB3DBBB7B2CD44A817F2AAC33DEB57D9D7 DUP4 DUP4 PUSH1 0x40 MLOAD PUSH2 0xCFE SWAP3 SWAP2 SWAP1 PUSH2 0x696D JUMP JUMPDEST PUSH1 0x40 MLOAD DUP1 SWAP2 SUB SWAP1 LOG2 PUSH0 PUSH1 0x1 PUSH0 SWAP1 SLOAD SWAP1 PUSH2 0x100 EXP SWAP1 DIV PUSH20 0xFFFFFFFFFFFFFFFFFFFFFFFFFFFFFFFFFFFFFFFF AND PUSH20 0xFFFFFFFFFFFFFFFFFFFFFFFFFFFFFFFFFFFFFFFF AND PUSH4 0x2ADA2596 CALLER PUSH1 0x40 MLOAD DUP3 PUSH4 0xFFFFFFFF AND PUSH1 0xE0 SHL DUP2 MSTORE PUSH1 0x4 ADD PUSH2 0xD61 SWAP2 SWAP1 PUSH2 0x6017 JUMP JUMPDEST PUSH0 PUSH1 0x40 MLOAD DUP1 DUP4 SUB DUP2 DUP7 GAS STATICCALL ISZERO DUP1 ISZERO PUSH2 0xD7B JUMPI RETURNDATASIZE PUSH0 DUP1 RETURNDATACOPY RETURNDATASIZE PUSH0 REVERT JUMPDEST POP POP POP POP PUSH1 0x40 MLOAD RETURNDATASIZE PUSH0 DUP3 RETURNDATACOPY RETURNDATASIZE PUSH1 0x1F NOT PUSH1 0x1F DUP3 ADD AND DUP3 ADD DUP1 PUSH1 0x40 MSTORE POP DUP2 ADD SWAP1 PUSH2 0xDA3 SWAP2 SWAP1 PUSH2 0x6ABC JUMP JUMPDEST SWAP1 POP PUSH0 PUSH1 0x1 PUSH0 SWAP1 SLOAD SWAP1 PUSH2 0x100 EXP SWAP1 DIV PUSH20 0xFFFFFFFFFFFFFFFFFFFFFFFFFFFFFFFFFFFFFFFF AND PUSH20 0xFFFFFFFFFFFFFFFFFFFFFFFFFFFFFFFFFFFFFFFF AND PUSH4 0x11192999 DUP4 PUSH1 0x40 ADD MLOAD PUSH1 0x40 MLOAD DUP3 PUSH4 0xFFFFFFFF AND PUSH1 0xE0 SHL DUP2 MSTORE PUSH1 0x4 ADD PUSH2 0xE04 SWAP2 SWAP1 PUSH2 0x6B03 JUMP JUMPDEST PUSH0 PUSH1 0x40 MLOAD DUP1 DUP4 SUB DUP2 DUP7 GAS STATICCALL ISZERO DUP1 ISZERO PUSH2 0xE1E JUMPI RETURNDATASIZE PUSH0 DUP1 RETURNDATACOPY RETURNDATASIZE PUSH0 REVERT JUMPDEST POP POP POP POP PUSH1 0x40 MLOAD RETURNDATASIZE PUSH0 DUP3 RETURNDATACOPY RETURNDATASIZE PUSH1 0x1F NOT PUSH1 0x1F DUP3 ADD AND DUP3 ADD DUP1 PUSH1 0x40 MSTORE POP DUP2 ADD SWAP1 PUSH2 0xE46 SWAP2 SWAP1 PUSH2 0x6C05 JUMP JUMPDEST SWAP1 POP CALLER PUSH20 0xFFFFFFFFFFFFFFFFFFFFFFFFFFFFFFFFFFFFFFFF AND PUSH32 0x83D90DFABB9DD5929F37BEDD596EC8B76FEC40556DCF87A93C891C43ECBC35A2 PUSH1 0x40 MLOAD PUSH2 0xE8C SWAP1 PUSH2 0x6CE0 JUMP JUMPDEST PUSH1 0x40 MLOAD DUP1 SWAP2 SUB SWAP1 LOG2 CALLER PUSH20 0xFFFFFFFFFFFFFFFFFFFFFFFFFFFFFFFFFFFFFFFF AND PUSH32 0x407C4EF04235409D41AF032D283E6ADFCEFF36C0F951614ADFAD3FD31879959A DUP3 PUSH1 0x40 MLOAD PUSH2 0xEDA SWAP2 SWAP1 PUSH2 0x6ED5 JUMP JUMPDEST PUSH1 0x40 MLOAD DUP1 SWAP2 SUB SWAP1 LOG2 POP POP POP POP JUMPDEST POP POP POP POP JUMP JUMPDEST PUSH1 0x1 PUSH0 SWAP1 SLOAD SWAP1 PUSH2 0x100 EXP SWAP1 DIV PUSH20 0xFFFFFFFFFFFFFFFFFFFFFFFFFFFFFFFFFFFFFFFF AND PUSH20 0xFFFFFFFFFFFFFFFFFFFFFFFFFFFFFFFFFFFFFFFF AND PUSH4 0x6925DA90 CALLER PUSH1 0x2 PUSH1 0x40 MLOAD DUP4 PUSH4 0xFFFFFFFF AND PUSH1 0xE0 SHL DUP2 MSTORE PUSH1 0x4 ADD PUSH2 0xF4A SWAP3 SWAP2 SWAP1 PUSH2 0x6EF5 JUMP JUMPDEST PUSH0 PUSH1 0x40 MLOAD DUP1 DUP4 SUB DUP2 DUP7 DUP1 EXTCODESIZE ISZERO DUP1 ISZERO PUSH2 0xF60 JUMPI PUSH0 DUP1 REVERT JUMPDEST POP GAS STATICCALL ISZERO DUP1 ISZERO PUSH2 0xF72 JUMPI RETURNDATASIZE PUSH0 DUP1 RETURNDATACOPY RETURNDATASIZE PUSH0 REVERT JUMPDEST POP POP POP POP PUSH0 PUSH1 0x2 PUSH0 SWAP1 SLOAD SWAP1 PUSH2 0x100 EXP SWAP1 DIV PUSH20 0xFFFFFFFFFFFFFFFFFFFFFFFFFFFFFFFFFFFFFFFF AND PUSH20 0xFFFFFFFFFFFFFFFFFFFFFFFFFFFFFFFFFFFFFFFF AND PUSH4 0xE104278 CALLER PUSH1 0x40 MLOAD DUP3 PUSH4 0xFFFFFFFF AND PUSH1 0xE0 SHL DUP2 MSTORE PUSH1 0x4 ADD PUSH2 0xFD1 SWAP2 SWAP1 PUSH2 0x6017 JUMP JUMPDEST PUSH1 0x20 PUSH1 0x40 MLOAD DUP1 DUP4 SUB DUP2 DUP7 GAS STATICCALL ISZERO DUP1 ISZERO PUSH2 0xFEC JUMPI RETURNDATASIZE PUSH0 DUP1 RETURNDATACOPY RETURNDATASIZE PUSH0 REVERT JUMPDEST POP POP POP POP PUSH1 0x40 MLOAD RETURNDATASIZE PUSH1 0x1F NOT PUSH1 0x1F DUP3 ADD AND DUP3 ADD DUP1 PUSH1 0x40 MSTORE POP DUP2 ADD SWAP1 PUSH2 0x1010 SWAP2 SWAP1 PUSH2 0x65A6 JUMP JUMPDEST SWAP1 POP DUP1 TIMESTAMP GT PUSH2 0x1054 JUMPI PUSH1 0x40 MLOAD PUSH32 0x8C379A000000000000000000000000000000000000000000000000000000000 DUP2 MSTORE PUSH1 0x4 ADD PUSH2 0x104B SWAP1 PUSH2 0x6641 JUMP JUMPDEST PUSH1 0x40 MLOAD DUP1 SWAP2 SUB SWAP1 REVERT JUMPDEST PUSH1 0x6 DUP1 SLOAD SWAP1 POP DUP4 LT PUSH2 0x109B JUMPI PUSH1 0x40 MLOAD PUSH32 0x8C379A000000000000000000000000000000000000000000000000000000000 DUP2 MSTORE PUSH1 0x4 ADD PUSH2 0x1092 SWAP1 PUSH2 0x6F66 JUMP JUMPDEST PUSH1 0x40 MLOAD DUP1 SWAP2 SUB SWAP1 REVERT JUMPDEST PUSH0 PUSH1 0x6 DUP5 DUP2 SLOAD DUP2 LT PUSH2 0x10B0 JUMPI PUSH2 0x10AF PUSH2 0x623F JUMP JUMPDEST JUMPDEST SWAP1 PUSH0 MSTORE PUSH1 0x20 PUSH0 KECCAK256 SWAP1 PUSH1 0x6 MUL ADD SWAP1 POP DUP1 PUSH1 0x4 ADD PUSH0 SWAP1 SLOAD SWAP1 PUSH2 0x100 EXP SWAP1 DIV PUSH20 0xFFFFFFFFFFFFFFFFFFFFFFFFFFFFFFFFFFFFFFFF AND PUSH20 0xFFFFFFFFFFFFFFFFFFFFFFFFFFFFFFFFFFFFFFFF AND CALLER PUSH20 0xFFFFFFFFFFFFFFFFFFFFFFFFFFFFFFFFFFFFFFFF AND SUB PUSH2 0x114F JUMPI PUSH1 0x40 MLOAD PUSH32 0x8C379A000000000000000000000000000000000000000000000000000000000 DUP2 MSTORE PUSH1 0x4 ADD PUSH2 0x1146 SWAP1 PUSH2 0x6FF4 JUMP JUMPDEST PUSH1 0x40 MLOAD DUP1 SWAP2 SUB SWAP1 REVERT JUMPDEST DUP1 PUSH1 0x4 ADD PUSH1 0x14 SWAP1 SLOAD SWAP1 PUSH2 0x100 EXP SWAP1 DIV PUSH1 0xFF AND ISZERO DUP1 ISZERO PUSH2 0x124C JUMPI POP PUSH1 0x4 DUP1 DUP2 GT ISZERO PUSH2 0x117C JUMPI PUSH2 0x117B PUSH2 0x60C5 JUMP JUMPDEST JUMPDEST PUSH1 0x1 PUSH0 SWAP1 SLOAD SWAP1 PUSH2 0x100 EXP SWAP1 DIV PUSH20 0xFFFFFFFFFFFFFFFFFFFFFFFFFFFFFFFFFFFFFFFF AND PUSH20 0xFFFFFFFFFFFFFFFFFFFFFFFFFFFFFFFFFFFFFFFF AND PUSH4 0x44276733 DUP4 PUSH1 0x4 ADD PUSH0 SWAP1 SLOAD SWAP1 PUSH2 0x100 EXP SWAP1 DIV PUSH20 0xFFFFFFFFFFFFFFFFFFFFFFFFFFFFFFFFFFFFFFFF AND PUSH1 0x40 MLOAD DUP3 PUSH4 0xFFFFFFFF AND PUSH1 0xE0 SHL DUP2 MSTORE PUSH1 0x4 ADD PUSH2 0x11F9 SWAP2 SWAP1 PUSH2 0x6017 JUMP JUMPDEST PUSH1 0x20 PUSH1 0x40 MLOAD DUP1 DUP4 SUB DUP2 DUP7 GAS STATICCALL ISZERO DUP1 ISZERO PUSH2 0x1214 JUMPI RETURNDATASIZE PUSH0 DUP1 RETURNDATACOPY RETURNDATASIZE PUSH0 REVERT JUMPDEST POP POP POP POP PUSH1 0x40 MLOAD RETURNDATASIZE PUSH1 0x1F NOT PUSH1 0x1F DUP3 ADD AND DUP3 ADD DUP1 PUSH1 0x40 MSTORE POP DUP2 ADD SWAP1 PUSH2 0x1238 SWAP2 SWAP1 PUSH2 0x7012 JUMP JUMPDEST PUSH1 0x4 DUP2 GT ISZERO PUSH2 0x124A JUMPI PUSH2 0x1249 PUSH2 0x60C5 JUMP JUMPDEST JUMPDEST EQ JUMPDEST ISZERO PUSH2 0x1380 JUMPI PUSH0 PUSH1 0x1 PUSH0 SWAP1 SLOAD SWAP1 PUSH2 0x100 EXP SWAP1 DIV PUSH20 0xFFFFFFFFFFFFFFFFFFFFFFFFFFFFFFFFFFFFFFFF AND PUSH20 0xFFFFFFFFFFFFFFFFFFFFFFFFFFFFFFFFFFFFFFFF AND PUSH4 0x7E7A06E6 DUP4 PUSH1 0x4 ADD PUSH0 SWAP1 SLOAD SWAP1 PUSH2 0x100 EXP SWAP1 DIV PUSH20 0xFFFFFFFFFFFFFFFFFFFFFFFFFFFFFFFFFFFFFFFF AND PUSH1 0x40 MLOAD DUP3 PUSH4 0xFFFFFFFF AND PUSH1 0xE0 SHL DUP2 MSTORE PUSH1 0x4 ADD PUSH2 0x12CF SWAP2 SWAP1 PUSH2 0x6017 JUMP JUMPDEST PUSH1 0x20 PUSH1 0x40 MLOAD DUP1 DUP4 SUB DUP2 DUP7 GAS STATICCALL ISZERO DUP1 ISZERO PUSH2 0x12EA JUMPI RETURNDATASIZE PUSH0 DUP1 RETURNDATACOPY RETURNDATASIZE PUSH0 REVERT JUMPDEST POP POP POP POP PUSH1 0x40 MLOAD RETURNDATASIZE PUSH1 0x1F NOT PUSH1 0x1F DUP3 ADD AND DUP3 ADD DUP1 PUSH1 0x40 MSTORE POP DUP2 ADD SWAP1 PUSH2 0x130E SWAP2 SWAP1 PUSH2 0x703D JUMP JUMPDEST SWAP1 POP CALLER PUSH20 0xFFFFFFFFFFFFFFFFFFFFFFFFFFFFFFFFFFFFFFFF AND DUP2 PUSH20 0xFFFFFFFFFFFFFFFFFFFFFFFFFFFFFFFFFFFFFFFF AND EQ PUSH2 0x137E JUMPI PUSH1 0x40 MLOAD PUSH32 0x8C379A000000000000000000000000000000000000000000000000000000000 DUP2 MSTORE PUSH1 0x4 ADD PUSH2 0x1375 SWAP1 PUSH2 0x70FE JUMP JUMPDEST PUSH1 0x40 MLOAD DUP1 SWAP2 SUB SWAP1 REVERT JUMPDEST POP JUMPDEST DUP3 DUP1 ISZERO PUSH2 0x13E3 JUMPI POP PUSH1 0x7 PUSH0 DUP6 DUP2 MSTORE PUSH1 0x20 ADD SWAP1 DUP2 MSTORE PUSH1 0x20 ADD PUSH0 KECCAK256 PUSH0 CALLER PUSH20 0xFFFFFFFFFFFFFFFFFFFFFFFFFFFFFFFFFFFFFFFF AND PUSH20 0xFFFFFFFFFFFFFFFFFFFFFFFFFFFFFFFFFFFFFFFF AND DUP2 MSTORE PUSH1 0x20 ADD SWAP1 DUP2 MSTORE PUSH1 0x20 ADD PUSH0 KECCAK256 PUSH0 SWAP1 SLOAD SWAP1 PUSH2 0x100 EXP SWAP1 DIV PUSH1 0xFF AND ISZERO JUMPDEST ISZERO PUSH2 0x1502 JUMPI DUP1 PUSH1 0x3 ADD PUSH0 DUP2 SLOAD DUP1 SWAP3 SWAP2 SWAP1 PUSH2 0x13FC SWAP1 PUSH2 0x7149 JUMP JUMPDEST SWAP2 SWAP1 POP SSTORE POP PUSH1 0x1 PUSH1 0x7 PUSH0 DUP7 DUP2 MSTORE PUSH1 0x20 ADD SWAP1 DUP2 MSTORE PUSH1 0x20 ADD PUSH0 KECCAK256 PUSH0 CALLER PUSH20 0xFFFFFFFFFFFFFFFFFFFFFFFFFFFFFFFFFFFFFFFF AND PUSH20 0xFFFFFFFFFFFFFFFFFFFFFFFFFFFFFFFFFFFFFFFF AND DUP2 MSTORE PUSH1 0x20 ADD SWAP1 DUP2 MSTORE PUSH1 0x20 ADD PUSH0 KECCAK256 PUSH0 PUSH2 0x100 EXP DUP2 SLOAD DUP2 PUSH1 0xFF MUL NOT AND SWAP1 DUP4 ISZERO ISZERO MUL OR SWAP1 SSTORE POP DUP1 PUSH1 0x5 ADD SLOAD DUP2 PUSH1 0x3 ADD SLOAD LT PUSH2 0x1501 JUMPI PUSH1 0x1 DUP2 PUSH1 0x4 ADD PUSH1 0x15 PUSH2 0x100 EXP DUP2 SLOAD DUP2 PUSH1 0xFF MUL NOT AND SWAP1 DUP4 ISZERO ISZERO MUL OR SWAP1 SSTORE POP DUP1 PUSH1 0x4 ADD PUSH0 SWAP1 SLOAD SWAP1 PUSH2 0x100 EXP SWAP1 DIV PUSH20 0xFFFFFFFFFFFFFFFFFFFFFFFFFFFFFFFFFFFFFFFF AND PUSH20 0xFFFFFFFFFFFFFFFFFFFFFFFFFFFFFFFFFFFFFFFF AND PUSH32 0x83D90DFABB9DD5929F37BEDD596EC8B76FEC40556DCF87A93C891C43ECBC35A2 PUSH1 0x40 MLOAD PUSH2 0x14F8 SWAP1 PUSH2 0x7224 JUMP JUMPDEST PUSH1 0x40 MLOAD DUP1 SWAP2 SUB SWAP1 LOG2 JUMPDEST JUMPDEST POP POP POP POP JUMP JUMPDEST PUSH1 0x4 SLOAD DUP2 JUMP JUMPDEST PUSH0 PUSH1 0x2 PUSH0 SWAP1 SLOAD SWAP1 PUSH2 0x100 EXP SWAP1 DIV PUSH20 0xFFFFFFFFFFFFFFFFFFFFFFFFFFFFFFFFFFFFFFFF AND PUSH20 0xFFFFFFFFFFFFFFFFFFFFFFFFFFFFFFFFFFFFFFFF AND PUSH4 0xE104278 CALLER PUSH1 0x40 MLOAD DUP3 PUSH4 0xFFFFFFFF AND PUSH1 0xE0 SHL DUP2 MSTORE PUSH1 0x4 ADD PUSH2 0x1569 SWAP2 SWAP1 PUSH2 0x6017 JUMP JUMPDEST PUSH1 0x20 PUSH1 0x40 MLOAD DUP1 DUP4 SUB DUP2 DUP7 GAS STATICCALL ISZERO DUP1 ISZERO PUSH2 0x1584 JUMPI RETURNDATASIZE PUSH0 DUP1 RETURNDATACOPY RETURNDATASIZE PUSH0 REVERT JUMPDEST POP POP POP POP PUSH1 0x40 MLOAD RETURNDATASIZE PUSH1 0x1F NOT PUSH1 0x1F DUP3 ADD AND DUP3 ADD DUP1 PUSH1 0x40 MSTORE POP DUP2 ADD SWAP1 PUSH2 0x15A8 SWAP2 SWAP1 PUSH2 0x65A6 JUMP JUMPDEST SWAP1 POP DUP1 TIMESTAMP GT PUSH2 0x15EC JUMPI PUSH1 0x40 MLOAD PUSH32 0x8C379A000000000000000000000000000000000000000000000000000000000 DUP2 MSTORE PUSH1 0x4 ADD PUSH2 0x15E3 SWAP1 PUSH2 0x6641 JUMP JUMPDEST PUSH1 0x40 MLOAD DUP1 SWAP2 SUB SWAP1 REVERT JUMPDEST PUSH0 PUSH1 0x1 PUSH0 SWAP1 SLOAD SWAP1 PUSH2 0x100 EXP SWAP1 DIV PUSH20 0xFFFFFFFFFFFFFFFFFFFFFFFFFFFFFFFFFFFFFFFF AND PUSH20 0xFFFFFFFFFFFFFFFFFFFFFFFFFFFFFFFFFFFFFFFF AND PUSH4 0x44276733 CALLER PUSH1 0x40 MLOAD DUP3 PUSH4 0xFFFFFFFF AND PUSH1 0xE0 SHL DUP2 MSTORE PUSH1 0x4 ADD PUSH2 0x1647 SWAP2 SWAP1 PUSH2 0x6017 JUMP JUMPDEST PUSH1 0x20 PUSH1 0x40 MLOAD DUP1 DUP4 SUB DUP2 DUP7 GAS STATICCALL ISZERO DUP1 ISZERO PUSH2 0x1662 JUMPI RETURNDATASIZE PUSH0 DUP1 RETURNDATACOPY RETURNDATASIZE PUSH0 REVERT JUMPDEST POP POP POP POP PUSH1 0x40 MLOAD RETURNDATASIZE PUSH1 0x1F NOT PUSH1 0x1F DUP3 ADD AND DUP3 ADD DUP1 PUSH1 0x40 MSTORE POP DUP2 ADD SWAP1 PUSH2 0x1686 SWAP2 SWAP1 PUSH2 0x7012 JUMP JUMPDEST SWAP1 POP PUSH0 PUSH2 0x1694 DUP6 DUP6 DUP5 PUSH2 0x569E JUMP JUMPDEST SWAP1 POP DUP1 PUSH2 0x1981 JUMPI PUSH1 0x40 MLOAD DUP1 PUSH1 0x40 ADD PUSH1 0x40 MSTORE DUP1 PUSH1 0x4 DUP2 MSTORE PUSH1 0x20 ADD PUSH32 0x6564697400000000000000000000000000000000000000000000000000000000 DUP2 MSTORE POP DUP1 MLOAD SWAP1 PUSH1 0x20 ADD KECCAK256 DUP5 DUP1 MLOAD SWAP1 PUSH1 0x20 ADD KECCAK256 EQ DUP1 PUSH2 0x172E JUMPI POP PUSH1 0x40 MLOAD DUP1 PUSH1 0x40 ADD PUSH1 0x40 MSTORE DUP1 PUSH1 0x6 DUP2 MSTORE PUSH1 0x20 ADD PUSH32 0x64656C6574650000000000000000000000000000000000000000000000000000 DUP2 MSTORE POP DUP1 MLOAD SWAP1 PUSH1 0x20 ADD KECCAK256 DUP5 DUP1 MLOAD SWAP1 PUSH1 0x20 ADD KECCAK256 EQ JUMPDEST ISZERO PUSH2 0x1833 JUMPI PUSH0 DUP1 PUSH0 PUSH1 0x2 PUSH0 SWAP1 SLOAD SWAP1 PUSH2 0x100 EXP SWAP1 DIV PUSH20 0xFFFFFFFFFFFFFFFFFFFFFFFFFFFFFFFFFFFFFFFF AND PUSH20 0xFFFFFFFFFFFFFFFFFFFFFFFFFFFFFFFFFFFFFFFF AND PUSH4 0xC4DF01CE CALLER PUSH1 0x40 MLOAD DUP3 PUSH4 0xFFFFFFFF AND PUSH1 0xE0 SHL DUP2 MSTORE PUSH1 0x4 ADD PUSH2 0x1790 SWAP2 SWAP1 PUSH2 0x675B JUMP JUMPDEST PUSH0 PUSH1 0x40 MLOAD DUP1 DUP4 SUB DUP2 PUSH0 DUP8 GAS CALL ISZERO DUP1 ISZERO PUSH2 0x17AB JUMPI RETURNDATASIZE PUSH0 DUP1 RETURNDATACOPY RETURNDATASIZE PUSH0 REVERT JUMPDEST POP POP POP POP PUSH1 0x40 MLOAD RETURNDATASIZE PUSH0 DUP3 RETURNDATACOPY RETURNDATASIZE PUSH1 0x1F NOT PUSH1 0x1F DUP3 ADD AND DUP3 ADD DUP1 PUSH1 0x40 MSTORE POP DUP2 ADD SWAP1 PUSH2 0x17D3 SWAP2 SWAP1 PUSH2 0x67F5 JUMP JUMPDEST SWAP3 POP SWAP3 POP SWAP3 POP CALLER PUSH20 0xFFFFFFFFFFFFFFFFFFFFFFFFFFFFFFFFFFFFFFFF AND PUSH32 0x3FC8DE32D0FF2767D320C8C52FD3AB1A29DDF9484B23575845D542369BDFA37F DUP5 DUP5 DUP5 PUSH1 0x40 MLOAD PUSH2 0x1823 SWAP4 SWAP3 SWAP2 SWAP1 PUSH2 0x6861 JUMP JUMPDEST PUSH1 0x40 MLOAD DUP1 SWAP2 SUB SWAP1 LOG2 POP POP POP PUSH2 0x197A JUMP JUMPDEST PUSH1 0x40 MLOAD DUP1 PUSH1 0x40 ADD PUSH1 0x40 MSTORE DUP1 PUSH1 0x4 DUP2 MSTORE PUSH1 0x20 ADD PUSH32 0x7669657700000000000000000000000000000000000000000000000000000000 DUP2 MSTORE POP DUP1 MLOAD SWAP1 PUSH1 0x20 ADD KECCAK256 DUP5 DUP1 MLOAD SWAP1 PUSH1 0x20 ADD KECCAK256 SUB PUSH2 0x1979 JUMPI PUSH0 DUP1 PUSH0 PUSH1 0x2 PUSH0 SWAP1 SLOAD SWAP1 PUSH2 0x100 EXP SWAP1 DIV PUSH20 0xFFFFFFFFFFFFFFFFFFFFFFFFFFFFFFFFFFFFFFFF AND PUSH20 0xFFFFFFFFFFFFFFFFFFFFFFFFFFFFFFFFFFFFFFFF AND PUSH4 0xC4DF01CE CALLER PUSH1 0x40 MLOAD DUP3 PUSH4 0xFFFFFFFF AND PUSH1 0xE0 SHL DUP2 MSTORE PUSH1 0x4 ADD PUSH2 0x18DA SWAP2 SWAP1 PUSH2 0x68E7 JUMP JUMPDEST PUSH0 PUSH1 0x40 MLOAD DUP1 DUP4 SUB DUP2 PUSH0 DUP8 GAS CALL ISZERO DUP1 ISZERO PUSH2 0x18F5 JUMPI RETURNDATASIZE PUSH0 DUP1 RETURNDATACOPY RETURNDATASIZE PUSH0 REVERT JUMPDEST POP POP POP POP PUSH1 0x40 MLOAD RETURNDATASIZE PUSH0 DUP3 RETURNDATACOPY RETURNDATASIZE PUSH1 0x1F NOT PUSH1 0x1F DUP3 ADD AND DUP3 ADD DUP1 PUSH1 0x40 MSTORE POP DUP2 ADD SWAP1 PUSH2 0x191D SWAP2 SWAP1 PUSH2 0x67F5 JUMP JUMPDEST SWAP3 POP SWAP3 POP SWAP3 POP CALLER PUSH20 0xFFFFFFFFFFFFFFFFFFFFFFFFFFFFFFFFFFFFFFFF AND PUSH32 0x3FC8DE32D0FF2767D320C8C52FD3AB1A29DDF9484B23575845D542369BDFA37F DUP5 DUP5 DUP5 PUSH1 0x40 MLOAD PUSH2 0x196D SWAP4 SWAP3 SWAP2 SWAP1 PUSH2 0x6861 JUMP JUMPDEST PUSH1 0x40 MLOAD DUP1 SWAP2 SUB SWAP1 LOG2 POP POP POP JUMPDEST JUMPDEST POP POP PUSH2 0x1E1C JUMP JUMPDEST PUSH0 PUSH1 0x40 MLOAD DUP1 PUSH1 0x40 ADD PUSH1 0x40 MSTORE DUP1 PUSH1 0x13 DUP2 MSTORE PUSH1 0x20 ADD PUSH32 0x476C6F62616C5265736F757263655461626C6500000000000000000000000000 DUP2 MSTORE POP DUP1 MLOAD SWAP1 PUSH1 0x20 ADD KECCAK256 DUP7 DUP1 MLOAD SWAP1 PUSH1 0x20 ADD KECCAK256 EQ SWAP1 POP PUSH0 DUP2 ISZERO DUP1 ISZERO PUSH2 0x19FD JUMPI POP PUSH1 0x2 PUSH1 0x4 DUP2 GT ISZERO PUSH2 0x19E8 JUMPI PUSH2 0x19E7 PUSH2 0x60C5 JUMP JUMPDEST JUMPDEST DUP5 PUSH1 0x4 DUP2 GT ISZERO PUSH2 0x19FB JUMPI PUSH2 0x19FA PUSH2 0x60C5 JUMP JUMPDEST JUMPDEST EQ JUMPDEST SWAP1 POP PUSH0 DUP3 ISZERO PUSH2 0x1B50 JUMPI PUSH0 PUSH1 0x1 PUSH0 SWAP1 SLOAD SWAP1 PUSH2 0x100 EXP SWAP1 DIV PUSH20 0xFFFFFFFFFFFFFFFFFFFFFFFFFFFFFFFFFFFFFFFF AND PUSH20 0xFFFFFFFFFFFFFFFFFFFFFFFFFFFFFFFFFFFFFFFF AND PUSH4 0x7575BB42 PUSH1 0x40 MLOAD DUP2 PUSH4 0xFFFFFFFF AND PUSH1 0xE0 SHL DUP2 MSTORE PUSH1 0x4 ADD PUSH0 PUSH1 0x40 MLOAD DUP1 DUP4 SUB DUP2 DUP7 GAS STATICCALL ISZERO DUP1 ISZERO PUSH2 0x1A70 JUMPI RETURNDATASIZE PUSH0 DUP1 RETURNDATACOPY RETURNDATASIZE PUSH0 REVERT JUMPDEST POP POP POP POP PUSH1 0x40 MLOAD RETURNDATASIZE PUSH0 DUP3 RETURNDATACOPY RETURNDATASIZE PUSH1 0x1F NOT PUSH1 0x1F DUP3 ADD AND DUP3 ADD DUP1 PUSH1 0x40 MSTORE POP DUP2 ADD SWAP1 PUSH2 0x1A98 SWAP2 SWAP1 PUSH2 0x6C05 JUMP JUMPDEST MLOAD SWAP1 POP PUSH0 DUP2 EQ PUSH2 0x1B46 JUMPI PUSH1 0x2 PUSH1 0x4 DUP2 GT ISZERO PUSH2 0x1AB6 JUMPI PUSH2 0x1AB5 PUSH2 0x60C5 JUMP JUMPDEST JUMPDEST DUP7 PUSH1 0x4 DUP2 GT ISZERO PUSH2 0x1AC9 JUMPI PUSH2 0x1AC8 PUSH2 0x60C5 JUMP JUMPDEST JUMPDEST SUB PUSH2 0x1B24 JUMPI PUSH0 PUSH1 0x4 SLOAD PUSH1 0x1 DUP4 PUSH2 0x1ADF SWAP2 SWAP1 PUSH2 0x7255 JUMP JUMPDEST PUSH2 0x1AE9 SWAP2 SWAP1 PUSH2 0x7288 JUMP JUMPDEST SWAP1 POP PUSH1 0x64 DUP2 PUSH2 0x1AF8 SWAP2 SWAP1 PUSH2 0x72F6 JUMP JUMPDEST SWAP3 POP PUSH0 PUSH1 0x64 DUP3 PUSH2 0x1B08 SWAP2 SWAP1 PUSH2 0x7326 JUMP JUMPDEST GT ISZERO PUSH2 0x1B1E JUMPI PUSH1 0x1 DUP4 PUSH2 0x1B1B SWAP2 SWAP1 PUSH2 0x7356 JUMP JUMPDEST SWAP3 POP JUMPDEST POP PUSH2 0x1B41 JUMP JUMPDEST PUSH1 0x64 PUSH1 0x4 SLOAD DUP3 PUSH2 0x1B34 SWAP2 SWAP1 PUSH2 0x7288 JUMP JUMPDEST PUSH2 0x1B3E SWAP2 SWAP1 PUSH2 0x72F6 JUMP JUMPDEST SWAP2 POP JUMPDEST PUSH2 0x1B4A JUMP JUMPDEST PUSH0 SWAP2 POP JUMPDEST POP PUSH2 0x1B55 JUMP JUMPDEST PUSH1 0x1 SWAP1 POP JUMPDEST PUSH0 PUSH1 0x6 DUP1 SLOAD SWAP1 POP SWAP1 POP PUSH1 0x6 PUSH1 0x40 MLOAD DUP1 PUSH2 0x100 ADD PUSH1 0x40 MSTORE DUP1 DUP4 DUP2 MSTORE PUSH1 0x20 ADD DUP12 DUP2 MSTORE PUSH1 0x20 ADD DUP11 DUP2 MSTORE PUSH1 0x20 ADD DUP6 PUSH2 0x1B89 JUMPI PUSH0 PUSH2 0x1B8C JUMP JUMPDEST PUSH1 0x1 JUMPDEST PUSH1 0xFF AND DUP2 MSTORE PUSH1 0x20 ADD CALLER PUSH20 0xFFFFFFFFFFFFFFFFFFFFFFFFFFFFFFFFFFFFFFFF AND DUP2 MSTORE PUSH1 0x20 ADD DUP7 ISZERO ISZERO DUP2 MSTORE PUSH1 0x20 ADD DUP6 ISZERO ISZERO DUP2 MSTORE PUSH1 0x20 ADD DUP5 DUP2 MSTORE POP SWAP1 DUP1 PUSH1 0x1 DUP2 SLOAD ADD DUP1 DUP3 SSTORE DUP1 SWAP2 POP POP PUSH1 0x1 SWAP1 SUB SWAP1 PUSH0 MSTORE PUSH1 0x20 PUSH0 KECCAK256 SWAP1 PUSH1 0x6 MUL ADD PUSH0 SWAP1 SWAP2 SWAP1 SWAP2 SWAP1 SWAP2 POP PUSH0 DUP3 ADD MLOAD DUP2 PUSH0 ADD SSTORE PUSH1 0x20 DUP3 ADD MLOAD DUP2 PUSH1 0x1 ADD SWAP1 DUP2 PUSH2 0x1C07 SWAP2 SWAP1 PUSH2 0x645D JUMP JUMPDEST POP PUSH1 0x40 DUP3 ADD MLOAD DUP2 PUSH1 0x2 ADD SWAP1 DUP2 PUSH2 0x1C1D SWAP2 SWAP1 PUSH2 0x645D JUMP JUMPDEST POP PUSH1 0x60 DUP3 ADD MLOAD DUP2 PUSH1 0x3 ADD SSTORE PUSH1 0x80 DUP3 ADD MLOAD DUP2 PUSH1 0x4 ADD PUSH0 PUSH2 0x100 EXP DUP2 SLOAD DUP2 PUSH20 0xFFFFFFFFFFFFFFFFFFFFFFFFFFFFFFFFFFFFFFFF MUL NOT AND SWAP1 DUP4 PUSH20 0xFFFFFFFFFFFFFFFFFFFFFFFFFFFFFFFFFFFFFFFF AND MUL OR SWAP1 SSTORE POP PUSH1 0xA0 DUP3 ADD MLOAD DUP2 PUSH1 0x4 ADD PUSH1 0x14 PUSH2 0x100 EXP DUP2 SLOAD DUP2 PUSH1 0xFF MUL NOT AND SWAP1 DUP4 ISZERO ISZERO MUL OR SWAP1 SSTORE POP PUSH1 0xC0 DUP3 ADD MLOAD DUP2 PUSH1 0x4 ADD PUSH1 0x15 PUSH2 0x100 EXP DUP2 SLOAD DUP2 PUSH1 0xFF MUL NOT AND SWAP1 DUP4 ISZERO ISZERO MUL OR SWAP1 SSTORE POP PUSH1 0xE0 DUP3 ADD MLOAD DUP2 PUSH1 0x5 ADD SSTORE POP POP PUSH0 DUP1 PUSH1 0x2 PUSH0 SWAP1 SLOAD SWAP1 PUSH2 0x100 EXP SWAP1 DIV PUSH20 0xFFFFFFFFFFFFFFFFFFFFFFFFFFFFFFFFFFFFFFFF AND PUSH20 0xFFFFFFFFFFFFFFFFFFFFFFFFFFFFFFFFFFFFFFFF AND PUSH4 0x1E349D1C CALLER PUSH1 0x40 MLOAD DUP3 PUSH4 0xFFFFFFFF AND PUSH1 0xE0 SHL DUP2 MSTORE PUSH1 0x4 ADD PUSH2 0x1D16 SWAP2 SWAP1 PUSH2 0x6017 JUMP JUMPDEST PUSH0 PUSH1 0x40 MLOAD DUP1 DUP4 SUB DUP2 PUSH0 DUP8 GAS CALL ISZERO DUP1 ISZERO PUSH2 0x1D31 JUMPI RETURNDATASIZE PUSH0 DUP1 RETURNDATACOPY RETURNDATASIZE PUSH0 REVERT JUMPDEST POP POP POP POP PUSH1 0x40 MLOAD RETURNDATASIZE PUSH0 DUP3 RETURNDATACOPY RETURNDATASIZE PUSH1 0x1F NOT PUSH1 0x1F DUP3 ADD AND DUP3 ADD DUP1 PUSH1 0x40 MSTORE POP DUP2 ADD SWAP1 PUSH2 0x1D59 SWAP2 SWAP1 PUSH2 0x6913 JUMP JUMPDEST SWAP2 POP SWAP2 POP CALLER PUSH20 0xFFFFFFFFFFFFFFFFFFFFFFFFFFFFFFFFFFFFFFFF AND PUSH32 0x99160C89FDCCB67E1961CF554A10FFFB3DBBB7B2CD44A817F2AAC33DEB57D9D7 DUP4 DUP4 PUSH1 0x40 MLOAD PUSH2 0x1DA5 SWAP3 SWAP2 SWAP1 PUSH2 0x696D JUMP JUMPDEST PUSH1 0x40 MLOAD DUP1 SWAP2 SUB SWAP1 LOG2 ADDRESS PUSH20 0xFFFFFFFFFFFFFFFFFFFFFFFFFFFFFFFFFFFFFFFF AND CALLER PUSH20 0xFFFFFFFFFFFFFFFFFFFFFFFFFFFFFFFFFFFFFFFF AND DUP5 PUSH32 0xCCB40BE31330CD8CDF0AB9448DCE3CC578CC50FA1511B2BF5BDFD9AC2C0AC202 DUP15 PUSH1 0x40 MLOAD PUSH2 0x1E0B SWAP2 SWAP1 PUSH2 0x6B03 JUMP JUMPDEST PUSH1 0x40 MLOAD DUP1 SWAP2 SUB SWAP1 LOG4 POP POP POP POP POP POP POP POP JUMPDEST POP POP POP JUMP JUMPDEST PUSH0 DUP1 PUSH0 PUSH1 0x2 PUSH0 SWAP1 SLOAD SWAP1 PUSH2 0x100 EXP SWAP1 DIV PUSH20 0xFFFFFFFFFFFFFFFFFFFFFFFFFFFFFFFFFFFFFFFF AND PUSH20 0xFFFFFFFFFFFFFFFFFFFFFFFFFFFFFFFFFFFFFFFF AND PUSH4 0xE104278 CALLER PUSH1 0x40 MLOAD DUP3 PUSH4 0xFFFFFFFF AND PUSH1 0xE0 SHL DUP2 MSTORE PUSH1 0x4 ADD PUSH2 0x1E7E SWAP2 SWAP1 PUSH2 0x6017 JUMP JUMPDEST PUSH1 0x20 PUSH1 0x40 MLOAD DUP1 DUP4 SUB DUP2 DUP7 GAS STATICCALL ISZERO DUP1 ISZERO PUSH2 0x1E99 JUMPI RETURNDATASIZE PUSH0 DUP1 RETURNDATACOPY RETURNDATASIZE PUSH0 REVERT JUMPDEST POP POP POP POP PUSH1 0x40 MLOAD RETURNDATASIZE PUSH1 0x1F NOT PUSH1 0x1F DUP3 ADD AND DUP3 ADD DUP1 PUSH1 0x40 MSTORE POP DUP2 ADD SWAP1 PUSH2 0x1EBD SWAP2 SWAP1 PUSH2 0x65A6 JUMP JUMPDEST SWAP1 POP PUSH0 DUP2 TIMESTAMP LT ISZERO PUSH2 0x1ECD JUMPI PUSH1 0x1 SWAP1 POP JUMPDEST DUP2 DUP2 SWAP4 POP SWAP4 POP POP POP SWAP1 SWAP2 JUMP JUMPDEST PUSH0 PUSH1 0x2 PUSH0 SWAP1 SLOAD SWAP1 PUSH2 0x100 EXP SWAP1 DIV PUSH20 0xFFFFFFFFFFFFFFFFFFFFFFFFFFFFFFFFFFFFFFFF AND PUSH20 0xFFFFFFFFFFFFFFFFFFFFFFFFFFFFFFFFFFFFFFFF AND PUSH4 0xE104278 CALLER PUSH1 0x40 MLOAD DUP3 PUSH4 0xFFFFFFFF AND PUSH1 0xE0 SHL DUP2 MSTORE PUSH1 0x4 ADD PUSH2 0x1F34 SWAP2 SWAP1 PUSH2 0x6017 JUMP JUMPDEST PUSH1 0x20 PUSH1 0x40 MLOAD DUP1 DUP4 SUB DUP2 DUP7 GAS STATICCALL ISZERO DUP1 ISZERO PUSH2 0x1F4F JUMPI RETURNDATASIZE PUSH0 DUP1 RETURNDATACOPY RETURNDATASIZE PUSH0 REVERT JUMPDEST POP POP POP POP PUSH1 0x40 MLOAD RETURNDATASIZE PUSH1 0x1F NOT PUSH1 0x1F DUP3 ADD AND DUP3 ADD DUP1 PUSH1 0x40 MSTORE POP DUP2 ADD SWAP1 PUSH2 0x1F73 SWAP2 SWAP1 PUSH2 0x65A6 JUMP JUMPDEST SWAP1 POP DUP1 TIMESTAMP GT PUSH2 0x1FB7 JUMPI PUSH1 0x40 MLOAD PUSH32 0x8C379A000000000000000000000000000000000000000000000000000000000 DUP2 MSTORE PUSH1 0x4 ADD PUSH2 0x1FAE SWAP1 PUSH2 0x6641 JUMP JUMPDEST PUSH1 0x40 MLOAD DUP1 SWAP2 SUB SWAP1 REVERT JUMPDEST PUSH1 0x40 MLOAD DUP1 PUSH1 0x40 ADD PUSH1 0x40 MSTORE DUP1 PUSH1 0x13 DUP2 MSTORE PUSH1 0x20 ADD PUSH32 0x476C6F62616C5265736F757263655461626C6500000000000000000000000000 DUP2 MSTORE POP PUSH1 0x40 MLOAD DUP1 PUSH1 0x40 ADD PUSH1 0x40 MSTORE DUP1 PUSH1 0x4 DUP2 MSTORE PUSH1 0x20 ADD PUSH32 0x7669657700000000000000000000000000000000000000000000000000000000 DUP2 MSTORE POP PUSH0 DUP1 JUMPDEST PUSH1 0x6 DUP1 SLOAD SWAP1 POP DUP2 LT ISZERO PUSH2 0x21B7 JUMPI CALLER PUSH20 0xFFFFFFFFFFFFFFFFFFFFFFFFFFFFFFFFFFFFFFFF AND PUSH1 0x6 DUP3 DUP2 SLOAD DUP2 LT PUSH2 0x205E JUMPI PUSH2 0x205D PUSH2 0x623F JUMP JUMPDEST JUMPDEST SWAP1 PUSH0 MSTORE PUSH1 0x20 PUSH0 KECCAK256 SWAP1 PUSH1 0x6 MUL ADD PUSH1 0x4 ADD PUSH0 SWAP1 SLOAD SWAP1 PUSH2 0x100 EXP SWAP1 DIV PUSH20 0xFFFFFFFFFFFFFFFFFFFFFFFFFFFFFFFFFFFFFFFF AND PUSH20 0xFFFFFFFFFFFFFFFFFFFFFFFFFFFFFFFFFFFFFFFF AND EQ DUP1 ISZERO PUSH2 0x20DD JUMPI POP PUSH1 0x6 DUP2 DUP2 SLOAD DUP2 LT PUSH2 0x20BF JUMPI PUSH2 0x20BE PUSH2 0x623F JUMP JUMPDEST JUMPDEST SWAP1 PUSH0 MSTORE PUSH1 0x20 PUSH0 KECCAK256 SWAP1 PUSH1 0x6 MUL ADD PUSH1 0x4 ADD PUSH1 0x15 SWAP1 SLOAD SWAP1 PUSH2 0x100 EXP SWAP1 DIV PUSH1 0xFF AND JUMPDEST ISZERO PUSH2 0x21AA JUMPI DUP4 DUP1 MLOAD SWAP1 PUSH1 0x20 ADD KECCAK256 PUSH1 0x6 DUP3 DUP2 SLOAD DUP2 LT PUSH2 0x20FE JUMPI PUSH2 0x20FD PUSH2 0x623F JUMP JUMPDEST JUMPDEST SWAP1 PUSH0 MSTORE PUSH1 0x20 PUSH0 KECCAK256 SWAP1 PUSH1 0x6 MUL ADD PUSH1 0x1 ADD PUSH1 0x40 MLOAD PUSH2 0x211A SWAP2 SWAP1 PUSH2 0x66FB JUMP JUMPDEST PUSH1 0x40 MLOAD DUP1 SWAP2 SUB SWAP1 KECCAK256 EQ DUP1 ISZERO PUSH2 0x216C JUMPI POP DUP3 DUP1 MLOAD SWAP1 PUSH1 0x20 ADD KECCAK256 PUSH1 0x6 DUP3 DUP2 SLOAD DUP2 LT PUSH2 0x2146 JUMPI PUSH2 0x2145 PUSH2 0x623F JUMP JUMPDEST JUMPDEST SWAP1 PUSH0 MSTORE PUSH1 0x20 PUSH0 KECCAK256 SWAP1 PUSH1 0x6 MUL ADD PUSH1 0x2 ADD PUSH1 0x40 MLOAD PUSH2 0x2162 SWAP2 SWAP1 PUSH2 0x66FB JUMP JUMPDEST PUSH1 0x40 MLOAD DUP1 SWAP2 SUB SWAP1 KECCAK256 EQ JUMPDEST ISZERO PUSH2 0x21A9 JUMPI PUSH1 0x6 DUP2 DUP2 SLOAD DUP2 LT PUSH2 0x2185 JUMPI PUSH2 0x2184 PUSH2 0x623F JUMP JUMPDEST JUMPDEST SWAP1 PUSH0 MSTORE PUSH1 0x20 PUSH0 KECCAK256 SWAP1 PUSH1 0x6 MUL ADD PUSH1 0x4 ADD PUSH1 0x15 SWAP1 SLOAD SWAP1 PUSH2 0x100 EXP SWAP1 DIV PUSH1 0xFF AND SWAP2 POP PUSH2 0x21B7 JUMP JUMPDEST JUMPDEST DUP1 DUP1 PUSH1 0x1 ADD SWAP2 POP POP PUSH2 0x2026 JUMP JUMPDEST POP DUP1 PUSH2 0x24A1 JUMPI PUSH1 0x40 MLOAD DUP1 PUSH1 0x40 ADD PUSH1 0x40 MSTORE DUP1 PUSH1 0x6 DUP2 MSTORE PUSH1 0x20 ADD PUSH32 0x64656C6574650000000000000000000000000000000000000000000000000000 DUP2 MSTORE POP DUP1 MLOAD SWAP1 PUSH1 0x20 ADD KECCAK256 DUP3 DUP1 MLOAD SWAP1 PUSH1 0x20 ADD KECCAK256 EQ DUP1 PUSH2 0x2250 JUMPI POP DUP2 DUP1 MLOAD SWAP1 PUSH1 0x20 ADD KECCAK256 PUSH1 0x40 MLOAD DUP1 PUSH1 0x40 ADD PUSH1 0x40 MSTORE DUP1 PUSH1 0x4 DUP2 MSTORE PUSH1 0x20 ADD PUSH32 0x6564697400000000000000000000000000000000000000000000000000000000 DUP2 MSTORE POP DUP1 MLOAD SWAP1 PUSH1 0x20 ADD KECCAK256 EQ JUMPDEST ISZERO PUSH2 0x2355 JUMPI PUSH0 DUP1 PUSH0 PUSH1 0x2 PUSH0 SWAP1 SLOAD SWAP1 PUSH2 0x100 EXP SWAP1 DIV PUSH20 0xFFFFFFFFFFFFFFFFFFFFFFFFFFFFFFFFFFFFFFFF AND PUSH20 0xFFFFFFFFFFFFFFFFFFFFFFFFFFFFFFFFFFFFFFFF AND PUSH4 0xC4DF01CE CALLER PUSH1 0x40 MLOAD DUP3 PUSH4 0xFFFFFFFF AND PUSH1 0xE0 SHL DUP2 MSTORE PUSH1 0x4 ADD PUSH2 0x22B2 SWAP2 SWAP1 PUSH2 0x675B JUMP JUMPDEST PUSH0 PUSH1 0x40 MLOAD DUP1 DUP4 SUB DUP2 PUSH0 DUP8 GAS CALL ISZERO DUP1 ISZERO PUSH2 0x22CD JUMPI RETURNDATASIZE PUSH0 DUP1 RETURNDATACOPY RETURNDATASIZE PUSH0 REVERT JUMPDEST POP POP POP POP PUSH1 0x40 MLOAD RETURNDATASIZE PUSH0 DUP3 RETURNDATACOPY RETURNDATASIZE PUSH1 0x1F NOT PUSH1 0x1F DUP3 ADD AND DUP3 ADD DUP1 PUSH1 0x40 MSTORE POP DUP2 ADD SWAP1 PUSH2 0x22F5 SWAP2 SWAP1 PUSH2 0x67F5 JUMP JUMPDEST SWAP3 POP SWAP3 POP SWAP3 POP CALLER PUSH20 0xFFFFFFFFFFFFFFFFFFFFFFFFFFFFFFFFFFFFFFFF AND PUSH32 0x3FC8DE32D0FF2767D320C8C52FD3AB1A29DDF9484B23575845D542369BDFA37F DUP5 DUP5 DUP5 PUSH1 0x40 MLOAD PUSH2 0x2345 SWAP4 SWAP3 SWAP2 SWAP1 PUSH2 0x6861 JUMP JUMPDEST PUSH1 0x40 MLOAD DUP1 SWAP2 SUB SWAP1 LOG2 POP POP POP PUSH2 0x249C JUMP JUMPDEST PUSH1 0x40 MLOAD DUP1 PUSH1 0x40 ADD PUSH1 0x40 MSTORE DUP1 PUSH1 0x4 DUP2 MSTORE PUSH1 0x20 ADD PUSH32 0x7669657700000000000000000000000000000000000000000000000000000000 DUP2 MSTORE POP DUP1 MLOAD SWAP1 PUSH1 0x20 ADD KECCAK256 DUP3 DUP1 MLOAD SWAP1 PUSH1 0x20 ADD KECCAK256 SUB PUSH2 0x249B JUMPI PUSH0 DUP1 PUSH0 PUSH1 0x2 PUSH0 SWAP1 SLOAD SWAP1 PUSH2 0x100 EXP SWAP1 DIV PUSH20 0xFFFFFFFFFFFFFFFFFFFFFFFFFFFFFFFFFFFFFFFF AND PUSH20 0xFFFFFFFFFFFFFFFFFFFFFFFFFFFFFFFFFFFFFFFF AND PUSH4 0xC4DF01CE CALLER PUSH1 0x40 MLOAD DUP3 PUSH4 0xFFFFFFFF AND PUSH1 0xE0 SHL DUP2 MSTORE PUSH1 0x4 ADD PUSH2 0x23FC SWAP2 SWAP1 PUSH2 0x68E7 JUMP JUMPDEST PUSH0 PUSH1 0x40 MLOAD DUP1 DUP4 SUB DUP2 PUSH0 DUP8 GAS CALL ISZERO DUP1 ISZERO PUSH2 0x2417 JUMPI RETURNDATASIZE PUSH0 DUP1 RETURNDATACOPY RETURNDATASIZE PUSH0 REVERT JUMPDEST POP POP POP POP PUSH1 0x40 MLOAD RETURNDATASIZE PUSH0 DUP3 RETURNDATACOPY RETURNDATASIZE PUSH1 0x1F NOT PUSH1 0x1F DUP3 ADD AND DUP3 ADD DUP1 PUSH1 0x40 MSTORE POP DUP2 ADD SWAP1 PUSH2 0x243F SWAP2 SWAP1 PUSH2 0x67F5 JUMP JUMPDEST SWAP3 POP SWAP3 POP SWAP3 POP CALLER PUSH20 0xFFFFFFFFFFFFFFFFFFFFFFFFFFFFFFFFFFFFFFFF AND PUSH32 0x3FC8DE32D0FF2767D320C8C52FD3AB1A29DDF9484B23575845D542369BDFA37F DUP5 DUP5 DUP5 PUSH1 0x40 MLOAD PUSH2 0x248F SWAP4 SWAP3 SWAP2 SWAP1 PUSH2 0x6861 JUMP JUMPDEST PUSH1 0x40 MLOAD DUP1 SWAP2 SUB SWAP1 LOG2 POP POP POP JUMPDEST JUMPDEST PUSH2 0x26C6 JUMP JUMPDEST PUSH0 DUP1 PUSH1 0x2 PUSH0 SWAP1 SLOAD SWAP1 PUSH2 0x100 EXP SWAP1 DIV PUSH20 0xFFFFFFFFFFFFFFFFFFFFFFFFFFFFFFFFFFFFFFFF AND PUSH20 0xFFFFFFFFFFFFFFFFFFFFFFFFFFFFFFFFFFFFFFFF AND PUSH4 0x1E349D1C CALLER PUSH1 0x40 MLOAD DUP3 PUSH4 0xFFFFFFFF AND PUSH1 0xE0 SHL DUP2 MSTORE PUSH1 0x4 ADD PUSH2 0x24FD SWAP2 SWAP1 PUSH2 0x6017 JUMP JUMPDEST PUSH0 PUSH1 0x40 MLOAD DUP1 DUP4 SUB DUP2 PUSH0 DUP8 GAS CALL ISZERO DUP1 ISZERO PUSH2 0x2518 JUMPI RETURNDATASIZE PUSH0 DUP1 RETURNDATACOPY RETURNDATASIZE PUSH0 REVERT JUMPDEST POP POP POP POP PUSH1 0x40 MLOAD RETURNDATASIZE PUSH0 DUP3 RETURNDATACOPY RETURNDATASIZE PUSH1 0x1F NOT PUSH1 0x1F DUP3 ADD AND DUP3 ADD DUP1 PUSH1 0x40 MSTORE POP DUP2 ADD SWAP1 PUSH2 0x2540 SWAP2 SWAP1 PUSH2 0x6913 JUMP JUMPDEST SWAP2 POP SWAP2 POP CALLER PUSH20 0xFFFFFFFFFFFFFFFFFFFFFFFFFFFFFFFFFFFFFFFF AND PUSH32 0x99160C89FDCCB67E1961CF554A10FFFB3DBBB7B2CD44A817F2AAC33DEB57D9D7 DUP4 DUP4 PUSH1 0x40 MLOAD PUSH2 0x258C SWAP3 SWAP2 SWAP1 PUSH2 0x696D JUMP JUMPDEST PUSH1 0x40 MLOAD DUP1 SWAP2 SUB SWAP1 LOG2 PUSH0 PUSH1 0x1 PUSH0 SWAP1 SLOAD SWAP1 PUSH2 0x100 EXP SWAP1 DIV PUSH20 0xFFFFFFFFFFFFFFFFFFFFFFFFFFFFFFFFFFFFFFFF AND PUSH20 0xFFFFFFFFFFFFFFFFFFFFFFFFFFFFFFFFFFFFFFFF AND PUSH4 0x7575BB42 PUSH1 0x40 MLOAD DUP2 PUSH4 0xFFFFFFFF AND PUSH1 0xE0 SHL DUP2 MSTORE PUSH1 0x4 ADD PUSH0 PUSH1 0x40 MLOAD DUP1 DUP4 SUB DUP2 DUP7 GAS STATICCALL ISZERO DUP1 ISZERO PUSH2 0x25FE JUMPI RETURNDATASIZE PUSH0 DUP1 RETURNDATACOPY RETURNDATASIZE PUSH0 REVERT JUMPDEST POP POP POP POP PUSH1 0x40 MLOAD RETURNDATASIZE PUSH0 DUP3 RETURNDATACOPY RETURNDATASIZE PUSH1 0x1F NOT PUSH1 0x1F DUP3 ADD AND DUP3 ADD DUP1 PUSH1 0x40 MSTORE POP DUP2 ADD SWAP1 PUSH2 0x2626 SWAP2 SWAP1 PUSH2 0x6C05 JUMP JUMPDEST SWAP1 POP CALLER PUSH20 0xFFFFFFFFFFFFFFFFFFFFFFFFFFFFFFFFFFFFFFFF AND PUSH32 0x83D90DFABB9DD5929F37BEDD596EC8B76FEC40556DCF87A93C891C43ECBC35A2 PUSH1 0x40 MLOAD PUSH2 0x266C SWAP1 PUSH2 0x6CE0 JUMP JUMPDEST PUSH1 0x40 MLOAD DUP1 SWAP2 SUB SWAP1 LOG2 CALLER PUSH20 0xFFFFFFFFFFFFFFFFFFFFFFFFFFFFFFFFFFFFFFFF AND PUSH32 0xF143951AAF024293781C4D1530B6C0DADD2E4221C98833DB9E7788AA65FD3519 DUP3 PUSH1 0x40 MLOAD PUSH2 0x26BA SWAP2 SWAP1 PUSH2 0x6ED5 JUMP JUMPDEST PUSH1 0x40 MLOAD DUP1 SWAP2 SUB SWAP1 LOG2 POP POP POP JUMPDEST POP POP POP POP JUMP JUMPDEST PUSH0 PUSH1 0x2 PUSH0 SWAP1 SLOAD SWAP1 PUSH2 0x100 EXP SWAP1 DIV PUSH20 0xFFFFFFFFFFFFFFFFFFFFFFFFFFFFFFFFFFFFFFFF AND PUSH20 0xFFFFFFFFFFFFFFFFFFFFFFFFFFFFFFFFFFFFFFFF AND PUSH4 0xE104278 CALLER PUSH1 0x40 MLOAD DUP3 PUSH4 0xFFFFFFFF AND PUSH1 0xE0 SHL DUP2 MSTORE PUSH1 0x4 ADD PUSH2 0x2727 SWAP2 SWAP1 PUSH2 0x6017 JUMP JUMPDEST PUSH1 0x20 PUSH1 0x40 MLOAD DUP1 DUP4 SUB DUP2 DUP7 GAS STATICCALL ISZERO DUP1 ISZERO PUSH2 0x2742 JUMPI RETURNDATASIZE PUSH0 DUP1 RETURNDATACOPY RETURNDATASIZE PUSH0 REVERT JUMPDEST POP POP POP POP PUSH1 0x40 MLOAD RETURNDATASIZE PUSH1 0x1F NOT PUSH1 0x1F DUP3 ADD AND DUP3 ADD DUP1 PUSH1 0x40 MSTORE POP DUP2 ADD SWAP1 PUSH2 0x2766 SWAP2 SWAP1 PUSH2 0x65A6 JUMP JUMPDEST SWAP1 POP DUP1 TIMESTAMP GT PUSH2 0x27AA JUMPI PUSH1 0x40 MLOAD PUSH32 0x8C379A000000000000000000000000000000000000000000000000000000000 DUP2 MSTORE PUSH1 0x4 ADD PUSH2 0x27A1 SWAP1 PUSH2 0x6641 JUMP JUMPDEST PUSH1 0x40 MLOAD DUP1 SWAP2 SUB SWAP1 REVERT JUMPDEST PUSH1 0x40 MLOAD DUP1 PUSH1 0x40 ADD PUSH1 0x40 MSTORE DUP1 PUSH1 0x13 DUP2 MSTORE PUSH1 0x20 ADD PUSH32 0x476C6F62616C5265736F757263655461626C6500000000000000000000000000 DUP2 MSTORE POP PUSH1 0x40 MLOAD DUP1 PUSH1 0x40 ADD PUSH1 0x40 MSTORE DUP1 PUSH1 0x6 DUP2 MSTORE PUSH1 0x20 ADD PUSH32 0x64656C6574650000000000000000000000000000000000000000000000000000 DUP2 MSTORE POP PUSH0 DUP1 JUMPDEST PUSH1 0x6 DUP1 SLOAD SWAP1 POP DUP2 LT ISZERO PUSH2 0x29AA JUMPI CALLER PUSH20 0xFFFFFFFFFFFFFFFFFFFFFFFFFFFFFFFFFFFFFFFF AND PUSH1 0x6 DUP3 DUP2 SLOAD DUP2 LT PUSH2 0x2851 JUMPI PUSH2 0x2850 PUSH2 0x623F JUMP JUMPDEST JUMPDEST SWAP1 PUSH0 MSTORE PUSH1 0x20 PUSH0 KECCAK256 SWAP1 PUSH1 0x6 MUL ADD PUSH1 0x4 ADD PUSH0 SWAP1 SLOAD SWAP1 PUSH2 0x100 EXP SWAP1 DIV PUSH20 0xFFFFFFFFFFFFFFFFFFFFFFFFFFFFFFFFFFFFFFFF AND PUSH20 0xFFFFFFFFFFFFFFFFFFFFFFFFFFFFFFFFFFFFFFFF AND EQ DUP1 ISZERO PUSH2 0x28D0 JUMPI POP PUSH1 0x6 DUP2 DUP2 SLOAD DUP2 LT PUSH2 0x28B2 JUMPI PUSH2 0x28B1 PUSH2 0x623F JUMP JUMPDEST JUMPDEST SWAP1 PUSH0 MSTORE PUSH1 0x20 PUSH0 KECCAK256 SWAP1 PUSH1 0x6 MUL ADD PUSH1 0x4 ADD PUSH1 0x15 SWAP1 SLOAD SWAP1 PUSH2 0x100 EXP SWAP1 DIV PUSH1 0xFF AND JUMPDEST ISZERO PUSH2 0x299D JUMPI DUP4 DUP1 MLOAD SWAP1 PUSH1 0x20 ADD KECCAK256 PUSH1 0x6 DUP3 DUP2 SLOAD DUP2 LT PUSH2 0x28F1 JUMPI PUSH2 0x28F0 PUSH2 0x623F JUMP JUMPDEST JUMPDEST SWAP1 PUSH0 MSTORE PUSH1 0x20 PUSH0 KECCAK256 SWAP1 PUSH1 0x6 MUL ADD PUSH1 0x1 ADD PUSH1 0x40 MLOAD PUSH2 0x290D SWAP2 SWAP1 PUSH2 0x66FB JUMP JUMPDEST PUSH1 0x40 MLOAD DUP1 SWAP2 SUB SWAP1 KECCAK256 EQ DUP1 ISZERO PUSH2 0x295F JUMPI POP DUP3 DUP1 MLOAD SWAP1 PUSH1 0x20 ADD KECCAK256 PUSH1 0x6 DUP3 DUP2 SLOAD DUP2 LT PUSH2 0x2939 JUMPI PUSH2 0x2938 PUSH2 0x623F JUMP JUMPDEST JUMPDEST SWAP1 PUSH0 MSTORE PUSH1 0x20 PUSH0 KECCAK256 SWAP1 PUSH1 0x6 MUL ADD PUSH1 0x2 ADD PUSH1 0x40 MLOAD PUSH2 0x2955 SWAP2 SWAP1 PUSH2 0x66FB JUMP JUMPDEST PUSH1 0x40 MLOAD DUP1 SWAP2 SUB SWAP1 KECCAK256 EQ JUMPDEST ISZERO PUSH2 0x299C JUMPI PUSH1 0x6 DUP2 DUP2 SLOAD DUP2 LT PUSH2 0x2978 JUMPI PUSH2 0x2977 PUSH2 0x623F JUMP JUMPDEST JUMPDEST SWAP1 PUSH0 MSTORE PUSH1 0x20 PUSH0 KECCAK256 SWAP1 PUSH1 0x6 MUL ADD PUSH1 0x4 ADD PUSH1 0x15 SWAP1 SLOAD SWAP1 PUSH2 0x100 EXP SWAP1 DIV PUSH1 0xFF AND SWAP2 POP PUSH2 0x29AA JUMP JUMPDEST JUMPDEST DUP1 DUP1 PUSH1 0x1 ADD SWAP2 POP POP PUSH2 0x2819 JUMP JUMPDEST POP DUP1 PUSH2 0x2C94 JUMPI PUSH1 0x40 MLOAD DUP1 PUSH1 0x40 ADD PUSH1 0x40 MSTORE DUP1 PUSH1 0x6 DUP2 MSTORE PUSH1 0x20 ADD PUSH32 0x64656C6574650000000000000000000000000000000000000000000000000000 DUP2 MSTORE POP DUP1 MLOAD SWAP1 PUSH1 0x20 ADD KECCAK256 DUP3 DUP1 MLOAD SWAP1 PUSH1 0x20 ADD KECCAK256 EQ DUP1 PUSH2 0x2A43 JUMPI POP DUP2 DUP1 MLOAD SWAP1 PUSH1 0x20 ADD KECCAK256 PUSH1 0x40 MLOAD DUP1 PUSH1 0x40 ADD PUSH1 0x40 MSTORE DUP1 PUSH1 0x4 DUP2 MSTORE PUSH1 0x20 ADD PUSH32 0x6564697400000000000000000000000000000000000000000000000000000000 DUP2 MSTORE POP DUP1 MLOAD SWAP1 PUSH1 0x20 ADD KECCAK256 EQ JUMPDEST ISZERO PUSH2 0x2B48 JUMPI PUSH0 DUP1 PUSH0 PUSH1 0x2 PUSH0 SWAP1 SLOAD SWAP1 PUSH2 0x100 EXP SWAP1 DIV PUSH20 0xFFFFFFFFFFFFFFFFFFFFFFFFFFFFFFFFFFFFFFFF AND PUSH20 0xFFFFFFFFFFFFFFFFFFFFFFFFFFFFFFFFFFFFFFFF AND PUSH4 0xC4DF01CE CALLER PUSH1 0x40 MLOAD DUP3 PUSH4 0xFFFFFFFF AND PUSH1 0xE0 SHL DUP2 MSTORE PUSH1 0x4 ADD PUSH2 0x2AA5 SWAP2 SWAP1 PUSH2 0x675B JUMP JUMPDEST PUSH0 PUSH1 0x40 MLOAD DUP1 DUP4 SUB DUP2 PUSH0 DUP8 GAS CALL ISZERO DUP1 ISZERO PUSH2 0x2AC0 JUMPI RETURNDATASIZE PUSH0 DUP1 RETURNDATACOPY RETURNDATASIZE PUSH0 REVERT JUMPDEST POP POP POP POP PUSH1 0x40 MLOAD RETURNDATASIZE PUSH0 DUP3 RETURNDATACOPY RETURNDATASIZE PUSH1 0x1F NOT PUSH1 0x1F DUP3 ADD AND DUP3 ADD DUP1 PUSH1 0x40 MSTORE POP DUP2 ADD SWAP1 PUSH2 0x2AE8 SWAP2 SWAP1 PUSH2 0x67F5 JUMP JUMPDEST SWAP3 POP SWAP3 POP SWAP3 POP CALLER PUSH20 0xFFFFFFFFFFFFFFFFFFFFFFFFFFFFFFFFFFFFFFFF AND PUSH32 0x3FC8DE32D0FF2767D320C8C52FD3AB1A29DDF9484B23575845D542369BDFA37F DUP5 DUP5 DUP5 PUSH1 0x40 MLOAD PUSH2 0x2B38 SWAP4 SWAP3 SWAP2 SWAP1 PUSH2 0x6861 JUMP JUMPDEST PUSH1 0x40 MLOAD DUP1 SWAP2 SUB SWAP1 LOG2 POP POP POP PUSH2 0x2C8F JUMP JUMPDEST PUSH1 0x40 MLOAD DUP1 PUSH1 0x40 ADD PUSH1 0x40 MSTORE DUP1 PUSH1 0x4 DUP2 MSTORE PUSH1 0x20 ADD PUSH32 0x7669657700000000000000000000000000000000000000000000000000000000 DUP2 MSTORE POP DUP1 MLOAD SWAP1 PUSH1 0x20 ADD KECCAK256 DUP3 DUP1 MLOAD SWAP1 PUSH1 0x20 ADD KECCAK256 SUB PUSH2 0x2C8E JUMPI PUSH0 DUP1 PUSH0 PUSH1 0x2 PUSH0 SWAP1 SLOAD SWAP1 PUSH2 0x100 EXP SWAP1 DIV PUSH20 0xFFFFFFFFFFFFFFFFFFFFFFFFFFFFFFFFFFFFFFFF AND PUSH20 0xFFFFFFFFFFFFFFFFFFFFFFFFFFFFFFFFFFFFFFFF AND PUSH4 0xC4DF01CE CALLER PUSH1 0x40 MLOAD DUP3 PUSH4 0xFFFFFFFF AND PUSH1 0xE0 SHL DUP2 MSTORE PUSH1 0x4 ADD PUSH2 0x2BEF SWAP2 SWAP1 PUSH2 0x68E7 JUMP JUMPDEST PUSH0 PUSH1 0x40 MLOAD DUP1 DUP4 SUB DUP2 PUSH0 DUP8 GAS CALL ISZERO DUP1 ISZERO PUSH2 0x2C0A JUMPI RETURNDATASIZE PUSH0 DUP1 RETURNDATACOPY RETURNDATASIZE PUSH0 REVERT JUMPDEST POP POP POP POP PUSH1 0x40 MLOAD RETURNDATASIZE PUSH0 DUP3 RETURNDATACOPY RETURNDATASIZE PUSH1 0x1F NOT PUSH1 0x1F DUP3 ADD AND DUP3 ADD DUP1 PUSH1 0x40 MSTORE POP DUP2 ADD SWAP1 PUSH2 0x2C32 SWAP2 SWAP1 PUSH2 0x67F5 JUMP JUMPDEST SWAP3 POP SWAP3 POP SWAP3 POP CALLER PUSH20 0xFFFFFFFFFFFFFFFFFFFFFFFFFFFFFFFFFFFFFFFF AND PUSH32 0x3FC8DE32D0FF2767D320C8C52FD3AB1A29DDF9484B23575845D542369BDFA37F DUP5 DUP5 DUP5 PUSH1 0x40 MLOAD PUSH2 0x2C82 SWAP4 SWAP3 SWAP2 SWAP1 PUSH2 0x6861 JUMP JUMPDEST PUSH1 0x40 MLOAD DUP1 SWAP2 SUB SWAP1 LOG2 POP POP POP JUMPDEST JUMPDEST PUSH2 0x3022 JUMP JUMPDEST PUSH0 DUP1 PUSH1 0x2 PUSH0 SWAP1 SLOAD SWAP1 PUSH2 0x100 EXP SWAP1 DIV PUSH20 0xFFFFFFFFFFFFFFFFFFFFFFFFFFFFFFFFFFFFFFFF AND PUSH20 0xFFFFFFFFFFFFFFFFFFFFFFFFFFFFFFFFFFFFFFFF AND PUSH4 0x1E349D1C CALLER PUSH1 0x40 MLOAD DUP3 PUSH4 0xFFFFFFFF AND PUSH1 0xE0 SHL DUP2 MSTORE PUSH1 0x4 ADD PUSH2 0x2CF0 SWAP2 SWAP1 PUSH2 0x6017 JUMP JUMPDEST PUSH0 PUSH1 0x40 MLOAD DUP1 DUP4 SUB DUP2 PUSH0 DUP8 GAS CALL ISZERO DUP1 ISZERO PUSH2 0x2D0B JUMPI RETURNDATASIZE PUSH0 DUP1 RETURNDATACOPY RETURNDATASIZE PUSH0 REVERT JUMPDEST POP POP POP POP PUSH1 0x40 MLOAD RETURNDATASIZE PUSH0 DUP3 RETURNDATACOPY RETURNDATASIZE PUSH1 0x1F NOT PUSH1 0x1F DUP3 ADD AND DUP3 ADD DUP1 PUSH1 0x40 MSTORE POP DUP2 ADD SWAP1 PUSH2 0x2D33 SWAP2 SWAP1 PUSH2 0x6913 JUMP JUMPDEST SWAP2 POP SWAP2 POP CALLER PUSH20 0xFFFFFFFFFFFFFFFFFFFFFFFFFFFFFFFFFFFFFFFF AND PUSH32 0x99160C89FDCCB67E1961CF554A10FFFB3DBBB7B2CD44A817F2AAC33DEB57D9D7 DUP4 DUP4 PUSH1 0x40 MLOAD PUSH2 0x2D7F SWAP3 SWAP2 SWAP1 PUSH2 0x696D JUMP JUMPDEST PUSH1 0x40 MLOAD DUP1 SWAP2 SUB SWAP1 LOG2 PUSH1 0x2 PUSH1 0x4 DUP2 GT ISZERO PUSH2 0x2D9B JUMPI PUSH2 0x2D9A PUSH2 0x60C5 JUMP JUMPDEST JUMPDEST PUSH1 0x1 PUSH0 SWAP1 SLOAD SWAP1 PUSH2 0x100 EXP SWAP1 DIV PUSH20 0xFFFFFFFFFFFFFFFFFFFFFFFFFFFFFFFFFFFFFFFF AND PUSH20 0xFFFFFFFFFFFFFFFFFFFFFFFFFFFFFFFFFFFFFFFF AND PUSH4 0x44276733 DUP10 PUSH1 0x40 MLOAD DUP3 PUSH4 0xFFFFFFFF AND PUSH1 0xE0 SHL DUP2 MSTORE PUSH1 0x4 ADD PUSH2 0x2DF5 SWAP2 SWAP1 PUSH2 0x6017 JUMP JUMPDEST PUSH1 0x20 PUSH1 0x40 MLOAD DUP1 DUP4 SUB DUP2 DUP7 GAS STATICCALL ISZERO DUP1 ISZERO PUSH2 0x2E10 JUMPI RETURNDATASIZE PUSH0 DUP1 RETURNDATACOPY RETURNDATASIZE PUSH0 REVERT JUMPDEST POP POP POP POP PUSH1 0x40 MLOAD RETURNDATASIZE PUSH1 0x1F NOT PUSH1 0x1F DUP3 ADD AND DUP3 ADD DUP1 PUSH1 0x40 MSTORE POP DUP2 ADD SWAP1 PUSH2 0x2E34 SWAP2 SWAP1 PUSH2 0x7012 JUMP JUMPDEST PUSH1 0x4 DUP2 GT ISZERO PUSH2 0x2E46 JUMPI PUSH2 0x2E45 PUSH2 0x60C5 JUMP JUMPDEST JUMPDEST EQ PUSH2 0x2F4B JUMPI PUSH0 DUP1 PUSH0 PUSH1 0x2 PUSH0 SWAP1 SLOAD SWAP1 PUSH2 0x100 EXP SWAP1 DIV PUSH20 0xFFFFFFFFFFFFFFFFFFFFFFFFFFFFFFFFFFFFFFFF AND PUSH20 0xFFFFFFFFFFFFFFFFFFFFFFFFFFFFFFFFFFFFFFFF AND PUSH4 0xC4DF01CE CALLER PUSH1 0x40 MLOAD DUP3 PUSH4 0xFFFFFFFF AND PUSH1 0xE0 SHL DUP2 MSTORE PUSH1 0x4 ADD PUSH2 0x2EA8 SWAP2 SWAP1 PUSH2 0x73D3 JUMP JUMPDEST PUSH0 PUSH1 0x40 MLOAD DUP1 DUP4 SUB DUP2 PUSH0 DUP8 GAS CALL ISZERO DUP1 ISZERO PUSH2 0x2EC3 JUMPI RETURNDATASIZE PUSH0 DUP1 RETURNDATACOPY RETURNDATASIZE PUSH0 REVERT JUMPDEST POP POP POP POP PUSH1 0x40 MLOAD RETURNDATASIZE PUSH0 DUP3 RETURNDATACOPY RETURNDATASIZE PUSH1 0x1F NOT PUSH1 0x1F DUP3 ADD AND DUP3 ADD DUP1 PUSH1 0x40 MSTORE POP DUP2 ADD SWAP1 PUSH2 0x2EEB SWAP2 SWAP1 PUSH2 0x67F5 JUMP JUMPDEST SWAP3 POP SWAP3 POP SWAP3 POP CALLER PUSH20 0xFFFFFFFFFFFFFFFFFFFFFFFFFFFFFFFFFFFFFFFF AND PUSH32 0x3FC8DE32D0FF2767D320C8C52FD3AB1A29DDF9484B23575845D542369BDFA37F DUP5 DUP5 DUP5 PUSH1 0x40 MLOAD PUSH2 0x2F3B SWAP4 SWAP3 SWAP2 SWAP1 PUSH2 0x6861 JUMP JUMPDEST PUSH1 0x40 MLOAD DUP1 SWAP2 SUB SWAP1 LOG2 POP POP POP PUSH2 0x301F JUMP JUMPDEST PUSH1 0x1 PUSH0 SWAP1 SLOAD SWAP1 PUSH2 0x100 EXP SWAP1 DIV PUSH20 0xFFFFFFFFFFFFFFFFFFFFFFFFFFFFFFFFFFFFFFFF AND PUSH20 0xFFFFFFFFFFFFFFFFFFFFFFFFFFFFFFFFFFFFFFFF AND PUSH4 0x80E52E3F DUP9 PUSH1 0x40 MLOAD DUP3 PUSH4 0xFFFFFFFF AND PUSH1 0xE0 SHL DUP2 MSTORE PUSH1 0x4 ADD PUSH2 0x2FA5 SWAP2 SWAP1 PUSH2 0x6017 JUMP JUMPDEST PUSH0 PUSH1 0x40 MLOAD DUP1 DUP4 SUB DUP2 PUSH0 DUP8 DUP1 EXTCODESIZE ISZERO DUP1 ISZERO PUSH2 0x2FBC JUMPI PUSH0 DUP1 REVERT JUMPDEST POP GAS CALL ISZERO DUP1 ISZERO PUSH2 0x2FCE JUMPI RETURNDATASIZE PUSH0 DUP1 RETURNDATACOPY RETURNDATASIZE PUSH0 REVERT JUMPDEST POP POP POP POP CALLER PUSH20 0xFFFFFFFFFFFFFFFFFFFFFFFFFFFFFFFFFFFFFFFF AND PUSH32 0x83D90DFABB9DD5929F37BEDD596EC8B76FEC40556DCF87A93C891C43ECBC35A2 PUSH1 0x40 MLOAD PUSH2 0x3016 SWAP1 PUSH2 0x7449 JUMP JUMPDEST PUSH1 0x40 MLOAD DUP1 SWAP2 SUB SWAP1 LOG2 JUMPDEST POP POP JUMPDEST POP POP POP POP POP JUMP JUMPDEST PUSH2 0x3031 PUSH2 0x5617 JUMP JUMPDEST PUSH1 0x5 PUSH1 0x40 MLOAD DUP1 PUSH1 0xA0 ADD PUSH1 0x40 MSTORE DUP1 DUP7 PUSH1 0x4 DUP2 GT ISZERO PUSH2 0x3051 JUMPI PUSH2 0x3050 PUSH2 0x60C5 JUMP JUMPDEST JUMPDEST DUP2 MSTORE PUSH1 0x20 ADD DUP6 DUP2 MSTORE PUSH1 0x20 ADD DUP5 DUP2 MSTORE PUSH1 0x20 ADD DUP4 DUP2 MSTORE PUSH1 0x20 ADD PUSH0 DUP2 MSTORE POP SWAP1 DUP1 PUSH1 0x1 DUP2 SLOAD ADD DUP1 DUP3 SSTORE DUP1 SWAP2 POP POP PUSH1 0x1 SWAP1 SUB SWAP1 PUSH0 MSTORE PUSH1 0x20 PUSH0 KECCAK256 SWAP1 PUSH1 0x5 MUL ADD PUSH0 SWAP1 SWAP2 SWAP1 SWAP2 SWAP1 SWAP2 POP PUSH0 DUP3 ADD MLOAD DUP2 PUSH0 ADD PUSH0 PUSH2 0x100 EXP DUP2 SLOAD DUP2 PUSH1 0xFF MUL NOT AND SWAP1 DUP4 PUSH1 0x4 DUP2 GT ISZERO PUSH2 0x30BA JUMPI PUSH2 0x30B9 PUSH2 0x60C5 JUMP JUMPDEST JUMPDEST MUL OR SWAP1 SSTORE POP PUSH1 0x20 DUP3 ADD MLOAD DUP2 PUSH1 0x1 ADD SWAP1 DUP2 PUSH2 0x30D4 SWAP2 SWAP1 PUSH2 0x645D JUMP JUMPDEST POP PUSH1 0x40 DUP3 ADD MLOAD DUP2 PUSH1 0x2 ADD SWAP1 DUP2 PUSH2 0x30EA SWAP2 SWAP1 PUSH2 0x645D JUMP JUMPDEST POP PUSH1 0x60 DUP3 ADD MLOAD DUP2 PUSH1 0x3 ADD SWAP1 DUP2 PUSH2 0x3100 SWAP2 SWAP1 PUSH2 0x645D JUMP JUMPDEST POP PUSH1 0x80 DUP3 ADD MLOAD DUP2 PUSH1 0x4 ADD SSTORE POP POP PUSH32 0xB90B27D205996A6CE127FC2F1BFBAD17D5D8270E9A27EBB35037F2D67853B6CF PUSH1 0x1 PUSH1 0x5 DUP1 SLOAD SWAP1 POP PUSH2 0x3140 SWAP2 SWAP1 PUSH2 0x7255 JUMP JUMPDEST DUP6 DUP6 DUP6 DUP6 PUSH1 0x40 MLOAD PUSH2 0x3155 SWAP6 SWAP5 SWAP4 SWAP3 SWAP2 SWAP1 PUSH2 0x652C JUMP JUMPDEST PUSH1 0x40 MLOAD DUP1 SWAP2 SUB SWAP1 LOG1 POP POP POP POP JUMP JUMPDEST PUSH2 0x316B PUSH2 0x5617 JUMP JUMPDEST PUSH2 0x3174 PUSH0 PUSH2 0x5834 JUMP JUMPDEST JUMP JUMPDEST PUSH1 0x3 PUSH0 SWAP1 SLOAD SWAP1 PUSH2 0x100 EXP SWAP1 DIV PUSH20 0xFFFFFFFFFFFFFFFFFFFFFFFFFFFFFFFFFFFFFFFF AND DUP2 JUMP JUMPDEST PUSH1 0x6 DUP2 DUP2 SLOAD DUP2 LT PUSH2 0x31AA JUMPI PUSH0 DUP1 REVERT JUMPDEST SWAP1 PUSH0 MSTORE PUSH1 0x20 PUSH0 KECCAK256 SWAP1 PUSH1 0x6 MUL ADD PUSH0 SWAP2 POP SWAP1 POP DUP1 PUSH0 ADD SLOAD SWAP1 DUP1 PUSH1 0x1 ADD DUP1 SLOAD PUSH2 0x31CF SWAP1 PUSH2 0x6299 JUMP JUMPDEST DUP1 PUSH1 0x1F ADD PUSH1 0x20 DUP1 SWAP2 DIV MUL PUSH1 0x20 ADD PUSH1 0x40 MLOAD SWAP1 DUP2 ADD PUSH1 0x40 MSTORE DUP1 SWAP3 SWAP2 SWAP1 DUP2 DUP2 MSTORE PUSH1 0x20 ADD DUP3 DUP1 SLOAD PUSH2 0x31FB SWAP1 PUSH2 0x6299 JUMP JUMPDEST DUP1 ISZERO PUSH2 0x3246 JUMPI DUP1 PUSH1 0x1F LT PUSH2 0x321D JUMPI PUSH2 0x100 DUP1 DUP4 SLOAD DIV MUL DUP4 MSTORE SWAP2 PUSH1 0x20 ADD SWAP2 PUSH2 0x3246 JUMP JUMPDEST DUP3 ADD SWAP2 SWAP1 PUSH0 MSTORE PUSH1 0x20 PUSH0 KECCAK256 SWAP1 JUMPDEST DUP2 SLOAD DUP2 MSTORE SWAP1 PUSH1 0x1 ADD SWAP1 PUSH1 0x20 ADD DUP1 DUP4 GT PUSH2 0x3229 JUMPI DUP3 SWAP1 SUB PUSH1 0x1F AND DUP3 ADD SWAP2 JUMPDEST POP POP POP POP POP SWAP1 DUP1 PUSH1 0x2 ADD DUP1 SLOAD PUSH2 0x325B SWAP1 PUSH2 0x6299 JUMP JUMPDEST DUP1 PUSH1 0x1F ADD PUSH1 0x20 DUP1 SWAP2 DIV MUL PUSH1 0x20 ADD PUSH1 0x40 MLOAD SWAP1 DUP2 ADD PUSH1 0x40 MSTORE DUP1 SWAP3 SWAP2 SWAP1 DUP2 DUP2 MSTORE PUSH1 0x20 ADD DUP3 DUP1 SLOAD PUSH2 0x3287 SWAP1 PUSH2 0x6299 JUMP JUMPDEST DUP1 ISZERO PUSH2 0x32D2 JUMPI DUP1 PUSH1 0x1F LT PUSH2 0x32A9 JUMPI PUSH2 0x100 DUP1 DUP4 SLOAD DIV MUL DUP4 MSTORE SWAP2 PUSH1 0x20 ADD SWAP2 PUSH2 0x32D2 JUMP JUMPDEST DUP3 ADD SWAP2 SWAP1 PUSH0 MSTORE PUSH1 0x20 PUSH0 KECCAK256 SWAP1 JUMPDEST DUP2 SLOAD DUP2 MSTORE SWAP1 PUSH1 0x1 ADD SWAP1 PUSH1 0x20 ADD DUP1 DUP4 GT PUSH2 0x32B5 JUMPI DUP3 SWAP1 SUB PUSH1 0x1F AND DUP3 ADD SWAP2 JUMPDEST POP POP POP POP POP SWAP1 DUP1 PUSH1 0x3 ADD SLOAD SWAP1 DUP1 PUSH1 0x4 ADD PUSH0 SWAP1 SLOAD SWAP1 PUSH2 0x100 EXP SWAP1 DIV PUSH20 0xFFFFFFFFFFFFFFFFFFFFFFFFFFFFFFFFFFFFFFFF AND SWAP1 DUP1 PUSH1 0x4 ADD PUSH1 0x14 SWAP1 SLOAD SWAP1 PUSH2 0x100 EXP SWAP1 DIV PUSH1 0xFF AND SWAP1 DUP1 PUSH1 0x4 ADD PUSH1 0x15 SWAP1 SLOAD SWAP1 PUSH2 0x100 EXP SWAP1 DIV PUSH1 0xFF AND SWAP1 DUP1 PUSH1 0x5 ADD SLOAD SWAP1 POP DUP9 JUMP JUMPDEST PUSH0 DUP1 PUSH0 SWAP1 SLOAD SWAP1 PUSH2 0x100 EXP SWAP1 DIV PUSH20 0xFFFFFFFFFFFFFFFFFFFFFFFFFFFFFFFFFFFFFFFF AND SWAP1 POP SWAP1 JUMP JUMPDEST PUSH0 PUSH1 0x2 PUSH0 SWAP1 SLOAD SWAP1 PUSH2 0x100 EXP SWAP1 DIV PUSH20 0xFFFFFFFFFFFFFFFFFFFFFFFFFFFFFFFFFFFFFFFF AND PUSH20 0xFFFFFFFFFFFFFFFFFFFFFFFFFFFFFFFFFFFFFFFF AND PUSH4 0xE104278 CALLER PUSH1 0x40 MLOAD DUP3 PUSH4 0xFFFFFFFF AND PUSH1 0xE0 SHL DUP2 MSTORE PUSH1 0x4 ADD PUSH2 0x33B5 SWAP2 SWAP1 PUSH2 0x6017 JUMP JUMPDEST PUSH1 0x20 PUSH1 0x40 MLOAD DUP1 DUP4 SUB DUP2 DUP7 GAS STATICCALL ISZERO DUP1 ISZERO PUSH2 0x33D0 JUMPI RETURNDATASIZE PUSH0 DUP1 RETURNDATACOPY RETURNDATASIZE PUSH0 REVERT JUMPDEST POP POP POP POP PUSH1 0x40 MLOAD RETURNDATASIZE PUSH1 0x1F NOT PUSH1 0x1F DUP3 ADD AND DUP3 ADD DUP1 PUSH1 0x40 MSTORE POP DUP2 ADD SWAP1 PUSH2 0x33F4 SWAP2 SWAP1 PUSH2 0x65A6 JUMP JUMPDEST SWAP1 POP DUP1 TIMESTAMP GT PUSH2 0x3438 JUMPI PUSH1 0x40 MLOAD PUSH32 0x8C379A000000000000000000000000000000000000000000000000000000000 DUP2 MSTORE PUSH1 0x4 ADD PUSH2 0x342F SWAP1 PUSH2 0x6641 JUMP JUMPDEST PUSH1 0x40 MLOAD DUP1 SWAP2 SUB SWAP1 REVERT JUMPDEST PUSH1 0x40 MLOAD DUP1 PUSH1 0x40 ADD PUSH1 0x40 MSTORE DUP1 PUSH1 0x12 DUP2 MSTORE PUSH1 0x20 ADD PUSH32 0x4C6F63616C5265736F757263655461626C650000000000000000000000000000 DUP2 MSTORE POP PUSH1 0x40 MLOAD DUP1 PUSH1 0x40 ADD PUSH1 0x40 MSTORE DUP1 PUSH1 0x4 DUP2 MSTORE PUSH1 0x20 ADD PUSH32 0x6564697400000000000000000000000000000000000000000000000000000000 DUP2 MSTORE POP PUSH0 DUP1 JUMPDEST PUSH1 0x6 DUP1 SLOAD SWAP1 POP DUP2 LT ISZERO PUSH2 0x3638 JUMPI CALLER PUSH20 0xFFFFFFFFFFFFFFFFFFFFFFFFFFFFFFFFFFFFFFFF AND PUSH1 0x6 DUP3 DUP2 SLOAD DUP2 LT PUSH2 0x34DF JUMPI PUSH2 0x34DE PUSH2 0x623F JUMP JUMPDEST JUMPDEST SWAP1 PUSH0 MSTORE PUSH1 0x20 PUSH0 KECCAK256 SWAP1 PUSH1 0x6 MUL ADD PUSH1 0x4 ADD PUSH0 SWAP1 SLOAD SWAP1 PUSH2 0x100 EXP SWAP1 DIV PUSH20 0xFFFFFFFFFFFFFFFFFFFFFFFFFFFFFFFFFFFFFFFF AND PUSH20 0xFFFFFFFFFFFFFFFFFFFFFFFFFFFFFFFFFFFFFFFF AND EQ DUP1 ISZERO PUSH2 0x355E JUMPI POP PUSH1 0x6 DUP2 DUP2 SLOAD DUP2 LT PUSH2 0x3540 JUMPI PUSH2 0x353F PUSH2 0x623F JUMP JUMPDEST JUMPDEST SWAP1 PUSH0 MSTORE PUSH1 0x20 PUSH0 KECCAK256 SWAP1 PUSH1 0x6 MUL ADD PUSH1 0x4 ADD PUSH1 0x15 SWAP1 SLOAD SWAP1 PUSH2 0x100 EXP SWAP1 DIV PUSH1 0xFF AND JUMPDEST ISZERO PUSH2 0x362B JUMPI DUP4 DUP1 MLOAD SWAP1 PUSH1 0x20 ADD KECCAK256 PUSH1 0x6 DUP3 DUP2 SLOAD DUP2 LT PUSH2 0x357F JUMPI PUSH2 0x357E PUSH2 0x623F JUMP JUMPDEST JUMPDEST SWAP1 PUSH0 MSTORE PUSH1 0x20 PUSH0 KECCAK256 SWAP1 PUSH1 0x6 MUL ADD PUSH1 0x1 ADD PUSH1 0x40 MLOAD PUSH2 0x359B SWAP2 SWAP1 PUSH2 0x66FB JUMP JUMPDEST PUSH1 0x40 MLOAD DUP1 SWAP2 SUB SWAP1 KECCAK256 EQ DUP1 ISZERO PUSH2 0x35ED JUMPI POP DUP3 DUP1 MLOAD SWAP1 PUSH1 0x20 ADD KECCAK256 PUSH1 0x6 DUP3 DUP2 SLOAD DUP2 LT PUSH2 0x35C7 JUMPI PUSH2 0x35C6 PUSH2 0x623F JUMP JUMPDEST JUMPDEST SWAP1 PUSH0 MSTORE PUSH1 0x20 PUSH0 KECCAK256 SWAP1 PUSH1 0x6 MUL ADD PUSH1 0x2 ADD PUSH1 0x40 MLOAD PUSH2 0x35E3 SWAP2 SWAP1 PUSH2 0x66FB JUMP JUMPDEST PUSH1 0x40 MLOAD DUP1 SWAP2 SUB SWAP1 KECCAK256 EQ JUMPDEST ISZERO PUSH2 0x362A JUMPI PUSH1 0x6 DUP2 DUP2 SLOAD DUP2 LT PUSH2 0x3606 JUMPI PUSH2 0x3605 PUSH2 0x623F JUMP JUMPDEST JUMPDEST SWAP1 PUSH0 MSTORE PUSH1 0x20 PUSH0 KECCAK256 SWAP1 PUSH1 0x6 MUL ADD PUSH1 0x4 ADD PUSH1 0x15 SWAP1 SLOAD SWAP1 PUSH2 0x100 EXP SWAP1 DIV PUSH1 0xFF AND SWAP2 POP PUSH2 0x3638 JUMP JUMPDEST JUMPDEST DUP1 DUP1 PUSH1 0x1 ADD SWAP2 POP POP PUSH2 0x34A7 JUMP JUMPDEST POP DUP1 PUSH2 0x3922 JUMPI PUSH1 0x40 MLOAD DUP1 PUSH1 0x40 ADD PUSH1 0x40 MSTORE DUP1 PUSH1 0x6 DUP2 MSTORE PUSH1 0x20 ADD PUSH32 0x64656C6574650000000000000000000000000000000000000000000000000000 DUP2 MSTORE POP DUP1 MLOAD SWAP1 PUSH1 0x20 ADD KECCAK256 DUP3 DUP1 MLOAD SWAP1 PUSH1 0x20 ADD KECCAK256 EQ DUP1 PUSH2 0x36D1 JUMPI POP DUP2 DUP1 MLOAD SWAP1 PUSH1 0x20 ADD KECCAK256 PUSH1 0x40 MLOAD DUP1 PUSH1 0x40 ADD PUSH1 0x40 MSTORE DUP1 PUSH1 0x4 DUP2 MSTORE PUSH1 0x20 ADD PUSH32 0x6564697400000000000000000000000000000000000000000000000000000000 DUP2 MSTORE POP DUP1 MLOAD SWAP1 PUSH1 0x20 ADD KECCAK256 EQ JUMPDEST ISZERO PUSH2 0x37D6 JUMPI PUSH0 DUP1 PUSH0 PUSH1 0x2 PUSH0 SWAP1 SLOAD SWAP1 PUSH2 0x100 EXP SWAP1 DIV PUSH20 0xFFFFFFFFFFFFFFFFFFFFFFFFFFFFFFFFFFFFFFFF AND PUSH20 0xFFFFFFFFFFFFFFFFFFFFFFFFFFFFFFFFFFFFFFFF AND PUSH4 0xC4DF01CE CALLER PUSH1 0x40 MLOAD DUP3 PUSH4 0xFFFFFFFF AND PUSH1 0xE0 SHL DUP2 MSTORE PUSH1 0x4 ADD PUSH2 0x3733 SWAP2 SWAP1 PUSH2 0x675B JUMP JUMPDEST PUSH0 PUSH1 0x40 MLOAD DUP1 DUP4 SUB DUP2 PUSH0 DUP8 GAS CALL ISZERO DUP1 ISZERO PUSH2 0x374E JUMPI RETURNDATASIZE PUSH0 DUP1 RETURNDATACOPY RETURNDATASIZE PUSH0 REVERT JUMPDEST POP POP POP POP PUSH1 0x40 MLOAD RETURNDATASIZE PUSH0 DUP3 RETURNDATACOPY RETURNDATASIZE PUSH1 0x1F NOT PUSH1 0x1F DUP3 ADD AND DUP3 ADD DUP1 PUSH1 0x40 MSTORE POP DUP2 ADD SWAP1 PUSH2 0x3776 SWAP2 SWAP1 PUSH2 0x67F5 JUMP JUMPDEST SWAP3 POP SWAP3 POP SWAP3 POP CALLER PUSH20 0xFFFFFFFFFFFFFFFFFFFFFFFFFFFFFFFFFFFFFFFF AND PUSH32 0x3FC8DE32D0FF2767D320C8C52FD3AB1A29DDF9484B23575845D542369BDFA37F DUP5 DUP5 DUP5 PUSH1 0x40 MLOAD PUSH2 0x37C6 SWAP4 SWAP3 SWAP2 SWAP1 PUSH2 0x6861 JUMP JUMPDEST PUSH1 0x40 MLOAD DUP1 SWAP2 SUB SWAP1 LOG2 POP POP POP PUSH2 0x391D JUMP JUMPDEST PUSH1 0x40 MLOAD DUP1 PUSH1 0x40 ADD PUSH1 0x40 MSTORE DUP1 PUSH1 0x4 DUP2 MSTORE PUSH1 0x20 ADD PUSH32 0x7669657700000000000000000000000000000000000000000000000000000000 DUP2 MSTORE POP DUP1 MLOAD SWAP1 PUSH1 0x20 ADD KECCAK256 DUP3 DUP1 MLOAD SWAP1 PUSH1 0x20 ADD KECCAK256 SUB PUSH2 0x391C JUMPI PUSH0 DUP1 PUSH0 PUSH1 0x2 PUSH0 SWAP1 SLOAD SWAP1 PUSH2 0x100 EXP SWAP1 DIV PUSH20 0xFFFFFFFFFFFFFFFFFFFFFFFFFFFFFFFFFFFFFFFF AND PUSH20 0xFFFFFFFFFFFFFFFFFFFFFFFFFFFFFFFFFFFFFFFF AND PUSH4 0xC4DF01CE CALLER PUSH1 0x40 MLOAD DUP3 PUSH4 0xFFFFFFFF AND PUSH1 0xE0 SHL DUP2 MSTORE PUSH1 0x4 ADD PUSH2 0x387D SWAP2 SWAP1 PUSH2 0x68E7 JUMP JUMPDEST PUSH0 PUSH1 0x40 MLOAD DUP1 DUP4 SUB DUP2 PUSH0 DUP8 GAS CALL ISZERO DUP1 ISZERO PUSH2 0x3898 JUMPI RETURNDATASIZE PUSH0 DUP1 RETURNDATACOPY RETURNDATASIZE PUSH0 REVERT JUMPDEST POP POP POP POP PUSH1 0x40 MLOAD RETURNDATASIZE PUSH0 DUP3 RETURNDATACOPY RETURNDATASIZE PUSH1 0x1F NOT PUSH1 0x1F DUP3 ADD AND DUP3 ADD DUP1 PUSH1 0x40 MSTORE POP DUP2 ADD SWAP1 PUSH2 0x38C0 SWAP2 SWAP1 PUSH2 0x67F5 JUMP JUMPDEST SWAP3 POP SWAP3 POP SWAP3 POP CALLER PUSH20 0xFFFFFFFFFFFFFFFFFFFFFFFFFFFFFFFFFFFFFFFF AND PUSH32 0x3FC8DE32D0FF2767D320C8C52FD3AB1A29DDF9484B23575845D542369BDFA37F DUP5 DUP5 DUP5 PUSH1 0x40 MLOAD PUSH2 0x3910 SWAP4 SWAP3 SWAP2 SWAP1 PUSH2 0x6861 JUMP JUMPDEST PUSH1 0x40 MLOAD DUP1 SWAP2 SUB SWAP1 LOG2 POP POP POP JUMPDEST JUMPDEST PUSH2 0x3F0C JUMP JUMPDEST PUSH0 DUP1 PUSH1 0x2 PUSH0 SWAP1 SLOAD SWAP1 PUSH2 0x100 EXP SWAP1 DIV PUSH20 0xFFFFFFFFFFFFFFFFFFFFFFFFFFFFFFFFFFFFFFFF AND PUSH20 0xFFFFFFFFFFFFFFFFFFFFFFFFFFFFFFFFFFFFFFFF AND PUSH4 0x1E349D1C CALLER PUSH1 0x40 MLOAD DUP3 PUSH4 0xFFFFFFFF AND PUSH1 0xE0 SHL DUP2 MSTORE PUSH1 0x4 ADD PUSH2 0x397E SWAP2 SWAP1 PUSH2 0x6017 JUMP JUMPDEST PUSH0 PUSH1 0x40 MLOAD DUP1 DUP4 SUB DUP2 PUSH0 DUP8 GAS CALL ISZERO DUP1 ISZERO PUSH2 0x3999 JUMPI RETURNDATASIZE PUSH0 DUP1 RETURNDATACOPY RETURNDATASIZE PUSH0 REVERT JUMPDEST POP POP POP POP PUSH1 0x40 MLOAD RETURNDATASIZE PUSH0 DUP3 RETURNDATACOPY RETURNDATASIZE PUSH1 0x1F NOT PUSH1 0x1F DUP3 ADD AND DUP3 ADD DUP1 PUSH1 0x40 MSTORE POP DUP2 ADD SWAP1 PUSH2 0x39C1 SWAP2 SWAP1 PUSH2 0x6913 JUMP JUMPDEST SWAP2 POP SWAP2 POP CALLER PUSH20 0xFFFFFFFFFFFFFFFFFFFFFFFFFFFFFFFFFFFFFFFF AND PUSH32 0x99160C89FDCCB67E1961CF554A10FFFB3DBBB7B2CD44A817F2AAC33DEB57D9D7 DUP4 DUP4 PUSH1 0x40 MLOAD PUSH2 0x3A0D SWAP3 SWAP2 SWAP1 PUSH2 0x696D JUMP JUMPDEST PUSH1 0x40 MLOAD DUP1 SWAP2 SUB SWAP1 LOG2 PUSH1 0x3 PUSH1 0x4 DUP2 GT ISZERO PUSH2 0x3A29 JUMPI PUSH2 0x3A28 PUSH2 0x60C5 JUMP JUMPDEST JUMPDEST PUSH1 0x1 PUSH0 SWAP1 SLOAD SWAP1 PUSH2 0x100 EXP SWAP1 DIV PUSH20 0xFFFFFFFFFFFFFFFFFFFFFFFFFFFFFFFFFFFFFFFF AND PUSH20 0xFFFFFFFFFFFFFFFFFFFFFFFFFFFFFFFFFFFFFFFF AND PUSH4 0x44276733 DUP11 PUSH1 0x40 MLOAD DUP3 PUSH4 0xFFFFFFFF AND PUSH1 0xE0 SHL DUP2 MSTORE PUSH1 0x4 ADD PUSH2 0x3A83 SWAP2 SWAP1 PUSH2 0x6017 JUMP JUMPDEST PUSH1 0x20 PUSH1 0x40 MLOAD DUP1 DUP4 SUB DUP2 DUP7 GAS STATICCALL ISZERO DUP1 ISZERO PUSH2 0x3A9E JUMPI RETURNDATASIZE PUSH0 DUP1 RETURNDATACOPY RETURNDATASIZE PUSH0 REVERT JUMPDEST POP POP POP POP PUSH1 0x40 MLOAD RETURNDATASIZE PUSH1 0x1F NOT PUSH1 0x1F DUP3 ADD AND DUP3 ADD DUP1 PUSH1 0x40 MSTORE POP DUP2 ADD SWAP1 PUSH2 0x3AC2 SWAP2 SWAP1 PUSH2 0x7012 JUMP JUMPDEST PUSH1 0x4 DUP2 GT ISZERO PUSH2 0x3AD4 JUMPI PUSH2 0x3AD3 PUSH2 0x60C5 JUMP JUMPDEST JUMPDEST EQ ISZERO DUP1 ISZERO PUSH2 0x3B9E JUMPI POP PUSH1 0x4 DUP1 DUP2 GT ISZERO PUSH2 0x3AF0 JUMPI PUSH2 0x3AEF PUSH2 0x60C5 JUMP JUMPDEST JUMPDEST PUSH1 0x1 PUSH0 SWAP1 SLOAD SWAP1 PUSH2 0x100 EXP SWAP1 DIV PUSH20 0xFFFFFFFFFFFFFFFFFFFFFFFFFFFFFFFFFFFFFFFF AND PUSH20 0xFFFFFFFFFFFFFFFFFFFFFFFFFFFFFFFFFFFFFFFF AND PUSH4 0x44276733 DUP11 PUSH1 0x40 MLOAD DUP3 PUSH4 0xFFFFFFFF AND PUSH1 0xE0 SHL DUP2 MSTORE PUSH1 0x4 ADD PUSH2 0x3B4A SWAP2 SWAP1 PUSH2 0x6017 JUMP JUMPDEST PUSH1 0x20 PUSH1 0x40 MLOAD DUP1 DUP4 SUB DUP2 DUP7 GAS STATICCALL ISZERO DUP1 ISZERO PUSH2 0x3B65 JUMPI RETURNDATASIZE PUSH0 DUP1 RETURNDATACOPY RETURNDATASIZE PUSH0 REVERT JUMPDEST POP POP POP POP PUSH1 0x40 MLOAD RETURNDATASIZE PUSH1 0x1F NOT PUSH1 0x1F DUP3 ADD AND DUP3 ADD DUP1 PUSH1 0x40 MSTORE POP DUP2 ADD SWAP1 PUSH2 0x3B89 SWAP2 SWAP1 PUSH2 0x7012 JUMP JUMPDEST PUSH1 0x4 DUP2 GT ISZERO PUSH2 0x3B9B JUMPI PUSH2 0x3B9A PUSH2 0x60C5 JUMP JUMPDEST JUMPDEST EQ ISZERO JUMPDEST DUP1 PUSH2 0x3D2E JUMPI POP PUSH1 0x3 PUSH1 0x4 DUP2 GT ISZERO PUSH2 0x3BB8 JUMPI PUSH2 0x3BB7 PUSH2 0x60C5 JUMP JUMPDEST JUMPDEST PUSH1 0x1 PUSH0 SWAP1 SLOAD SWAP1 PUSH2 0x100 EXP SWAP1 DIV PUSH20 0xFFFFFFFFFFFFFFFFFFFFFFFFFFFFFFFFFFFFFFFF AND PUSH20 0xFFFFFFFFFFFFFFFFFFFFFFFFFFFFFFFFFFFFFFFF AND PUSH4 0x44276733 DUP10 PUSH1 0x40 MLOAD DUP3 PUSH4 0xFFFFFFFF AND PUSH1 0xE0 SHL DUP2 MSTORE PUSH1 0x4 ADD PUSH2 0x3C12 SWAP2 SWAP1 PUSH2 0x6017 JUMP JUMPDEST PUSH1 0x20 PUSH1 0x40 MLOAD DUP1 DUP4 SUB DUP2 DUP7 GAS STATICCALL ISZERO DUP1 ISZERO PUSH2 0x3C2D JUMPI RETURNDATASIZE PUSH0 DUP1 RETURNDATACOPY RETURNDATASIZE PUSH0 REVERT JUMPDEST POP POP POP POP PUSH1 0x40 MLOAD RETURNDATASIZE PUSH1 0x1F NOT PUSH1 0x1F DUP3 ADD AND DUP3 ADD DUP1 PUSH1 0x40 MSTORE POP DUP2 ADD SWAP1 PUSH2 0x3C51 SWAP2 SWAP1 PUSH2 0x7012 JUMP JUMPDEST PUSH1 0x4 DUP2 GT ISZERO PUSH2 0x3C63 JUMPI PUSH2 0x3C62 PUSH2 0x60C5 JUMP JUMPDEST JUMPDEST EQ ISZERO DUP1 ISZERO PUSH2 0x3D2D JUMPI POP PUSH1 0x4 DUP1 DUP2 GT ISZERO PUSH2 0x3C7F JUMPI PUSH2 0x3C7E PUSH2 0x60C5 JUMP JUMPDEST JUMPDEST PUSH1 0x1 PUSH0 SWAP1 SLOAD SWAP1 PUSH2 0x100 EXP SWAP1 DIV PUSH20 0xFFFFFFFFFFFFFFFFFFFFFFFFFFFFFFFFFFFFFFFF AND PUSH20 0xFFFFFFFFFFFFFFFFFFFFFFFFFFFFFFFFFFFFFFFF AND PUSH4 0x44276733 DUP10 PUSH1 0x40 MLOAD DUP3 PUSH4 0xFFFFFFFF AND PUSH1 0xE0 SHL DUP2 MSTORE PUSH1 0x4 ADD PUSH2 0x3CD9 SWAP2 SWAP1 PUSH2 0x6017 JUMP JUMPDEST PUSH1 0x20 PUSH1 0x40 MLOAD DUP1 DUP4 SUB DUP2 DUP7 GAS STATICCALL ISZERO DUP1 ISZERO PUSH2 0x3CF4 JUMPI RETURNDATASIZE PUSH0 DUP1 RETURNDATACOPY RETURNDATASIZE PUSH0 REVERT JUMPDEST POP POP POP POP PUSH1 0x40 MLOAD RETURNDATASIZE PUSH1 0x1F NOT PUSH1 0x1F DUP3 ADD AND DUP3 ADD DUP1 PUSH1 0x40 MSTORE POP DUP2 ADD SWAP1 PUSH2 0x3D18 SWAP2 SWAP1 PUSH2 0x7012 JUMP JUMPDEST PUSH1 0x4 DUP2 GT ISZERO PUSH2 0x3D2A JUMPI PUSH2 0x3D29 PUSH2 0x60C5 JUMP JUMPDEST JUMPDEST EQ ISZERO JUMPDEST JUMPDEST ISZERO PUSH2 0x3E33 JUMPI PUSH0 DUP1 PUSH0 PUSH1 0x2 PUSH0 SWAP1 SLOAD SWAP1 PUSH2 0x100 EXP SWAP1 DIV PUSH20 0xFFFFFFFFFFFFFFFFFFFFFFFFFFFFFFFFFFFFFFFF AND PUSH20 0xFFFFFFFFFFFFFFFFFFFFFFFFFFFFFFFFFFFFFFFF AND PUSH4 0xC4DF01CE CALLER PUSH1 0x40 MLOAD DUP3 PUSH4 0xFFFFFFFF AND PUSH1 0xE0 SHL DUP2 MSTORE PUSH1 0x4 ADD PUSH2 0x3D90 SWAP2 SWAP1 PUSH2 0x73D3 JUMP JUMPDEST PUSH0 PUSH1 0x40 MLOAD DUP1 DUP4 SUB DUP2 PUSH0 DUP8 GAS CALL ISZERO DUP1 ISZERO PUSH2 0x3DAB JUMPI RETURNDATASIZE PUSH0 DUP1 RETURNDATACOPY RETURNDATASIZE PUSH0 REVERT JUMPDEST POP POP POP POP PUSH1 0x40 MLOAD RETURNDATASIZE PUSH0 DUP3 RETURNDATACOPY RETURNDATASIZE PUSH1 0x1F NOT PUSH1 0x1F DUP3 ADD AND DUP3 ADD DUP1 PUSH1 0x40 MSTORE POP DUP2 ADD SWAP1 PUSH2 0x3DD3 SWAP2 SWAP1 PUSH2 0x67F5 JUMP JUMPDEST SWAP3 POP SWAP3 POP SWAP3 POP CALLER PUSH20 0xFFFFFFFFFFFFFFFFFFFFFFFFFFFFFFFFFFFFFFFF AND PUSH32 0x3FC8DE32D0FF2767D320C8C52FD3AB1A29DDF9484B23575845D542369BDFA37F DUP5 DUP5 DUP5 PUSH1 0x40 MLOAD PUSH2 0x3E23 SWAP4 SWAP3 SWAP2 SWAP1 PUSH2 0x6861 JUMP JUMPDEST PUSH1 0x40 MLOAD DUP1 SWAP2 SUB SWAP1 LOG2 POP POP POP PUSH2 0x3F09 JUMP JUMPDEST PUSH1 0x1 PUSH0 SWAP1 SLOAD SWAP1 PUSH2 0x100 EXP SWAP1 DIV PUSH20 0xFFFFFFFFFFFFFFFFFFFFFFFFFFFFFFFFFFFFFFFF AND PUSH20 0xFFFFFFFFFFFFFFFFFFFFFFFFFFFFFFFFFFFFFFFF AND PUSH4 0x6FAB4804 DUP10 DUP10 PUSH1 0x40 MLOAD DUP4 PUSH4 0xFFFFFFFF AND PUSH1 0xE0 SHL DUP2 MSTORE PUSH1 0x4 ADD PUSH2 0x3E8F SWAP3 SWAP2 SWAP1 PUSH2 0x747A JUMP JUMPDEST PUSH0 PUSH1 0x40 MLOAD DUP1 DUP4 SUB DUP2 PUSH0 DUP8 DUP1 EXTCODESIZE ISZERO DUP1 ISZERO PUSH2 0x3EA6 JUMPI PUSH0 DUP1 REVERT JUMPDEST POP GAS CALL ISZERO DUP1 ISZERO PUSH2 0x3EB8 JUMPI RETURNDATASIZE PUSH0 DUP1 RETURNDATACOPY RETURNDATASIZE PUSH0 REVERT JUMPDEST POP POP POP POP CALLER PUSH20 0xFFFFFFFFFFFFFFFFFFFFFFFFFFFFFFFFFFFFFFFF AND PUSH32 0x83D90DFABB9DD5929F37BEDD596EC8B76FEC40556DCF87A93C891C43ECBC35A2 PUSH1 0x40 MLOAD PUSH2 0x3F00 SWAP1 PUSH2 0x7535 JUMP JUMPDEST PUSH1 0x40 MLOAD DUP1 SWAP2 SUB SWAP1 LOG2 JUMPDEST POP POP JUMPDEST POP POP POP POP POP POP JUMP JUMPDEST PUSH0 PUSH1 0x2 PUSH0 SWAP1 SLOAD SWAP1 PUSH2 0x100 EXP SWAP1 DIV PUSH20 0xFFFFFFFFFFFFFFFFFFFFFFFFFFFFFFFFFFFFFFFF AND PUSH20 0xFFFFFFFFFFFFFFFFFFFFFFFFFFFFFFFFFFFFFFFF AND PUSH4 0xE104278 CALLER PUSH1 0x40 MLOAD DUP3 PUSH4 0xFFFFFFFF AND PUSH1 0xE0 SHL DUP2 MSTORE PUSH1 0x4 ADD PUSH2 0x3F6F SWAP2 SWAP1 PUSH2 0x6017 JUMP JUMPDEST PUSH1 0x20 PUSH1 0x40 MLOAD DUP1 DUP4 SUB DUP2 DUP7 GAS STATICCALL ISZERO DUP1 ISZERO PUSH2 0x3F8A JUMPI RETURNDATASIZE PUSH0 DUP1 RETURNDATACOPY RETURNDATASIZE PUSH0 REVERT JUMPDEST POP POP POP POP PUSH1 0x40 MLOAD RETURNDATASIZE PUSH1 0x1F NOT PUSH1 0x1F DUP3 ADD AND DUP3 ADD DUP1 PUSH1 0x40 MSTORE POP DUP2 ADD SWAP1 PUSH2 0x3FAE SWAP2 SWAP1 PUSH2 0x65A6 JUMP JUMPDEST SWAP1 POP DUP1 TIMESTAMP GT PUSH2 0x3FF2 JUMPI PUSH1 0x40 MLOAD PUSH32 0x8C379A000000000000000000000000000000000000000000000000000000000 DUP2 MSTORE PUSH1 0x4 ADD PUSH2 0x3FE9 SWAP1 PUSH2 0x6641 JUMP JUMPDEST PUSH1 0x40 MLOAD DUP1 SWAP2 SUB SWAP1 REVERT JUMPDEST PUSH1 0x40 MLOAD DUP1 PUSH1 0x40 ADD PUSH1 0x40 MSTORE DUP1 PUSH1 0x12 DUP2 MSTORE PUSH1 0x20 ADD PUSH32 0x4C6F63616C5265736F757263655461626C650000000000000000000000000000 DUP2 MSTORE POP PUSH1 0x40 MLOAD DUP1 PUSH1 0x40 ADD PUSH1 0x40 MSTORE DUP1 PUSH1 0x6 DUP2 MSTORE PUSH1 0x20 ADD PUSH32 0x64656C6574650000000000000000000000000000000000000000000000000000 DUP2 MSTORE POP PUSH0 DUP1 JUMPDEST PUSH1 0x6 DUP1 SLOAD SWAP1 POP DUP2 LT ISZERO PUSH2 0x41F2 JUMPI CALLER PUSH20 0xFFFFFFFFFFFFFFFFFFFFFFFFFFFFFFFFFFFFFFFF AND PUSH1 0x6 DUP3 DUP2 SLOAD DUP2 LT PUSH2 0x4099 JUMPI PUSH2 0x4098 PUSH2 0x623F JUMP JUMPDEST JUMPDEST SWAP1 PUSH0 MSTORE PUSH1 0x20 PUSH0 KECCAK256 SWAP1 PUSH1 0x6 MUL ADD PUSH1 0x4 ADD PUSH0 SWAP1 SLOAD SWAP1 PUSH2 0x100 EXP SWAP1 DIV PUSH20 0xFFFFFFFFFFFFFFFFFFFFFFFFFFFFFFFFFFFFFFFF AND PUSH20 0xFFFFFFFFFFFFFFFFFFFFFFFFFFFFFFFFFFFFFFFF AND EQ DUP1 ISZERO PUSH2 0x4118 JUMPI POP PUSH1 0x6 DUP2 DUP2 SLOAD DUP2 LT PUSH2 0x40FA JUMPI PUSH2 0x40F9 PUSH2 0x623F JUMP JUMPDEST JUMPDEST SWAP1 PUSH0 MSTORE PUSH1 0x20 PUSH0 KECCAK256 SWAP1 PUSH1 0x6 MUL ADD PUSH1 0x4 ADD PUSH1 0x15 SWAP1 SLOAD SWAP1 PUSH2 0x100 EXP SWAP1 DIV PUSH1 0xFF AND JUMPDEST ISZERO PUSH2 0x41E5 JUMPI DUP4 DUP1 MLOAD SWAP1 PUSH1 0x20 ADD KECCAK256 PUSH1 0x6 DUP3 DUP2 SLOAD DUP2 LT PUSH2 0x4139 JUMPI PUSH2 0x4138 PUSH2 0x623F JUMP JUMPDEST JUMPDEST SWAP1 PUSH0 MSTORE PUSH1 0x20 PUSH0 KECCAK256 SWAP1 PUSH1 0x6 MUL ADD PUSH1 0x1 ADD PUSH1 0x40 MLOAD PUSH2 0x4155 SWAP2 SWAP1 PUSH2 0x66FB JUMP JUMPDEST PUSH1 0x40 MLOAD DUP1 SWAP2 SUB SWAP1 KECCAK256 EQ DUP1 ISZERO PUSH2 0x41A7 JUMPI POP DUP3 DUP1 MLOAD SWAP1 PUSH1 0x20 ADD KECCAK256 PUSH1 0x6 DUP3 DUP2 SLOAD DUP2 LT PUSH2 0x4181 JUMPI PUSH2 0x4180 PUSH2 0x623F JUMP JUMPDEST JUMPDEST SWAP1 PUSH0 MSTORE PUSH1 0x20 PUSH0 KECCAK256 SWAP1 PUSH1 0x6 MUL ADD PUSH1 0x2 ADD PUSH1 0x40 MLOAD PUSH2 0x419D SWAP2 SWAP1 PUSH2 0x66FB JUMP JUMPDEST PUSH1 0x40 MLOAD DUP1 SWAP2 SUB SWAP1 KECCAK256 EQ JUMPDEST ISZERO PUSH2 0x41E4 JUMPI PUSH1 0x6 DUP2 DUP2 SLOAD DUP2 LT PUSH2 0x41C0 JUMPI PUSH2 0x41BF PUSH2 0x623F JUMP JUMPDEST JUMPDEST SWAP1 PUSH0 MSTORE PUSH1 0x20 PUSH0 KECCAK256 SWAP1 PUSH1 0x6 MUL ADD PUSH1 0x4 ADD PUSH1 0x15 SWAP1 SLOAD SWAP1 PUSH2 0x100 EXP SWAP1 DIV PUSH1 0xFF AND SWAP2 POP PUSH2 0x41F2 JUMP JUMPDEST JUMPDEST DUP1 DUP1 PUSH1 0x1 ADD SWAP2 POP POP PUSH2 0x4061 JUMP JUMPDEST POP DUP1 PUSH2 0x44DC JUMPI PUSH1 0x40 MLOAD DUP1 PUSH1 0x40 ADD PUSH1 0x40 MSTORE DUP1 PUSH1 0x6 DUP2 MSTORE PUSH1 0x20 ADD PUSH32 0x64656C6574650000000000000000000000000000000000000000000000000000 DUP2 MSTORE POP DUP1 MLOAD SWAP1 PUSH1 0x20 ADD KECCAK256 DUP3 DUP1 MLOAD SWAP1 PUSH1 0x20 ADD KECCAK256 EQ DUP1 PUSH2 0x428B JUMPI POP DUP2 DUP1 MLOAD SWAP1 PUSH1 0x20 ADD KECCAK256 PUSH1 0x40 MLOAD DUP1 PUSH1 0x40 ADD PUSH1 0x40 MSTORE DUP1 PUSH1 0x4 DUP2 MSTORE PUSH1 0x20 ADD PUSH32 0x6564697400000000000000000000000000000000000000000000000000000000 DUP2 MSTORE POP DUP1 MLOAD SWAP1 PUSH1 0x20 ADD KECCAK256 EQ JUMPDEST ISZERO PUSH2 0x4390 JUMPI PUSH0 DUP1 PUSH0 PUSH1 0x2 PUSH0 SWAP1 SLOAD SWAP1 PUSH2 0x100 EXP SWAP1 DIV PUSH20 0xFFFFFFFFFFFFFFFFFFFFFFFFFFFFFFFFFFFFFFFF AND PUSH20 0xFFFFFFFFFFFFFFFFFFFFFFFFFFFFFFFFFFFFFFFF AND PUSH4 0xC4DF01CE CALLER PUSH1 0x40 MLOAD DUP3 PUSH4 0xFFFFFFFF AND PUSH1 0xE0 SHL DUP2 MSTORE PUSH1 0x4 ADD PUSH2 0x42ED SWAP2 SWAP1 PUSH2 0x675B JUMP JUMPDEST PUSH0 PUSH1 0x40 MLOAD DUP1 DUP4 SUB DUP2 PUSH0 DUP8 GAS CALL ISZERO DUP1 ISZERO PUSH2 0x4308 JUMPI RETURNDATASIZE PUSH0 DUP1 RETURNDATACOPY RETURNDATASIZE PUSH0 REVERT JUMPDEST POP POP POP POP PUSH1 0x40 MLOAD RETURNDATASIZE PUSH0 DUP3 RETURNDATACOPY RETURNDATASIZE PUSH1 0x1F NOT PUSH1 0x1F DUP3 ADD AND DUP3 ADD DUP1 PUSH1 0x40 MSTORE POP DUP2 ADD SWAP1 PUSH2 0x4330 SWAP2 SWAP1 PUSH2 0x67F5 JUMP JUMPDEST SWAP3 POP SWAP3 POP SWAP3 POP CALLER PUSH20 0xFFFFFFFFFFFFFFFFFFFFFFFFFFFFFFFFFFFFFFFF AND PUSH32 0x3FC8DE32D0FF2767D320C8C52FD3AB1A29DDF9484B23575845D542369BDFA37F DUP5 DUP5 DUP5 PUSH1 0x40 MLOAD PUSH2 0x4380 SWAP4 SWAP3 SWAP2 SWAP1 PUSH2 0x6861 JUMP JUMPDEST PUSH1 0x40 MLOAD DUP1 SWAP2 SUB SWAP1 LOG2 POP POP POP PUSH2 0x44D7 JUMP JUMPDEST PUSH1 0x40 MLOAD DUP1 PUSH1 0x40 ADD PUSH1 0x40 MSTORE DUP1 PUSH1 0x4 DUP2 MSTORE PUSH1 0x20 ADD PUSH32 0x7669657700000000000000000000000000000000000000000000000000000000 DUP2 MSTORE POP DUP1 MLOAD SWAP1 PUSH1 0x20 ADD KECCAK256 DUP3 DUP1 MLOAD SWAP1 PUSH1 0x20 ADD KECCAK256 SUB PUSH2 0x44D6 JUMPI PUSH0 DUP1 PUSH0 PUSH1 0x2 PUSH0 SWAP1 SLOAD SWAP1 PUSH2 0x100 EXP SWAP1 DIV PUSH20 0xFFFFFFFFFFFFFFFFFFFFFFFFFFFFFFFFFFFFFFFF AND PUSH20 0xFFFFFFFFFFFFFFFFFFFFFFFFFFFFFFFFFFFFFFFF AND PUSH4 0xC4DF01CE CALLER PUSH1 0x40 MLOAD DUP3 PUSH4 0xFFFFFFFF AND PUSH1 0xE0 SHL DUP2 MSTORE PUSH1 0x4 ADD PUSH2 0x4437 SWAP2 SWAP1 PUSH2 0x68E7 JUMP JUMPDEST PUSH0 PUSH1 0x40 MLOAD DUP1 DUP4 SUB DUP2 PUSH0 DUP8 GAS CALL ISZERO DUP1 ISZERO PUSH2 0x4452 JUMPI RETURNDATASIZE PUSH0 DUP1 RETURNDATACOPY RETURNDATASIZE PUSH0 REVERT JUMPDEST POP POP POP POP PUSH1 0x40 MLOAD RETURNDATASIZE PUSH0 DUP3 RETURNDATACOPY RETURNDATASIZE PUSH1 0x1F NOT PUSH1 0x1F DUP3 ADD AND DUP3 ADD DUP1 PUSH1 0x40 MSTORE POP DUP2 ADD SWAP1 PUSH2 0x447A SWAP2 SWAP1 PUSH2 0x67F5 JUMP JUMPDEST SWAP3 POP SWAP3 POP SWAP3 POP CALLER PUSH20 0xFFFFFFFFFFFFFFFFFFFFFFFFFFFFFFFFFFFFFFFF AND PUSH32 0x3FC8DE32D0FF2767D320C8C52FD3AB1A29DDF9484B23575845D542369BDFA37F DUP5 DUP5 DUP5 PUSH1 0x40 MLOAD PUSH2 0x44CA SWAP4 SWAP3 SWAP2 SWAP1 PUSH2 0x6861 JUMP JUMPDEST PUSH1 0x40 MLOAD DUP1 SWAP2 SUB SWAP1 LOG2 POP POP POP JUMPDEST JUMPDEST PUSH2 0x4933 JUMP JUMPDEST PUSH0 DUP1 PUSH1 0x2 PUSH0 SWAP1 SLOAD SWAP1 PUSH2 0x100 EXP SWAP1 DIV PUSH20 0xFFFFFFFFFFFFFFFFFFFFFFFFFFFFFFFFFFFFFFFF AND PUSH20 0xFFFFFFFFFFFFFFFFFFFFFFFFFFFFFFFFFFFFFFFF AND PUSH4 0x1E349D1C CALLER PUSH1 0x40 MLOAD DUP3 PUSH4 0xFFFFFFFF AND PUSH1 0xE0 SHL DUP2 MSTORE PUSH1 0x4 ADD PUSH2 0x4538 SWAP2 SWAP1 PUSH2 0x6017 JUMP JUMPDEST PUSH0 PUSH1 0x40 MLOAD DUP1 DUP4 SUB DUP2 PUSH0 DUP8 GAS CALL ISZERO DUP1 ISZERO PUSH2 0x4553 JUMPI RETURNDATASIZE PUSH0 DUP1 RETURNDATACOPY RETURNDATASIZE PUSH0 REVERT JUMPDEST POP POP POP POP PUSH1 0x40 MLOAD RETURNDATASIZE PUSH0 DUP3 RETURNDATACOPY RETURNDATASIZE PUSH1 0x1F NOT PUSH1 0x1F DUP3 ADD AND DUP3 ADD DUP1 PUSH1 0x40 MSTORE POP DUP2 ADD SWAP1 PUSH2 0x457B SWAP2 SWAP1 PUSH2 0x6913 JUMP JUMPDEST SWAP2 POP SWAP2 POP CALLER PUSH20 0xFFFFFFFFFFFFFFFFFFFFFFFFFFFFFFFFFFFFFFFF AND PUSH32 0x99160C89FDCCB67E1961CF554A10FFFB3DBBB7B2CD44A817F2AAC33DEB57D9D7 DUP4 DUP4 PUSH1 0x40 MLOAD PUSH2 0x45C7 SWAP3 SWAP2 SWAP1 PUSH2 0x696D JUMP JUMPDEST PUSH1 0x40 MLOAD DUP1 SWAP2 SUB SWAP1 LOG2 PUSH1 0x3 PUSH1 0x4 DUP2 GT ISZERO PUSH2 0x45E3 JUMPI PUSH2 0x45E2 PUSH2 0x60C5 JUMP JUMPDEST JUMPDEST PUSH1 0x1 PUSH0 SWAP1 SLOAD SWAP1 PUSH2 0x100 EXP SWAP1 DIV PUSH20 0xFFFFFFFFFFFFFFFFFFFFFFFFFFFFFFFFFFFFFFFF AND PUSH20 0xFFFFFFFFFFFFFFFFFFFFFFFFFFFFFFFFFFFFFFFF AND PUSH4 0x44276733 DUP10 PUSH1 0x40 MLOAD DUP3 PUSH4 0xFFFFFFFF AND PUSH1 0xE0 SHL DUP2 MSTORE PUSH1 0x4 ADD PUSH2 0x463D SWAP2 SWAP1 PUSH2 0x6017 JUMP JUMPDEST PUSH1 0x20 PUSH1 0x40 MLOAD DUP1 DUP4 SUB DUP2 DUP7 GAS STATICCALL ISZERO DUP1 ISZERO PUSH2 0x4658 JUMPI RETURNDATASIZE PUSH0 DUP1 RETURNDATACOPY RETURNDATASIZE PUSH0 REVERT JUMPDEST POP POP POP POP PUSH1 0x40 MLOAD RETURNDATASIZE PUSH1 0x1F NOT PUSH1 0x1F DUP3 ADD AND DUP3 ADD DUP1 PUSH1 0x40 MSTORE POP DUP2 ADD SWAP1 PUSH2 0x467C SWAP2 SWAP1 PUSH2 0x7012 JUMP JUMPDEST PUSH1 0x4 DUP2 GT ISZERO PUSH2 0x468E JUMPI PUSH2 0x468D PUSH2 0x60C5 JUMP JUMPDEST JUMPDEST EQ ISZERO DUP1 PUSH2 0x4757 JUMPI POP PUSH1 0x4 DUP1 DUP2 GT ISZERO PUSH2 0x46A9 JUMPI PUSH2 0x46A8 PUSH2 0x60C5 JUMP JUMPDEST JUMPDEST PUSH1 0x1 PUSH0 SWAP1 SLOAD SWAP1 PUSH2 0x100 EXP SWAP1 DIV PUSH20 0xFFFFFFFFFFFFFFFFFFFFFFFFFFFFFFFFFFFFFFFF AND PUSH20 0xFFFFFFFFFFFFFFFFFFFFFFFFFFFFFFFFFFFFFFFF AND PUSH4 0x44276733 DUP10 PUSH1 0x40 MLOAD DUP3 PUSH4 0xFFFFFFFF AND PUSH1 0xE0 SHL DUP2 MSTORE PUSH1 0x4 ADD PUSH2 0x4703 SWAP2 SWAP1 PUSH2 0x6017 JUMP JUMPDEST PUSH1 0x20 PUSH1 0x40 MLOAD DUP1 DUP4 SUB DUP2 DUP7 GAS STATICCALL ISZERO DUP1 ISZERO PUSH2 0x471E JUMPI RETURNDATASIZE PUSH0 DUP1 RETURNDATACOPY RETURNDATASIZE PUSH0 REVERT JUMPDEST POP POP POP POP PUSH1 0x40 MLOAD RETURNDATASIZE PUSH1 0x1F NOT PUSH1 0x1F DUP3 ADD AND DUP3 ADD DUP1 PUSH1 0x40 MSTORE POP DUP2 ADD SWAP1 PUSH2 0x4742 SWAP2 SWAP1 PUSH2 0x7012 JUMP JUMPDEST PUSH1 0x4 DUP2 GT ISZERO PUSH2 0x4754 JUMPI PUSH2 0x4753 PUSH2 0x60C5 JUMP JUMPDEST JUMPDEST EQ ISZERO JUMPDEST ISZERO PUSH2 0x485C JUMPI PUSH0 DUP1 PUSH0 PUSH1 0x2 PUSH0 SWAP1 SLOAD SWAP1 PUSH2 0x100 EXP SWAP1 DIV PUSH20 0xFFFFFFFFFFFFFFFFFFFFFFFFFFFFFFFFFFFFFFFF AND PUSH20 0xFFFFFFFFFFFFFFFFFFFFFFFFFFFFFFFFFFFFFFFF AND PUSH4 0xC4DF01CE CALLER PUSH1 0x40 MLOAD DUP3 PUSH4 0xFFFFFFFF AND PUSH1 0xE0 SHL DUP2 MSTORE PUSH1 0x4 ADD PUSH2 0x47B9 SWAP2 SWAP1 PUSH2 0x73D3 JUMP JUMPDEST PUSH0 PUSH1 0x40 MLOAD DUP1 DUP4 SUB DUP2 PUSH0 DUP8 GAS CALL ISZERO DUP1 ISZERO PUSH2 0x47D4 JUMPI RETURNDATASIZE PUSH0 DUP1 RETURNDATACOPY RETURNDATASIZE PUSH0 REVERT JUMPDEST POP POP POP POP PUSH1 0x40 MLOAD RETURNDATASIZE PUSH0 DUP3 RETURNDATACOPY RETURNDATASIZE PUSH1 0x1F NOT PUSH1 0x1F DUP3 ADD AND DUP3 ADD DUP1 PUSH1 0x40 MSTORE POP DUP2 ADD SWAP1 PUSH2 0x47FC SWAP2 SWAP1 PUSH2 0x67F5 JUMP JUMPDEST SWAP3 POP SWAP3 POP SWAP3 POP CALLER PUSH20 0xFFFFFFFFFFFFFFFFFFFFFFFFFFFFFFFFFFFFFFFF AND PUSH32 0x3FC8DE32D0FF2767D320C8C52FD3AB1A29DDF9484B23575845D542369BDFA37F DUP5 DUP5 DUP5 PUSH1 0x40 MLOAD PUSH2 0x484C SWAP4 SWAP3 SWAP2 SWAP1 PUSH2 0x6861 JUMP JUMPDEST PUSH1 0x40 MLOAD DUP1 SWAP2 SUB SWAP1 LOG2 POP POP POP PUSH2 0x4930 JUMP JUMPDEST PUSH1 0x1 PUSH0 SWAP1 SLOAD SWAP1 PUSH2 0x100 EXP SWAP1 DIV PUSH20 0xFFFFFFFFFFFFFFFFFFFFFFFFFFFFFFFFFFFFFFFF AND PUSH20 0xFFFFFFFFFFFFFFFFFFFFFFFFFFFFFFFFFFFFFFFF AND PUSH4 0x80E52E3F DUP9 PUSH1 0x40 MLOAD DUP3 PUSH4 0xFFFFFFFF AND PUSH1 0xE0 SHL DUP2 MSTORE PUSH1 0x4 ADD PUSH2 0x48B6 SWAP2 SWAP1 PUSH2 0x6017 JUMP JUMPDEST PUSH0 PUSH1 0x40 MLOAD DUP1 DUP4 SUB DUP2 PUSH0 DUP8 DUP1 EXTCODESIZE ISZERO DUP1 ISZERO PUSH2 0x48CD JUMPI PUSH0 DUP1 REVERT JUMPDEST POP GAS CALL ISZERO DUP1 ISZERO PUSH2 0x48DF JUMPI RETURNDATASIZE PUSH0 DUP1 RETURNDATACOPY RETURNDATASIZE PUSH0 REVERT JUMPDEST POP POP POP POP CALLER PUSH20 0xFFFFFFFFFFFFFFFFFFFFFFFFFFFFFFFFFFFFFFFF AND PUSH32 0x83D90DFABB9DD5929F37BEDD596EC8B76FEC40556DCF87A93C891C43ECBC35A2 PUSH1 0x40 MLOAD PUSH2 0x4927 SWAP1 PUSH2 0x7566 JUMP JUMPDEST PUSH1 0x40 MLOAD DUP1 SWAP2 SUB SWAP1 LOG2 JUMPDEST POP POP JUMPDEST POP POP POP POP POP JUMP JUMPDEST PUSH1 0x7 PUSH1 0x20 MSTORE DUP2 PUSH0 MSTORE PUSH1 0x40 PUSH0 KECCAK256 PUSH1 0x20 MSTORE DUP1 PUSH0 MSTORE PUSH1 0x40 PUSH0 KECCAK256 PUSH0 SWAP2 POP SWAP2 POP SWAP1 SLOAD SWAP1 PUSH2 0x100 EXP SWAP1 DIV PUSH1 0xFF AND DUP2 JUMP JUMPDEST PUSH0 PUSH1 0x2 PUSH0 SWAP1 SLOAD SWAP1 PUSH2 0x100 EXP SWAP1 DIV PUSH20 0xFFFFFFFFFFFFFFFFFFFFFFFFFFFFFFFFFFFFFFFF AND PUSH20 0xFFFFFFFFFFFFFFFFFFFFFFFFFFFFFFFFFFFFFFFF AND PUSH4 0xE104278 CALLER PUSH1 0x40 MLOAD DUP3 PUSH4 0xFFFFFFFF AND PUSH1 0xE0 SHL DUP2 MSTORE PUSH1 0x4 ADD PUSH2 0x49BF SWAP2 SWAP1 PUSH2 0x6017 JUMP JUMPDEST PUSH1 0x20 PUSH1 0x40 MLOAD DUP1 DUP4 SUB DUP2 DUP7 GAS STATICCALL ISZERO DUP1 ISZERO PUSH2 0x49DA JUMPI RETURNDATASIZE PUSH0 DUP1 RETURNDATACOPY RETURNDATASIZE PUSH0 REVERT JUMPDEST POP POP POP POP PUSH1 0x40 MLOAD RETURNDATASIZE PUSH1 0x1F NOT PUSH1 0x1F DUP3 ADD AND DUP3 ADD DUP1 PUSH1 0x40 MSTORE POP DUP2 ADD SWAP1 PUSH2 0x49FE SWAP2 SWAP1 PUSH2 0x65A6 JUMP JUMPDEST SWAP1 POP DUP1 TIMESTAMP GT PUSH2 0x4A42 JUMPI PUSH1 0x40 MLOAD PUSH32 0x8C379A000000000000000000000000000000000000000000000000000000000 DUP2 MSTORE PUSH1 0x4 ADD PUSH2 0x4A39 SWAP1 PUSH2 0x6641 JUMP JUMPDEST PUSH1 0x40 MLOAD DUP1 SWAP2 SUB SWAP1 REVERT JUMPDEST PUSH1 0x40 MLOAD DUP1 PUSH1 0x40 ADD PUSH1 0x40 MSTORE DUP1 PUSH1 0x13 DUP2 MSTORE PUSH1 0x20 ADD PUSH32 0x476C6F62616C5265736F757263655461626C6500000000000000000000000000 DUP2 MSTORE POP PUSH1 0x40 MLOAD DUP1 PUSH1 0x40 ADD PUSH1 0x40 MSTORE DUP1 PUSH1 0x4 DUP2 MSTORE PUSH1 0x20 ADD PUSH32 0x6564697400000000000000000000000000000000000000000000000000000000 DUP2 MSTORE POP PUSH0 DUP1 JUMPDEST PUSH1 0x6 DUP1 SLOAD SWAP1 POP DUP2 LT ISZERO PUSH2 0x4C42 JUMPI CALLER PUSH20 0xFFFFFFFFFFFFFFFFFFFFFFFFFFFFFFFFFFFFFFFF AND PUSH1 0x6 DUP3 DUP2 SLOAD DUP2 LT PUSH2 0x4AE9 JUMPI PUSH2 0x4AE8 PUSH2 0x623F JUMP JUMPDEST JUMPDEST SWAP1 PUSH0 MSTORE PUSH1 0x20 PUSH0 KECCAK256 SWAP1 PUSH1 0x6 MUL ADD PUSH1 0x4 ADD PUSH0 SWAP1 SLOAD SWAP1 PUSH2 0x100 EXP SWAP1 DIV PUSH20 0xFFFFFFFFFFFFFFFFFFFFFFFFFFFFFFFFFFFFFFFF AND PUSH20 0xFFFFFFFFFFFFFFFFFFFFFFFFFFFFFFFFFFFFFFFF AND EQ DUP1 ISZERO PUSH2 0x4B68 JUMPI POP PUSH1 0x6 DUP2 DUP2 SLOAD DUP2 LT PUSH2 0x4B4A JUMPI PUSH2 0x4B49 PUSH2 0x623F JUMP JUMPDEST JUMPDEST SWAP1 PUSH0 MSTORE PUSH1 0x20 PUSH0 KECCAK256 SWAP1 PUSH1 0x6 MUL ADD PUSH1 0x4 ADD PUSH1 0x15 SWAP1 SLOAD SWAP1 PUSH2 0x100 EXP SWAP1 DIV PUSH1 0xFF AND JUMPDEST ISZERO PUSH2 0x4C35 JUMPI DUP4 DUP1 MLOAD SWAP1 PUSH1 0x20 ADD KECCAK256 PUSH1 0x6 DUP3 DUP2 SLOAD DUP2 LT PUSH2 0x4B89 JUMPI PUSH2 0x4B88 PUSH2 0x623F JUMP JUMPDEST JUMPDEST SWAP1 PUSH0 MSTORE PUSH1 0x20 PUSH0 KECCAK256 SWAP1 PUSH1 0x6 MUL ADD PUSH1 0x1 ADD PUSH1 0x40 MLOAD PUSH2 0x4BA5 SWAP2 SWAP1 PUSH2 0x66FB JUMP JUMPDEST PUSH1 0x40 MLOAD DUP1 SWAP2 SUB SWAP1 KECCAK256 EQ DUP1 ISZERO PUSH2 0x4BF7 JUMPI POP DUP3 DUP1 MLOAD SWAP1 PUSH1 0x20 ADD KECCAK256 PUSH1 0x6 DUP3 DUP2 SLOAD DUP2 LT PUSH2 0x4BD1 JUMPI PUSH2 0x4BD0 PUSH2 0x623F JUMP JUMPDEST JUMPDEST SWAP1 PUSH0 MSTORE PUSH1 0x20 PUSH0 KECCAK256 SWAP1 PUSH1 0x6 MUL ADD PUSH1 0x2 ADD PUSH1 0x40 MLOAD PUSH2 0x4BED SWAP2 SWAP1 PUSH2 0x66FB JUMP JUMPDEST PUSH1 0x40 MLOAD DUP1 SWAP2 SUB SWAP1 KECCAK256 EQ JUMPDEST ISZERO PUSH2 0x4C34 JUMPI PUSH1 0x6 DUP2 DUP2 SLOAD DUP2 LT PUSH2 0x4C10 JUMPI PUSH2 0x4C0F PUSH2 0x623F JUMP JUMPDEST JUMPDEST SWAP1 PUSH0 MSTORE PUSH1 0x20 PUSH0 KECCAK256 SWAP1 PUSH1 0x6 MUL ADD PUSH1 0x4 ADD PUSH1 0x15 SWAP1 SLOAD SWAP1 PUSH2 0x100 EXP SWAP1 DIV PUSH1 0xFF AND SWAP2 POP PUSH2 0x4C42 JUMP JUMPDEST JUMPDEST DUP1 DUP1 PUSH1 0x1 ADD SWAP2 POP POP PUSH2 0x4AB1 JUMP JUMPDEST POP DUP1 PUSH2 0x4F2C JUMPI PUSH1 0x40 MLOAD DUP1 PUSH1 0x40 ADD PUSH1 0x40 MSTORE DUP1 PUSH1 0x6 DUP2 MSTORE PUSH1 0x20 ADD PUSH32 0x64656C6574650000000000000000000000000000000000000000000000000000 DUP2 MSTORE POP DUP1 MLOAD SWAP1 PUSH1 0x20 ADD KECCAK256 DUP3 DUP1 MLOAD SWAP1 PUSH1 0x20 ADD KECCAK256 EQ DUP1 PUSH2 0x4CDB JUMPI POP DUP2 DUP1 MLOAD SWAP1 PUSH1 0x20 ADD KECCAK256 PUSH1 0x40 MLOAD DUP1 PUSH1 0x40 ADD PUSH1 0x40 MSTORE DUP1 PUSH1 0x4 DUP2 MSTORE PUSH1 0x20 ADD PUSH32 0x6564697400000000000000000000000000000000000000000000000000000000 DUP2 MSTORE POP DUP1 MLOAD SWAP1 PUSH1 0x20 ADD KECCAK256 EQ JUMPDEST ISZERO PUSH2 0x4DE0 JUMPI PUSH0 DUP1 PUSH0 PUSH1 0x2 PUSH0 SWAP1 SLOAD SWAP1 PUSH2 0x100 EXP SWAP1 DIV PUSH20 0xFFFFFFFFFFFFFFFFFFFFFFFFFFFFFFFFFFFFFFFF AND PUSH20 0xFFFFFFFFFFFFFFFFFFFFFFFFFFFFFFFFFFFFFFFF AND PUSH4 0xC4DF01CE CALLER PUSH1 0x40 MLOAD DUP3 PUSH4 0xFFFFFFFF AND PUSH1 0xE0 SHL DUP2 MSTORE PUSH1 0x4 ADD PUSH2 0x4D3D SWAP2 SWAP1 PUSH2 0x675B JUMP JUMPDEST PUSH0 PUSH1 0x40 MLOAD DUP1 DUP4 SUB DUP2 PUSH0 DUP8 GAS CALL ISZERO DUP1 ISZERO PUSH2 0x4D58 JUMPI RETURNDATASIZE PUSH0 DUP1 RETURNDATACOPY RETURNDATASIZE PUSH0 REVERT JUMPDEST POP POP POP POP PUSH1 0x40 MLOAD RETURNDATASIZE PUSH0 DUP3 RETURNDATACOPY RETURNDATASIZE PUSH1 0x1F NOT PUSH1 0x1F DUP3 ADD AND DUP3 ADD DUP1 PUSH1 0x40 MSTORE POP DUP2 ADD SWAP1 PUSH2 0x4D80 SWAP2 SWAP1 PUSH2 0x67F5 JUMP JUMPDEST SWAP3 POP SWAP3 POP SWAP3 POP CALLER PUSH20 0xFFFFFFFFFFFFFFFFFFFFFFFFFFFFFFFFFFFFFFFF AND PUSH32 0x3FC8DE32D0FF2767D320C8C52FD3AB1A29DDF9484B23575845D542369BDFA37F DUP5 DUP5 DUP5 PUSH1 0x40 MLOAD PUSH2 0x4DD0 SWAP4 SWAP3 SWAP2 SWAP1 PUSH2 0x6861 JUMP JUMPDEST PUSH1 0x40 MLOAD DUP1 SWAP2 SUB SWAP1 LOG2 POP POP POP PUSH2 0x4F27 JUMP JUMPDEST PUSH1 0x40 MLOAD DUP1 PUSH1 0x40 ADD PUSH1 0x40 MSTORE DUP1 PUSH1 0x4 DUP2 MSTORE PUSH1 0x20 ADD PUSH32 0x7669657700000000000000000000000000000000000000000000000000000000 DUP2 MSTORE POP DUP1 MLOAD SWAP1 PUSH1 0x20 ADD KECCAK256 DUP3 DUP1 MLOAD SWAP1 PUSH1 0x20 ADD KECCAK256 SUB PUSH2 0x4F26 JUMPI PUSH0 DUP1 PUSH0 PUSH1 0x2 PUSH0 SWAP1 SLOAD SWAP1 PUSH2 0x100 EXP SWAP1 DIV PUSH20 0xFFFFFFFFFFFFFFFFFFFFFFFFFFFFFFFFFFFFFFFF AND PUSH20 0xFFFFFFFFFFFFFFFFFFFFFFFFFFFFFFFFFFFFFFFF AND PUSH4 0xC4DF01CE CALLER PUSH1 0x40 MLOAD DUP3 PUSH4 0xFFFFFFFF AND PUSH1 0xE0 SHL DUP2 MSTORE PUSH1 0x4 ADD PUSH2 0x4E87 SWAP2 SWAP1 PUSH2 0x68E7 JUMP JUMPDEST PUSH0 PUSH1 0x40 MLOAD DUP1 DUP4 SUB DUP2 PUSH0 DUP8 GAS CALL ISZERO DUP1 ISZERO PUSH2 0x4EA2 JUMPI RETURNDATASIZE PUSH0 DUP1 RETURNDATACOPY RETURNDATASIZE PUSH0 REVERT JUMPDEST POP POP POP POP PUSH1 0x40 MLOAD RETURNDATASIZE PUSH0 DUP3 RETURNDATACOPY RETURNDATASIZE PUSH1 0x1F NOT PUSH1 0x1F DUP3 ADD AND DUP3 ADD DUP1 PUSH1 0x40 MSTORE POP DUP2 ADD SWAP1 PUSH2 0x4ECA SWAP2 SWAP1 PUSH2 0x67F5 JUMP JUMPDEST SWAP3 POP SWAP3 POP SWAP3 POP CALLER PUSH20 0xFFFFFFFFFFFFFFFFFFFFFFFFFFFFFFFFFFFFFFFF AND PUSH32 0x3FC8DE32D0FF2767D320C8C52FD3AB1A29DDF9484B23575845D542369BDFA37F DUP5 DUP5 DUP5 PUSH1 0x40 MLOAD PUSH2 0x4F1A SWAP4 SWAP3 SWAP2 SWAP1 PUSH2 0x6861 JUMP JUMPDEST PUSH1 0x40 MLOAD DUP1 SWAP2 SUB SWAP1 LOG2 POP POP POP JUMPDEST JUMPDEST PUSH2 0x5387 JUMP JUMPDEST PUSH0 DUP1 PUSH1 0x2 PUSH0 SWAP1 SLOAD SWAP1 PUSH2 0x100 EXP SWAP1 DIV PUSH20 0xFFFFFFFFFFFFFFFFFFFFFFFFFFFFFFFFFFFFFFFF AND PUSH20 0xFFFFFFFFFFFFFFFFFFFFFFFFFFFFFFFFFFFFFFFF AND PUSH4 0x1E349D1C CALLER PUSH1 0x40 MLOAD DUP3 PUSH4 0xFFFFFFFF AND PUSH1 0xE0 SHL DUP2 MSTORE PUSH1 0x4 ADD PUSH2 0x4F88 SWAP2 SWAP1 PUSH2 0x6017 JUMP JUMPDEST PUSH0 PUSH1 0x40 MLOAD DUP1 DUP4 SUB DUP2 PUSH0 DUP8 GAS CALL ISZERO DUP1 ISZERO PUSH2 0x4FA3 JUMPI RETURNDATASIZE PUSH0 DUP1 RETURNDATACOPY RETURNDATASIZE PUSH0 REVERT JUMPDEST POP POP POP POP PUSH1 0x40 MLOAD RETURNDATASIZE PUSH0 DUP3 RETURNDATACOPY RETURNDATASIZE PUSH1 0x1F NOT PUSH1 0x1F DUP3 ADD AND DUP3 ADD DUP1 PUSH1 0x40 MSTORE POP DUP2 ADD SWAP1 PUSH2 0x4FCB SWAP2 SWAP1 PUSH2 0x6913 JUMP JUMPDEST SWAP2 POP SWAP2 POP CALLER PUSH20 0xFFFFFFFFFFFFFFFFFFFFFFFFFFFFFFFFFFFFFFFF AND PUSH32 0x99160C89FDCCB67E1961CF554A10FFFB3DBBB7B2CD44A817F2AAC33DEB57D9D7 DUP4 DUP4 PUSH1 0x40 MLOAD PUSH2 0x5017 SWAP3 SWAP2 SWAP1 PUSH2 0x696D JUMP JUMPDEST PUSH1 0x40 MLOAD DUP1 SWAP2 SUB SWAP1 LOG2 PUSH1 0x2 PUSH1 0x4 DUP2 GT ISZERO PUSH2 0x5033 JUMPI PUSH2 0x5032 PUSH2 0x60C5 JUMP JUMPDEST JUMPDEST PUSH1 0x1 PUSH0 SWAP1 SLOAD SWAP1 PUSH2 0x100 EXP SWAP1 DIV PUSH20 0xFFFFFFFFFFFFFFFFFFFFFFFFFFFFFFFFFFFFFFFF AND PUSH20 0xFFFFFFFFFFFFFFFFFFFFFFFFFFFFFFFFFFFFFFFF AND PUSH4 0x44276733 DUP11 PUSH1 0x40 MLOAD DUP3 PUSH4 0xFFFFFFFF AND PUSH1 0xE0 SHL DUP2 MSTORE PUSH1 0x4 ADD PUSH2 0x508D SWAP2 SWAP1 PUSH2 0x6017 JUMP JUMPDEST PUSH1 0x20 PUSH1 0x40 MLOAD DUP1 DUP4 SUB DUP2 DUP7 GAS STATICCALL ISZERO DUP1 ISZERO PUSH2 0x50A8 JUMPI RETURNDATASIZE PUSH0 DUP1 RETURNDATACOPY RETURNDATASIZE PUSH0 REVERT JUMPDEST POP POP POP POP PUSH1 0x40 MLOAD RETURNDATASIZE PUSH1 0x1F NOT PUSH1 0x1F DUP3 ADD AND DUP3 ADD DUP1 PUSH1 0x40 MSTORE POP DUP2 ADD SWAP1 PUSH2 0x50CC SWAP2 SWAP1 PUSH2 0x7012 JUMP JUMPDEST PUSH1 0x4 DUP2 GT ISZERO PUSH2 0x50DE JUMPI PUSH2 0x50DD PUSH2 0x60C5 JUMP JUMPDEST JUMPDEST EQ ISZERO DUP1 ISZERO PUSH2 0x51A9 JUMPI POP PUSH1 0x2 PUSH1 0x4 DUP2 GT ISZERO PUSH2 0x50FB JUMPI PUSH2 0x50FA PUSH2 0x60C5 JUMP JUMPDEST JUMPDEST PUSH1 0x1 PUSH0 SWAP1 SLOAD SWAP1 PUSH2 0x100 EXP SWAP1 DIV PUSH20 0xFFFFFFFFFFFFFFFFFFFFFFFFFFFFFFFFFFFFFFFF AND PUSH20 0xFFFFFFFFFFFFFFFFFFFFFFFFFFFFFFFFFFFFFFFF AND PUSH4 0x44276733 DUP10 PUSH1 0x40 MLOAD DUP3 PUSH4 0xFFFFFFFF AND PUSH1 0xE0 SHL DUP2 MSTORE PUSH1 0x4 ADD PUSH2 0x5155 SWAP2 SWAP1 PUSH2 0x6017 JUMP JUMPDEST PUSH1 0x20 PUSH1 0x40 MLOAD DUP1 DUP4 SUB DUP2 DUP7 GAS STATICCALL ISZERO DUP1 ISZERO PUSH2 0x5170 JUMPI RETURNDATASIZE PUSH0 DUP1 RETURNDATACOPY RETURNDATASIZE PUSH0 REVERT JUMPDEST POP POP POP POP PUSH1 0x40 MLOAD RETURNDATASIZE PUSH1 0x1F NOT PUSH1 0x1F DUP3 ADD AND DUP3 ADD DUP1 PUSH1 0x40 MSTORE POP DUP2 ADD SWAP1 PUSH2 0x5194 SWAP2 SWAP1 PUSH2 0x7012 JUMP JUMPDEST PUSH1 0x4 DUP2 GT ISZERO PUSH2 0x51A6 JUMPI PUSH2 0x51A5 PUSH2 0x60C5 JUMP JUMPDEST JUMPDEST EQ ISZERO JUMPDEST ISZERO PUSH2 0x52AE JUMPI PUSH0 DUP1 PUSH0 PUSH1 0x2 PUSH0 SWAP1 SLOAD SWAP1 PUSH2 0x100 EXP SWAP1 DIV PUSH20 0xFFFFFFFFFFFFFFFFFFFFFFFFFFFFFFFFFFFFFFFF AND PUSH20 0xFFFFFFFFFFFFFFFFFFFFFFFFFFFFFFFFFFFFFFFF AND PUSH4 0xC4DF01CE CALLER PUSH1 0x40 MLOAD DUP3 PUSH4 0xFFFFFFFF AND PUSH1 0xE0 SHL DUP2 MSTORE PUSH1 0x4 ADD PUSH2 0x520B SWAP2 SWAP1 PUSH2 0x73D3 JUMP JUMPDEST PUSH0 PUSH1 0x40 MLOAD DUP1 DUP4 SUB DUP2 PUSH0 DUP8 GAS CALL ISZERO DUP1 ISZERO PUSH2 0x5226 JUMPI RETURNDATASIZE PUSH0 DUP1 RETURNDATACOPY RETURNDATASIZE PUSH0 REVERT JUMPDEST POP POP POP POP PUSH1 0x40 MLOAD RETURNDATASIZE PUSH0 DUP3 RETURNDATACOPY RETURNDATASIZE PUSH1 0x1F NOT PUSH1 0x1F DUP3 ADD AND DUP3 ADD DUP1 PUSH1 0x40 MSTORE POP DUP2 ADD SWAP1 PUSH2 0x524E SWAP2 SWAP1 PUSH2 0x67F5 JUMP JUMPDEST SWAP3 POP SWAP3 POP SWAP3 POP CALLER PUSH20 0xFFFFFFFFFFFFFFFFFFFFFFFFFFFFFFFFFFFFFFFF AND PUSH32 0x3FC8DE32D0FF2767D320C8C52FD3AB1A29DDF9484B23575845D542369BDFA37F DUP5 DUP5 DUP5 PUSH1 0x40 MLOAD PUSH2 0x529E SWAP4 SWAP3 SWAP2 SWAP1 PUSH2 0x6861 JUMP JUMPDEST PUSH1 0x40 MLOAD DUP1 SWAP2 SUB SWAP1 LOG2 POP POP POP PUSH2 0x5384 JUMP JUMPDEST PUSH1 0x1 PUSH0 SWAP1 SLOAD SWAP1 PUSH2 0x100 EXP SWAP1 DIV PUSH20 0xFFFFFFFFFFFFFFFFFFFFFFFFFFFFFFFFFFFFFFFF AND PUSH20 0xFFFFFFFFFFFFFFFFFFFFFFFFFFFFFFFFFFFFFFFF AND PUSH4 0x6FAB4804 DUP10 DUP10 PUSH1 0x40 MLOAD DUP4 PUSH4 0xFFFFFFFF AND PUSH1 0xE0 SHL DUP2 MSTORE PUSH1 0x4 ADD PUSH2 0x530A SWAP3 SWAP2 SWAP1 PUSH2 0x747A JUMP JUMPDEST PUSH0 PUSH1 0x40 MLOAD DUP1 DUP4 SUB DUP2 PUSH0 DUP8 DUP1 EXTCODESIZE ISZERO DUP1 ISZERO PUSH2 0x5321 JUMPI PUSH0 DUP1 REVERT JUMPDEST POP GAS CALL ISZERO DUP1 ISZERO PUSH2 0x5333 JUMPI RETURNDATASIZE PUSH0 DUP1 RETURNDATACOPY RETURNDATASIZE PUSH0 REVERT JUMPDEST POP POP POP POP CALLER PUSH20 0xFFFFFFFFFFFFFFFFFFFFFFFFFFFFFFFFFFFFFFFF AND PUSH32 0x83D90DFABB9DD5929F37BEDD596EC8B76FEC40556DCF87A93C891C43ECBC35A2 PUSH1 0x40 MLOAD PUSH2 0x537B SWAP1 PUSH2 0x7597 JUMP JUMPDEST PUSH1 0x40 MLOAD DUP1 SWAP2 SUB SWAP1 LOG2 JUMPDEST POP POP JUMPDEST POP POP POP POP POP POP JUMP JUMPDEST PUSH1 0x5 DUP2 DUP2 SLOAD DUP2 LT PUSH2 0x539E JUMPI PUSH0 DUP1 REVERT JUMPDEST SWAP1 PUSH0 MSTORE PUSH1 0x20 PUSH0 KECCAK256 SWAP1 PUSH1 0x5 MUL ADD PUSH0 SWAP2 POP SWAP1 POP DUP1 PUSH0 ADD PUSH0 SWAP1 SLOAD SWAP1 PUSH2 0x100 EXP SWAP1 DIV PUSH1 0xFF AND SWAP1 DUP1 PUSH1 0x1 ADD DUP1 SLOAD PUSH2 0x53CF SWAP1 PUSH2 0x6299 JUMP JUMPDEST DUP1 PUSH1 0x1F ADD PUSH1 0x20 DUP1 SWAP2 DIV MUL PUSH1 0x20 ADD PUSH1 0x40 MLOAD SWAP1 DUP2 ADD PUSH1 0x40 MSTORE DUP1 SWAP3 SWAP2 SWAP1 DUP2 DUP2 MSTORE PUSH1 0x20 ADD DUP3 DUP1 SLOAD PUSH2 0x53FB SWAP1 PUSH2 0x6299 JUMP JUMPDEST DUP1 ISZERO PUSH2 0x5446 JUMPI DUP1 PUSH1 0x1F LT PUSH2 0x541D JUMPI PUSH2 0x100 DUP1 DUP4 SLOAD DIV MUL DUP4 MSTORE SWAP2 PUSH1 0x20 ADD SWAP2 PUSH2 0x5446 JUMP JUMPDEST DUP3 ADD SWAP2 SWAP1 PUSH0 MSTORE PUSH1 0x20 PUSH0 KECCAK256 SWAP1 JUMPDEST DUP2 SLOAD DUP2 MSTORE SWAP1 PUSH1 0x1 ADD SWAP1 PUSH1 0x20 ADD DUP1 DUP4 GT PUSH2 0x5429 JUMPI DUP3 SWAP1 SUB PUSH1 0x1F AND DUP3 ADD SWAP2 JUMPDEST POP POP POP POP POP SWAP1 DUP1 PUSH1 0x2 ADD DUP1 SLOAD PUSH2 0x545B SWAP1 PUSH2 0x6299 JUMP JUMPDEST DUP1 PUSH1 0x1F ADD PUSH1 0x20 DUP1 SWAP2 DIV MUL PUSH1 0x20 ADD PUSH1 0x40 MLOAD SWAP1 DUP2 ADD PUSH1 0x40 MSTORE DUP1 SWAP3 SWAP2 SWAP1 DUP2 DUP2 MSTORE PUSH1 0x20 ADD DUP3 DUP1 SLOAD PUSH2 0x5487 SWAP1 PUSH2 0x6299 JUMP JUMPDEST DUP1 ISZERO PUSH2 0x54D2 JUMPI DUP1 PUSH1 0x1F LT PUSH2 0x54A9 JUMPI PUSH2 0x100 DUP1 DUP4 SLOAD DIV MUL DUP4 MSTORE SWAP2 PUSH1 0x20 ADD SWAP2 PUSH2 0x54D2 JUMP JUMPDEST DUP3 ADD SWAP2 SWAP1 PUSH0 MSTORE PUSH1 0x20 PUSH0 KECCAK256 SWAP1 JUMPDEST DUP2 SLOAD DUP2 MSTORE SWAP1 PUSH1 0x1 ADD SWAP1 PUSH1 0x20 ADD DUP1 DUP4 GT PUSH2 0x54B5 JUMPI DUP3 SWAP1 SUB PUSH1 0x1F AND DUP3 ADD SWAP2 JUMPDEST POP POP POP POP POP SWAP1 DUP1 PUSH1 0x3 ADD DUP1 SLOAD PUSH2 0x54E7 SWAP1 PUSH2 0x6299 JUMP JUMPDEST DUP1 PUSH1 0x1F ADD PUSH1 0x20 DUP1 SWAP2 DIV MUL PUSH1 0x20 ADD PUSH1 0x40 MLOAD SWAP1 DUP2 ADD PUSH1 0x40 MSTORE DUP1 SWAP3 SWAP2 SWAP1 DUP2 DUP2 MSTORE PUSH1 0x20 ADD DUP3 DUP1 SLOAD PUSH2 0x5513 SWAP1 PUSH2 0x6299 JUMP JUMPDEST DUP1 ISZERO PUSH2 0x555E JUMPI DUP1 PUSH1 0x1F LT PUSH2 0x5535 JUMPI PUSH2 0x100 DUP1 DUP4 SLOAD DIV MUL DUP4 MSTORE SWAP2 PUSH1 0x20 ADD SWAP2 PUSH2 0x555E JUMP JUMPDEST DUP3 ADD SWAP2 SWAP1 PUSH0 MSTORE PUSH1 0x20 PUSH0 KECCAK256 SWAP1 JUMPDEST DUP2 SLOAD DUP2 MSTORE SWAP1 PUSH1 0x1 ADD SWAP1 PUSH1 0x20 ADD DUP1 DUP4 GT PUSH2 0x5541 JUMPI DUP3 SWAP1 SUB PUSH1 0x1F AND DUP3 ADD SWAP2 JUMPDEST POP POP POP POP POP SWAP1 DUP1 PUSH1 0x4 ADD SLOAD SWAP1 POP DUP6 JUMP JUMPDEST PUSH1 0x2 PUSH0 SWAP1 SLOAD SWAP1 PUSH2 0x100 EXP SWAP1 DIV PUSH20 0xFFFFFFFFFFFFFFFFFFFFFFFFFFFFFFFFFFFFFFFF AND DUP2 JUMP JUMPDEST PUSH2 0x559B PUSH2 0x5617 JUMP JUMPDEST PUSH0 PUSH20 0xFFFFFFFFFFFFFFFFFFFFFFFFFFFFFFFFFFFFFFFF AND DUP2 PUSH20 0xFFFFFFFFFFFFFFFFFFFFFFFFFFFFFFFFFFFFFFFF AND SUB PUSH2 0x560B JUMPI PUSH0 PUSH1 0x40 MLOAD PUSH32 0x1E4FBDF700000000000000000000000000000000000000000000000000000000 DUP2 MSTORE PUSH1 0x4 ADD PUSH2 0x5602 SWAP2 SWAP1 PUSH2 0x6017 JUMP JUMPDEST PUSH1 0x40 MLOAD DUP1 SWAP2 SUB SWAP1 REVERT JUMPDEST PUSH2 0x5614 DUP2 PUSH2 0x5834 JUMP JUMPDEST POP JUMP JUMPDEST PUSH2 0x561F PUSH2 0x58F5 JUMP JUMPDEST PUSH20 0xFFFFFFFFFFFFFFFFFFFFFFFFFFFFFFFFFFFFFFFF AND PUSH2 0x563D PUSH2 0x3333 JUMP JUMPDEST PUSH20 0xFFFFFFFFFFFFFFFFFFFFFFFFFFFFFFFFFFFFFFFF AND EQ PUSH2 0x569C JUMPI PUSH2 0x5660 PUSH2 0x58F5 JUMP JUMPDEST PUSH1 0x40 MLOAD PUSH32 0x118CDAA700000000000000000000000000000000000000000000000000000000 DUP2 MSTORE PUSH1 0x4 ADD PUSH2 0x5693 SWAP2 SWAP1 PUSH2 0x6017 JUMP JUMPDEST PUSH1 0x40 MLOAD DUP1 SWAP2 SUB SWAP1 REVERT JUMPDEST JUMP JUMPDEST PUSH0 DUP1 PUSH0 SWAP1 POP JUMPDEST PUSH1 0x5 DUP1 SLOAD SWAP1 POP DUP2 LT ISZERO PUSH2 0x5828 JUMPI DUP3 PUSH1 0x4 DUP2 GT ISZERO PUSH2 0x56C4 JUMPI PUSH2 0x56C3 PUSH2 0x60C5 JUMP JUMPDEST JUMPDEST PUSH1 0x5 DUP3 DUP2 SLOAD DUP2 LT PUSH2 0x56D8 JUMPI PUSH2 0x56D7 PUSH2 0x623F JUMP JUMPDEST JUMPDEST SWAP1 PUSH0 MSTORE PUSH1 0x20 PUSH0 KECCAK256 SWAP1 PUSH1 0x5 MUL ADD PUSH0 ADD PUSH0 SWAP1 SLOAD SWAP1 PUSH2 0x100 EXP SWAP1 DIV PUSH1 0xFF AND PUSH1 0x4 DUP2 GT ISZERO PUSH2 0x5705 JUMPI PUSH2 0x5704 PUSH2 0x60C5 JUMP JUMPDEST JUMPDEST EQ DUP1 ISZERO PUSH2 0x574F JUMPI POP DUP5 DUP1 MLOAD SWAP1 PUSH1 0x20 ADD KECCAK256 PUSH1 0x5 DUP3 DUP2 SLOAD DUP2 LT PUSH2 0x5729 JUMPI PUSH2 0x5728 PUSH2 0x623F JUMP JUMPDEST JUMPDEST SWAP1 PUSH0 MSTORE PUSH1 0x20 PUSH0 KECCAK256 SWAP1 PUSH1 0x5 MUL ADD PUSH1 0x1 ADD PUSH1 0x40 MLOAD PUSH2 0x5745 SWAP2 SWAP1 PUSH2 0x66FB JUMP JUMPDEST PUSH1 0x40 MLOAD DUP1 SWAP2 SUB SWAP1 KECCAK256 EQ JUMPDEST DUP1 ISZERO PUSH2 0x5798 JUMPI POP DUP4 DUP1 MLOAD SWAP1 PUSH1 0x20 ADD KECCAK256 PUSH1 0x5 DUP3 DUP2 SLOAD DUP2 LT PUSH2 0x5772 JUMPI PUSH2 0x5771 PUSH2 0x623F JUMP JUMPDEST JUMPDEST SWAP1 PUSH0 MSTORE PUSH1 0x20 PUSH0 KECCAK256 SWAP1 PUSH1 0x5 MUL ADD PUSH1 0x2 ADD PUSH1 0x40 MLOAD PUSH2 0x578E SWAP2 SWAP1 PUSH2 0x66FB JUMP JUMPDEST PUSH1 0x40 MLOAD DUP1 SWAP2 SUB SWAP1 KECCAK256 EQ JUMPDEST ISZERO PUSH2 0x581B JUMPI PUSH1 0x40 MLOAD DUP1 PUSH1 0x40 ADD PUSH1 0x40 MSTORE DUP1 PUSH1 0x5 DUP2 MSTORE PUSH1 0x20 ADD PUSH32 0x616C6C6F77000000000000000000000000000000000000000000000000000000 DUP2 MSTORE POP DUP1 MLOAD SWAP1 PUSH1 0x20 ADD KECCAK256 PUSH1 0x5 DUP3 DUP2 SLOAD DUP2 LT PUSH2 0x57EE JUMPI PUSH2 0x57ED PUSH2 0x623F JUMP JUMPDEST JUMPDEST SWAP1 PUSH0 MSTORE PUSH1 0x20 PUSH0 KECCAK256 SWAP1 PUSH1 0x5 MUL ADD PUSH1 0x3 ADD PUSH1 0x40 MLOAD PUSH2 0x580A SWAP2 SWAP1 PUSH2 0x66FB JUMP JUMPDEST PUSH1 0x40 MLOAD DUP1 SWAP2 SUB SWAP1 KECCAK256 EQ SWAP2 POP POP PUSH2 0x582D JUMP JUMPDEST DUP1 DUP1 PUSH1 0x1 ADD SWAP2 POP POP PUSH2 0x56A4 JUMP JUMPDEST POP PUSH0 SWAP1 POP JUMPDEST SWAP4 SWAP3 POP POP POP JUMP JUMPDEST PUSH0 DUP1 PUSH0 SWAP1 SLOAD SWAP1 PUSH2 0x100 EXP SWAP1 DIV PUSH20 0xFFFFFFFFFFFFFFFFFFFFFFFFFFFFFFFFFFFFFFFF AND SWAP1 POP DUP2 PUSH0 DUP1 PUSH2 0x100 EXP DUP2 SLOAD DUP2 PUSH20 0xFFFFFFFFFFFFFFFFFFFFFFFFFFFFFFFFFFFFFFFF MUL NOT AND SWAP1 DUP4 PUSH20 0xFFFFFFFFFFFFFFFFFFFFFFFFFFFFFFFFFFFFFFFF AND MUL OR SWAP1 SSTORE POP DUP2 PUSH20 0xFFFFFFFFFFFFFFFFFFFFFFFFFFFFFFFFFFFFFFFF AND DUP2 PUSH20 0xFFFFFFFFFFFFFFFFFFFFFFFFFFFFFFFFFFFFFFFF AND PUSH32 0x8BE0079C531659141344CD1FD0A4F28419497F9722A3DAAFE3B4186F6B6457E0 PUSH1 0x40 MLOAD PUSH1 0x40 MLOAD DUP1 SWAP2 SUB SWAP1 LOG3 POP POP JUMP JUMPDEST PUSH0 CALLER SWAP1 POP SWAP1 JUMP JUMPDEST POP DUP1 SLOAD PUSH2 0x5908 SWAP1 PUSH2 0x6299 JUMP JUMPDEST PUSH0 DUP3 SSTORE DUP1 PUSH1 0x1F LT PUSH2 0x5919 JUMPI POP PUSH2 0x5936 JUMP JUMPDEST PUSH1 0x1F ADD PUSH1 0x20 SWAP1 DIV SWAP1 PUSH0 MSTORE PUSH1 0x20 PUSH0 KECCAK256 SWAP1 DUP2 ADD SWAP1 PUSH2 0x5935 SWAP2 SWAP1 PUSH2 0x5939 JUMP JUMPDEST JUMPDEST POP JUMP JUMPDEST JUMPDEST DUP1 DUP3 GT ISZERO PUSH2 0x5950 JUMPI PUSH0 DUP2 PUSH0 SWAP1 SSTORE POP PUSH1 0x1 ADD PUSH2 0x593A JUMP JUMPDEST POP SWAP1 JUMP JUMPDEST PUSH0 PUSH20 0xFFFFFFFFFFFFFFFFFFFFFFFFFFFFFFFFFFFFFFFF DUP3 AND SWAP1 POP SWAP2 SWAP1 POP JUMP JUMPDEST PUSH0 DUP2 SWAP1 POP SWAP2 SWAP1 POP JUMP JUMPDEST PUSH0 PUSH2 0x5996 PUSH2 0x5991 PUSH2 0x598C DUP5 PUSH2 0x5954 JUMP JUMPDEST PUSH2 0x5973 JUMP JUMPDEST PUSH2 0x5954 JUMP JUMPDEST SWAP1 POP SWAP2 SWAP1 POP JUMP JUMPDEST PUSH0 PUSH2 0x59A7 DUP3 PUSH2 0x597C JUMP JUMPDEST SWAP1 POP SWAP2 SWAP1 POP JUMP JUMPDEST PUSH0 PUSH2 0x59B8 DUP3 PUSH2 0x599D JUMP JUMPDEST SWAP1 POP SWAP2 SWAP1 POP JUMP JUMPDEST PUSH2 0x59C8 DUP2 PUSH2 0x59AE JUMP JUMPDEST DUP3 MSTORE POP POP JUMP JUMPDEST PUSH0 PUSH1 0x20 DUP3 ADD SWAP1 POP PUSH2 0x59E1 PUSH0 DUP4 ADD DUP5 PUSH2 0x59BF JUMP JUMPDEST SWAP3 SWAP2 POP POP JUMP JUMPDEST PUSH0 PUSH1 0x40 MLOAD SWAP1 POP SWAP1 JUMP JUMPDEST PUSH0 DUP1 REVERT JUMPDEST PUSH0 DUP1 REVERT JUMPDEST PUSH0 DUP2 SWAP1 POP SWAP2 SWAP1 POP JUMP JUMPDEST PUSH2 0x5A0A DUP2 PUSH2 0x59F8 JUMP JUMPDEST DUP2 EQ PUSH2 0x5A14 JUMPI PUSH0 DUP1 REVERT JUMPDEST POP JUMP JUMPDEST PUSH0 DUP2 CALLDATALOAD SWAP1 POP PUSH2 0x5A25 DUP2 PUSH2 0x5A01 JUMP JUMPDEST SWAP3 SWAP2 POP POP JUMP JUMPDEST PUSH1 0x5 DUP2 LT PUSH2 0x5A37 JUMPI PUSH0 DUP1 REVERT JUMPDEST POP JUMP JUMPDEST PUSH0 DUP2 CALLDATALOAD SWAP1 POP PUSH2 0x5A48 DUP2 PUSH2 0x5A2B JUMP JUMPDEST SWAP3 SWAP2 POP POP JUMP JUMPDEST PUSH0 DUP1 REVERT JUMPDEST PUSH0 DUP1 REVERT JUMPDEST PUSH0 PUSH1 0x1F NOT PUSH1 0x1F DUP4 ADD AND SWAP1 POP SWAP2 SWAP1 POP JUMP JUMPDEST PUSH32 0x4E487B7100000000000000000000000000000000000000000000000000000000 PUSH0 MSTORE PUSH1 0x41 PUSH1 0x4 MSTORE PUSH1 0x24 PUSH0 REVERT JUMPDEST PUSH2 0x5A9C DUP3 PUSH2 0x5A56 JUMP JUMPDEST DUP2 ADD DUP2 DUP2 LT PUSH8 0xFFFFFFFFFFFFFFFF DUP3 GT OR ISZERO PUSH2 0x5ABB JUMPI PUSH2 0x5ABA PUSH2 0x5A66 JUMP JUMPDEST JUMPDEST DUP1 PUSH1 0x40 MSTORE POP POP POP JUMP JUMPDEST PUSH0 PUSH2 0x5ACD PUSH2 0x59E7 JUMP JUMPDEST SWAP1 POP PUSH2 0x5AD9 DUP3 DUP3 PUSH2 0x5A93 JUMP JUMPDEST SWAP2 SWAP1 POP JUMP JUMPDEST PUSH0 PUSH8 0xFFFFFFFFFFFFFFFF DUP3 GT ISZERO PUSH2 0x5AF8 JUMPI PUSH2 0x5AF7 PUSH2 0x5A66 JUMP JUMPDEST JUMPDEST PUSH2 0x5B01 DUP3 PUSH2 0x5A56 JUMP JUMPDEST SWAP1 POP PUSH1 0x20 DUP2 ADD SWAP1 POP SWAP2 SWAP1 POP JUMP JUMPDEST DUP3 DUP2 DUP4 CALLDATACOPY PUSH0 DUP4 DUP4 ADD MSTORE POP POP POP JUMP JUMPDEST PUSH0 PUSH2 0x5B2E PUSH2 0x5B29 DUP5 PUSH2 0x5ADE JUMP JUMPDEST PUSH2 0x5AC4 JUMP JUMPDEST SWAP1 POP DUP3 DUP2 MSTORE PUSH1 0x20 DUP2 ADD DUP5 DUP5 DUP5 ADD GT ISZERO PUSH2 0x5B4A JUMPI PUSH2 0x5B49 PUSH2 0x5A52 JUMP JUMPDEST JUMPDEST PUSH2 0x5B55 DUP5 DUP3 DUP6 PUSH2 0x5B0E JUMP JUMPDEST POP SWAP4 SWAP3 POP POP POP JUMP JUMPDEST PUSH0 DUP3 PUSH1 0x1F DUP4 ADD SLT PUSH2 0x5B71 JUMPI PUSH2 0x5B70 PUSH2 0x5A4E JUMP JUMPDEST JUMPDEST DUP2 CALLDATALOAD PUSH2 0x5B81 DUP5 DUP3 PUSH1 0x20 DUP7 ADD PUSH2 0x5B1C JUMP JUMPDEST SWAP2 POP POP SWAP3 SWAP2 POP POP JUMP JUMPDEST PUSH0 DUP1 PUSH0 DUP1 PUSH0 PUSH1 0xA0 DUP7 DUP9 SUB SLT ISZERO PUSH2 0x5BA3 JUMPI PUSH2 0x5BA2 PUSH2 0x59F0 JUMP JUMPDEST JUMPDEST PUSH0 PUSH2 0x5BB0 DUP9 DUP3 DUP10 ADD PUSH2 0x5A17 JUMP JUMPDEST SWAP6 POP POP PUSH1 0x20 PUSH2 0x5BC1 DUP9 DUP3 DUP10 ADD PUSH2 0x5A3A JUMP JUMPDEST SWAP5 POP POP PUSH1 0x40 DUP7 ADD CALLDATALOAD PUSH8 0xFFFFFFFFFFFFFFFF DUP2 GT ISZERO PUSH2 0x5BE2 JUMPI PUSH2 0x5BE1 PUSH2 0x59F4 JUMP JUMPDEST JUMPDEST PUSH2 0x5BEE DUP9 DUP3 DUP10 ADD PUSH2 0x5B5D JUMP JUMPDEST SWAP4 POP POP PUSH1 0x60 DUP7 ADD CALLDATALOAD PUSH8 0xFFFFFFFFFFFFFFFF DUP2 GT ISZERO PUSH2 0x5C0F JUMPI PUSH2 0x5C0E PUSH2 0x59F4 JUMP JUMPDEST JUMPDEST PUSH2 0x5C1B DUP9 DUP3 DUP10 ADD PUSH2 0x5B5D JUMP JUMPDEST SWAP3 POP POP PUSH1 0x80 DUP7 ADD CALLDATALOAD PUSH8 0xFFFFFFFFFFFFFFFF DUP2 GT ISZERO PUSH2 0x5C3C JUMPI PUSH2 0x5C3B PUSH2 0x59F4 JUMP JUMPDEST JUMPDEST PUSH2 0x5C48 DUP9 DUP3 DUP10 ADD PUSH2 0x5B5D JUMP JUMPDEST SWAP2 POP POP SWAP3 SWAP6 POP SWAP3 SWAP6 SWAP1 SWAP4 POP JUMP JUMPDEST PUSH0 PUSH1 0x20 DUP3 DUP5 SUB SLT ISZERO PUSH2 0x5C6A JUMPI PUSH2 0x5C69 PUSH2 0x59F0 JUMP JUMPDEST JUMPDEST PUSH0 PUSH2 0x5C77 DUP5 DUP3 DUP6 ADD PUSH2 0x5A17 JUMP JUMPDEST SWAP2 POP POP SWAP3 SWAP2 POP POP JUMP JUMPDEST PUSH0 DUP2 ISZERO ISZERO SWAP1 POP SWAP2 SWAP1 POP JUMP JUMPDEST PUSH2 0x5C94 DUP2 PUSH2 0x5C80 JUMP JUMPDEST DUP2 EQ PUSH2 0x5C9E JUMPI PUSH0 DUP1 REVERT JUMPDEST POP JUMP JUMPDEST PUSH0 DUP2 CALLDATALOAD SWAP1 POP PUSH2 0x5CAF DUP2 PUSH2 0x5C8B JUMP JUMPDEST SWAP3 SWAP2 POP POP JUMP JUMPDEST PUSH0 DUP1 PUSH1 0x40 DUP4 DUP6 SUB SLT ISZERO PUSH2 0x5CCB JUMPI PUSH2 0x5CCA PUSH2 0x59F0 JUMP JUMPDEST JUMPDEST PUSH0 PUSH2 0x5CD8 DUP6 DUP3 DUP7 ADD PUSH2 0x5A17 JUMP JUMPDEST SWAP3 POP POP PUSH1 0x20 PUSH2 0x5CE9 DUP6 DUP3 DUP7 ADD PUSH2 0x5CA1 JUMP JUMPDEST SWAP2 POP POP SWAP3 POP SWAP3 SWAP1 POP JUMP JUMPDEST PUSH2 0x5CFC DUP2 PUSH2 0x59F8 JUMP JUMPDEST DUP3 MSTORE POP POP JUMP JUMPDEST PUSH0 PUSH1 0x20 DUP3 ADD SWAP1 POP PUSH2 0x5D15 PUSH0 DUP4 ADD DUP5 PUSH2 0x5CF3 JUMP JUMPDEST SWAP3 SWAP2 POP POP JUMP JUMPDEST PUSH0 DUP1 PUSH1 0x40 DUP4 DUP6 SUB SLT ISZERO PUSH2 0x5D31 JUMPI PUSH2 0x5D30 PUSH2 0x59F0 JUMP JUMPDEST JUMPDEST PUSH0 DUP4 ADD CALLDATALOAD PUSH8 0xFFFFFFFFFFFFFFFF DUP2 GT ISZERO PUSH2 0x5D4E JUMPI PUSH2 0x5D4D PUSH2 0x59F4 JUMP JUMPDEST JUMPDEST PUSH2 0x5D5A DUP6 DUP3 DUP7 ADD PUSH2 0x5B5D JUMP JUMPDEST SWAP3 POP POP PUSH1 0x20 DUP4 ADD CALLDATALOAD PUSH8 0xFFFFFFFFFFFFFFFF DUP2 GT ISZERO PUSH2 0x5D7B JUMPI PUSH2 0x5D7A PUSH2 0x59F4 JUMP JUMPDEST JUMPDEST PUSH2 0x5D87 DUP6 DUP3 DUP7 ADD PUSH2 0x5B5D JUMP JUMPDEST SWAP2 POP POP SWAP3 POP SWAP3 SWAP1 POP JUMP JUMPDEST PUSH2 0x5D9A DUP2 PUSH2 0x5C80 JUMP JUMPDEST DUP3 MSTORE POP POP JUMP JUMPDEST PUSH0 PUSH1 0x40 DUP3 ADD SWAP1 POP PUSH2 0x5DB3 PUSH0 DUP4 ADD DUP6 PUSH2 0x5CF3 JUMP JUMPDEST PUSH2 0x5DC0 PUSH1 0x20 DUP4 ADD DUP5 PUSH2 0x5D91 JUMP JUMPDEST SWAP4 SWAP3 POP POP POP JUMP JUMPDEST PUSH0 PUSH2 0x5DD1 DUP3 PUSH2 0x5954 JUMP JUMPDEST SWAP1 POP SWAP2 SWAP1 POP JUMP JUMPDEST PUSH2 0x5DE1 DUP2 PUSH2 0x5DC7 JUMP JUMPDEST DUP2 EQ PUSH2 0x5DEB JUMPI PUSH0 DUP1 REVERT JUMPDEST POP JUMP JUMPDEST PUSH0 DUP2 CALLDATALOAD SWAP1 POP PUSH2 0x5DFC DUP2 PUSH2 0x5DD8 JUMP JUMPDEST SWAP3 SWAP2 POP POP JUMP JUMPDEST PUSH0 PUSH1 0x20 DUP3 DUP5 SUB SLT ISZERO PUSH2 0x5E17 JUMPI PUSH2 0x5E16 PUSH2 0x59F0 JUMP JUMPDEST JUMPDEST PUSH0 PUSH2 0x5E24 DUP5 DUP3 DUP6 ADD PUSH2 0x5DEE JUMP JUMPDEST SWAP2 POP POP SWAP3 SWAP2 POP POP JUMP JUMPDEST PUSH0 DUP1 PUSH0 DUP1 PUSH1 0x80 DUP6 DUP8 SUB SLT ISZERO PUSH2 0x5E45 JUMPI PUSH2 0x5E44 PUSH2 0x59F0 JUMP JUMPDEST JUMPDEST PUSH0 PUSH2 0x5E52 DUP8 DUP3 DUP9 ADD PUSH2 0x5A3A JUMP JUMPDEST SWAP5 POP POP PUSH1 0x20 DUP6 ADD CALLDATALOAD PUSH8 0xFFFFFFFFFFFFFFFF DUP2 GT ISZERO PUSH2 0x5E73 JUMPI PUSH2 0x5E72 PUSH2 0x59F4 JUMP JUMPDEST JUMPDEST PUSH2 0x5E7F DUP8 DUP3 DUP9 ADD PUSH2 0x5B5D JUMP JUMPDEST SWAP4 POP POP PUSH1 0x40 DUP6 ADD CALLDATALOAD PUSH8 0xFFFFFFFFFFFFFFFF DUP2 GT ISZERO PUSH2 0x5EA0 JUMPI PUSH2 0x5E9F PUSH2 0x59F4 JUMP JUMPDEST JUMPDEST PUSH2 0x5EAC DUP8 DUP3 DUP9 ADD PUSH2 0x5B5D JUMP JUMPDEST SWAP3 POP POP PUSH1 0x60 DUP6 ADD CALLDATALOAD PUSH8 0xFFFFFFFFFFFFFFFF DUP2 GT ISZERO PUSH2 0x5ECD JUMPI PUSH2 0x5ECC PUSH2 0x59F4 JUMP JUMPDEST JUMPDEST PUSH2 0x5ED9 DUP8 DUP3 DUP9 ADD PUSH2 0x5B5D JUMP JUMPDEST SWAP2 POP POP SWAP3 SWAP6 SWAP2 SWAP5 POP SWAP3 POP JUMP JUMPDEST PUSH0 PUSH2 0x5EEF DUP3 PUSH2 0x599D JUMP JUMPDEST SWAP1 POP SWAP2 SWAP1 POP JUMP JUMPDEST PUSH2 0x5EFF DUP2 PUSH2 0x5EE5 JUMP JUMPDEST DUP3 MSTORE POP POP JUMP JUMPDEST PUSH0 PUSH1 0x20 DUP3 ADD SWAP1 POP PUSH2 0x5F18 PUSH0 DUP4 ADD DUP5 PUSH2 0x5EF6 JUMP JUMPDEST SWAP3 SWAP2 POP POP JUMP JUMPDEST PUSH0 DUP2 MLOAD SWAP1 POP SWAP2 SWAP1 POP JUMP JUMPDEST PUSH0 DUP3 DUP3 MSTORE PUSH1 0x20 DUP3 ADD SWAP1 POP SWAP3 SWAP2 POP POP JUMP JUMPDEST DUP3 DUP2 DUP4 MCOPY PUSH0 DUP4 DUP4 ADD MSTORE POP POP POP JUMP JUMPDEST PUSH0 PUSH2 0x5F50 DUP3 PUSH2 0x5F1E JUMP JUMPDEST PUSH2 0x5F5A DUP2 DUP6 PUSH2 0x5F28 JUMP JUMPDEST SWAP4 POP PUSH2 0x5F6A DUP2 DUP6 PUSH1 0x20 DUP7 ADD PUSH2 0x5F38 JUMP JUMPDEST PUSH2 0x5F73 DUP2 PUSH2 0x5A56 JUMP JUMPDEST DUP5 ADD SWAP2 POP POP SWAP3 SWAP2 POP POP JUMP JUMPDEST PUSH2 0x5F87 DUP2 PUSH2 0x5DC7 JUMP JUMPDEST DUP3 MSTORE POP POP JUMP JUMPDEST PUSH0 PUSH2 0x100 DUP3 ADD SWAP1 POP PUSH2 0x5FA1 PUSH0 DUP4 ADD DUP12 PUSH2 0x5CF3 JUMP JUMPDEST DUP2 DUP2 SUB PUSH1 0x20 DUP4 ADD MSTORE PUSH2 0x5FB3 DUP2 DUP11 PUSH2 0x5F46 JUMP JUMPDEST SWAP1 POP DUP2 DUP2 SUB PUSH1 0x40 DUP4 ADD MSTORE PUSH2 0x5FC7 DUP2 DUP10 PUSH2 0x5F46 JUMP JUMPDEST SWAP1 POP PUSH2 0x5FD6 PUSH1 0x60 DUP4 ADD DUP9 PUSH2 0x5CF3 JUMP JUMPDEST PUSH2 0x5FE3 PUSH1 0x80 DUP4 ADD DUP8 PUSH2 0x5F7E JUMP JUMPDEST PUSH2 0x5FF0 PUSH1 0xA0 DUP4 ADD DUP7 PUSH2 0x5D91 JUMP JUMPDEST PUSH2 0x5FFD PUSH1 0xC0 DUP4 ADD DUP6 PUSH2 0x5D91 JUMP JUMPDEST PUSH2 0x600A PUSH1 0xE0 DUP4 ADD DUP5 PUSH2 0x5CF3 JUMP JUMPDEST SWAP10 SWAP9 POP POP POP POP POP POP POP POP POP JUMP JUMPDEST PUSH0 PUSH1 0x20 DUP3 ADD SWAP1 POP PUSH2 0x602A PUSH0 DUP4 ADD DUP5 PUSH2 0x5F7E JUMP JUMPDEST SWAP3 SWAP2 POP POP JUMP JUMPDEST PUSH0 DUP1 PUSH1 0x40 DUP4 DUP6 SUB SLT ISZERO PUSH2 0x6046 JUMPI PUSH2 0x6045 PUSH2 0x59F0 JUMP JUMPDEST JUMPDEST PUSH0 PUSH2 0x6053 DUP6 DUP3 DUP7 ADD PUSH2 0x5DEE JUMP JUMPDEST SWAP3 POP POP PUSH1 0x20 PUSH2 0x6064 DUP6 DUP3 DUP7 ADD PUSH2 0x5DEE JUMP JUMPDEST SWAP2 POP POP SWAP3 POP SWAP3 SWAP1 POP JUMP JUMPDEST PUSH0 DUP1 PUSH1 0x40 DUP4 DUP6 SUB SLT ISZERO PUSH2 0x6084 JUMPI PUSH2 0x6083 PUSH2 0x59F0 JUMP JUMPDEST JUMPDEST PUSH0 PUSH2 0x6091 DUP6 DUP3 DUP7 ADD PUSH2 0x5A17 JUMP JUMPDEST SWAP3 POP POP PUSH1 0x20 PUSH2 0x60A2 DUP6 DUP3 DUP7 ADD PUSH2 0x5DEE JUMP JUMPDEST SWAP2 POP POP SWAP3 POP SWAP3 SWAP1 POP JUMP JUMPDEST PUSH0 PUSH1 0x20 DUP3 ADD SWAP1 POP PUSH2 0x60BF PUSH0 DUP4 ADD DUP5 PUSH2 0x5D91 JUMP JUMPDEST SWAP3 SWAP2 POP POP JUMP JUMPDEST PUSH32 0x4E487B7100000000000000000000000000000000000000000000000000000000 PUSH0 MSTORE PUSH1 0x21 PUSH1 0x4 MSTORE PUSH1 0x24 PUSH0 REVERT JUMPDEST PUSH1 0x5 DUP2 LT PUSH2 0x6103 JUMPI PUSH2 0x6102 PUSH2 0x60C5 JUMP JUMPDEST JUMPDEST POP JUMP JUMPDEST PUSH0 DUP2 SWAP1 POP PUSH2 0x6113 DUP3 PUSH2 0x60F2 JUMP JUMPDEST SWAP2 SWAP1 POP JUMP JUMPDEST PUSH0 PUSH2 0x6122 DUP3 PUSH2 0x6106 JUMP JUMPDEST SWAP1 POP SWAP2 SWAP1 POP JUMP JUMPDEST PUSH2 0x6132 DUP2 PUSH2 0x6118 JUMP JUMPDEST DUP3 MSTORE POP POP JUMP JUMPDEST PUSH0 PUSH1 0xA0 DUP3 ADD SWAP1 POP PUSH2 0x614B PUSH0 DUP4 ADD DUP9 PUSH2 0x6129 JUMP JUMPDEST DUP2 DUP2 SUB PUSH1 0x20 DUP4 ADD MSTORE PUSH2 0x615D DUP2 DUP8 PUSH2 0x5F46 JUMP JUMPDEST SWAP1 POP DUP2 DUP2 SUB PUSH1 0x40 DUP4 ADD MSTORE PUSH2 0x6171 DUP2 DUP7 PUSH2 0x5F46 JUMP JUMPDEST SWAP1 POP DUP2 DUP2 SUB PUSH1 0x60 DUP4 ADD MSTORE PUSH2 0x6185 DUP2 DUP6 PUSH2 0x5F46 JUMP JUMPDEST SWAP1 POP PUSH2 0x6194 PUSH1 0x80 DUP4 ADD DUP5 PUSH2 0x5CF3 JUMP JUMPDEST SWAP7 SWAP6 POP POP POP POP POP POP JUMP JUMPDEST PUSH0 PUSH2 0x61A8 DUP3 PUSH2 0x599D JUMP JUMPDEST SWAP1 POP SWAP2 SWAP1 POP JUMP JUMPDEST PUSH2 0x61B8 DUP2 PUSH2 0x619E JUMP JUMPDEST DUP3 MSTORE POP POP JUMP JUMPDEST PUSH0 PUSH1 0x20 DUP3 ADD SWAP1 POP PUSH2 0x61D1 PUSH0 DUP4 ADD DUP5 PUSH2 0x61AF JUMP JUMPDEST SWAP3 SWAP2 POP POP JUMP JUMPDEST PUSH32 0x506F6C69637920646F6573206E6F742065786973740000000000000000000000 PUSH0 DUP3 ADD MSTORE POP JUMP JUMPDEST PUSH0 PUSH2 0x620B PUSH1 0x15 DUP4 PUSH2 0x5F28 JUMP JUMPDEST SWAP2 POP PUSH2 0x6216 DUP3 PUSH2 0x61D7 JUMP JUMPDEST PUSH1 0x20 DUP3 ADD SWAP1 POP SWAP2 SWAP1 POP JUMP JUMPDEST PUSH0 PUSH1 0x20 DUP3 ADD SWAP1 POP DUP2 DUP2 SUB PUSH0 DUP4 ADD MSTORE PUSH2 0x6238 DUP2 PUSH2 0x61FF JUMP JUMPDEST SWAP1 POP SWAP2 SWAP1 POP JUMP JUMPDEST PUSH32 0x4E487B7100000000000000000000000000000000000000000000000000000000 PUSH0 MSTORE PUSH1 0x32 PUSH1 0x4 MSTORE PUSH1 0x24 PUSH0 REVERT JUMPDEST PUSH32 0x4E487B7100000000000000000000000000000000000000000000000000000000 PUSH0 MSTORE PUSH1 0x22 PUSH1 0x4 MSTORE PUSH1 0x24 PUSH0 REVERT JUMPDEST PUSH0 PUSH1 0x2 DUP3 DIV SWAP1 POP PUSH1 0x1 DUP3 AND DUP1 PUSH2 0x62B0 JUMPI PUSH1 0x7F DUP3 AND SWAP2 POP JUMPDEST PUSH1 0x20 DUP3 LT DUP2 SUB PUSH2 0x62C3 JUMPI PUSH2 0x62C2 PUSH2 0x626C JUMP JUMPDEST JUMPDEST POP SWAP2 SWAP1 POP JUMP JUMPDEST PUSH0 DUP2 SWAP1 POP DUP2 PUSH0 MSTORE PUSH1 0x20 PUSH0 KECCAK256 SWAP1 POP SWAP2 SWAP1 POP JUMP JUMPDEST PUSH0 PUSH1 0x20 PUSH1 0x1F DUP4 ADD DIV SWAP1 POP SWAP2 SWAP1 POP JUMP JUMPDEST PUSH0 DUP3 DUP3 SHL SWAP1 POP SWAP3 SWAP2 POP POP JUMP JUMPDEST PUSH0 PUSH1 0x8 DUP4 MUL PUSH2 0x6325 PUSH32 0xFFFFFFFFFFFFFFFFFFFFFFFFFFFFFFFFFFFFFFFFFFFFFFFFFFFFFFFFFFFFFFFF DUP3 PUSH2 0x62EA JUMP JUMPDEST PUSH2 0x632F DUP7 DUP4 PUSH2 0x62EA JUMP JUMPDEST SWAP6 POP DUP1 NOT DUP5 AND SWAP4 POP DUP1 DUP7 AND DUP5 OR SWAP3 POP POP POP SWAP4 SWAP3 POP POP POP JUMP JUMPDEST PUSH0 PUSH2 0x6361 PUSH2 0x635C PUSH2 0x6357 DUP5 PUSH2 0x59F8 JUMP JUMPDEST PUSH2 0x5973 JUMP JUMPDEST PUSH2 0x59F8 JUMP JUMPDEST SWAP1 POP SWAP2 SWAP1 POP JUMP JUMPDEST PUSH0 DUP2 SWAP1 POP SWAP2 SWAP1 POP JUMP JUMPDEST PUSH2 0x637A DUP4 PUSH2 0x6347 JUMP JUMPDEST PUSH2 0x638E PUSH2 0x6386 DUP3 PUSH2 0x6368 JUMP JUMPDEST DUP5 DUP5 SLOAD PUSH2 0x62F6 JUMP JUMPDEST DUP3 SSTORE POP POP POP POP JUMP JUMPDEST PUSH0 SWAP1 JUMP JUMPDEST PUSH2 0x63A2 PUSH2 0x6396 JUMP JUMPDEST PUSH2 0x63AD DUP2 DUP5 DUP5 PUSH2 0x6371 JUMP JUMPDEST POP POP POP JUMP JUMPDEST JUMPDEST DUP2 DUP2 LT ISZERO PUSH2 0x63D0 JUMPI PUSH2 0x63C5 PUSH0 DUP3 PUSH2 0x639A JUMP JUMPDEST PUSH1 0x1 DUP2 ADD SWAP1 POP PUSH2 0x63B3 JUMP JUMPDEST POP POP JUMP JUMPDEST PUSH1 0x1F DUP3 GT ISZERO PUSH2 0x6415 JUMPI PUSH2 0x63E6 DUP2 PUSH2 0x62C9 JUMP JUMPDEST PUSH2 0x63EF DUP5 PUSH2 0x62DB JUMP JUMPDEST DUP2 ADD PUSH1 0x20 DUP6 LT ISZERO PUSH2 0x63FE JUMPI DUP2 SWAP1 POP JUMPDEST PUSH2 0x6412 PUSH2 0x640A DUP6 PUSH2 0x62DB JUMP JUMPDEST DUP4 ADD DUP3 PUSH2 0x63B2 JUMP JUMPDEST POP POP JUMPDEST POP POP POP JUMP JUMPDEST PUSH0 DUP3 DUP3 SHR SWAP1 POP SWAP3 SWAP2 POP POP JUMP JUMPDEST PUSH0 PUSH2 0x6435 PUSH0 NOT DUP5 PUSH1 0x8 MUL PUSH2 0x641A JUMP JUMPDEST NOT DUP1 DUP4 AND SWAP2 POP POP SWAP3 SWAP2 POP POP JUMP JUMPDEST PUSH0 PUSH2 0x644D DUP4 DUP4 PUSH2 0x6426 JUMP JUMPDEST SWAP2 POP DUP3 PUSH1 0x2 MUL DUP3 OR SWAP1 POP SWAP3 SWAP2 POP POP JUMP JUMPDEST PUSH2 0x6466 DUP3 PUSH2 0x5F1E JUMP JUMPDEST PUSH8 0xFFFFFFFFFFFFFFFF DUP2 GT ISZERO PUSH2 0x647F JUMPI PUSH2 0x647E PUSH2 0x5A66 JUMP JUMPDEST JUMPDEST PUSH2 0x6489 DUP3 SLOAD PUSH2 0x6299 JUMP JUMPDEST PUSH2 0x6494 DUP3 DUP3 DUP6 PUSH2 0x63D4 JUMP JUMPDEST PUSH0 PUSH1 0x20 SWAP1 POP PUSH1 0x1F DUP4 GT PUSH1 0x1 DUP2 EQ PUSH2 0x64C5 JUMPI PUSH0 DUP5 ISZERO PUSH2 0x64B3 JUMPI DUP3 DUP8 ADD MLOAD SWAP1 POP JUMPDEST PUSH2 0x64BD DUP6 DUP3 PUSH2 0x6442 JUMP JUMPDEST DUP7 SSTORE POP PUSH2 0x6524 JUMP JUMPDEST PUSH1 0x1F NOT DUP5 AND PUSH2 0x64D3 DUP7 PUSH2 0x62C9 JUMP JUMPDEST PUSH0 JUMPDEST DUP3 DUP2 LT ISZERO PUSH2 0x64FA JUMPI DUP5 DUP10 ADD MLOAD DUP3 SSTORE PUSH1 0x1 DUP3 ADD SWAP2 POP PUSH1 0x20 DUP6 ADD SWAP5 POP PUSH1 0x20 DUP2 ADD SWAP1 POP PUSH2 0x64D5 JUMP JUMPDEST DUP7 DUP4 LT ISZERO PUSH2 0x6517 JUMPI DUP5 DUP10 ADD MLOAD PUSH2 0x6513 PUSH1 0x1F DUP10 AND DUP3 PUSH2 0x6426 JUMP JUMPDEST DUP4 SSTORE POP JUMPDEST PUSH1 0x1 PUSH1 0x2 DUP9 MUL ADD DUP9 SSTORE POP POP POP JUMPDEST POP POP POP POP POP POP JUMP JUMPDEST PUSH0 PUSH1 0xA0 DUP3 ADD SWAP1 POP PUSH2 0x653F PUSH0 DUP4 ADD DUP9 PUSH2 0x5CF3 JUMP JUMPDEST PUSH2 0x654C PUSH1 0x20 DUP4 ADD DUP8 PUSH2 0x6129 JUMP JUMPDEST DUP2 DUP2 SUB PUSH1 0x40 DUP4 ADD MSTORE PUSH2 0x655E DUP2 DUP7 PUSH2 0x5F46 JUMP JUMPDEST SWAP1 POP DUP2 DUP2 SUB PUSH1 0x60 DUP4 ADD MSTORE PUSH2 0x6572 DUP2 DUP6 PUSH2 0x5F46 JUMP JUMPDEST SWAP1 POP DUP2 DUP2 SUB PUSH1 0x80 DUP4 ADD MSTORE PUSH2 0x6586 DUP2 DUP5 PUSH2 0x5F46 JUMP JUMPDEST SWAP1 POP SWAP7 SWAP6 POP POP POP POP POP POP JUMP JUMPDEST PUSH0 DUP2 MLOAD SWAP1 POP PUSH2 0x65A0 DUP2 PUSH2 0x5A01 JUMP JUMPDEST SWAP3 SWAP2 POP POP JUMP JUMPDEST PUSH0 PUSH1 0x20 DUP3 DUP5 SUB SLT ISZERO PUSH2 0x65BB JUMPI PUSH2 0x65BA PUSH2 0x59F0 JUMP JUMPDEST JUMPDEST PUSH0 PUSH2 0x65C8 DUP5 DUP3 DUP6 ADD PUSH2 0x6592 JUMP JUMPDEST SWAP2 POP POP SWAP3 SWAP2 POP POP JUMP JUMPDEST PUSH32 0x416363657373436F6E74726F6C436F6E74726163743A204D656D626572206973 PUSH0 DUP3 ADD MSTORE PUSH32 0x20626C6F636B6564000000000000000000000000000000000000000000000000 PUSH1 0x20 DUP3 ADD MSTORE POP JUMP JUMPDEST PUSH0 PUSH2 0x662B PUSH1 0x28 DUP4 PUSH2 0x5F28 JUMP JUMPDEST SWAP2 POP PUSH2 0x6636 DUP3 PUSH2 0x65D1 JUMP JUMPDEST PUSH1 0x40 DUP3 ADD SWAP1 POP SWAP2 SWAP1 POP JUMP JUMPDEST PUSH0 PUSH1 0x20 DUP3 ADD SWAP1 POP DUP2 DUP2 SUB PUSH0 DUP4 ADD MSTORE PUSH2 0x6658 DUP2 PUSH2 0x661F JUMP JUMPDEST SWAP1 POP SWAP2 SWAP1 POP JUMP JUMPDEST PUSH0 DUP2 SWAP1 POP SWAP3 SWAP2 POP POP JUMP JUMPDEST PUSH0 DUP2 SWAP1 POP DUP2 PUSH0 MSTORE PUSH1 0x20 PUSH0 KECCAK256 SWAP1 POP SWAP2 SWAP1 POP JUMP JUMPDEST PUSH0 DUP2 SLOAD PUSH2 0x6687 DUP2 PUSH2 0x6299 JUMP JUMPDEST PUSH2 0x6691 DUP2 DUP7 PUSH2 0x665F JUMP JUMPDEST SWAP5 POP PUSH1 0x1 DUP3 AND PUSH0 DUP2 EQ PUSH2 0x66AB JUMPI PUSH1 0x1 DUP2 EQ PUSH2 0x66C0 JUMPI PUSH2 0x66F2 JUMP JUMPDEST PUSH1 0xFF NOT DUP4 AND DUP7 MSTORE DUP2 ISZERO ISZERO DUP3 MUL DUP7 ADD SWAP4 POP PUSH2 0x66F2 JUMP JUMPDEST PUSH2 0x66C9 DUP6 PUSH2 0x6669 JUMP JUMPDEST PUSH0 JUMPDEST DUP4 DUP2 LT ISZERO PUSH2 0x66EA JUMPI DUP2 SLOAD DUP2 DUP10 ADD MSTORE PUSH1 0x1 DUP3 ADD SWAP2 POP PUSH1 0x20 DUP2 ADD SWAP1 POP PUSH2 0x66CB JUMP JUMPDEST DUP4 DUP9 ADD SWAP6 POP POP POP JUMPDEST POP POP POP SWAP3 SWAP2 POP POP JUMP JUMPDEST PUSH0 PUSH2 0x6706 DUP3 DUP5 PUSH2 0x667B JUMP JUMPDEST SWAP2 POP DUP2 SWAP1 POP SWAP3 SWAP2 POP POP JUMP JUMPDEST PUSH32 0x54616D706572696E672077697468206461746100000000000000000000000000 PUSH0 DUP3 ADD MSTORE POP JUMP JUMPDEST PUSH0 PUSH2 0x6745 PUSH1 0x13 DUP4 PUSH2 0x5F28 JUMP JUMPDEST SWAP2 POP PUSH2 0x6750 DUP3 PUSH2 0x6711 JUMP JUMPDEST PUSH1 0x20 DUP3 ADD SWAP1 POP SWAP2 SWAP1 POP JUMP JUMPDEST PUSH0 PUSH1 0x40 DUP3 ADD SWAP1 POP PUSH2 0x676E PUSH0 DUP4 ADD DUP5 PUSH2 0x5F7E JUMP JUMPDEST DUP2 DUP2 SUB PUSH1 0x20 DUP4 ADD MSTORE PUSH2 0x677F DUP2 PUSH2 0x6739 JUMP JUMPDEST SWAP1 POP SWAP3 SWAP2 POP POP JUMP JUMPDEST PUSH0 PUSH2 0x6799 PUSH2 0x6794 DUP5 PUSH2 0x5ADE JUMP JUMPDEST PUSH2 0x5AC4 JUMP JUMPDEST SWAP1 POP DUP3 DUP2 MSTORE PUSH1 0x20 DUP2 ADD DUP5 DUP5 DUP5 ADD GT ISZERO PUSH2 0x67B5 JUMPI PUSH2 0x67B4 PUSH2 0x5A52 JUMP JUMPDEST JUMPDEST PUSH2 0x67C0 DUP5 DUP3 DUP6 PUSH2 0x5F38 JUMP JUMPDEST POP SWAP4 SWAP3 POP POP POP JUMP JUMPDEST PUSH0 DUP3 PUSH1 0x1F DUP4 ADD SLT PUSH2 0x67DC JUMPI PUSH2 0x67DB PUSH2 0x5A4E JUMP JUMPDEST JUMPDEST DUP2 MLOAD PUSH2 0x67EC DUP5 DUP3 PUSH1 0x20 DUP7 ADD PUSH2 0x6787 JUMP JUMPDEST SWAP2 POP POP SWAP3 SWAP2 POP POP JUMP JUMPDEST PUSH0 DUP1 PUSH0 PUSH1 0x60 DUP5 DUP7 SUB SLT ISZERO PUSH2 0x680C JUMPI PUSH2 0x680B PUSH2 0x59F0 JUMP JUMPDEST JUMPDEST PUSH0 PUSH2 0x6819 DUP7 DUP3 DUP8 ADD PUSH2 0x6592 JUMP JUMPDEST SWAP4 POP POP PUSH1 0x20 DUP5 ADD MLOAD PUSH8 0xFFFFFFFFFFFFFFFF DUP2 GT ISZERO PUSH2 0x683A JUMPI PUSH2 0x6839 PUSH2 0x59F4 JUMP JUMPDEST JUMPDEST PUSH2 0x6846 DUP7 DUP3 DUP8 ADD PUSH2 0x67C8 JUMP JUMPDEST SWAP3 POP POP PUSH1 0x40 PUSH2 0x6857 DUP7 DUP3 DUP8 ADD PUSH2 0x6592 JUMP JUMPDEST SWAP2 POP POP SWAP3 POP SWAP3 POP SWAP3 JUMP JUMPDEST PUSH0 PUSH1 0x60 DUP3 ADD SWAP1 POP PUSH2 0x6874 PUSH0 DUP4 ADD DUP7 PUSH2 0x5CF3 JUMP JUMPDEST DUP2 DUP2 SUB PUSH1 0x20 DUP4 ADD MSTORE PUSH2 0x6886 DUP2 DUP6 PUSH2 0x5F46 JUMP JUMPDEST SWAP1 POP PUSH2 0x6895 PUSH1 0x40 DUP4 ADD DUP5 PUSH2 0x5CF3 JUMP JUMPDEST SWAP5 SWAP4 POP POP POP POP JUMP JUMPDEST PUSH32 0x556E617574686F72697A65642061636365737320617474656D70740000000000 PUSH0 DUP3 ADD MSTORE POP JUMP JUMPDEST PUSH0 PUSH2 0x68D1 PUSH1 0x1B DUP4 PUSH2 0x5F28 JUMP JUMPDEST SWAP2 POP PUSH2 0x68DC DUP3 PUSH2 0x689D JUMP JUMPDEST PUSH1 0x20 DUP3 ADD SWAP1 POP SWAP2 SWAP1 POP JUMP JUMPDEST PUSH0 PUSH1 0x40 DUP3 ADD SWAP1 POP PUSH2 0x68FA PUSH0 DUP4 ADD DUP5 PUSH2 0x5F7E JUMP JUMPDEST DUP2 DUP2 SUB PUSH1 0x20 DUP4 ADD MSTORE PUSH2 0x690B DUP2 PUSH2 0x68C5 JUMP JUMPDEST SWAP1 POP SWAP3 SWAP2 POP POP JUMP JUMPDEST PUSH0 DUP1 PUSH1 0x40 DUP4 DUP6 SUB SLT ISZERO PUSH2 0x6929 JUMPI PUSH2 0x6928 PUSH2 0x59F0 JUMP JUMPDEST JUMPDEST PUSH0 PUSH2 0x6936 DUP6 DUP3 DUP7 ADD PUSH2 0x6592 JUMP JUMPDEST SWAP3 POP POP PUSH1 0x20 DUP4 ADD MLOAD PUSH8 0xFFFFFFFFFFFFFFFF DUP2 GT ISZERO PUSH2 0x6957 JUMPI PUSH2 0x6956 PUSH2 0x59F4 JUMP JUMPDEST JUMPDEST PUSH2 0x6963 DUP6 DUP3 DUP7 ADD PUSH2 0x67C8 JUMP JUMPDEST SWAP2 POP POP SWAP3 POP SWAP3 SWAP1 POP JUMP JUMPDEST PUSH0 PUSH1 0x40 DUP3 ADD SWAP1 POP PUSH2 0x6980 PUSH0 DUP4 ADD DUP6 PUSH2 0x5CF3 JUMP JUMPDEST DUP2 DUP2 SUB PUSH1 0x20 DUP4 ADD MSTORE PUSH2 0x6992 DUP2 DUP5 PUSH2 0x5F46 JUMP JUMPDEST SWAP1 POP SWAP4 SWAP3 POP POP POP JUMP JUMPDEST PUSH0 DUP1 REVERT JUMPDEST PUSH0 DUP1 REVERT JUMPDEST PUSH0 DUP2 MLOAD SWAP1 POP PUSH2 0x69B1 DUP2 PUSH2 0x5DD8 JUMP JUMPDEST SWAP3 SWAP2 POP POP JUMP JUMPDEST PUSH0 DUP2 MLOAD SWAP1 POP PUSH2 0x69C5 DUP2 PUSH2 0x5A2B JUMP JUMPDEST SWAP3 SWAP2 POP POP JUMP JUMPDEST PUSH0 PUSH1 0xC0 DUP3 DUP5 SUB SLT ISZERO PUSH2 0x69E0 JUMPI PUSH2 0x69DF PUSH2 0x699B JUMP JUMPDEST JUMPDEST PUSH2 0x69EA PUSH1 0xC0 PUSH2 0x5AC4 JUMP JUMPDEST SWAP1 POP PUSH0 PUSH2 0x69F9 DUP5 DUP3 DUP6 ADD PUSH2 0x69A3 JUMP JUMPDEST PUSH0 DUP4 ADD MSTORE POP PUSH1 0x20 DUP3 ADD MLOAD PUSH8 0xFFFFFFFFFFFFFFFF DUP2 GT ISZERO PUSH2 0x6A1C JUMPI PUSH2 0x6A1B PUSH2 0x699F JUMP JUMPDEST JUMPDEST PUSH2 0x6A28 DUP5 DUP3 DUP6 ADD PUSH2 0x67C8 JUMP JUMPDEST PUSH1 0x20 DUP4 ADD MSTORE POP PUSH1 0x40 DUP3 ADD MLOAD PUSH8 0xFFFFFFFFFFFFFFFF DUP2 GT ISZERO PUSH2 0x6A4C JUMPI PUSH2 0x6A4B PUSH2 0x699F JUMP JUMPDEST JUMPDEST PUSH2 0x6A58 DUP5 DUP3 DUP6 ADD PUSH2 0x67C8 JUMP JUMPDEST PUSH1 0x40 DUP4 ADD MSTORE POP PUSH1 0x60 DUP3 ADD MLOAD PUSH8 0xFFFFFFFFFFFFFFFF DUP2 GT ISZERO PUSH2 0x6A7C JUMPI PUSH2 0x6A7B PUSH2 0x699F JUMP JUMPDEST JUMPDEST PUSH2 0x6A88 DUP5 DUP3 DUP6 ADD PUSH2 0x67C8 JUMP JUMPDEST PUSH1 0x60 DUP4 ADD MSTORE POP PUSH1 0x80 PUSH2 0x6A9C DUP5 DUP3 DUP6 ADD PUSH2 0x6592 JUMP JUMPDEST PUSH1 0x80 DUP4 ADD MSTORE POP PUSH1 0xA0 PUSH2 0x6AB0 DUP5 DUP3 DUP6 ADD PUSH2 0x69B7 JUMP JUMPDEST PUSH1 0xA0 DUP4 ADD MSTORE POP SWAP3 SWAP2 POP POP JUMP JUMPDEST PUSH0 PUSH1 0x20 DUP3 DUP5 SUB SLT ISZERO PUSH2 0x6AD1 JUMPI PUSH2 0x6AD0 PUSH2 0x59F0 JUMP JUMPDEST JUMPDEST PUSH0 DUP3 ADD MLOAD PUSH8 0xFFFFFFFFFFFFFFFF DUP2 GT ISZERO PUSH2 0x6AEE JUMPI PUSH2 0x6AED PUSH2 0x59F4 JUMP JUMPDEST JUMPDEST PUSH2 0x6AFA DUP5 DUP3 DUP6 ADD PUSH2 0x69CB JUMP JUMPDEST SWAP2 POP POP SWAP3 SWAP2 POP POP JUMP JUMPDEST PUSH0 PUSH1 0x20 DUP3 ADD SWAP1 POP DUP2 DUP2 SUB PUSH0 DUP4 ADD MSTORE PUSH2 0x6B1B DUP2 DUP5 PUSH2 0x5F46 JUMP JUMPDEST SWAP1 POP SWAP3 SWAP2 POP POP JUMP JUMPDEST PUSH0 PUSH8 0xFFFFFFFFFFFFFFFF DUP3 GT ISZERO PUSH2 0x6B3D JUMPI PUSH2 0x6B3C PUSH2 0x5A66 JUMP JUMPDEST JUMPDEST PUSH1 0x20 DUP3 MUL SWAP1 POP PUSH1 0x20 DUP2 ADD SWAP1 POP SWAP2 SWAP1 POP JUMP JUMPDEST PUSH0 DUP1 REVERT JUMPDEST PUSH0 PUSH2 0x6B64 PUSH2 0x6B5F DUP5 PUSH2 0x6B23 JUMP JUMPDEST PUSH2 0x5AC4 JUMP JUMPDEST SWAP1 POP DUP1 DUP4 DUP3 MSTORE PUSH1 0x20 DUP3 ADD SWAP1 POP PUSH1 0x20 DUP5 MUL DUP4 ADD DUP6 DUP2 GT ISZERO PUSH2 0x6B87 JUMPI PUSH2 0x6B86 PUSH2 0x6B4E JUMP JUMPDEST JUMPDEST DUP4 JUMPDEST DUP2 DUP2 LT ISZERO PUSH2 0x6BCE JUMPI DUP1 MLOAD PUSH8 0xFFFFFFFFFFFFFFFF DUP2 GT ISZERO PUSH2 0x6BAC JUMPI PUSH2 0x6BAB PUSH2 0x5A4E JUMP JUMPDEST JUMPDEST DUP1 DUP7 ADD PUSH2 0x6BB9 DUP10 DUP3 PUSH2 0x69CB JUMP JUMPDEST DUP6 MSTORE PUSH1 0x20 DUP6 ADD SWAP5 POP POP POP PUSH1 0x20 DUP2 ADD SWAP1 POP PUSH2 0x6B89 JUMP JUMPDEST POP POP POP SWAP4 SWAP3 POP POP POP JUMP JUMPDEST PUSH0 DUP3 PUSH1 0x1F DUP4 ADD SLT PUSH2 0x6BEC JUMPI PUSH2 0x6BEB PUSH2 0x5A4E JUMP JUMPDEST JUMPDEST DUP2 MLOAD PUSH2 0x6BFC DUP5 DUP3 PUSH1 0x20 DUP7 ADD PUSH2 0x6B52 JUMP JUMPDEST SWAP2 POP POP SWAP3 SWAP2 POP POP JUMP JUMPDEST PUSH0 PUSH1 0x20 DUP3 DUP5 SUB SLT ISZERO PUSH2 0x6C1A JUMPI PUSH2 0x6C19 PUSH2 0x59F0 JUMP JUMPDEST JUMPDEST PUSH0 DUP3 ADD MLOAD PUSH8 0xFFFFFFFFFFFFFFFF DUP2 GT ISZERO PUSH2 0x6C37 JUMPI PUSH2 0x6C36 PUSH2 0x59F4 JUMP JUMPDEST JUMPDEST PUSH2 0x6C43 DUP5 DUP3 DUP6 ADD PUSH2 0x6BD8 JUMP JUMPDEST SWAP2 POP POP SWAP3 SWAP2 POP POP JUMP JUMPDEST PUSH32 0x476C6F62616C5265736F757263655461626C6500000000000000000000000000 PUSH0 DUP3 ADD MSTORE POP JUMP JUMPDEST PUSH0 PUSH2 0x6C80 PUSH1 0x13 DUP4 PUSH2 0x5F28 JUMP JUMPDEST SWAP2 POP PUSH2 0x6C8B DUP3 PUSH2 0x6C4C JUMP JUMPDEST PUSH1 0x20 DUP3 ADD SWAP1 POP SWAP2 SWAP1 POP JUMP JUMPDEST PUSH32 0x5669657700000000000000000000000000000000000000000000000000000000 PUSH0 DUP3 ADD MSTORE POP JUMP JUMPDEST PUSH0 PUSH2 0x6CCA PUSH1 0x4 DUP4 PUSH2 0x5F28 JUMP JUMPDEST SWAP2 POP PUSH2 0x6CD5 DUP3 PUSH2 0x6C96 JUMP JUMPDEST PUSH1 0x20 DUP3 ADD SWAP1 POP SWAP2 SWAP1 POP JUMP JUMPDEST PUSH0 PUSH1 0x40 DUP3 ADD SWAP1 POP DUP2 DUP2 SUB PUSH0 DUP4 ADD MSTORE PUSH2 0x6CF7 DUP2 PUSH2 0x6C74 JUMP JUMPDEST SWAP1 POP DUP2 DUP2 SUB PUSH1 0x20 DUP4 ADD MSTORE PUSH2 0x6D0A DUP2 PUSH2 0x6CBE JUMP JUMPDEST SWAP1 POP SWAP2 SWAP1 POP JUMP JUMPDEST PUSH0 DUP2 MLOAD SWAP1 POP SWAP2 SWAP1 POP JUMP JUMPDEST PUSH0 DUP3 DUP3 MSTORE PUSH1 0x20 DUP3 ADD SWAP1 POP SWAP3 SWAP2 POP POP JUMP JUMPDEST PUSH0 DUP2 SWAP1 POP PUSH1 0x20 DUP3 ADD SWAP1 POP SWAP2 SWAP1 POP JUMP JUMPDEST PUSH2 0x6D43 DUP2 PUSH2 0x5DC7 JUMP JUMPDEST DUP3 MSTORE POP POP JUMP JUMPDEST PUSH0 DUP3 DUP3 MSTORE PUSH1 0x20 DUP3 ADD SWAP1 POP SWAP3 SWAP2 POP POP JUMP JUMPDEST PUSH0 PUSH2 0x6D63 DUP3 PUSH2 0x5F1E JUMP JUMPDEST PUSH2 0x6D6D DUP2 DUP6 PUSH2 0x6D49 JUMP JUMPDEST SWAP4 POP PUSH2 0x6D7D DUP2 DUP6 PUSH1 0x20 DUP7 ADD PUSH2 0x5F38 JUMP JUMPDEST PUSH2 0x6D86 DUP2 PUSH2 0x5A56 JUMP JUMPDEST DUP5 ADD SWAP2 POP POP SWAP3 SWAP2 POP POP JUMP JUMPDEST PUSH2 0x6D9A DUP2 PUSH2 0x59F8 JUMP JUMPDEST DUP3 MSTORE POP POP JUMP JUMPDEST PUSH2 0x6DA9 DUP2 PUSH2 0x6118 JUMP JUMPDEST DUP3 MSTORE POP POP JUMP JUMPDEST PUSH0 PUSH1 0xC0 DUP4 ADD PUSH0 DUP4 ADD MLOAD PUSH2 0x6DC4 PUSH0 DUP7 ADD DUP3 PUSH2 0x6D3A JUMP JUMPDEST POP PUSH1 0x20 DUP4 ADD MLOAD DUP5 DUP3 SUB PUSH1 0x20 DUP7 ADD MSTORE PUSH2 0x6DDC DUP3 DUP3 PUSH2 0x6D59 JUMP JUMPDEST SWAP2 POP POP PUSH1 0x40 DUP4 ADD MLOAD DUP5 DUP3 SUB PUSH1 0x40 DUP7 ADD MSTORE PUSH2 0x6DF6 DUP3 DUP3 PUSH2 0x6D59 JUMP JUMPDEST SWAP2 POP POP PUSH1 0x60 DUP4 ADD MLOAD DUP5 DUP3 SUB PUSH1 0x60 DUP7 ADD MSTORE PUSH2 0x6E10 DUP3 DUP3 PUSH2 0x6D59 JUMP JUMPDEST SWAP2 POP POP PUSH1 0x80 DUP4 ADD MLOAD PUSH2 0x6E25 PUSH1 0x80 DUP7 ADD DUP3 PUSH2 0x6D91 JUMP JUMPDEST POP PUSH1 0xA0 DUP4 ADD MLOAD PUSH2 0x6E38 PUSH1 0xA0 DUP7 ADD DUP3 PUSH2 0x6DA0 JUMP JUMPDEST POP DUP1 SWAP2 POP POP SWAP3 SWAP2 POP POP JUMP JUMPDEST PUSH0 PUSH2 0x6E4E DUP4 DUP4 PUSH2 0x6DAF JUMP JUMPDEST SWAP1 POP SWAP3 SWAP2 POP POP JUMP JUMPDEST PUSH0 PUSH1 0x20 DUP3 ADD SWAP1 POP SWAP2 SWAP1 POP JUMP JUMPDEST PUSH0 PUSH2 0x6E6C DUP3 PUSH2 0x6D11 JUMP JUMPDEST PUSH2 0x6E76 DUP2 DUP6 PUSH2 0x6D1B JUMP JUMPDEST SWAP4 POP DUP4 PUSH1 0x20 DUP3 MUL DUP6 ADD PUSH2 0x6E88 DUP6 PUSH2 0x6D2B JUMP JUMPDEST DUP1 PUSH0 JUMPDEST DUP6 DUP2 LT ISZERO PUSH2 0x6EC3 JUMPI DUP5 DUP5 SUB DUP10 MSTORE DUP2 MLOAD PUSH2 0x6EA4 DUP6 DUP3 PUSH2 0x6E43 JUMP JUMPDEST SWAP5 POP PUSH2 0x6EAF DUP4 PUSH2 0x6E56 JUMP JUMPDEST SWAP3 POP PUSH1 0x20 DUP11 ADD SWAP10 POP POP PUSH1 0x1 DUP2 ADD SWAP1 POP PUSH2 0x6E8B JUMP JUMPDEST POP DUP3 SWAP8 POP DUP8 SWAP6 POP POP POP POP POP POP SWAP3 SWAP2 POP POP JUMP JUMPDEST PUSH0 PUSH1 0x20 DUP3 ADD SWAP1 POP DUP2 DUP2 SUB PUSH0 DUP4 ADD MSTORE PUSH2 0x6EED DUP2 DUP5 PUSH2 0x6E62 JUMP JUMPDEST SWAP1 POP SWAP3 SWAP2 POP POP JUMP JUMPDEST PUSH0 PUSH1 0x40 DUP3 ADD SWAP1 POP PUSH2 0x6F08 PUSH0 DUP4 ADD DUP6 PUSH2 0x5F7E JUMP JUMPDEST PUSH2 0x6F15 PUSH1 0x20 DUP4 ADD DUP5 PUSH2 0x6129 JUMP JUMPDEST SWAP4 SWAP3 POP POP POP JUMP JUMPDEST PUSH32 0x496E76616C696420726571756573742049440000000000000000000000000000 PUSH0 DUP3 ADD MSTORE POP JUMP JUMPDEST PUSH0 PUSH2 0x6F50 PUSH1 0x12 DUP4 PUSH2 0x5F28 JUMP JUMPDEST SWAP2 POP PUSH2 0x6F5B DUP3 PUSH2 0x6F1C JUMP JUMPDEST PUSH1 0x20 DUP3 ADD SWAP1 POP SWAP2 SWAP1 POP JUMP JUMPDEST PUSH0 PUSH1 0x20 DUP3 ADD SWAP1 POP DUP2 DUP2 SUB PUSH0 DUP4 ADD MSTORE PUSH2 0x6F7D DUP2 PUSH2 0x6F44 JUMP JUMPDEST SWAP1 POP SWAP2 SWAP1 POP JUMP JUMPDEST PUSH32 0x5072696D6172792067726F757020686561642063616E6E6F7420617070726F76 PUSH0 DUP3 ADD MSTORE PUSH32 0x65207468656972206F776E207265717565737400000000000000000000000000 PUSH1 0x20 DUP3 ADD MSTORE POP JUMP JUMPDEST PUSH0 PUSH2 0x6FDE PUSH1 0x33 DUP4 PUSH2 0x5F28 JUMP JUMPDEST SWAP2 POP PUSH2 0x6FE9 DUP3 PUSH2 0x6F84 JUMP JUMPDEST PUSH1 0x40 DUP3 ADD SWAP1 POP SWAP2 SWAP1 POP JUMP JUMPDEST PUSH0 PUSH1 0x20 DUP3 ADD SWAP1 POP DUP2 DUP2 SUB PUSH0 DUP4 ADD MSTORE PUSH2 0x700B DUP2 PUSH2 0x6FD2 JUMP JUMPDEST SWAP1 POP SWAP2 SWAP1 POP JUMP JUMPDEST PUSH0 PUSH1 0x20 DUP3 DUP5 SUB SLT ISZERO PUSH2 0x7027 JUMPI PUSH2 0x7026 PUSH2 0x59F0 JUMP JUMPDEST JUMPDEST PUSH0 PUSH2 0x7034 DUP5 DUP3 DUP6 ADD PUSH2 0x69B7 JUMP JUMPDEST SWAP2 POP POP SWAP3 SWAP2 POP POP JUMP JUMPDEST PUSH0 PUSH1 0x20 DUP3 DUP5 SUB SLT ISZERO PUSH2 0x7052 JUMPI PUSH2 0x7051 PUSH2 0x59F0 JUMP JUMPDEST JUMPDEST PUSH0 PUSH2 0x705F DUP5 DUP3 DUP6 ADD PUSH2 0x69A3 JUMP JUMPDEST SWAP2 POP POP SWAP3 SWAP2 POP POP JUMP JUMPDEST PUSH32 0x5072696D61727920686561642068616E646C696E672074686520726571756573 PUSH0 DUP3 ADD MSTORE PUSH32 0x74206D75737420626520746865207265717565737465722773207072696D6172 PUSH1 0x20 DUP3 ADD MSTORE PUSH32 0x7920686561640000000000000000000000000000000000000000000000000000 PUSH1 0x40 DUP3 ADD MSTORE POP JUMP JUMPDEST PUSH0 PUSH2 0x70E8 PUSH1 0x46 DUP4 PUSH2 0x5F28 JUMP JUMPDEST SWAP2 POP PUSH2 0x70F3 DUP3 PUSH2 0x7068 JUMP JUMPDEST PUSH1 0x60 DUP3 ADD SWAP1 POP SWAP2 SWAP1 POP JUMP JUMPDEST PUSH0 PUSH1 0x20 DUP3 ADD SWAP1 POP DUP2 DUP2 SUB PUSH0 DUP4 ADD MSTORE PUSH2 0x7115 DUP2 PUSH2 0x70DC JUMP JUMPDEST SWAP1 POP SWAP2 SWAP1 POP JUMP JUMPDEST PUSH32 0x4E487B7100000000000000000000000000000000000000000000000000000000 PUSH0 MSTORE PUSH1 0x11 PUSH1 0x4 MSTORE PUSH1 0x24 PUSH0 REVERT JUMPDEST PUSH0 PUSH2 0x7153 DUP3 PUSH2 0x59F8 JUMP JUMPDEST SWAP2 POP PUSH32 0xFFFFFFFFFFFFFFFFFFFFFFFFFFFFFFFFFFFFFFFFFFFFFFFFFFFFFFFFFFFFFFFF DUP3 SUB PUSH2 0x7185 JUMPI PUSH2 0x7184 PUSH2 0x711C JUMP JUMPDEST JUMPDEST PUSH1 0x1 DUP3 ADD SWAP1 POP SWAP2 SWAP1 POP JUMP JUMPDEST PUSH32 0x4163636573732052657175657374000000000000000000000000000000000000 PUSH0 DUP3 ADD MSTORE POP JUMP JUMPDEST PUSH0 PUSH2 0x71C4 PUSH1 0xE DUP4 PUSH2 0x5F28 JUMP JUMPDEST SWAP2 POP PUSH2 0x71CF DUP3 PUSH2 0x7190 JUMP JUMPDEST PUSH1 0x20 DUP3 ADD SWAP1 POP SWAP2 SWAP1 POP JUMP JUMPDEST PUSH32 0x48616E646C650000000000000000000000000000000000000000000000000000 PUSH0 DUP3 ADD MSTORE POP JUMP JUMPDEST PUSH0 PUSH2 0x720E PUSH1 0x6 DUP4 PUSH2 0x5F28 JUMP JUMPDEST SWAP2 POP PUSH2 0x7219 DUP3 PUSH2 0x71DA JUMP JUMPDEST PUSH1 0x20 DUP3 ADD SWAP1 POP SWAP2 SWAP1 POP JUMP JUMPDEST PUSH0 PUSH1 0x40 DUP3 ADD SWAP1 POP DUP2 DUP2 SUB PUSH0 DUP4 ADD MSTORE PUSH2 0x723B DUP2 PUSH2 0x71B8 JUMP JUMPDEST SWAP1 POP DUP2 DUP2 SUB PUSH1 0x20 DUP4 ADD MSTORE PUSH2 0x724E DUP2 PUSH2 0x7202 JUMP JUMPDEST SWAP1 POP SWAP2 SWAP1 POP JUMP JUMPDEST PUSH0 PUSH2 0x725F DUP3 PUSH2 0x59F8 JUMP JUMPDEST SWAP2 POP PUSH2 0x726A DUP4 PUSH2 0x59F8 JUMP JUMPDEST SWAP3 POP DUP3 DUP3 SUB SWAP1 POP DUP2 DUP2 GT ISZERO PUSH2 0x7282 JUMPI PUSH2 0x7281 PUSH2 0x711C JUMP JUMPDEST JUMPDEST SWAP3 SWAP2 POP POP JUMP JUMPDEST PUSH0 PUSH2 0x7292 DUP3 PUSH2 0x59F8 JUMP JUMPDEST SWAP2 POP PUSH2 0x729D DUP4 PUSH2 0x59F8 JUMP JUMPDEST SWAP3 POP DUP3 DUP3 MUL PUSH2 0x72AB DUP2 PUSH2 0x59F8 JUMP JUMPDEST SWAP2 POP DUP3 DUP3 DIV DUP5 EQ DUP4 ISZERO OR PUSH2 0x72C2 JUMPI PUSH2 0x72C1 PUSH2 0x711C JUMP JUMPDEST JUMPDEST POP SWAP3 SWAP2 POP POP JUMP JUMPDEST PUSH32 0x4E487B7100000000000000000000000000000000000000000000000000000000 PUSH0 MSTORE PUSH1 0x12 PUSH1 0x4 MSTORE PUSH1 0x24 PUSH0 REVERT JUMPDEST PUSH0 PUSH2 0x7300 DUP3 PUSH2 0x59F8 JUMP JUMPDEST SWAP2 POP PUSH2 0x730B DUP4 PUSH2 0x59F8 JUMP JUMPDEST SWAP3 POP DUP3 PUSH2 0x731B JUMPI PUSH2 0x731A PUSH2 0x72C9 JUMP JUMPDEST JUMPDEST DUP3 DUP3 DIV SWAP1 POP SWAP3 SWAP2 POP POP JUMP JUMPDEST PUSH0 PUSH2 0x7330 DUP3 PUSH2 0x59F8 JUMP JUMPDEST SWAP2 POP PUSH2 0x733B DUP4 PUSH2 0x59F8 JUMP JUMPDEST SWAP3 POP DUP3 PUSH2 0x734B JUMPI PUSH2 0x734A PUSH2 0x72C9 JUMP JUMPDEST JUMPDEST DUP3 DUP3 MOD SWAP1 POP SWAP3 SWAP2 POP POP JUMP JUMPDEST PUSH0 PUSH2 0x7360 DUP3 PUSH2 0x59F8 JUMP JUMPDEST SWAP2 POP PUSH2 0x736B DUP4 PUSH2 0x59F8 JUMP JUMPDEST SWAP3 POP DUP3 DUP3 ADD SWAP1 POP DUP1 DUP3 GT ISZERO PUSH2 0x7383 JUMPI PUSH2 0x7382 PUSH2 0x711C JUMP JUMPDEST JUMPDEST SWAP3 SWAP2 POP POP JUMP JUMPDEST PUSH32 0x50726976696C65676520657363616C6174696F6E000000000000000000000000 PUSH0 DUP3 ADD MSTORE POP JUMP JUMPDEST PUSH0 PUSH2 0x73BD PUSH1 0x14 DUP4 PUSH2 0x5F28 JUMP JUMPDEST SWAP2 POP PUSH2 0x73C8 DUP3 PUSH2 0x7389 JUMP JUMPDEST PUSH1 0x20 DUP3 ADD SWAP1 POP SWAP2 SWAP1 POP JUMP JUMPDEST PUSH0 PUSH1 0x40 DUP3 ADD SWAP1 POP PUSH2 0x73E6 PUSH0 DUP4 ADD DUP5 PUSH2 0x5F7E JUMP JUMPDEST DUP2 DUP2 SUB PUSH1 0x20 DUP4 ADD MSTORE PUSH2 0x73F7 DUP2 PUSH2 0x73B1 JUMP JUMPDEST SWAP1 POP SWAP3 SWAP2 POP POP JUMP JUMPDEST PUSH32 0x44656C6574650000000000000000000000000000000000000000000000000000 PUSH0 DUP3 ADD MSTORE POP JUMP JUMPDEST PUSH0 PUSH2 0x7433 PUSH1 0x6 DUP4 PUSH2 0x5F28 JUMP JUMPDEST SWAP2 POP PUSH2 0x743E DUP3 PUSH2 0x73FF JUMP JUMPDEST PUSH1 0x20 DUP3 ADD SWAP1 POP SWAP2 SWAP1 POP JUMP JUMPDEST PUSH0 PUSH1 0x40 DUP3 ADD SWAP1 POP DUP2 DUP2 SUB PUSH0 DUP4 ADD MSTORE PUSH2 0x7460 DUP2 PUSH2 0x6C74 JUMP JUMPDEST SWAP1 POP DUP2 DUP2 SUB PUSH1 0x20 DUP4 ADD MSTORE PUSH2 0x7473 DUP2 PUSH2 0x7427 JUMP JUMPDEST SWAP1 POP SWAP2 SWAP1 POP JUMP JUMPDEST PUSH0 PUSH1 0x40 DUP3 ADD SWAP1 POP PUSH2 0x748D PUSH0 DUP4 ADD DUP6 PUSH2 0x5F7E JUMP JUMPDEST PUSH2 0x749A PUSH1 0x20 DUP4 ADD DUP5 PUSH2 0x5F7E JUMP JUMPDEST SWAP4 SWAP3 POP POP POP JUMP JUMPDEST PUSH32 0x4C6F63616C5265736F757263655461626C650000000000000000000000000000 PUSH0 DUP3 ADD MSTORE POP JUMP JUMPDEST PUSH0 PUSH2 0x74D5 PUSH1 0x12 DUP4 PUSH2 0x5F28 JUMP JUMPDEST SWAP2 POP PUSH2 0x74E0 DUP3 PUSH2 0x74A1 JUMP JUMPDEST PUSH1 0x20 DUP3 ADD SWAP1 POP SWAP2 SWAP1 POP JUMP JUMPDEST PUSH32 0x4564697400000000000000000000000000000000000000000000000000000000 PUSH0 DUP3 ADD MSTORE POP JUMP JUMPDEST PUSH0 PUSH2 0x751F PUSH1 0x4 DUP4 PUSH2 0x5F28 JUMP JUMPDEST SWAP2 POP PUSH2 0x752A DUP3 PUSH2 0x74EB JUMP JUMPDEST PUSH1 0x20 DUP3 ADD SWAP1 POP SWAP2 SWAP1 POP JUMP JUMPDEST PUSH0 PUSH1 0x40 DUP3 ADD SWAP1 POP DUP2 DUP2 SUB PUSH0 DUP4 ADD MSTORE PUSH2 0x754C DUP2 PUSH2 0x74C9 JUMP JUMPDEST SWAP1 POP DUP2 DUP2 SUB PUSH1 0x20 DUP4 ADD MSTORE PUSH2 0x755F DUP2 PUSH2 0x7513 JUMP JUMPDEST SWAP1 POP SWAP2 SWAP1 POP JUMP JUMPDEST PUSH0 PUSH1 0x40 DUP3 ADD SWAP1 POP DUP2 DUP2 SUB PUSH0 DUP4 ADD MSTORE PUSH2 0x757D DUP2 PUSH2 0x74C9 JUMP JUMPDEST SWAP1 POP DUP2 DUP2 SUB PUSH1 0x20 DUP4 ADD MSTORE PUSH2 0x7590 DUP2 PUSH2 0x7427 JUMP JUMPDEST SWAP1 POP SWAP2 SWAP1 POP JUMP JUMPDEST PUSH0 PUSH1 0x40 DUP3 ADD SWAP1 POP DUP2 DUP2 SUB PUSH0 DUP4 ADD MSTORE PUSH2 0x75AE DUP2 PUSH2 0x6C74 JUMP JUMPDEST SWAP1 POP DUP2 DUP2 SUB PUSH1 0x20 DUP4 ADD MSTORE PUSH2 0x75C1 DUP2 PUSH2 0x7513 JUMP JUMPDEST SWAP1 POP SWAP2 SWAP1 POP JUMP INVALID LOG2 PUSH5 0x6970667358 0x22 SLT KECCAK256 BASEFEE JUMP LOG3 PUSH13 0xEAFC44EC77A42FA9D4B7587E4F XOR SIGNEXTEND 0xA5 0xE8 PUSH27 0x81D7D81B9EE140E1957364736F6C634300081A0033000000000000 "
		},
		"gasEstimates": {
			"creation": {
				"codeDepositCost": "6041200",
				"executionCost": "infinite",
				"totalCost": "infinite"
			},
			"external": {
				"accessRequests(uint256)": "infinite",
				"approvals(uint256,address)": "3115",
				"createAccessRequest(string,string)": "infinite",
				"deleteGlobalResourceTable(address)": "infinite",
				"deleteLocalResourceTable(address)": "infinite",
				"editGlobalResourceTable(address,address)": "infinite",
				"editLocalResourceTable(address,address)": "infinite",
				"getTime()": "infinite",
				"handleAccessRequest(uint256,bool)": "infinite",
				"judgeContract()": "infinite",
				"owner()": "2604",
				"policies(uint256)": "infinite",
				"policyAdd(uint8,string,string,string)": "infinite",
				"policyDelete(uint256)": "infinite",
				"policyUpdate(uint256,uint8,string,string,string)": "infinite",
				"quorumPercentage()": "2448",
				"registerContract()": "infinite",
				"renounceOwnership()": "infinite",
				"roleBasedAccessControl()": "infinite",
				"transferOwnership(address)": "infinite",
				"viewGlobalResourceTable()": "infinite",
				"viewLocalResourceTable()": "infinite"
			},
			"internal": {
				"checkPolicy(string memory,string memory,enum RoleToken.Role)": "infinite"
			}
		},
		"methodIdentifiers": {
			"accessRequests(uint256)": "8ca91a9a",
			"approvals(uint256,address)": "ab2850da",
			"createAccessRequest(string,string)": "55668260",
			"deleteGlobalResourceTable(address)": "62f2788a",
			"deleteLocalResourceTable(address)": "a39610a0",
			"editGlobalResourceTable(address,address)": "b3b4c20a",
			"editLocalResourceTable(address,address)": "8eee05be",
			"getTime()": "557ed1ba",
			"handleAccessRequest(uint256,bool)": "3c2b363a",
			"judgeContract()": "d6b683fc",
			"owner()": "8da5cb5b",
			"policies(uint256)": "d3e89483",
			"policyAdd(uint8,string,string,string)": "6391b488",
			"policyDelete(uint256)": "235fd7e2",
			"policyUpdate(uint256,uint8,string,string,string)": "0d9f7ed4",
			"quorumPercentage()": "4fa76ec9",
			"registerContract()": "7feffff3",
			"renounceOwnership()": "715018a6",
			"roleBasedAccessControl()": "0c317f06",
			"transferOwnership(address)": "f2fde38b",
			"viewGlobalResourceTable()": "6293902f",
			"viewLocalResourceTable()": "37930faf"
		}
	},
	"abi": [
		{
			"inputs": [
				{
					"internalType": "address",
					"name": "_roleBasedAccessControl",
					"type": "address"
				},
				{
					"internalType": "address",
					"name": "_judgeContract",
					"type": "address"
				},
				{
					"internalType": "address",
					"name": "_registerContract",
					"type": "address"
				},
				{
					"internalType": "address",
					"name": "initialOwner",
					"type": "address"
				}
			],
			"stateMutability": "nonpayable",
			"type": "constructor"
		},
		{
			"inputs": [
				{
					"internalType": "address",
					"name": "owner",
					"type": "address"
				}
			],
			"name": "OwnableInvalidOwner",
			"type": "error"
		},
		{
			"inputs": [
				{
					"internalType": "address",
					"name": "account",
					"type": "address"
				}
			],
			"name": "OwnableUnauthorizedAccount",
			"type": "error"
		},
		{
			"anonymous": false,
			"inputs": [
				{
					"indexed": true,
					"internalType": "address",
					"name": "requester",
					"type": "address"
				},
				{
					"indexed": false,
					"internalType": "string",
					"name": "reason",
					"type": "string"
				}
			],
			"name": "AccessDenied",
			"type": "event"
		},
		{
			"anonymous": false,
			"inputs": [
				{
					"indexed": true,
					"internalType": "address",
					"name": "requester",
					"type": "address"
				},
				{
					"indexed": false,
					"internalType": "string",
					"name": "funcName",
					"type": "string"
				},
				{
					"indexed": false,
					"internalType": "string",
					"name": "funcType",
					"type": "string"
				}
			],
			"name": "AccessGranted",
			"type": "event"
		},
		{
			"anonymous": false,
			"inputs": [
				{
					"indexed": true,
					"internalType": "uint256",
					"name": "requestId",
					"type": "uint256"
				},
				{
					"indexed": true,
					"internalType": "address",
					"name": "requester",
					"type": "address"
				},
				{
					"indexed": false,
					"internalType": "string",
					"name": "resource",
					"type": "string"
				},
				{
					"indexed": true,
					"internalType": "address",
					"name": "contractAddress",
					"type": "address"
				}
			],
			"name": "AccessRequestCreated",
			"type": "event"
		},
		{
			"anonymous": false,
			"inputs": [
				{
					"indexed": true,
					"internalType": "address",
					"name": "viewer",
					"type": "address"
				},
				{
					"components": [
						{
							"internalType": "address",
							"name": "memberAddress",
							"type": "address"
						},
						{
							"internalType": "string",
							"name": "name",
							"type": "string"
						},
						{
							"internalType": "string",
							"name": "memberType",
							"type": "string"
						},
						{
							"internalType": "string",
							"name": "status",
							"type": "string"
						},
						{
							"internalType": "uint256",
							"name": "lastStatusUpdate",
							"type": "uint256"
						},
						{
							"internalType": "enum RoleToken.Role",
							"name": "role",
							"type": "uint8"
						}
					],
					"indexed": false,
					"internalType": "struct RoleToken.Member[]",
					"name": "resourceTable",
					"type": "tuple[]"
				}
			],
			"name": "GlobalResourceTableViewed",
			"type": "event"
		},
		{
			"anonymous": false,
			"inputs": [
				{
					"indexed": true,
					"internalType": "address",
					"name": "viewer",
					"type": "address"
				},
				{
					"components": [
						{
							"internalType": "address",
							"name": "memberAddress",
							"type": "address"
						},
						{
							"internalType": "string",
							"name": "name",
							"type": "string"
						},
						{
							"internalType": "string",
							"name": "memberType",
							"type": "string"
						},
						{
							"internalType": "string",
							"name": "status",
							"type": "string"
						},
						{
							"internalType": "uint256",
							"name": "lastStatusUpdate",
							"type": "uint256"
						},
						{
							"internalType": "enum RoleToken.Role",
							"name": "role",
							"type": "uint8"
						}
					],
					"indexed": false,
					"internalType": "struct RoleToken.Member[]",
					"name": "resourceTable",
					"type": "tuple[]"
				}
			],
			"name": "LocalResourceTableViewed",
			"type": "event"
		},
		{
			"anonymous": false,
			"inputs": [
				{
					"indexed": true,
					"internalType": "address",
					"name": "subject",
					"type": "address"
				},
				{
					"indexed": false,
					"internalType": "uint256",
					"name": "penaltyAmount",
					"type": "uint256"
				},
				{
					"indexed": false,
					"internalType": "string",
					"name": "reason",
					"type": "string"
				},
				{
					"indexed": false,
					"internalType": "uint256",
					"name": "blockingEndTime",
					"type": "uint256"
				}
			],
			"name": "MaliciousActivityReported",
			"type": "event"
		},
		{
			"anonymous": false,
			"inputs": [
				{
					"indexed": true,
					"internalType": "address",
					"name": "subject",
					"type": "address"
				},
				{
					"indexed": false,
					"internalType": "uint256",
					"name": "rewardAmount",
					"type": "uint256"
				},
				{
					"indexed": false,
					"internalType": "string",
					"name": "newStatus",
					"type": "string"
				}
			],
			"name": "NonPenalizeMisbehaviorReported",
			"type": "event"
		},
		{
			"anonymous": false,
			"inputs": [
				{
					"indexed": true,
					"internalType": "address",
					"name": "previousOwner",
					"type": "address"
				},
				{
					"indexed": true,
					"internalType": "address",
					"name": "newOwner",
					"type": "address"
				}
			],
			"name": "OwnershipTransferred",
			"type": "event"
		},
		{
			"anonymous": false,
			"inputs": [
				{
					"indexed": false,
					"internalType": "uint256",
					"name": "policyId",
					"type": "uint256"
				},
				{
					"indexed": false,
					"internalType": "enum RoleToken.Role",
					"name": "role",
					"type": "uint8"
				},
				{
					"indexed": false,
					"internalType": "string",
					"name": "resource",
					"type": "string"
				},
				{
					"indexed": false,
					"internalType": "string",
					"name": "action",
					"type": "string"
				},
				{
					"indexed": false,
					"internalType": "string",
					"name": "permission",
					"type": "string"
				}
			],
			"name": "PolicyAdded",
			"type": "event"
		},
		{
			"anonymous": false,
			"inputs": [
				{
					"indexed": false,
					"internalType": "uint256",
					"name": "policyId",
					"type": "uint256"
				}
			],
			"name": "PolicyDeleted",
			"type": "event"
		},
		{
			"anonymous": false,
			"inputs": [
				{
					"indexed": false,
					"internalType": "uint256",
					"name": "policyId",
					"type": "uint256"
				},
				{
					"indexed": false,
					"internalType": "enum RoleToken.Role",
					"name": "role",
					"type": "uint8"
				},
				{
					"indexed": false,
					"internalType": "string",
					"name": "resource",
					"type": "string"
				},
				{
					"indexed": false,
					"internalType": "string",
					"name": "action",
					"type": "string"
				},
				{
					"indexed": false,
					"internalType": "string",
					"name": "permission",
					"type": "string"
				}
			],
			"name": "PolicyUpdated",
			"type": "event"
		},
		{
			"anonymous": false,
			"inputs": [
				{
					"indexed": false,
					"internalType": "address",
					"name": "resolvedAddress",
					"type": "address"
				},
				{
					"indexed": false,
					"internalType": "string",
					"name": "name",
					"type": "string"
				}
			],
			"name": "ResolveAddressLog",
			"type": "event"
		},
		{
			"inputs": [
				{
					"internalType": "uint256",
					"name": "",
					"type": "uint256"
				}
			],
			"name": "accessRequests",
			"outputs": [
				{
					"internalType": "uint256",
					"name": "id",
					"type": "uint256"
				},
				{
					"internalType": "string",
					"name": "resource",
					"type": "string"
				},
				{
					"internalType": "string",
					"name": "action",
					"type": "string"
				},
				{
					"internalType": "uint256",
					"name": "approvals",
					"type": "uint256"
				},
				{
					"internalType": "address",
					"name": "requester",
					"type": "address"
				},
				{
					"internalType": "bool",
					"name": "isGlobalRequest",
					"type": "bool"
				},
				{
					"internalType": "bool",
					"name": "isApproved",
					"type": "bool"
				},
				{
					"internalType": "uint256",
					"name": "requiredQuorum",
					"type": "uint256"
				}
			],
			"stateMutability": "view",
			"type": "function"
		},
		{
			"inputs": [
				{
					"internalType": "uint256",
					"name": "",
					"type": "uint256"
				},
				{
					"internalType": "address",
					"name": "",
					"type": "address"
				}
			],
			"name": "approvals",
			"outputs": [
				{
					"internalType": "bool",
					"name": "",
					"type": "bool"
				}
			],
			"stateMutability": "view",
			"type": "function"
		},
		{
			"inputs": [
				{
					"internalType": "string",
					"name": "resource",
					"type": "string"
				},
				{
					"internalType": "string",
					"name": "action",
					"type": "string"
				}
			],
			"name": "createAccessRequest",
			"outputs": [],
			"stateMutability": "nonpayable",
			"type": "function"
		},
		{
			"inputs": [
				{
					"internalType": "address",
					"name": "account",
					"type": "address"
				}
			],
			"name": "deleteGlobalResourceTable",
			"outputs": [],
			"stateMutability": "nonpayable",
			"type": "function"
		},
		{
			"inputs": [
				{
					"internalType": "address",
					"name": "account",
					"type": "address"
				}
			],
			"name": "deleteLocalResourceTable",
			"outputs": [],
			"stateMutability": "nonpayable",
			"type": "function"
		},
		{
			"inputs": [
				{
					"internalType": "address",
					"name": "account1",
					"type": "address"
				},
				{
					"internalType": "address",
					"name": "account2",
					"type": "address"
				}
			],
			"name": "editGlobalResourceTable",
			"outputs": [],
			"stateMutability": "nonpayable",
			"type": "function"
		},
		{
			"inputs": [
				{
					"internalType": "address",
					"name": "account1",
					"type": "address"
				},
				{
					"internalType": "address",
					"name": "account2",
					"type": "address"
				}
			],
			"name": "editLocalResourceTable",
			"outputs": [],
			"stateMutability": "nonpayable",
			"type": "function"
		},
		{
			"inputs": [],
			"name": "getTime",
			"outputs": [
				{
					"internalType": "uint256",
					"name": "",
					"type": "uint256"
				},
				{
					"internalType": "bool",
					"name": "",
					"type": "bool"
				}
			],
			"stateMutability": "view",
			"type": "function"
		},
		{
			"inputs": [
				{
					"internalType": "uint256",
					"name": "requestId",
					"type": "uint256"
				},
				{
					"internalType": "bool",
					"name": "approve",
					"type": "bool"
				}
			],
			"name": "handleAccessRequest",
			"outputs": [],
			"stateMutability": "nonpayable",
			"type": "function"
		},
		{
			"inputs": [],
			"name": "judgeContract",
			"outputs": [
				{
					"internalType": "contract JudgeContract",
					"name": "",
					"type": "address"
				}
			],
			"stateMutability": "view",
			"type": "function"
		},
		{
			"inputs": [],
			"name": "owner",
			"outputs": [
				{
					"internalType": "address",
					"name": "",
					"type": "address"
				}
			],
			"stateMutability": "view",
			"type": "function"
		},
		{
			"inputs": [
				{
					"internalType": "uint256",
					"name": "",
					"type": "uint256"
				}
			],
			"name": "policies",
			"outputs": [
				{
					"internalType": "enum RoleToken.Role",
					"name": "role",
					"type": "uint8"
				},
				{
					"internalType": "string",
					"name": "resource",
					"type": "string"
				},
				{
					"internalType": "string",
					"name": "action",
					"type": "string"
				},
				{
					"internalType": "string",
					"name": "permission",
					"type": "string"
				},
				{
					"internalType": "uint256",
					"name": "timeOfLastRequest",
					"type": "uint256"
				}
			],
			"stateMutability": "view",
			"type": "function"
		},
		{
			"inputs": [
				{
					"internalType": "enum RoleToken.Role",
					"name": "role",
					"type": "uint8"
				},
				{
					"internalType": "string",
					"name": "resource",
					"type": "string"
				},
				{
					"internalType": "string",
					"name": "action",
					"type": "string"
				},
				{
					"internalType": "string",
					"name": "permission",
					"type": "string"
				}
			],
			"name": "policyAdd",
			"outputs": [],
			"stateMutability": "nonpayable",
			"type": "function"
		},
		{
			"inputs": [
				{
					"internalType": "uint256",
					"name": "policyId",
					"type": "uint256"
				}
			],
			"name": "policyDelete",
			"outputs": [],
			"stateMutability": "nonpayable",
			"type": "function"
		},
		{
			"inputs": [
				{
					"internalType": "uint256",
					"name": "policyId",
					"type": "uint256"
				},
				{
					"internalType": "enum RoleToken.Role",
					"name": "role",
					"type": "uint8"
				},
				{
					"internalType": "string",
					"name": "resource",
					"type": "string"
				},
				{
					"internalType": "string",
					"name": "action",
					"type": "string"
				},
				{
					"internalType": "string",
					"name": "permission",
					"type": "string"
				}
			],
			"name": "policyUpdate",
			"outputs": [],
			"stateMutability": "nonpayable",
			"type": "function"
		},
		{
			"inputs": [],
			"name": "quorumPercentage",
			"outputs": [
				{
					"internalType": "uint256",
					"name": "",
					"type": "uint256"
				}
			],
			"stateMutability": "view",
			"type": "function"
		},
		{
			"inputs": [],
			"name": "registerContract",
			"outputs": [
				{
					"internalType": "contract RegisterContract",
					"name": "",
					"type": "address"
				}
			],
			"stateMutability": "view",
			"type": "function"
		},
		{
			"inputs": [],
			"name": "renounceOwnership",
			"outputs": [],
			"stateMutability": "nonpayable",
			"type": "function"
		},
		{
			"inputs": [],
			"name": "roleBasedAccessControl",
			"outputs": [
				{
					"internalType": "contract RoleBasedAccessControl",
					"name": "",
					"type": "address"
				}
			],
			"stateMutability": "view",
			"type": "function"
		},
		{
			"inputs": [
				{
					"internalType": "address",
					"name": "newOwner",
					"type": "address"
				}
			],
			"name": "transferOwnership",
			"outputs": [],
			"stateMutability": "nonpayable",
			"type": "function"
		},
		{
			"inputs": [],
			"name": "viewGlobalResourceTable",
			"outputs": [],
			"stateMutability": "nonpayable",
			"type": "function"
		},
		{
			"inputs": [],
			"name": "viewLocalResourceTable",
			"outputs": [],
			"stateMutability": "nonpayable",
			"type": "function"
		}
	]
}