{
  "_format": "hh-sol-artifact-1",
  "contractName": "RegisterContract",
  "sourceName": "contracts/RegisterContract.sol",
  "abi": [
    {
      "inputs": [
        {
          "internalType": "address",
          "name": "initialAdmin",
          "type": "address"
        },
        {
          "internalType": "address",
          "name": "_roleBasedAccessContract",
          "type": "address"
        }
      ],
      "stateMutability": "nonpayable",
      "type": "constructor"
    },
    {
      "inputs": [
        {
          "internalType": "address",
          "name": "owner",
          "type": "address"
        }
      ],
      "name": "OwnableInvalidOwner",
      "type": "error"
    },
    {
      "inputs": [
        {
          "internalType": "address",
          "name": "account",
          "type": "address"
        }
      ],
      "name": "OwnableUnauthorizedAccount",
      "type": "error"
    },
    {
      "anonymous": false,
      "inputs": [
        {
          "indexed": true,
          "internalType": "address",
          "name": "objectAddress",
          "type": "address"
        },
        {
          "indexed": true,
          "internalType": "address",
          "name": "subjectAddress",
          "type": "address"
        },
        {
          "indexed": false,
          "internalType": "string",
          "name": "accType",
          "type": "string"
        },
        {
          "indexed": false,
          "internalType": "address",
          "name": "contractAddress",
          "type": "address"
        }
      ],
      "name": "AccessControlRegistered",
      "type": "event"
    },
    {
      "anonymous": false,
      "inputs": [
        {
          "indexed": true,
          "internalType": "address",
          "name": "previousOwner",
          "type": "address"
        },
        {
          "indexed": true,
          "internalType": "address",
          "name": "newOwner",
          "type": "address"
        }
      ],
      "name": "OwnershipTransferred",
      "type": "event"
    },
    {
      "inputs": [
        {
          "internalType": "address",
          "name": "objectAddress",
          "type": "address"
        },
        {
          "internalType": "address",
          "name": "subjectAddress",
          "type": "address"
        },
        {
          "internalType": "string",
          "name": "accType",
          "type": "string"
        }
      ],
      "name": "accessControlContractExists",
      "outputs": [
        {
          "internalType": "bool",
          "name": "",
          "type": "bool"
        }
      ],
      "stateMutability": "view",
      "type": "function"
    },
    {
      "inputs": [
        {
          "internalType": "address",
          "name": "",
          "type": "address"
        },
        {
          "internalType": "address",
          "name": "",
          "type": "address"
        },
        {
          "internalType": "string",
          "name": "",
          "type": "string"
        }
      ],
      "name": "accessControlRegistry",
      "outputs": [
        {
          "internalType": "address",
          "name": "",
          "type": "address"
        }
      ],
      "stateMutability": "view",
      "type": "function"
    },
    {
      "inputs": [
        {
          "internalType": "address",
          "name": "objectAddress",
          "type": "address"
        },
        {
          "internalType": "address",
          "name": "subjectAddress",
          "type": "address"
        },
        {
          "internalType": "string",
          "name": "accType",
          "type": "string"
        }
      ],
      "name": "getAccessControlContract",
      "outputs": [
        {
          "internalType": "address",
          "name": "",
          "type": "address"
        }
      ],
      "stateMutability": "view",
      "type": "function"
    },
    {
      "inputs": [],
      "name": "judgeContractAddress",
      "outputs": [
        {
          "internalType": "address",
          "name": "",
          "type": "address"
        }
      ],
      "stateMutability": "view",
      "type": "function"
    },
    {
      "inputs": [],
      "name": "owner",
      "outputs": [
        {
          "internalType": "address",
          "name": "",
          "type": "address"
        }
      ],
      "stateMutability": "view",
      "type": "function"
    },
    {
      "inputs": [
        {
          "internalType": "address",
          "name": "objectAddress",
          "type": "address"
        },
        {
          "internalType": "address",
          "name": "subjectAddress",
          "type": "address"
        },
        {
          "internalType": "string",
          "name": "accType",
          "type": "string"
        },
        {
          "internalType": "address",
          "name": "contractAddress",
          "type": "address"
        }
      ],
      "name": "registerAccessControlContract",
      "outputs": [],
      "stateMutability": "nonpayable",
      "type": "function"
    },
    {
      "inputs": [],
      "name": "renounceOwnership",
      "outputs": [],
      "stateMutability": "nonpayable",
      "type": "function"
    },
    {
      "inputs": [],
      "name": "roleBasedAccessContract",
      "outputs": [
        {
          "internalType": "contract RoleBasedAccessControl",
          "name": "",
          "type": "address"
        }
      ],
      "stateMutability": "view",
      "type": "function"
    },
    {
      "inputs": [
        {
          "internalType": "address",
          "name": "_judgeContractAddress",
          "type": "address"
        }
      ],
      "name": "setJudgeContractAddress",
      "outputs": [],
      "stateMutability": "nonpayable",
      "type": "function"
    },
    {
      "inputs": [
        {
          "internalType": "address",
          "name": "newOwner",
          "type": "address"
        }
      ],
      "name": "transferOwnership",
      "outputs": [],
      "stateMutability": "nonpayable",
      "type": "function"
    }
  ],
  "bytecode": "0x60806040523480156200001157600080fd5b506040516200128f3803806200128f833981810160405281019062000037919062000236565b81600073ffffffffffffffffffffffffffffffffffffffff168173ffffffffffffffffffffffffffffffffffffffff1603620000ad5760006040517f1e4fbdf7000000000000000000000000000000000000000000000000000000008152600401620000a491906200028e565b60405180910390fd5b620000be816200010860201b60201c565b5080600160006101000a81548173ffffffffffffffffffffffffffffffffffffffff021916908373ffffffffffffffffffffffffffffffffffffffff1602179055505050620002ab565b60008060009054906101000a900473ffffffffffffffffffffffffffffffffffffffff169050816000806101000a81548173ffffffffffffffffffffffffffffffffffffffff021916908373ffffffffffffffffffffffffffffffffffffffff1602179055508173ffffffffffffffffffffffffffffffffffffffff168173ffffffffffffffffffffffffffffffffffffffff167f8be0079c531659141344cd1fd0a4f28419497f9722a3daafe3b4186f6b6457e060405160405180910390a35050565b600080fd5b600073ffffffffffffffffffffffffffffffffffffffff82169050919050565b6000620001fe82620001d1565b9050919050565b6200021081620001f1565b81146200021c57600080fd5b50565b600081519050620002308162000205565b92915050565b6000806040838503121562000250576200024f620001cc565b5b600062000260858286016200021f565b925050602062000273858286016200021f565b9150509250929050565b6200028881620001f1565b82525050565b6000602082019050620002a560008301846200027d565b92915050565b610fd480620002bb6000396000f3fe608060405234801561001057600080fd5b506004361061009e5760003560e01c80638da5cb5b116100665780638da5cb5b14610135578063c943dae514610153578063e2dd13ca14610183578063f2fde38b146101b3578063fb25798c146101cf5761009e565b80631172a030146100a357806339061ed8146100c157806353975266146100f1578063715018a61461010d57806375ed284514610117575b600080fd5b6100ab6101eb565b6040516100b89190610987565b60405180910390f35b6100db60048036038101906100d69190610b28565b610211565b6040516100e89190610987565b60405180910390f35b61010b60048036038101906101069190610b97565b610276565b005b610115610507565b005b61011f61051b565b60405161012c9190610c79565b60405180910390f35b61013d610541565b60405161014a9190610987565b60405180910390f35b61016d60048036038101906101689190610b28565b61056a565b60405161017a9190610987565b60405180910390f35b61019d60048036038101906101989190610b28565b61062e565b6040516101aa9190610caf565b60405180910390f35b6101cd60048036038101906101c89190610cca565b610721565b005b6101e960048036038101906101e49190610cca565b6107a7565b005b600360009054906101000a900473ffffffffffffffffffffffffffffffffffffffff1681565b600260205282600052604060002060205281600052604060002081805160208101820180518482526020830160208501208183528095505050505050600092509250509054906101000a900473ffffffffffffffffffffffffffffffffffffffff1681565b6001600481111561028a57610289610cf7565b5b600160009054906101000a900473ffffffffffffffffffffffffffffffffffffffff1673ffffffffffffffffffffffffffffffffffffffff166344276733336040518263ffffffff1660e01b81526004016102e59190610987565b602060405180830381865afa158015610302573d6000803e3d6000fd5b505050506040513d601f19601f820116820180604052508101906103269190610d4b565b600481111561033857610337610cf7565b5b14610378576040517f08c379a000000000000000000000000000000000000000000000000000000000815260040161036f90610dd5565b60405180910390fd5b61038384848461062e565b156103c3576040517f08c379a00000000000000000000000000000000000000000000000000000000081526004016103ba90610e8d565b60405180910390fd5b80600260008673ffffffffffffffffffffffffffffffffffffffff1673ffffffffffffffffffffffffffffffffffffffff16815260200190815260200160002060008573ffffffffffffffffffffffffffffffffffffffff1673ffffffffffffffffffffffffffffffffffffffff1681526020019081526020016000208360405161044e9190610f1e565b908152602001604051809103902060006101000a81548173ffffffffffffffffffffffffffffffffffffffff021916908373ffffffffffffffffffffffffffffffffffffffff1602179055508273ffffffffffffffffffffffffffffffffffffffff168473ffffffffffffffffffffffffffffffffffffffff167fbd6c61e8b971ac83726b8aa59829960d206a968b3bb14ffaf5460b63a32dbbf584846040516104f9929190610f6e565b60405180910390a350505050565b61050f6107f3565b610519600061087a565b565b600160009054906101000a900473ffffffffffffffffffffffffffffffffffffffff1681565b60008060009054906101000a900473ffffffffffffffffffffffffffffffffffffffff16905090565b6000600260008573ffffffffffffffffffffffffffffffffffffffff1673ffffffffffffffffffffffffffffffffffffffff16815260200190815260200160002060008473ffffffffffffffffffffffffffffffffffffffff1673ffffffffffffffffffffffffffffffffffffffff168152602001908152602001600020826040516105f69190610f1e565b908152602001604051809103902060009054906101000a900473ffffffffffffffffffffffffffffffffffffffff1690509392505050565b60008073ffffffffffffffffffffffffffffffffffffffff16600260008673ffffffffffffffffffffffffffffffffffffffff1673ffffffffffffffffffffffffffffffffffffffff16815260200190815260200160002060008573ffffffffffffffffffffffffffffffffffffffff1673ffffffffffffffffffffffffffffffffffffffff168152602001908152602001600020836040516106d19190610f1e565b908152602001604051809103902060009054906101000a900473ffffffffffffffffffffffffffffffffffffffff1673ffffffffffffffffffffffffffffffffffffffff16141590509392505050565b6107296107f3565b600073ffffffffffffffffffffffffffffffffffffffff168173ffffffffffffffffffffffffffffffffffffffff160361079b5760006040517f1e4fbdf70000000000000000000000000000000000000000000000000000000081526004016107929190610987565b60405180910390fd5b6107a48161087a565b50565b6107af6107f3565b80600360006101000a81548173ffffffffffffffffffffffffffffffffffffffff021916908373ffffffffffffffffffffffffffffffffffffffff16021790555050565b6107fb61093e565b73ffffffffffffffffffffffffffffffffffffffff16610819610541565b73ffffffffffffffffffffffffffffffffffffffff16146108785761083c61093e565b6040517f118cdaa700000000000000000000000000000000000000000000000000000000815260040161086f9190610987565b60405180910390fd5b565b60008060009054906101000a900473ffffffffffffffffffffffffffffffffffffffff169050816000806101000a81548173ffffffffffffffffffffffffffffffffffffffff021916908373ffffffffffffffffffffffffffffffffffffffff1602179055508173ffffffffffffffffffffffffffffffffffffffff168173ffffffffffffffffffffffffffffffffffffffff167f8be0079c531659141344cd1fd0a4f28419497f9722a3daafe3b4186f6b6457e060405160405180910390a35050565b600033905090565b600073ffffffffffffffffffffffffffffffffffffffff82169050919050565b600061097182610946565b9050919050565b61098181610966565b82525050565b600060208201905061099c6000830184610978565b92915050565b6000604051905090565b600080fd5b600080fd5b6109bf81610966565b81146109ca57600080fd5b50565b6000813590506109dc816109b6565b92915050565b600080fd5b600080fd5b6000601f19601f8301169050919050565b7f4e487b7100000000000000000000000000000000000000000000000000000000600052604160045260246000fd5b610a35826109ec565b810181811067ffffffffffffffff82111715610a5457610a536109fd565b5b80604052505050565b6000610a676109a2565b9050610a738282610a2c565b919050565b600067ffffffffffffffff821115610a9357610a926109fd565b5b610a9c826109ec565b9050602081019050919050565b82818337600083830152505050565b6000610acb610ac684610a78565b610a5d565b905082815260208101848484011115610ae757610ae66109e7565b5b610af2848285610aa9565b509392505050565b600082601f830112610b0f57610b0e6109e2565b5b8135610b1f848260208601610ab8565b91505092915050565b600080600060608486031215610b4157610b406109ac565b5b6000610b4f868287016109cd565b9350506020610b60868287016109cd565b925050604084013567ffffffffffffffff811115610b8157610b806109b1565b5b610b8d86828701610afa565b9150509250925092565b60008060008060808587031215610bb157610bb06109ac565b5b6000610bbf878288016109cd565b9450506020610bd0878288016109cd565b935050604085013567ffffffffffffffff811115610bf157610bf06109b1565b5b610bfd87828801610afa565b9250506060610c0e878288016109cd565b91505092959194509250565b6000819050919050565b6000610c3f610c3a610c3584610946565b610c1a565b610946565b9050919050565b6000610c5182610c24565b9050919050565b6000610c6382610c46565b9050919050565b610c7381610c58565b82525050565b6000602082019050610c8e6000830184610c6a565b92915050565b60008115159050919050565b610ca981610c94565b82525050565b6000602082019050610cc46000830184610ca0565b92915050565b600060208284031215610ce057610cdf6109ac565b5b6000610cee848285016109cd565b91505092915050565b7f4e487b7100000000000000000000000000000000000000000000000000000000600052602160045260246000fd5b60058110610d3357600080fd5b50565b600081519050610d4581610d26565b92915050565b600060208284031215610d6157610d606109ac565b5b6000610d6f84828501610d36565b91505092915050565b600082825260208201905092915050565b7f4163636573732064656e6965643a204e6f7420616e2041646d696e0000000000600082015250565b6000610dbf601b83610d78565b9150610dca82610d89565b602082019050919050565b60006020820190508181036000830152610dee81610db2565b9050919050565b7f4572726f723a2041636365737320636f6e74726f6c20636f6e7472616374206160008201527f6c7265616479207265676973746572656420666f722074686973206f626a656360208201527f742c207375626a6563742c20616e6420747970652e0000000000000000000000604082015250565b6000610e77605583610d78565b9150610e8282610df5565b606082019050919050565b60006020820190508181036000830152610ea681610e6a565b9050919050565b600081519050919050565b600081905092915050565b60005b83811015610ee1578082015181840152602081019050610ec6565b60008484015250505050565b6000610ef882610ead565b610f028185610eb8565b9350610f12818560208601610ec3565b80840191505092915050565b6000610f2a8284610eed565b915081905092915050565b6000610f4082610ead565b610f4a8185610d78565b9350610f5a818560208601610ec3565b610f63816109ec565b840191505092915050565b60006040820190508181036000830152610f888185610f35565b9050610f976020830184610978565b939250505056fea2646970667358221220ffd03042f7a6dc15f0af2380b56c2a161f9fd137651d4230a55cee56640eec1064736f6c63430008150033",
  "linkReferences": {},
  "deployedLinkReferences": {}
}