{
  "_format": "hh-sol-artifact-1",
  "contractName": "JudgeContract",
  "sourceName": "contracts/JudgeContract.sol",
  "abi": [
    {
      "inputs": [
        {
          "internalType": "address",
          "name": "initialAdmin",
          "type": "address"
        },
        {
          "internalType": "address",
          "name": "_roleBasedAccessContract",
          "type": "address"
        }
      ],
      "stateMutability": "nonpayable",
      "type": "constructor"
    },
    {
      "inputs": [
        {
          "internalType": "address",
          "name": "owner",
          "type": "address"
        }
      ],
      "name": "OwnableInvalidOwner",
      "type": "error"
    },
    {
      "inputs": [
        {
          "internalType": "address",
          "name": "account",
          "type": "address"
        }
      ],
      "name": "OwnableUnauthorizedAccount",
      "type": "error"
    },
    {
      "anonymous": false,
      "inputs": [
        {
          "indexed": true,
          "internalType": "address",
          "name": "memberAddress",
          "type": "address"
        },
        {
          "indexed": false,
          "internalType": "uint256",
          "name": "blockingEndTime",
          "type": "uint256"
        },
        {
          "indexed": false,
          "internalType": "string",
          "name": "reason",
          "type": "string"
        }
      ],
      "name": "MemberBlocked",
      "type": "event"
    },
    {
      "anonymous": false,
      "inputs": [
        {
          "indexed": true,
          "internalType": "address",
          "name": "previousOwner",
          "type": "address"
        },
        {
          "indexed": true,
          "internalType": "address",
          "name": "newOwner",
          "type": "address"
        }
      ],
      "name": "OwnershipTransferred",
      "type": "event"
    },
    {
      "anonymous": false,
      "inputs": [
        {
          "indexed": true,
          "internalType": "address",
          "name": "memberAddress",
          "type": "address"
        },
        {
          "indexed": false,
          "internalType": "uint256",
          "name": "penaltyAmount",
          "type": "uint256"
        },
        {
          "indexed": false,
          "internalType": "string",
          "name": "reason",
          "type": "string"
        }
      ],
      "name": "Penalized",
      "type": "event"
    },
    {
      "anonymous": false,
      "inputs": [
        {
          "indexed": true,
          "internalType": "address",
          "name": "memberAddress",
          "type": "address"
        },
        {
          "indexed": false,
          "internalType": "uint256",
          "name": "rewardAmount",
          "type": "uint256"
        }
      ],
      "name": "RewardIssued",
      "type": "event"
    },
    {
      "anonymous": false,
      "inputs": [
        {
          "indexed": true,
          "internalType": "address",
          "name": "memberAddress",
          "type": "address"
        },
        {
          "indexed": false,
          "internalType": "string",
          "name": "newStatus",
          "type": "string"
        }
      ],
      "name": "StatusUpdated",
      "type": "event"
    },
    {
      "inputs": [],
      "name": "admin",
      "outputs": [
        {
          "internalType": "address",
          "name": "",
          "type": "address"
        }
      ],
      "stateMutability": "view",
      "type": "function"
    },
    {
      "inputs": [],
      "name": "benignThreshold",
      "outputs": [
        {
          "internalType": "uint256",
          "name": "",
          "type": "uint256"
        }
      ],
      "stateMutability": "view",
      "type": "function"
    },
    {
      "inputs": [],
      "name": "benignThresholdForMalicious",
      "outputs": [
        {
          "internalType": "uint256",
          "name": "",
          "type": "uint256"
        }
      ],
      "stateMutability": "view",
      "type": "function"
    },
    {
      "inputs": [
        {
          "internalType": "address",
          "name": "_memberAddress",
          "type": "address"
        }
      ],
      "name": "getBlockingEndTime",
      "outputs": [
        {
          "internalType": "uint256",
          "name": "",
          "type": "uint256"
        }
      ],
      "stateMutability": "view",
      "type": "function"
    },
    {
      "inputs": [
        {
          "internalType": "address",
          "name": "",
          "type": "address"
        }
      ],
      "name": "misbehaviorHistory",
      "outputs": [
        {
          "internalType": "uint256",
          "name": "lastPenaltyTime",
          "type": "uint256"
        },
        {
          "internalType": "uint256",
          "name": "blockingEndTime",
          "type": "uint256"
        }
      ],
      "stateMutability": "view",
      "type": "function"
    },
    {
      "inputs": [],
      "name": "misbehaviorThreshold",
      "outputs": [
        {
          "internalType": "uint256",
          "name": "",
          "type": "uint256"
        }
      ],
      "stateMutability": "view",
      "type": "function"
    },
    {
      "inputs": [],
      "name": "owner",
      "outputs": [
        {
          "internalType": "address",
          "name": "",
          "type": "address"
        }
      ],
      "stateMutability": "view",
      "type": "function"
    },
    {
      "inputs": [],
      "name": "renounceOwnership",
      "outputs": [],
      "stateMutability": "nonpayable",
      "type": "function"
    },
    {
      "inputs": [
        {
          "internalType": "address",
          "name": "_memberAddress",
          "type": "address"
        },
        {
          "internalType": "string",
          "name": "reason",
          "type": "string"
        }
      ],
      "name": "reportMaliciousActivity",
      "outputs": [
        {
          "internalType": "uint256",
          "name": "penaltyAmount",
          "type": "uint256"
        },
        {
          "internalType": "string",
          "name": "reasonString",
          "type": "string"
        },
        {
          "internalType": "uint256",
          "name": "blockingEndTime",
          "type": "uint256"
        }
      ],
      "stateMutability": "nonpayable",
      "type": "function"
    },
    {
      "inputs": [
        {
          "internalType": "address",
          "name": "_memberAddress",
          "type": "address"
        }
      ],
      "name": "reportNonPenalizeMisbehavior",
      "outputs": [
        {
          "internalType": "uint256",
          "name": "rewardAmount",
          "type": "uint256"
        },
        {
          "internalType": "string",
          "name": "newStatus",
          "type": "string"
        }
      ],
      "stateMutability": "nonpayable",
      "type": "function"
    },
    {
      "inputs": [],
      "name": "roleBasedAccessContract",
      "outputs": [
        {
          "internalType": "contract RoleBasedAccessControl",
          "name": "",
          "type": "address"
        }
      ],
      "stateMutability": "view",
      "type": "function"
    },
    {
      "inputs": [
        {
          "internalType": "address",
          "name": "newOwner",
          "type": "address"
        }
      ],
      "name": "transferOwnership",
      "outputs": [],
      "stateMutability": "nonpayable",
      "type": "function"
    }
  ],
  "bytecode": "0x6080604052620151806005556202a3006006556102586007553480156200002557600080fd5b50604051620030963803806200309683398181016040528101906200004b919062000794565b81600073ffffffffffffffffffffffffffffffffffffffff168173ffffffffffffffffffffffffffffffffffffffff1603620000c15760006040517f1e4fbdf7000000000000000000000000000000000000000000000000000000008152600401620000b89190620007ec565b60405180910390fd5b620000d2816200066660201b60201c565b5081600260006101000a81548173ffffffffffffffffffffffffffffffffffffffff021916908373ffffffffffffffffffffffffffffffffffffffff16021790555080600160006101000a81548173ffffffffffffffffffffffffffffffffffffffff021916908373ffffffffffffffffffffffffffffffffffffffff16021790555060405180606001604052806040518060400160405280600581526020017f6d616a6f7200000000000000000000000000000000000000000000000000000081525081526020016113888152602001610e108152506004604051620001b99062000864565b90815260200160405180910390206000820151816000019081620001de919062000af5565b50602082015181600101556040820151816002015590505060405180606001604052806040518060400160405280600581526020017f6d696e6f7200000000000000000000000000000000000000000000000000000081525081526020016103e8815260200161025881525060046040516200025a9062000c2c565b908152602001604051809103902060008201518160000190816200027f919062000af5565b50602082015181600101556040820151816002015590505060405180606001604052806040518060400160405280600581526020017f6d616a6f720000000000000000000000000000000000000000000000000000008152508152602001611b588152602001611c208152506004604051620002fb9062000c93565b9081526020016040518091039020600082015181600001908162000320919062000af5565b50602082015181600101556040820151816002015590505060405180606001604052806040518060400160405280600581526020017f6d616a6f720000000000000000000000000000000000000000000000000000008152508152602001612710815260200161465081525060046040516200039c9062000cfa565b90815260200160405180910390206000820151816000019081620003c1919062000af5565b50602082015181600101556040820151816002015590505060405180606001604052806040518060400160405280600581526020017f6d696e6f7200000000000000000000000000000000000000000000000000000081525081526020016107d081526020016104b081525060046040516200043d9062000d61565b9081526020016040518091039020600082015181600001908162000462919062000af5565b50602082015181600101556040820151816002015590505060405180606001604052806040518060400160405280600581526020017f6d696e6f720000000000000000000000000000000000000000000000000000008152508152602001610bb88152602001610e108152506004604051620004de9062000dc8565b9081526020016040518091039020600082015181600001908162000503919062000af5565b50602082015181600101556040820151816002015590505060405180606001604052806040518060400160405280600581526020017f6d616a6f720000000000000000000000000000000000000000000000000000008152508152602001611f408152602001612a3081525060046040516200057f9062000e2f565b90815260200160405180910390206000820151816000019081620005a4919062000af5565b50602082015181600101556040820151816002015590505060405180606001604052806040518060400160405280600581526020017f6d616a6f720000000000000000000000000000000000000000000000000000008152508152602001614e2081526020016202a3008152506004604051620006219062000e96565b9081526020016040518091039020600082015181600001908162000646919062000af5565b506020820151816001015560408201518160020155905050505062000ead565b60008060009054906101000a900473ffffffffffffffffffffffffffffffffffffffff169050816000806101000a81548173ffffffffffffffffffffffffffffffffffffffff021916908373ffffffffffffffffffffffffffffffffffffffff1602179055508173ffffffffffffffffffffffffffffffffffffffff168173ffffffffffffffffffffffffffffffffffffffff167f8be0079c531659141344cd1fd0a4f28419497f9722a3daafe3b4186f6b6457e060405160405180910390a35050565b600080fd5b600073ffffffffffffffffffffffffffffffffffffffff82169050919050565b60006200075c826200072f565b9050919050565b6200076e816200074f565b81146200077a57600080fd5b50565b6000815190506200078e8162000763565b92915050565b60008060408385031215620007ae57620007ad6200072a565b5b6000620007be858286016200077d565b9250506020620007d1858286016200077d565b9150509250929050565b620007e6816200074f565b82525050565b6000602082019050620008036000830184620007db565b92915050565b600081905092915050565b7f556e617574686f72697a65642061636365737320617474656d70740000000000600082015250565b60006200084c601b8362000809565b9150620008598262000814565b601b82019050919050565b600062000871826200083d565b9150819050919050565b600081519050919050565b7f4e487b7100000000000000000000000000000000000000000000000000000000600052604160045260246000fd5b7f4e487b7100000000000000000000000000000000000000000000000000000000600052602260045260246000fd5b60006002820490506001821680620008fd57607f821691505b602082108103620009135762000912620008b5565b5b50919050565b60008190508160005260206000209050919050565b60006020601f8301049050919050565b600082821b905092915050565b6000600883026200097d7fffffffffffffffffffffffffffffffffffffffffffffffffffffffffffffffff826200093e565b6200098986836200093e565b95508019841693508086168417925050509392505050565b6000819050919050565b6000819050919050565b6000620009d6620009d0620009ca84620009a1565b620009ab565b620009a1565b9050919050565b6000819050919050565b620009f283620009b5565b62000a0a62000a0182620009dd565b8484546200094b565b825550505050565b600090565b62000a2162000a12565b62000a2e818484620009e7565b505050565b5b8181101562000a565762000a4a60008262000a17565b60018101905062000a34565b5050565b601f82111562000aa55762000a6f8162000919565b62000a7a846200092e565b8101602085101562000a8a578190505b62000aa262000a99856200092e565b83018262000a33565b50505b505050565b600082821c905092915050565b600062000aca6000198460080262000aaa565b1980831691505092915050565b600062000ae5838362000ab7565b9150826002028217905092915050565b62000b00826200087b565b67ffffffffffffffff81111562000b1c5762000b1b62000886565b5b62000b288254620008e4565b62000b3582828562000a5a565b600060209050601f83116001811462000b6d576000841562000b58578287015190505b62000b64858262000ad7565b86555062000bd4565b601f19841662000b7d8662000919565b60005b8281101562000ba75784890151825560018201915060208501945060208101905062000b80565b8683101562000bc7578489015162000bc3601f89168262000ab7565b8355505b6001600288020188555050505b505050505050565b7f546f6f206672657175656e742061636365737300000000000000000000000000600082015250565b600062000c1460138362000809565b915062000c218262000bdc565b601382019050919050565b600062000c398262000c05565b9150819050919050565b7f44617461206c65616b61676520617474656d7074000000000000000000000000600082015250565b600062000c7b60148362000809565b915062000c888262000c43565b601482019050919050565b600062000ca08262000c6c565b9150819050919050565b7f50726976696c65676520657363616c6174696f6e000000000000000000000000600082015250565b600062000ce260148362000809565b915062000cef8262000caa565b601482019050919050565b600062000d078262000cd3565b9150819050919050565b7f53706f6f66696e6720617474656d707400000000000000000000000000000000600082015250565b600062000d4960108362000809565b915062000d568262000d11565b601082019050919050565b600062000d6e8262000d3a565b9150819050919050565b7f5265707564696174696f6e20617474656d707400000000000000000000000000600082015250565b600062000db060138362000809565b915062000dbd8262000d78565b601382019050919050565b600062000dd58262000da1565b9150819050919050565b7f54616d706572696e672077697468206461746100000000000000000000000000600082015250565b600062000e1760138362000809565b915062000e248262000ddf565b601382019050919050565b600062000e3c8262000e08565b9150819050919050565b7f44656e69616c206f662053657276696365000000000000000000000000000000600082015250565b600062000e7e60118362000809565b915062000e8b8262000e46565b601182019050919050565b600062000ea38262000e6f565b9150819050919050565b6121d98062000ebd6000396000f3fe608060405234801561001057600080fd5b50600436106100b45760003560e01c80638da5cb5b116100715780638da5cb5b146101915780639334e69f146101af578063b08aae46146101cd578063c4df01ce146101eb578063f2fde38b1461021d578063f851a44014610239576100b4565b80630e104278146100b95780631e349d1c146100e957806348d33ef21461011a578063700733f814610138578063715018a61461016957806375ed284514610173575b600080fd5b6100d360048036038101906100ce9190611296565b610257565b6040516100e091906112dc565b60405180910390f35b61010360048036038101906100fe9190611296565b6102a8565b604051610111929190611387565b60405180910390f35b610122610762565b60405161012f91906112dc565b60405180910390f35b610152600480360381019061014d9190611296565b610768565b6040516101609291906113b7565b60405180910390f35b61017161078c565b005b61017b6107a0565b604051610188919061143f565b60405180910390f35b6101996107c6565b6040516101a69190611469565b60405180910390f35b6101b76107ef565b6040516101c491906112dc565b60405180910390f35b6101d56107f5565b6040516101e291906112dc565b60405180910390f35b610205600480360381019061020091906115b9565b6107fb565b60405161021493929190611615565b60405180910390f35b61023760048036038101906102329190611296565b610a13565b005b610241610a99565b60405161024e9190611469565b60405180910390f35b600080600360008473ffffffffffffffffffffffffffffffffffffffff1673ffffffffffffffffffffffffffffffffffffffff16815260200190815260200160002090508060020154915050919050565b60006060600160048111156102c0576102bf611653565b5b600160009054906101000a900473ffffffffffffffffffffffffffffffffffffffff1673ffffffffffffffffffffffffffffffffffffffff166344276733336040518263ffffffff1660e01b815260040161031b9190611469565b602060405180830381865afa158015610338573d6000803e3d6000fd5b505050506040513d601f19601f8201168201806040525081019061035c91906116a7565b600481111561036e5761036d611653565b5b146103ae576040517f08c379a00000000000000000000000000000000000000000000000000000000081526004016103a590611720565b60405180910390fd5b6000600160009054906101000a900473ffffffffffffffffffffffffffffffffffffffff1673ffffffffffffffffffffffffffffffffffffffff16632ada2596856040518263ffffffff1660e01b815260040161040b9190611469565b600060405180830381865afa158015610428573d6000803e3d6000fd5b505050506040513d6000823e3d601f19601f8201168201806040525081019061045191906118ef565b905060008160800151426104659190611967565b9050604051602001610476906119f2565b6040516020818303038152906040528051906020012082606001516040516020016104a19190611a38565b6040516020818303038152906040528051906020012003610556576005548110610551576104ce85610abf565b61050d856040518060400160405280600781526020017f6e6f7468696e6700000000000000000000000000000000000000000000000000815250610ba3565b6113886040518060400160405280600681526020017f42454e49474e000000000000000000000000000000000000000000000000000081525093509350505061075d565b61071e565b60405160200161056590611a9b565b6040516020818303038152906040528051906020012082606001516040516020016105909190611a38565b604051602081830303815290604052805190602001200361063b576005548110610636576105f3856040518060400160405280600781526020017f6e6f7468696e6700000000000000000000000000000000000000000000000000815250610ba3565b60006040518060400160405280600681526020017f42454e49474e000000000000000000000000000000000000000000000000000081525093509350505061075d565b61071d565b60405160200161064a90611afc565b6040516020818303038152906040528051906020012082606001516040516020016106759190611a38565b604051602081830303815290604052805190602001200361071c57600654811061071b576106d8856040518060400160405280600781526020017f6e6f7468696e6700000000000000000000000000000000000000000000000000815250610ba3565b60006040518060400160405280600681526020017f42454e49474e000000000000000000000000000000000000000000000000000081525093509350505061075d565b5b5b5b60006040518060400160405280600b81526020017f6e6f74206368616e6765640000000000000000000000000000000000000000008152509350935050505b915091565b60055481565b60036020528060005260406000206000915090508060010154908060020154905082565b610794610f32565b61079e6000610fb9565b565b600160009054906101000a900473ffffffffffffffffffffffffffffffffffffffff1681565b60008060009054906101000a900473ffffffffffffffffffffffffffffffffffffffff16905090565b60075481565b60065481565b60006060600080845111610844576040517f08c379a000000000000000000000000000000000000000000000000000000000815260040161083b90611b5d565b60405180910390fd5b6000600360008773ffffffffffffffffffffffffffffffffffffffff1673ffffffffffffffffffffffffffffffffffffffff16815260200190815260200160002090506000429050600060048760405161089e9190611a38565b90815260200160405180910390206040518060600160405290816000820180546108c790611bac565b80601f01602080910402602001604051908101604052809291908181526020018280546108f390611bac565b80156109405780601f1061091557610100808354040283529160200191610940565b820191906000526020600020905b81548152906001019060200180831161092357829003601f168201915b5050505050815260200160018201548152602001600282015481525050905060006004886040516109719190611a38565b908152602001604051809103902060020154905083600001889080600181540180825580915050600190039060005260206000200160009091909190915090816109bb9190611d7f565b508284600101819055506109d3898360000151610ba3565b6109e28983602001518a61107d565b60008111156109f7576109f689828a61116b565b5b8160200151888560020154965096509650505050509250925092565b610a1b610f32565b600073ffffffffffffffffffffffffffffffffffffffff168173ffffffffffffffffffffffffffffffffffffffff1603610a8d5760006040517f1e4fbdf7000000000000000000000000000000000000000000000000000000008152600401610a849190611469565b60405180910390fd5b610a9681610fb9565b50565b600260009054906101000a900473ffffffffffffffffffffffffffffffffffffffff1681565b600160009054906101000a900473ffffffffffffffffffffffffffffffffffffffff1673ffffffffffffffffffffffffffffffffffffffff1663746d961e826113886040518363ffffffff1660e01b8152600401610b1e929190611e8c565b600060405180830381600087803b158015610b3857600080fd5b505af1158015610b4c573d6000803e3d6000fd5b505050508073ffffffffffffffffffffffffffffffffffffffff167ff9b6ec770c96c3a6f9225bf3a8463a8ad03e884448af07b4ecd4d19d628946ee611388604051610b989190611eb5565b60405180910390a250565b604051602001610bb290611f1c565b6040516020818303038152906040528051906020012081604051602001610bd99190611a38565b6040516020818303038152906040528051906020012003610cd257600160009054906101000a900473ffffffffffffffffffffffffffffffffffffffff1673ffffffffffffffffffffffffffffffffffffffff16631bc15d53836040518263ffffffff1660e01b8152600401610c4f9190611f54565b600060405180830381600087803b158015610c6957600080fd5b505af1158015610c7d573d6000803e3d6000fd5b505050508173ffffffffffffffffffffffffffffffffffffffff167fa14bd4539d3435e61a25a7ed755caf1001aa7e9b044c46d2d004478fe2e88b77604051610cc590611f82565b60405180910390a2610f2e565b604051602001610ce190611fee565b6040516020818303038152906040528051906020012081604051602001610d089190611a38565b6040516020818303038152906040528051906020012003610e0157600160009054906101000a900473ffffffffffffffffffffffffffffffffffffffff1673ffffffffffffffffffffffffffffffffffffffff16631bc15d53836040518263ffffffff1660e01b8152600401610d7e9190612026565b600060405180830381600087803b158015610d9857600080fd5b505af1158015610dac573d6000803e3d6000fd5b505050508173ffffffffffffffffffffffffffffffffffffffff167fa14bd4539d3435e61a25a7ed755caf1001aa7e9b044c46d2d004478fe2e88b77604051610df490612054565b60405180910390a2610f2d565b604051602001610e10906120c0565b6040516020818303038152906040528051906020012081604051602001610e379190611a38565b6040516020818303038152906040528051906020012003610f2c57600160009054906101000a900473ffffffffffffffffffffffffffffffffffffffff1673ffffffffffffffffffffffffffffffffffffffff16631bc15d53836040518263ffffffff1660e01b8152600401610ead91906120f8565b600060405180830381600087803b158015610ec757600080fd5b505af1158015610edb573d6000803e3d6000fd5b505050508173ffffffffffffffffffffffffffffffffffffffff167fa14bd4539d3435e61a25a7ed755caf1001aa7e9b044c46d2d004478fe2e88b77604051610f2390612126565b60405180910390a25b5b5b5050565b610f3a61121c565b73ffffffffffffffffffffffffffffffffffffffff16610f586107c6565b73ffffffffffffffffffffffffffffffffffffffff1614610fb757610f7b61121c565b6040517f118cdaa7000000000000000000000000000000000000000000000000000000008152600401610fae9190611469565b60405180910390fd5b565b60008060009054906101000a900473ffffffffffffffffffffffffffffffffffffffff169050816000806101000a81548173ffffffffffffffffffffffffffffffffffffffff021916908373ffffffffffffffffffffffffffffffffffffffff1602179055508173ffffffffffffffffffffffffffffffffffffffff168173ffffffffffffffffffffffffffffffffffffffff167f8be0079c531659141344cd1fd0a4f28419497f9722a3daafe3b4186f6b6457e060405160405180910390a35050565b600082111561111657600160009054906101000a900473ffffffffffffffffffffffffffffffffffffffff1673ffffffffffffffffffffffffffffffffffffffff16633b5e80b284846040518363ffffffff1660e01b81526004016110e3929190612146565b600060405180830381600087803b1580156110fd57600080fd5b505af1158015611111573d6000803e3d6000fd5b505050505b8273ffffffffffffffffffffffffffffffffffffffff167f8c42d77a98c4fc8f88c68598c1aeb59aff4b2d81cdc6b9a467cebfb85893d7cc838360405161115e929190611387565b60405180910390a2505050565b6000600360008573ffffffffffffffffffffffffffffffffffffffff1673ffffffffffffffffffffffffffffffffffffffff168152602001908152602001600020905082426111ba919061216f565b81600201819055508373ffffffffffffffffffffffffffffffffffffffff167fa85240da8b46fb556156b974826607837766e291b6badaffe434b30d4b4d1a3f82600201548460405161120e929190611387565b60405180910390a250505050565b600033905090565b6000604051905090565b600080fd5b600080fd5b600073ffffffffffffffffffffffffffffffffffffffff82169050919050565b600061126382611238565b9050919050565b61127381611258565b811461127e57600080fd5b50565b6000813590506112908161126a565b92915050565b6000602082840312156112ac576112ab61122e565b5b60006112ba84828501611281565b91505092915050565b6000819050919050565b6112d6816112c3565b82525050565b60006020820190506112f160008301846112cd565b92915050565b600081519050919050565b600082825260208201905092915050565b60005b83811015611331578082015181840152602081019050611316565b60008484015250505050565b6000601f19601f8301169050919050565b6000611359826112f7565b6113638185611302565b9350611373818560208601611313565b61137c8161133d565b840191505092915050565b600060408201905061139c60008301856112cd565b81810360208301526113ae818461134e565b90509392505050565b60006040820190506113cc60008301856112cd565b6113d960208301846112cd565b9392505050565b6000819050919050565b60006114056114006113fb84611238565b6113e0565b611238565b9050919050565b6000611417826113ea565b9050919050565b60006114298261140c565b9050919050565b6114398161141e565b82525050565b60006020820190506114546000830184611430565b92915050565b61146381611258565b82525050565b600060208201905061147e600083018461145a565b92915050565b600080fd5b600080fd5b7f4e487b7100000000000000000000000000000000000000000000000000000000600052604160045260246000fd5b6114c68261133d565b810181811067ffffffffffffffff821117156114e5576114e461148e565b5b80604052505050565b60006114f8611224565b905061150482826114bd565b919050565b600067ffffffffffffffff8211156115245761152361148e565b5b61152d8261133d565b9050602081019050919050565b82818337600083830152505050565b600061155c61155784611509565b6114ee565b90508281526020810184848401111561157857611577611489565b5b61158384828561153a565b509392505050565b600082601f8301126115a05761159f611484565b5b81356115b0848260208601611549565b91505092915050565b600080604083850312156115d0576115cf61122e565b5b60006115de85828601611281565b925050602083013567ffffffffffffffff8111156115ff576115fe611233565b5b61160b8582860161158b565b9150509250929050565b600060608201905061162a60008301866112cd565b818103602083015261163c818561134e565b905061164b60408301846112cd565b949350505050565b7f4e487b7100000000000000000000000000000000000000000000000000000000600052602160045260246000fd5b6005811061168f57600080fd5b50565b6000815190506116a181611682565b92915050565b6000602082840312156116bd576116bc61122e565b5b60006116cb84828501611692565b91505092915050565b7f4163636573732064656e6965643a204e6f7420616e2041646d696e0000000000600082015250565b600061170a601b83611302565b9150611715826116d4565b602082019050919050565b60006020820190508181036000830152611739816116fd565b9050919050565b600080fd5b600080fd5b6000815190506117598161126a565b92915050565b600061177261176d84611509565b6114ee565b90508281526020810184848401111561178e5761178d611489565b5b611799848285611313565b509392505050565b600082601f8301126117b6576117b5611484565b5b81516117c684826020860161175f565b91505092915050565b6117d8816112c3565b81146117e357600080fd5b50565b6000815190506117f5816117cf565b92915050565b600060c0828403121561181157611810611740565b5b61181b60c06114ee565b9050600061182b8482850161174a565b600083015250602082015167ffffffffffffffff81111561184f5761184e611745565b5b61185b848285016117a1565b602083015250604082015167ffffffffffffffff81111561187f5761187e611745565b5b61188b848285016117a1565b604083015250606082015167ffffffffffffffff8111156118af576118ae611745565b5b6118bb848285016117a1565b60608301525060806118cf848285016117e6565b60808301525060a06118e384828501611692565b60a08301525092915050565b6000602082840312156119055761190461122e565b5b600082015167ffffffffffffffff81111561192357611922611233565b5b61192f848285016117fb565b91505092915050565b7f4e487b7100000000000000000000000000000000000000000000000000000000600052601160045260246000fd5b6000611972826112c3565b915061197d836112c3565b925082820390508181111561199557611994611938565b5b92915050565b600081905092915050565b7f42454e49474e0000000000000000000000000000000000000000000000000000600082015250565b60006119dc60068361199b565b91506119e7826119a6565b600682019050919050565b60006119fd826119cf565b9150819050919050565b6000611a12826112f7565b611a1c818561199b565b9350611a2c818560208601611313565b80840191505092915050565b6000611a448284611a07565b915081905092915050565b7f535553504943494f555300000000000000000000000000000000000000000000600082015250565b6000611a85600a8361199b565b9150611a9082611a4f565b600a82019050919050565b6000611aa682611a78565b9150819050919050565b7f4d414c4943494f55530000000000000000000000000000000000000000000000600082015250565b6000611ae660098361199b565b9150611af182611ab0565b600982019050919050565b6000611b0782611ad9565b9150819050919050565b7f526561736f6e2063616e6e6f7420626520656d70747900000000000000000000600082015250565b6000611b47601683611302565b9150611b5282611b11565b602082019050919050565b60006020820190508181036000830152611b7681611b3a565b9050919050565b7f4e487b7100000000000000000000000000000000000000000000000000000000600052602260045260246000fd5b60006002820490506001821680611bc457607f821691505b602082108103611bd757611bd6611b7d565b5b50919050565b60008190508160005260206000209050919050565b60006020601f8301049050919050565b600082821b905092915050565b600060088302611c3f7fffffffffffffffffffffffffffffffffffffffffffffffffffffffffffffffff82611c02565b611c498683611c02565b95508019841693508086168417925050509392505050565b6000611c7c611c77611c72846112c3565b6113e0565b6112c3565b9050919050565b6000819050919050565b611c9683611c61565b611caa611ca282611c83565b848454611c0f565b825550505050565b600090565b611cbf611cb2565b611cca818484611c8d565b505050565b5b81811015611cee57611ce3600082611cb7565b600181019050611cd0565b5050565b601f821115611d3357611d0481611bdd565b611d0d84611bf2565b81016020851015611d1c578190505b611d30611d2885611bf2565b830182611ccf565b50505b505050565b600082821c905092915050565b6000611d5660001984600802611d38565b1980831691505092915050565b6000611d6f8383611d45565b9150826002028217905092915050565b611d88826112f7565b67ffffffffffffffff811115611da157611da061148e565b5b611dab8254611bac565b611db6828285611cf2565b600060209050601f831160018114611de95760008415611dd7578287015190505b611de18582611d63565b865550611e49565b601f198416611df786611bdd565b60005b82811015611e1f57848901518255600182019150602085019450602081019050611dfa565b86831015611e3c5784890151611e38601f891682611d45565b8355505b6001600288020188555050505b505050505050565b6000819050919050565b6000611e76611e71611e6c84611e51565b6113e0565b6112c3565b9050919050565b611e8681611e5b565b82525050565b6000604082019050611ea1600083018561145a565b611eae6020830184611e7d565b9392505050565b6000602082019050611eca6000830184611e7d565b92915050565b7f6d616a6f72000000000000000000000000000000000000000000000000000000600082015250565b6000611f0660058361199b565b9150611f1182611ed0565b600582019050919050565b6000611f2782611ef9565b9150819050919050565b6000611f3e600983611302565b9150611f4982611ab0565b602082019050919050565b6000604082019050611f69600083018461145a565b8181036020830152611f7a81611f31565b905092915050565b60006020820190508181036000830152611f9b81611f31565b9050919050565b7f6d696e6f72000000000000000000000000000000000000000000000000000000600082015250565b6000611fd860058361199b565b9150611fe382611fa2565b600582019050919050565b6000611ff982611fcb565b9150819050919050565b6000612010600a83611302565b915061201b82611a4f565b602082019050919050565b600060408201905061203b600083018461145a565b818103602083015261204c81612003565b905092915050565b6000602082019050818103600083015261206d81612003565b9050919050565b7f6e6f7468696e6700000000000000000000000000000000000000000000000000600082015250565b60006120aa60078361199b565b91506120b582612074565b600782019050919050565b60006120cb8261209d565b9150819050919050565b60006120e2600683611302565b91506120ed826119a6565b602082019050919050565b600060408201905061210d600083018461145a565b818103602083015261211e816120d5565b905092915050565b6000602082019050818103600083015261213f816120d5565b9050919050565b600060408201905061215b600083018561145a565b61216860208301846112cd565b9392505050565b600061217a826112c3565b9150612185836112c3565b925082820190508082111561219d5761219c611938565b5b9291505056fea2646970667358221220ac6b7a9c06e963505fd71b0998044260ed9c75bec817dcf238cdb252e9c1c51264736f6c63430008150033",
  "linkReferences": {},
  "deployedLinkReferences": {}
}