{
  "contractName": "JudgeContractNew",
  "abi": [
    {
      "inputs": [
        {
          "internalType": "address",
          "name": "initialAdmin",
          "type": "address"
        },
        {
          "internalType": "address",
          "name": "_roleBasedAccessContract",
          "type": "address"
        }
      ],
      "stateMutability": "nonpayable",
      "type": "constructor"
    },
    {
      "inputs": [
        {
          "internalType": "address",
          "name": "owner",
          "type": "address"
        }
      ],
      "name": "OwnableInvalidOwner",
      "type": "error"
    },
    {
      "inputs": [
        {
          "internalType": "address",
          "name": "account",
          "type": "address"
        }
      ],
      "name": "OwnableUnauthorizedAccount",
      "type": "error"
    },
    {
      "anonymous": false,
      "inputs": [
        {
          "indexed": true,
          "internalType": "address",
          "name": "memberAddress",
          "type": "address"
        },
        {
          "indexed": false,
          "internalType": "uint256",
          "name": "blockingEndTime",
          "type": "uint256"
        },
        {
          "indexed": false,
          "internalType": "string",
          "name": "reason",
          "type": "string"
        }
      ],
      "name": "MemberBlocked",
      "type": "event"
    },
    {
      "anonymous": false,
      "inputs": [
        {
          "indexed": true,
          "internalType": "address",
          "name": "previousOwner",
          "type": "address"
        },
        {
          "indexed": true,
          "internalType": "address",
          "name": "newOwner",
          "type": "address"
        }
      ],
      "name": "OwnershipTransferred",
      "type": "event"
    },
    {
      "anonymous": false,
      "inputs": [
        {
          "indexed": true,
          "internalType": "address",
          "name": "memberAddress",
          "type": "address"
        },
        {
          "indexed": false,
          "internalType": "uint256",
          "name": "penaltyAmount",
          "type": "uint256"
        },
        {
          "indexed": false,
          "internalType": "string",
          "name": "reason",
          "type": "string"
        }
      ],
      "name": "Penalized",
      "type": "event"
    },
    {
      "anonymous": false,
      "inputs": [
        {
          "indexed": true,
          "internalType": "address",
          "name": "memberAddress",
          "type": "address"
        },
        {
          "indexed": false,
          "internalType": "uint256",
          "name": "rewardAmount",
          "type": "uint256"
        }
      ],
      "name": "RewardIssued",
      "type": "event"
    },
    {
      "anonymous": false,
      "inputs": [
        {
          "indexed": true,
          "internalType": "address",
          "name": "memberAddress",
          "type": "address"
        },
        {
          "indexed": false,
          "internalType": "string",
          "name": "newStatus",
          "type": "string"
        }
      ],
      "name": "StatusUpdated",
      "type": "event"
    },
    {
      "inputs": [],
      "name": "admin",
      "outputs": [
        {
          "internalType": "address",
          "name": "",
          "type": "address"
        }
      ],
      "stateMutability": "view",
      "type": "function"
    },
    {
      "inputs": [],
      "name": "benignThreshold",
      "outputs": [
        {
          "internalType": "uint256",
          "name": "",
          "type": "uint256"
        }
      ],
      "stateMutability": "view",
      "type": "function"
    },
    {
      "inputs": [],
      "name": "benignThresholdForMalicious",
      "outputs": [
        {
          "internalType": "uint256",
          "name": "",
          "type": "uint256"
        }
      ],
      "stateMutability": "view",
      "type": "function"
    },
    {
      "inputs": [
        {
          "internalType": "address",
          "name": "",
          "type": "address"
        }
      ],
      "name": "misbehaviorHistory",
      "outputs": [
        {
          "internalType": "uint256",
          "name": "lastPenaltyTime",
          "type": "uint256"
        },
        {
          "internalType": "uint256",
          "name": "blockingEndTime",
          "type": "uint256"
        }
      ],
      "stateMutability": "view",
      "type": "function"
    },
    {
      "inputs": [],
      "name": "misbehaviorThreshold",
      "outputs": [
        {
          "internalType": "uint256",
          "name": "",
          "type": "uint256"
        }
      ],
      "stateMutability": "view",
      "type": "function"
    },
    {
      "inputs": [],
      "name": "owner",
      "outputs": [
        {
          "internalType": "address",
          "name": "",
          "type": "address"
        }
      ],
      "stateMutability": "view",
      "type": "function"
    },
    {
      "inputs": [],
      "name": "renounceOwnership",
      "outputs": [],
      "stateMutability": "nonpayable",
      "type": "function"
    },
    {
      "inputs": [],
      "name": "roleBasedAccessContract",
      "outputs": [
        {
          "internalType": "contract RoleBasedAccessControl",
          "name": "",
          "type": "address"
        }
      ],
      "stateMutability": "view",
      "type": "function"
    },
    {
      "inputs": [
        {
          "internalType": "address",
          "name": "newOwner",
          "type": "address"
        }
      ],
      "name": "transferOwnership",
      "outputs": [],
      "stateMutability": "nonpayable",
      "type": "function"
    },
    {
      "inputs": [
        {
          "internalType": "string",
          "name": "reason",
          "type": "string"
        },
        {
          "internalType": "string",
          "name": "level",
          "type": "string"
        },
        {
          "internalType": "uint16[3]",
          "name": "deductions",
          "type": "uint16[3]"
        },
        {
          "internalType": "uint256",
          "name": "duration",
          "type": "uint256"
        }
      ],
      "name": "createPenalty",
      "outputs": [],
      "stateMutability": "nonpayable",
      "type": "function"
    },
    {
      "inputs": [
        {
          "internalType": "address",
          "name": "_memberAddress",
          "type": "address"
        },
        {
          "internalType": "string",
          "name": "reason",
          "type": "string"
        }
      ],
      "name": "reportMaliciousActivity",
      "outputs": [
        {
          "internalType": "uint256",
          "name": "penaltyAmount",
          "type": "uint256"
        },
        {
          "internalType": "string",
          "name": "reasonString",
          "type": "string"
        },
        {
          "internalType": "uint256",
          "name": "blockingEndTime",
          "type": "uint256"
        }
      ],
      "stateMutability": "nonpayable",
      "type": "function"
    },
    {
      "inputs": [
        {
          "internalType": "address",
          "name": "_memberAddress",
          "type": "address"
        }
      ],
      "name": "reportNonPenalizeMisbehavior",
      "outputs": [
        {
          "internalType": "uint256",
          "name": "rewardAmount",
          "type": "uint256"
        },
        {
          "internalType": "string",
          "name": "newStatus",
          "type": "string"
        }
      ],
      "stateMutability": "nonpayable",
      "type": "function"
    },
    {
      "inputs": [
        {
          "internalType": "address",
          "name": "_memberAddress",
          "type": "address"
        }
      ],
      "name": "getBlockingEndTime",
      "outputs": [
        {
          "internalType": "uint256",
          "name": "",
          "type": "uint256"
        }
      ],
      "stateMutability": "view",
      "type": "function"
    }
  ],
  "bytecode": "0x6080604052620151806005556202a30060065561025860075534801562000024575f80fd5b5060405162001eb738038062001eb7833981016040819052620000479162000653565b816001600160a01b0381166200007757604051631e4fbdf760e01b81525f60048201526024015b60405180910390fd5b62000082816200049b565b50600280546001600160a01b038085166001600160a01b0319928316179092556001805492841692909116919091179055604080518082018252601b81527f556e617574686f72697a65642061636365737320617474656d7074000000000060208083019190915282518084018452600581526436b0b537b960d91b8183015283516060810185526123288152611b589281019290925261138893820193909352620001329290610e10620004ea565b604080518082018252601381527f546f6f206672657175656e74206163636573730000000000000000000000000060208083019190915282518084018452600581526436b4b737b960d91b8183015283516060810185526113888152610bb8928101929092526103e893820193909352620001b19290610258620004ea565b604080518082018252601481527f44617461206c65616b61676520617474656d707400000000000000000000000060208083019190915282518084018452600581526436b0b537b960d91b818301528351606081018552612af8815261232892810192909252611b5893820193909352620002309290611c20620004ea565b604080518082018252601481527f50726976696c65676520657363616c6174696f6e00000000000000000000000060208083019190915282518084018452600581526436b0b537b960d91b8183015283516060810185526136b08152612ee09281019290925261271093820193909352620002af9290614650620004ea565b604080518082018252601081526f14dc1bdbd99a5b99c8185d1d195b5c1d60821b60208083019190915282518084018452600581526436b4b737b960d91b8183015283516060810185526117708152610fa0928101929092526107d0938201939093526200032192906104b0620004ea565b604080518082018252601381527f5265707564696174696f6e20617474656d70740000000000000000000000000060208083019190915282518084018452600581526436b4b737b960d91b818301528351606081018552611b58815261138892810192909252610bb893820193909352620003a09290610e10620004ea565b604080518082018252601381527f54616d706572696e67207769746820646174610000000000000000000000000060208083019190915282518084018452600581526436b0b537b960d91b818301528351606081018552612ee0815261271092810192909252611f40938201939093526200041f9290612a30620004ea565b604080518082018252601181527044656e69616c206f66205365727669636560781b60208083019190915282518084018452600581526436b0b537b960d91b818301528351606081018552615dc081526155f092810192909252614e20938201939093526200049392906202a300620004ea565b50506200085a565b5f80546001600160a01b038381166001600160a01b0319831681178455604051919092169283917f8be0079c531659141344cd1fd0a4f28419497f9722a3daafe3b4186f6b6457e09190a35050565b60018054604051634427673360e01b81523360048201526001600160a01b0390911690634427673390602401602060405180830381865afa15801562000532573d5f803e3d5ffd5b505050506040513d601f19601f820116820180604052508101906200055891906200069d565b60048111156200056c576200056c62000689565b14620005bb5760405162461bcd60e51b815260206004820152601b60248201527f4163636573732064656e6965643a204e6f7420616e2041646d696e000000000060448201526064016200006e565b5f600485604051620005ce9190620006c4565b908152604051908190036020019020905080620005ec858262000792565b5060028181019290925582515f92835260019091016020908152604080842061ffff938416905590840151600384528184209083169055928301516004835292909120911690555050565b80516001600160a01b03811681146200064e575f80fd5b919050565b5f806040838503121562000665575f80fd5b620006708362000637565b9150620006806020840162000637565b90509250929050565b634e487b7160e01b5f52602160045260245ffd5b5f60208284031215620006ae575f80fd5b815160058110620006bd575f80fd5b9392505050565b5f82515f5b81811015620006e55760208186018101518583015201620006c9565b505f920191825250919050565b634e487b7160e01b5f52604160045260245ffd5b600181811c908216806200071b57607f821691505b6020821081036200073a57634e487b7160e01b5f52602260045260245ffd5b50919050565b601f8211156200078d575f81815260208120601f850160051c81016020861015620007685750805b601f850160051c820191505b81811015620007895782815560010162000774565b5050505b505050565b81516001600160401b03811115620007ae57620007ae620006f2565b620007c681620007bf845462000706565b8462000740565b602080601f831160018114620007fc575f8415620007e45750858301515b5f19600386901b1c1916600185901b17855562000789565b5f85815260208120601f198616915b828110156200082c578886015182559484019460019091019084016200080b565b50858210156200084a57878501515f19600388901b60f8161c191681555b5050505050600190811b01905550565b61164f80620008685f395ff3fe608060405234801561000f575f80fd5b50600436106100cb575f3560e01c80638da5cb5b11610088578063b08aae4611610063578063b08aae46146101d6578063c4df01ce146101df578063f2fde38b14610201578063f851a44014610214575f80fd5b80638da5cb5b146101aa5780639334e69f146101ba57806395692216146101c3575f80fd5b80630e104278146100cf5780631e349d1c1461010d57806348d33ef21461012e578063700733f814610137578063715018a61461017557806375ed28451461017f575b5f80fd5b6100fa6100dd366004610ef7565b6001600160a01b03165f9081526003602052604090206002015490565b6040519081526020015b60405180910390f35b61012061011b366004610ef7565b610227565b604051610104929190610f66565b6100fa60055481565b610160610145366004610ef7565b60036020525f90815260409020600181015460029091015482565b60408051928352602083019190915201610104565b61017d610594565b005b600154610192906001600160a01b031681565b6040516001600160a01b039091168152602001610104565b5f546001600160a01b0316610192565b6100fa60075481565b61017d6101d1366004611090565b6105a7565b6100fa60065481565b6101f26101ed366004611150565b6106b8565b6040516101049392919061119d565b61017d61020f366004610ef7565b61098f565b600254610192906001600160a01b031681565b5f606060018054604051634427673360e01b81523360048201526001600160a01b0390911690634427673390602401602060405180830381865afa158015610271573d5f803e3d5ffd5b505050506040513d601f19601f8201168201806040525081019061029591906111ec565b60048111156102a6576102a66111c5565b146102cc5760405162461bcd60e51b81526004016102c390611205565b60405180910390fd5b60015460405163156d12cb60e11b81526001600160a01b0385811660048301525f921690632ada2596906024015f60405180830381865afa158015610313573d5f803e3d5ffd5b505050506040513d5f823e601f3d908101601f1916820160405261033a9190810190611289565b90505f81608001514261034d9190611377565b604051652122a724a3a760d11b60208201529091506026016040516020818303038152906040528051906020012082606001516040516020016103909190611390565b6040516020818303038152906040528051906020012003610418576005548110610413576103bd856109cc565b6103e685604051806040016040528060078152602001666e6f7468696e6760c81b815250610a76565b611388604051806040016040528060068152602001652122a724a3a760d11b815250935093505050915091565b610564565b60405169535553504943494f555360b01b6020820152602a0160405160208183030381529060405280519060200120826060015160405160200161045c9190611390565b60405160208183030381529060405280519060200120036104d4576005548110610413576104a985604051806040016040528060078152602001666e6f7468696e6760c81b815250610a76565b5f604051806040016040528060068152602001652122a724a3a760d11b815250935093505050915091565b604051684d414c4943494f555360b81b60208201526029016040516020818303038152906040528051906020012082606001516040516020016105179190611390565b6040516020818303038152906040528051906020012003610564576006548110610564576104a985604051806040016040528060078152602001666e6f7468696e6760c81b815250610a76565b5f6040518060400160405280600b81526020016a1b9bdd0818da185b99d95960aa1b815250935093505050915091565b61059c610d46565b6105a55f610d72565b565b60018054604051634427673360e01b81523360048201526001600160a01b0390911690634427673390602401602060405180830381865afa1580156105ee573d5f803e3d5ffd5b505050506040513d601f19601f8201168201806040525081019061061291906111ec565b6004811115610623576106236111c5565b146106405760405162461bcd60e51b81526004016102c390611205565b5f6004856040516106519190611390565b90815260405190819003602001902090508061066d8582611431565b5060028181019290925582515f92835260019091016020908152604080842061ffff938416905590840151600384528184209083169055928301516004835292909120911690555050565b5f60608160018054604051634427673360e01b81523360048201526001600160a01b0390911690634427673390602401602060405180830381865afa158015610703573d5f803e3d5ffd5b505050506040513d601f19601f8201168201806040525081019061072791906111ec565b6004811115610738576107386111c5565b146107555760405162461bcd60e51b81526004016102c390611205565b5f84511161079e5760405162461bcd60e51b8152602060048201526016602482015275526561736f6e2063616e6e6f7420626520656d70747960501b60448201526064016102c3565b6001600160a01b0385165f908152600360205260408082209051909142916004906107ca908990611390565b908152602001604051809103902090505f6004886040516107eb9190611390565b908152604051602091819003820190206002015485546001810187555f878152929092209092500161081d8982611431565b506001840183905581546108b9908a908490610838906113ab565b80601f0160208091040260200160405190810160405280929190818152602001828054610864906113ab565b80156108af5780601f10610886576101008083540402835291602001916108af565b820191905f5260205f20905b81548152906001019060200180831161089257829003601f168201915b5050505050610a76565b60018054604051634427673360e01b81523360048201525f9285019183916001600160a01b0390911690634427673390602401602060405180830381865afa158015610907573d5f803e3d5ffd5b505050506040513d601f19601f8201168201806040525081019061092b91906111ec565b600481111561093c5761093c6111c5565b600481111561094d5761094d6111c5565b81526020019081526020015f205490506109688a828b610dc1565b8115610979576109798a838b610e71565b6002909401549399979850929695505050505050565b610997610d46565b6001600160a01b0381166109c057604051631e4fbdf760e01b81525f60048201526024016102c3565b6109c981610d72565b50565b600154604051633a36cb0f60e11b81526001600160a01b03838116600483015261138860248301529091169063746d961e906044015f604051808303815f87803b158015610a18575f80fd5b505af1158015610a2a573d5f803e3d5ffd5b50505050806001600160a01b03167ff9b6ec770c96c3a6f9225bf3a8463a8ad03e884448af07b4ecd4d19d628946ee611388604051610a6b91815260200190565b60405180910390a250565b6040516436b0b537b960d91b60208201526025016040516020818303038152906040528051906020012081604051602001610ab19190611390565b6040516020818303038152906040528051906020012003610b6c57600154604051631bc15d5360e01b81526001600160a01b0390911690631bc15d5390610afc9085906004016114ed565b5f604051808303815f87803b158015610b13575f80fd5b505af1158015610b25573d5f803e3d5ffd5b50505050816001600160a01b03167fa14bd4539d3435e61a25a7ed755caf1001aa7e9b044c46d2d004478fe2e88b77604051610b6090611524565b60405180910390a25050565b6040516436b4b737b960d91b60208201526025016040516020818303038152906040528051906020012081604051602001610ba79190611390565b6040516020818303038152906040528051906020012003610c5657600154604051631bc15d5360e01b81526001600160a01b0390911690631bc15d5390610bf290859060040161154c565b5f604051808303815f87803b158015610c09575f80fd5b505af1158015610c1b573d5f803e3d5ffd5b50505050816001600160a01b03167fa14bd4539d3435e61a25a7ed755caf1001aa7e9b044c46d2d004478fe2e88b77604051610b6090611584565b604051666e6f7468696e6760c81b60208201526027016040516020818303038152906040528051906020012081604051602001610c939190611390565b6040516020818303038152906040528051906020012003610d4257600154604051631bc15d5360e01b81526001600160a01b0390911690631bc15d5390610cde9085906004016115ad565b5f604051808303815f87803b158015610cf5575f80fd5b505af1158015610d07573d5f803e3d5ffd5b50505050816001600160a01b03167fa14bd4539d3435e61a25a7ed755caf1001aa7e9b044c46d2d004478fe2e88b77604051610b60906115e1565b5050565b5f546001600160a01b031633146105a55760405163118cdaa760e01b81523360048201526024016102c3565b5f80546001600160a01b038381166001600160a01b0319831681178455604051919092169283917f8be0079c531659141344cd1fd0a4f28419497f9722a3daafe3b4186f6b6457e09190a35050565b8115610e2957600154604051631daf405960e11b81526001600160a01b0385811660048301526024820185905290911690633b5e80b2906044015f604051808303815f87803b158015610e12575f80fd5b505af1158015610e24573d5f803e3d5ffd5b505050505b826001600160a01b03167f8c42d77a98c4fc8f88c68598c1aeb59aff4b2d81cdc6b9a467cebfb85893d7cc8383604051610e64929190610f66565b60405180910390a2505050565b6001600160a01b0383165f908152600360205260409020610e928342611606565b600282018190556040516001600160a01b038616917fa85240da8b46fb556156b974826607837766e291b6badaffe434b30d4b4d1a3f91610ed591908690610f66565b60405180910390a250505050565b6001600160a01b03811681146109c9575f80fd5b5f60208284031215610f07575f80fd5b8135610f1281610ee3565b9392505050565b5f5b83811015610f33578181015183820152602001610f1b565b50505f910152565b5f8151808452610f52816020860160208601610f19565b601f01601f19169290920160200192915050565b828152604060208201525f610f7e6040830184610f3b565b949350505050565b634e487b7160e01b5f52604160045260245ffd5b6040516060810167ffffffffffffffff81118282101715610fbd57610fbd610f86565b60405290565b60405160c0810167ffffffffffffffff81118282101715610fbd57610fbd610f86565b604051601f8201601f1916810167ffffffffffffffff8111828210171561100f5761100f610f86565b604052919050565b5f67ffffffffffffffff82111561103057611030610f86565b50601f01601f191660200190565b5f82601f83011261104d575f80fd5b813561106061105b82611017565b610fe6565b818152846020838601011115611074575f80fd5b816020850160208301375f918101602001919091529392505050565b5f805f8060c085870312156110a3575f80fd5b843567ffffffffffffffff808211156110ba575f80fd5b6110c68883890161103e565b95506020915081870135818111156110dc575f80fd5b6110e889828a0161103e565b9550505086605f8701126110fa575f80fd5b611102610f9a565b8060a0880189811115611113575f80fd5b604089015b8181101561113f57803561ffff81168114611132575f8081fd5b8452928401928401611118565b509699959850965050933593505050565b5f8060408385031215611161575f80fd5b823561116c81610ee3565b9150602083013567ffffffffffffffff811115611187575f80fd5b6111938582860161103e565b9150509250929050565b838152606060208201525f6111b56060830185610f3b565b9050826040830152949350505050565b634e487b7160e01b5f52602160045260245ffd5b8051600581106111e7575f80fd5b919050565b5f602082840312156111fc575f80fd5b610f12826111d9565b6020808252601b908201527f4163636573732064656e6965643a204e6f7420616e2041646d696e0000000000604082015260600190565b80516111e781610ee3565b5f82601f830112611256575f80fd5b815161126461105b82611017565b818152846020838601011115611278575f80fd5b610f7e826020830160208701610f19565b5f60208284031215611299575f80fd5b815167ffffffffffffffff808211156112b0575f80fd5b9083019060c082860312156112c3575f80fd5b6112cb610fc3565b6112d48361123c565b81526020830151828111156112e7575f80fd5b6112f387828601611247565b60208301525060408301518281111561130a575f80fd5b61131687828601611247565b60408301525060608301518281111561132d575f80fd5b61133987828601611247565b6060830152506080830151608082015261135560a084016111d9565b60a082015295945050505050565b634e487b7160e01b5f52601160045260245ffd5b8181038181111561138a5761138a611363565b92915050565b5f82516113a1818460208701610f19565b9190910192915050565b600181811c908216806113bf57607f821691505b6020821081036113dd57634e487b7160e01b5f52602260045260245ffd5b50919050565b601f82111561142c575f81815260208120601f850160051c810160208610156114095750805b601f850160051c820191505b8181101561142857828155600101611415565b5050505b505050565b815167ffffffffffffffff81111561144b5761144b610f86565b61145f8161145984546113ab565b846113e3565b602080601f831160018114611492575f841561147b5750858301515b5f19600386901b1c1916600185901b178555611428565b5f85815260208120601f198616915b828110156114c0578886015182559484019460019091019084016114a1565b50858210156114dd57878501515f19600388901b60f8161c191681555b5050505050600190811b01905550565b6001600160a01b0382168152604060208201819052600990820152684d414c4943494f555360b81b60608201525f60808201610f12565b602081525f61138a6020830160098152684d414c4943494f555360b81b602082015260400190565b6001600160a01b0382168152604060208201819052600a9082015269535553504943494f555360b01b60608201525f60808201610f12565b602081525f61138a60208301600a815269535553504943494f555360b01b602082015260400190565b6001600160a01b0382168152604060208201819052600690820152652122a724a3a760d11b60608201525f60808201610f12565b602081525f61138a6020830160068152652122a724a3a760d11b602082015260400190565b8082018082111561138a5761138a61136356fea2646970667358221220a3f87b8a11258c52916adb089c002c789507f95888cbc7e2983024d7754369ff64736f6c63430008150033",
  "immutableReferences": {},
  "source": "// SPDX-License-Identifier: MIT\r\npragma solidity ^0.8.0;\r\n\r\nimport \"@openzeppelin/contracts/access/Ownable.sol\";\r\nimport \"./RegisterContract.sol\";\r\n\r\ncontract JudgeContractNew is Ownable {\r\n    RoleBasedAccessControl public roleBasedAccessContract;  // Role-based access control contract\r\n    address public admin;\r\n\r\n    struct MisbehaviorRecord {\r\n        string[] reasons;\r\n        uint256 lastPenaltyTime;\r\n        uint256 blockingEndTime;\r\n    }\r\n\r\n    struct Penalty {\r\n        string level;\r\n        mapping(RoleToken.Role => uint256) tokenDeduction; // Token deduction per role\r\n        uint256 blockingDuration; // in seconds\r\n    }\r\n\r\n    mapping(address => MisbehaviorRecord) public misbehaviorHistory;\r\n    mapping(string => Penalty) private penalties;\r\n\r\n    uint256 public benignThreshold = 1 days;  // Example threshold duration for benign status reward\r\n    uint256 public benignThresholdForMalicious = 2 days;  // Example threshold duration for benign status reward\r\n    uint256 public misbehaviorThreshold = 10 minutes;  // Time to reset reputativeCount\r\n\r\n    event StatusUpdated(address indexed memberAddress, string newStatus);\r\n    event Penalized(address indexed memberAddress, uint256 penaltyAmount, string reason);\r\n    event MemberBlocked(address indexed memberAddress, uint256 blockingEndTime, string reason);\r\n    event RewardIssued(address indexed memberAddress, uint256 rewardAmount);\r\n\r\n    constructor(address initialAdmin, address _roleBasedAccessContract) Ownable(initialAdmin) {\r\n        admin = initialAdmin;\r\n        roleBasedAccessContract = RoleBasedAccessControl(_roleBasedAccessContract);\r\n\r\n        // Define penalties based on CIA and STRIDE models\r\n        createPenalty(\"Unauthorized access attempt\", \"major\", [9000, 7000, 5000], 1 hours);\r\n        createPenalty(\"Too frequent access\", \"minor\", [5000, 3000, 1000], 10 minutes);\r\n        createPenalty(\"Data leakage attempt\", \"major\", [11000, 9000, 7000], 2 hours);\r\n        createPenalty(\"Privilege escalation\", \"major\", [14000, 12000, 10000], 5 hours);\r\n        createPenalty(\"Spoofing attempt\", \"minor\", [6000, 4000, 2000], 20 minutes);\r\n        createPenalty(\"Repudiation attempt\", \"minor\", [7000, 5000, 3000], 1 hours);\r\n        createPenalty(\"Tampering with data\", \"major\", [12000, 10000, 8000], 3 hours);\r\n        createPenalty(\"Denial of Service\", \"major\", [24000, 22000, 20000], 2 days);\r\n    }\r\n\r\n    modifier onlyAdmin() {\r\n        require(roleBasedAccessContract.getRole(msg.sender) == RoleToken.Role.ADMIN, \"Access denied: Not an Admin\");\r\n        _;\r\n    }\r\n\r\n    function createPenalty(\r\n        string memory reason,\r\n        string memory level,\r\n        uint16[3] memory deductions, // Array of deductions for each role\r\n        uint256 duration\r\n    ) public onlyAdmin {\r\n        require(deductions.length == 3, \"Deductions array must have exactly 3 values.\");\r\n\r\n        Penalty storage penalty = penalties[reason];\r\n        penalty.level = level;\r\n        penalty.blockingDuration = duration;\r\n\r\n        // Set the token deductions for each role\r\n        penalty.tokenDeduction[RoleToken.Role.PRIMARY_GROUP_HEAD] = deductions[0];\r\n        penalty.tokenDeduction[RoleToken.Role.SECONDARY_GROUP_HEAD] = deductions[1];\r\n        penalty.tokenDeduction[RoleToken.Role.REGULAR_MEMBER] = deductions[2];\r\n    }\r\n\r\n    function reportMaliciousActivity(address _memberAddress, string memory reason) external onlyAdmin\r\n        returns (uint256 penaltyAmount, string memory reasonString, uint256 blockingEndTime) {\r\n        require(bytes(reason).length > 0, \"Reason cannot be empty\");\r\n\r\n        MisbehaviorRecord storage record = misbehaviorHistory[_memberAddress];\r\n        uint256 currentTime = block.timestamp;\r\n\r\n        /*\r\n            in Solidity, each data type has a default value when a new struct is created or when a mapping entry is accessed for the first time. If you havent explicitly set any values for the properties of a struct, they will have these default values:\r\n            uint256: Default value is 0.\r\n            int256: Default value is 0.\r\n            bool: Default value is false.\r\n            address: Default value is 0x0000000000000000000000000000000000000000.\r\n            string: Default value is an empty string \"\".\r\n            bytes: Default value is an empty byte array 0x.\r\n        */\r\n        Penalty storage penalty = penalties[reason];\r\n        uint256 penaltyDuration = penalties[reason].blockingDuration;\r\n        \r\n        record.reasons.push(reason);\r\n        record.lastPenaltyTime = currentTime;\r\n        \r\n        // Update member's status based on the penalty level\r\n        updateMemberStatus(_memberAddress, penalty.level);\r\n        \r\n        uint256 tokenDeductionAmount = penalty.tokenDeduction[roleBasedAccessContract.getRole(msg.sender)];\r\n\r\n        penalizeMember(_memberAddress, tokenDeductionAmount, reason);\r\n\r\n        if (penaltyDuration > 0) {\r\n            blockMember(_memberAddress, penaltyDuration, reason);\r\n        }\r\n\r\n        return (tokenDeductionAmount, reason, record.blockingEndTime);\r\n    }\r\n\r\n    function reportNonPenalizeMisbehavior(address _memberAddress) external onlyAdmin returns (uint256 rewardAmount, string memory newStatus) {\r\n        // Get the member's current status and last status update time\r\n        RoleToken.Member memory member = roleBasedAccessContract.getMember(_memberAddress);\r\n\r\n        // Check how long it's been since the last status update\r\n        uint256 timeSinceLastUpdate = block.timestamp - member.lastStatusUpdate;\r\n\r\n        if (keccak256(abi.encodePacked(member.status)) == keccak256(abi.encodePacked(\"BENIGN\"))) {\r\n            // If status is benign and the threshold has passed, reward the member\r\n            if (timeSinceLastUpdate >= benignThreshold) {\r\n                rewardMember(_memberAddress);  // Reward amount example\r\n                updateMemberStatus(_memberAddress, \"nothing\");\r\n                return (5000, \"BENIGN\");\r\n            }\r\n        } else if (\r\n            keccak256(abi.encodePacked(member.status)) == keccak256(abi.encodePacked(\"SUSPICIOUS\"))\r\n        ) {\r\n            // If the member is suspicious or malicious, and threshold passed, reset status to benign without rewarding token\r\n            if (timeSinceLastUpdate >= benignThreshold) {\r\n                updateMemberStatus(_memberAddress, \"nothing\");\r\n                return (0, \"BENIGN\");\r\n            }\r\n        } else if (\r\n            keccak256(abi.encodePacked(member.status)) == keccak256(abi.encodePacked(\"MALICIOUS\"))\r\n        ) {\r\n            // If the member is suspicious or malicious, and threshold passed, reset status to benign without rewarding token\r\n            if (timeSinceLastUpdate >= benignThresholdForMalicious) {\r\n                updateMemberStatus(_memberAddress, \"nothing\");\r\n                return (0, \"BENIGN\");\r\n            }\r\n        }\r\n\r\n        return (0, \"not changed\");\r\n    }\r\n\r\n    function penalizeMember(address _memberAddress, uint256 penaltyAmount, string memory reason) internal {\r\n        if (penaltyAmount > 0) {\r\n            roleBasedAccessContract.penalizeMember(_memberAddress, penaltyAmount);\r\n        }\r\n        emit Penalized(_memberAddress, penaltyAmount, reason);\r\n    }\r\n\r\n    function rewardMember(address _memberAddress) internal {\r\n        roleBasedAccessContract.rewardMember(_memberAddress, 5000); // Reward 5000 tokens for staying benign if it was in benign status before\r\n        emit RewardIssued(_memberAddress, 5000);\r\n    }\r\n\r\n    function blockMember(address _memberAddress, uint256 blockingDuration, string memory reason) internal {\r\n        MisbehaviorRecord storage record = misbehaviorHistory[_memberAddress];\r\n        record.blockingEndTime = block.timestamp + blockingDuration;\r\n\r\n        emit MemberBlocked(_memberAddress, record.blockingEndTime, reason);\r\n    }\r\n\r\n    function updateMemberStatus(address _memberAddress, string memory penaltyLevel) internal {\r\n        if (keccak256(abi.encodePacked(penaltyLevel)) == keccak256(abi.encodePacked(\"major\"))) {\r\n            roleBasedAccessContract.updateMemberStatus(_memberAddress, \"MALICIOUS\");\r\n            emit StatusUpdated(_memberAddress, \"MALICIOUS\");\r\n        } else if (keccak256(abi.encodePacked(penaltyLevel)) == keccak256(abi.encodePacked(\"minor\"))) {\r\n            roleBasedAccessContract.updateMemberStatus(_memberAddress, \"SUSPICIOUS\");\r\n            emit StatusUpdated(_memberAddress, \"SUSPICIOUS\");\r\n        } else if (keccak256(abi.encodePacked(penaltyLevel)) == keccak256(abi.encodePacked(\"nothing\"))) {\r\n            roleBasedAccessContract.updateMemberStatus(_memberAddress, \"BENIGN\");\r\n            emit StatusUpdated(_memberAddress, \"BENIGN\");\r\n        }\r\n    }\r\n\r\n    // Public function to retrieve the MisbehaviorRecord for a specific address\r\n    function getBlockingEndTime(address _memberAddress) external view returns (uint256) {\r\n        MisbehaviorRecord storage record = misbehaviorHistory[_memberAddress];\r\n        return record.blockingEndTime;\r\n    }\r\n}",
  "sourcePath": "D:\\Desktop\\Dersler\\2024\\thesis\\Contracts\\contracts_v2 - test\\contracts\\JudgeContractNew.sol",
  "compiler": {
    "name": "solc",
    "version": "0.8.21+commit.d9974bed.Emscripten.clang"
  },
  "schemaVersion": "3.4.16",
  "updatedAt": "2024-10-04T16:40:00.130Z",
  "devdoc": {
    "errors": {
      "OwnableInvalidOwner(address)": [
        {
          "details": "The owner is not a valid owner account. (eg. `address(0)`)"
        }
      ],
      "OwnableUnauthorizedAccount(address)": [
        {
          "details": "The caller account is not authorized to perform an operation."
        }
      ]
    },
    "kind": "dev",
    "methods": {
      "owner()": {
        "details": "Returns the address of the current owner."
      },
      "renounceOwnership()": {
        "details": "Leaves the contract without owner. It will not be possible to call `onlyOwner` functions. Can only be called by the current owner. NOTE: Renouncing ownership will leave the contract without an owner, thereby disabling any functionality that is only available to the owner."
      },
      "transferOwnership(address)": {
        "details": "Transfers ownership of the contract to a new account (`newOwner`). Can only be called by the current owner."
      }
    },
    "version": 1
  },
  "userdoc": {
    "kind": "user",
    "methods": {},
    "version": 1
  }
}