{
  "contractName": "RegisterContract",
  "abi": [
    {
      "inputs": [
        {
          "internalType": "address",
          "name": "initialAdmin",
          "type": "address"
        },
        {
          "internalType": "address",
          "name": "_roleBasedAccessContract",
          "type": "address"
        }
      ],
      "stateMutability": "nonpayable",
      "type": "constructor"
    },
    {
      "inputs": [
        {
          "internalType": "address",
          "name": "owner",
          "type": "address"
        }
      ],
      "name": "OwnableInvalidOwner",
      "type": "error"
    },
    {
      "inputs": [
        {
          "internalType": "address",
          "name": "account",
          "type": "address"
        }
      ],
      "name": "OwnableUnauthorizedAccount",
      "type": "error"
    },
    {
      "anonymous": false,
      "inputs": [
        {
          "indexed": true,
          "internalType": "address",
          "name": "objectAddress",
          "type": "address"
        },
        {
          "indexed": true,
          "internalType": "address",
          "name": "subjectAddress",
          "type": "address"
        },
        {
          "indexed": false,
          "internalType": "string",
          "name": "accType",
          "type": "string"
        },
        {
          "indexed": false,
          "internalType": "address",
          "name": "contractAddress",
          "type": "address"
        }
      ],
      "name": "AccessControlRegistered",
      "type": "event"
    },
    {
      "anonymous": false,
      "inputs": [
        {
          "indexed": true,
          "internalType": "address",
          "name": "previousOwner",
          "type": "address"
        },
        {
          "indexed": true,
          "internalType": "address",
          "name": "newOwner",
          "type": "address"
        }
      ],
      "name": "OwnershipTransferred",
      "type": "event"
    },
    {
      "inputs": [
        {
          "internalType": "address",
          "name": "",
          "type": "address"
        },
        {
          "internalType": "address",
          "name": "",
          "type": "address"
        },
        {
          "internalType": "string",
          "name": "",
          "type": "string"
        }
      ],
      "name": "accessControlRegistry",
      "outputs": [
        {
          "internalType": "address",
          "name": "",
          "type": "address"
        }
      ],
      "stateMutability": "view",
      "type": "function"
    },
    {
      "inputs": [],
      "name": "judgeContractAddress",
      "outputs": [
        {
          "internalType": "address",
          "name": "",
          "type": "address"
        }
      ],
      "stateMutability": "view",
      "type": "function"
    },
    {
      "inputs": [],
      "name": "owner",
      "outputs": [
        {
          "internalType": "address",
          "name": "",
          "type": "address"
        }
      ],
      "stateMutability": "view",
      "type": "function"
    },
    {
      "inputs": [],
      "name": "renounceOwnership",
      "outputs": [],
      "stateMutability": "nonpayable",
      "type": "function"
    },
    {
      "inputs": [],
      "name": "roleBasedAccessContract",
      "outputs": [
        {
          "internalType": "contract RoleBasedAccessControl",
          "name": "",
          "type": "address"
        }
      ],
      "stateMutability": "view",
      "type": "function"
    },
    {
      "inputs": [
        {
          "internalType": "address",
          "name": "newOwner",
          "type": "address"
        }
      ],
      "name": "transferOwnership",
      "outputs": [],
      "stateMutability": "nonpayable",
      "type": "function"
    },
    {
      "inputs": [
        {
          "internalType": "address",
          "name": "_judgeContractAddress",
          "type": "address"
        }
      ],
      "name": "setJudgeContractAddress",
      "outputs": [],
      "stateMutability": "nonpayable",
      "type": "function"
    },
    {
      "inputs": [
        {
          "internalType": "address",
          "name": "objectAddress",
          "type": "address"
        },
        {
          "internalType": "address",
          "name": "subjectAddress",
          "type": "address"
        },
        {
          "internalType": "string",
          "name": "accType",
          "type": "string"
        },
        {
          "internalType": "address",
          "name": "contractAddress",
          "type": "address"
        }
      ],
      "name": "registerAccessControlContract",
      "outputs": [],
      "stateMutability": "nonpayable",
      "type": "function"
    },
    {
      "inputs": [
        {
          "internalType": "address",
          "name": "objectAddress",
          "type": "address"
        },
        {
          "internalType": "address",
          "name": "subjectAddress",
          "type": "address"
        },
        {
          "internalType": "string",
          "name": "accType",
          "type": "string"
        }
      ],
      "name": "getAccessControlContract",
      "outputs": [
        {
          "internalType": "address",
          "name": "",
          "type": "address"
        }
      ],
      "stateMutability": "view",
      "type": "function"
    },
    {
      "inputs": [
        {
          "internalType": "address",
          "name": "objectAddress",
          "type": "address"
        },
        {
          "internalType": "address",
          "name": "subjectAddress",
          "type": "address"
        },
        {
          "internalType": "string",
          "name": "accType",
          "type": "string"
        }
      ],
      "name": "accessControlContractExists",
      "outputs": [
        {
          "internalType": "bool",
          "name": "",
          "type": "bool"
        }
      ],
      "stateMutability": "view",
      "type": "function"
    }
  ],
  "bytecode": "0x608060405234801561000f575f80fd5b5060405161092938038061092983398101604081905261002e916100f6565b816001600160a01b03811661005c57604051631e4fbdf760e01b81525f600482015260240160405180910390fd5b6100658161008c565b50600180546001600160a01b0319166001600160a01b039290921691909117905550610127565b5f80546001600160a01b038381166001600160a01b0319831681178455604051919092169283917f8be0079c531659141344cd1fd0a4f28419497f9722a3daafe3b4186f6b6457e09190a35050565b80516001600160a01b03811681146100f1575f80fd5b919050565b5f8060408385031215610107575f80fd5b610110836100db565b915061011e602084016100db565b90509250929050565b6107f5806101345f395ff3fe608060405234801561000f575f80fd5b506004361061009b575f3560e01c80638da5cb5b116100635780638da5cb5b1461014d578063c943dae51461015d578063e2dd13ca14610170578063f2fde38b14610193578063fb25798c146101a6575f80fd5b80631172a0301461009f57806339061ed8146100cf578063539752661461011d578063715018a61461013257806375ed28451461013a575b5f80fd5b6003546100b2906001600160a01b031681565b6040516001600160a01b0390911681526020015b60405180910390f35b6100b26100dd366004610628565b600260209081525f93845260408085208252928452919092208251808401830180519281529083019390920192909220919052546001600160a01b031681565b61013061012b366004610682565b6101b9565b005b6101306103c8565b6001546100b2906001600160a01b031681565b5f546001600160a01b03166100b2565b6100b261016b366004610628565b6103db565b61018361017e366004610628565b610433565b60405190151581526020016100c6565b6101306101a13660046106ed565b61048e565b6101306101b43660046106ed565b6104cb565b60018054604051634427673360e01b81523360048201526001600160a01b0390911690634427673390602401602060405180830381865afa158015610200573d5f803e3d5ffd5b505050506040513d601f19601f820116820180604052508101906102249190610721565b60048111156102355761023561070d565b146102875760405162461bcd60e51b815260206004820152601b60248201527f4163636573732064656e6965643a204e6f7420616e2041646d696e000000000060448201526064015b60405180910390fd5b610292848484610433565b156103235760405162461bcd60e51b815260206004820152605560248201527f4572726f723a2041636365737320636f6e74726f6c20636f6e7472616374206160448201527f6c7265616479207265676973746572656420666f722074686973206f626a65636064820152743a161039bab13532b1ba161030b732103a3cb8329760591b608482015260a40161027e565b6001600160a01b038085165f90815260026020908152604080832093871683529290528190209051829190610359908590610761565b90815260405190819003602001812080546001600160a01b039384166001600160a01b0319909116179055848216918616907fbd6c61e8b971ac83726b8aa59829960d206a968b3bb14ffaf5460b63a32dbbf5906103ba908690869061077c565b60405180910390a350505050565b6103d06104f5565b6103d95f610521565b565b6001600160a01b038084165f90815260026020908152604080832093861683529290528181209151909190610411908490610761565b908152604051908190036020019020546001600160a01b031690509392505050565b6001600160a01b038381165f908152600260209081526040808320938616835292905281812091519091829161046a908590610761565b908152604051908190036020019020546001600160a01b0316141590509392505050565b6104966104f5565b6001600160a01b0381166104bf57604051631e4fbdf760e01b81525f600482015260240161027e565b6104c881610521565b50565b6104d36104f5565b600380546001600160a01b0319166001600160a01b0392909216919091179055565b5f546001600160a01b031633146103d95760405163118cdaa760e01b815233600482015260240161027e565b5f80546001600160a01b038381166001600160a01b0319831681178455604051919092169283917f8be0079c531659141344cd1fd0a4f28419497f9722a3daafe3b4186f6b6457e09190a35050565b80356001600160a01b0381168114610586575f80fd5b919050565b634e487b7160e01b5f52604160045260245ffd5b5f82601f8301126105ae575f80fd5b813567ffffffffffffffff808211156105c9576105c961058b565b604051601f8301601f19908116603f011681019082821181831017156105f1576105f161058b565b81604052838152866020858801011115610609575f80fd5b836020870160208301375f602085830101528094505050505092915050565b5f805f6060848603121561063a575f80fd5b61064384610570565b925061065160208501610570565b9150604084013567ffffffffffffffff81111561066c575f80fd5b6106788682870161059f565b9150509250925092565b5f805f8060808587031215610695575f80fd5b61069e85610570565b93506106ac60208601610570565b9250604085013567ffffffffffffffff8111156106c7575f80fd5b6106d38782880161059f565b9250506106e260608601610570565b905092959194509250565b5f602082840312156106fd575f80fd5b61070682610570565b9392505050565b634e487b7160e01b5f52602160045260245ffd5b5f60208284031215610731575f80fd5b815160058110610706575f80fd5b5f5b83811015610759578181015183820152602001610741565b50505f910152565b5f825161077281846020870161073f565b9190910192915050565b604081525f835180604084015261079a81606085016020880161073f565b6001600160a01b0393909316602083015250601f91909101601f19160160600191905056fea26469706673582212208a062c28b3377138e5d04ea1e0c3827c1ea193c705d2116f8f6d9ac89ed5162064736f6c63430008150033",
  "immutableReferences": {},
  "source": "// SPDX-License-Identifier: MIT\r\npragma solidity ^0.8.0;\r\n\r\nimport \"@openzeppelin/contracts/access/Ownable.sol\";\r\nimport \"./RoleBasedAccessControl.sol\";\r\n\r\ncontract RegisterContract is Ownable {\r\n    RoleBasedAccessControl public roleBasedAccessContract;  // Role-based access control contract\r\n\r\n    // Mapping for storing contract addresses based on object, subject, and acc type\r\n    mapping(address => mapping(address => mapping(string => address))) public accessControlRegistry;\r\n\r\n    address public judgeContractAddress;  // Address of the JudgeContract\r\n\r\n    event AccessControlRegistered(\r\n        address indexed objectAddress,\r\n        address indexed subjectAddress,\r\n        string accType,\r\n        address contractAddress\r\n    );\r\n\r\n    constructor(address initialAdmin, address _roleBasedAccessContract) Ownable(initialAdmin) {\r\n        roleBasedAccessContract = RoleBasedAccessControl(_roleBasedAccessContract);\r\n    }\r\n\r\n    // Modifier to allow only admin or the object owner to register\r\n    modifier onlyAdmin() {\r\n        require(\r\n            roleBasedAccessContract.getRole(msg.sender) == RoleToken.Role.ADMIN,\r\n            \"Access denied: Not an Admin\"\r\n        );\r\n        _;\r\n    }\r\n\r\n    // Function to set the JudgeContract address\r\n    function setJudgeContractAddress(address _judgeContractAddress) external onlyOwner {\r\n        judgeContractAddress = _judgeContractAddress;\r\n    }\r\n\r\n    // Function to register a new AccessControlContract\r\n    function registerAccessControlContract(\r\n        address objectAddress,\r\n        address subjectAddress,\r\n        string memory accType,\r\n        address contractAddress\r\n    ) \r\n        external \r\n        onlyAdmin\r\n    {\r\n        require(\r\n            !accessControlContractExists(objectAddress, subjectAddress, accType),\r\n            \"Error: Access control contract already registered for this object, subject, and type.\"\r\n        );\r\n\r\n        // Store the contract address in the registry\r\n        accessControlRegistry[objectAddress][subjectAddress][accType] = contractAddress;\r\n\r\n        // Emit an event for the registration\r\n        emit AccessControlRegistered(objectAddress, subjectAddress, accType, contractAddress);\r\n    }\r\n\r\n    // Function to get the registered AccessControlContract address\r\n    function getAccessControlContract(\r\n        address objectAddress,\r\n        address subjectAddress,\r\n        string memory accType\r\n    ) \r\n        external \r\n        view \r\n        returns (address) \r\n    {\r\n        return accessControlRegistry[objectAddress][subjectAddress][accType];\r\n    }\r\n\r\n    // Function to check if an AccessControlContract exists for a given combination\r\n    function accessControlContractExists(\r\n        address objectAddress,\r\n        address subjectAddress,\r\n        string memory accType\r\n    ) \r\n        public \r\n        view \r\n        returns (bool) \r\n    {\r\n        return accessControlRegistry[objectAddress][subjectAddress][accType] != address(0);\r\n    }\r\n}\r\n",
  "sourcePath": "D:\\Desktop\\Dersler\\2024\\thesis\\Contracts\\contracts_v2 - test\\contracts\\RegisterContract.sol",
  "compiler": {
    "name": "solc",
    "version": "0.8.21+commit.d9974bed.Emscripten.clang"
  },
  "schemaVersion": "3.4.16",
  "updatedAt": "2024-10-04T16:40:00.152Z",
  "devdoc": {
    "errors": {
      "OwnableInvalidOwner(address)": [
        {
          "details": "The owner is not a valid owner account. (eg. `address(0)`)"
        }
      ],
      "OwnableUnauthorizedAccount(address)": [
        {
          "details": "The caller account is not authorized to perform an operation."
        }
      ]
    },
    "kind": "dev",
    "methods": {
      "owner()": {
        "details": "Returns the address of the current owner."
      },
      "renounceOwnership()": {
        "details": "Leaves the contract without owner. It will not be possible to call `onlyOwner` functions. Can only be called by the current owner. NOTE: Renouncing ownership will leave the contract without an owner, thereby disabling any functionality that is only available to the owner."
      },
      "transferOwnership(address)": {
        "details": "Transfers ownership of the contract to a new account (`newOwner`). Can only be called by the current owner."
      }
    },
    "version": 1
  },
  "userdoc": {
    "kind": "user",
    "methods": {},
    "version": 1
  }
}