{
  "contractName": "RoleToken",
  "abi": [
    {
      "inputs": [
        {
          "internalType": "address",
          "name": "initialAdmin",
          "type": "address"
        }
      ],
      "stateMutability": "nonpayable",
      "type": "constructor"
    },
    {
      "inputs": [
        {
          "internalType": "address",
          "name": "spender",
          "type": "address"
        },
        {
          "internalType": "uint256",
          "name": "allowance",
          "type": "uint256"
        },
        {
          "internalType": "uint256",
          "name": "needed",
          "type": "uint256"
        }
      ],
      "name": "ERC20InsufficientAllowance",
      "type": "error"
    },
    {
      "inputs": [
        {
          "internalType": "address",
          "name": "sender",
          "type": "address"
        },
        {
          "internalType": "uint256",
          "name": "balance",
          "type": "uint256"
        },
        {
          "internalType": "uint256",
          "name": "needed",
          "type": "uint256"
        }
      ],
      "name": "ERC20InsufficientBalance",
      "type": "error"
    },
    {
      "inputs": [
        {
          "internalType": "address",
          "name": "approver",
          "type": "address"
        }
      ],
      "name": "ERC20InvalidApprover",
      "type": "error"
    },
    {
      "inputs": [
        {
          "internalType": "address",
          "name": "receiver",
          "type": "address"
        }
      ],
      "name": "ERC20InvalidReceiver",
      "type": "error"
    },
    {
      "inputs": [
        {
          "internalType": "address",
          "name": "sender",
          "type": "address"
        }
      ],
      "name": "ERC20InvalidSender",
      "type": "error"
    },
    {
      "inputs": [
        {
          "internalType": "address",
          "name": "spender",
          "type": "address"
        }
      ],
      "name": "ERC20InvalidSpender",
      "type": "error"
    },
    {
      "inputs": [
        {
          "internalType": "address",
          "name": "owner",
          "type": "address"
        }
      ],
      "name": "OwnableInvalidOwner",
      "type": "error"
    },
    {
      "inputs": [
        {
          "internalType": "address",
          "name": "account",
          "type": "address"
        }
      ],
      "name": "OwnableUnauthorizedAccount",
      "type": "error"
    },
    {
      "anonymous": false,
      "inputs": [
        {
          "indexed": true,
          "internalType": "address",
          "name": "owner",
          "type": "address"
        },
        {
          "indexed": true,
          "internalType": "address",
          "name": "spender",
          "type": "address"
        },
        {
          "indexed": false,
          "internalType": "uint256",
          "name": "value",
          "type": "uint256"
        }
      ],
      "name": "Approval",
      "type": "event"
    },
    {
      "anonymous": false,
      "inputs": [
        {
          "indexed": true,
          "internalType": "address",
          "name": "previousOwner",
          "type": "address"
        },
        {
          "indexed": true,
          "internalType": "address",
          "name": "newOwner",
          "type": "address"
        }
      ],
      "name": "OwnershipTransferred",
      "type": "event"
    },
    {
      "anonymous": false,
      "inputs": [
        {
          "indexed": true,
          "internalType": "address",
          "name": "memberAddress",
          "type": "address"
        },
        {
          "indexed": false,
          "internalType": "enum RoleToken.Role",
          "name": "role",
          "type": "uint8"
        },
        {
          "indexed": false,
          "internalType": "string",
          "name": "memberType",
          "type": "string"
        }
      ],
      "name": "RoleAssigned",
      "type": "event"
    },
    {
      "anonymous": false,
      "inputs": [
        {
          "indexed": true,
          "internalType": "address",
          "name": "from",
          "type": "address"
        },
        {
          "indexed": true,
          "internalType": "address",
          "name": "to",
          "type": "address"
        },
        {
          "indexed": false,
          "internalType": "uint256",
          "name": "value",
          "type": "uint256"
        }
      ],
      "name": "Transfer",
      "type": "event"
    },
    {
      "inputs": [
        {
          "internalType": "address",
          "name": "owner",
          "type": "address"
        },
        {
          "internalType": "address",
          "name": "spender",
          "type": "address"
        }
      ],
      "name": "allowance",
      "outputs": [
        {
          "internalType": "uint256",
          "name": "",
          "type": "uint256"
        }
      ],
      "stateMutability": "view",
      "type": "function"
    },
    {
      "inputs": [
        {
          "internalType": "address",
          "name": "spender",
          "type": "address"
        },
        {
          "internalType": "uint256",
          "name": "value",
          "type": "uint256"
        }
      ],
      "name": "approve",
      "outputs": [
        {
          "internalType": "bool",
          "name": "",
          "type": "bool"
        }
      ],
      "stateMutability": "nonpayable",
      "type": "function"
    },
    {
      "inputs": [
        {
          "internalType": "address",
          "name": "account",
          "type": "address"
        }
      ],
      "name": "balanceOf",
      "outputs": [
        {
          "internalType": "uint256",
          "name": "",
          "type": "uint256"
        }
      ],
      "stateMutability": "view",
      "type": "function"
    },
    {
      "inputs": [],
      "name": "contractEnabled",
      "outputs": [
        {
          "internalType": "bool",
          "name": "",
          "type": "bool"
        }
      ],
      "stateMutability": "view",
      "type": "function"
    },
    {
      "inputs": [],
      "name": "decimals",
      "outputs": [
        {
          "internalType": "uint8",
          "name": "",
          "type": "uint8"
        }
      ],
      "stateMutability": "view",
      "type": "function"
    },
    {
      "inputs": [
        {
          "internalType": "uint256",
          "name": "",
          "type": "uint256"
        }
      ],
      "name": "globalResourceTable",
      "outputs": [
        {
          "internalType": "address",
          "name": "memberAddress",
          "type": "address"
        },
        {
          "internalType": "string",
          "name": "name",
          "type": "string"
        },
        {
          "internalType": "string",
          "name": "memberType",
          "type": "string"
        },
        {
          "internalType": "string",
          "name": "status",
          "type": "string"
        },
        {
          "internalType": "uint256",
          "name": "lastStatusUpdate",
          "type": "uint256"
        },
        {
          "internalType": "enum RoleToken.Role",
          "name": "role",
          "type": "uint8"
        }
      ],
      "stateMutability": "view",
      "type": "function"
    },
    {
      "inputs": [
        {
          "internalType": "string",
          "name": "",
          "type": "string"
        },
        {
          "internalType": "uint256",
          "name": "",
          "type": "uint256"
        }
      ],
      "name": "localResourceTable",
      "outputs": [
        {
          "internalType": "address",
          "name": "memberAddress",
          "type": "address"
        },
        {
          "internalType": "string",
          "name": "name",
          "type": "string"
        },
        {
          "internalType": "string",
          "name": "memberType",
          "type": "string"
        },
        {
          "internalType": "string",
          "name": "status",
          "type": "string"
        },
        {
          "internalType": "uint256",
          "name": "lastStatusUpdate",
          "type": "uint256"
        },
        {
          "internalType": "enum RoleToken.Role",
          "name": "role",
          "type": "uint8"
        }
      ],
      "stateMutability": "view",
      "type": "function"
    },
    {
      "inputs": [
        {
          "internalType": "address",
          "name": "",
          "type": "address"
        }
      ],
      "name": "members",
      "outputs": [
        {
          "internalType": "address",
          "name": "memberAddress",
          "type": "address"
        },
        {
          "internalType": "string",
          "name": "name",
          "type": "string"
        },
        {
          "internalType": "string",
          "name": "memberType",
          "type": "string"
        },
        {
          "internalType": "string",
          "name": "status",
          "type": "string"
        },
        {
          "internalType": "uint256",
          "name": "lastStatusUpdate",
          "type": "uint256"
        },
        {
          "internalType": "enum RoleToken.Role",
          "name": "role",
          "type": "uint8"
        }
      ],
      "stateMutability": "view",
      "type": "function"
    },
    {
      "inputs": [],
      "name": "name",
      "outputs": [
        {
          "internalType": "string",
          "name": "",
          "type": "string"
        }
      ],
      "stateMutability": "view",
      "type": "function"
    },
    {
      "inputs": [],
      "name": "owner",
      "outputs": [
        {
          "internalType": "address",
          "name": "",
          "type": "address"
        }
      ],
      "stateMutability": "view",
      "type": "function"
    },
    {
      "inputs": [],
      "name": "renounceOwnership",
      "outputs": [],
      "stateMutability": "nonpayable",
      "type": "function"
    },
    {
      "inputs": [],
      "name": "symbol",
      "outputs": [
        {
          "internalType": "string",
          "name": "",
          "type": "string"
        }
      ],
      "stateMutability": "view",
      "type": "function"
    },
    {
      "inputs": [],
      "name": "totalSupply",
      "outputs": [
        {
          "internalType": "uint256",
          "name": "",
          "type": "uint256"
        }
      ],
      "stateMutability": "view",
      "type": "function"
    },
    {
      "inputs": [
        {
          "internalType": "address",
          "name": "to",
          "type": "address"
        },
        {
          "internalType": "uint256",
          "name": "value",
          "type": "uint256"
        }
      ],
      "name": "transfer",
      "outputs": [
        {
          "internalType": "bool",
          "name": "",
          "type": "bool"
        }
      ],
      "stateMutability": "nonpayable",
      "type": "function"
    },
    {
      "inputs": [
        {
          "internalType": "address",
          "name": "from",
          "type": "address"
        },
        {
          "internalType": "address",
          "name": "to",
          "type": "address"
        },
        {
          "internalType": "uint256",
          "name": "value",
          "type": "uint256"
        }
      ],
      "name": "transferFrom",
      "outputs": [
        {
          "internalType": "bool",
          "name": "",
          "type": "bool"
        }
      ],
      "stateMutability": "nonpayable",
      "type": "function"
    },
    {
      "inputs": [
        {
          "internalType": "address",
          "name": "newOwner",
          "type": "address"
        }
      ],
      "name": "transferOwnership",
      "outputs": [],
      "stateMutability": "nonpayable",
      "type": "function"
    },
    {
      "inputs": [
        {
          "internalType": "string",
          "name": "",
          "type": "string"
        }
      ],
      "name": "typePrimaryHead",
      "outputs": [
        {
          "internalType": "address",
          "name": "",
          "type": "address"
        }
      ],
      "stateMutability": "view",
      "type": "function"
    },
    {
      "inputs": [
        {
          "internalType": "string",
          "name": "",
          "type": "string"
        }
      ],
      "name": "typeSecondaryHead",
      "outputs": [
        {
          "internalType": "address",
          "name": "memberAddress",
          "type": "address"
        },
        {
          "internalType": "string",
          "name": "name",
          "type": "string"
        },
        {
          "internalType": "string",
          "name": "memberType",
          "type": "string"
        },
        {
          "internalType": "string",
          "name": "status",
          "type": "string"
        },
        {
          "internalType": "uint256",
          "name": "lastStatusUpdate",
          "type": "uint256"
        },
        {
          "internalType": "enum RoleToken.Role",
          "name": "role",
          "type": "uint8"
        }
      ],
      "stateMutability": "view",
      "type": "function"
    },
    {
      "inputs": [
        {
          "internalType": "address",
          "name": "to",
          "type": "address"
        },
        {
          "internalType": "uint256",
          "name": "amount",
          "type": "uint256"
        }
      ],
      "name": "mint",
      "outputs": [],
      "stateMutability": "nonpayable",
      "type": "function"
    },
    {
      "inputs": [
        {
          "internalType": "address",
          "name": "deployer",
          "type": "address"
        },
        {
          "internalType": "address",
          "name": "contractAddress",
          "type": "address"
        }
      ],
      "name": "assignAdminRole",
      "outputs": [],
      "stateMutability": "nonpayable",
      "type": "function"
    },
    {
      "inputs": [],
      "name": "disableContract",
      "outputs": [],
      "stateMutability": "nonpayable",
      "type": "function"
    },
    {
      "inputs": [],
      "name": "enableContract",
      "outputs": [],
      "stateMutability": "nonpayable",
      "type": "function"
    },
    {
      "inputs": [
        {
          "internalType": "address",
          "name": "_memberAddress",
          "type": "address"
        },
        {
          "internalType": "string",
          "name": "_name",
          "type": "string"
        },
        {
          "internalType": "string",
          "name": "_memberType",
          "type": "string"
        }
      ],
      "name": "assignRole",
      "outputs": [],
      "stateMutability": "nonpayable",
      "type": "function"
    },
    {
      "inputs": [
        {
          "internalType": "address",
          "name": "account1",
          "type": "address"
        },
        {
          "internalType": "address",
          "name": "account2",
          "type": "address"
        }
      ],
      "name": "swapRole",
      "outputs": [],
      "stateMutability": "nonpayable",
      "type": "function"
    },
    {
      "inputs": [
        {
          "internalType": "address",
          "name": "account",
          "type": "address"
        }
      ],
      "name": "revokeRole",
      "outputs": [],
      "stateMutability": "nonpayable",
      "type": "function"
    },
    {
      "inputs": [
        {
          "internalType": "address",
          "name": "account",
          "type": "address"
        }
      ],
      "name": "getRole",
      "outputs": [
        {
          "internalType": "enum RoleToken.Role",
          "name": "",
          "type": "uint8"
        }
      ],
      "stateMutability": "view",
      "type": "function"
    },
    {
      "inputs": [
        {
          "internalType": "string",
          "name": "memberType",
          "type": "string"
        }
      ],
      "name": "getLocalResourceTable",
      "outputs": [
        {
          "components": [
            {
              "internalType": "address",
              "name": "memberAddress",
              "type": "address"
            },
            {
              "internalType": "string",
              "name": "name",
              "type": "string"
            },
            {
              "internalType": "string",
              "name": "memberType",
              "type": "string"
            },
            {
              "internalType": "string",
              "name": "status",
              "type": "string"
            },
            {
              "internalType": "uint256",
              "name": "lastStatusUpdate",
              "type": "uint256"
            },
            {
              "internalType": "enum RoleToken.Role",
              "name": "role",
              "type": "uint8"
            }
          ],
          "internalType": "struct RoleToken.Member[]",
          "name": "",
          "type": "tuple[]"
        }
      ],
      "stateMutability": "view",
      "type": "function"
    },
    {
      "inputs": [],
      "name": "getGlobalResourceTable",
      "outputs": [
        {
          "components": [
            {
              "internalType": "address",
              "name": "memberAddress",
              "type": "address"
            },
            {
              "internalType": "string",
              "name": "name",
              "type": "string"
            },
            {
              "internalType": "string",
              "name": "memberType",
              "type": "string"
            },
            {
              "internalType": "string",
              "name": "status",
              "type": "string"
            },
            {
              "internalType": "uint256",
              "name": "lastStatusUpdate",
              "type": "uint256"
            },
            {
              "internalType": "enum RoleToken.Role",
              "name": "role",
              "type": "uint8"
            }
          ],
          "internalType": "struct RoleToken.Member[]",
          "name": "",
          "type": "tuple[]"
        }
      ],
      "stateMutability": "view",
      "type": "function"
    },
    {
      "inputs": [
        {
          "internalType": "address",
          "name": "_memberAddress",
          "type": "address"
        }
      ],
      "name": "getMember",
      "outputs": [
        {
          "components": [
            {
              "internalType": "address",
              "name": "memberAddress",
              "type": "address"
            },
            {
              "internalType": "string",
              "name": "name",
              "type": "string"
            },
            {
              "internalType": "string",
              "name": "memberType",
              "type": "string"
            },
            {
              "internalType": "string",
              "name": "status",
              "type": "string"
            },
            {
              "internalType": "uint256",
              "name": "lastStatusUpdate",
              "type": "uint256"
            },
            {
              "internalType": "enum RoleToken.Role",
              "name": "role",
              "type": "uint8"
            }
          ],
          "internalType": "struct RoleToken.Member",
          "name": "",
          "type": "tuple"
        }
      ],
      "stateMutability": "view",
      "type": "function"
    },
    {
      "inputs": [
        {
          "internalType": "address",
          "name": "_memberAddress",
          "type": "address"
        },
        {
          "internalType": "string",
          "name": "_newStatus",
          "type": "string"
        }
      ],
      "name": "updateMemberStatus",
      "outputs": [],
      "stateMutability": "nonpayable",
      "type": "function"
    },
    {
      "inputs": [
        {
          "internalType": "address",
          "name": "_memberAddress",
          "type": "address"
        },
        {
          "internalType": "uint256",
          "name": "_amount",
          "type": "uint256"
        }
      ],
      "name": "penalizeMember",
      "outputs": [],
      "stateMutability": "nonpayable",
      "type": "function"
    },
    {
      "inputs": [
        {
          "internalType": "address",
          "name": "_memberAddress",
          "type": "address"
        },
        {
          "internalType": "uint256",
          "name": "_amount",
          "type": "uint256"
        }
      ],
      "name": "rewardMember",
      "outputs": [],
      "stateMutability": "nonpayable",
      "type": "function"
    },
    {
      "inputs": [
        {
          "internalType": "address",
          "name": "memberAddress",
          "type": "address"
        }
      ],
      "name": "getPrimaryHeadAddress",
      "outputs": [
        {
          "internalType": "address",
          "name": "",
          "type": "address"
        }
      ],
      "stateMutability": "view",
      "type": "function"
    }
  ],
  "bytecode": "0x60806040526005805460ff60a01b1916600160a01b17905534801562000023575f80fd5b50604051620057013803806200570183398101604081905262000046916200036d565b80604051806040016040528060098152602001682937b632aa37b5b2b760b91b8152506040518060400160405280600381526020016252544b60e81b81525081600390816200009691906200043c565b506004620000a582826200043c565b5050506001600160a01b038116620000d757604051631e4fbdf760e01b81525f60048201526024015b60405180910390fd5b620000e2816200013d565b506200010b81620000f66012600a62000613565b62000105906298968062000623565b6200018e565b6200011681620001ca565b6001600160a01b03165f908152600660205260409020805460ff1916600117905562000653565b600580546001600160a01b038381166001600160a01b0319831681179093556040519116919082907f8be0079c531659141344cd1fd0a4f28419497f9722a3daafe3b4186f6b6457e0905f90a35050565b6001600160a01b038216620001b95760405163ec442f0560e01b81525f6004820152602401620000ce565b620001c65f83836200020d565b5050565b620001d46200033c565b6001600160a01b038116620001ff57604051631e4fbdf760e01b81525f6004820152602401620000ce565b6200020a816200013d565b50565b6001600160a01b0383166200023b578060025f8282546200022f91906200063d565b90915550620002ad9050565b6001600160a01b0383165f90815260208190526040902054818110156200028f5760405163391434e360e21b81526001600160a01b03851660048201526024810182905260448101839052606401620000ce565b6001600160a01b0384165f9081526020819052604090209082900390555b6001600160a01b038216620002cb57600280548290039055620002e9565b6001600160a01b0382165f9081526020819052604090208054820190555b816001600160a01b0316836001600160a01b03167fddf252ad1be2c89b69c2b068fc378daa952ba7f163c4a11628f55a4df523b3ef836040516200032f91815260200190565b60405180910390a3505050565b6005546001600160a01b031633146200036b5760405163118cdaa760e01b8152336004820152602401620000ce565b565b5f602082840312156200037e575f80fd5b81516001600160a01b038116811462000395575f80fd5b9392505050565b634e487b7160e01b5f52604160045260245ffd5b600181811c90821680620003c557607f821691505b602082108103620003e457634e487b7160e01b5f52602260045260245ffd5b50919050565b601f82111562000437575f81815260208120601f850160051c81016020861015620004125750805b601f850160051c820191505b8181101562000433578281556001016200041e565b5050505b505050565b81516001600160401b038111156200045857620004586200039c565b6200047081620004698454620003b0565b84620003ea565b602080601f831160018114620004a6575f84156200048e5750858301515b5f19600386901b1c1916600185901b17855562000433565b5f85815260208120601f198616915b82811015620004d657888601518255948401946001909101908401620004b5565b5085821015620004f457878501515f19600388901b60f8161c191681555b5050505050600190811b01905550565b634e487b7160e01b5f52601160045260245ffd5b600181815b808511156200055857815f19048211156200053c576200053c62000504565b808516156200054a57918102915b93841c93908002906200051d565b509250929050565b5f8262000570575060016200060d565b816200057e57505f6200060d565b8160018114620005975760028114620005a257620005c2565b60019150506200060d565b60ff841115620005b657620005b662000504565b50506001821b6200060d565b5060208310610133831016604e8410600b8410161715620005e7575081810a6200060d565b620005f3838362000518565b805f190482111562000609576200060962000504565b0290505b92915050565b5f6200039560ff84168362000560565b80820281158282048414176200060d576200060d62000504565b808201808211156200060d576200060d62000504565b6150a080620006615f395ff3fe608060405234801561000f575f80fd5b50600436106101f2575f3560e01c806370a082311161011457806395d89b41116100a9578063dd62ed3e11610079578063dd62ed3e14610468578063df4073e5146104a0578063f108103f146104d4578063f2fde38b146104e7578063f91546f1146104fa575f80fd5b806395d89b4114610427578063a18f60981461042f578063a9059cbb14610442578063d3a2ab1014610455575f80fd5b80637e7a06e6116100e45780637e7a06e6146103d057806380e52e3f146103fb578063894ba8331461040e5780638da5cb5b14610416575f80fd5b806370a0823114610385578063715018a6146103ad578063746d961e146103b55780637575bb42146103c8575f80fd5b8063313ce5671161018a57806340c10f191161015a57806340c10f191461031357806341b3a0d914610326578063442767331461033a5780636fab480414610372575f80fd5b8063313ce567146102d65780633535ed25146102e5578063367edd32146102f85780633b5e80b214610300575f80fd5b806318160ddd116101c557806318160ddd1461027c5780631bc15d531461028e57806323b872dd146102a35780632ada2596146102b6575f80fd5b806306fdde03146101f657806308ae4b0c14610214578063095ea7b314610239578063111929991461025c575b5f80fd5b6101fe61050d565b60405161020b919061470a565b60405180910390f35b61022761022236600461473e565b61059d565b60405161020b9695949392919061478b565b61024c6102473660046147f5565b610771565b604051901515815260200161020b565b61026f61026a3660046148ba565b61078a565b60405161020b9190614974565b6002545b60405190815260200161020b565b6102a161029c3660046149d4565b610a08565b005b61024c6102b1366004614a1f565b610a98565b6102c96102c436600461473e565b610abb565b60405161020b9190614a58565b6040516012815260200161020b565b6102276102f33660046148ba565b610ce7565b6102a1610d1e565b6102a161030e3660046147f5565b610dcf565b6102a16103213660046147f5565b610e1f565b60055461024c90600160a01b900460ff1681565b61036561034836600461473e565b6001600160a01b03165f9081526006602052604090205460ff1690565b60405161020b9190614a6a565b6102a1610380366004614a78565b610ee8565b61028061039336600461473e565b6001600160a01b03165f9081526020819052604090205490565b6102a161140e565b6102a16103c33660046147f5565b611421565b61026f611463565b6103e36103de36600461473e565b611732565b6040516001600160a01b03909116815260200161020b565b6102a161040936600461473e565b611a1d565b6102a1612402565b6005546001600160a01b03166103e3565b6101fe6124ac565b61022761043d366004614aa9565b6124bb565b61024c6104503660046147f5565b6124f8565b6102a1610463366004614ac0565b612505565b610280610476366004614a78565b6001600160a01b039182165f90815260016020908152604080832093909416825291909152205490565b6103e36104ae3660046148ba565b8051602081830181018051600a825292820191909301209152546001600160a01b031681565b6102a16104e2366004614a78565b612e22565b6102a16104f536600461473e565b612f16565b610227610508366004614b2f565b612f53565b60606003805461051c90614b71565b80601f016020809104026020016040519081016040528092919081815260200182805461054890614b71565b80156105935780601f1061056a57610100808354040283529160200191610593565b820191905f5260205f20905b81548152906001019060200180831161057657829003601f168201915b5050505050905090565b600b6020525f9081526040902080546001820180546001600160a01b0390921692916105c890614b71565b80601f01602080910402602001604051908101604052809291908181526020018280546105f490614b71565b801561063f5780601f106106165761010080835404028352916020019161063f565b820191905f5260205f20905b81548152906001019060200180831161062257829003601f168201915b50505050509080600201805461065490614b71565b80601f016020809104026020016040519081016040528092919081815260200182805461068090614b71565b80156106cb5780601f106106a2576101008083540402835291602001916106cb565b820191905f5260205f20905b8154815290600101906020018083116106ae57829003601f168201915b5050505050908060030180546106e090614b71565b80601f016020809104026020016040519081016040528092919081815260200182805461070c90614b71565b80156107575780601f1061072e57610100808354040283529160200191610757565b820191905f5260205f20905b81548152906001019060200180831161073a57829003601f168201915b50505050600483015460059093015491929160ff16905086565b5f3361077e818585612fad565b60019150505b92915050565b606060078260405161079c9190614ba9565b9081526020016040518091039020805480602002602001604051908101604052809291908181526020015f905b828210156109fd575f8481526020908190206040805160c081019091526006850290910180546001600160a01b03168252600181018054929391929184019161081190614b71565b80601f016020809104026020016040519081016040528092919081815260200182805461083d90614b71565b80156108885780601f1061085f57610100808354040283529160200191610888565b820191905f5260205f20905b81548152906001019060200180831161086b57829003601f168201915b505050505081526020016002820180546108a190614b71565b80601f01602080910402602001604051908101604052809291908181526020018280546108cd90614b71565b80156109185780601f106108ef57610100808354040283529160200191610918565b820191905f5260205f20905b8154815290600101906020018083116108fb57829003601f168201915b5050505050815260200160038201805461093190614b71565b80601f016020809104026020016040519081016040528092919081815260200182805461095d90614b71565b80156109a85780601f1061097f576101008083540402835291602001916109a8565b820191905f5260205f20905b81548152906001019060200180831161098b57829003601f168201915b50505091835250506004828101546020830152600583015460409092019160ff16908111156109d9576109d9614757565b60048111156109ea576109ea614757565b81525050815260200190600101906107c9565b505050509050919050565b6001335f9081526006602052604090205460ff166004811115610a2d57610a2d614757565b14610a535760405162461bcd60e51b8152600401610a4a90614bc4565b60405180910390fd5b6001600160a01b0382165f908152600b60205260409020600301610a778282614c58565b50506001600160a01b03165f908152600b6020526040902042600490910155565b5f33610aa5858285612fba565b610ab0858585613035565b506001949350505050565b610ac36145ab565b6001600160a01b038083165f908152600b6020908152604091829020825160c081019093528054909316825260018301805492939291840191610b0590614b71565b80601f0160208091040260200160405190810160405280929190818152602001828054610b3190614b71565b8015610b7c5780601f10610b5357610100808354040283529160200191610b7c565b820191905f5260205f20905b815481529060010190602001808311610b5f57829003601f168201915b50505050508152602001600282018054610b9590614b71565b80601f0160208091040260200160405190810160405280929190818152602001828054610bc190614b71565b8015610c0c5780601f10610be357610100808354040283529160200191610c0c565b820191905f5260205f20905b815481529060010190602001808311610bef57829003601f168201915b50505050508152602001600382018054610c2590614b71565b80601f0160208091040260200160405190810160405280929190818152602001828054610c5190614b71565b8015610c9c5780601f10610c7357610100808354040283529160200191610c9c565b820191905f5260205f20905b815481529060010190602001808311610c7f57829003601f168201915b50505091835250506004828101546020830152600583015460409092019160ff1690811115610ccd57610ccd614757565b6004811115610cde57610cde614757565b90525092915050565b8051602081830181018051600982529282019190930120915280546001820180546001600160a01b0390921692916105c890614b71565b6001335f9081526006602052604090205460ff166004811115610d4357610d43614757565b14610d605760405162461bcd60e51b8152600401610a4a90614bc4565b600554600160a01b900460ff1615610dba5760405162461bcd60e51b815260206004820152601b60248201527f436f6e747261637420697320616c726561647920656e61626c656400000000006044820152606401610a4a565b6005805460ff60a01b1916600160a01b179055565b6001335f9081526006602052604090205460ff166004811115610df457610df4614757565b14610e115760405162461bcd60e51b8152600401610a4a90614bc4565b610e1b8282613092565b5050565b6001335f9081526006602052604090205460ff166004811115610e4457610e44614757565b1480610e7257506002335f9081526006602052604090205460ff166004811115610e7057610e70614757565b145b610e8e5760405162461bcd60e51b8152600401610a4a90614d14565b600554600160a01b900460ff16610ede5760405162461bcd60e51b815260206004820152601460248201527310dbdb9d1c9858dd081a5cc8191a5cd8589b195960621b6044820152606401610a4a565b610e1b82826130c6565b6001335f9081526006602052604090205460ff166004811115610f0d57610f0d614757565b1480610f3b57506002335f9081526006602052604090205460ff166004811115610f3957610f39614757565b145b610f575760405162461bcd60e51b8152600401610a4a90614d14565b6001600160a01b0382165f9081526006602052604081205460ff166004811115610f8357610f83614757565b14158015610fbb57506001600160a01b0381165f9081526006602052604081205460ff166004811115610fb857610fb8614757565b14155b6110075760405162461bcd60e51b815260206004820152601d60248201527f426f7468206163636f756e7473206d757374206861766520726f6c65730000006044820152606401610a4a565b6001600160a01b0381165f9081526006602052604090205460ff16600481111561103357611033614757565b6001600160a01b0383165f9081526006602052604090205460ff16600481111561105f5761105f614757565b036110b75760405162461bcd60e51b815260206004820152602260248201527f4163636f756e7473206d757374206861766520646966666572656e7420726f6c604482015261657360f01b6064820152608401610a4a565b6001600160a01b038281165f81815260066020908152604080832054948616835280832054938352600b9091528120600201805460ff94851694909316926110fe90614b71565b80601f016020809104026020016040519081016040528092919081815260200182805461112a90614b71565b80156111755780601f1061114c57610100808354040283529160200191611175565b820191905f5260205f20905b81548152906001019060200180831161115857829003601f168201915b5050506001600160a01b0387165f908152600b60205260408120600201805494955090939092506111a69150614b71565b80601f01602080910402602001604051908101604052809291908181526020018280546111d290614b71565b801561121d5780601f106111f45761010080835404028352916020019161121d565b820191905f5260205f20905b81548152906001019060200180831161120057829003601f168201915b5050505050905080805190602001208280519060200120146112925760405162461bcd60e51b815260206004820152602860248201527f4163636f756e7473206d75737420626520696e207468652073616d65206d656d604482015267626572207479706560c01b6064820152608401610a4a565b61129c86836130fa565b6112a685826130fa565b6001600160a01b0386165f908152600660205260409020805484919060ff191660018360048111156112da576112da614757565b02179055506001600160a01b0385165f908152600660205260409020805485919060ff1916600183600481111561131357611313614757565b02179055506001600160a01b0386165f908152600b60205260409020600501805484919060ff1916600183600481111561134f5761134f614757565b02179055506001600160a01b0385165f908152600b60205260409020600501805485919060ff1916600183600481111561138b5761138b614757565b021790555061139b8682856138fc565b6113a68583866138fc565b856001600160a01b03165f8051602061504b83398151915284836040516113ce929190614d65565b60405180910390a2846001600160a01b03165f8051602061504b83398151915285846040516113fe929190614d65565b60405180910390a2505050505050565b611416614335565b61141f5f614362565b565b6001335f9081526006602052604090205460ff16600481111561144657611446614757565b14610ede5760405162461bcd60e51b8152600401610a4a90614bc4565b60606001335f9081526006602052604090205460ff16600481111561148a5761148a614757565b14806114b857506002335f9081526006602052604090205460ff1660048111156114b6576114b6614757565b145b6114d45760405162461bcd60e51b8152600401610a4a90614d14565b6008805480602002602001604051908101604052809291908181526020015f905b82821015611729575f8481526020908190206040805160c081019091526006850290910180546001600160a01b03168252600181018054929391929184019161153d90614b71565b80601f016020809104026020016040519081016040528092919081815260200182805461156990614b71565b80156115b45780601f1061158b576101008083540402835291602001916115b4565b820191905f5260205f20905b81548152906001019060200180831161159757829003601f168201915b505050505081526020016002820180546115cd90614b71565b80601f01602080910402602001604051908101604052809291908181526020018280546115f990614b71565b80156116445780601f1061161b57610100808354040283529160200191611644565b820191905f5260205f20905b81548152906001019060200180831161162757829003601f168201915b5050505050815260200160038201805461165d90614b71565b80601f016020809104026020016040519081016040528092919081815260200182805461168990614b71565b80156116d45780601f106116ab576101008083540402835291602001916116d4565b820191905f5260205f20905b8154815290600101906020018083116116b757829003601f168201915b50505091835250506004828101546020830152600583015460409092019160ff169081111561170557611705614757565b600481111561171657611716614757565b81525050815260200190600101906114f5565b50505050905090565b6001600160a01b038082165f908152600b60209081526040808320815160c08101909252805490941681526001840180549394859492939092908401919061177990614b71565b80601f01602080910402602001604051908101604052809291908181526020018280546117a590614b71565b80156117f05780601f106117c7576101008083540402835291602001916117f0565b820191905f5260205f20905b8154815290600101906020018083116117d357829003601f168201915b5050505050815260200160028201805461180990614b71565b80601f016020809104026020016040519081016040528092919081815260200182805461183590614b71565b80156118805780601f1061185757610100808354040283529160200191611880565b820191905f5260205f20905b81548152906001019060200180831161186357829003601f168201915b5050505050815260200160038201805461189990614b71565b80601f01602080910402602001604051908101604052809291908181526020018280546118c590614b71565b80156119105780601f106118e757610100808354040283529160200191611910565b820191905f5260205f20905b8154815290600101906020018083116118f357829003601f168201915b50505091835250506004828101546020830152600583015460409092019160ff169081111561194157611941614757565b600481111561195257611952614757565b905250905060048160a00151600481111561196f5761196f614757565b1480611990575060038160a00151600481111561198e5761198e614757565b145b6119e75760405162461bcd60e51b815260206004820152602260248201527f4164647265737320646f6573206e6f74206861766520612076616c696420726f6044820152616c6560f01b6064820152608401610a4a565b5f600a82604001516040516119fc9190614ba9565b908152604051908190036020019020546001600160a01b0316949350505050565b6001335f9081526006602052604090205460ff166004811115611a4257611a42614757565b1480611a7057506002335f9081526006602052604090205460ff166004811115611a6e57611a6e614757565b145b611a8c5760405162461bcd60e51b8152600401610a4a90614d14565b6001600160a01b0381165f9081526006602052604090205460ff166002816004811115611abb57611abb614757565b1480611ad857506003816004811115611ad657611ad6614757565b145b80611af457506004816004811115611af257611af2614757565b145b611b405760405162461bcd60e51b815260206004820152601c60248201527f4163636f756e7420646f6573206e6f742068617665206120726f6c65000000006044820152606401610a4a565b6001600160a01b0382165f908152600b602052604081206002018054611b6590614b71565b80601f0160208091040260200160405190810160405280929190818152602001828054611b9190614b71565b8015611bdc5780601f10611bb357610100808354040283529160200191611bdc565b820191905f5260205f20905b815481529060010190602001808311611bbf57829003601f168201915b5093945060029350611bed92505050565b826004811115611bff57611bff614757565b03611ed857600781604051611c149190614ba9565b9081526040519081900360200190205415611c7c5760405162461bcd60e51b815260206004820152602260248201527f4c6f63616c207265736f75726365207461626c65206d75737420626520656d70604482015261747960f01b6064820152608401610a4a565b5f5b600854811015611ea557836001600160a01b031660088281548110611ca557611ca5614d84565b5f9182526020909120600690910201546001600160a01b0316148015611d37575081604051602001611cd79190614ba9565b6040516020818303038152906040528051906020012060088281548110611d0057611d00614d84565b905f5260205f209060060201600201604051602001611d1f9190614d98565b60405160208183030381529060405280519060200120145b15611e935760088054611d4c90600190614e1e565b81548110611d5c57611d5c614d84565b905f5260205f20906006020160088281548110611d7b57611d7b614d84565b5f9182526020909120825460069092020180546001600160a01b0319166001600160a01b03909216919091178155600180820190611dbb90840182614e31565b50600281810190611dce90840182614e31565b50600381810190611de190840182614e31565b5060048281015482820155600580840154908301805460ff90921692909160ff1916906001908490811115611e1857611e18614757565b02179055509050506008805480611e3157611e31614f06565b5f8281526020812060065f199093019283020180546001600160a01b031916815590611e6060018301826145f7565b611e6d600283015f6145f7565b611e7a600383015f6145f7565b505f6004820155600501805460ff191690559055611ea5565b80611e9d81614f1a565b915050611c7e565b50600a81604051611eb69190614ba9565b90815260405190819003602001902080546001600160a01b0319169055612365565b6003826004811115611eec57611eec614757565b0361206457600781604051611f019190614ba9565b90815260405190819003602001902054600114611f965760405162461bcd60e51b815260206004820152604760248201527f4c6f63616c207265736f75726365207461626c65206d7573742068617665206560448201527f786163746c79206f6e65206d656d626572287365636f6e646172792067726f756064820152667020686561642960c81b608482015260a401610a4a565b826001600160a01b0316600982604051611fb09190614ba9565b908152604051908190036020019020546001600160a01b03160361205f57600981604051611fde9190614ba9565b90815260405190819003602001902080546001600160a01b03191681555f61200960018301826145f7565b612016600283015f6145f7565b612023600383015f6145f7565b505f6004820155600501805460ff19169055604051600790612046908390614ba9565b90815260200160405180910390205f61205f919061462e565b612365565b600482600481111561207857612078614757565b0361236557600160078260405161208f9190614ba9565b90815260405190819003602001902054116121085760405162461bcd60e51b815260206004820152603360248201527f4c6f63616c207265736f75726365207461626c65206d7573742068617665206d60448201527237b932903a3430b71037b7329036b2b6b132b960691b6064820152608401610a4a565b5f5b60078260405161211a9190614ba9565b9081526040519081900360200190205481101561236357836001600160a01b031660078360405161214b9190614ba9565b9081526020016040518091039020828154811061216a5761216a614d84565b5f9182526020909120600690910201546001600160a01b031603612351576007826040516121989190614ba9565b908152602001604051809103902060016007846040516121b89190614ba9565b908152604051908190036020019020546121d29190614e1e565b815481106121e2576121e2614d84565b905f5260205f2090600602016007836040516121fe9190614ba9565b9081526020016040518091039020828154811061221d5761221d614d84565b5f9182526020909120825460069092020180546001600160a01b0319166001600160a01b0390921691909117815560018082019061225d90840182614e31565b5060028181019061227090840182614e31565b5060038181019061228390840182614e31565b5060048281015482820155600580840154908301805460ff90921692909160ff19169060019084908111156122ba576122ba614757565b02179055509050506007826040516122d29190614ba9565b90815260200160405180910390208054806122ef576122ef614f06565b5f8281526020812060065f199093019283020180546001600160a01b03191681559061231e60018301826145f7565b61232b600283015f6145f7565b612338600383015f6145f7565b505f6004820155600501805460ff191690559055612363565b8061235b81614f1a565b91505061210a565b505b6001600160a01b0383165f908152600660209081526040808320805460ff19169055600b909152812080546001600160a01b0319168155906123aa60018301826145f7565b6123b7600283015f6145f7565b6123c4600383015f6145f7565b505f6004820155600501805460ff191690556123fd836123f8816001600160a01b03165f9081526020819052604090205490565b613092565b505050565b6001335f9081526006602052604090205460ff16600481111561242757612427614757565b146124445760405162461bcd60e51b8152600401610a4a90614bc4565b600554600160a01b900460ff1661249d5760405162461bcd60e51b815260206004820152601c60248201527f436f6e747261637420697320616c72656164792064697361626c6564000000006044820152606401610a4a565b6005805460ff60a01b19169055565b60606004805461051c90614b71565b600881815481106124ca575f80fd5b5f918252602090912060069091020180546001820180546001600160a01b039092169350906105c890614b71565b5f3361077e818585613035565b6001600160a01b0383165f9081526006602052604081205460ff16600481111561253157612531614757565b1461257e5760405162461bcd60e51b815260206004820152601960248201527f4d656d62657220616c726561647920686173206120726f6c65000000000000006044820152606401610a4a565b5f6001600160a01b0316600a826040516125989190614ba9565b908152604051908190036020019020546001600160a01b031603612881576001600160a01b0383165f90815260066020526040902080546002919060ff191660018302179055505f6040518060c00160405280856001600160a01b03168152602001848152602001838152602001604051806040016040528060068152602001652122a724a3a760d11b81525081526020014281526020016002600481111561264357612643614757565b9052600880546001810182555f9190915281517ff3f7a9fe364faab93b216da50a3214154f22a0a2b415b23a84c8169e8b636ee3600690920291820180546001600160a01b0319166001600160a01b039092169190911781556020830151929350839290917ff3f7a9fe364faab93b216da50a3214154f22a0a2b415b23a84c8169e8b636ee401906126d59082614c58565b50604082015160028201906126ea9082614c58565b50606082015160038201906126ff9082614c58565b506080820151816004015560a0820151816005015f6101000a81548160ff0219169083600481111561273357612733614757565b0217905550505083600a8360405161274b9190614ba9565b90815260405190819003602001902080546001600160a01b03929092166001600160a01b031990921691909117905561279e84612786601290565b61279190600a615012565b61032190620f4240615020565b6001600160a01b038481165f908152600b60209081526040909120835181546001600160a01b031916931692909217825582015182919060018201906127e49082614c58565b50604082015160028201906127f99082614c58565b506060820151600382019061280e9082614c58565b506080820151816004015560a0820151816005015f6101000a81548160ff0219169083600481111561284257612842614757565b0217905550905050836001600160a01b03165f8051602061504b833981519152600284604051612873929190614d65565b60405180910390a250505050565b5f6001600160a01b031660098260405161289b9190614ba9565b908152604051908190036020019020546001600160a01b031603612bc9576001600160a01b0383165f90815260066020526040902080546003919060ff191660018302179055505f6040518060c00160405280856001600160a01b03168152602001848152602001838152602001604051806040016040528060068152602001652122a724a3a760d11b81525081526020014281526020016003600481111561294657612946614757565b815250905060078260405161295b9190614ba9565b908152604051602091819003820190208054600180820183555f92835291839020845160069092020180546001600160a01b0319166001600160a01b03909216919091178155918301518392918201906129b59082614c58565b50604082015160028201906129ca9082614c58565b50606082015160038201906129df9082614c58565b506080820151816004015560a0820151816005015f6101000a81548160ff02191690836004811115612a1357612a13614757565b0217905550505080600983604051612a2b9190614ba9565b90815260405160209181900382019020825181546001600160a01b0319166001600160a01b03909116178155908201516001820190612a6a9082614c58565b5060408201516002820190612a7f9082614c58565b5060608201516003820190612a949082614c58565b506080820151816004015560a0820151816005015f6101000a81548160ff02191690836004811115612ac857612ac8614757565b0217905550905050612af484612adc601290565b612ae790600a615012565b610321906207a120615020565b6001600160a01b038481165f908152600b60209081526040909120835181546001600160a01b03191693169290921782558201518291906001820190612b3a9082614c58565b5060408201516002820190612b4f9082614c58565b5060608201516003820190612b649082614c58565b506080820151816004015560a0820151816005015f6101000a81548160ff02191690836004811115612b9857612b98614757565b0217905550905050836001600160a01b03165f8051602061504b833981519152600384604051612873929190614d65565b6001600160a01b0383165f90815260066020526040902080546004919060ff191660018302179055505f6040518060c00160405280856001600160a01b03168152602001848152602001838152602001604051806040016040528060068152602001652122a724a3a760d11b8152508152602001428152602001600480811115612c5557612c55614757565b8152509050600782604051612c6a9190614ba9565b908152604051602091819003820190208054600180820183555f92835291839020845160069092020180546001600160a01b0319166001600160a01b0390921691909117815591830151839291820190612cc49082614c58565b5060408201516002820190612cd99082614c58565b5060608201516003820190612cee9082614c58565b506080820151816004015560a0820151816005015f6101000a81548160ff02191690836004811115612d2257612d22614757565b02179055505050612d4d84612d35601290565b612d4090600a615012565b61032190620186a0615020565b6001600160a01b038481165f908152600b60209081526040909120835181546001600160a01b03191693169290921782558201518291906001820190612d939082614c58565b5060408201516002820190612da89082614c58565b5060608201516003820190612dbd9082614c58565b506080820151816004015560a0820151816005015f6101000a81548160ff02191690836004811115612df157612df1614757565b0217905550905050836001600160a01b03165f8051602061504b833981519152600484604051612873929190614d65565b6001335f9081526006602052604090205460ff166004811115612e4757612e47614757565b14612e645760405162461bcd60e51b8152600401610a4a90614bc4565b60016001600160a01b0383165f9081526006602052604090205460ff166004811115612e9257612e92614757565b14612ed65760405162461bcd60e51b815260206004820152601460248201527321b932b0ba37b91034b9903737ba1030b236b4b760611b6044820152606401610a4a565b6001600160a01b0381165f908152600660205260409020805460ff19166001179055610e1b816012612f0990600a615012565b6103219062989680615020565b612f1e614335565b6001600160a01b038116612f4757604051631e4fbdf760e01b81525f6004820152602401610a4a565b612f5081614362565b50565b81516020818401810180516007825292820191850191909120919052805482908110612f7d575f80fd5b5f918252602090912060069091020180546001820180546001600160a01b0390921694509192506105c890614b71565b6123fd83838360016143b3565b6001600160a01b038381165f908152600160209081526040808320938616835292905220545f19811461302f578181101561302157604051637dc7a0d960e11b81526001600160a01b03841660048201526024810182905260448101839052606401610a4a565b61302f84848484035f6143b3565b50505050565b6001600160a01b03831661305e57604051634b637e8f60e11b81525f6004820152602401610a4a565b6001600160a01b0382166130875760405163ec442f0560e01b81525f6004820152602401610a4a565b6123fd838383614485565b6001600160a01b0382166130bb57604051634b637e8f60e11b81525f6004820152602401610a4a565b610e1b825f83614485565b6001600160a01b0382166130ef5760405163ec442f0560e01b81525f6004820152602401610a4a565b610e1b5f8383614485565b6001600160a01b0382165f9081526006602052604090205460ff16600281600481111561312957613129614757565b0361334a575f5b6008548110156132de57836001600160a01b03166008828154811061315757613157614d84565b5f9182526020909120600690910201546001600160a01b0316036132cc576008805461318590600190614e1e565b8154811061319557613195614d84565b905f5260205f209060060201600882815481106131b4576131b4614d84565b5f9182526020909120825460069092020180546001600160a01b0319166001600160a01b039092169190911781556001808201906131f490840182614e31565b5060028181019061320790840182614e31565b5060038181019061321a90840182614e31565b5060048281015482820155600580840154908301805460ff90921692909160ff191690600190849081111561325157613251614757565b0217905550905050600880548061326a5761326a614f06565b5f8281526020812060065f199093019283020180546001600160a01b03191681559061329960018301826145f7565b6132a6600283015f6145f7565b6132b3600383015f6145f7565b505f6004820155600501805460ff1916905590556132de565b806132d681614f1a565b915050613130565b50826001600160a01b0316600a836040516132f99190614ba9565b908152604051908190036020019020546001600160a01b03160361334557600a826040516133279190614ba9565b90815260405190819003602001902080546001600160a01b03191690555b6138da565b600381600481111561335e5761335e614757565b0361366457826001600160a01b031660098360405161337d9190614ba9565b908152604051908190036020019020546001600160a01b031603613403576009826040516133ab9190614ba9565b90815260405190819003602001902080546001600160a01b03191681555f6133d660018301826145f7565b6133e3600283015f6145f7565b6133f0600383015f6145f7565b505f6004820155600501805460ff191690555b5f5b6007836040516134159190614ba9565b9081526040519081900360200190205481101561365e57836001600160a01b03166007846040516134469190614ba9565b9081526020016040518091039020828154811061346557613465614d84565b5f9182526020909120600690910201546001600160a01b03160361364c576007836040516134939190614ba9565b908152602001604051809103902060016007856040516134b39190614ba9565b908152604051908190036020019020546134cd9190614e1e565b815481106134dd576134dd614d84565b905f5260205f2090600602016007846040516134f99190614ba9565b9081526020016040518091039020828154811061351857613518614d84565b5f9182526020909120825460069092020180546001600160a01b0319166001600160a01b0390921691909117815560018082019061355890840182614e31565b5060028181019061356b90840182614e31565b5060038181019061357e90840182614e31565b5060048281015482820155600580840154908301805460ff90921692909160ff19169060019084908111156135b5576135b5614757565b02179055509050506007836040516135cd9190614ba9565b90815260200160405180910390208054806135ea576135ea614f06565b5f8281526020812060065f199093019283020180546001600160a01b03191681559061361960018301826145f7565b613626600283015f6145f7565b613633600383015f6145f7565b505f6004820155600501805460ff19169055905561365e565b8061365681614f1a565b915050613405565b506138da565b600481600481111561367857613678614757565b036138da575f5b60078360405161368f9190614ba9565b908152604051908190036020019020548110156138d857836001600160a01b03166007846040516136c09190614ba9565b908152602001604051809103902082815481106136df576136df614d84565b5f9182526020909120600690910201546001600160a01b0316036138c65760078360405161370d9190614ba9565b9081526020016040518091039020600160078560405161372d9190614ba9565b908152604051908190036020019020546137479190614e1e565b8154811061375757613757614d84565b905f5260205f2090600602016007846040516137739190614ba9565b9081526020016040518091039020828154811061379257613792614d84565b5f9182526020909120825460069092020180546001600160a01b0319166001600160a01b039092169190911781556001808201906137d290840182614e31565b506002818101906137e590840182614e31565b506003818101906137f890840182614e31565b5060048281015482820155600580840154908301805460ff90921692909160ff191690600190849081111561382f5761382f614757565b02179055509050506007836040516138479190614ba9565b908152602001604051809103902080548061386457613864614f06565b5f8281526020812060065f199093019283020180546001600160a01b03191681559061389360018301826145f7565b6138a0600283015f6145f7565b6138ad600383015f6145f7565b505f6004820155600501805460ff1916905590556138d8565b806138d081614f1a565b91505061367f565b505b50506001600160a01b03165f908152600660205260409020805460ff19169055565b600281600481111561391057613910614757565b03613bc0576040805160c0810182526001600160a01b0385168082525f908152600b602090815292902060010180546008938301919061394f90614b71565b80601f016020809104026020016040519081016040528092919081815260200182805461397b90614b71565b80156139c65780601f1061399d576101008083540402835291602001916139c6565b820191905f5260205f20905b8154815290600101906020018083116139a957829003601f168201915b50505050508152602001848152602001600b5f876001600160a01b03166001600160a01b031681526020019081526020015f206003018054613a0790614b71565b80601f0160208091040260200160405190810160405280929190818152602001828054613a3390614b71565b8015613a7e5780601f10613a5557610100808354040283529160200191613a7e565b820191905f5260205f20905b815481529060010190602001808311613a6157829003601f168201915b50505050508152602001600b5f876001600160a01b03166001600160a01b031681526020019081526020015f20600401548152602001836004811115613ac657613ac6614757565b90528154600180820184555f938452602093849020835160069093020180546001600160a01b0319166001600160a01b03909316929092178255928201519192909190820190613b169082614c58565b5060408201516002820190613b2b9082614c58565b5060608201516003820190613b409082614c58565b506080820151816004015560a0820151816005015f6101000a81548160ff02191690836004811115613b7457613b74614757565b0217905550505082600a83604051613b8c9190614ba9565b90815260405190819003602001902080546001600160a01b03929092166001600160a01b0319909216919091179055505050565b6003816004811115613bd457613bd4614757565b036140ec57600782604051613be99190614ba9565b90815260200160405180910390206040518060c00160405280856001600160a01b03168152602001600b5f876001600160a01b03166001600160a01b031681526020019081526020015f206001018054613c4290614b71565b80601f0160208091040260200160405190810160405280929190818152602001828054613c6e90614b71565b8015613cb95780601f10613c9057610100808354040283529160200191613cb9565b820191905f5260205f20905b815481529060010190602001808311613c9c57829003601f168201915b50505050508152602001848152602001600b5f876001600160a01b03166001600160a01b031681526020019081526020015f206003018054613cfa90614b71565b80601f0160208091040260200160405190810160405280929190818152602001828054613d2690614b71565b8015613d715780601f10613d4857610100808354040283529160200191613d71565b820191905f5260205f20905b815481529060010190602001808311613d5457829003601f168201915b50505050508152602001600b5f876001600160a01b03166001600160a01b031681526020019081526020015f20600401548152602001836004811115613db957613db9614757565b90528154600180820184555f938452602093849020835160069093020180546001600160a01b0319166001600160a01b03909316929092178255928201519192909190820190613e099082614c58565b5060408201516002820190613e1e9082614c58565b5060608201516003820190613e339082614c58565b506080820151816004015560a0820151816005015f6101000a81548160ff02191690836004811115613e6757613e67614757565b021790555050506040518060c00160405280846001600160a01b03168152602001600b5f866001600160a01b03166001600160a01b031681526020019081526020015f206001018054613eb990614b71565b80601f0160208091040260200160405190810160405280929190818152602001828054613ee590614b71565b8015613f305780601f10613f0757610100808354040283529160200191613f30565b820191905f5260205f20905b815481529060010190602001808311613f1357829003601f168201915b50505050508152602001838152602001600b5f866001600160a01b03166001600160a01b031681526020019081526020015f206003018054613f7190614b71565b80601f0160208091040260200160405190810160405280929190818152602001828054613f9d90614b71565b8015613fe85780601f10613fbf57610100808354040283529160200191613fe8565b820191905f5260205f20905b815481529060010190602001808311613fcb57829003601f168201915b50505050508152602001600b5f866001600160a01b03166001600160a01b031681526020019081526020015f2060040154815260200182600481111561403057614030614757565b8152506009836040516140439190614ba9565b90815260405160209181900382019020825181546001600160a01b0319166001600160a01b039091161781559082015160018201906140829082614c58565b50604082015160028201906140979082614c58565b50606082015160038201906140ac9082614c58565b506080820151816004015560a0820151816005015f6101000a81548160ff021916908360048111156140e0576140e0614757565b02179055505050505050565b600481600481111561410057614100614757565b036123fd576007826040516141159190614ba9565b90815260200160405180910390206040518060c00160405280856001600160a01b03168152602001600b5f876001600160a01b03166001600160a01b031681526020019081526020015f20600101805461416e90614b71565b80601f016020809104026020016040519081016040528092919081815260200182805461419a90614b71565b80156141e55780601f106141bc576101008083540402835291602001916141e5565b820191905f5260205f20905b8154815290600101906020018083116141c857829003601f168201915b50505050508152602001848152602001600b5f876001600160a01b03166001600160a01b031681526020019081526020015f20600301805461422690614b71565b80601f016020809104026020016040519081016040528092919081815260200182805461425290614b71565b801561429d5780601f106142745761010080835404028352916020019161429d565b820191905f5260205f20905b81548152906001019060200180831161428057829003601f168201915b50505050508152602001600b5f876001600160a01b03166001600160a01b031681526020019081526020015f206004015481526020018360048111156142e5576142e5614757565b90528154600180820184555f938452602093849020835160069093020180546001600160a01b0319166001600160a01b039093169290921782559282015191929091908201906140829082614c58565b6005546001600160a01b0316331461141f5760405163118cdaa760e01b8152336004820152602401610a4a565b600580546001600160a01b038381166001600160a01b0319831681179093556040519116919082907f8be0079c531659141344cd1fd0a4f28419497f9722a3daafe3b4186f6b6457e0905f90a35050565b6001600160a01b0384166143dc5760405163e602df0560e01b81525f6004820152602401610a4a565b6001600160a01b03831661440557604051634a1406b160e11b81525f6004820152602401610a4a565b6001600160a01b038085165f908152600160209081526040808320938716835292905220829055801561302f57826001600160a01b0316846001600160a01b03167f8c5be1e5ebec7d5bd14f71427d1e84f3dd0314c0f7b2291e5b200ac8c7c3b9258460405161447791815260200190565b60405180910390a350505050565b6001600160a01b0383166144af578060025f8282546144a49190615037565b9091555061451f9050565b6001600160a01b0383165f90815260208190526040902054818110156145015760405163391434e360e21b81526001600160a01b03851660048201526024810182905260448101839052606401610a4a565b6001600160a01b0384165f9081526020819052604090209082900390555b6001600160a01b03821661453b57600280548290039055614559565b6001600160a01b0382165f9081526020819052604090208054820190555b816001600160a01b0316836001600160a01b03167fddf252ad1be2c89b69c2b068fc378daa952ba7f163c4a11628f55a4df523b3ef8360405161459e91815260200190565b60405180910390a3505050565b6040518060c001604052805f6001600160a01b031681526020016060815260200160608152602001606081526020015f81526020015f60048111156145f2576145f2614757565b905290565b50805461460390614b71565b5f825580601f10614612575050565b601f0160209004905f5260205f2090810190612f50919061464c565b5080545f8255600602905f5260205f2090810190612f509190614664565b5b80821115614660575f815560010161464d565b5090565b808211156146605780546001600160a01b03191681555f61468860018301826145f7565b614695600283015f6145f7565b6146a2600383015f6145f7565b505f600482015560058101805460ff19169055600601614664565b5f5b838110156146d75781810151838201526020016146bf565b50505f910152565b5f81518084526146f68160208601602086016146bd565b601f01601f19169290920160200192915050565b602081525f61471c60208301846146df565b9392505050565b80356001600160a01b0381168114614739575f80fd5b919050565b5f6020828403121561474e575f80fd5b61471c82614723565b634e487b7160e01b5f52602160045260245ffd5b6005811061478757634e487b7160e01b5f52602160045260245ffd5b9052565b6001600160a01b038716815260c0602082018190525f906147ae908301886146df565b82810360408401526147c081886146df565b905082810360608401526147d481876146df565b9150508360808301526147ea60a083018461476b565b979650505050505050565b5f8060408385031215614806575f80fd5b61480f83614723565b946020939093013593505050565b634e487b7160e01b5f52604160045260245ffd5b5f82601f830112614840575f80fd5b813567ffffffffffffffff8082111561485b5761485b61481d565b604051601f8301601f19908116603f011681019082821181831017156148835761488361481d565b8160405283815286602085880101111561489b575f80fd5b836020870160208301375f602085830101528094505050505092915050565b5f602082840312156148ca575f80fd5b813567ffffffffffffffff8111156148e0575f80fd5b6148ec84828501614831565b949350505050565b60018060a01b0381511682525f602082015160c0602085015261491a60c08501826146df565b90506040830151848203604086015261493382826146df565b9150506060830151848203606086015261494d82826146df565b9150506080830151608085015260a083015161496c60a086018261476b565b509392505050565b5f602080830181845280855180835260408601915060408160051b87010192508387015f5b828110156149c757603f198886030184526149b58583516148f4565b94509285019290850190600101614999565b5092979650505050505050565b5f80604083850312156149e5575f80fd5b6149ee83614723565b9150602083013567ffffffffffffffff811115614a09575f80fd5b614a1585828601614831565b9150509250929050565b5f805f60608486031215614a31575f80fd5b614a3a84614723565b9250614a4860208501614723565b9150604084013590509250925092565b602081525f61471c60208301846148f4565b60208101610784828461476b565b5f8060408385031215614a89575f80fd5b614a9283614723565b9150614aa060208401614723565b90509250929050565b5f60208284031215614ab9575f80fd5b5035919050565b5f805f60608486031215614ad2575f80fd5b614adb84614723565b9250602084013567ffffffffffffffff80821115614af7575f80fd5b614b0387838801614831565b93506040860135915080821115614b18575f80fd5b50614b2586828701614831565b9150509250925092565b5f8060408385031215614b40575f80fd5b823567ffffffffffffffff811115614b56575f80fd5b614b6285828601614831565b95602094909401359450505050565b600181811c90821680614b8557607f821691505b602082108103614ba357634e487b7160e01b5f52602260045260245ffd5b50919050565b5f8251614bba8184602087016146bd565b9190910192915050565b60208082526027908201527f4163636573732064656e6965643a204e6f7420616e2041646d696e202d20526f6040820152663632aa37b5b2b760c91b606082015260800190565b601f8211156123fd575f81815260208120601f850160051c81016020861015614c315750805b601f850160051c820191505b81811015614c5057828155600101614c3d565b505050505050565b815167ffffffffffffffff811115614c7257614c7261481d565b614c8681614c808454614b71565b84614c0b565b602080601f831160018114614cb9575f8415614ca25750858301515b5f19600386901b1c1916600185901b178555614c50565b5f85815260208120601f198616915b82811015614ce757888601518255948401946001909101908401614cc8565b5085821015614d0457878501515f19600388901b60f8161c191681555b5050505050600190811b01905550565b60208082526031908201527f4163636573732064656e6965643a204e6f7420616e2041646d696e206f7220506040820152701c9a5b585c9e4811dc9bdd5c0812195859607a1b606082015260800190565b614d6f818461476b565b604060208201525f6148ec60408301846146df565b634e487b7160e01b5f52603260045260245ffd5b5f808354614da581614b71565b60018281168015614dbd5760018114614dd257614dfe565b60ff1984168752821515830287019450614dfe565b875f526020805f205f5b85811015614df55781548a820152908401908201614ddc565b50505082870194505b50929695505050505050565b634e487b7160e01b5f52601160045260245ffd5b8181038181111561078457610784614e0a565b818103614e3c575050565b614e468254614b71565b67ffffffffffffffff811115614e5e57614e5e61481d565b614e6c81614c808454614b71565b5f601f821160018114614e9d575f8315614e865750848201545b5f19600385901b1c1916600184901b178455614eff565b5f85815260209020601f198416905f86815260209020845b83811015614ed55782860154825560019586019590910190602001614eb5565b5085831015614ef257818501545f19600388901b60f8161c191681555b50505060018360011b0184555b5050505050565b634e487b7160e01b5f52603160045260245ffd5b5f60018201614f2b57614f2b614e0a565b5060010190565b600181815b80851115614f6c57815f1904821115614f5257614f52614e0a565b80851615614f5f57918102915b93841c9390800290614f37565b509250929050565b5f82614f8257506001610784565b81614f8e57505f610784565b8160018114614fa45760028114614fae57614fca565b6001915050610784565b60ff841115614fbf57614fbf614e0a565b50506001821b610784565b5060208310610133831016604e8410600b8410161715614fed575081810a610784565b614ff78383614f32565b805f190482111561500a5761500a614e0a565b029392505050565b5f61471c60ff841683614f74565b808202811582820484141761078457610784614e0a565b8082018082111561078457610784614e0a56fe6f9e8382effc1f2659a04b480fc00e03e9ea704a05c90d74db22a5fb12ee46afa26469706673582212205173cc82e9fea2341275049fd717bf0fda532b6ac2ed653b858bd5ee36aa82a164736f6c63430008150033",
  "immutableReferences": {},
  "source": "// SPDX-License-Identifier: MIT\r\npragma solidity ^0.8.0;\r\n\r\nimport \"@openzeppelin/contracts/token/ERC20/ERC20.sol\";\r\nimport \"@openzeppelin/contracts/access/Ownable.sol\";\r\n\r\ncontract RoleToken is ERC20, Ownable {\r\n    bool public contractEnabled = true;\r\n\r\n    enum Role { NONE, ADMIN, PRIMARY_GROUP_HEAD, SECONDARY_GROUP_HEAD, REGULAR_MEMBER }\r\n    mapping(address => Role) private roles;\r\n\r\n    struct Member {\r\n        address memberAddress;\r\n        string name;\r\n        string memberType;\r\n        string status; // benign, suspicious, malicious\r\n        uint256 lastStatusUpdate; // Timestamp of the last status update\r\n        Role role;\r\n    }\r\n\r\n    mapping(string => Member[]) public localResourceTable; // Maps type to their regular members and secondary group heads\r\n    Member[] public globalResourceTable; // List of all primary heads\r\n    mapping(string => Member) public typeSecondaryHead; // Maps type to their secondary group heads\r\n    mapping(string => address) public typePrimaryHead; // Stores the address of the primary head for each type\r\n    mapping(address => Member) public members; // keep all members' information\r\n\r\n    event RoleAssigned(address indexed memberAddress, Role role, string memberType);\r\n\r\n    constructor(address initialAdmin) ERC20(\"RoleToken\", \"RTK\") Ownable(initialAdmin) {\r\n        _mint(initialAdmin, 10000000 * 10 ** decimals());\r\n        transferOwnership(initialAdmin);\r\n        roles[initialAdmin] = Role.ADMIN;\r\n    }\r\n\r\n    modifier onlyAdmin() {\r\n        require(roles[msg.sender] == Role.ADMIN, \"Access denied: Not an Admin - RoleToken\");\r\n        _;\r\n    }\r\n\r\n    modifier onlyPrimaryGroupHeadOrAdmin() {\r\n        require(roles[msg.sender] == Role.ADMIN || roles[msg.sender] == Role.PRIMARY_GROUP_HEAD, \"Access denied: Not an Admin or Primary Group Head\");\r\n        _;\r\n    }\r\n\r\n    function mint(address to, uint256 amount) public onlyPrimaryGroupHeadOrAdmin {\r\n        require(contractEnabled, \"Contract is disabled\");\r\n        _mint(to, amount);\r\n    }\r\n\r\n    function assignAdminRole(address deployer, address contractAddress) public onlyAdmin {\r\n        require(roles[deployer] == Role.ADMIN, \"Creator is not admin\");\r\n        roles[contractAddress] = Role.ADMIN;\r\n        mint(contractAddress, 10000000 * 10 ** decimals());\r\n    }\r\n\r\n    function disableContract() public onlyAdmin {\r\n        require(contractEnabled, \"Contract is already disabled\");\r\n        contractEnabled = false;\r\n    }\r\n\r\n    function enableContract() public onlyAdmin {\r\n        require(!contractEnabled, \"Contract is already enabled\");\r\n        contractEnabled = true;\r\n    }\r\n\r\n    function assignRole(address _memberAddress, string memory _name, string memory _memberType) external {\r\n        require(roles[_memberAddress] == Role(0), \"Member already has a role\");\r\n\r\n        if (typePrimaryHead[_memberType] == address(0)) {\r\n            // If no primary head exists for this type, assign as PRIMARY_GROUP_HEAD\r\n            roles[_memberAddress] = Role.PRIMARY_GROUP_HEAD;\r\n            Member memory newPrimaryHead = Member(_memberAddress, _name, _memberType, \"BENIGN\", block.timestamp, Role.PRIMARY_GROUP_HEAD);\r\n            globalResourceTable.push(newPrimaryHead); // Add to global resource table\r\n            typePrimaryHead[_memberType] = _memberAddress; // Store the primary head's address for this type\r\n            mint(_memberAddress, 1000000 * 10 ** decimals()); // Mint tokens for PRIMARY_GROUP_HEAD\r\n            members[_memberAddress] = newPrimaryHead; // Update members mapping\r\n            emit RoleAssigned(_memberAddress, Role.PRIMARY_GROUP_HEAD, _memberType);\r\n        }\r\n        else if (typeSecondaryHead[_memberType].memberAddress == address(0)) {\r\n            // Assign as SECONDARY_GROUP_HEAD if no secondary group heads exist for this type\r\n            roles[_memberAddress] = Role.SECONDARY_GROUP_HEAD;\r\n            Member memory newSecondaryHead = Member(_memberAddress, _name, _memberType, \"BENIGN\", block.timestamp, Role.SECONDARY_GROUP_HEAD);\r\n            localResourceTable[_memberType].push(newSecondaryHead); // Add to local resource table\r\n            typeSecondaryHead[_memberType] = newSecondaryHead; // Set to secondary group heads mapping\r\n            mint(_memberAddress, 500000 * 10 ** decimals()); // Mint tokens for SECONDARY_GROUP_HEAD\r\n            members[_memberAddress] = newSecondaryHead; // Update members mapping\r\n            emit RoleAssigned(_memberAddress, Role.SECONDARY_GROUP_HEAD, _memberType);\r\n        } else {\r\n            // Otherwise, assign as REGULAR_MEMBER under the existing primary head\r\n            roles[_memberAddress] = Role.REGULAR_MEMBER;\r\n            Member memory newMember = Member(_memberAddress, _name, _memberType, \"BENIGN\", block.timestamp, Role.REGULAR_MEMBER);\r\n            localResourceTable[_memberType].push(newMember); // Add to local resource table\r\n            mint(_memberAddress, 100000 * 10 ** decimals()); // Mint tokens for REGULAR_MEMBER\r\n            members[_memberAddress] = newMember; // Update members mapping\r\n            emit RoleAssigned(_memberAddress, Role.REGULAR_MEMBER, _memberType);\r\n        }\r\n    }\r\n\r\n    function swapRole(address account1, address account2) public onlyPrimaryGroupHeadOrAdmin {\r\n        require(roles[account1] != Role.NONE && roles[account2] != Role.NONE, \"Both accounts must have roles\");\r\n        require(roles[account1] != roles[account2], \"Accounts must have different roles\");\r\n\r\n        // Retrieve the current roles and member types\r\n        Role role1 = roles[account1];\r\n        Role role2 = roles[account2];\r\n        string memory memberType1 = members[account1].memberType;\r\n        string memory memberType2 = members[account2].memberType;\r\n\r\n        // Ensure both accounts are in the same member type\r\n        require(keccak256(bytes(memberType1)) == keccak256(bytes(memberType2)), \"Accounts must be in the same member type\");\r\n\r\n        // Remove account1's role\r\n        removeRoleFromMappings(account1, memberType1);\r\n\r\n        // Remove account2's role\r\n        removeRoleFromMappings(account2, memberType2);\r\n\r\n        // Swap roles\r\n        roles[account1] = role2;\r\n        roles[account2] = role1;\r\n\r\n        // Update account1's and account2's member information\r\n        members[account1].role = role2;\r\n        members[account2].role = role1;\r\n\r\n        // Add account1's new role\r\n        assignRoleToMappings(account1, memberType2, role2);\r\n\r\n        // Add account2's new role\r\n        assignRoleToMappings(account2, memberType1, role1);\r\n\r\n        emit RoleAssigned(account1, role2, memberType2);\r\n        emit RoleAssigned(account2, role1, memberType1);\r\n    }\r\n\r\n    function removeRoleFromMappings(address account, string memory memberType) internal {\r\n        Role role = roles[account];\r\n        if (role == Role.PRIMARY_GROUP_HEAD) {\r\n            // Remove from global resource table and typePrimaryHead\r\n            for (uint256 i = 0; i < globalResourceTable.length; i++) {\r\n                if (globalResourceTable[i].memberAddress == account) {\r\n                    globalResourceTable[i] = globalResourceTable[globalResourceTable.length - 1];\r\n                    globalResourceTable.pop();\r\n                    break;\r\n                }\r\n            }\r\n            if (typePrimaryHead[memberType] == account) {\r\n                delete typePrimaryHead[memberType];\r\n            }\r\n        } else if (role == Role.SECONDARY_GROUP_HEAD) {\r\n            if (typeSecondaryHead[memberType].memberAddress == account) {\r\n                delete typeSecondaryHead[memberType];\r\n            }\r\n\r\n            // Remove from local resource table\r\n            for (uint256 i = 0; i < localResourceTable[memberType].length; i++) {\r\n                if (localResourceTable[memberType][i].memberAddress == account) {\r\n                    localResourceTable[memberType][i] = localResourceTable[memberType][localResourceTable[memberType].length - 1];\r\n                    localResourceTable[memberType].pop();\r\n                    break;\r\n                }\r\n            }\r\n        } else if (role == Role.REGULAR_MEMBER) {\r\n            for (uint256 i = 0; i < localResourceTable[memberType].length; i++) {\r\n                if (localResourceTable[memberType][i].memberAddress == account) {\r\n                    localResourceTable[memberType][i] = localResourceTable[memberType][localResourceTable[memberType].length - 1];\r\n                    localResourceTable[memberType].pop();\r\n                    break;\r\n                }\r\n            }\r\n        }\r\n        delete roles[account];\r\n    }\r\n\r\n    function assignRoleToMappings(address account, string memory memberType, Role role) internal {\r\n        if (role == Role.PRIMARY_GROUP_HEAD) {\r\n            globalResourceTable.push(Member(account, members[account].name, memberType, members[account].status, members[account].lastStatusUpdate, role));\r\n            typePrimaryHead[memberType] = account;\r\n        } else if (role == Role.SECONDARY_GROUP_HEAD) {\r\n            localResourceTable[memberType].push(Member(account, members[account].name, memberType, members[account].status, members[account].lastStatusUpdate, role));\r\n            typeSecondaryHead[memberType] = Member(account, members[account].name, memberType, members[account].status, members[account].lastStatusUpdate, role);\r\n        } else if (role == Role.REGULAR_MEMBER) {\r\n            localResourceTable[memberType].push(Member(account, members[account].name, memberType, members[account].status, members[account].lastStatusUpdate, role));\r\n        }\r\n    }\r\n\r\n    function revokeRole(address account) public onlyPrimaryGroupHeadOrAdmin {\r\n        // Ensure the account has a role before revoking\r\n        Role role = roles[account];\r\n        require(role == Role.PRIMARY_GROUP_HEAD || role == Role.SECONDARY_GROUP_HEAD || role == Role.REGULAR_MEMBER, \"Account does not have a role\");\r\n        \r\n        // Get the member type from the members mapping\r\n        string memory memberType = members[account].memberType;\r\n\r\n        // Handle role-specific logic\r\n        if (role == Role.PRIMARY_GROUP_HEAD) {\r\n            // Check the number of members in the localResourceTable\r\n            require(localResourceTable[memberType].length == 0, \"Local resource table must be empty\");\r\n\r\n            // Remove from the global resource table\r\n            for (uint256 i = 0; i < globalResourceTable.length; i++) {\r\n                if (globalResourceTable[i].memberAddress == account && keccak256(abi.encodePacked(globalResourceTable[i].memberType)) == keccak256(abi.encodePacked(memberType))) {\r\n                    globalResourceTable[i] = globalResourceTable[globalResourceTable.length - 1];\r\n                    globalResourceTable.pop();\r\n                    break;\r\n                }\r\n            }\r\n            \r\n            // Remove the primary head type association\r\n            delete typePrimaryHead[memberType];\r\n            \r\n        } else if (role == Role.SECONDARY_GROUP_HEAD) {\r\n            // Check the number of members in the localResourceTable\r\n            require(localResourceTable[memberType].length == 1, \"Local resource table must have exactly one member(secondary group head)\");\r\n\r\n            // Remove from the secondary group heads\r\n            if (typeSecondaryHead[memberType].memberAddress == account) {\r\n                // Remove the secondary group head\r\n                delete typeSecondaryHead[memberType];\r\n                \r\n                // Clear the local resource table for this type\r\n                delete localResourceTable[memberType];\r\n            }\r\n            \r\n        } else if (role == Role.REGULAR_MEMBER) {\r\n            // Check the number of members in the localResourceTable\r\n            require(localResourceTable[memberType].length > 1, \"Local resource table must have more than one member\");\r\n\r\n            // Remove from the local resource table of its primary head\r\n            for (uint256 i = 0; i < localResourceTable[memberType].length; i++) {\r\n                if (localResourceTable[memberType][i].memberAddress == account) {\r\n                    localResourceTable[memberType][i] = localResourceTable[memberType][localResourceTable[memberType].length - 1];\r\n                    localResourceTable[memberType].pop();\r\n                    break;\r\n                }\r\n            }\r\n        }\r\n\r\n        // Remove the role from the roles mapping and set it to NONE\r\n        roles[account] = Role.NONE;\r\n        \r\n        // Remove from the members mapping\r\n        delete members[account];\r\n        \r\n        // Handle token burning if required\r\n        _burn(account, balanceOf(account));\r\n    }\r\n\r\n    function getRole(address account) public view returns (Role) {\r\n        return roles[account];\r\n    }\r\n\r\n    function getLocalResourceTable(string memory memberType) external view returns (Member[] memory) {\r\n        return localResourceTable[memberType];\r\n    }\r\n\r\n    function getGlobalResourceTable() external view onlyPrimaryGroupHeadOrAdmin returns (Member[] memory) {\r\n        return globalResourceTable;\r\n    }\r\n\r\n    // Function to get the Member struct for a specific address\r\n    function getMember(address _memberAddress) public view returns (Member memory) {\r\n        return members[_memberAddress];\r\n    }\r\n\r\n    function updateMemberStatus(address _memberAddress, string memory _newStatus) external onlyAdmin {\r\n        members[_memberAddress].status = _newStatus;\r\n        members[_memberAddress].lastStatusUpdate = block.timestamp;\r\n    }\r\n\r\n    function penalizeMember(address _memberAddress, uint256 _amount) external onlyAdmin {\r\n        _burn(_memberAddress, _amount);\r\n    }\r\n\r\n    function rewardMember(address _memberAddress, uint256 _amount) external onlyAdmin {\r\n        _mint(_memberAddress, _amount);\r\n    }\r\n\r\n    // Function to get the address of the primary head for a regular member\r\n    function getPrimaryHeadAddress(address memberAddress) public view returns (address) {\r\n        Member memory member = members[memberAddress];\r\n    \r\n        // Ensure the provided address is either a regular member or a secondary group head\r\n        require(member.role == Role.REGULAR_MEMBER || member.role == Role.SECONDARY_GROUP_HEAD, \"Address does not have a valid role\");\r\n\r\n        // Retrieve the primary head associated with the member's type\r\n        address primaryHead = typePrimaryHead[member.memberType];\r\n        \r\n        return primaryHead;\r\n    }\r\n}",
  "sourcePath": "D:\\Desktop\\Dersler\\2024\\thesis\\Contracts\\contracts_v2 - test\\contracts\\RoleToken.sol",
  "compiler": {
    "name": "solc",
    "version": "0.8.21+commit.d9974bed.Emscripten.clang"
  },
  "schemaVersion": "3.4.16",
  "updatedAt": "2024-10-04T16:40:00.197Z",
  "devdoc": {
    "errors": {
      "ERC20InsufficientAllowance(address,uint256,uint256)": [
        {
          "details": "Indicates a failure with the `spender`s `allowance`. Used in transfers.",
          "params": {
            "allowance": "Amount of tokens a `spender` is allowed to operate with.",
            "needed": "Minimum amount required to perform a transfer.",
            "spender": "Address that may be allowed to operate on tokens without being their owner."
          }
        }
      ],
      "ERC20InsufficientBalance(address,uint256,uint256)": [
        {
          "details": "Indicates an error related to the current `balance` of a `sender`. Used in transfers.",
          "params": {
            "balance": "Current balance for the interacting account.",
            "needed": "Minimum amount required to perform a transfer.",
            "sender": "Address whose tokens are being transferred."
          }
        }
      ],
      "ERC20InvalidApprover(address)": [
        {
          "details": "Indicates a failure with the `approver` of a token to be approved. Used in approvals.",
          "params": {
            "approver": "Address initiating an approval operation."
          }
        }
      ],
      "ERC20InvalidReceiver(address)": [
        {
          "details": "Indicates a failure with the token `receiver`. Used in transfers.",
          "params": {
            "receiver": "Address to which tokens are being transferred."
          }
        }
      ],
      "ERC20InvalidSender(address)": [
        {
          "details": "Indicates a failure with the token `sender`. Used in transfers.",
          "params": {
            "sender": "Address whose tokens are being transferred."
          }
        }
      ],
      "ERC20InvalidSpender(address)": [
        {
          "details": "Indicates a failure with the `spender` to be approved. Used in approvals.",
          "params": {
            "spender": "Address that may be allowed to operate on tokens without being their owner."
          }
        }
      ],
      "OwnableInvalidOwner(address)": [
        {
          "details": "The owner is not a valid owner account. (eg. `address(0)`)"
        }
      ],
      "OwnableUnauthorizedAccount(address)": [
        {
          "details": "The caller account is not authorized to perform an operation."
        }
      ]
    },
    "events": {
      "Approval(address,address,uint256)": {
        "details": "Emitted when the allowance of a `spender` for an `owner` is set by a call to {approve}. `value` is the new allowance."
      },
      "Transfer(address,address,uint256)": {
        "details": "Emitted when `value` tokens are moved from one account (`from`) to another (`to`). Note that `value` may be zero."
      }
    },
    "kind": "dev",
    "methods": {
      "allowance(address,address)": {
        "details": "See {IERC20-allowance}."
      },
      "approve(address,uint256)": {
        "details": "See {IERC20-approve}. NOTE: If `value` is the maximum `uint256`, the allowance is not updated on `transferFrom`. This is semantically equivalent to an infinite approval. Requirements: - `spender` cannot be the zero address."
      },
      "balanceOf(address)": {
        "details": "See {IERC20-balanceOf}."
      },
      "decimals()": {
        "details": "Returns the number of decimals used to get its user representation. For example, if `decimals` equals `2`, a balance of `505` tokens should be displayed to a user as `5.05` (`505 / 10 ** 2`). Tokens usually opt for a value of 18, imitating the relationship between Ether and Wei. This is the default value returned by this function, unless it's overridden. NOTE: This information is only used for _display_ purposes: it in no way affects any of the arithmetic of the contract, including {IERC20-balanceOf} and {IERC20-transfer}."
      },
      "name()": {
        "details": "Returns the name of the token."
      },
      "owner()": {
        "details": "Returns the address of the current owner."
      },
      "renounceOwnership()": {
        "details": "Leaves the contract without owner. It will not be possible to call `onlyOwner` functions. Can only be called by the current owner. NOTE: Renouncing ownership will leave the contract without an owner, thereby disabling any functionality that is only available to the owner."
      },
      "symbol()": {
        "details": "Returns the symbol of the token, usually a shorter version of the name."
      },
      "totalSupply()": {
        "details": "See {IERC20-totalSupply}."
      },
      "transfer(address,uint256)": {
        "details": "See {IERC20-transfer}. Requirements: - `to` cannot be the zero address. - the caller must have a balance of at least `value`."
      },
      "transferFrom(address,address,uint256)": {
        "details": "See {IERC20-transferFrom}. Emits an {Approval} event indicating the updated allowance. This is not required by the EIP. See the note at the beginning of {ERC20}. NOTE: Does not update the allowance if the current allowance is the maximum `uint256`. Requirements: - `from` and `to` cannot be the zero address. - `from` must have a balance of at least `value`. - the caller must have allowance for ``from``'s tokens of at least `value`."
      },
      "transferOwnership(address)": {
        "details": "Transfers ownership of the contract to a new account (`newOwner`). Can only be called by the current owner."
      }
    },
    "version": 1
  },
  "userdoc": {
    "kind": "user",
    "methods": {},
    "version": 1
  }
}