{
  "contractName": "RoleToken",
  "abi": [
    {
      "inputs": [
        {
          "internalType": "address",
          "name": "initialAdmin",
          "type": "address"
        }
      ],
      "stateMutability": "nonpayable",
      "type": "constructor"
    },
    {
      "inputs": [
        {
          "internalType": "address",
          "name": "spender",
          "type": "address"
        },
        {
          "internalType": "uint256",
          "name": "allowance",
          "type": "uint256"
        },
        {
          "internalType": "uint256",
          "name": "needed",
          "type": "uint256"
        }
      ],
      "name": "ERC20InsufficientAllowance",
      "type": "error"
    },
    {
      "inputs": [
        {
          "internalType": "address",
          "name": "sender",
          "type": "address"
        },
        {
          "internalType": "uint256",
          "name": "balance",
          "type": "uint256"
        },
        {
          "internalType": "uint256",
          "name": "needed",
          "type": "uint256"
        }
      ],
      "name": "ERC20InsufficientBalance",
      "type": "error"
    },
    {
      "inputs": [
        {
          "internalType": "address",
          "name": "approver",
          "type": "address"
        }
      ],
      "name": "ERC20InvalidApprover",
      "type": "error"
    },
    {
      "inputs": [
        {
          "internalType": "address",
          "name": "receiver",
          "type": "address"
        }
      ],
      "name": "ERC20InvalidReceiver",
      "type": "error"
    },
    {
      "inputs": [
        {
          "internalType": "address",
          "name": "sender",
          "type": "address"
        }
      ],
      "name": "ERC20InvalidSender",
      "type": "error"
    },
    {
      "inputs": [
        {
          "internalType": "address",
          "name": "spender",
          "type": "address"
        }
      ],
      "name": "ERC20InvalidSpender",
      "type": "error"
    },
    {
      "inputs": [
        {
          "internalType": "address",
          "name": "owner",
          "type": "address"
        }
      ],
      "name": "OwnableInvalidOwner",
      "type": "error"
    },
    {
      "inputs": [
        {
          "internalType": "address",
          "name": "account",
          "type": "address"
        }
      ],
      "name": "OwnableUnauthorizedAccount",
      "type": "error"
    },
    {
      "anonymous": false,
      "inputs": [
        {
          "indexed": true,
          "internalType": "address",
          "name": "owner",
          "type": "address"
        },
        {
          "indexed": true,
          "internalType": "address",
          "name": "spender",
          "type": "address"
        },
        {
          "indexed": false,
          "internalType": "uint256",
          "name": "value",
          "type": "uint256"
        }
      ],
      "name": "Approval",
      "type": "event"
    },
    {
      "anonymous": false,
      "inputs": [
        {
          "indexed": true,
          "internalType": "address",
          "name": "previousOwner",
          "type": "address"
        },
        {
          "indexed": true,
          "internalType": "address",
          "name": "newOwner",
          "type": "address"
        }
      ],
      "name": "OwnershipTransferred",
      "type": "event"
    },
    {
      "anonymous": false,
      "inputs": [
        {
          "indexed": true,
          "internalType": "address",
          "name": "memberAddress",
          "type": "address"
        },
        {
          "indexed": false,
          "internalType": "enum RoleToken.Role",
          "name": "role",
          "type": "uint8"
        },
        {
          "indexed": false,
          "internalType": "string",
          "name": "memberType",
          "type": "string"
        }
      ],
      "name": "RoleAssigned",
      "type": "event"
    },
    {
      "anonymous": false,
      "inputs": [
        {
          "indexed": true,
          "internalType": "address",
          "name": "from",
          "type": "address"
        },
        {
          "indexed": true,
          "internalType": "address",
          "name": "to",
          "type": "address"
        },
        {
          "indexed": false,
          "internalType": "uint256",
          "name": "value",
          "type": "uint256"
        }
      ],
      "name": "Transfer",
      "type": "event"
    },
    {
      "inputs": [
        {
          "internalType": "address",
          "name": "owner",
          "type": "address"
        },
        {
          "internalType": "address",
          "name": "spender",
          "type": "address"
        }
      ],
      "name": "allowance",
      "outputs": [
        {
          "internalType": "uint256",
          "name": "",
          "type": "uint256"
        }
      ],
      "stateMutability": "view",
      "type": "function"
    },
    {
      "inputs": [
        {
          "internalType": "address",
          "name": "spender",
          "type": "address"
        },
        {
          "internalType": "uint256",
          "name": "value",
          "type": "uint256"
        }
      ],
      "name": "approve",
      "outputs": [
        {
          "internalType": "bool",
          "name": "",
          "type": "bool"
        }
      ],
      "stateMutability": "nonpayable",
      "type": "function"
    },
    {
      "inputs": [
        {
          "internalType": "address",
          "name": "account",
          "type": "address"
        }
      ],
      "name": "balanceOf",
      "outputs": [
        {
          "internalType": "uint256",
          "name": "",
          "type": "uint256"
        }
      ],
      "stateMutability": "view",
      "type": "function"
    },
    {
      "inputs": [],
      "name": "contractEnabled",
      "outputs": [
        {
          "internalType": "bool",
          "name": "",
          "type": "bool"
        }
      ],
      "stateMutability": "view",
      "type": "function"
    },
    {
      "inputs": [],
      "name": "decimals",
      "outputs": [
        {
          "internalType": "uint8",
          "name": "",
          "type": "uint8"
        }
      ],
      "stateMutability": "view",
      "type": "function"
    },
    {
      "inputs": [
        {
          "internalType": "uint256",
          "name": "",
          "type": "uint256"
        }
      ],
      "name": "globalResourceTable",
      "outputs": [
        {
          "internalType": "address",
          "name": "memberAddress",
          "type": "address"
        },
        {
          "internalType": "string",
          "name": "name",
          "type": "string"
        },
        {
          "internalType": "string",
          "name": "memberType",
          "type": "string"
        },
        {
          "internalType": "string",
          "name": "status",
          "type": "string"
        },
        {
          "internalType": "uint256",
          "name": "lastStatusUpdate",
          "type": "uint256"
        },
        {
          "internalType": "enum RoleToken.Role",
          "name": "role",
          "type": "uint8"
        }
      ],
      "stateMutability": "view",
      "type": "function"
    },
    {
      "inputs": [
        {
          "internalType": "string",
          "name": "",
          "type": "string"
        },
        {
          "internalType": "uint256",
          "name": "",
          "type": "uint256"
        }
      ],
      "name": "localResourceTable",
      "outputs": [
        {
          "internalType": "address",
          "name": "memberAddress",
          "type": "address"
        },
        {
          "internalType": "string",
          "name": "name",
          "type": "string"
        },
        {
          "internalType": "string",
          "name": "memberType",
          "type": "string"
        },
        {
          "internalType": "string",
          "name": "status",
          "type": "string"
        },
        {
          "internalType": "uint256",
          "name": "lastStatusUpdate",
          "type": "uint256"
        },
        {
          "internalType": "enum RoleToken.Role",
          "name": "role",
          "type": "uint8"
        }
      ],
      "stateMutability": "view",
      "type": "function"
    },
    {
      "inputs": [
        {
          "internalType": "address",
          "name": "",
          "type": "address"
        }
      ],
      "name": "members",
      "outputs": [
        {
          "internalType": "address",
          "name": "memberAddress",
          "type": "address"
        },
        {
          "internalType": "string",
          "name": "name",
          "type": "string"
        },
        {
          "internalType": "string",
          "name": "memberType",
          "type": "string"
        },
        {
          "internalType": "string",
          "name": "status",
          "type": "string"
        },
        {
          "internalType": "uint256",
          "name": "lastStatusUpdate",
          "type": "uint256"
        },
        {
          "internalType": "enum RoleToken.Role",
          "name": "role",
          "type": "uint8"
        }
      ],
      "stateMutability": "view",
      "type": "function"
    },
    {
      "inputs": [],
      "name": "name",
      "outputs": [
        {
          "internalType": "string",
          "name": "",
          "type": "string"
        }
      ],
      "stateMutability": "view",
      "type": "function"
    },
    {
      "inputs": [],
      "name": "owner",
      "outputs": [
        {
          "internalType": "address",
          "name": "",
          "type": "address"
        }
      ],
      "stateMutability": "view",
      "type": "function"
    },
    {
      "inputs": [],
      "name": "renounceOwnership",
      "outputs": [],
      "stateMutability": "nonpayable",
      "type": "function"
    },
    {
      "inputs": [],
      "name": "symbol",
      "outputs": [
        {
          "internalType": "string",
          "name": "",
          "type": "string"
        }
      ],
      "stateMutability": "view",
      "type": "function"
    },
    {
      "inputs": [],
      "name": "totalSupply",
      "outputs": [
        {
          "internalType": "uint256",
          "name": "",
          "type": "uint256"
        }
      ],
      "stateMutability": "view",
      "type": "function"
    },
    {
      "inputs": [
        {
          "internalType": "address",
          "name": "to",
          "type": "address"
        },
        {
          "internalType": "uint256",
          "name": "value",
          "type": "uint256"
        }
      ],
      "name": "transfer",
      "outputs": [
        {
          "internalType": "bool",
          "name": "",
          "type": "bool"
        }
      ],
      "stateMutability": "nonpayable",
      "type": "function"
    },
    {
      "inputs": [
        {
          "internalType": "address",
          "name": "from",
          "type": "address"
        },
        {
          "internalType": "address",
          "name": "to",
          "type": "address"
        },
        {
          "internalType": "uint256",
          "name": "value",
          "type": "uint256"
        }
      ],
      "name": "transferFrom",
      "outputs": [
        {
          "internalType": "bool",
          "name": "",
          "type": "bool"
        }
      ],
      "stateMutability": "nonpayable",
      "type": "function"
    },
    {
      "inputs": [
        {
          "internalType": "address",
          "name": "newOwner",
          "type": "address"
        }
      ],
      "name": "transferOwnership",
      "outputs": [],
      "stateMutability": "nonpayable",
      "type": "function"
    },
    {
      "inputs": [
        {
          "internalType": "string",
          "name": "",
          "type": "string"
        }
      ],
      "name": "typePrimaryHead",
      "outputs": [
        {
          "internalType": "address",
          "name": "",
          "type": "address"
        }
      ],
      "stateMutability": "view",
      "type": "function"
    },
    {
      "inputs": [
        {
          "internalType": "string",
          "name": "",
          "type": "string"
        }
      ],
      "name": "typeSecondaryHead",
      "outputs": [
        {
          "internalType": "address",
          "name": "memberAddress",
          "type": "address"
        },
        {
          "internalType": "string",
          "name": "name",
          "type": "string"
        },
        {
          "internalType": "string",
          "name": "memberType",
          "type": "string"
        },
        {
          "internalType": "string",
          "name": "status",
          "type": "string"
        },
        {
          "internalType": "uint256",
          "name": "lastStatusUpdate",
          "type": "uint256"
        },
        {
          "internalType": "enum RoleToken.Role",
          "name": "role",
          "type": "uint8"
        }
      ],
      "stateMutability": "view",
      "type": "function"
    },
    {
      "inputs": [
        {
          "internalType": "address",
          "name": "to",
          "type": "address"
        },
        {
          "internalType": "uint256",
          "name": "amount",
          "type": "uint256"
        }
      ],
      "name": "mint",
      "outputs": [],
      "stateMutability": "nonpayable",
      "type": "function"
    },
    {
      "inputs": [
        {
          "internalType": "address",
          "name": "deployer",
          "type": "address"
        },
        {
          "internalType": "address",
          "name": "contractAddress",
          "type": "address"
        }
      ],
      "name": "assignAdminRole",
      "outputs": [],
      "stateMutability": "nonpayable",
      "type": "function"
    },
    {
      "inputs": [],
      "name": "disableContract",
      "outputs": [],
      "stateMutability": "nonpayable",
      "type": "function"
    },
    {
      "inputs": [],
      "name": "enableContract",
      "outputs": [],
      "stateMutability": "nonpayable",
      "type": "function"
    },
    {
      "inputs": [
        {
          "internalType": "address",
          "name": "_memberAddress",
          "type": "address"
        },
        {
          "internalType": "string",
          "name": "_name",
          "type": "string"
        },
        {
          "internalType": "string",
          "name": "_memberType",
          "type": "string"
        }
      ],
      "name": "assignRole",
      "outputs": [],
      "stateMutability": "nonpayable",
      "type": "function"
    },
    {
      "inputs": [
        {
          "internalType": "address",
          "name": "account1",
          "type": "address"
        },
        {
          "internalType": "address",
          "name": "account2",
          "type": "address"
        }
      ],
      "name": "swapRole",
      "outputs": [],
      "stateMutability": "nonpayable",
      "type": "function"
    },
    {
      "inputs": [
        {
          "internalType": "address",
          "name": "account",
          "type": "address"
        }
      ],
      "name": "revokeRole",
      "outputs": [],
      "stateMutability": "nonpayable",
      "type": "function"
    },
    {
      "inputs": [
        {
          "internalType": "address",
          "name": "account",
          "type": "address"
        }
      ],
      "name": "getRole",
      "outputs": [
        {
          "internalType": "enum RoleToken.Role",
          "name": "",
          "type": "uint8"
        }
      ],
      "stateMutability": "view",
      "type": "function"
    },
    {
      "inputs": [
        {
          "internalType": "string",
          "name": "memberType",
          "type": "string"
        }
      ],
      "name": "getLocalResourceTable",
      "outputs": [
        {
          "components": [
            {
              "internalType": "address",
              "name": "memberAddress",
              "type": "address"
            },
            {
              "internalType": "string",
              "name": "name",
              "type": "string"
            },
            {
              "internalType": "string",
              "name": "memberType",
              "type": "string"
            },
            {
              "internalType": "string",
              "name": "status",
              "type": "string"
            },
            {
              "internalType": "uint256",
              "name": "lastStatusUpdate",
              "type": "uint256"
            },
            {
              "internalType": "enum RoleToken.Role",
              "name": "role",
              "type": "uint8"
            }
          ],
          "internalType": "struct RoleToken.Member[]",
          "name": "",
          "type": "tuple[]"
        }
      ],
      "stateMutability": "view",
      "type": "function"
    },
    {
      "inputs": [],
      "name": "getGlobalResourceTable",
      "outputs": [
        {
          "components": [
            {
              "internalType": "address",
              "name": "memberAddress",
              "type": "address"
            },
            {
              "internalType": "string",
              "name": "name",
              "type": "string"
            },
            {
              "internalType": "string",
              "name": "memberType",
              "type": "string"
            },
            {
              "internalType": "string",
              "name": "status",
              "type": "string"
            },
            {
              "internalType": "uint256",
              "name": "lastStatusUpdate",
              "type": "uint256"
            },
            {
              "internalType": "enum RoleToken.Role",
              "name": "role",
              "type": "uint8"
            }
          ],
          "internalType": "struct RoleToken.Member[]",
          "name": "",
          "type": "tuple[]"
        }
      ],
      "stateMutability": "view",
      "type": "function"
    },
    {
      "inputs": [
        {
          "internalType": "address",
          "name": "_memberAddress",
          "type": "address"
        }
      ],
      "name": "getMember",
      "outputs": [
        {
          "components": [
            {
              "internalType": "address",
              "name": "memberAddress",
              "type": "address"
            },
            {
              "internalType": "string",
              "name": "name",
              "type": "string"
            },
            {
              "internalType": "string",
              "name": "memberType",
              "type": "string"
            },
            {
              "internalType": "string",
              "name": "status",
              "type": "string"
            },
            {
              "internalType": "uint256",
              "name": "lastStatusUpdate",
              "type": "uint256"
            },
            {
              "internalType": "enum RoleToken.Role",
              "name": "role",
              "type": "uint8"
            }
          ],
          "internalType": "struct RoleToken.Member",
          "name": "",
          "type": "tuple"
        }
      ],
      "stateMutability": "view",
      "type": "function"
    },
    {
      "inputs": [
        {
          "internalType": "address",
          "name": "_memberAddress",
          "type": "address"
        },
        {
          "internalType": "string",
          "name": "_newStatus",
          "type": "string"
        }
      ],
      "name": "updateMemberStatus",
      "outputs": [],
      "stateMutability": "nonpayable",
      "type": "function"
    },
    {
      "inputs": [
        {
          "internalType": "address",
          "name": "_memberAddress",
          "type": "address"
        },
        {
          "internalType": "uint256",
          "name": "_amount",
          "type": "uint256"
        }
      ],
      "name": "penalizeMember",
      "outputs": [],
      "stateMutability": "nonpayable",
      "type": "function"
    },
    {
      "inputs": [
        {
          "internalType": "address",
          "name": "_memberAddress",
          "type": "address"
        },
        {
          "internalType": "uint256",
          "name": "_amount",
          "type": "uint256"
        }
      ],
      "name": "rewardMember",
      "outputs": [],
      "stateMutability": "nonpayable",
      "type": "function"
    },
    {
      "inputs": [
        {
          "internalType": "address",
          "name": "memberAddress",
          "type": "address"
        }
      ],
      "name": "getPrimaryHeadAddress",
      "outputs": [
        {
          "internalType": "address",
          "name": "",
          "type": "address"
        }
      ],
      "stateMutability": "view",
      "type": "function"
    }
  ],
  "bytecode": "0x60806040526005805460ff60a01b1916600160a01b17905534801562000023575f80fd5b5060405162005a5338038062005a5383398101604081905262000046916200036d565b80604051806040016040528060098152602001682937b632aa37b5b2b760b91b8152506040518060400160405280600381526020016252544b60e81b81525081600390816200009691906200043c565b506004620000a582826200043c565b5050506001600160a01b038116620000d757604051631e4fbdf760e01b81525f60048201526024015b60405180910390fd5b620000e2816200013d565b506200010b81620000f66012600a62000613565b62000105906298968062000623565b6200018e565b6200011681620001ca565b6001600160a01b03165f908152600660205260409020805460ff1916600117905562000653565b600580546001600160a01b038381166001600160a01b0319831681179093556040519116919082907f8be0079c531659141344cd1fd0a4f28419497f9722a3daafe3b4186f6b6457e0905f90a35050565b6001600160a01b038216620001b95760405163ec442f0560e01b81525f6004820152602401620000ce565b620001c65f83836200020d565b5050565b620001d46200033c565b6001600160a01b038116620001ff57604051631e4fbdf760e01b81525f6004820152602401620000ce565b6200020a816200013d565b50565b6001600160a01b0383166200023b578060025f8282546200022f91906200063d565b90915550620002ad9050565b6001600160a01b0383165f90815260208190526040902054818110156200028f5760405163391434e360e21b81526001600160a01b03851660048201526024810182905260448101839052606401620000ce565b6001600160a01b0384165f9081526020819052604090209082900390555b6001600160a01b038216620002cb57600280548290039055620002e9565b6001600160a01b0382165f9081526020819052604090208054820190555b816001600160a01b0316836001600160a01b03167fddf252ad1be2c89b69c2b068fc378daa952ba7f163c4a11628f55a4df523b3ef836040516200032f91815260200190565b60405180910390a3505050565b6005546001600160a01b031633146200036b5760405163118cdaa760e01b8152336004820152602401620000ce565b565b5f602082840312156200037e575f80fd5b81516001600160a01b038116811462000395575f80fd5b9392505050565b634e487b7160e01b5f52604160045260245ffd5b600181811c90821680620003c557607f821691505b602082108103620003e457634e487b7160e01b5f52602260045260245ffd5b50919050565b601f82111562000437575f81815260208120601f850160051c81016020861015620004125750805b601f850160051c820191505b8181101562000433578281556001016200041e565b5050505b505050565b81516001600160401b038111156200045857620004586200039c565b6200047081620004698454620003b0565b84620003ea565b602080601f831160018114620004a6575f84156200048e5750858301515b5f19600386901b1c1916600185901b17855562000433565b5f85815260208120601f198616915b82811015620004d657888601518255948401946001909101908401620004b5565b5085821015620004f457878501515f19600388901b60f8161c191681555b5050505050600190811b01905550565b634e487b7160e01b5f52601160045260245ffd5b600181815b808511156200055857815f19048211156200053c576200053c62000504565b808516156200054a57918102915b93841c93908002906200051d565b509250929050565b5f8262000570575060016200060d565b816200057e57505f6200060d565b8160018114620005975760028114620005a257620005c2565b60019150506200060d565b60ff841115620005b657620005b662000504565b50506001821b6200060d565b5060208310610133831016604e8410600b8410161715620005e7575081810a6200060d565b620005f3838362000518565b805f190482111562000609576200060962000504565b0290505b92915050565b5f6200039560ff84168362000560565b80820281158282048414176200060d576200060d62000504565b808201808211156200060d576200060d62000504565b6153f280620006615f395ff3fe608060405234801561000f575f80fd5b50600436106101f2575f3560e01c806370a082311161011457806395d89b41116100a9578063dd62ed3e11610079578063dd62ed3e14610468578063df4073e5146104a0578063f108103f146104d4578063f2fde38b146104e7578063f91546f1146104fa575f80fd5b806395d89b4114610427578063a18f60981461042f578063a9059cbb14610442578063d3a2ab1014610455575f80fd5b80637e7a06e6116100e45780637e7a06e6146103d057806380e52e3f146103fb578063894ba8331461040e5780638da5cb5b14610416575f80fd5b806370a0823114610385578063715018a6146103ad578063746d961e146103b55780637575bb42146103c8575f80fd5b8063313ce5671161018a57806340c10f191161015a57806340c10f191461031357806341b3a0d914610326578063442767331461033a5780636fab480414610372575f80fd5b8063313ce567146102d65780633535ed25146102e5578063367edd32146102f85780633b5e80b214610300575f80fd5b806318160ddd116101c557806318160ddd1461027c5780631bc15d531461028e57806323b872dd146102a35780632ada2596146102b6575f80fd5b806306fdde03146101f657806308ae4b0c14610214578063095ea7b314610239578063111929991461025c575b5f80fd5b6101fe61050d565b60405161020b9190614ad6565b60405180910390f35b610227610222366004614b0a565b61059d565b60405161020b96959493929190614b57565b61024c610247366004614bc1565b610771565b604051901515815260200161020b565b61026f61026a366004614c86565b61078a565b60405161020b9190614d40565b6002545b60405190815260200161020b565b6102a161029c366004614da0565b610a08565b005b61024c6102b1366004614deb565b610a98565b6102c96102c4366004614b0a565b610abb565b60405161020b9190614e24565b6040516012815260200161020b565b6102276102f3366004614c86565b610ce7565b6102a1610d1e565b6102a161030e366004614bc1565b610dcf565b6102a1610321366004614bc1565b610e1f565b60055461024c90600160a01b900460ff1681565b610365610348366004614b0a565b6001600160a01b03165f9081526006602052604090205460ff1690565b60405161020b9190614e36565b6102a1610380366004614e44565b610ee8565b610280610393366004614b0a565b6001600160a01b03165f9081526020819052604090205490565b6102a16113e1565b6102a16103c3366004614bc1565b6113f4565b61026f611436565b6103e36103de366004614b0a565b611705565b6040516001600160a01b03909116815260200161020b565b6102a1610409366004614b0a565b6119f0565b6102a1611c93565b6005546001600160a01b03166103e3565b6101fe611d3d565b61022761043d366004614e75565b611d4c565b61024c610450366004614bc1565b611d89565b6102a1610463366004614e8c565b611d96565b610280610476366004614e44565b6001600160a01b039182165f90815260016020908152604080832093909416825291909152205490565b6103e36104ae366004614c86565b8051602081830181018051600a825292820191909301209152546001600160a01b031681565b6102a16104e2366004614e44565b6126b3565b6102a16104f5366004614b0a565b6127a7565b610227610508366004614efb565b6127e4565b60606003805461051c90614f3d565b80601f016020809104026020016040519081016040528092919081815260200182805461054890614f3d565b80156105935780601f1061056a57610100808354040283529160200191610593565b820191905f5260205f20905b81548152906001019060200180831161057657829003601f168201915b5050505050905090565b600b6020525f9081526040902080546001820180546001600160a01b0390921692916105c890614f3d565b80601f01602080910402602001604051908101604052809291908181526020018280546105f490614f3d565b801561063f5780601f106106165761010080835404028352916020019161063f565b820191905f5260205f20905b81548152906001019060200180831161062257829003601f168201915b50505050509080600201805461065490614f3d565b80601f016020809104026020016040519081016040528092919081815260200182805461068090614f3d565b80156106cb5780601f106106a2576101008083540402835291602001916106cb565b820191905f5260205f20905b8154815290600101906020018083116106ae57829003601f168201915b5050505050908060030180546106e090614f3d565b80601f016020809104026020016040519081016040528092919081815260200182805461070c90614f3d565b80156107575780601f1061072e57610100808354040283529160200191610757565b820191905f5260205f20905b81548152906001019060200180831161073a57829003601f168201915b50505050600483015460059093015491929160ff16905086565b5f3361077e81858561283e565b60019150505b92915050565b606060078260405161079c9190614f75565b9081526020016040518091039020805480602002602001604051908101604052809291908181526020015f905b828210156109fd575f8481526020908190206040805160c081019091526006850290910180546001600160a01b03168252600181018054929391929184019161081190614f3d565b80601f016020809104026020016040519081016040528092919081815260200182805461083d90614f3d565b80156108885780601f1061085f57610100808354040283529160200191610888565b820191905f5260205f20905b81548152906001019060200180831161086b57829003601f168201915b505050505081526020016002820180546108a190614f3d565b80601f01602080910402602001604051908101604052809291908181526020018280546108cd90614f3d565b80156109185780601f106108ef57610100808354040283529160200191610918565b820191905f5260205f20905b8154815290600101906020018083116108fb57829003601f168201915b5050505050815260200160038201805461093190614f3d565b80601f016020809104026020016040519081016040528092919081815260200182805461095d90614f3d565b80156109a85780601f1061097f576101008083540402835291602001916109a8565b820191905f5260205f20905b81548152906001019060200180831161098b57829003601f168201915b50505091835250506004828101546020830152600583015460409092019160ff16908111156109d9576109d9614b23565b60048111156109ea576109ea614b23565b81525050815260200190600101906107c9565b505050509050919050565b6001335f9081526006602052604090205460ff166004811115610a2d57610a2d614b23565b14610a535760405162461bcd60e51b8152600401610a4a90614f90565b60405180910390fd5b6001600160a01b0382165f908152600b60205260409020600301610a778282615024565b50506001600160a01b03165f908152600b6020526040902042600490910155565b5f33610aa585828561284b565b610ab08585856128c6565b506001949350505050565b610ac36149f3565b6001600160a01b038083165f908152600b6020908152604091829020825160c081019093528054909316825260018301805492939291840191610b0590614f3d565b80601f0160208091040260200160405190810160405280929190818152602001828054610b3190614f3d565b8015610b7c5780601f10610b5357610100808354040283529160200191610b7c565b820191905f5260205f20905b815481529060010190602001808311610b5f57829003601f168201915b50505050508152602001600282018054610b9590614f3d565b80601f0160208091040260200160405190810160405280929190818152602001828054610bc190614f3d565b8015610c0c5780601f10610be357610100808354040283529160200191610c0c565b820191905f5260205f20905b815481529060010190602001808311610bef57829003601f168201915b50505050508152602001600382018054610c2590614f3d565b80601f0160208091040260200160405190810160405280929190818152602001828054610c5190614f3d565b8015610c9c5780601f10610c7357610100808354040283529160200191610c9c565b820191905f5260205f20905b815481529060010190602001808311610c7f57829003601f168201915b50505091835250506004828101546020830152600583015460409092019160ff1690811115610ccd57610ccd614b23565b6004811115610cde57610cde614b23565b90525092915050565b8051602081830181018051600982529282019190930120915280546001820180546001600160a01b0390921692916105c890614f3d565b6001335f9081526006602052604090205460ff166004811115610d4357610d43614b23565b14610d605760405162461bcd60e51b8152600401610a4a90614f90565b600554600160a01b900460ff1615610dba5760405162461bcd60e51b815260206004820152601b60248201527f436f6e747261637420697320616c726561647920656e61626c656400000000006044820152606401610a4a565b6005805460ff60a01b1916600160a01b179055565b6001335f9081526006602052604090205460ff166004811115610df457610df4614b23565b14610e115760405162461bcd60e51b8152600401610a4a90614f90565b610e1b8282612923565b5050565b6001335f9081526006602052604090205460ff166004811115610e4457610e44614b23565b1480610e7257506002335f9081526006602052604090205460ff166004811115610e7057610e70614b23565b145b610e8e5760405162461bcd60e51b8152600401610a4a906150e0565b600554600160a01b900460ff16610ede5760405162461bcd60e51b815260206004820152601460248201527310dbdb9d1c9858dd081a5cc8191a5cd8589b195960621b6044820152606401610a4a565b610e1b8282612957565b6001335f9081526006602052604090205460ff166004811115610f0d57610f0d614b23565b14610f2a5760405162461bcd60e51b8152600401610a4a90614f90565b6001600160a01b0382165f9081526006602052604081205460ff166004811115610f5657610f56614b23565b14158015610f8e57506001600160a01b0381165f9081526006602052604081205460ff166004811115610f8b57610f8b614b23565b14155b610fda5760405162461bcd60e51b815260206004820152601d60248201527f426f7468206163636f756e7473206d757374206861766520726f6c65730000006044820152606401610a4a565b6001600160a01b0381165f9081526006602052604090205460ff16600481111561100657611006614b23565b6001600160a01b0383165f9081526006602052604090205460ff16600481111561103257611032614b23565b0361108a5760405162461bcd60e51b815260206004820152602260248201527f4163636f756e7473206d757374206861766520646966666572656e7420726f6c604482015261657360f01b6064820152608401610a4a565b6001600160a01b038281165f81815260066020908152604080832054948616835280832054938352600b9091528120600201805460ff94851694909316926110d190614f3d565b80601f01602080910402602001604051908101604052809291908181526020018280546110fd90614f3d565b80156111485780601f1061111f57610100808354040283529160200191611148565b820191905f5260205f20905b81548152906001019060200180831161112b57829003601f168201915b5050506001600160a01b0387165f908152600b60205260408120600201805494955090939092506111799150614f3d565b80601f01602080910402602001604051908101604052809291908181526020018280546111a590614f3d565b80156111f05780601f106111c7576101008083540402835291602001916111f0565b820191905f5260205f20905b8154815290600101906020018083116111d357829003601f168201915b5050505050905080805190602001208280519060200120146112655760405162461bcd60e51b815260206004820152602860248201527f4163636f756e7473206d75737420626520696e207468652073616d65206d656d604482015267626572207479706560c01b6064820152608401610a4a565b61126f868361298b565b611279858261298b565b6001600160a01b0386165f908152600660205260409020805484919060ff191660018360048111156112ad576112ad614b23565b02179055506001600160a01b0385165f908152600660205260409020805485919060ff191660018360048111156112e6576112e6614b23565b02179055506001600160a01b0386165f908152600b60205260409020600501805484919060ff1916600183600481111561132257611322614b23565b02179055506001600160a01b0385165f908152600b60205260409020600501805485919060ff1916600183600481111561135e5761135e614b23565b021790555061136e86828561318d565b61137985838661318d565b856001600160a01b03165f8051602061539d83398151915284836040516113a1929190615131565b60405180910390a2846001600160a01b03165f8051602061539d83398151915285846040516113d1929190615131565b60405180910390a2505050505050565b6113e9613bc6565b6113f25f613bf3565b565b6001335f9081526006602052604090205460ff16600481111561141957611419614b23565b14610ede5760405162461bcd60e51b8152600401610a4a90614f90565b60606001335f9081526006602052604090205460ff16600481111561145d5761145d614b23565b148061148b57506002335f9081526006602052604090205460ff16600481111561148957611489614b23565b145b6114a75760405162461bcd60e51b8152600401610a4a906150e0565b6008805480602002602001604051908101604052809291908181526020015f905b828210156116fc575f8481526020908190206040805160c081019091526006850290910180546001600160a01b03168252600181018054929391929184019161151090614f3d565b80601f016020809104026020016040519081016040528092919081815260200182805461153c90614f3d565b80156115875780601f1061155e57610100808354040283529160200191611587565b820191905f5260205f20905b81548152906001019060200180831161156a57829003601f168201915b505050505081526020016002820180546115a090614f3d565b80601f01602080910402602001604051908101604052809291908181526020018280546115cc90614f3d565b80156116175780601f106115ee57610100808354040283529160200191611617565b820191905f5260205f20905b8154815290600101906020018083116115fa57829003601f168201915b5050505050815260200160038201805461163090614f3d565b80601f016020809104026020016040519081016040528092919081815260200182805461165c90614f3d565b80156116a75780601f1061167e576101008083540402835291602001916116a7565b820191905f5260205f20905b81548152906001019060200180831161168a57829003601f168201915b50505091835250506004828101546020830152600583015460409092019160ff16908111156116d8576116d8614b23565b60048111156116e9576116e9614b23565b81525050815260200190600101906114c8565b50505050905090565b6001600160a01b038082165f908152600b60209081526040808320815160c08101909252805490941681526001840180549394859492939092908401919061174c90614f3d565b80601f016020809104026020016040519081016040528092919081815260200182805461177890614f3d565b80156117c35780601f1061179a576101008083540402835291602001916117c3565b820191905f5260205f20905b8154815290600101906020018083116117a657829003601f168201915b505050505081526020016002820180546117dc90614f3d565b80601f016020809104026020016040519081016040528092919081815260200182805461180890614f3d565b80156118535780601f1061182a57610100808354040283529160200191611853565b820191905f5260205f20905b81548152906001019060200180831161183657829003601f168201915b5050505050815260200160038201805461186c90614f3d565b80601f016020809104026020016040519081016040528092919081815260200182805461189890614f3d565b80156118e35780601f106118ba576101008083540402835291602001916118e3565b820191905f5260205f20905b8154815290600101906020018083116118c657829003601f168201915b50505091835250506004828101546020830152600583015460409092019160ff169081111561191457611914614b23565b600481111561192557611925614b23565b905250905060048160a00151600481111561194257611942614b23565b1480611963575060038160a00151600481111561196157611961614b23565b145b6119ba5760405162461bcd60e51b815260206004820152602260248201527f4164647265737320646f6573206e6f74206861766520612076616c696420726f6044820152616c6560f01b6064820152608401610a4a565b5f600a82604001516040516119cf9190614f75565b908152604051908190036020019020546001600160a01b0316949350505050565b6001335f9081526006602052604090205460ff166004811115611a1557611a15614b23565b14611a325760405162461bcd60e51b8152600401610a4a90614f90565b6001600160a01b0381165f90815260066020908152604080832054600b9092528220600201805460ff9092169291611a6990614f3d565b80601f0160208091040260200160405190810160405280929190818152602001828054611a9590614f3d565b8015611ae05780601f10611ab757610100808354040283529160200191611ae0565b820191905f5260205f20905b815481529060010190602001808311611ac357829003601f168201915b5093945060029350611af192505050565b826004811115611b0357611b03614b23565b1480611b2057506003826004811115611b1e57611b1e614b23565b145b80611b3c57506004826004811115611b3a57611b3a614b23565b145b611b885760405162461bcd60e51b815260206004820152601c60248201527f4163636f756e7420646f6573206e6f742068617665206120726f6c65000000006044820152606401610a4a565b6002826004811115611b9c57611b9c614b23565b03611bb057611bab8184613c44565b611bf6565b6003826004811115611bc457611bc4614b23565b03611bd357611bab8184613d68565b6004826004811115611be757611be7614b23565b03611bf657611bf68184613e01565b6001600160a01b0383165f908152600660209081526040808320805460ff19169055600b909152812080546001600160a01b031916815590611c3b6001830182614a3f565b611c48600283015f614a3f565b611c55600383015f614a3f565b505f6004820155600501805460ff19169055611c8e83611c89816001600160a01b03165f9081526020819052604090205490565b612923565b505050565b6001335f9081526006602052604090205460ff166004811115611cb857611cb8614b23565b14611cd55760405162461bcd60e51b8152600401610a4a90614f90565b600554600160a01b900460ff16611d2e5760405162461bcd60e51b815260206004820152601c60248201527f436f6e747261637420697320616c72656164792064697361626c6564000000006044820152606401610a4a565b6005805460ff60a01b19169055565b60606004805461051c90614f3d565b60088181548110611d5b575f80fd5b5f918252602090912060069091020180546001820180546001600160a01b039092169350906105c890614f3d565b5f3361077e8185856128c6565b6001600160a01b0383165f9081526006602052604081205460ff166004811115611dc257611dc2614b23565b14611e0f5760405162461bcd60e51b815260206004820152601960248201527f4d656d62657220616c726561647920686173206120726f6c65000000000000006044820152606401610a4a565b5f6001600160a01b0316600a82604051611e299190614f75565b908152604051908190036020019020546001600160a01b031603612112576001600160a01b0383165f90815260066020526040902080546002919060ff191660018302179055505f6040518060c00160405280856001600160a01b03168152602001848152602001838152602001604051806040016040528060068152602001652122a724a3a760d11b815250815260200142815260200160026004811115611ed457611ed4614b23565b9052600880546001810182555f9190915281517ff3f7a9fe364faab93b216da50a3214154f22a0a2b415b23a84c8169e8b636ee3600690920291820180546001600160a01b0319166001600160a01b039092169190911781556020830151929350839290917ff3f7a9fe364faab93b216da50a3214154f22a0a2b415b23a84c8169e8b636ee40190611f669082615024565b5060408201516002820190611f7b9082615024565b5060608201516003820190611f909082615024565b506080820151816004015560a0820151816005015f6101000a81548160ff02191690836004811115611fc457611fc4614b23565b0217905550505083600a83604051611fdc9190614f75565b90815260405190819003602001902080546001600160a01b03929092166001600160a01b031990921691909117905561202f84612017601290565b61202290600a615244565b61032190620f4240615252565b6001600160a01b038481165f908152600b60209081526040909120835181546001600160a01b031916931692909217825582015182919060018201906120759082615024565b506040820151600282019061208a9082615024565b506060820151600382019061209f9082615024565b506080820151816004015560a0820151816005015f6101000a81548160ff021916908360048111156120d3576120d3614b23565b0217905550905050836001600160a01b03165f8051602061539d833981519152600284604051612104929190615131565b60405180910390a250505050565b5f6001600160a01b031660098260405161212c9190614f75565b908152604051908190036020019020546001600160a01b03160361245a576001600160a01b0383165f90815260066020526040902080546003919060ff191660018302179055505f6040518060c00160405280856001600160a01b03168152602001848152602001838152602001604051806040016040528060068152602001652122a724a3a760d11b8152508152602001428152602001600360048111156121d7576121d7614b23565b81525090506007826040516121ec9190614f75565b908152604051602091819003820190208054600180820183555f92835291839020845160069092020180546001600160a01b0319166001600160a01b03909216919091178155918301518392918201906122469082615024565b506040820151600282019061225b9082615024565b50606082015160038201906122709082615024565b506080820151816004015560a0820151816005015f6101000a81548160ff021916908360048111156122a4576122a4614b23565b02179055505050806009836040516122bc9190614f75565b90815260405160209181900382019020825181546001600160a01b0319166001600160a01b039091161781559082015160018201906122fb9082615024565b50604082015160028201906123109082615024565b50606082015160038201906123259082615024565b506080820151816004015560a0820151816005015f6101000a81548160ff0219169083600481111561235957612359614b23565b02179055509050506123858461236d601290565b61237890600a615244565b610321906207a120615252565b6001600160a01b038481165f908152600b60209081526040909120835181546001600160a01b031916931692909217825582015182919060018201906123cb9082615024565b50604082015160028201906123e09082615024565b50606082015160038201906123f59082615024565b506080820151816004015560a0820151816005015f6101000a81548160ff0219169083600481111561242957612429614b23565b0217905550905050836001600160a01b03165f8051602061539d833981519152600384604051612104929190615131565b6001600160a01b0383165f90815260066020526040902080546004919060ff191660018302179055505f6040518060c00160405280856001600160a01b03168152602001848152602001838152602001604051806040016040528060068152602001652122a724a3a760d11b81525081526020014281526020016004808111156124e6576124e6614b23565b81525090506007826040516124fb9190614f75565b908152604051602091819003820190208054600180820183555f92835291839020845160069092020180546001600160a01b0319166001600160a01b03909216919091178155918301518392918201906125559082615024565b506040820151600282019061256a9082615024565b506060820151600382019061257f9082615024565b506080820151816004015560a0820151816005015f6101000a81548160ff021916908360048111156125b3576125b3614b23565b021790555050506125de846125c6601290565b6125d190600a615244565b61032190620186a0615252565b6001600160a01b038481165f908152600b60209081526040909120835181546001600160a01b031916931692909217825582015182919060018201906126249082615024565b50604082015160028201906126399082615024565b506060820151600382019061264e9082615024565b506080820151816004015560a0820151816005015f6101000a81548160ff0219169083600481111561268257612682614b23565b0217905550905050836001600160a01b03165f8051602061539d833981519152600484604051612104929190615131565b6001335f9081526006602052604090205460ff1660048111156126d8576126d8614b23565b146126f55760405162461bcd60e51b8152600401610a4a90614f90565b60016001600160a01b0383165f9081526006602052604090205460ff16600481111561272357612723614b23565b146127675760405162461bcd60e51b815260206004820152601460248201527321b932b0ba37b91034b9903737ba1030b236b4b760611b6044820152606401610a4a565b6001600160a01b0381165f908152600660205260409020805460ff19166001179055610e1b81601261279a90600a615244565b6103219062989680615252565b6127af613bc6565b6001600160a01b0381166127d857604051631e4fbdf760e01b81525f6004820152602401610a4a565b6127e181613bf3565b50565b8151602081840181018051600782529282019185019190912091905280548290811061280e575f80fd5b5f918252602090912060069091020180546001820180546001600160a01b0390921694509192506105c890614f3d565b611c8e8383836001613fce565b6001600160a01b038381165f908152600160209081526040808320938616835292905220545f1981146128c057818110156128b257604051637dc7a0d960e11b81526001600160a01b03841660048201526024810182905260448101839052606401610a4a565b6128c084848484035f613fce565b50505050565b6001600160a01b0383166128ef57604051634b637e8f60e11b81525f6004820152602401610a4a565b6001600160a01b0382166129185760405163ec442f0560e01b81525f6004820152602401610a4a565b611c8e8383836140a0565b6001600160a01b03821661294c57604051634b637e8f60e11b81525f6004820152602401610a4a565b610e1b825f836140a0565b6001600160a01b0382166129805760405163ec442f0560e01b81525f6004820152602401610a4a565b610e1b5f83836140a0565b6001600160a01b0382165f9081526006602052604090205460ff1660028160048111156129ba576129ba614b23565b03612bdb575f5b600854811015612b6f57836001600160a01b0316600882815481106129e8576129e8615269565b5f9182526020909120600690910201546001600160a01b031603612b5d5760088054612a169060019061527d565b81548110612a2657612a26615269565b905f5260205f20906006020160088281548110612a4557612a45615269565b5f9182526020909120825460069092020180546001600160a01b0319166001600160a01b03909216919091178155600180820190612a8590840182615290565b50600281810190612a9890840182615290565b50600381810190612aab90840182615290565b5060048281015482820155600580840154908301805460ff90921692909160ff1916906001908490811115612ae257612ae2614b23565b02179055509050506008805480612afb57612afb61535d565b5f8281526020812060065f199093019283020180546001600160a01b031916815590612b2a6001830182614a3f565b612b37600283015f614a3f565b612b44600383015f614a3f565b505f6004820155600501805460ff191690559055612b6f565b80612b6781615371565b9150506129c1565b50826001600160a01b0316600a83604051612b8a9190614f75565b908152604051908190036020019020546001600160a01b031603612bd657600a82604051612bb89190614f75565b90815260405190819003602001902080546001600160a01b03191690555b61316b565b6003816004811115612bef57612bef614b23565b03612ef557826001600160a01b0316600983604051612c0e9190614f75565b908152604051908190036020019020546001600160a01b031603612c9457600982604051612c3c9190614f75565b90815260405190819003602001902080546001600160a01b03191681555f612c676001830182614a3f565b612c74600283015f614a3f565b612c81600383015f614a3f565b505f6004820155600501805460ff191690555b5f5b600783604051612ca69190614f75565b90815260405190819003602001902054811015612eef57836001600160a01b0316600784604051612cd79190614f75565b90815260200160405180910390208281548110612cf657612cf6615269565b5f9182526020909120600690910201546001600160a01b031603612edd57600783604051612d249190614f75565b90815260200160405180910390206001600785604051612d449190614f75565b90815260405190819003602001902054612d5e919061527d565b81548110612d6e57612d6e615269565b905f5260205f209060060201600784604051612d8a9190614f75565b90815260200160405180910390208281548110612da957612da9615269565b5f9182526020909120825460069092020180546001600160a01b0319166001600160a01b03909216919091178155600180820190612de990840182615290565b50600281810190612dfc90840182615290565b50600381810190612e0f90840182615290565b5060048281015482820155600580840154908301805460ff90921692909160ff1916906001908490811115612e4657612e46614b23565b0217905550905050600783604051612e5e9190614f75565b9081526020016040518091039020805480612e7b57612e7b61535d565b5f8281526020812060065f199093019283020180546001600160a01b031916815590612eaa6001830182614a3f565b612eb7600283015f614a3f565b612ec4600383015f614a3f565b505f6004820155600501805460ff191690559055612eef565b80612ee781615371565b915050612c96565b5061316b565b6004816004811115612f0957612f09614b23565b0361316b575f5b600783604051612f209190614f75565b9081526040519081900360200190205481101561316957836001600160a01b0316600784604051612f519190614f75565b90815260200160405180910390208281548110612f7057612f70615269565b5f9182526020909120600690910201546001600160a01b03160361315757600783604051612f9e9190614f75565b90815260200160405180910390206001600785604051612fbe9190614f75565b90815260405190819003602001902054612fd8919061527d565b81548110612fe857612fe8615269565b905f5260205f2090600602016007846040516130049190614f75565b9081526020016040518091039020828154811061302357613023615269565b5f9182526020909120825460069092020180546001600160a01b0319166001600160a01b0390921691909117815560018082019061306390840182615290565b5060028181019061307690840182615290565b5060038181019061308990840182615290565b5060048281015482820155600580840154908301805460ff90921692909160ff19169060019084908111156130c0576130c0614b23565b02179055509050506007836040516130d89190614f75565b90815260200160405180910390208054806130f5576130f561535d565b5f8281526020812060065f199093019283020180546001600160a01b0319168155906131246001830182614a3f565b613131600283015f614a3f565b61313e600383015f614a3f565b505f6004820155600501805460ff191690559055613169565b8061316181615371565b915050612f10565b505b50506001600160a01b03165f908152600660205260409020805460ff19169055565b60028160048111156131a1576131a1614b23565b03613451576040805160c0810182526001600160a01b0385168082525f908152600b60209081529290206001018054600893830191906131e090614f3d565b80601f016020809104026020016040519081016040528092919081815260200182805461320c90614f3d565b80156132575780601f1061322e57610100808354040283529160200191613257565b820191905f5260205f20905b81548152906001019060200180831161323a57829003601f168201915b50505050508152602001848152602001600b5f876001600160a01b03166001600160a01b031681526020019081526020015f20600301805461329890614f3d565b80601f01602080910402602001604051908101604052809291908181526020018280546132c490614f3d565b801561330f5780601f106132e65761010080835404028352916020019161330f565b820191905f5260205f20905b8154815290600101906020018083116132f257829003601f168201915b50505050508152602001600b5f876001600160a01b03166001600160a01b031681526020019081526020015f2060040154815260200183600481111561335757613357614b23565b90528154600180820184555f938452602093849020835160069093020180546001600160a01b0319166001600160a01b039093169290921782559282015191929091908201906133a79082615024565b50604082015160028201906133bc9082615024565b50606082015160038201906133d19082615024565b506080820151816004015560a0820151816005015f6101000a81548160ff0219169083600481111561340557613405614b23565b0217905550505082600a8360405161341d9190614f75565b90815260405190819003602001902080546001600160a01b03929092166001600160a01b0319909216919091179055505050565b600381600481111561346557613465614b23565b0361397d5760078260405161347a9190614f75565b90815260200160405180910390206040518060c00160405280856001600160a01b03168152602001600b5f876001600160a01b03166001600160a01b031681526020019081526020015f2060010180546134d390614f3d565b80601f01602080910402602001604051908101604052809291908181526020018280546134ff90614f3d565b801561354a5780601f106135215761010080835404028352916020019161354a565b820191905f5260205f20905b81548152906001019060200180831161352d57829003601f168201915b50505050508152602001848152602001600b5f876001600160a01b03166001600160a01b031681526020019081526020015f20600301805461358b90614f3d565b80601f01602080910402602001604051908101604052809291908181526020018280546135b790614f3d565b80156136025780601f106135d957610100808354040283529160200191613602565b820191905f5260205f20905b8154815290600101906020018083116135e557829003601f168201915b50505050508152602001600b5f876001600160a01b03166001600160a01b031681526020019081526020015f2060040154815260200183600481111561364a5761364a614b23565b90528154600180820184555f938452602093849020835160069093020180546001600160a01b0319166001600160a01b0390931692909217825592820151919290919082019061369a9082615024565b50604082015160028201906136af9082615024565b50606082015160038201906136c49082615024565b506080820151816004015560a0820151816005015f6101000a81548160ff021916908360048111156136f8576136f8614b23565b021790555050506040518060c00160405280846001600160a01b03168152602001600b5f866001600160a01b03166001600160a01b031681526020019081526020015f20600101805461374a90614f3d565b80601f016020809104026020016040519081016040528092919081815260200182805461377690614f3d565b80156137c15780601f10613798576101008083540402835291602001916137c1565b820191905f5260205f20905b8154815290600101906020018083116137a457829003601f168201915b50505050508152602001838152602001600b5f866001600160a01b03166001600160a01b031681526020019081526020015f20600301805461380290614f3d565b80601f016020809104026020016040519081016040528092919081815260200182805461382e90614f3d565b80156138795780601f1061385057610100808354040283529160200191613879565b820191905f5260205f20905b81548152906001019060200180831161385c57829003601f168201915b50505050508152602001600b5f866001600160a01b03166001600160a01b031681526020019081526020015f206004015481526020018260048111156138c1576138c1614b23565b8152506009836040516138d49190614f75565b90815260405160209181900382019020825181546001600160a01b0319166001600160a01b039091161781559082015160018201906139139082615024565b50604082015160028201906139289082615024565b506060820151600382019061393d9082615024565b506080820151816004015560a0820151816005015f6101000a81548160ff0219169083600481111561397157613971614b23565b02179055505050505050565b600481600481111561399157613991614b23565b03611c8e576007826040516139a69190614f75565b90815260200160405180910390206040518060c00160405280856001600160a01b03168152602001600b5f876001600160a01b03166001600160a01b031681526020019081526020015f2060010180546139ff90614f3d565b80601f0160208091040260200160405190810160405280929190818152602001828054613a2b90614f3d565b8015613a765780601f10613a4d57610100808354040283529160200191613a76565b820191905f5260205f20905b815481529060010190602001808311613a5957829003601f168201915b50505050508152602001848152602001600b5f876001600160a01b03166001600160a01b031681526020019081526020015f206003018054613ab790614f3d565b80601f0160208091040260200160405190810160405280929190818152602001828054613ae390614f3d565b8015613b2e5780601f10613b0557610100808354040283529160200191613b2e565b820191905f5260205f20905b815481529060010190602001808311613b1157829003601f168201915b50505050508152602001600b5f876001600160a01b03166001600160a01b031681526020019081526020015f20600401548152602001836004811115613b7657613b76614b23565b90528154600180820184555f938452602093849020835160069093020180546001600160a01b0319166001600160a01b039093169290921782559282015191929091908201906139139082615024565b6005546001600160a01b031633146113f25760405163118cdaa760e01b8152336004820152602401610a4a565b600580546001600160a01b038381166001600160a01b0319831681179093556040519116919082907f8be0079c531659141344cd1fd0a4f28419497f9722a3daafe3b4186f6b6457e0905f90a35050565b613c4d816141c6565b600a82604051613c5d9190614f75565b90815260405190819003602001812080546001600160a01b03191690555f90600990613c8a908590614f75565b908152604051908190036020019020546001600160a01b031614610e1b575f600983604051613cb99190614f75565b908152604051908190036020018120546001600160a01b03169150600990613ce2908590614f75565b90815260405190819003602001902080546001600160a01b03191681555f613d0d6001830182614a3f565b613d1a600283015f614a3f565b613d27600383015f614a3f565b505f6004820155600501805460ff19169055613d438382614375565b5f613d4d846144fd565b90506001600160a01b038116156128c0576128c08482614820565b613d728282613e01565b600982604051613d829190614f75565b90815260405190819003602001902080546001600160a01b03191681555f613dad6001830182614a3f565b613dba600283015f614a3f565b613dc7600383015f614a3f565b505f600482018190556005909101805460ff19169055613de6836144fd565b90506001600160a01b03811615611c8e57611c8e8382614820565b5f600783604051613e129190614f75565b908152602001604051809103902090505f5b81548110156128c057826001600160a01b0316828281548110613e4957613e49615269565b5f9182526020909120600690910201546001600160a01b031603613fbc5781548290613e779060019061527d565b81548110613e8757613e87615269565b905f5260205f209060060201828281548110613ea557613ea5615269565b5f9182526020909120825460069092020180546001600160a01b0319166001600160a01b03909216919091178155600180820190613ee590840182615290565b50600281810190613ef890840182615290565b50600381810190613f0b90840182615290565b5060048281015482820155600580840154908301805460ff90921692909160ff1916906001908490811115613f4257613f42614b23565b021790555090505081805480613f5a57613f5a61535d565b5f8281526020812060065f199093019283020180546001600160a01b031916815590613f896001830182614a3f565b613f96600283015f614a3f565b613fa3600383015f614a3f565b505f6004820155600501805460ff1916905590556128c0565b80613fc681615371565b915050613e24565b6001600160a01b038416613ff75760405163e602df0560e01b81525f6004820152602401610a4a565b6001600160a01b03831661402057604051634a1406b160e11b81525f6004820152602401610a4a565b6001600160a01b038085165f90815260016020908152604080832093871683529290522082905580156128c057826001600160a01b0316846001600160a01b03167f8c5be1e5ebec7d5bd14f71427d1e84f3dd0314c0f7b2291e5b200ac8c7c3b9258460405161409291815260200190565b60405180910390a350505050565b6001600160a01b0383166140ca578060025f8282546140bf9190615389565b9091555061413a9050565b6001600160a01b0383165f908152602081905260409020548181101561411c5760405163391434e360e21b81526001600160a01b03851660048201526024810182905260448101839052606401610a4a565b6001600160a01b0384165f9081526020819052604090209082900390555b6001600160a01b03821661415657600280548290039055614174565b6001600160a01b0382165f9081526020819052604090208054820190555b816001600160a01b0316836001600160a01b03167fddf252ad1be2c89b69c2b068fc378daa952ba7f163c4a11628f55a4df523b3ef836040516141b991815260200190565b60405180910390a3505050565b5f5b600854811015610e1b57816001600160a01b0316600882815481106141ef576141ef615269565b5f9182526020909120600690910201546001600160a01b031603614363576008805461421d9060019061527d565b8154811061422d5761422d615269565b905f5260205f2090600602016008828154811061424c5761424c615269565b5f9182526020909120825460069092020180546001600160a01b0319166001600160a01b0390921691909117815560018082019061428c90840182615290565b5060028181019061429f90840182615290565b506003818101906142b290840182615290565b5060048281015482820155600580840154908301805460ff90921692909160ff19169060019084908111156142e9576142e9614b23565b021790555090505060088054806143025761430261535d565b5f8281526020812060065f199093019283020180546001600160a01b0319168155906143316001830182614a3f565b61433e600283015f614a3f565b61434b600383015f614a3f565b505f6004820155600501805460ff1916905590555050565b8061436d81615371565b9150506141c8565b6001600160a01b0381165f9081526006602090815260408083208054600260ff199182168117909255600b9093529220600501805490911690911790556143bc8282613e01565b6001600160a01b038082165f908152600b60205260408120600880546001818101835591909352815460069093027ff3f7a9fe364faab93b216da50a3214154f22a0a2b415b23a84c8169e8b636ee3810180546001600160a01b031916949095169390931784559092917ff3f7a9fe364faab93b216da50a3214154f22a0a2b415b23a84c8169e8b636ee4019061445590840182615290565b5060028181019061446890840182615290565b5060038181019061447b90840182615290565b5060048281015482820155600580840154908301805460ff90921692909160ff19169060019084908111156144b2576144b2614b23565b0217905550505080600a836040516144ca9190614f75565b90815260405190819003602001902080546001600160a01b03929092166001600160a01b03199092169190911790555050565b5f805f90505f806007856040516145149190614f75565b9081526020016040518091039020805480602002602001604051908101604052809291908181526020015f905b82821015614775575f8481526020908190206040805160c081019091526006850290910180546001600160a01b03168252600181018054929391929184019161458990614f3d565b80601f01602080910402602001604051908101604052809291908181526020018280546145b590614f3d565b80156146005780601f106145d757610100808354040283529160200191614600565b820191905f5260205f20905b8154815290600101906020018083116145e357829003601f168201915b5050505050815260200160028201805461461990614f3d565b80601f016020809104026020016040519081016040528092919081815260200182805461464590614f3d565b80156146905780601f1061466757610100808354040283529160200191614690565b820191905f5260205f20905b81548152906001019060200180831161467357829003601f168201915b505050505081526020016003820180546146a990614f3d565b80601f01602080910402602001604051908101604052809291908181526020018280546146d590614f3d565b80156147205780601f106146f757610100808354040283529160200191614720565b820191905f5260205f20905b81548152906001019060200180831161470357829003601f168201915b50505091835250506004828101546020830152600583015460409092019160ff169081111561475157614751614b23565b600481111561476257614762614b23565b8152505081526020019060010190614541565b5050505090505f5b8151811015614816575f82828151811061479957614799615269565b602090810291909101015151905060046001600160a01b0382165f9081526006602052604090205460ff1660048111156147d5576147d5614b23565b03614803576001600160a01b0381165f9081526020819052604090205485811115614801578095508194505b505b508061480e81615371565b91505061477d565b5090949350505050565b6001600160a01b0381165f908152600660205260409020805460ff19166003908117909155614852908390839061492f565b6001600160a01b0381165f908152600b60205260409081902060058101805460ff19166003179055905160099061488a908590614f75565b908152604051908190036020019020815481546001600160a01b0319166001600160a01b039091161781556001808201906148c790840182615290565b506002818101906148da90840182615290565b506003818101906148ed90840182615290565b5060048281015482820155600580840154908301805460ff90921692909160ff191690600190849081111561492457614924614b23565b021790555050505050565b5f6007846040516149409190614f75565b908152602001604051809103902090505f5b81548110156149ec57836001600160a01b031682828154811061497757614977615269565b5f9182526020909120600690910201546001600160a01b0316036149da57828282815481106149a8576149a8615269565b5f9182526020909120600560069092020101805460ff191660018360048111156149d4576149d4614b23565b02179055505b806149e481615371565b915050614952565b5050505050565b6040518060c001604052805f6001600160a01b031681526020016060815260200160608152602001606081526020015f81526020015f6004811115614a3a57614a3a614b23565b905290565b508054614a4b90614f3d565b5f825580601f10614a5a575050565b601f0160209004905f5260205f20908101906127e191905b80821115614a85575f8155600101614a72565b5090565b5f5b83811015614aa3578181015183820152602001614a8b565b50505f910152565b5f8151808452614ac2816020860160208601614a89565b601f01601f19169290920160200192915050565b602081525f614ae86020830184614aab565b9392505050565b80356001600160a01b0381168114614b05575f80fd5b919050565b5f60208284031215614b1a575f80fd5b614ae882614aef565b634e487b7160e01b5f52602160045260245ffd5b60058110614b5357634e487b7160e01b5f52602160045260245ffd5b9052565b6001600160a01b038716815260c0602082018190525f90614b7a90830188614aab565b8281036040840152614b8c8188614aab565b90508281036060840152614ba08187614aab565b915050836080830152614bb660a0830184614b37565b979650505050505050565b5f8060408385031215614bd2575f80fd5b614bdb83614aef565b946020939093013593505050565b634e487b7160e01b5f52604160045260245ffd5b5f82601f830112614c0c575f80fd5b813567ffffffffffffffff80821115614c2757614c27614be9565b604051601f8301601f19908116603f01168101908282118183101715614c4f57614c4f614be9565b81604052838152866020858801011115614c67575f80fd5b836020870160208301375f602085830101528094505050505092915050565b5f60208284031215614c96575f80fd5b813567ffffffffffffffff811115614cac575f80fd5b614cb884828501614bfd565b949350505050565b60018060a01b0381511682525f602082015160c06020850152614ce660c0850182614aab565b905060408301518482036040860152614cff8282614aab565b91505060608301518482036060860152614d198282614aab565b9150506080830151608085015260a0830151614d3860a0860182614b37565b509392505050565b5f602080830181845280855180835260408601915060408160051b87010192508387015f5b82811015614d9357603f19888603018452614d81858351614cc0565b94509285019290850190600101614d65565b5092979650505050505050565b5f8060408385031215614db1575f80fd5b614dba83614aef565b9150602083013567ffffffffffffffff811115614dd5575f80fd5b614de185828601614bfd565b9150509250929050565b5f805f60608486031215614dfd575f80fd5b614e0684614aef565b9250614e1460208501614aef565b9150604084013590509250925092565b602081525f614ae86020830184614cc0565b602081016107848284614b37565b5f8060408385031215614e55575f80fd5b614e5e83614aef565b9150614e6c60208401614aef565b90509250929050565b5f60208284031215614e85575f80fd5b5035919050565b5f805f60608486031215614e9e575f80fd5b614ea784614aef565b9250602084013567ffffffffffffffff80821115614ec3575f80fd5b614ecf87838801614bfd565b93506040860135915080821115614ee4575f80fd5b50614ef186828701614bfd565b9150509250925092565b5f8060408385031215614f0c575f80fd5b823567ffffffffffffffff811115614f22575f80fd5b614f2e85828601614bfd565b95602094909401359450505050565b600181811c90821680614f5157607f821691505b602082108103614f6f57634e487b7160e01b5f52602260045260245ffd5b50919050565b5f8251614f86818460208701614a89565b9190910192915050565b60208082526027908201527f4163636573732064656e6965643a204e6f7420616e2041646d696e202d20526f6040820152663632aa37b5b2b760c91b606082015260800190565b601f821115611c8e575f81815260208120601f850160051c81016020861015614ffd5750805b601f850160051c820191505b8181101561501c57828155600101615009565b505050505050565b815167ffffffffffffffff81111561503e5761503e614be9565b6150528161504c8454614f3d565b84614fd7565b602080601f831160018114615085575f841561506e5750858301515b5f19600386901b1c1916600185901b17855561501c565b5f85815260208120601f198616915b828110156150b357888601518255948401946001909101908401615094565b50858210156150d057878501515f19600388901b60f8161c191681555b5050505050600190811b01905550565b60208082526031908201527f4163636573732064656e6965643a204e6f7420616e2041646d696e206f7220506040820152701c9a5b585c9e4811dc9bdd5c0812195859607a1b606082015260800190565b61513b8184614b37565b604060208201525f614cb86040830184614aab565b634e487b7160e01b5f52601160045260245ffd5b600181815b8085111561519e57815f190482111561518457615184615150565b8085161561519157918102915b93841c9390800290615169565b509250929050565b5f826151b457506001610784565b816151c057505f610784565b81600181146151d657600281146151e0576151fc565b6001915050610784565b60ff8411156151f1576151f1615150565b50506001821b610784565b5060208310610133831016604e8410600b841016171561521f575081810a610784565b6152298383615164565b805f190482111561523c5761523c615150565b029392505050565b5f614ae860ff8416836151a6565b808202811582820484141761078457610784615150565b634e487b7160e01b5f52603260045260245ffd5b8181038181111561078457610784615150565b81810361529b575050565b6152a58254614f3d565b67ffffffffffffffff8111156152bd576152bd614be9565b6152cb8161504c8454614f3d565b5f601f8211600181146152fc575f83156152e55750848201545b5f19600385901b1c1916600184901b1784556149ec565b5f85815260209020601f198416905f86815260209020845b838110156153345782860154825560019586019590910190602001615314565b50858310156150d0579301545f1960f8600387901b161c19169092555050600190811b01905550565b634e487b7160e01b5f52603160045260245ffd5b5f6001820161538257615382615150565b5060010190565b808201808211156107845761078461515056fe6f9e8382effc1f2659a04b480fc00e03e9ea704a05c90d74db22a5fb12ee46afa26469706673582212206ae4788584a8f572dc54b990332d9a9e1b2161d3eb5945efe6e4f46564ea50b664736f6c63430008150033",
  "immutableReferences": {},
  "source": "// SPDX-License-Identifier: MIT\r\npragma solidity ^0.8.0;\r\n\r\nimport \"@openzeppelin/contracts/token/ERC20/ERC20.sol\";\r\nimport \"@openzeppelin/contracts/access/Ownable.sol\";\r\n\r\ncontract RoleToken is ERC20, Ownable {\r\n    bool public contractEnabled = true;\r\n\r\n    enum Role { NONE, ADMIN, PRIMARY_GROUP_HEAD, SECONDARY_GROUP_HEAD, REGULAR_MEMBER }\r\n    mapping(address => Role) private roles;\r\n\r\n    struct Member {\r\n        address memberAddress;\r\n        string name;\r\n        string memberType;\r\n        string status; // benign, suspicious, malicious\r\n        uint256 lastStatusUpdate; // Timestamp of the last status update\r\n        Role role;\r\n    }\r\n\r\n    mapping(string => Member[]) public localResourceTable; // Maps type to their regular members and secondary group heads\r\n    Member[] public globalResourceTable; // List of all primary heads\r\n    mapping(string => Member) public typeSecondaryHead; // Maps type to their secondary group heads\r\n    mapping(string => address) public typePrimaryHead; // Stores the address of the primary head for each type\r\n    mapping(address => Member) public members; // keep all members' information\r\n\r\n    event RoleAssigned(address indexed memberAddress, Role role, string memberType);\r\n\r\n    constructor(address initialAdmin) ERC20(\"RoleToken\", \"RTK\") Ownable(initialAdmin) {\r\n        _mint(initialAdmin, 10000000 * 10 ** decimals());\r\n        transferOwnership(initialAdmin);\r\n        roles[initialAdmin] = Role.ADMIN;\r\n    }\r\n\r\n    modifier onlyAdmin() {\r\n        require(roles[msg.sender] == Role.ADMIN, \"Access denied: Not an Admin - RoleToken\");\r\n        _;\r\n    }\r\n\r\n    modifier onlyPrimaryGroupHeadOrAdmin() {\r\n        require(roles[msg.sender] == Role.ADMIN || roles[msg.sender] == Role.PRIMARY_GROUP_HEAD, \"Access denied: Not an Admin or Primary Group Head\");\r\n        _;\r\n    }\r\n\r\n    function mint(address to, uint256 amount) public onlyPrimaryGroupHeadOrAdmin {\r\n        require(contractEnabled, \"Contract is disabled\");\r\n        _mint(to, amount);\r\n    }\r\n\r\n    function assignAdminRole(address deployer, address contractAddress) public onlyAdmin {\r\n        require(roles[deployer] == Role.ADMIN, \"Creator is not admin\");\r\n        roles[contractAddress] = Role.ADMIN;\r\n        mint(contractAddress, 10000000 * 10 ** decimals());\r\n    }\r\n\r\n    function disableContract() public onlyAdmin {\r\n        require(contractEnabled, \"Contract is already disabled\");\r\n        contractEnabled = false;\r\n    }\r\n\r\n    function enableContract() public onlyAdmin {\r\n        require(!contractEnabled, \"Contract is already enabled\");\r\n        contractEnabled = true;\r\n    }\r\n\r\n    function assignRole(address _memberAddress, string memory _name, string memory _memberType) external {\r\n        require(roles[_memberAddress] == Role(0), \"Member already has a role\");\r\n\r\n        if (typePrimaryHead[_memberType] == address(0)) {\r\n            // If no primary head exists for this type, assign as PRIMARY_GROUP_HEAD\r\n            roles[_memberAddress] = Role.PRIMARY_GROUP_HEAD;\r\n            Member memory newPrimaryHead = Member(_memberAddress, _name, _memberType, \"BENIGN\", block.timestamp, Role.PRIMARY_GROUP_HEAD);\r\n            globalResourceTable.push(newPrimaryHead); // Add to global resource table\r\n            typePrimaryHead[_memberType] = _memberAddress; // Store the primary head's address for this type\r\n            mint(_memberAddress, 1000000 * 10 ** decimals()); // Mint tokens for PRIMARY_GROUP_HEAD\r\n            members[_memberAddress] = newPrimaryHead; // Update members mapping\r\n            emit RoleAssigned(_memberAddress, Role.PRIMARY_GROUP_HEAD, _memberType);\r\n        }\r\n        else if (typeSecondaryHead[_memberType].memberAddress == address(0)) {\r\n            // Assign as SECONDARY_GROUP_HEAD if no secondary group heads exist for this type\r\n            roles[_memberAddress] = Role.SECONDARY_GROUP_HEAD;\r\n            Member memory newSecondaryHead = Member(_memberAddress, _name, _memberType, \"BENIGN\", block.timestamp, Role.SECONDARY_GROUP_HEAD);\r\n            localResourceTable[_memberType].push(newSecondaryHead); // Add to local resource table\r\n            typeSecondaryHead[_memberType] = newSecondaryHead; // Set to secondary group heads mapping\r\n            mint(_memberAddress, 500000 * 10 ** decimals()); // Mint tokens for SECONDARY_GROUP_HEAD\r\n            members[_memberAddress] = newSecondaryHead; // Update members mapping\r\n            emit RoleAssigned(_memberAddress, Role.SECONDARY_GROUP_HEAD, _memberType);\r\n        } else {\r\n            // Otherwise, assign as REGULAR_MEMBER under the existing primary head\r\n            roles[_memberAddress] = Role.REGULAR_MEMBER;\r\n            Member memory newMember = Member(_memberAddress, _name, _memberType, \"BENIGN\", block.timestamp, Role.REGULAR_MEMBER);\r\n            localResourceTable[_memberType].push(newMember); // Add to local resource table\r\n            mint(_memberAddress, 100000 * 10 ** decimals()); // Mint tokens for REGULAR_MEMBER\r\n            members[_memberAddress] = newMember; // Update members mapping\r\n            emit RoleAssigned(_memberAddress, Role.REGULAR_MEMBER, _memberType);\r\n        }\r\n    }\r\n\r\n    function swapRole(address account1, address account2) external onlyAdmin {\r\n        require(roles[account1] != Role.NONE && roles[account2] != Role.NONE, \"Both accounts must have roles\");\r\n        require(roles[account1] != roles[account2], \"Accounts must have different roles\");\r\n\r\n        // Retrieve the current roles and member types\r\n        Role role1 = roles[account1];\r\n        Role role2 = roles[account2];\r\n        string memory memberType1 = members[account1].memberType;\r\n        string memory memberType2 = members[account2].memberType;\r\n\r\n        // Ensure both accounts are in the same member type\r\n        require(keccak256(bytes(memberType1)) == keccak256(bytes(memberType2)), \"Accounts must be in the same member type\");\r\n\r\n        // Remove account1's role\r\n        removeRoleFromMappings(account1, memberType1);\r\n\r\n        // Remove account2's role\r\n        removeRoleFromMappings(account2, memberType2);\r\n\r\n        // Swap roles\r\n        roles[account1] = role2;\r\n        roles[account2] = role1;\r\n\r\n        // Update account1's and account2's member information\r\n        members[account1].role = role2;\r\n        members[account2].role = role1;\r\n\r\n        // Add account1's new role\r\n        assignRoleToMappings(account1, memberType2, role2);\r\n\r\n        // Add account2's new role\r\n        assignRoleToMappings(account2, memberType1, role1);\r\n\r\n        emit RoleAssigned(account1, role2, memberType2);\r\n        emit RoleAssigned(account2, role1, memberType1);\r\n    }\r\n\r\n    function removeRoleFromMappings(address account, string memory memberType) internal {\r\n        Role role = roles[account];\r\n        if (role == Role.PRIMARY_GROUP_HEAD) {\r\n            // Remove from global resource table and typePrimaryHead\r\n            for (uint256 i = 0; i < globalResourceTable.length; i++) {\r\n                if (globalResourceTable[i].memberAddress == account) {\r\n                    globalResourceTable[i] = globalResourceTable[globalResourceTable.length - 1];\r\n                    globalResourceTable.pop();\r\n                    break;\r\n                }\r\n            }\r\n            if (typePrimaryHead[memberType] == account) {\r\n                delete typePrimaryHead[memberType];\r\n            }\r\n        } else if (role == Role.SECONDARY_GROUP_HEAD) {\r\n            if (typeSecondaryHead[memberType].memberAddress == account) {\r\n                delete typeSecondaryHead[memberType];\r\n            }\r\n\r\n            // Remove from local resource table\r\n            for (uint256 i = 0; i < localResourceTable[memberType].length; i++) {\r\n                if (localResourceTable[memberType][i].memberAddress == account) {\r\n                    localResourceTable[memberType][i] = localResourceTable[memberType][localResourceTable[memberType].length - 1];\r\n                    localResourceTable[memberType].pop();\r\n                    break;\r\n                }\r\n            }\r\n        } else if (role == Role.REGULAR_MEMBER) {\r\n            for (uint256 i = 0; i < localResourceTable[memberType].length; i++) {\r\n                if (localResourceTable[memberType][i].memberAddress == account) {\r\n                    localResourceTable[memberType][i] = localResourceTable[memberType][localResourceTable[memberType].length - 1];\r\n                    localResourceTable[memberType].pop();\r\n                    break;\r\n                }\r\n            }\r\n        }\r\n        delete roles[account];\r\n    }\r\n\r\n    function assignRoleToMappings(address account, string memory memberType, Role role) internal {\r\n        if (role == Role.PRIMARY_GROUP_HEAD) {\r\n            globalResourceTable.push(Member(account, members[account].name, memberType, members[account].status, members[account].lastStatusUpdate, role));\r\n            typePrimaryHead[memberType] = account;\r\n        } else if (role == Role.SECONDARY_GROUP_HEAD) {\r\n            localResourceTable[memberType].push(Member(account, members[account].name, memberType, members[account].status, members[account].lastStatusUpdate, role));\r\n            typeSecondaryHead[memberType] = Member(account, members[account].name, memberType, members[account].status, members[account].lastStatusUpdate, role);\r\n        } else if (role == Role.REGULAR_MEMBER) {\r\n            localResourceTable[memberType].push(Member(account, members[account].name, memberType, members[account].status, members[account].lastStatusUpdate, role));\r\n        }\r\n    }\r\n\r\n    // Revoke roles and manage promotion logic for primary and secondary group heads\r\n    function revokeRole(address account) external onlyAdmin {\r\n        Role revokedRole = roles[account];\r\n        string memory memberType = members[account].memberType;\r\n\r\n        require(revokedRole == Role.PRIMARY_GROUP_HEAD || revokedRole == Role.SECONDARY_GROUP_HEAD || revokedRole == Role.REGULAR_MEMBER, \"Account does not have a role\");\r\n\r\n        if (revokedRole == Role.PRIMARY_GROUP_HEAD) {\r\n            _handlePrimaryHeadRevocation(memberType, account);\r\n        } else if (revokedRole == Role.SECONDARY_GROUP_HEAD) {\r\n            _handleSecondaryHeadRevocation(memberType, account);\r\n        } else if (revokedRole == Role.REGULAR_MEMBER) {\r\n            _removeFromLocalResourceTable(memberType, account);\r\n        }\r\n\r\n        roles[account] = Role.NONE;\r\n        delete members[account]; // Remove from members\r\n        _burn(account, balanceOf(account));\r\n    }\r\n\r\n    function _handlePrimaryHeadRevocation(string memory memberType, address account) internal {\r\n        // Remove from globalResourceTable and typePrimaryHead\r\n        _removeFromGlobalResourceTable(account);\r\n        delete typePrimaryHead[memberType];\r\n\r\n        // Promote Secondary Group Head to Primary Group Head if exists\r\n        if (typeSecondaryHead[memberType].memberAddress != address(0)) {\r\n            address secondaryHeadAddr = typeSecondaryHead[memberType].memberAddress;\r\n            delete typeSecondaryHead[memberType];\r\n            _promoteToPrimaryGroupHead(memberType, secondaryHeadAddr);\r\n\r\n            // After promoting the Secondary Head to Primary, promote the Regular Member with highest token balance to Secondary Group Head\r\n            address highestTokenMember = _findMemberWithHighestTokens(memberType);\r\n            if (highestTokenMember != address(0)) {\r\n                _promoteToSecondaryGroupHead(memberType, highestTokenMember);\r\n            }\r\n        }\r\n    }\r\n\r\n    function _handleSecondaryHeadRevocation(string memory memberType, address account) internal {\r\n        // Remove from localResourceTable and typeSecondaryHead\r\n        _removeFromLocalResourceTable(memberType, account);\r\n        delete typeSecondaryHead[memberType];\r\n\r\n        // Promote the Regular Member with the highest token balance to Secondary Group Head\r\n        address highestTokenMember = _findMemberWithHighestTokens(memberType);\r\n        if (highestTokenMember != address(0)) {\r\n            _promoteToSecondaryGroupHead(memberType, highestTokenMember);\r\n        }\r\n    }\r\n\r\n    // Promote Regular Member with highest token balance to Secondary Group Head\r\n    function _promoteToSecondaryGroupHead(string memory memberType, address account) internal {\r\n        roles[account] = Role.SECONDARY_GROUP_HEAD;\r\n        _editFromLocalResourceTable(memberType, account, Role.SECONDARY_GROUP_HEAD); // Remove secondary head from local table\r\n        members[account].role = Role.SECONDARY_GROUP_HEAD;\r\n        typeSecondaryHead[memberType] = members[account]; // Set as secondary head for the resourceType\r\n    }\r\n\r\n    // Find the regular member with the highest token balance in the given resource type\r\n    function _findMemberWithHighestTokens(string memory memberType) internal view returns (address) {\r\n        uint256 highestBalance = 0;\r\n        address highestMember = address(0);\r\n\r\n        Member[] memory membersInResource = localResourceTable[memberType];\r\n\r\n        for (uint256 i = 0; i < membersInResource.length; i++) {\r\n            address memberAddr = membersInResource[i].memberAddress;\r\n            if (roles[memberAddr] == Role.REGULAR_MEMBER) {\r\n                uint256 balance = balanceOf(memberAddr);\r\n\r\n                if (balance > highestBalance) {\r\n                    highestBalance = balance;\r\n                    highestMember = memberAddr;\r\n                }\r\n            }\r\n        }\r\n        return highestMember;\r\n    }\r\n\r\n    // Remove from global resource table (for Primary Group Head)\r\n    function _removeFromGlobalResourceTable(address account) internal {\r\n        for (uint256 i = 0; i < globalResourceTable.length; i++) {\r\n            if (globalResourceTable[i].memberAddress == account) {\r\n                globalResourceTable[i] = globalResourceTable[globalResourceTable.length - 1];\r\n                globalResourceTable.pop();\r\n                break;\r\n            }\r\n        }\r\n    }\r\n\r\n    // Promote Secondary to Primary Group Head\r\n    function _promoteToPrimaryGroupHead(string memory memberType, address account) internal {\r\n        roles[account] = Role.PRIMARY_GROUP_HEAD;\r\n        members[account].role = Role.PRIMARY_GROUP_HEAD;\r\n        _removeFromLocalResourceTable(memberType, account); // Remove secondary head from local table\r\n        globalResourceTable.push(members[account]); // Add to global resource table\r\n        typePrimaryHead[memberType] = account; // Set as primary head for the memberType\r\n    }\r\n\r\n    // Remove from local resource table (for Secondary Group Head or Regular Members)\r\n    function _removeFromLocalResourceTable(string memory memberType, address account) internal {\r\n        Member[] storage membersInResource = localResourceTable[memberType];\r\n        \r\n        for (uint256 i = 0; i < membersInResource.length; i++) {\r\n            if (membersInResource[i].memberAddress == account) {\r\n                membersInResource[i] = membersInResource[membersInResource.length - 1];\r\n                membersInResource.pop();\r\n                break;\r\n            }\r\n        }\r\n    }\r\n\r\n    // Remove from local resource table (for Secondary Group Head or Regular Members)\r\n    function _editFromLocalResourceTable(string memory memberType, address account, Role role) internal {\r\n        Member[] storage membersInResource = localResourceTable[memberType];\r\n        \r\n        for (uint256 i = 0; i < membersInResource.length; i++) {\r\n            if (membersInResource[i].memberAddress == account) {\r\n                membersInResource[i].role = role;\r\n            }\r\n        }\r\n    }\r\n\r\n    function getRole(address account) public view returns (Role) {\r\n        return roles[account];\r\n    }\r\n\r\n    function getLocalResourceTable(string memory memberType) external view returns (Member[] memory) {\r\n        return localResourceTable[memberType];\r\n    }\r\n\r\n    function getGlobalResourceTable() external view onlyPrimaryGroupHeadOrAdmin returns (Member[] memory) {\r\n        return globalResourceTable;\r\n    }\r\n\r\n    // Function to get the Member struct for a specific address\r\n    function getMember(address _memberAddress) public view returns (Member memory) {\r\n        return members[_memberAddress];\r\n    }\r\n\r\n    function updateMemberStatus(address _memberAddress, string memory _newStatus) external onlyAdmin {\r\n        members[_memberAddress].status = _newStatus;\r\n        members[_memberAddress].lastStatusUpdate = block.timestamp;\r\n    }\r\n\r\n    function penalizeMember(address _memberAddress, uint256 _amount) external onlyAdmin {\r\n        _burn(_memberAddress, _amount);\r\n    }\r\n\r\n    function rewardMember(address _memberAddress, uint256 _amount) external onlyAdmin {\r\n        _mint(_memberAddress, _amount);\r\n    }\r\n\r\n    // Function to get the address of the primary head for a regular member\r\n    function getPrimaryHeadAddress(address memberAddress) public view returns (address) {\r\n        Member memory member = members[memberAddress];\r\n    \r\n        // Ensure the provided address is either a regular member or a secondary group head\r\n        require(member.role == Role.REGULAR_MEMBER || member.role == Role.SECONDARY_GROUP_HEAD, \"Address does not have a valid role\");\r\n\r\n        // Retrieve the primary head associated with the member's type\r\n        address primaryHead = typePrimaryHead[member.memberType];\r\n        \r\n        return primaryHead;\r\n    }\r\n}",
  "sourcePath": "D:\\Desktop\\Dersler\\2024\\thesis\\Contracts\\contracts_v2 - test\\contracts\\RoleToken.sol",
  "compiler": {
    "name": "solc",
    "version": "0.8.21+commit.d9974bed.Emscripten.clang"
  },
  "schemaVersion": "3.4.16",
  "updatedAt": "2024-12-19T18:38:01.797Z",
  "devdoc": {
    "errors": {
      "ERC20InsufficientAllowance(address,uint256,uint256)": [
        {
          "details": "Indicates a failure with the `spender`s `allowance`. Used in transfers.",
          "params": {
            "allowance": "Amount of tokens a `spender` is allowed to operate with.",
            "needed": "Minimum amount required to perform a transfer.",
            "spender": "Address that may be allowed to operate on tokens without being their owner."
          }
        }
      ],
      "ERC20InsufficientBalance(address,uint256,uint256)": [
        {
          "details": "Indicates an error related to the current `balance` of a `sender`. Used in transfers.",
          "params": {
            "balance": "Current balance for the interacting account.",
            "needed": "Minimum amount required to perform a transfer.",
            "sender": "Address whose tokens are being transferred."
          }
        }
      ],
      "ERC20InvalidApprover(address)": [
        {
          "details": "Indicates a failure with the `approver` of a token to be approved. Used in approvals.",
          "params": {
            "approver": "Address initiating an approval operation."
          }
        }
      ],
      "ERC20InvalidReceiver(address)": [
        {
          "details": "Indicates a failure with the token `receiver`. Used in transfers.",
          "params": {
            "receiver": "Address to which tokens are being transferred."
          }
        }
      ],
      "ERC20InvalidSender(address)": [
        {
          "details": "Indicates a failure with the token `sender`. Used in transfers.",
          "params": {
            "sender": "Address whose tokens are being transferred."
          }
        }
      ],
      "ERC20InvalidSpender(address)": [
        {
          "details": "Indicates a failure with the `spender` to be approved. Used in approvals.",
          "params": {
            "spender": "Address that may be allowed to operate on tokens without being their owner."
          }
        }
      ],
      "OwnableInvalidOwner(address)": [
        {
          "details": "The owner is not a valid owner account. (eg. `address(0)`)"
        }
      ],
      "OwnableUnauthorizedAccount(address)": [
        {
          "details": "The caller account is not authorized to perform an operation."
        }
      ]
    },
    "events": {
      "Approval(address,address,uint256)": {
        "details": "Emitted when the allowance of a `spender` for an `owner` is set by a call to {approve}. `value` is the new allowance."
      },
      "Transfer(address,address,uint256)": {
        "details": "Emitted when `value` tokens are moved from one account (`from`) to another (`to`). Note that `value` may be zero."
      }
    },
    "kind": "dev",
    "methods": {
      "allowance(address,address)": {
        "details": "See {IERC20-allowance}."
      },
      "approve(address,uint256)": {
        "details": "See {IERC20-approve}. NOTE: If `value` is the maximum `uint256`, the allowance is not updated on `transferFrom`. This is semantically equivalent to an infinite approval. Requirements: - `spender` cannot be the zero address."
      },
      "balanceOf(address)": {
        "details": "See {IERC20-balanceOf}."
      },
      "decimals()": {
        "details": "Returns the number of decimals used to get its user representation. For example, if `decimals` equals `2`, a balance of `505` tokens should be displayed to a user as `5.05` (`505 / 10 ** 2`). Tokens usually opt for a value of 18, imitating the relationship between Ether and Wei. This is the default value returned by this function, unless it's overridden. NOTE: This information is only used for _display_ purposes: it in no way affects any of the arithmetic of the contract, including {IERC20-balanceOf} and {IERC20-transfer}."
      },
      "name()": {
        "details": "Returns the name of the token."
      },
      "owner()": {
        "details": "Returns the address of the current owner."
      },
      "renounceOwnership()": {
        "details": "Leaves the contract without owner. It will not be possible to call `onlyOwner` functions. Can only be called by the current owner. NOTE: Renouncing ownership will leave the contract without an owner, thereby disabling any functionality that is only available to the owner."
      },
      "symbol()": {
        "details": "Returns the symbol of the token, usually a shorter version of the name."
      },
      "totalSupply()": {
        "details": "See {IERC20-totalSupply}."
      },
      "transfer(address,uint256)": {
        "details": "See {IERC20-transfer}. Requirements: - `to` cannot be the zero address. - the caller must have a balance of at least `value`."
      },
      "transferFrom(address,address,uint256)": {
        "details": "See {IERC20-transferFrom}. Emits an {Approval} event indicating the updated allowance. This is not required by the EIP. See the note at the beginning of {ERC20}. NOTE: Does not update the allowance if the current allowance is the maximum `uint256`. Requirements: - `from` and `to` cannot be the zero address. - `from` must have a balance of at least `value`. - the caller must have allowance for ``from``'s tokens of at least `value`."
      },
      "transferOwnership(address)": {
        "details": "Transfers ownership of the contract to a new account (`newOwner`). Can only be called by the current owner."
      }
    },
    "version": 1
  },
  "userdoc": {
    "kind": "user",
    "methods": {},
    "version": 1
  }
}