{
  "contractName": "TableAccessControlContract",
  "abi": [
    {
      "inputs": [
        {
          "internalType": "address",
          "name": "_roleBasedAccessControl",
          "type": "address"
        },
        {
          "internalType": "address",
          "name": "_judgeContract",
          "type": "address"
        },
        {
          "internalType": "address",
          "name": "_registerContract",
          "type": "address"
        },
        {
          "internalType": "address",
          "name": "initialOwner",
          "type": "address"
        }
      ],
      "stateMutability": "nonpayable",
      "type": "constructor"
    },
    {
      "inputs": [
        {
          "internalType": "address",
          "name": "owner",
          "type": "address"
        }
      ],
      "name": "OwnableInvalidOwner",
      "type": "error"
    },
    {
      "inputs": [
        {
          "internalType": "address",
          "name": "account",
          "type": "address"
        }
      ],
      "name": "OwnableUnauthorizedAccount",
      "type": "error"
    },
    {
      "anonymous": false,
      "inputs": [
        {
          "indexed": true,
          "internalType": "address",
          "name": "requester",
          "type": "address"
        },
        {
          "indexed": false,
          "internalType": "string",
          "name": "reason",
          "type": "string"
        }
      ],
      "name": "AccessDenied",
      "type": "event"
    },
    {
      "anonymous": false,
      "inputs": [
        {
          "indexed": true,
          "internalType": "address",
          "name": "requester",
          "type": "address"
        },
        {
          "indexed": false,
          "internalType": "string",
          "name": "funcName",
          "type": "string"
        },
        {
          "indexed": false,
          "internalType": "string",
          "name": "funcType",
          "type": "string"
        }
      ],
      "name": "AccessGranted",
      "type": "event"
    },
    {
      "anonymous": false,
      "inputs": [
        {
          "indexed": true,
          "internalType": "uint256",
          "name": "requestId",
          "type": "uint256"
        },
        {
          "indexed": true,
          "internalType": "address",
          "name": "requester",
          "type": "address"
        },
        {
          "indexed": false,
          "internalType": "string",
          "name": "resource",
          "type": "string"
        },
        {
          "indexed": true,
          "internalType": "address",
          "name": "contractAddress",
          "type": "address"
        }
      ],
      "name": "AccessRequestCreated",
      "type": "event"
    },
    {
      "anonymous": false,
      "inputs": [
        {
          "indexed": true,
          "internalType": "address",
          "name": "viewer",
          "type": "address"
        },
        {
          "components": [
            {
              "internalType": "address",
              "name": "memberAddress",
              "type": "address"
            },
            {
              "internalType": "string",
              "name": "name",
              "type": "string"
            },
            {
              "internalType": "string",
              "name": "memberType",
              "type": "string"
            },
            {
              "internalType": "string",
              "name": "status",
              "type": "string"
            },
            {
              "internalType": "uint256",
              "name": "lastStatusUpdate",
              "type": "uint256"
            },
            {
              "internalType": "enum RoleToken.Role",
              "name": "role",
              "type": "uint8"
            }
          ],
          "indexed": false,
          "internalType": "struct RoleToken.Member[]",
          "name": "resourceTable",
          "type": "tuple[]"
        }
      ],
      "name": "GlobalResourceTableViewed",
      "type": "event"
    },
    {
      "anonymous": false,
      "inputs": [
        {
          "indexed": true,
          "internalType": "address",
          "name": "viewer",
          "type": "address"
        },
        {
          "components": [
            {
              "internalType": "address",
              "name": "memberAddress",
              "type": "address"
            },
            {
              "internalType": "string",
              "name": "name",
              "type": "string"
            },
            {
              "internalType": "string",
              "name": "memberType",
              "type": "string"
            },
            {
              "internalType": "string",
              "name": "status",
              "type": "string"
            },
            {
              "internalType": "uint256",
              "name": "lastStatusUpdate",
              "type": "uint256"
            },
            {
              "internalType": "enum RoleToken.Role",
              "name": "role",
              "type": "uint8"
            }
          ],
          "indexed": false,
          "internalType": "struct RoleToken.Member[]",
          "name": "resourceTable",
          "type": "tuple[]"
        }
      ],
      "name": "LocalResourceTableViewed",
      "type": "event"
    },
    {
      "anonymous": false,
      "inputs": [
        {
          "indexed": true,
          "internalType": "address",
          "name": "subject",
          "type": "address"
        },
        {
          "indexed": false,
          "internalType": "uint256",
          "name": "penaltyAmount",
          "type": "uint256"
        },
        {
          "indexed": false,
          "internalType": "string",
          "name": "reason",
          "type": "string"
        },
        {
          "indexed": false,
          "internalType": "uint256",
          "name": "blockingEndTime",
          "type": "uint256"
        }
      ],
      "name": "MaliciousActivityReported",
      "type": "event"
    },
    {
      "anonymous": false,
      "inputs": [
        {
          "indexed": true,
          "internalType": "address",
          "name": "subject",
          "type": "address"
        },
        {
          "indexed": false,
          "internalType": "uint256",
          "name": "rewardAmount",
          "type": "uint256"
        },
        {
          "indexed": false,
          "internalType": "string",
          "name": "newStatus",
          "type": "string"
        }
      ],
      "name": "NonPenalizeMisbehaviorReported",
      "type": "event"
    },
    {
      "anonymous": false,
      "inputs": [
        {
          "indexed": true,
          "internalType": "address",
          "name": "previousOwner",
          "type": "address"
        },
        {
          "indexed": true,
          "internalType": "address",
          "name": "newOwner",
          "type": "address"
        }
      ],
      "name": "OwnershipTransferred",
      "type": "event"
    },
    {
      "anonymous": false,
      "inputs": [
        {
          "indexed": false,
          "internalType": "uint256",
          "name": "policyId",
          "type": "uint256"
        },
        {
          "indexed": false,
          "internalType": "enum RoleToken.Role",
          "name": "role",
          "type": "uint8"
        },
        {
          "indexed": false,
          "internalType": "string",
          "name": "resource",
          "type": "string"
        },
        {
          "indexed": false,
          "internalType": "string",
          "name": "action",
          "type": "string"
        },
        {
          "indexed": false,
          "internalType": "string",
          "name": "permission",
          "type": "string"
        }
      ],
      "name": "PolicyAdded",
      "type": "event"
    },
    {
      "anonymous": false,
      "inputs": [
        {
          "indexed": false,
          "internalType": "uint256",
          "name": "policyId",
          "type": "uint256"
        }
      ],
      "name": "PolicyDeleted",
      "type": "event"
    },
    {
      "anonymous": false,
      "inputs": [
        {
          "indexed": false,
          "internalType": "uint256",
          "name": "policyId",
          "type": "uint256"
        },
        {
          "indexed": false,
          "internalType": "enum RoleToken.Role",
          "name": "role",
          "type": "uint8"
        },
        {
          "indexed": false,
          "internalType": "string",
          "name": "resource",
          "type": "string"
        },
        {
          "indexed": false,
          "internalType": "string",
          "name": "action",
          "type": "string"
        },
        {
          "indexed": false,
          "internalType": "string",
          "name": "permission",
          "type": "string"
        }
      ],
      "name": "PolicyUpdated",
      "type": "event"
    },
    {
      "anonymous": false,
      "inputs": [
        {
          "indexed": false,
          "internalType": "address",
          "name": "resolvedAddress",
          "type": "address"
        },
        {
          "indexed": false,
          "internalType": "string",
          "name": "name",
          "type": "string"
        }
      ],
      "name": "ResolveAddressLog",
      "type": "event"
    },
    {
      "inputs": [
        {
          "internalType": "uint256",
          "name": "",
          "type": "uint256"
        }
      ],
      "name": "accessRequests",
      "outputs": [
        {
          "internalType": "uint256",
          "name": "id",
          "type": "uint256"
        },
        {
          "internalType": "string",
          "name": "resource",
          "type": "string"
        },
        {
          "internalType": "string",
          "name": "action",
          "type": "string"
        },
        {
          "internalType": "uint256",
          "name": "approvals",
          "type": "uint256"
        },
        {
          "internalType": "address",
          "name": "requester",
          "type": "address"
        },
        {
          "internalType": "bool",
          "name": "isGlobalRequest",
          "type": "bool"
        },
        {
          "internalType": "bool",
          "name": "isApproved",
          "type": "bool"
        },
        {
          "internalType": "uint256",
          "name": "requiredQuorum",
          "type": "uint256"
        }
      ],
      "stateMutability": "view",
      "type": "function"
    },
    {
      "inputs": [
        {
          "internalType": "uint256",
          "name": "",
          "type": "uint256"
        },
        {
          "internalType": "address",
          "name": "",
          "type": "address"
        }
      ],
      "name": "approvals",
      "outputs": [
        {
          "internalType": "bool",
          "name": "",
          "type": "bool"
        }
      ],
      "stateMutability": "view",
      "type": "function"
    },
    {
      "inputs": [],
      "name": "judgeContract",
      "outputs": [
        {
          "internalType": "contract JudgeContract",
          "name": "",
          "type": "address"
        }
      ],
      "stateMutability": "view",
      "type": "function"
    },
    {
      "inputs": [],
      "name": "owner",
      "outputs": [
        {
          "internalType": "address",
          "name": "",
          "type": "address"
        }
      ],
      "stateMutability": "view",
      "type": "function"
    },
    {
      "inputs": [
        {
          "internalType": "uint256",
          "name": "",
          "type": "uint256"
        }
      ],
      "name": "policies",
      "outputs": [
        {
          "internalType": "enum RoleToken.Role",
          "name": "role",
          "type": "uint8"
        },
        {
          "internalType": "string",
          "name": "resource",
          "type": "string"
        },
        {
          "internalType": "string",
          "name": "action",
          "type": "string"
        },
        {
          "internalType": "string",
          "name": "permission",
          "type": "string"
        },
        {
          "internalType": "uint256",
          "name": "timeOfLastRequest",
          "type": "uint256"
        }
      ],
      "stateMutability": "view",
      "type": "function"
    },
    {
      "inputs": [],
      "name": "quorumPercentage",
      "outputs": [
        {
          "internalType": "uint256",
          "name": "",
          "type": "uint256"
        }
      ],
      "stateMutability": "view",
      "type": "function"
    },
    {
      "inputs": [],
      "name": "registerContract",
      "outputs": [
        {
          "internalType": "contract RegisterContract",
          "name": "",
          "type": "address"
        }
      ],
      "stateMutability": "view",
      "type": "function"
    },
    {
      "inputs": [],
      "name": "renounceOwnership",
      "outputs": [],
      "stateMutability": "nonpayable",
      "type": "function"
    },
    {
      "inputs": [],
      "name": "roleBasedAccessControl",
      "outputs": [
        {
          "internalType": "contract RoleBasedAccessControl",
          "name": "",
          "type": "address"
        }
      ],
      "stateMutability": "view",
      "type": "function"
    },
    {
      "inputs": [
        {
          "internalType": "address",
          "name": "newOwner",
          "type": "address"
        }
      ],
      "name": "transferOwnership",
      "outputs": [],
      "stateMutability": "nonpayable",
      "type": "function"
    },
    {
      "inputs": [
        {
          "internalType": "enum RoleToken.Role",
          "name": "role",
          "type": "uint8"
        },
        {
          "internalType": "string",
          "name": "resource",
          "type": "string"
        },
        {
          "internalType": "string",
          "name": "action",
          "type": "string"
        },
        {
          "internalType": "string",
          "name": "permission",
          "type": "string"
        }
      ],
      "name": "policyAdd",
      "outputs": [],
      "stateMutability": "nonpayable",
      "type": "function"
    },
    {
      "inputs": [
        {
          "internalType": "uint256",
          "name": "policyId",
          "type": "uint256"
        },
        {
          "internalType": "enum RoleToken.Role",
          "name": "role",
          "type": "uint8"
        },
        {
          "internalType": "string",
          "name": "resource",
          "type": "string"
        },
        {
          "internalType": "string",
          "name": "action",
          "type": "string"
        },
        {
          "internalType": "string",
          "name": "permission",
          "type": "string"
        }
      ],
      "name": "policyUpdate",
      "outputs": [],
      "stateMutability": "nonpayable",
      "type": "function"
    },
    {
      "inputs": [
        {
          "internalType": "uint256",
          "name": "policyId",
          "type": "uint256"
        }
      ],
      "name": "policyDelete",
      "outputs": [],
      "stateMutability": "nonpayable",
      "type": "function"
    },
    {
      "inputs": [],
      "name": "getTime",
      "outputs": [
        {
          "internalType": "uint256",
          "name": "",
          "type": "uint256"
        },
        {
          "internalType": "bool",
          "name": "",
          "type": "bool"
        }
      ],
      "stateMutability": "view",
      "type": "function"
    },
    {
      "inputs": [
        {
          "internalType": "string",
          "name": "resource",
          "type": "string"
        },
        {
          "internalType": "string",
          "name": "action",
          "type": "string"
        }
      ],
      "name": "createAccessRequest",
      "outputs": [],
      "stateMutability": "nonpayable",
      "type": "function"
    },
    {
      "inputs": [
        {
          "internalType": "uint256",
          "name": "requestId",
          "type": "uint256"
        },
        {
          "internalType": "bool",
          "name": "approve",
          "type": "bool"
        }
      ],
      "name": "handleAccessRequest",
      "outputs": [],
      "stateMutability": "nonpayable",
      "type": "function"
    },
    {
      "inputs": [],
      "name": "viewGlobalResourceTable",
      "outputs": [],
      "stateMutability": "nonpayable",
      "type": "function"
    },
    {
      "inputs": [
        {
          "internalType": "address",
          "name": "account1",
          "type": "address"
        },
        {
          "internalType": "address",
          "name": "account2",
          "type": "address"
        }
      ],
      "name": "editGlobalResourceTable",
      "outputs": [],
      "stateMutability": "nonpayable",
      "type": "function"
    },
    {
      "inputs": [
        {
          "internalType": "address",
          "name": "account",
          "type": "address"
        }
      ],
      "name": "deleteGlobalResourceTable",
      "outputs": [],
      "stateMutability": "nonpayable",
      "type": "function"
    },
    {
      "inputs": [],
      "name": "viewLocalResourceTable",
      "outputs": [],
      "stateMutability": "nonpayable",
      "type": "function"
    },
    {
      "inputs": [
        {
          "internalType": "address",
          "name": "account1",
          "type": "address"
        },
        {
          "internalType": "address",
          "name": "account2",
          "type": "address"
        }
      ],
      "name": "editLocalResourceTable",
      "outputs": [],
      "stateMutability": "nonpayable",
      "type": "function"
    },
    {
      "inputs": [
        {
          "internalType": "address",
          "name": "account",
          "type": "address"
        }
      ],
      "name": "deleteLocalResourceTable",
      "outputs": [],
      "stateMutability": "nonpayable",
      "type": "function"
    }
  ],
  "bytecode": "0x6080604052603360045534801562000015575f80fd5b5060405162004a8138038062004a81833981016040819052620000389162000122565b806001600160a01b0381166200006757604051631e4fbdf760e01b81525f600482015260240160405180910390fd5b6200007281620000b7565b5050600180546001600160a01b039485166001600160a01b0319918216179091556002805493851693821693909317909255600380549190931691161790556200017c565b5f80546001600160a01b038381166001600160a01b0319831681178455604051919092169283917f8be0079c531659141344cd1fd0a4f28419497f9722a3daafe3b4186f6b6457e09190a35050565b80516001600160a01b03811681146200011d575f80fd5b919050565b5f805f806080858703121562000136575f80fd5b620001418562000106565b9350620001516020860162000106565b9250620001616040860162000106565b9150620001716060860162000106565b905092959194509250565b6148f7806200018a5f395ff3fe608060405234801561000f575f80fd5b506004361061013d575f3560e01c8063715018a6116100b4578063a39610a011610079578063a39610a01461028e578063ab2850da146102a1578063b3b4c20a146102de578063d3e89483146102f1578063d6b683fc14610315578063f2fde38b14610328575f80fd5b8063715018a6146102295780637feffff3146102315780638ca91a9a146102445780638da5cb5b1461026b5780638eee05be1461027b575f80fd5b80634fa76ec9116101055780634fa76ec9146101b457806355668260146101cb578063557ed1ba146101de5780636293902f146101fb57806362f2788a146102035780636391b48814610216575f80fd5b80630c317f06146101415780630d9f7ed414610171578063235fd7e21461018657806337930faf146101995780633c2b363a146101a1575b5f80fd5b600154610154906001600160a01b031681565b6040516001600160a01b0390911681526020015b60405180910390f35b61018461017f366004613b32565b61033b565b005b610184610194366004613bd0565b6104a3565b610184610584565b6101846101af366004613be7565b610b4b565b6101bd60045481565b604051908152602001610168565b6101846101d9366004613c19565b610fc0565b6101e6611683565b60408051928352901515602083015201610168565b610184611709565b610184610211366004613c8d565b611b65565b610184610224366004613ca8565b61210e565b610184612232565b600354610154906001600160a01b031681565b610257610252366004613bd0565b612245565b604051610168989796959493929190613d8a565b5f546001600160a01b0316610154565b610184610289366004613dee565b6123b7565b61018461029c366004613c8d565b612b83565b6102ce6102af366004613e1a565b600760209081525f928352604080842090915290825290205460ff1681565b6040519015158152602001610168565b6101846102ec366004613dee565b6130ba565b6103046102ff366004613bd0565b6135f8565b604051610168959493929190613e71565b600254610154906001600160a01b031681565b610184610336366004613c8d565b6137ce565b61034361380b565b60055485106103915760405162461bcd60e51b8152602060048201526015602482015274141bdb1a58de48191bd95cc81b9bdd08195e1a5cdd605a1b60448201526064015b60405180910390fd5b6040518060a001604052808560048111156103ae576103ae613e3d565b81526020018481526020018381526020018281526020015f815250600586815481106103dc576103dc613ec9565b5f918252602090912082516005909202018054909190829060ff1916600183600481111561040c5761040c613e3d565b0217905550602082015160018201906104259082613f5a565b506040820151600282019061043a9082613f5a565b506060820151600382019061044f9082613f5a565b50608082015181600401559050507f4a878bb267cedaa636258d749db7a5ac8f0cc2338419d6b0429443d8a11d54708585858585604051610494959493929190614016565b60405180910390a15050505050565b6104ab61380b565b60055481106104f45760405162461bcd60e51b8152602060048201526015602482015274141bdb1a58de48191bd95cc81b9bdd08195e1a5cdd605a1b6044820152606401610388565b6005818154811061050757610507613ec9565b5f91825260208220600590910201805460ff191681559061052b60018301826139f5565b610538600283015f6139f5565b610545600383015f6139f5565b505f600491909101556040518181527f433ab09ab993382af577c4a70f77dcc7cf149b5b52eb40d19b869664bfb5496d9060200160405180910390a150565b6002546040516301c2084f60e31b81523360048201525f916001600160a01b031690630e10427890602401602060405180830381865afa1580156105ca573d5f803e3d5ffd5b505050506040513d601f19601f820116820180604052508101906105ee919061406d565b905080421161060f5760405162461bcd60e51b815260040161038890614084565b604051806040016040528060128152602001714c6f63616c5265736f757263655461626c6560701b815250604051806040016040528060048152602001637669657760e01b8152505f805b6006548110156107b157336001600160a01b03166006828154811061068157610681613ec9565b5f9182526020909120600460069092020101546001600160a01b03161480156106d65750600681815481106106b8576106b8613ec9565b905f5260205f20906006020160040160159054906101000a900460ff165b1561079f578380519060200120600682815481106106f6576106f6613ec9565b905f5260205f20906006020160010160405161071291906140cc565b6040518091039020148015610763575082805190602001206006828154811061073d5761073d613ec9565b905f5260205f20906006020160020160405161075991906140cc565b6040518091039020145b1561079f576006818154811061077b5761077b613ec9565b905f5260205f20906006020160040160159054906101000a900460ff1691506107b1565b806107a981614152565b91505061065a565b50806109475760408051808201909152600681526564656c65746560d01b6020918201528251908301205f80516020614862833981519152148061081e575081805190602001206040518060400160405280600481526020016319591a5d60e21b81525080519060200120145b156108d95760025460405163626f80e760e11b81525f91829182916001600160a01b03169063c4df01ce9061085790339060040161416a565b5f604051808303815f875af1158015610872573d5f803e3d5ffd5b505050506040513d5f823e601f3d908101601f1916820160405261089991908101906141f3565b925092509250336001600160a01b03165f805160206148228339815191528484846040516108c99392919061423f565b60405180910390a2505050610b45565b6040805180820190915260048152637669657760e01b6020918201528251908301205f80516020614882833981519152016109425760025460405163626f80e760e11b81525f91829182916001600160a01b03169063c4df01ce90610857903390600401614267565b610b45565b60025460405163078d274760e21b81523360048201525f9182916001600160a01b0390911690631e349d1c906024015f604051808303815f875af1158015610991573d5f803e3d5ffd5b505050506040513d5f823e601f3d908101601f191682016040526109b891908101906142b0565b91509150336001600160a01b03165f8051602061484283398151915283836040516109e49291906142ea565b60405180910390a260015460405163156d12cb60e11b81523360048201525f916001600160a01b031690632ada2596906024015f60405180830381865afa158015610a31573d5f803e3d5ffd5b505050506040513d5f823e601f3d908101601f19168201604052610a5891908101906143d8565b6001546040808301519051631119299960e01b81529293505f926001600160a01b0390921691631119299991610a909160040161440a565b5f60405180830381865afa158015610aaa573d5f803e3d5ffd5b505050506040513d5f823e601f3d908101601f19168201604052610ad1919081019061441c565b9050336001600160a01b03165f805160206148a2833981519152604051610af7906144d9565b60405180910390a2336001600160a01b03167f407c4ef04235409d41af032d283e6adfceff36c0f951614adfad3fd31879959a82604051610b38919061452e565b60405180910390a2505050505b50505050565b6001546040516306925da960e41b81526001600160a01b0390911690636925da9090610b7e903390600290600401614603565b5f6040518083038186803b158015610b94575f80fd5b505afa158015610ba6573d5f803e3d5ffd5b50506002546040516301c2084f60e31b81523360048201525f93506001600160a01b039091169150630e10427890602401602060405180830381865afa158015610bf2573d5f803e3d5ffd5b505050506040513d601f19601f82011682018060405250810190610c16919061406d565b9050804211610c375760405162461bcd60e51b815260040161038890614084565b6006548310610c7d5760405162461bcd60e51b8152602060048201526012602482015271125b9d985b1a59081c995c5d595cdd08125160721b6044820152606401610388565b5f60068481548110610c9157610c91613ec9565b5f918252602090912060069091020160048101549091506001600160a01b03163303610d1b5760405162461bcd60e51b815260206004820152603360248201527f5072696d6172792067726f757020686561642063616e6e6f7420617070726f7660448201527219481d1a195a5c881bdddb881c995c5d595cdd606a1b6064820152608401610388565b6004810154600160a01b900460ff16158015610db65750600154600482810154604051634427673360e01b81526001600160a01b039182168184015291921690634427673390602401602060405180830381865afa158015610d7f573d5f803e3d5ffd5b505050506040513d601f19601f82011682018060405250810190610da39190614620565b6004811115610db457610db4613e3d565b145b15610ec057600154600482810154604051633f3d037360e11b81526001600160a01b03918216928101929092525f921690637e7a06e690602401602060405180830381865afa158015610e0b573d5f803e3d5ffd5b505050506040513d601f19601f82011682018060405250810190610e2f919061463b565b90506001600160a01b0381163314610ebe5760405162461bcd60e51b815260206004820152604660248201527f5072696d61727920686561642068616e646c696e67207468652072657175657360448201527f74206d75737420626520746865207265717565737465722773207072696d61726064820152651e481a19585960d21b608482015260a401610388565b505b828015610ee657505f84815260076020908152604080832033845290915290205460ff16155b15610b4557600381018054905f610efc83614152565b90915550505f8481526007602090815260408083203384529091529020805460ff191660011790556005810154600382015410610b455760048101805460ff60a81b198116600160a81b179091556040516001600160a01b03909116905f805160206148a283398151915290610fb2906040808252600e908201526d1058d8d95cdcc814995c5d595cdd60921b60608201526080602082018190526006908201526548616e646c6560d01b60a082015260c00190565b60405180910390a250505050565b6002546040516301c2084f60e31b81523360048201525f916001600160a01b031690630e10427890602401602060405180830381865afa158015611006573d5f803e3d5ffd5b505050506040513d601f19601f8201168201806040525081019061102a919061406d565b905080421161104b5760405162461bcd60e51b815260040161038890614084565b600154604051634427673360e01b81523360048201525f916001600160a01b031690634427673390602401602060405180830381865afa158015611091573d5f803e3d5ffd5b505050506040513d601f19601f820116820180604052508101906110b59190614620565b90505f6110c3858584613837565b9050806112e55760408051808201909152600481526319591a5d60e21b6020918201528451908501207fc1430af76e820ac7237bd100fccc681bfa953ee7522bb693b2fa2a71f1beafdd1480611148575060408051808201909152600681526564656c65746560d01b6020918201528451908501205f80516020614862833981519152145b156112035760025460405163626f80e760e11b81525f91829182916001600160a01b03169063c4df01ce9061118190339060040161416a565b5f604051808303815f875af115801561119c573d5f803e3d5ffd5b505050506040513d5f823e601f3d908101601f191682016040526111c391908101906141f3565b925092509250336001600160a01b03165f805160206148228339815191528484846040516111f39392919061423f565b60405180910390a25050506112de565b6040805180820190915260048152637669657760e01b6020918201528451908501205f80516020614882833981519152016112de5760025460405163626f80e760e11b81525f91829182916001600160a01b03169063c4df01ce9061126c903390600401614267565b5f604051808303815f875af1158015611287573d5f803e3d5ffd5b505050506040513d5f823e601f3d908101601f191682016040526112ae91908101906141f3565b925092509250336001600160a01b03165f80516020614822833981519152848484604051610b389392919061423f565b5050505050565b604080518082019091526013815272476c6f62616c5265736f757263655461626c6560681b6020918201528551908601207f11210615feade6d8f40f826f63657559942d378def65d0daf89aa3e747e478e8145f8115826113575750600284600481111561135557611355613e3d565b145b90505f82156114695760015460408051633abadda160e11b815290515f926001600160a01b031691637575bb4291600480830192869291908290030181865afa1580156113a6573d5f803e3d5ffd5b505050506040513d5f823e601f3d908101601f191682016040526113cd919081019061441c565b519050801561145f5760028660048111156113ea576113ea613e3d565b0361143e576004545f906113ff600184614656565b611409919061466f565b905061141660648261469a565b92505f6114246064836146ad565b1115611438576114356001846146c0565b92505b50611463565b60646004548261144e919061466f565b611458919061469a565b9150611463565b5f91505b5061146d565b5060015b5f600680549050905060066040518061010001604052808381526020018b81526020018a8152602001856114a1575f6114a4565b60015b60ff168152336020808301919091528715156040830152861515606083015260809091018590528254600181810185555f9485529382902083516006909202019081559082015191929091908201906114fd9082613f5a565b50604082015160028201906115129082613f5a565b506060820151600382015560808201516004808301805460a086015160c08701511515600160a81b0260ff60a81b19911515600160a01b026001600160a81b03199093166001600160a01b0396871617929092171617905560e09093015160059092019190915560025460405163078d274760e21b81525f9384939290921691631e349d1c916115b3913391016001600160a01b0391909116815260200190565b5f604051808303815f875af11580156115ce573d5f803e3d5ffd5b505050506040513d5f823e601f3d908101601f191682016040526115f591908101906142b0565b91509150336001600160a01b03165f8051602061484283398151915283836040516116219291906142ea565b60405180910390a2306001600160a01b0316336001600160a01b0316847fccb40be31330cd8cdf0ab9448dce3cc578cc50fa1511b2bf5bdfd9ac2c0ac2028e60405161166d919061440a565b60405180910390a450505050505050505b505050565b6002546040516301c2084f60e31b81523360048201525f91829182916001600160a01b031690630e10427890602401602060405180830381865afa1580156116cd573d5f803e3d5ffd5b505050506040513d601f19601f820116820180604052508101906116f1919061406d565b90505f81421015611700575060015b90939092509050565b6002546040516301c2084f60e31b81523360048201525f916001600160a01b031690630e10427890602401602060405180830381865afa15801561174f573d5f803e3d5ffd5b505050506040513d601f19601f82011682018060405250810190611773919061406d565b90508042116117945760405162461bcd60e51b815260040161038890614084565b60405180604001604052806013815260200172476c6f62616c5265736f757263655461626c6560681b815250604051806040016040528060048152602001637669657760e01b8152505f805b60065481101561193757336001600160a01b03166006828154811061180757611807613ec9565b5f9182526020909120600460069092020101546001600160a01b031614801561185c57506006818154811061183e5761183e613ec9565b905f5260205f20906006020160040160159054906101000a900460ff165b156119255783805190602001206006828154811061187c5761187c613ec9565b905f5260205f20906006020160010160405161189891906140cc565b60405180910390201480156118e957508280519060200120600682815481106118c3576118c3613ec9565b905f5260205f2090600602016002016040516118df91906140cc565b6040518091039020145b15611925576006818154811061190157611901613ec9565b905f5260205f20906006020160040160159054906101000a900460ff169150611937565b8061192f81614152565b9150506117e0565b50806119db5760408051808201909152600681526564656c65746560d01b6020918201528251908301205f80516020614862833981519152148061081e575081805190602001206040518060400160405280600481526020016319591a5d60e21b81525080519060200120036108d95760025460405163626f80e760e11b81525f91829182916001600160a01b03169063c4df01ce9061085790339060040161416a565b60025460405163078d274760e21b81523360048201525f9182916001600160a01b0390911690631e349d1c906024015f604051808303815f875af1158015611a25573d5f803e3d5ffd5b505050506040513d5f823e601f3d908101601f19168201604052611a4c91908101906142b0565b91509150336001600160a01b03165f805160206148428339815191528383604051611a789291906142ea565b60405180910390a260015460408051633abadda160e11b815290515f926001600160a01b031691637575bb4291600480830192869291908290030181865afa158015611ac6573d5f803e3d5ffd5b505050506040513d5f823e601f3d908101601f19168201604052611aed919081019061441c565b9050336001600160a01b03165f805160206148a2833981519152604051611b13906144d9565b60405180910390a2336001600160a01b03167ff143951aaf024293781c4d1530b6c0dadd2e4221c98833db9e7788aa65fd351982604051611b54919061452e565b60405180910390a250505050505050565b6002546040516301c2084f60e31b81523360048201525f916001600160a01b031690630e10427890602401602060405180830381865afa158015611bab573d5f803e3d5ffd5b505050506040513d601f19601f82011682018060405250810190611bcf919061406d565b9050804211611bf05760405162461bcd60e51b815260040161038890614084565b60405180604001604052806013815260200172476c6f62616c5265736f757263655461626c6560681b8152506040518060400160405280600681526020016564656c65746560d01b8152505f805b600654811015611d9557336001600160a01b031660068281548110611c6557611c65613ec9565b5f9182526020909120600460069092020101546001600160a01b0316148015611cba575060068181548110611c9c57611c9c613ec9565b905f5260205f20906006020160040160159054906101000a900460ff165b15611d8357838051906020012060068281548110611cda57611cda613ec9565b905f5260205f209060060201600101604051611cf691906140cc565b6040518091039020148015611d475750828051906020012060068281548110611d2157611d21613ec9565b905f5260205f209060060201600201604051611d3d91906140cc565b6040518091039020145b15611d835760068181548110611d5f57611d5f613ec9565b905f5260205f20906006020160040160159054906101000a900460ff169150611d95565b80611d8d81614152565b915050611c3e565b5080611ea95760408051808201909152600681526564656c65746560d01b6020918201528251908301205f805160206148628339815191521480611e02575081805190602001206040518060400160405280600481526020016319591a5d60e21b81525080519060200120145b15611e3b5760025460405163626f80e760e11b81525f91829182916001600160a01b03169063c4df01ce9061118190339060040161416a565b6040805180820190915260048152637669657760e01b6020918201528251908301205f8051602061488283398151915201611ea45760025460405163626f80e760e11b81525f91829182916001600160a01b03169063c4df01ce90611181903390600401614267565b6112de565b60025460405163078d274760e21b81523360048201525f9182916001600160a01b0390911690631e349d1c906024015f604051808303815f875af1158015611ef3573d5f803e3d5ffd5b505050506040513d5f823e601f3d908101601f19168201604052611f1a91908101906142b0565b91509150336001600160a01b03165f805160206148428339815191528383604051611f469291906142ea565b60405180910390a2600154604051634427673360e01b81526001600160a01b0389811660048301526002921690634427673390602401602060405180830381865afa158015611f97573d5f803e3d5ffd5b505050506040513d601f19601f82011682018060405250810190611fbb9190614620565b6004811115611fcc57611fcc613e3d565b146120875760025460405163626f80e760e11b81525f91829182916001600160a01b03169063c4df01ce906120059033906004016146d3565b5f604051808303815f875af1158015612020573d5f803e3d5ffd5b505050506040513d5f823e601f3d908101601f1916820160405261204791908101906141f3565b925092509250336001600160a01b03165f805160206148228339815191528484846040516120779392919061423f565b60405180910390a2505050612105565b6001546040516380e52e3f60e01b81526001600160a01b038981166004830152909116906380e52e3f906024015f604051808303815f87803b1580156120cb575f80fd5b505af11580156120dd573d5f803e3d5ffd5b50505050336001600160a01b03165f805160206148a2833981519152604051611b5490614713565b50505050505050565b61211661380b565b60056040518060a0016040528086600481111561213557612135613e3d565b8152602080820187905260408201869052606082018590525f608090920182905283546001818101865594835291208251600590920201805492939092839160ff199091169083600481111561218d5761218d613e3d565b0217905550602082015160018201906121a69082613f5a565b50604082015160028201906121bb9082613f5a565b50606082015160038201906121d09082613f5a565b50608091909101516004909101556005547fb90b27d205996a6ce127fc2f1bfbad17d5d8270e9a27ebb35037f2d67853b6cf9061220f90600190614656565b85858585604051612224959493929190614016565b60405180910390a150505050565b61223a61380b565b6122435f6139a6565b565b60068181548110612254575f80fd5b5f918252602090912060069091020180546001820180549193509061227890613edd565b80601f01602080910402602001604051908101604052809291908181526020018280546122a490613edd565b80156122ef5780601f106122c6576101008083540402835291602001916122ef565b820191905f5260205f20905b8154815290600101906020018083116122d257829003601f168201915b50505050509080600201805461230490613edd565b80601f016020809104026020016040519081016040528092919081815260200182805461233090613edd565b801561237b5780601f106123525761010080835404028352916020019161237b565b820191905f5260205f20905b81548152906001019060200180831161235e57829003601f168201915b5050505060038301546004840154600590940154929390926001600160a01b038216925060ff600160a01b8304811692600160a81b9004169088565b6002546040516301c2084f60e31b81523360048201525f916001600160a01b031690630e10427890602401602060405180830381865afa1580156123fd573d5f803e3d5ffd5b505050506040513d601f19601f82011682018060405250810190612421919061406d565b90508042116124425760405162461bcd60e51b815260040161038890614084565b604051806040016040528060128152602001714c6f63616c5265736f757263655461626c6560701b8152506040518060400160405280600481526020016319591a5d60e21b8152505f805b6006548110156125e457336001600160a01b0316600682815481106124b4576124b4613ec9565b5f9182526020909120600460069092020101546001600160a01b03161480156125095750600681815481106124eb576124eb613ec9565b905f5260205f20906006020160040160159054906101000a900460ff165b156125d25783805190602001206006828154811061252957612529613ec9565b905f5260205f20906006020160010160405161254591906140cc565b6040518091039020148015612596575082805190602001206006828154811061257057612570613ec9565b905f5260205f20906006020160020160405161258c91906140cc565b6040518091039020145b156125d257600681815481106125ae576125ae613ec9565b905f5260205f20906006020160040160159054906101000a900460ff1691506125e4565b806125dc81614152565b91505061248d565b508061277a5760408051808201909152600681526564656c65746560d01b6020918201528251908301205f805160206148628339815191521480612651575081805190602001206040518060400160405280600481526020016319591a5d60e21b81525080519060200120145b1561270c5760025460405163626f80e760e11b81525f91829182916001600160a01b03169063c4df01ce9061268a90339060040161416a565b5f604051808303815f875af11580156126a5573d5f803e3d5ffd5b505050506040513d5f823e601f3d908101601f191682016040526126cc91908101906141f3565b925092509250336001600160a01b03165f805160206148228339815191528484846040516126fc9392919061423f565b60405180910390a2505050612b7b565b6040805180820190915260048152637669657760e01b6020918201528251908301205f80516020614882833981519152016127755760025460405163626f80e760e11b81525f91829182916001600160a01b03169063c4df01ce9061268a903390600401614267565b612b7b565b60025460405163078d274760e21b81523360048201525f9182916001600160a01b0390911690631e349d1c906024015f604051808303815f875af11580156127c4573d5f803e3d5ffd5b505050506040513d5f823e601f3d908101601f191682016040526127eb91908101906142b0565b91509150336001600160a01b03165f8051602061484283398151915283836040516128179291906142ea565b60405180910390a2600154604051634427673360e01b81526001600160a01b038a811660048301526003921690634427673390602401602060405180830381865afa158015612868573d5f803e3d5ffd5b505050506040513d601f19601f8201168201806040525081019061288c9190614620565b600481111561289d5761289d613e3d565b1415801561292857506004600154604051634427673360e01b81526001600160a01b038b8116600483015290911690634427673390602401602060405180830381865afa1580156128f0573d5f803e3d5ffd5b505050506040513d601f19601f820116820180604052508101906129149190614620565b600481111561292557612925613e3d565b14155b80612a375750600154604051634427673360e01b81526001600160a01b0389811660048301526003921690634427673390602401602060405180830381865afa158015612977573d5f803e3d5ffd5b505050506040513d601f19601f8201168201806040525081019061299b9190614620565b60048111156129ac576129ac613e3d565b14158015612a3757506004600154604051634427673360e01b81526001600160a01b038a8116600483015290911690634427673390602401602060405180830381865afa1580156129ff573d5f803e3d5ffd5b505050506040513d601f19601f82011682018060405250810190612a239190614620565b6004811115612a3457612a34613e3d565b14155b15612af25760025460405163626f80e760e11b81525f91829182916001600160a01b03169063c4df01ce90612a709033906004016146d3565b5f604051808303815f875af1158015612a8b573d5f803e3d5ffd5b505050506040513d5f823e601f3d908101601f19168201604052612ab291908101906141f3565b925092509250336001600160a01b03165f80516020614822833981519152848484604051612ae29392919061423f565b60405180910390a2505050612b78565b600154604051631bead20160e21b81526001600160a01b038a81166004830152898116602483015290911690636fab4804906044015f604051808303815f87803b158015612b3e575f80fd5b505af1158015612b50573d5f803e3d5ffd5b50505050336001600160a01b03165f805160206148a2833981519152604051610b389061476a565b50505b505050505050565b6002546040516301c2084f60e31b81523360048201525f916001600160a01b031690630e10427890602401602060405180830381865afa158015612bc9573d5f803e3d5ffd5b505050506040513d601f19601f82011682018060405250810190612bed919061406d565b9050804211612c0e5760405162461bcd60e51b815260040161038890614084565b604051806040016040528060128152602001714c6f63616c5265736f757263655461626c6560701b8152506040518060400160405280600681526020016564656c65746560d01b8152505f805b600654811015612db257336001600160a01b031660068281548110612c8257612c82613ec9565b5f9182526020909120600460069092020101546001600160a01b0316148015612cd7575060068181548110612cb957612cb9613ec9565b905f5260205f20906006020160040160159054906101000a900460ff165b15612da057838051906020012060068281548110612cf757612cf7613ec9565b905f5260205f209060060201600101604051612d1391906140cc565b6040518091039020148015612d645750828051906020012060068281548110612d3e57612d3e613ec9565b905f5260205f209060060201600201604051612d5a91906140cc565b6040518091039020145b15612da05760068181548110612d7c57612d7c613ec9565b905f5260205f20906006020160040160159054906101000a900460ff169150612db2565b80612daa81614152565b915050612c5b565b5080612e565760408051808201909152600681526564656c65746560d01b6020918201528251908301205f805160206148628339815191521480611e02575081805190602001206040518060400160405280600481526020016319591a5d60e21b8152508051906020012003611e3b5760025460405163626f80e760e11b81525f91829182916001600160a01b03169063c4df01ce9061118190339060040161416a565b60025460405163078d274760e21b81523360048201525f9182916001600160a01b0390911690631e349d1c906024015f604051808303815f875af1158015612ea0573d5f803e3d5ffd5b505050506040513d5f823e601f3d908101601f19168201604052612ec791908101906142b0565b91509150336001600160a01b03165f805160206148428339815191528383604051612ef39291906142ea565b60405180910390a2600154604051634427673360e01b81526001600160a01b0389811660048301526003921690634427673390602401602060405180830381865afa158015612f44573d5f803e3d5ffd5b505050506040513d601f19601f82011682018060405250810190612f689190614620565b6004811115612f7957612f79613e3d565b14158061300357506004600154604051634427673360e01b81526001600160a01b038a8116600483015290911690634427673390602401602060405180830381865afa158015612fcb573d5f803e3d5ffd5b505050506040513d601f19601f82011682018060405250810190612fef9190614620565b600481111561300057613000613e3d565b14155b1561303c5760025460405163626f80e760e11b81525f91829182916001600160a01b03169063c4df01ce906120059033906004016146d3565b6001546040516380e52e3f60e01b81526001600160a01b038981166004830152909116906380e52e3f906024015f604051808303815f87803b158015613080575f80fd5b505af1158015613092573d5f803e3d5ffd5b50505050336001600160a01b03165f805160206148a2833981519152604051611b54906147be565b6002546040516301c2084f60e31b81523360048201525f916001600160a01b031690630e10427890602401602060405180830381865afa158015613100573d5f803e3d5ffd5b505050506040513d601f19601f82011682018060405250810190613124919061406d565b90508042116131455760405162461bcd60e51b815260040161038890614084565b60405180604001604052806013815260200172476c6f62616c5265736f757263655461626c6560681b8152506040518060400160405280600481526020016319591a5d60e21b8152505f805b6006548110156132e857336001600160a01b0316600682815481106131b8576131b8613ec9565b5f9182526020909120600460069092020101546001600160a01b031614801561320d5750600681815481106131ef576131ef613ec9565b905f5260205f20906006020160040160159054906101000a900460ff165b156132d65783805190602001206006828154811061322d5761322d613ec9565b905f5260205f20906006020160010160405161324991906140cc565b604051809103902014801561329a575082805190602001206006828154811061327457613274613ec9565b905f5260205f20906006020160020160405161329091906140cc565b6040518091039020145b156132d657600681815481106132b2576132b2613ec9565b905f5260205f20906006020160040160159054906101000a900460ff1691506132e8565b806132e081614152565b915050613191565b508061338c5760408051808201909152600681526564656c65746560d01b6020918201528251908301205f805160206148628339815191521480612651575081805190602001206040518060400160405280600481526020016319591a5d60e21b815250805190602001200361270c5760025460405163626f80e760e11b81525f91829182916001600160a01b03169063c4df01ce9061268a90339060040161416a565b60025460405163078d274760e21b81523360048201525f9182916001600160a01b0390911690631e349d1c906024015f604051808303815f875af11580156133d6573d5f803e3d5ffd5b505050506040513d5f823e601f3d908101601f191682016040526133fd91908101906142b0565b91509150336001600160a01b03165f8051602061484283398151915283836040516134299291906142ea565b60405180910390a2600154604051634427673360e01b81526001600160a01b038a811660048301526002921690634427673390602401602060405180830381865afa15801561347a573d5f803e3d5ffd5b505050506040513d601f19601f8201168201806040525081019061349e9190614620565b60048111156134af576134af613e3d565b141580156135395750600154604051634427673360e01b81526001600160a01b0389811660048301526002921690634427673390602401602060405180830381865afa158015613501573d5f803e3d5ffd5b505050506040513d601f19601f820116820180604052508101906135259190614620565b600481111561353657613536613e3d565b14155b156135725760025460405163626f80e760e11b81525f91829182916001600160a01b03169063c4df01ce90612a709033906004016146d3565b600154604051631bead20160e21b81526001600160a01b038a81166004830152898116602483015290911690636fab4804906044015f604051808303815f87803b1580156135be575f80fd5b505af11580156135d0573d5f803e3d5ffd5b50505050336001600160a01b03165f805160206148a2833981519152604051610b38906147ef565b60058181548110613607575f80fd5b5f9182526020909120600590910201805460018201805460ff90921693509061362f90613edd565b80601f016020809104026020016040519081016040528092919081815260200182805461365b90613edd565b80156136a65780601f1061367d576101008083540402835291602001916136a6565b820191905f5260205f20905b81548152906001019060200180831161368957829003601f168201915b5050505050908060020180546136bb90613edd565b80601f01602080910402602001604051908101604052809291908181526020018280546136e790613edd565b80156137325780601f1061370957610100808354040283529160200191613732565b820191905f5260205f20905b81548152906001019060200180831161371557829003601f168201915b50505050509080600301805461374790613edd565b80601f016020809104026020016040519081016040528092919081815260200182805461377390613edd565b80156137be5780601f10613795576101008083540402835291602001916137be565b820191905f5260205f20905b8154815290600101906020018083116137a157829003601f168201915b5050505050908060040154905085565b6137d661380b565b6001600160a01b0381166137ff57604051631e4fbdf760e01b81525f6004820152602401610388565b613808816139a6565b50565b5f546001600160a01b031633146122435760405163118cdaa760e01b8152336004820152602401610388565b5f805b60055481101561399a5782600481111561385657613856613e3d565b6005828154811061386957613869613ec9565b5f91825260209091206005909102015460ff16600481111561388d5761388d613e3d565b1480156138d657508480519060200120600582815481106138b0576138b0613ec9565b905f5260205f2090600502016001016040516138cc91906140cc565b6040518091039020145b801561391e57508380519060200120600582815481106138f8576138f8613ec9565b905f5260205f20906005020160020160405161391491906140cc565b6040518091039020145b156139885760405180604001604052806005815260200164616c6c6f7760d81b815250805190602001206005828154811061395b5761395b613ec9565b905f5260205f20906005020160030160405161397791906140cc565b60405180910390201491505061399f565b8061399281614152565b91505061383a565b505f90505b9392505050565b5f80546001600160a01b038381166001600160a01b0319831681178455604051919092169283917f8be0079c531659141344cd1fd0a4f28419497f9722a3daafe3b4186f6b6457e09190a35050565b508054613a0190613edd565b5f825580601f10613a10575050565b601f0160209004905f5260205f209081019061380891905b80821115613a3b575f8155600101613a28565b5090565b60058110613808575f80fd5b634e487b7160e01b5f52604160045260245ffd5b60405160c0810167ffffffffffffffff81118282101715613a8257613a82613a4b565b60405290565b604051601f8201601f1916810167ffffffffffffffff81118282101715613ab157613ab1613a4b565b604052919050565b5f67ffffffffffffffff821115613ad257613ad2613a4b565b50601f01601f191660200190565b5f82601f830112613aef575f80fd5b8135613b02613afd82613ab9565b613a88565b818152846020838601011115613b16575f80fd5b816020850160208301375f918101602001919091529392505050565b5f805f805f60a08688031215613b46575f80fd5b853594506020860135613b5881613a3f565b9350604086013567ffffffffffffffff80821115613b74575f80fd5b613b8089838a01613ae0565b94506060880135915080821115613b95575f80fd5b613ba189838a01613ae0565b93506080880135915080821115613bb6575f80fd5b50613bc388828901613ae0565b9150509295509295909350565b5f60208284031215613be0575f80fd5b5035919050565b5f8060408385031215613bf8575f80fd5b8235915060208301358015158114613c0e575f80fd5b809150509250929050565b5f8060408385031215613c2a575f80fd5b823567ffffffffffffffff80821115613c41575f80fd5b613c4d86838701613ae0565b93506020850135915080821115613c62575f80fd5b50613c6f85828601613ae0565b9150509250929050565b6001600160a01b0381168114613808575f80fd5b5f60208284031215613c9d575f80fd5b813561399f81613c79565b5f805f8060808587031215613cbb575f80fd5b8435613cc681613a3f565b9350602085013567ffffffffffffffff80821115613ce2575f80fd5b613cee88838901613ae0565b94506040870135915080821115613d03575f80fd5b613d0f88838901613ae0565b93506060870135915080821115613d24575f80fd5b50613d3187828801613ae0565b91505092959194509250565b5f5b83811015613d57578181015183820152602001613d3f565b50505f910152565b5f8151808452613d76816020860160208601613d3d565b601f01601f19169290920160200192915050565b5f6101008a8352806020840152613da38184018b613d5f565b90508281036040840152613db7818a613d5f565b606084019890985250506001600160a01b0394909416608085015291151560a0840152151560c083015260e0909101529392505050565b5f8060408385031215613dff575f80fd5b8235613e0a81613c79565b91506020830135613c0e81613c79565b5f8060408385031215613e2b575f80fd5b823591506020830135613c0e81613c79565b634e487b7160e01b5f52602160045260245ffd5b60058110613e6d57634e487b7160e01b5f52602160045260245ffd5b9052565b613e7b8187613e51565b60a060208201525f613e9060a0830187613d5f565b8281036040840152613ea28187613d5f565b90508281036060840152613eb68186613d5f565b9150508260808301529695505050505050565b634e487b7160e01b5f52603260045260245ffd5b600181811c90821680613ef157607f821691505b602082108103613f0f57634e487b7160e01b5f52602260045260245ffd5b50919050565b601f82111561167e575f81815260208120601f850160051c81016020861015613f3b5750805b601f850160051c820191505b81811015612b7b57828155600101613f47565b815167ffffffffffffffff811115613f7457613f74613a4b565b613f8881613f828454613edd565b84613f15565b602080601f831160018114613fbb575f8415613fa45750858301515b5f19600386901b1c1916600185901b178555612b7b565b5f85815260208120601f198616915b82811015613fe957888601518255948401946001909101908401613fca565b508582101561400657878501515f19600388901b60f8161c191681555b5050505050600190811b01905550565b8581526140266020820186613e51565b60a060408201525f61403b60a0830186613d5f565b828103606084015261404d8186613d5f565b905082810360808401526140618185613d5f565b98975050505050505050565b5f6020828403121561407d575f80fd5b5051919050565b60208082526028908201527f416363657373436f6e74726f6c436f6e74726163743a204d656d62657220697360408201526708189b1bd8dad95960c21b606082015260800190565b5f8083546140d981613edd565b600182811680156140f1576001811461410657614132565b60ff1984168752821515830287019450614132565b875f526020805f205f5b858110156141295781548a820152908401908201614110565b50505082870194505b50929695505050505050565b634e487b7160e01b5f52601160045260245ffd5b5f600182016141635761416361413e565b5060010190565b6001600160a01b039190911681526040602082018190526013908201527254616d706572696e672077697468206461746160681b606082015260800190565b5f82601f8301126141b8575f80fd5b81516141c6613afd82613ab9565b8181528460208386010111156141da575f80fd5b6141eb826020830160208701613d3d565b949350505050565b5f805f60608486031215614205575f80fd5b83519250602084015167ffffffffffffffff811115614222575f80fd5b61422e868287016141a9565b925050604084015190509250925092565b838152606060208201525f6142576060830185613d5f565b9050826040830152949350505050565b6001600160a01b03919091168152604060208201819052601b908201527f556e617574686f72697a65642061636365737320617474656d70740000000000606082015260800190565b5f80604083850312156142c1575f80fd5b82519150602083015167ffffffffffffffff8111156142de575f80fd5b613c6f858286016141a9565b828152604060208201525f6141eb6040830184613d5f565b805161430d81613c79565b919050565b805161430d81613a3f565b5f60c0828403121561432d575f80fd5b614335613a5f565b905061434082614302565b8152602082015167ffffffffffffffff8082111561435c575f80fd5b614368858386016141a9565b60208401526040840151915080821115614380575f80fd5b61438c858386016141a9565b604084015260608401519150808211156143a4575f80fd5b506143b1848285016141a9565b606083015250608082015160808201526143cd60a08301614312565b60a082015292915050565b5f602082840312156143e8575f80fd5b815167ffffffffffffffff8111156143fe575f80fd5b6141eb8482850161431d565b602081525f61399f6020830184613d5f565b5f602080838503121561442d575f80fd5b825167ffffffffffffffff80821115614444575f80fd5b818501915085601f830112614457575f80fd5b81518181111561446957614469613a4b565b8060051b614478858201613a88565b9182528381018501918581019089841115614491575f80fd5b86860192505b838310156144cc578251858111156144ae575f8081fd5b6144bc8b89838a010161431d565b8352509186019190860190614497565b9998505050505050505050565b604081525f61450b604083016013815272476c6f62616c5265736f757263655461626c6560681b602082015260400190565b82810360209384015260048152635669657760e01b928101929092525060400190565b5f6020808301818452808551808352604092508286019150828160051b8701018488015f5b838110156145f557888303603f19018552815180516001600160a01b031684528781015160c08986018190529061458c82870182613d5f565b91505087820151858203898701526145a48282613d5f565b915050606080830151868303828801526145be8382613d5f565b92505050608080830151818701525060a08083015192506145e181870184613e51565b509588019593505090860190600101614553565b509098975050505050505050565b6001600160a01b03831681526040810161399f6020830184613e51565b5f60208284031215614630575f80fd5b815161399f81613a3f565b5f6020828403121561464b575f80fd5b815161399f81613c79565b818103818111156146695761466961413e565b92915050565b80820281158282048414176146695761466961413e565b634e487b7160e01b5f52601260045260245ffd5b5f826146a8576146a8614686565b500490565b5f826146bb576146bb614686565b500690565b808201808211156146695761466961413e565b6001600160a01b0391909116815260406020820181905260149082015273283934bb34b632b3b29032b9b1b0b630ba34b7b760611b606082015260800190565b604081525f614745604083016013815272476c6f62616c5265736f757263655461626c6560681b602082015260400190565b828103602084015261399f81600681526544656c65746560d01b602082015260400190565b604081525f61479b6040830160128152714c6f63616c5265736f757263655461626c6560701b602082015260400190565b828103602084015261399f81600481526311591a5d60e21b602082015260400190565b604081525f6147456040830160128152714c6f63616c5265736f757263655461626c6560701b602082015260400190565b604081525f61479b604083016013815272476c6f62616c5265736f757263655461626c6560681b60208201526040019056fe3fc8de32d0ff2767d320c8c52fd3ab1a29ddf9484b23575845d542369bdfa37f99160c89fdccb67e1961cf554a10fffb3dbbb7b2cd44a817f2aac33deb57d9d79fcba1e1e2be1b4668ce9e58bf81b52190e4098ed5452612e77505295dfbca565d4381bb4a4c75c843c4d35f8b5a6677e24c2b3b8c8ec346faaa6201d8dd576a83d90dfabb9dd5929f37bedd596ec8b76fec40556dcf87a93c891c43ecbc35a2a264697066735822122075a7cf1e66c29289d098578bd862e443629ccac12bddc1c5b367b6db36d0e91c64736f6c63430008150033",
  "immutableReferences": {},
  "source": "// SPDX-License-Identifier: MIT\r\npragma solidity ^0.8.0;\r\n\r\nimport \"@openzeppelin/contracts/access/Ownable.sol\";\r\nimport \"./RoleBasedAccessControl.sol\";\r\nimport \"./JudgeContract.sol\";\r\nimport \"./RegisterContract.sol\";\r\nimport \"./AccessControlContract.sol\";\r\nimport \"./RoleToken.sol\";\r\n\r\ncontract TableAccessControlContract is Ownable {\r\n    RoleBasedAccessControl public roleBasedAccessControl;\r\n    JudgeContract public judgeContract;\r\n    RegisterContract public registerContract;\r\n\r\n    uint256 public quorumPercentage = 51; // Percentage of primary heads needed for quorum\r\n\r\n    struct Policy {\r\n        RoleToken.Role role;\r\n        string resource;\r\n        string action;\r\n        string permission;\r\n        uint256 timeOfLastRequest;\r\n    }\r\n\r\n    Policy[] public policies; // Array to store policies\r\n\r\n    struct AccessRequest {\r\n        uint id;\r\n        string resource;\r\n        string action;\r\n        uint approvals;\r\n        address requester;\r\n        bool isGlobalRequest; // Indicates if it's a global or local request\r\n        bool isApproved; // Indicates if the request has been approved\r\n        uint256 requiredQuorum; // Required quorum for the request\r\n    }\r\n\r\n    AccessRequest[] public accessRequests;\r\n    mapping(uint => mapping(address => bool)) public approvals;\r\n\r\n    event AccessRequestCreated(\r\n        uint indexed requestId,  // Added requestId to the event\r\n        address indexed requester,\r\n        string resource,\r\n        address indexed contractAddress\r\n    );\r\n\r\n    event AccessGranted(address indexed requester, string funcName, string funcType);\r\n    event AccessDenied(address indexed requester, string reason);\r\n    event ResolveAddressLog(address resolvedAddress, string name);\r\n    event PolicyAdded(uint256 policyId, RoleToken.Role role, string resource, string action, string permission);\r\n    event PolicyUpdated(uint256 policyId, RoleToken.Role role, string resource, string action, string permission);\r\n    event PolicyDeleted(uint256 policyId);\r\n    event MaliciousActivityReported(address indexed subject, uint256 penaltyAmount, string reason, uint256 blockingEndTime); // New event for malicious activity\r\n    event NonPenalizeMisbehaviorReported(address indexed subject, uint256 rewardAmount, string newStatus); // New event for benign behavior\r\n    event GlobalResourceTableViewed(address indexed viewer, RoleToken.Member[] resourceTable);\r\n    event LocalResourceTableViewed(address indexed viewer, RoleToken.Member[] resourceTable);\r\n\r\n    constructor(\r\n        address _roleBasedAccessControl,\r\n        address _judgeContract,\r\n        address _registerContract,\r\n        address initialOwner\r\n    ) Ownable(initialOwner) {\r\n        roleBasedAccessControl = RoleBasedAccessControl(_roleBasedAccessControl);\r\n        judgeContract = JudgeContract(_judgeContract);\r\n        registerContract = RegisterContract(_registerContract);\r\n    }\r\n\r\n    // Modifier to check if the caller is authorized to view or modify the resource tables\r\n    modifier onlyAuthorizedRequesters(string memory resource, string memory action) {\r\n        bool isApproved = false;\r\n        for (uint i = 0; i < accessRequests.length; i++) {\r\n            if (accessRequests[i].requester == msg.sender && accessRequests[i].isApproved) {\r\n                // Check if the request matches the resource and action\r\n                if (keccak256(bytes(accessRequests[i].resource)) == keccak256(bytes(resource)) &&\r\n                    keccak256(bytes(accessRequests[i].action)) == keccak256(bytes(action))) {\r\n                    isApproved = accessRequests[i].isApproved;\r\n                    break;\r\n                }\r\n            }\r\n        }\r\n        \r\n        // If the request is not approved, report malicious activity and return\r\n        if (!isApproved) {\r\n            if (keccak256(bytes(action)) == keccak256(bytes(\"delete\")) || keccak256(bytes(\"edit\")) == keccak256(bytes(action))) {\r\n                (uint256 penaltyAmount, string memory reason, uint256 blockingEndTime) = judgeContract.reportMaliciousActivity(msg.sender, \"Tampering with data\");\r\n                emit MaliciousActivityReported(msg.sender, penaltyAmount, reason, blockingEndTime);\r\n            } else if (keccak256(bytes(action)) == keccak256(bytes(\"view\"))) {\r\n                // Report unauthorized access for view attempts\r\n                (uint256 penaltyAmount, string memory reason, uint256 blockingEndTime) = judgeContract.reportMaliciousActivity(msg.sender, \"Unauthorized access attempt\");\r\n                emit MaliciousActivityReported(msg.sender, penaltyAmount, reason, blockingEndTime);\r\n            }\r\n        }\r\n        else {\r\n            (uint256 rewardAmount, string memory newStatus) = judgeContract.reportNonPenalizeMisbehavior(msg.sender);\r\n            emit NonPenalizeMisbehaviorReported(msg.sender, rewardAmount, newStatus); // Emit event for benign behavior\r\n            _;      \r\n        }\r\n    }\r\n\r\n    modifier onlyPrimaryHead() {\r\n        roleBasedAccessControl.requireRole(msg.sender, RoleToken.Role.PRIMARY_GROUP_HEAD);\r\n        _;\r\n    }\r\n\r\n    modifier notBlocked() {\r\n        uint256 blockingEndTime = judgeContract.getBlockingEndTime(msg.sender);\r\n        require(block.timestamp > blockingEndTime, \"AccessControlContract: Member is blocked\");\r\n        _;\r\n    }\r\n\r\n    // Functions to manage policies\r\n    function policyAdd(\r\n        RoleToken.Role role,\r\n        string memory resource,\r\n        string memory action,\r\n        string memory permission\r\n    ) external onlyOwner {\r\n        policies.push(Policy(role, resource, action, permission, 0));\r\n        emit PolicyAdded(\r\n            policies.length - 1,\r\n            role,\r\n            resource,\r\n            action,\r\n            permission\r\n        );\r\n    }\r\n\r\n    function policyUpdate(\r\n        uint256 policyId,\r\n        RoleToken.Role role,\r\n        string memory resource,\r\n        string memory action,\r\n        string memory permission\r\n    ) external onlyOwner {\r\n        require(policyId < policies.length, \"Policy does not exist\");\r\n        policies[policyId] = Policy(role, resource, action, permission, 0);\r\n        emit PolicyUpdated(policyId, role, resource, action, permission);\r\n    }\r\n\r\n    function policyDelete(uint256 policyId) external onlyOwner {\r\n        require(policyId < policies.length, \"Policy does not exist\");\r\n        delete policies[policyId];\r\n        emit PolicyDeleted(policyId);\r\n    }\r\n\r\n    function getTime() external view returns (uint256, bool) {\r\n        //JudgeContract.MisbehaviorRecord memory record = judgeContract.getMisbehaviorRecord(msg.sender);\r\n        uint256 blockingEndTime = judgeContract.getBlockingEndTime(msg.sender);\r\n        bool isBlocked = false;\r\n\r\n        if (block.timestamp < blockingEndTime) {\r\n            isBlocked = true;\r\n        }\r\n\r\n        return (blockingEndTime, isBlocked);\r\n    }\r\n\r\n    // Function to create an access request\r\n    function createAccessRequest(\r\n        string memory resource,\r\n        string memory action\r\n    ) external notBlocked {\r\n        RoleToken.Role role = roleBasedAccessControl.getRole(msg.sender);\r\n\r\n        // Check policies\r\n        bool allowed = checkPolicy(resource, action, role);\r\n        if (!allowed) {\r\n            // Penalize\r\n            if (keccak256(bytes(action)) == keccak256(bytes(\"edit\")) || keccak256(bytes(action)) == keccak256(bytes(\"delete\"))) {\r\n                (uint256 penaltyAmount, string memory reason, uint256 blockingEndTime) = judgeContract.reportMaliciousActivity(msg.sender, \"Tampering with data\");\r\n                emit MaliciousActivityReported(msg.sender, penaltyAmount, reason, blockingEndTime); // Emit event for tampering with data\r\n            }\r\n            else if (keccak256(bytes(action)) == keccak256(bytes(\"view\"))) {\r\n                (uint256 penaltyAmount, string memory reason, uint256 blockingEndTime) = judgeContract.reportMaliciousActivity(msg.sender, \"Unauthorized access attempt\");\r\n                emit MaliciousActivityReported(msg.sender, penaltyAmount, reason, blockingEndTime); // Emit event for unauthorized access\r\n            }\r\n\r\n            return;\r\n        }\r\n\r\n        // Determine if the request is for a global or local resource table\r\n        bool isGlobalRequest = keccak256(bytes(resource)) == keccak256(bytes(\"GlobalResourceTable\"));\r\n        bool isLocalRequestByPrimaryHead = !isGlobalRequest && role == RoleToken.Role.PRIMARY_GROUP_HEAD;\r\n\r\n        // Determine required quorum\r\n        uint256 requiredQuorum;\r\n        if (isGlobalRequest) {\r\n            uint256 totalPrimaryHeads = roleBasedAccessControl.getGlobalResourceTable().length;\r\n\r\n            if (totalPrimaryHeads != 0) {\r\n                if (role == RoleToken.Role.PRIMARY_GROUP_HEAD) {\r\n                    // we need to decrease amount of totalPrimaryHeads by one because its own is counted too.\r\n                    // Calculate the quorum without decimals, multiplying by 100 to maintain precision\r\n                    uint256 numerator = (totalPrimaryHeads - 1) * quorumPercentage;\r\n                    requiredQuorum = numerator / 100;\r\n\r\n                    // If there's a remainder, round up the result\r\n                    if (numerator % 100 > 0) {\r\n                        requiredQuorum += 1;\r\n                    }\r\n                } else {\r\n                    requiredQuorum = (totalPrimaryHeads * quorumPercentage) / 100;\r\n                }\r\n            } else {\r\n                requiredQuorum = 0;\r\n            }\r\n\r\n        } else {\r\n            // Local request quorum is just the requester's primary head\r\n            requiredQuorum = 1;\r\n        }\r\n\r\n        // Add to access request list\r\n        uint requestId = accessRequests.length;\r\n        accessRequests.push(AccessRequest({\r\n            id: requestId,\r\n            resource: resource,\r\n            action: action,\r\n            approvals: isLocalRequestByPrimaryHead ? 1 : 0, // Automatically approve if it's a local request by primary head\r\n            requester: msg.sender,\r\n            isGlobalRequest: isGlobalRequest,\r\n            isApproved: isLocalRequestByPrimaryHead, // Automatically approve if it's a local request by primary head\r\n            requiredQuorum: requiredQuorum\r\n        }));\r\n\r\n        (uint256 rewardAmount, string memory newStatus) = judgeContract.reportNonPenalizeMisbehavior(msg.sender);\r\n        emit NonPenalizeMisbehaviorReported(msg.sender, rewardAmount, newStatus); // Emit event for benign behavior\r\n        emit AccessRequestCreated(requestId, msg.sender, resource, address(this));\r\n    }\r\n\r\n    // Function to handle access requests\r\n    function handleAccessRequest(\r\n        uint requestId,\r\n        bool approve\r\n    ) external onlyPrimaryHead notBlocked {\r\n        require(requestId < accessRequests.length, \"Invalid request ID\");\r\n        AccessRequest storage request = accessRequests[requestId];\r\n        \r\n        // Ensure that the primary group heads address is different from the requesters address\r\n        require(msg.sender != request.requester, \"Primary group head cannot approve their own request\");\r\n\r\n        // Check if the requester is a regular member and if the primary head handling the request is the requester's primary head\r\n        if (!request.isGlobalRequest && roleBasedAccessControl.getRole(request.requester) == RoleToken.Role.REGULAR_MEMBER) {\r\n            address requesterPrimaryHead = roleBasedAccessControl.getPrimaryHeadAddress(request.requester);\r\n            require(requesterPrimaryHead == msg.sender, \"Primary head handling the request must be the requester's primary head\");\r\n        }\r\n\r\n        if (approve && !approvals[requestId][msg.sender]) {\r\n            request.approvals++;\r\n            approvals[requestId][msg.sender] = true;\r\n\r\n            if (request.approvals >= request.requiredQuorum) {\r\n                // Approve the request if quorum is met\r\n                request.isApproved = true;\r\n                emit AccessGranted(request.requester, \"Access Request\", \"Handle\");\r\n            }\r\n        }\r\n    }\r\n\r\n    // Function to check if a policy allows the requested resource and action\r\n    function checkPolicy(string memory resource, string memory action, RoleToken.Role role) internal view returns (bool) {\r\n        for (uint i = 0; i < policies.length; i++) {\r\n            if (\r\n                policies[i].role == role &&\r\n                keccak256(bytes(policies[i].resource)) == keccak256(bytes(resource)) &&\r\n                keccak256(bytes(policies[i].action)) == keccak256(bytes(action))\r\n            ) {\r\n                return keccak256(bytes(policies[i].permission)) == keccak256(bytes(\"allow\"));\r\n            }\r\n        }\r\n        return false;\r\n    }\r\n\r\n    // Additional functions for global and local resource tables\r\n    function viewGlobalResourceTable() external notBlocked onlyAuthorizedRequesters(\"GlobalResourceTable\", \"view\") {\r\n        // Retrieve the global resource table\r\n        RoleToken.Member[] memory globalResourceTable = roleBasedAccessControl.getGlobalResourceTable();\r\n\r\n        emit AccessGranted(msg.sender, \"GlobalResourceTable\", \"View\");\r\n        // Emit the event with the retrieved resource table\r\n        emit GlobalResourceTableViewed(msg.sender, globalResourceTable);\r\n    }\r\n\r\n    function editGlobalResourceTable(address account1, address account2) \r\n        external notBlocked onlyAuthorizedRequesters(\"GlobalResourceTable\", \"edit\") \r\n    {\r\n        // Check if both accounts are Primary Group Heads (PGHs) for global resource table operations\r\n        if (roleBasedAccessControl.getRole(account1) != RoleToken.Role.PRIMARY_GROUP_HEAD &&\r\n            roleBasedAccessControl.getRole(account2) != RoleToken.Role.PRIMARY_GROUP_HEAD) {\r\n            // Report malicious activity and emit event\r\n            (uint256 penaltyAmount, string memory reason, uint256 blockingEndTime) = judgeContract.reportMaliciousActivity(msg.sender, \"Privilege escalation\");\r\n            emit MaliciousActivityReported(msg.sender, penaltyAmount, reason, blockingEndTime);\r\n            return;\r\n        }\r\n\r\n        // Proceed with role swapping if both accounts are valid global members\r\n        roleBasedAccessControl.swapRole(account1, account2);\r\n        emit AccessGranted(msg.sender, \"GlobalResourceTable\", \"Edit\");\r\n    }\r\n\r\n    function deleteGlobalResourceTable(address account) external notBlocked onlyAuthorizedRequesters(\"GlobalResourceTable\", \"delete\") {\r\n        // Revoke role to effectively remove the member from the global resource table\r\n        if (roleBasedAccessControl.getRole(account) != RoleToken.Role.PRIMARY_GROUP_HEAD) {\r\n                (uint256 penaltyAmount, string memory reason, uint256 blockingEndTime) = judgeContract.reportMaliciousActivity(msg.sender, \"Privilege escalation\");\r\n                emit MaliciousActivityReported(msg.sender, penaltyAmount, reason, blockingEndTime);\r\n                return;\r\n        }\r\n\r\n        roleBasedAccessControl.revokeRole(account);\r\n        emit AccessGranted(msg.sender, \"GlobalResourceTable\", \"Delete\");\r\n    }\r\n\r\n    function viewLocalResourceTable() external notBlocked onlyAuthorizedRequesters(\"LocalResourceTable\", \"view\") {\r\n        RoleToken.Member memory member = roleBasedAccessControl.getMember(msg.sender);\r\n        // Retrieve the global resource table\r\n        RoleToken.Member[] memory localResourceTable = roleBasedAccessControl.getLocalResourceTable(member.memberType);\r\n\r\n        emit AccessGranted(msg.sender, \"GlobalResourceTable\", \"View\");\r\n        // Emit the event with the retrieved resource table\r\n        emit LocalResourceTableViewed(msg.sender, localResourceTable);\r\n    }\r\n\r\n    function editLocalResourceTable(address account1, address account2) external notBlocked onlyAuthorizedRequesters(\"LocalResourceTable\", \"edit\") {\r\n        // Update the local resource table by editing a specific role\r\n        // Check if both accounts are Primary Group Heads (PGHs) for global resource table operations\r\n        if ((roleBasedAccessControl.getRole(account1) != RoleToken.Role.SECONDARY_GROUP_HEAD && roleBasedAccessControl.getRole(account1) != RoleToken.Role.REGULAR_MEMBER) ||\r\n            (roleBasedAccessControl.getRole(account2) != RoleToken.Role.SECONDARY_GROUP_HEAD && roleBasedAccessControl.getRole(account2) != RoleToken.Role.REGULAR_MEMBER)) {\r\n                (uint256 penaltyAmount, string memory reason, uint256 blockingEndTime) = judgeContract.reportMaliciousActivity(msg.sender, \"Privilege escalation\");\r\n                emit MaliciousActivityReported(msg.sender, penaltyAmount, reason, blockingEndTime);\r\n                return;\r\n        }\r\n\r\n        roleBasedAccessControl.swapRole(account1, account2);\r\n        emit AccessGranted(msg.sender, \"LocalResourceTable\", \"Edit\");\r\n    }\r\n\r\n    function deleteLocalResourceTable(address account) external notBlocked onlyAuthorizedRequesters(\"LocalResourceTable\", \"delete\") {\r\n        // Revoke role to effectively remove the member from the local resource table\r\n        if (roleBasedAccessControl.getRole(account) != RoleToken.Role.SECONDARY_GROUP_HEAD || roleBasedAccessControl.getRole(account) != RoleToken.Role.REGULAR_MEMBER) {\r\n            (uint256 penaltyAmount, string memory reason, uint256 blockingEndTime) = judgeContract.reportMaliciousActivity(msg.sender, \"Privilege escalation\");\r\n            emit MaliciousActivityReported(msg.sender, penaltyAmount, reason, blockingEndTime);\r\n            return;\r\n        }\r\n        \r\n        roleBasedAccessControl.revokeRole(account);\r\n        emit AccessGranted(msg.sender, \"LocalResourceTable\", \"Delete\");\r\n    }\r\n}\r\n",
  "sourcePath": "D:\\Desktop\\Dersler\\2024\\thesis\\Contracts\\contracts_v2 - test\\contracts\\TableAccessControlContract.sol",
  "compiler": {
    "name": "solc",
    "version": "0.8.21+commit.d9974bed.Emscripten.clang"
  },
  "schemaVersion": "3.4.16",
  "updatedAt": "2024-12-19T18:38:01.826Z",
  "devdoc": {
    "errors": {
      "OwnableInvalidOwner(address)": [
        {
          "details": "The owner is not a valid owner account. (eg. `address(0)`)"
        }
      ],
      "OwnableUnauthorizedAccount(address)": [
        {
          "details": "The caller account is not authorized to perform an operation."
        }
      ]
    },
    "kind": "dev",
    "methods": {
      "owner()": {
        "details": "Returns the address of the current owner."
      },
      "renounceOwnership()": {
        "details": "Leaves the contract without owner. It will not be possible to call `onlyOwner` functions. Can only be called by the current owner. NOTE: Renouncing ownership will leave the contract without an owner, thereby disabling any functionality that is only available to the owner."
      },
      "transferOwnership(address)": {
        "details": "Transfers ownership of the contract to a new account (`newOwner`). Can only be called by the current owner."
      }
    },
    "version": 1
  },
  "userdoc": {
    "kind": "user",
    "methods": {},
    "version": 1
  }
}