{
  "_format": "hh-sol-artifact-1",
  "contractName": "JudgeContractNew",
  "sourceName": "contracts/JudgeContractNew.sol",
  "abi": [
    {
      "inputs": [
        {
          "internalType": "address",
          "name": "initialAdmin",
          "type": "address"
        },
        {
          "internalType": "address",
          "name": "_roleBasedAccessContract",
          "type": "address"
        }
      ],
      "stateMutability": "nonpayable",
      "type": "constructor"
    },
    {
      "inputs": [
        {
          "internalType": "address",
          "name": "owner",
          "type": "address"
        }
      ],
      "name": "OwnableInvalidOwner",
      "type": "error"
    },
    {
      "inputs": [
        {
          "internalType": "address",
          "name": "account",
          "type": "address"
        }
      ],
      "name": "OwnableUnauthorizedAccount",
      "type": "error"
    },
    {
      "anonymous": false,
      "inputs": [
        {
          "indexed": true,
          "internalType": "address",
          "name": "memberAddress",
          "type": "address"
        },
        {
          "indexed": false,
          "internalType": "uint256",
          "name": "blockingEndTime",
          "type": "uint256"
        },
        {
          "indexed": false,
          "internalType": "string",
          "name": "reason",
          "type": "string"
        }
      ],
      "name": "MemberBlocked",
      "type": "event"
    },
    {
      "anonymous": false,
      "inputs": [
        {
          "indexed": true,
          "internalType": "address",
          "name": "previousOwner",
          "type": "address"
        },
        {
          "indexed": true,
          "internalType": "address",
          "name": "newOwner",
          "type": "address"
        }
      ],
      "name": "OwnershipTransferred",
      "type": "event"
    },
    {
      "anonymous": false,
      "inputs": [
        {
          "indexed": true,
          "internalType": "address",
          "name": "memberAddress",
          "type": "address"
        },
        {
          "indexed": false,
          "internalType": "uint256",
          "name": "penaltyAmount",
          "type": "uint256"
        },
        {
          "indexed": false,
          "internalType": "string",
          "name": "reason",
          "type": "string"
        }
      ],
      "name": "Penalized",
      "type": "event"
    },
    {
      "anonymous": false,
      "inputs": [
        {
          "indexed": true,
          "internalType": "address",
          "name": "memberAddress",
          "type": "address"
        },
        {
          "indexed": false,
          "internalType": "uint256",
          "name": "rewardAmount",
          "type": "uint256"
        }
      ],
      "name": "RewardIssued",
      "type": "event"
    },
    {
      "anonymous": false,
      "inputs": [
        {
          "indexed": true,
          "internalType": "address",
          "name": "memberAddress",
          "type": "address"
        },
        {
          "indexed": false,
          "internalType": "string",
          "name": "newStatus",
          "type": "string"
        }
      ],
      "name": "StatusUpdated",
      "type": "event"
    },
    {
      "inputs": [],
      "name": "admin",
      "outputs": [
        {
          "internalType": "address",
          "name": "",
          "type": "address"
        }
      ],
      "stateMutability": "view",
      "type": "function"
    },
    {
      "inputs": [],
      "name": "benignThreshold",
      "outputs": [
        {
          "internalType": "uint256",
          "name": "",
          "type": "uint256"
        }
      ],
      "stateMutability": "view",
      "type": "function"
    },
    {
      "inputs": [],
      "name": "benignThresholdForMalicious",
      "outputs": [
        {
          "internalType": "uint256",
          "name": "",
          "type": "uint256"
        }
      ],
      "stateMutability": "view",
      "type": "function"
    },
    {
      "inputs": [
        {
          "internalType": "address",
          "name": "",
          "type": "address"
        }
      ],
      "name": "misbehaviorHistory",
      "outputs": [
        {
          "internalType": "uint256",
          "name": "lastPenaltyTime",
          "type": "uint256"
        },
        {
          "internalType": "uint256",
          "name": "blockingEndTime",
          "type": "uint256"
        }
      ],
      "stateMutability": "view",
      "type": "function"
    },
    {
      "inputs": [],
      "name": "misbehaviorThreshold",
      "outputs": [
        {
          "internalType": "uint256",
          "name": "",
          "type": "uint256"
        }
      ],
      "stateMutability": "view",
      "type": "function"
    },
    {
      "inputs": [],
      "name": "owner",
      "outputs": [
        {
          "internalType": "address",
          "name": "",
          "type": "address"
        }
      ],
      "stateMutability": "view",
      "type": "function"
    },
    {
      "inputs": [],
      "name": "renounceOwnership",
      "outputs": [],
      "stateMutability": "nonpayable",
      "type": "function"
    },
    {
      "inputs": [
        {
          "internalType": "address",
          "name": "_memberAddress",
          "type": "address"
        },
        {
          "internalType": "string",
          "name": "reason",
          "type": "string"
        }
      ],
      "name": "reportMaliciousActivity",
      "outputs": [],
      "stateMutability": "nonpayable",
      "type": "function"
    },
    {
      "inputs": [
        {
          "internalType": "address",
          "name": "_memberAddress",
          "type": "address"
        }
      ],
      "name": "reportNonPenalizeMisbehavior",
      "outputs": [],
      "stateMutability": "nonpayable",
      "type": "function"
    },
    {
      "inputs": [],
      "name": "roleBasedAccessContract",
      "outputs": [
        {
          "internalType": "contract RoleBasedAccessControl",
          "name": "",
          "type": "address"
        }
      ],
      "stateMutability": "view",
      "type": "function"
    },
    {
      "inputs": [
        {
          "internalType": "address",
          "name": "newOwner",
          "type": "address"
        }
      ],
      "name": "transferOwnership",
      "outputs": [],
      "stateMutability": "nonpayable",
      "type": "function"
    }
  ],
  "bytecode": "0x6080604052620151806005556202a3006006556102586007553480156200002557600080fd5b5060405162002df338038062002df383398181016040528101906200004b919062000836565b81600073ffffffffffffffffffffffffffffffffffffffff168173ffffffffffffffffffffffffffffffffffffffff1603620000c15760006040517f1e4fbdf7000000000000000000000000000000000000000000000000000000008152600401620000b891906200088e565b60405180910390fd5b620000d2816200070860201b60201c565b5081600260006101000a81548173ffffffffffffffffffffffffffffffffffffffff021916908373ffffffffffffffffffffffffffffffffffffffff16021790555080600160006101000a81548173ffffffffffffffffffffffffffffffffffffffff021916908373ffffffffffffffffffffffffffffffffffffffff16021790555060405180606001604052806040518060400160405280600581526020017f6d616a6f7200000000000000000000000000000000000000000000000000000081525081526020016113888152602001610e108152506004604051620001b99062000906565b90815260200160405180910390206000820151816000019081620001de919062000b97565b50602082015181600101556040820151816002015590505060405180606001604052806040518060400160405280600581526020017f6d696e6f7200000000000000000000000000000000000000000000000000000081525081526020016103e8815260200161025881525060046040516200025a9062000cce565b908152602001604051809103902060008201518160000190816200027f919062000b97565b50602082015181600101556040820151816002015590505060405180606001604052806040518060400160405280600581526020017f6d616a6f720000000000000000000000000000000000000000000000000000008152508152602001611b588152602001611c208152506004604051620002fb9062000d35565b9081526020016040518091039020600082015181600001908162000320919062000b97565b50602082015181600101556040820151816002015590505060405180606001604052806040518060400160405280600581526020017f6d616a6f720000000000000000000000000000000000000000000000000000008152508152602001612710815260200161465081525060046040516200039c9062000d9c565b90815260200160405180910390206000820151816000019081620003c1919062000b97565b50602082015181600101556040820151816002015590505060405180606001604052806040518060400160405280600581526020017f6d696e6f7200000000000000000000000000000000000000000000000000000081525081526020016107d081526020016104b081525060046040516200043d9062000e03565b9081526020016040518091039020600082015181600001908162000462919062000b97565b50602082015181600101556040820151816002015590505060405180606001604052806040518060400160405280600581526020017f6d696e6f720000000000000000000000000000000000000000000000000000008152508152602001610bb88152602001610e108152506004604051620004de9062000e6a565b9081526020016040518091039020600082015181600001908162000503919062000b97565b50602082015181600101556040820151816002015590505060405180606001604052806040518060400160405280600581526020017f6d616a6f720000000000000000000000000000000000000000000000000000008152508152602001611f408152602001612a3081525060046040516200057f9062000ed1565b90815260200160405180910390206000820151816000019081620005a4919062000b97565b50602082015181600101556040820151816002015590505060405180606001604052806040518060400160405280600581526020017f6d616a6f720000000000000000000000000000000000000000000000000000008152508152602001614e2081526020016202a3008152506004604051620006219062000f38565b9081526020016040518091039020600082015181600001908162000646919062000b97565b50602082015181600101556040820151816002015590505060405180606001604052806040518060400160405280600581526020017f6d616a6f72000000000000000000000000000000000000000000000000000000815250815260200161c3508152602001620546008152506004604051620006c39062000fc5565b90815260200160405180910390206000820151816000019081620006e8919062000b97565b506020820151816001015560408201518160020155905050505062000fdc565b60008060009054906101000a900473ffffffffffffffffffffffffffffffffffffffff169050816000806101000a81548173ffffffffffffffffffffffffffffffffffffffff021916908373ffffffffffffffffffffffffffffffffffffffff1602179055508173ffffffffffffffffffffffffffffffffffffffff168173ffffffffffffffffffffffffffffffffffffffff167f8be0079c531659141344cd1fd0a4f28419497f9722a3daafe3b4186f6b6457e060405160405180910390a35050565b600080fd5b600073ffffffffffffffffffffffffffffffffffffffff82169050919050565b6000620007fe82620007d1565b9050919050565b6200081081620007f1565b81146200081c57600080fd5b50565b600081519050620008308162000805565b92915050565b6000806040838503121562000850576200084f620007cc565b5b600062000860858286016200081f565b925050602062000873858286016200081f565b9150509250929050565b6200088881620007f1565b82525050565b6000602082019050620008a560008301846200087d565b92915050565b600081905092915050565b7f556e617574686f72697a65642061636365737320617474656d70740000000000600082015250565b6000620008ee601b83620008ab565b9150620008fb82620008b6565b601b82019050919050565b60006200091382620008df565b9150819050919050565b600081519050919050565b7f4e487b7100000000000000000000000000000000000000000000000000000000600052604160045260246000fd5b7f4e487b7100000000000000000000000000000000000000000000000000000000600052602260045260246000fd5b600060028204905060018216806200099f57607f821691505b602082108103620009b557620009b462000957565b5b50919050565b60008190508160005260206000209050919050565b60006020601f8301049050919050565b600082821b905092915050565b60006008830262000a1f7fffffffffffffffffffffffffffffffffffffffffffffffffffffffffffffffff82620009e0565b62000a2b8683620009e0565b95508019841693508086168417925050509392505050565b6000819050919050565b6000819050919050565b600062000a7862000a7262000a6c8462000a43565b62000a4d565b62000a43565b9050919050565b6000819050919050565b62000a948362000a57565b62000aac62000aa38262000a7f565b848454620009ed565b825550505050565b600090565b62000ac362000ab4565b62000ad081848462000a89565b505050565b5b8181101562000af85762000aec60008262000ab9565b60018101905062000ad6565b5050565b601f82111562000b475762000b1181620009bb565b62000b1c84620009d0565b8101602085101562000b2c578190505b62000b4462000b3b85620009d0565b83018262000ad5565b50505b505050565b600082821c905092915050565b600062000b6c6000198460080262000b4c565b1980831691505092915050565b600062000b87838362000b59565b9150826002028217905092915050565b62000ba2826200091d565b67ffffffffffffffff81111562000bbe5762000bbd62000928565b5b62000bca825462000986565b62000bd782828562000afc565b600060209050601f83116001811462000c0f576000841562000bfa578287015190505b62000c06858262000b79565b86555062000c76565b601f19841662000c1f86620009bb565b60005b8281101562000c495784890151825560018201915060208501945060208101905062000c22565b8683101562000c69578489015162000c65601f89168262000b59565b8355505b6001600288020188555050505b505050505050565b7f546f6f206672657175656e742061636365737300000000000000000000000000600082015250565b600062000cb6601383620008ab565b915062000cc38262000c7e565b601382019050919050565b600062000cdb8262000ca7565b9150819050919050565b7f44617461206c65616b61676520617474656d7074000000000000000000000000600082015250565b600062000d1d601483620008ab565b915062000d2a8262000ce5565b601482019050919050565b600062000d428262000d0e565b9150819050919050565b7f50726976696c65676520657363616c6174696f6e000000000000000000000000600082015250565b600062000d84601483620008ab565b915062000d918262000d4c565b601482019050919050565b600062000da98262000d75565b9150819050919050565b7f53706f6f66696e6720617474656d707400000000000000000000000000000000600082015250565b600062000deb601083620008ab565b915062000df88262000db3565b601082019050919050565b600062000e108262000ddc565b9150819050919050565b7f5265707564696174696f6e20617474656d707400000000000000000000000000600082015250565b600062000e52601383620008ab565b915062000e5f8262000e1a565b601382019050919050565b600062000e778262000e43565b9150819050919050565b7f54616d706572696e672077697468206461746100000000000000000000000000600082015250565b600062000eb9601383620008ab565b915062000ec68262000e81565b601382019050919050565b600062000ede8262000eaa565b9150819050919050565b7f44656e69616c206f662053657276696365000000000000000000000000000000600082015250565b600062000f20601183620008ab565b915062000f2d8262000ee8565b601182019050919050565b600062000f458262000f11565b9150819050919050565b7f5265706574697469766520636f756e742072656163686564207468726573686f60008201527f6c64000000000000000000000000000000000000000000000000000000000000602082015250565b600062000fad602283620008ab565b915062000fba8262000f4f565b602282019050919050565b600062000fd28262000f9e565b9150819050919050565b611e078062000fec6000396000f3fe608060405234801561001057600080fd5b50600436106100a95760003560e01c80638da5cb5b116100715780638da5cb5b146101415780639334e69f1461015f578063b08aae461461017d578063c4df01ce1461019b578063f2fde38b146101b7578063f851a440146101d3576100a9565b80631e349d1c146100ae57806348d33ef2146100ca578063700733f8146100e8578063715018a61461011957806375ed284514610123575b600080fd5b6100c860048036038101906100c39190610fca565b6101f1565b005b6100d26104a7565b6040516100df9190611010565b60405180910390f35b61010260048036038101906100fd9190610fca565b6104ad565b60405161011092919061102b565b60405180910390f35b6101216104d1565b005b61012b6104e5565b60405161013891906110b3565b60405180910390f35b61014961050b565b60405161015691906110dd565b60405180910390f35b610167610534565b6040516101749190611010565b60405180910390f35b61018561053a565b6040516101929190611010565b60405180910390f35b6101b560048036038101906101b0919061123e565b610540565b005b6101d160048036038101906101cc9190610fca565b61073f565b005b6101db6107c5565b6040516101e891906110dd565b60405180910390f35b6101f96107eb565b6000600160009054906101000a900473ffffffffffffffffffffffffffffffffffffffff1673ffffffffffffffffffffffffffffffffffffffff16632ada2596836040518263ffffffff1660e01b815260040161025691906110dd565b600060405180830381865afa158015610273573d6000803e3d6000fd5b505050506040513d6000823e3d601f19601f8201168201806040525081019061029c9190611498565b905060008160800151426102b09190611510565b90506040516020016102c19061159b565b6040516020818303038152906040528051906020012082606001516040516020016102ec91906115ec565b604051602081830303815290604052805190602001200361035e5760055481106103595761031983610872565b610358836040518060400160405280600781526020017f6e6f7468696e670000000000000000000000000000000000000000000000000081525061095e565b5b6104a2565b60405160200161036d9061164f565b60405160208183030381529060405280519060200120826060015160405160200161039891906115ec565b60405160208183030381529060405280519060200120036104015760055481106103fc576103fb836040518060400160405280600781526020017f6e6f7468696e670000000000000000000000000000000000000000000000000081525061095e565b5b6104a1565b604051602001610410906116b0565b60405160208183030381529060405280519060200120826060015160405160200161043b91906115ec565b60405160208183030381529060405280519060200120036104a057600654811061049f5761049e836040518060400160405280600781526020017f6e6f7468696e670000000000000000000000000000000000000000000000000081525061095e565b5b5b5b5b505050565b60055481565b60036020528060005260406000206000915090508060010154908060020154905082565b6104d96107eb565b6104e36000610ced565b565b600160009054906101000a900473ffffffffffffffffffffffffffffffffffffffff1681565b60008060009054906101000a900473ffffffffffffffffffffffffffffffffffffffff16905090565b60075481565b60065481565b6000815111610584576040517f08c379a000000000000000000000000000000000000000000000000000000000815260040161057b90611722565b60405180910390fd5b6000600360008473ffffffffffffffffffffffffffffffffffffffff1673ffffffffffffffffffffffffffffffffffffffff1681526020019081526020016000209050600042905060006004846040516105de91906115ec565b908152602001604051809103902060405180606001604052908160008201805461060790611771565b80601f016020809104026020016040519081016040528092919081815260200182805461063390611771565b80156106805780601f1061065557610100808354040283529160200191610680565b820191906000526020600020905b81548152906001019060200180831161066357829003601f168201915b5050505050815260200160018201548152602001600282015481525050905060006004856040516106b191906115ec565b908152602001604051809103902060020154905083600001859080600181540180825580915050600190039060005260206000200160009091909190915090816106fb9190611944565b5082846001018190555061071386836000015161095e565b61072286836020015187610db1565b600081111561073757610736868287610e9f565b5b505050505050565b6107476107eb565b600073ffffffffffffffffffffffffffffffffffffffff168173ffffffffffffffffffffffffffffffffffffffff16036107b95760006040517f1e4fbdf70000000000000000000000000000000000000000000000000000000081526004016107b091906110dd565b60405180910390fd5b6107c281610ced565b50565b600260009054906101000a900473ffffffffffffffffffffffffffffffffffffffff1681565b6107f3610f50565b73ffffffffffffffffffffffffffffffffffffffff1661081161050b565b73ffffffffffffffffffffffffffffffffffffffff161461087057610834610f50565b6040517f118cdaa700000000000000000000000000000000000000000000000000000000815260040161086791906110dd565b60405180910390fd5b565b61087a6107eb565b600160009054906101000a900473ffffffffffffffffffffffffffffffffffffffff1673ffffffffffffffffffffffffffffffffffffffff1663746d961e826113886040518363ffffffff1660e01b81526004016108d9929190611a51565b600060405180830381600087803b1580156108f357600080fd5b505af1158015610907573d6000803e3d6000fd5b505050508073ffffffffffffffffffffffffffffffffffffffff167ff9b6ec770c96c3a6f9225bf3a8463a8ad03e884448af07b4ecd4d19d628946ee6113886040516109539190611a7a565b60405180910390a250565b60405160200161096d90611ae1565b604051602081830303815290604052805190602001208160405160200161099491906115ec565b6040516020818303038152906040528051906020012003610a8d57600160009054906101000a900473ffffffffffffffffffffffffffffffffffffffff1673ffffffffffffffffffffffffffffffffffffffff16631bc15d53836040518263ffffffff1660e01b8152600401610a0a9190611b19565b600060405180830381600087803b158015610a2457600080fd5b505af1158015610a38573d6000803e3d6000fd5b505050508173ffffffffffffffffffffffffffffffffffffffff167fa14bd4539d3435e61a25a7ed755caf1001aa7e9b044c46d2d004478fe2e88b77604051610a8090611b47565b60405180910390a2610ce9565b604051602001610a9c90611bb3565b6040516020818303038152906040528051906020012081604051602001610ac391906115ec565b6040516020818303038152906040528051906020012003610bbc57600160009054906101000a900473ffffffffffffffffffffffffffffffffffffffff1673ffffffffffffffffffffffffffffffffffffffff16631bc15d53836040518263ffffffff1660e01b8152600401610b399190611beb565b600060405180830381600087803b158015610b5357600080fd5b505af1158015610b67573d6000803e3d6000fd5b505050508173ffffffffffffffffffffffffffffffffffffffff167fa14bd4539d3435e61a25a7ed755caf1001aa7e9b044c46d2d004478fe2e88b77604051610baf90611c19565b60405180910390a2610ce8565b604051602001610bcb90611c85565b6040516020818303038152906040528051906020012081604051602001610bf291906115ec565b6040516020818303038152906040528051906020012003610ce757600160009054906101000a900473ffffffffffffffffffffffffffffffffffffffff1673ffffffffffffffffffffffffffffffffffffffff16631bc15d53836040518263ffffffff1660e01b8152600401610c689190611cbd565b600060405180830381600087803b158015610c8257600080fd5b505af1158015610c96573d6000803e3d6000fd5b505050508173ffffffffffffffffffffffffffffffffffffffff167fa14bd4539d3435e61a25a7ed755caf1001aa7e9b044c46d2d004478fe2e88b77604051610cde90611ceb565b60405180910390a25b5b5b5050565b60008060009054906101000a900473ffffffffffffffffffffffffffffffffffffffff169050816000806101000a81548173ffffffffffffffffffffffffffffffffffffffff021916908373ffffffffffffffffffffffffffffffffffffffff1602179055508173ffffffffffffffffffffffffffffffffffffffff168173ffffffffffffffffffffffffffffffffffffffff167f8be0079c531659141344cd1fd0a4f28419497f9722a3daafe3b4186f6b6457e060405160405180910390a35050565b6000821115610e4a57600160009054906101000a900473ffffffffffffffffffffffffffffffffffffffff1673ffffffffffffffffffffffffffffffffffffffff16633b5e80b284846040518363ffffffff1660e01b8152600401610e17929190611d0b565b600060405180830381600087803b158015610e3157600080fd5b505af1158015610e45573d6000803e3d6000fd5b505050505b8273ffffffffffffffffffffffffffffffffffffffff167f8c42d77a98c4fc8f88c68598c1aeb59aff4b2d81cdc6b9a467cebfb85893d7cc8383604051610e92929190611d6d565b60405180910390a2505050565b6000600360008573ffffffffffffffffffffffffffffffffffffffff1673ffffffffffffffffffffffffffffffffffffffff16815260200190815260200160002090508242610eee9190611d9d565b81600201819055508373ffffffffffffffffffffffffffffffffffffffff167fa85240da8b46fb556156b974826607837766e291b6badaffe434b30d4b4d1a3f826002015484604051610f42929190611d6d565b60405180910390a250505050565b600033905090565b6000604051905090565b600080fd5b600080fd5b600073ffffffffffffffffffffffffffffffffffffffff82169050919050565b6000610f9782610f6c565b9050919050565b610fa781610f8c565b8114610fb257600080fd5b50565b600081359050610fc481610f9e565b92915050565b600060208284031215610fe057610fdf610f62565b5b6000610fee84828501610fb5565b91505092915050565b6000819050919050565b61100a81610ff7565b82525050565b60006020820190506110256000830184611001565b92915050565b60006040820190506110406000830185611001565b61104d6020830184611001565b9392505050565b6000819050919050565b600061107961107461106f84610f6c565b611054565b610f6c565b9050919050565b600061108b8261105e565b9050919050565b600061109d82611080565b9050919050565b6110ad81611092565b82525050565b60006020820190506110c860008301846110a4565b92915050565b6110d781610f8c565b82525050565b60006020820190506110f260008301846110ce565b92915050565b600080fd5b600080fd5b6000601f19601f8301169050919050565b7f4e487b7100000000000000000000000000000000000000000000000000000000600052604160045260246000fd5b61114b82611102565b810181811067ffffffffffffffff8211171561116a57611169611113565b5b80604052505050565b600061117d610f58565b90506111898282611142565b919050565b600067ffffffffffffffff8211156111a9576111a8611113565b5b6111b282611102565b9050602081019050919050565b82818337600083830152505050565b60006111e16111dc8461118e565b611173565b9050828152602081018484840111156111fd576111fc6110fd565b5b6112088482856111bf565b509392505050565b600082601f830112611225576112246110f8565b5b81356112358482602086016111ce565b91505092915050565b6000806040838503121561125557611254610f62565b5b600061126385828601610fb5565b925050602083013567ffffffffffffffff81111561128457611283610f67565b5b61129085828601611210565b9150509250929050565b600080fd5b600080fd5b6000815190506112b381610f9e565b92915050565b60005b838110156112d75780820151818401526020810190506112bc565b60008484015250505050565b60006112f66112f18461118e565b611173565b905082815260208101848484011115611312576113116110fd565b5b61131d8482856112b9565b509392505050565b600082601f83011261133a576113396110f8565b5b815161134a8482602086016112e3565b91505092915050565b61135c81610ff7565b811461136757600080fd5b50565b60008151905061137981611353565b92915050565b6005811061138c57600080fd5b50565b60008151905061139e8161137f565b92915050565b600060c082840312156113ba576113b961129a565b5b6113c460c0611173565b905060006113d4848285016112a4565b600083015250602082015167ffffffffffffffff8111156113f8576113f761129f565b5b61140484828501611325565b602083015250604082015167ffffffffffffffff8111156114285761142761129f565b5b61143484828501611325565b604083015250606082015167ffffffffffffffff8111156114585761145761129f565b5b61146484828501611325565b60608301525060806114788482850161136a565b60808301525060a061148c8482850161138f565b60a08301525092915050565b6000602082840312156114ae576114ad610f62565b5b600082015167ffffffffffffffff8111156114cc576114cb610f67565b5b6114d8848285016113a4565b91505092915050565b7f4e487b7100000000000000000000000000000000000000000000000000000000600052601160045260246000fd5b600061151b82610ff7565b915061152683610ff7565b925082820390508181111561153e5761153d6114e1565b5b92915050565b600081905092915050565b7f42454e49474e0000000000000000000000000000000000000000000000000000600082015250565b6000611585600683611544565b91506115908261154f565b600682019050919050565b60006115a682611578565b9150819050919050565b600081519050919050565b60006115c6826115b0565b6115d08185611544565b93506115e08185602086016112b9565b80840191505092915050565b60006115f882846115bb565b915081905092915050565b7f535553504943494f555300000000000000000000000000000000000000000000600082015250565b6000611639600a83611544565b915061164482611603565b600a82019050919050565b600061165a8261162c565b9150819050919050565b7f4d414c4943494f55530000000000000000000000000000000000000000000000600082015250565b600061169a600983611544565b91506116a582611664565b600982019050919050565b60006116bb8261168d565b9150819050919050565b600082825260208201905092915050565b7f526561736f6e2063616e6e6f7420626520656d70747900000000000000000000600082015250565b600061170c6016836116c5565b9150611717826116d6565b602082019050919050565b6000602082019050818103600083015261173b816116ff565b9050919050565b7f4e487b7100000000000000000000000000000000000000000000000000000000600052602260045260246000fd5b6000600282049050600182168061178957607f821691505b60208210810361179c5761179b611742565b5b50919050565b60008190508160005260206000209050919050565b60006020601f8301049050919050565b600082821b905092915050565b6000600883026118047fffffffffffffffffffffffffffffffffffffffffffffffffffffffffffffffff826117c7565b61180e86836117c7565b95508019841693508086168417925050509392505050565b600061184161183c61183784610ff7565b611054565b610ff7565b9050919050565b6000819050919050565b61185b83611826565b61186f61186782611848565b8484546117d4565b825550505050565b600090565b611884611877565b61188f818484611852565b505050565b5b818110156118b3576118a860008261187c565b600181019050611895565b5050565b601f8211156118f8576118c9816117a2565b6118d2846117b7565b810160208510156118e1578190505b6118f56118ed856117b7565b830182611894565b50505b505050565b600082821c905092915050565b600061191b600019846008026118fd565b1980831691505092915050565b6000611934838361190a565b9150826002028217905092915050565b61194d826115b0565b67ffffffffffffffff81111561196657611965611113565b5b6119708254611771565b61197b8282856118b7565b600060209050601f8311600181146119ae576000841561199c578287015190505b6119a68582611928565b865550611a0e565b601f1984166119bc866117a2565b60005b828110156119e4578489015182556001820191506020850194506020810190506119bf565b86831015611a0157848901516119fd601f89168261190a565b8355505b6001600288020188555050505b505050505050565b6000819050919050565b6000611a3b611a36611a3184611a16565b611054565b610ff7565b9050919050565b611a4b81611a20565b82525050565b6000604082019050611a6660008301856110ce565b611a736020830184611a42565b9392505050565b6000602082019050611a8f6000830184611a42565b92915050565b7f6d616a6f72000000000000000000000000000000000000000000000000000000600082015250565b6000611acb600583611544565b9150611ad682611a95565b600582019050919050565b6000611aec82611abe565b9150819050919050565b6000611b036009836116c5565b9150611b0e82611664565b602082019050919050565b6000604082019050611b2e60008301846110ce565b8181036020830152611b3f81611af6565b905092915050565b60006020820190508181036000830152611b6081611af6565b9050919050565b7f6d696e6f72000000000000000000000000000000000000000000000000000000600082015250565b6000611b9d600583611544565b9150611ba882611b67565b600582019050919050565b6000611bbe82611b90565b9150819050919050565b6000611bd5600a836116c5565b9150611be082611603565b602082019050919050565b6000604082019050611c0060008301846110ce565b8181036020830152611c1181611bc8565b905092915050565b60006020820190508181036000830152611c3281611bc8565b9050919050565b7f6e6f7468696e6700000000000000000000000000000000000000000000000000600082015250565b6000611c6f600783611544565b9150611c7a82611c39565b600782019050919050565b6000611c9082611c62565b9150819050919050565b6000611ca76006836116c5565b9150611cb28261154f565b602082019050919050565b6000604082019050611cd260008301846110ce565b8181036020830152611ce381611c9a565b905092915050565b60006020820190508181036000830152611d0481611c9a565b9050919050565b6000604082019050611d2060008301856110ce565b611d2d6020830184611001565b9392505050565b6000611d3f826115b0565b611d4981856116c5565b9350611d598185602086016112b9565b611d6281611102565b840191505092915050565b6000604082019050611d826000830185611001565b8181036020830152611d948184611d34565b90509392505050565b6000611da882610ff7565b9150611db383610ff7565b9250828201905080821115611dcb57611dca6114e1565b5b9291505056fea2646970667358221220d3fcd0cc323f1e7d82ba030740120b25848fccdfae89726eda8c0b58811a646464736f6c63430008150033",
  "linkReferences": {},
  "deployedLinkReferences": {}
}